{
	"contracts/JumpRateModelV2.sol": {
		"JumpRateModelV2": {
			"abi": [
				{
					"inputs": [
						{
							"internalType": "uint256",
							"name": "baseRatePerYear",
							"type": "uint256"
						},
						{
							"internalType": "uint256",
							"name": "multiplierPerYear",
							"type": "uint256"
						},
						{
							"internalType": "uint256",
							"name": "jumpMultiplierPerYear",
							"type": "uint256"
						},
						{
							"internalType": "uint256",
							"name": "kink_",
							"type": "uint256"
						},
						{
							"internalType": "address",
							"name": "owner_",
							"type": "address"
						}
					],
					"stateMutability": "nonpayable",
					"type": "constructor"
				},
				{
					"anonymous": false,
					"inputs": [
						{
							"indexed": false,
							"internalType": "uint256",
							"name": "baseRatePerBlock",
							"type": "uint256"
						},
						{
							"indexed": false,
							"internalType": "uint256",
							"name": "multiplierPerBlock",
							"type": "uint256"
						},
						{
							"indexed": false,
							"internalType": "uint256",
							"name": "jumpMultiplierPerBlock",
							"type": "uint256"
						},
						{
							"indexed": false,
							"internalType": "uint256",
							"name": "kink",
							"type": "uint256"
						}
					],
					"name": "NewInterestParams",
					"type": "event"
				},
				{
					"inputs": [],
					"name": "baseRatePerBlock",
					"outputs": [
						{
							"internalType": "uint256",
							"name": "",
							"type": "uint256"
						}
					],
					"stateMutability": "view",
					"type": "function"
				},
				{
					"inputs": [],
					"name": "blocksPerYear",
					"outputs": [
						{
							"internalType": "uint256",
							"name": "",
							"type": "uint256"
						}
					],
					"stateMutability": "view",
					"type": "function"
				},
				{
					"inputs": [
						{
							"internalType": "uint256",
							"name": "cash",
							"type": "uint256"
						},
						{
							"internalType": "uint256",
							"name": "borrows",
							"type": "uint256"
						},
						{
							"internalType": "uint256",
							"name": "reserves",
							"type": "uint256"
						}
					],
					"name": "getBorrowRate",
					"outputs": [
						{
							"internalType": "uint256",
							"name": "",
							"type": "uint256"
						}
					],
					"stateMutability": "view",
					"type": "function"
				},
				{
					"inputs": [
						{
							"internalType": "uint256",
							"name": "cash",
							"type": "uint256"
						},
						{
							"internalType": "uint256",
							"name": "borrows",
							"type": "uint256"
						},
						{
							"internalType": "uint256",
							"name": "reserves",
							"type": "uint256"
						},
						{
							"internalType": "uint256",
							"name": "reserveFactorMantissa",
							"type": "uint256"
						}
					],
					"name": "getSupplyRate",
					"outputs": [
						{
							"internalType": "uint256",
							"name": "",
							"type": "uint256"
						}
					],
					"stateMutability": "view",
					"type": "function"
				},
				{
					"inputs": [],
					"name": "isInterestRateModel",
					"outputs": [
						{
							"internalType": "bool",
							"name": "",
							"type": "bool"
						}
					],
					"stateMutability": "view",
					"type": "function"
				},
				{
					"inputs": [],
					"name": "jumpMultiplierPerBlock",
					"outputs": [
						{
							"internalType": "uint256",
							"name": "",
							"type": "uint256"
						}
					],
					"stateMutability": "view",
					"type": "function"
				},
				{
					"inputs": [],
					"name": "kink",
					"outputs": [
						{
							"internalType": "uint256",
							"name": "",
							"type": "uint256"
						}
					],
					"stateMutability": "view",
					"type": "function"
				},
				{
					"inputs": [],
					"name": "multiplierPerBlock",
					"outputs": [
						{
							"internalType": "uint256",
							"name": "",
							"type": "uint256"
						}
					],
					"stateMutability": "view",
					"type": "function"
				},
				{
					"inputs": [],
					"name": "owner",
					"outputs": [
						{
							"internalType": "address",
							"name": "",
							"type": "address"
						}
					],
					"stateMutability": "view",
					"type": "function"
				},
				{
					"inputs": [
						{
							"internalType": "uint256",
							"name": "baseRatePerYear",
							"type": "uint256"
						},
						{
							"internalType": "uint256",
							"name": "multiplierPerYear",
							"type": "uint256"
						},
						{
							"internalType": "uint256",
							"name": "jumpMultiplierPerYear",
							"type": "uint256"
						},
						{
							"internalType": "uint256",
							"name": "kink_",
							"type": "uint256"
						}
					],
					"name": "updateJumpRateModel",
					"outputs": [],
					"stateMutability": "nonpayable",
					"type": "function"
				},
				{
					"inputs": [
						{
							"internalType": "uint256",
							"name": "cash",
							"type": "uint256"
						},
						{
							"internalType": "uint256",
							"name": "borrows",
							"type": "uint256"
						},
						{
							"internalType": "uint256",
							"name": "reserves",
							"type": "uint256"
						}
					],
					"name": "utilizationRate",
					"outputs": [
						{
							"internalType": "uint256",
							"name": "",
							"type": "uint256"
						}
					],
					"stateMutability": "pure",
					"type": "function"
				}
			],
			"devdoc": {
				"author": "Arr00",
				"kind": "dev",
				"methods": {
					"getBorrowRate(uint256,uint256,uint256)": {
						"params": {
							"borrows": "The amount of borrows in the market",
							"cash": "The amount of cash in the market",
							"reserves": "The amount of reserves in the market"
						},
						"returns": {
							"_0": "The borrow rate percentage per block as a mantissa (scaled by 1e18)"
						}
					},
					"getSupplyRate(uint256,uint256,uint256,uint256)": {
						"params": {
							"borrows": "The amount of borrows in the market",
							"cash": "The amount of cash in the market",
							"reserveFactorMantissa": "The current reserve factor for the market",
							"reserves": "The amount of reserves in the market"
						},
						"returns": {
							"_0": "The supply rate percentage per block as a mantissa (scaled by BASE)"
						}
					},
					"updateJumpRateModel(uint256,uint256,uint256,uint256)": {
						"params": {
							"baseRatePerYear": "The approximate target base APR, as a mantissa (scaled by BASE)",
							"jumpMultiplierPerYear": "The multiplierPerBlock after hitting a specified utilization point",
							"kink_": "The utilization point at which the jump multiplier is applied",
							"multiplierPerYear": "The rate of increase in interest rate wrt utilization (scaled by BASE)"
						}
					},
					"utilizationRate(uint256,uint256,uint256)": {
						"params": {
							"borrows": "The amount of borrows in the market",
							"cash": "The amount of cash in the market",
							"reserves": "The amount of reserves in the market (currently unused)"
						},
						"returns": {
							"_0": "The utilization rate as a mantissa between [0, BASE]"
						}
					}
				},
				"title": "Compound's JumpRateModel Contract V2 for V2 cTokens",
				"version": 1
			},
			"evm": {
				"assembly": "    /* \"contracts/JumpRateModelV2.sol\":270:1068  contract JumpRateModelV2 is InterestRateModel, BaseJumpRateModelV2  {... */\n  mstore(0x40, 0x80)\n    /* \"contracts/JumpRateModelV2.sol\":848:1066  constructor(uint baseRatePerYear, uint multiplierPerYear, uint jumpMultiplierPerYear, uint kink_, address owner_)... */\n  callvalue\n  dup1\n  iszero\n  tag_1\n  jumpi\n  0x00\n  dup1\n  revert\ntag_1:\n  pop\n  mload(0x40)\n  sub(codesize, bytecodeSize)\n  dup1\n  bytecodeSize\n  dup4\n  codecopy\n  dup2\n  add\n  0x40\n  dup2\n  swap1\n  mstore\n  tag_2\n  swap2\n  tag_3\n  jump\t// in\ntag_2:\n    /* \"contracts/BaseJumpRateModelV2.sol\":2104:2109  owner */\n  0x00\n    /* \"contracts/BaseJumpRateModelV2.sol\":2104:2118  owner = owner_ */\n  dup1\n  sload\n  not(sub(shl(0xa0, 0x01), 0x01))\n  and\n  sub(shl(0xa0, 0x01), 0x01)\n  dup4\n  and\n  or\n  swap1\n  sstore\n    /* \"contracts/JumpRateModelV2.sol\":987:1002  baseRatePerYear */\n  dup5\n    /* \"contracts/JumpRateModelV2.sol\":1003:1020  multiplierPerYear */\n  dup5\n    /* \"contracts/JumpRateModelV2.sol\":1021:1042  jumpMultiplierPerYear */\n  dup5\n    /* \"contracts/JumpRateModelV2.sol\":1043:1048  kink_ */\n  dup5\n    /* \"contracts/BaseJumpRateModelV2.sol\":2104:2118  owner = owner_ */\n  dup5\n    /* \"contracts/BaseJumpRateModelV2.sol\":2129:2223  updateJumpRateModelInternal(baseRatePerYear,  multiplierPerYear, jumpMultiplierPerYear, kink_) */\n  tag_7\n    /* \"contracts/JumpRateModelV2.sol\":987:1002  baseRatePerYear */\n  dup6\n    /* \"contracts/JumpRateModelV2.sol\":1003:1020  multiplierPerYear */\n  dup6\n    /* \"contracts/JumpRateModelV2.sol\":1021:1042  jumpMultiplierPerYear */\n  dup6\n    /* \"contracts/JumpRateModelV2.sol\":1043:1048  kink_ */\n  dup6\n    /* \"contracts/BaseJumpRateModelV2.sol\":2129:2156  updateJumpRateModelInternal */\n  tag_8\n    /* \"contracts/BaseJumpRateModelV2.sol\":2129:2223  updateJumpRateModelInternal(baseRatePerYear,  multiplierPerYear, jumpMultiplierPerYear, kink_) */\n  jump\t// in\ntag_7:\n    /* \"contracts/BaseJumpRateModelV2.sol\":1971:2230  constructor(uint baseRatePerYear, uint multiplierPerYear, uint jumpMultiplierPerYear, uint kink_, address owner_) internal {... */\n  pop\n  pop\n  pop\n  pop\n  pop\n    /* \"contracts/JumpRateModelV2.sol\":848:1066  constructor(uint baseRatePerYear, uint multiplierPerYear, uint jumpMultiplierPerYear, uint kink_, address owner_)... */\n  pop\n  pop\n  pop\n  pop\n  pop\n    /* \"contracts/JumpRateModelV2.sol\":270:1068  contract JumpRateModelV2 is InterestRateModel, BaseJumpRateModelV2  {... */\n  jump(tag_21)\n    /* \"contracts/BaseJumpRateModelV2.sol\":5943:6420  function updateJumpRateModelInternal(uint baseRatePerYear, uint multiplierPerYear, uint jumpMultiplierPerYear, uint kink_) internal {... */\ntag_8:\n    /* \"contracts/BaseJumpRateModelV2.sol\":6104:6135  baseRatePerYear / blocksPerYear */\n  tag_12\n    /* \"contracts/BaseJumpRateModelV2.sol\":842:849  2102400 */\n  0x201480\n    /* \"contracts/BaseJumpRateModelV2.sol\":6104:6119  baseRatePerYear */\n  dup6\n    /* \"contracts/BaseJumpRateModelV2.sol\":6104:6135  baseRatePerYear / blocksPerYear */\n  tag_13\n  jump\t// in\ntag_12:\n    /* \"contracts/BaseJumpRateModelV2.sol\":6085:6101  baseRatePerBlock */\n  0x02\n    /* \"contracts/BaseJumpRateModelV2.sol\":6085:6135  baseRatePerBlock = baseRatePerYear / blocksPerYear */\n  sstore\n    /* \"contracts/BaseJumpRateModelV2.sol\":6196:6217  blocksPerYear * kink_ */\n  tag_14\n    /* \"contracts/BaseJumpRateModelV2.sol\":6212:6217  kink_ */\n  dup2\n    /* \"contracts/BaseJumpRateModelV2.sol\":842:849  2102400 */\n  0x201480\n    /* \"contracts/BaseJumpRateModelV2.sol\":6196:6217  blocksPerYear * kink_ */\n  tag_15\n  jump\t// in\ntag_14:\n    /* \"contracts/BaseJumpRateModelV2.sol\":6167:6191  multiplierPerYear * BASE */\n  tag_16\n    /* \"contracts/BaseJumpRateModelV2.sol\":529:533  1e18 */\n  0x0de0b6b3a7640000\n    /* \"contracts/BaseJumpRateModelV2.sol\":6167:6184  multiplierPerYear */\n  dup6\n    /* \"contracts/BaseJumpRateModelV2.sol\":6167:6191  multiplierPerYear * BASE */\n  tag_15\n  jump\t// in\ntag_16:\n    /* \"contracts/BaseJumpRateModelV2.sol\":6166:6218  (multiplierPerYear * BASE) / (blocksPerYear * kink_) */\n  tag_17\n  swap2\n  swap1\n  tag_13\n  jump\t// in\ntag_17:\n    /* \"contracts/BaseJumpRateModelV2.sol\":6145:6163  multiplierPerBlock */\n  0x01\n    /* \"contracts/BaseJumpRateModelV2.sol\":6145:6218  multiplierPerBlock = (multiplierPerYear * BASE) / (blocksPerYear * kink_) */\n  sstore\n    /* \"contracts/BaseJumpRateModelV2.sol\":6253:6290  jumpMultiplierPerYear / blocksPerYear */\n  tag_18\n    /* \"contracts/BaseJumpRateModelV2.sol\":842:849  2102400 */\n  0x201480\n    /* \"contracts/BaseJumpRateModelV2.sol\":6253:6274  jumpMultiplierPerYear */\n  dup4\n    /* \"contracts/BaseJumpRateModelV2.sol\":6253:6290  jumpMultiplierPerYear / blocksPerYear */\n  tag_13\n  jump\t// in\ntag_18:\n    /* \"contracts/BaseJumpRateModelV2.sol\":6228:6250  jumpMultiplierPerBlock */\n  0x03\n    /* \"contracts/BaseJumpRateModelV2.sol\":6228:6290  jumpMultiplierPerBlock = jumpMultiplierPerYear / blocksPerYear */\n  dup2\n  swap1\n  sstore\n    /* \"contracts/BaseJumpRateModelV2.sol\":6300:6304  kink */\n  0x04\n    /* \"contracts/BaseJumpRateModelV2.sol\":6300:6312  kink = kink_ */\n  dup3\n  swap1\n  sstore\n    /* \"contracts/BaseJumpRateModelV2.sol\":6346:6362  baseRatePerBlock */\n  sload(0x02)\n    /* \"contracts/BaseJumpRateModelV2.sol\":6364:6382  multiplierPerBlock */\n  sload(0x01)\n    /* \"contracts/BaseJumpRateModelV2.sol\":6328:6413  NewInterestParams(baseRatePerBlock, multiplierPerBlock, jumpMultiplierPerBlock, kink) */\n  0x40\n  dup1\n  mload\n    /* \"#utility.yul\":1278:1303   */\n  swap3\n  dup4\n  mstore\n    /* \"#utility.yul\":1334:1336   */\n  0x20\n    /* \"#utility.yul\":1319:1337   */\n  dup4\n  add\n    /* \"#utility.yul\":1312:1346   */\n  swap2\n  swap1\n  swap2\n  mstore\n    /* \"#utility.yul\":1362:1380   */\n  dup2\n  add\n    /* \"#utility.yul\":1355:1389   */\n  swap2\n  swap1\n  swap2\n  mstore\n    /* \"#utility.yul\":1420:1422   */\n  0x60\n    /* \"#utility.yul\":1405:1423   */\n  dup2\n  add\n    /* \"#utility.yul\":1398:1432   */\n  dup3\n  swap1\n  mstore\n    /* \"contracts/BaseJumpRateModelV2.sol\":6328:6413  NewInterestParams(baseRatePerBlock, multiplierPerBlock, jumpMultiplierPerBlock, kink) */\n  0x6960ab234c7ef4b0c9197100f5393cfcde7c453ac910a27bd2000aa1dd4c068d\n  swap1\n    /* \"#utility.yul\":1265:1268   */\n  0x80\n    /* \"#utility.yul\":1250:1269   */\n  add\n    /* \"contracts/BaseJumpRateModelV2.sol\":6328:6413  NewInterestParams(baseRatePerBlock, multiplierPerBlock, jumpMultiplierPerBlock, kink) */\n  mload(0x40)\n  dup1\n  swap2\n  sub\n  swap1\n  log1\n    /* \"contracts/BaseJumpRateModelV2.sol\":5943:6420  function updateJumpRateModelInternal(uint baseRatePerYear, uint multiplierPerYear, uint jumpMultiplierPerYear, uint kink_) internal {... */\n  pop\n  pop\n  pop\n  pop\n  jump\t// out\n    /* \"#utility.yul\":14:550   */\ntag_3:\n    /* \"#utility.yul\":120:126   */\n  0x00\n    /* \"#utility.yul\":128:134   */\n  dup1\n    /* \"#utility.yul\":136:142   */\n  0x00\n    /* \"#utility.yul\":144:150   */\n  dup1\n    /* \"#utility.yul\":152:158   */\n  0x00\n    /* \"#utility.yul\":205:208   */\n  0xa0\n    /* \"#utility.yul\":193:202   */\n  dup7\n    /* \"#utility.yul\":184:191   */\n  dup9\n    /* \"#utility.yul\":180:203   */\n  sub\n    /* \"#utility.yul\":176:209   */\n  slt\n    /* \"#utility.yul\":173:226   */\n  iszero\n  tag_23\n  jumpi\n    /* \"#utility.yul\":222:223   */\n  0x00\n    /* \"#utility.yul\":219:220   */\n  dup1\n    /* \"#utility.yul\":212:224   */\n  revert\n    /* \"#utility.yul\":173:226   */\ntag_23:\n    /* \"#utility.yul\":245:261   */\n  dup6\n  mload\n    /* \"#utility.yul\":301:303   */\n  0x20\n    /* \"#utility.yul\":286:304   */\n  dup8\n  add\n    /* \"#utility.yul\":280:305   */\n  mload\n    /* \"#utility.yul\":345:347   */\n  0x40\n    /* \"#utility.yul\":330:348   */\n  dup9\n  add\n    /* \"#utility.yul\":324:349   */\n  mload\n    /* \"#utility.yul\":389:391   */\n  0x60\n    /* \"#utility.yul\":374:392   */\n  dup10\n  add\n    /* \"#utility.yul\":368:393   */\n  mload\n    /* \"#utility.yul\":436:439   */\n  0x80\n    /* \"#utility.yul\":421:440   */\n  dup11\n  add\n    /* \"#utility.yul\":415:441   */\n  mload\n    /* \"#utility.yul\":245:261   */\n  swap4\n  swap9\n  pop\n    /* \"#utility.yul\":280:305   */\n  swap2\n  swap7\n  pop\n    /* \"#utility.yul\":324:349   */\n  swap5\n  pop\n    /* \"#utility.yul\":368:393   */\n  swap3\n  pop\n  sub(shl(0xa0, 0x01), 0x01)\n    /* \"#utility.yul\":470:501   */\n  dup2\n  and\n    /* \"#utility.yul\":460:502   */\n  dup2\n  eq\n    /* \"#utility.yul\":450:520   */\n  tag_24\n  jumpi\n    /* \"#utility.yul\":516:517   */\n  0x00\n    /* \"#utility.yul\":513:514   */\n  dup1\n    /* \"#utility.yul\":506:518   */\n  revert\n    /* \"#utility.yul\":450:520   */\ntag_24:\n    /* \"#utility.yul\":539:544   */\n  dup1\n    /* \"#utility.yul\":529:544   */\n  swap2\n  pop\n  pop\n    /* \"#utility.yul\":14:550   */\n  swap3\n  swap6\n  pop\n  swap3\n  swap6\n  swap1\n  swap4\n  pop\n  jump\t// out\n    /* \"#utility.yul\":555:772   */\ntag_13:\n    /* \"#utility.yul\":595:596   */\n  0x00\n    /* \"#utility.yul\":621:622   */\n  dup3\n    /* \"#utility.yul\":611:743   */\n  tag_26\n  jumpi\n    /* \"#utility.yul\":665:675   */\n  0x4e487b71\n    /* \"#utility.yul\":660:663   */\n  0xe0\n    /* \"#utility.yul\":656:676   */\n  shl\n    /* \"#utility.yul\":653:654   */\n  0x00\n    /* \"#utility.yul\":646:677   */\n  mstore\n    /* \"#utility.yul\":700:704   */\n  0x12\n    /* \"#utility.yul\":697:698   */\n  0x04\n    /* \"#utility.yul\":690:705   */\n  mstore\n    /* \"#utility.yul\":728:732   */\n  0x24\n    /* \"#utility.yul\":725:726   */\n  0x00\n    /* \"#utility.yul\":718:733   */\n  revert\n    /* \"#utility.yul\":611:743   */\ntag_26:\n  pop\n    /* \"#utility.yul\":757:766   */\n  div\n  swap1\n    /* \"#utility.yul\":555:772   */\n  jump\t// out\n    /* \"#utility.yul\":777:1042   */\ntag_15:\n    /* \"#utility.yul\":817:824   */\n  0x00\n    /* \"#utility.yul\":883:884   */\n  dup2\n    /* \"#utility.yul\":879:880   */\n  0x00\n    /* \"#utility.yul\":875:881   */\n  not\n    /* \"#utility.yul\":871:885   */\n  div\n    /* \"#utility.yul\":868:869   */\n  dup4\n    /* \"#utility.yul\":865:886   */\n  gt\n    /* \"#utility.yul\":860:861   */\n  dup3\n    /* \"#utility.yul\":853:862   */\n  iszero\n    /* \"#utility.yul\":846:863   */\n  iszero\n    /* \"#utility.yul\":842:887   */\n  and\n    /* \"#utility.yul\":839:1007   */\n  iszero\n  tag_28\n  jumpi\n    /* \"#utility.yul\":929:939   */\n  0x4e487b71\n    /* \"#utility.yul\":924:927   */\n  0xe0\n    /* \"#utility.yul\":920:940   */\n  shl\n    /* \"#utility.yul\":917:918   */\n  0x00\n    /* \"#utility.yul\":910:941   */\n  mstore\n    /* \"#utility.yul\":964:968   */\n  0x11\n    /* \"#utility.yul\":961:962   */\n  0x04\n    /* \"#utility.yul\":954:969   */\n  mstore\n    /* \"#utility.yul\":992:996   */\n  0x24\n    /* \"#utility.yul\":989:990   */\n  0x00\n    /* \"#utility.yul\":982:997   */\n  revert\n    /* \"#utility.yul\":839:1007   */\ntag_28:\n  pop\n    /* \"#utility.yul\":1027:1036   */\n  mul\n  swap1\n    /* \"#utility.yul\":777:1042   */\n  jump\t// out\n    /* \"#utility.yul\":1047:1438   */\ntag_21:\n    /* \"contracts/JumpRateModelV2.sol\":270:1068  contract JumpRateModelV2 is InterestRateModel, BaseJumpRateModelV2  {... */\n  dataSize(sub_0)\n  dup1\n  dataOffset(sub_0)\n  0x00\n  codecopy\n  0x00\n  return\nstop\n\nsub_0: assembly {\n        /* \"contracts/JumpRateModelV2.sol\":270:1068  contract JumpRateModelV2 is InterestRateModel, BaseJumpRateModelV2  {... */\n      mstore(0x40, 0x80)\n      callvalue\n      dup1\n      iszero\n      tag_1\n      jumpi\n      0x00\n      dup1\n      revert\n    tag_1:\n      pop\n      jumpi(tag_2, lt(calldatasize, 0x04))\n      shr(0xe0, calldataload(0x00))\n      dup1\n      0x8da5cb5b\n      gt\n      tag_14\n      jumpi\n      dup1\n      0x8da5cb5b\n      eq\n      tag_8\n      jumpi\n      dup1\n      0xa385fb96\n      eq\n      tag_9\n      jumpi\n      dup1\n      0xb8168816\n      eq\n      tag_10\n      jumpi\n      dup1\n      0xb9f9850a\n      eq\n      tag_11\n      jumpi\n      dup1\n      0xf14039de\n      eq\n      tag_12\n      jumpi\n      dup1\n      0xfd2da339\n      eq\n      tag_13\n      jumpi\n      0x00\n      dup1\n      revert\n    tag_14:\n      dup1\n      0x15f24053\n      eq\n      tag_3\n      jumpi\n      dup1\n      0x2037f3e7\n      eq\n      tag_4\n      jumpi\n      dup1\n      0x2191f92a\n      eq\n      tag_5\n      jumpi\n      dup1\n      0x6e71e2d8\n      eq\n      tag_6\n      jumpi\n      dup1\n      0x8726bb89\n      eq\n      tag_7\n      jumpi\n    tag_2:\n      0x00\n      dup1\n      revert\n        /* \"contracts/JumpRateModelV2.sol\":671:842  function getBorrowRate(uint cash, uint borrows, uint reserves) override external view returns (uint) {... */\n    tag_3:\n      tag_15\n      tag_16\n      calldatasize\n      0x04\n      tag_17\n      jump\t// in\n    tag_16:\n      tag_18\n      jump\t// in\n    tag_15:\n      mload(0x40)\n        /* \"#utility.yul\":481:506   */\n      swap1\n      dup2\n      mstore\n        /* \"#utility.yul\":469:471   */\n      0x20\n        /* \"#utility.yul\":454:472   */\n      add\n        /* \"contracts/JumpRateModelV2.sol\":671:842  function getBorrowRate(uint cash, uint borrows, uint reserves) override external view returns (uint) {... */\n    tag_19:\n      mload(0x40)\n      dup1\n      swap2\n      sub\n      swap1\n      return\n        /* \"contracts/BaseJumpRateModelV2.sol\":2738:3061  function updateJumpRateModel(uint baseRatePerYear, uint multiplierPerYear, uint jumpMultiplierPerYear, uint kink_) virtual external {... */\n    tag_4:\n      tag_21\n      tag_22\n      calldatasize\n      0x04\n      tag_23\n      jump\t// in\n    tag_22:\n      tag_24\n      jump\t// in\n    tag_21:\n      stop\n        /* \"contracts/InterestRateModel.sol\":275:322  bool public constant isInterestRateModel = true */\n    tag_5:\n      tag_25\n        /* \"contracts/InterestRateModel.sol\":318:322  true */\n      0x01\n        /* \"contracts/InterestRateModel.sol\":275:322  bool public constant isInterestRateModel = true */\n      dup2\n      jump\n    tag_25:\n      mload(0x40)\n        /* \"#utility.yul\":1072:1086   */\n      swap1\n      iszero\n        /* \"#utility.yul\":1065:1087   */\n      iszero\n        /* \"#utility.yul\":1047:1088   */\n      dup2\n      mstore\n        /* \"#utility.yul\":1035:1037   */\n      0x20\n        /* \"#utility.yul\":1020:1038   */\n      add\n        /* \"contracts/InterestRateModel.sol\":275:322  bool public constant isInterestRateModel = true */\n      tag_19\n        /* \"#utility.yul\":907:1094   */\n      jump\n        /* \"contracts/BaseJumpRateModelV2.sol\":3442:3722  function utilizationRate(uint cash, uint borrows, uint reserves) public pure returns (uint) {... */\n    tag_6:\n      tag_15\n      tag_30\n      calldatasize\n      0x04\n      tag_17\n      jump\t// in\n    tag_30:\n      tag_31\n      jump\t// in\n        /* \"contracts/BaseJumpRateModelV2.sol\":964:994  uint public multiplierPerBlock */\n    tag_7:\n      tag_15\n      sload(0x01)\n      dup2\n      jump\n        /* \"contracts/BaseJumpRateModelV2.sol\":662:682  address public owner */\n    tag_8:\n      sload(0x00)\n      tag_36\n      swap1\n      sub(shl(0xa0, 0x01), 0x01)\n      and\n      dup2\n      jump\n    tag_36:\n      mload(0x40)\n      sub(shl(0xa0, 0x01), 0x01)\n        /* \"#utility.yul\":1263:1295   */\n      swap1\n      swap2\n      and\n        /* \"#utility.yul\":1245:1296   */\n      dup2\n      mstore\n        /* \"#utility.yul\":1233:1235   */\n      0x20\n        /* \"#utility.yul\":1218:1236   */\n      add\n        /* \"contracts/BaseJumpRateModelV2.sol\":662:682  address public owner */\n      tag_19\n        /* \"#utility.yul\":1099:1302   */\n      jump\n        /* \"contracts/BaseJumpRateModelV2.sol\":805:849  uint public constant blocksPerYear = 2102400 */\n    tag_9:\n      tag_15\n        /* \"contracts/BaseJumpRateModelV2.sol\":842:849  2102400 */\n      0x201480\n        /* \"contracts/BaseJumpRateModelV2.sol\":805:849  uint public constant blocksPerYear = 2102400 */\n      dup2\n      jump\n        /* \"contracts/BaseJumpRateModelV2.sol\":5025:5454  function getSupplyRate(uint cash, uint borrows, uint reserves, uint reserveFactorMantissa) virtual override public view returns (uint) {... */\n    tag_10:\n      tag_15\n      tag_44\n      calldatasize\n      0x04\n      tag_23\n      jump\t// in\n    tag_44:\n      tag_45\n      jump\t// in\n        /* \"contracts/BaseJumpRateModelV2.sol\":1240:1274  uint public jumpMultiplierPerBlock */\n    tag_11:\n      tag_15\n      sload(0x03)\n      dup2\n      jump\n        /* \"contracts/BaseJumpRateModelV2.sol\":1107:1135  uint public baseRatePerBlock */\n    tag_12:\n      tag_15\n      sload(0x02)\n      dup2\n      jump\n        /* \"contracts/BaseJumpRateModelV2.sol\":1374:1390  uint public kink */\n    tag_13:\n      tag_15\n      sload(0x04)\n      dup2\n      jump\n        /* \"contracts/JumpRateModelV2.sol\":671:842  function getBorrowRate(uint cash, uint borrows, uint reserves) override external view returns (uint) {... */\n    tag_18:\n        /* \"contracts/JumpRateModelV2.sol\":766:770  uint */\n      0x00\n        /* \"contracts/JumpRateModelV2.sol\":789:835  getBorrowRateInternal(cash, borrows, reserves) */\n      tag_57\n        /* \"contracts/JumpRateModelV2.sol\":811:815  cash */\n      dup5\n        /* \"contracts/JumpRateModelV2.sol\":817:824  borrows */\n      dup5\n        /* \"contracts/JumpRateModelV2.sol\":826:834  reserves */\n      dup5\n        /* \"contracts/JumpRateModelV2.sol\":789:810  getBorrowRateInternal */\n      tag_58\n        /* \"contracts/JumpRateModelV2.sol\":789:835  getBorrowRateInternal(cash, borrows, reserves) */\n      jump\t// in\n    tag_57:\n        /* \"contracts/JumpRateModelV2.sol\":782:835  return getBorrowRateInternal(cash, borrows, reserves) */\n      swap1\n      pop\n        /* \"contracts/JumpRateModelV2.sol\":671:842  function getBorrowRate(uint cash, uint borrows, uint reserves) override external view returns (uint) {... */\n    tag_56:\n      swap4\n      swap3\n      pop\n      pop\n      pop\n      jump\t// out\n        /* \"contracts/BaseJumpRateModelV2.sol\":2738:3061  function updateJumpRateModel(uint baseRatePerYear, uint multiplierPerYear, uint jumpMultiplierPerYear, uint kink_) virtual external {... */\n    tag_24:\n        /* \"contracts/BaseJumpRateModelV2.sol\":2902:2907  owner */\n      and(sub(shl(0xa0, 0x01), 0x01), sload(0x00))\n        /* \"contracts/BaseJumpRateModelV2.sol\":2888:2898  msg.sender */\n      caller\n        /* \"contracts/BaseJumpRateModelV2.sol\":2888:2907  msg.sender == owner */\n      eq\n        /* \"contracts/BaseJumpRateModelV2.sol\":2880:2950  require(msg.sender == owner, \"only the owner may call this function.\") */\n      tag_60\n      jumpi\n      mload(0x40)\n      shl(0xe5, 0x461bcd)\n      dup2\n      mstore\n        /* \"#utility.yul\":1509:1511   */\n      0x20\n        /* \"contracts/BaseJumpRateModelV2.sol\":2880:2950  require(msg.sender == owner, \"only the owner may call this function.\") */\n      0x04\n      dup3\n      add\n        /* \"#utility.yul\":1491:1512   */\n      mstore\n        /* \"#utility.yul\":1548:1550   */\n      0x26\n        /* \"#utility.yul\":1528:1546   */\n      0x24\n      dup3\n      add\n        /* \"#utility.yul\":1521:1551   */\n      mstore\n        /* \"#utility.yul\":1587:1621   */\n      0x6f6e6c7920746865206f776e6572206d61792063616c6c20746869732066756e\n        /* \"#utility.yul\":1567:1585   */\n      0x44\n      dup3\n      add\n        /* \"#utility.yul\":1560:1622   */\n      mstore\n      shl(0xd1, 0x31ba34b7b717)\n        /* \"#utility.yul\":1638:1656   */\n      0x64\n      dup3\n      add\n        /* \"#utility.yul\":1631:1667   */\n      mstore\n        /* \"#utility.yul\":1684:1703   */\n      0x84\n      add\n        /* \"contracts/BaseJumpRateModelV2.sol\":2880:2950  require(msg.sender == owner, \"only the owner may call this function.\") */\n      mload(0x40)\n      dup1\n      swap2\n      sub\n      swap1\n      revert\n    tag_60:\n        /* \"contracts/BaseJumpRateModelV2.sol\":2961:3054  updateJumpRateModelInternal(baseRatePerYear, multiplierPerYear, jumpMultiplierPerYear, kink_) */\n      tag_63\n        /* \"contracts/BaseJumpRateModelV2.sol\":2989:3004  baseRatePerYear */\n      dup5\n        /* \"contracts/BaseJumpRateModelV2.sol\":3006:3023  multiplierPerYear */\n      dup5\n        /* \"contracts/BaseJumpRateModelV2.sol\":3025:3046  jumpMultiplierPerYear */\n      dup5\n        /* \"contracts/BaseJumpRateModelV2.sol\":3048:3053  kink_ */\n      dup5\n        /* \"contracts/BaseJumpRateModelV2.sol\":2961:2988  updateJumpRateModelInternal */\n      tag_64\n        /* \"contracts/BaseJumpRateModelV2.sol\":2961:3054  updateJumpRateModelInternal(baseRatePerYear, multiplierPerYear, jumpMultiplierPerYear, kink_) */\n      jump\t// in\n    tag_63:\n        /* \"contracts/BaseJumpRateModelV2.sol\":2738:3061  function updateJumpRateModel(uint baseRatePerYear, uint multiplierPerYear, uint jumpMultiplierPerYear, uint kink_) virtual external {... */\n      pop\n      pop\n      pop\n      pop\n      jump\t// out\n        /* \"contracts/BaseJumpRateModelV2.sol\":3442:3722  function utilizationRate(uint cash, uint borrows, uint reserves) public pure returns (uint) {... */\n    tag_31:\n        /* \"contracts/BaseJumpRateModelV2.sol\":3528:3532  uint */\n      0x00\n        /* \"contracts/BaseJumpRateModelV2.sol\":3607:3619  borrows == 0 */\n      dup3\n        /* \"contracts/BaseJumpRateModelV2.sol\":3603:3654  if (borrows == 0) {... */\n      tag_66\n      jumpi\n      pop\n        /* \"contracts/BaseJumpRateModelV2.sol\":3642:3643  0 */\n      0x00\n        /* \"contracts/BaseJumpRateModelV2.sol\":3635:3643  return 0 */\n      jump(tag_56)\n        /* \"contracts/BaseJumpRateModelV2.sol\":3603:3654  if (borrows == 0) {... */\n    tag_66:\n        /* \"contracts/BaseJumpRateModelV2.sol\":3706:3714  reserves */\n      dup2\n        /* \"contracts/BaseJumpRateModelV2.sol\":3689:3703  cash + borrows */\n      tag_67\n        /* \"contracts/BaseJumpRateModelV2.sol\":3696:3703  borrows */\n      dup5\n        /* \"contracts/BaseJumpRateModelV2.sol\":3689:3693  cash */\n      dup7\n        /* \"contracts/BaseJumpRateModelV2.sol\":3689:3703  cash + borrows */\n      tag_68\n      jump\t// in\n    tag_67:\n        /* \"contracts/BaseJumpRateModelV2.sol\":3689:3714  cash + borrows - reserves */\n      tag_69\n      swap2\n      swap1\n      tag_70\n      jump\t// in\n    tag_69:\n        /* \"contracts/BaseJumpRateModelV2.sol\":3671:3685  borrows * BASE */\n      tag_71\n        /* \"contracts/BaseJumpRateModelV2.sol\":529:533  1e18 */\n      0x0de0b6b3a7640000\n        /* \"contracts/BaseJumpRateModelV2.sol\":3671:3678  borrows */\n      dup6\n        /* \"contracts/BaseJumpRateModelV2.sol\":3671:3685  borrows * BASE */\n      tag_72\n      jump\t// in\n    tag_71:\n        /* \"contracts/BaseJumpRateModelV2.sol\":3671:3715  borrows * BASE / (cash + borrows - reserves) */\n      tag_57\n      swap2\n      swap1\n      tag_74\n      jump\t// in\n        /* \"contracts/BaseJumpRateModelV2.sol\":5025:5454  function getSupplyRate(uint cash, uint borrows, uint reserves, uint reserveFactorMantissa) virtual override public view returns (uint) {... */\n    tag_45:\n        /* \"contracts/BaseJumpRateModelV2.sol\":5154:5158  uint */\n      0x00\n      dup1\n        /* \"contracts/BaseJumpRateModelV2.sol\":5199:5227  BASE - reserveFactorMantissa */\n      tag_76\n        /* \"contracts/BaseJumpRateModelV2.sol\":5206:5227  reserveFactorMantissa */\n      dup4\n        /* \"contracts/BaseJumpRateModelV2.sol\":529:533  1e18 */\n      0x0de0b6b3a7640000\n        /* \"contracts/BaseJumpRateModelV2.sol\":5199:5227  BASE - reserveFactorMantissa */\n      tag_70\n      jump\t// in\n    tag_76:\n        /* \"contracts/BaseJumpRateModelV2.sol\":5170:5227  uint oneMinusReserveFactor = BASE - reserveFactorMantissa */\n      swap1\n      pop\n        /* \"contracts/BaseJumpRateModelV2.sol\":5237:5252  uint borrowRate */\n      0x00\n        /* \"contracts/BaseJumpRateModelV2.sol\":5255:5301  getBorrowRateInternal(cash, borrows, reserves) */\n      tag_77\n        /* \"contracts/BaseJumpRateModelV2.sol\":5277:5281  cash */\n      dup8\n        /* \"contracts/BaseJumpRateModelV2.sol\":5283:5290  borrows */\n      dup8\n        /* \"contracts/BaseJumpRateModelV2.sol\":5292:5300  reserves */\n      dup8\n        /* \"contracts/BaseJumpRateModelV2.sol\":5255:5276  getBorrowRateInternal */\n      tag_58\n        /* \"contracts/BaseJumpRateModelV2.sol\":5255:5301  getBorrowRateInternal(cash, borrows, reserves) */\n      jump\t// in\n    tag_77:\n        /* \"contracts/BaseJumpRateModelV2.sol\":5237:5301  uint borrowRate = getBorrowRateInternal(cash, borrows, reserves) */\n      swap1\n      pop\n        /* \"contracts/BaseJumpRateModelV2.sol\":5311:5326  uint rateToPool */\n      0x00\n        /* \"contracts/BaseJumpRateModelV2.sol\":529:533  1e18 */\n      0x0de0b6b3a7640000\n        /* \"contracts/BaseJumpRateModelV2.sol\":5329:5363  borrowRate * oneMinusReserveFactor */\n      tag_78\n        /* \"contracts/BaseJumpRateModelV2.sol\":5342:5363  oneMinusReserveFactor */\n      dup5\n        /* \"contracts/BaseJumpRateModelV2.sol\":5237:5301  uint borrowRate = getBorrowRateInternal(cash, borrows, reserves) */\n      dup5\n        /* \"contracts/BaseJumpRateModelV2.sol\":5329:5363  borrowRate * oneMinusReserveFactor */\n      tag_72\n      jump\t// in\n    tag_78:\n        /* \"contracts/BaseJumpRateModelV2.sol\":5329:5370  borrowRate * oneMinusReserveFactor / BASE */\n      tag_79\n      swap2\n      swap1\n      tag_74\n      jump\t// in\n    tag_79:\n        /* \"contracts/BaseJumpRateModelV2.sol\":5311:5370  uint rateToPool = borrowRate * oneMinusReserveFactor / BASE */\n      swap1\n      pop\n        /* \"contracts/BaseJumpRateModelV2.sol\":529:533  1e18 */\n      0x0de0b6b3a7640000\n        /* \"contracts/BaseJumpRateModelV2.sol\":5430:5440  rateToPool */\n      dup2\n        /* \"contracts/BaseJumpRateModelV2.sol\":5387:5427  utilizationRate(cash, borrows, reserves) */\n      tag_80\n        /* \"contracts/BaseJumpRateModelV2.sol\":5403:5407  cash */\n      dup11\n        /* \"contracts/BaseJumpRateModelV2.sol\":5409:5416  borrows */\n      dup11\n        /* \"contracts/BaseJumpRateModelV2.sol\":5418:5426  reserves */\n      dup11\n        /* \"contracts/BaseJumpRateModelV2.sol\":5387:5402  utilizationRate */\n      tag_31\n        /* \"contracts/BaseJumpRateModelV2.sol\":5387:5427  utilizationRate(cash, borrows, reserves) */\n      jump\t// in\n    tag_80:\n        /* \"contracts/BaseJumpRateModelV2.sol\":5387:5440  utilizationRate(cash, borrows, reserves) * rateToPool */\n      tag_81\n      swap2\n      swap1\n      tag_72\n      jump\t// in\n    tag_81:\n        /* \"contracts/BaseJumpRateModelV2.sol\":5387:5447  utilizationRate(cash, borrows, reserves) * rateToPool / BASE */\n      tag_82\n      swap2\n      swap1\n      tag_74\n      jump\t// in\n    tag_82:\n        /* \"contracts/BaseJumpRateModelV2.sol\":5380:5447  return utilizationRate(cash, borrows, reserves) * rateToPool / BASE */\n      swap9\n        /* \"contracts/BaseJumpRateModelV2.sol\":5025:5454  function getSupplyRate(uint cash, uint borrows, uint reserves, uint reserveFactorMantissa) virtual override public view returns (uint) {... */\n      swap8\n      pop\n      pop\n      pop\n      pop\n      pop\n      pop\n      pop\n      pop\n      jump\t// out\n        /* \"contracts/BaseJumpRateModelV2.sol\":4101:4612  function getBorrowRateInternal(uint cash, uint borrows, uint reserves) internal view returns (uint) {... */\n    tag_58:\n        /* \"contracts/BaseJumpRateModelV2.sol\":4195:4199  uint */\n      0x00\n        /* \"contracts/BaseJumpRateModelV2.sol\":4211:4220  uint util */\n      dup1\n        /* \"contracts/BaseJumpRateModelV2.sol\":4223:4263  utilizationRate(cash, borrows, reserves) */\n      tag_84\n        /* \"contracts/BaseJumpRateModelV2.sol\":4239:4243  cash */\n      dup6\n        /* \"contracts/BaseJumpRateModelV2.sol\":4245:4252  borrows */\n      dup6\n        /* \"contracts/BaseJumpRateModelV2.sol\":4254:4262  reserves */\n      dup6\n        /* \"contracts/BaseJumpRateModelV2.sol\":4223:4238  utilizationRate */\n      tag_31\n        /* \"contracts/BaseJumpRateModelV2.sol\":4223:4263  utilizationRate(cash, borrows, reserves) */\n      jump\t// in\n    tag_84:\n        /* \"contracts/BaseJumpRateModelV2.sol\":4211:4263  uint util = utilizationRate(cash, borrows, reserves) */\n      swap1\n      pop\n        /* \"contracts/BaseJumpRateModelV2.sol\":4286:4290  kink */\n      sload(0x04)\n        /* \"contracts/BaseJumpRateModelV2.sol\":4278:4282  util */\n      dup2\n        /* \"contracts/BaseJumpRateModelV2.sol\":4278:4290  util <= kink */\n      gt\n        /* \"contracts/BaseJumpRateModelV2.sol\":4274:4606  if (util <= kink) {... */\n      tag_85\n      jumpi\n        /* \"contracts/BaseJumpRateModelV2.sol\":4352:4368  baseRatePerBlock */\n      sload(0x02)\n        /* \"contracts/BaseJumpRateModelV2.sol\":529:533  1e18 */\n      0x0de0b6b3a7640000\n        /* \"contracts/BaseJumpRateModelV2.sol\":4322:4340  multiplierPerBlock */\n      sload(0x01)\n        /* \"contracts/BaseJumpRateModelV2.sol\":4315:4319  util */\n      dup4\n        /* \"contracts/BaseJumpRateModelV2.sol\":4315:4340  util * multiplierPerBlock */\n      tag_86\n      swap2\n      swap1\n      tag_72\n      jump\t// in\n    tag_86:\n        /* \"contracts/BaseJumpRateModelV2.sol\":4314:4348  (util * multiplierPerBlock) / BASE */\n      tag_87\n      swap2\n      swap1\n      tag_74\n      jump\t// in\n    tag_87:\n        /* \"contracts/BaseJumpRateModelV2.sol\":4313:4368  ((util * multiplierPerBlock) / BASE) + baseRatePerBlock */\n      tag_88\n      swap2\n      swap1\n      tag_68\n      jump\t// in\n    tag_88:\n        /* \"contracts/BaseJumpRateModelV2.sol\":4306:4368  return ((util * multiplierPerBlock) / BASE) + baseRatePerBlock */\n      swap2\n      pop\n      pop\n      jump(tag_56)\n        /* \"contracts/BaseJumpRateModelV2.sol\":4274:4606  if (util <= kink) {... */\n    tag_85:\n        /* \"contracts/BaseJumpRateModelV2.sol\":4399:4414  uint normalRate */\n      0x00\n        /* \"contracts/BaseJumpRateModelV2.sol\":4456:4472  baseRatePerBlock */\n      sload(0x02)\n        /* \"contracts/BaseJumpRateModelV2.sol\":529:533  1e18 */\n      0x0de0b6b3a7640000\n        /* \"contracts/BaseJumpRateModelV2.sol\":4426:4444  multiplierPerBlock */\n      sload(0x01)\n        /* \"contracts/BaseJumpRateModelV2.sol\":4419:4423  kink */\n      sload(0x04)\n        /* \"contracts/BaseJumpRateModelV2.sol\":4419:4444  kink * multiplierPerBlock */\n      tag_90\n      swap2\n      swap1\n      tag_72\n      jump\t// in\n    tag_90:\n        /* \"contracts/BaseJumpRateModelV2.sol\":4418:4452  (kink * multiplierPerBlock) / BASE */\n      tag_91\n      swap2\n      swap1\n      tag_74\n      jump\t// in\n    tag_91:\n        /* \"contracts/BaseJumpRateModelV2.sol\":4417:4472  ((kink * multiplierPerBlock) / BASE) + baseRatePerBlock */\n      tag_92\n      swap2\n      swap1\n      tag_68\n      jump\t// in\n    tag_92:\n        /* \"contracts/BaseJumpRateModelV2.sol\":4399:4472  uint normalRate = ((kink * multiplierPerBlock) / BASE) + baseRatePerBlock */\n      swap1\n      pop\n        /* \"contracts/BaseJumpRateModelV2.sol\":4486:4501  uint excessUtil */\n      0x00\n        /* \"contracts/BaseJumpRateModelV2.sol\":4511:4515  kink */\n      sload(0x04)\n        /* \"contracts/BaseJumpRateModelV2.sol\":4504:4508  util */\n      dup4\n        /* \"contracts/BaseJumpRateModelV2.sol\":4504:4515  util - kink */\n      tag_93\n      swap2\n      swap1\n      tag_70\n      jump\t// in\n    tag_93:\n        /* \"contracts/BaseJumpRateModelV2.sol\":4486:4515  uint excessUtil = util - kink */\n      swap1\n      pop\n        /* \"contracts/BaseJumpRateModelV2.sol\":4585:4595  normalRate */\n      dup2\n        /* \"contracts/BaseJumpRateModelV2.sol\":529:533  1e18 */\n      0x0de0b6b3a7640000\n        /* \"contracts/BaseJumpRateModelV2.sol\":4551:4573  jumpMultiplierPerBlock */\n      sload(0x03)\n        /* \"contracts/BaseJumpRateModelV2.sol\":4538:4548  excessUtil */\n      dup4\n        /* \"contracts/BaseJumpRateModelV2.sol\":4538:4573  excessUtil * jumpMultiplierPerBlock */\n      tag_94\n      swap2\n      swap1\n      tag_72\n      jump\t// in\n    tag_94:\n        /* \"contracts/BaseJumpRateModelV2.sol\":4537:4581  (excessUtil * jumpMultiplierPerBlock) / BASE */\n      tag_95\n      swap2\n      swap1\n      tag_74\n      jump\t// in\n    tag_95:\n        /* \"contracts/BaseJumpRateModelV2.sol\":4536:4595  ((excessUtil * jumpMultiplierPerBlock) / BASE) + normalRate */\n      tag_96\n      swap2\n      swap1\n      tag_68\n      jump\t// in\n    tag_96:\n        /* \"contracts/BaseJumpRateModelV2.sol\":4529:4595  return ((excessUtil * jumpMultiplierPerBlock) / BASE) + normalRate */\n      swap4\n      pop\n      pop\n      pop\n      pop\n      jump(tag_56)\n        /* \"contracts/BaseJumpRateModelV2.sol\":5943:6420  function updateJumpRateModelInternal(uint baseRatePerYear, uint multiplierPerYear, uint jumpMultiplierPerYear, uint kink_) internal {... */\n    tag_64:\n        /* \"contracts/BaseJumpRateModelV2.sol\":6104:6135  baseRatePerYear / blocksPerYear */\n      tag_98\n        /* \"contracts/BaseJumpRateModelV2.sol\":842:849  2102400 */\n      0x201480\n        /* \"contracts/BaseJumpRateModelV2.sol\":6104:6119  baseRatePerYear */\n      dup6\n        /* \"contracts/BaseJumpRateModelV2.sol\":6104:6135  baseRatePerYear / blocksPerYear */\n      tag_74\n      jump\t// in\n    tag_98:\n        /* \"contracts/BaseJumpRateModelV2.sol\":6085:6101  baseRatePerBlock */\n      0x02\n        /* \"contracts/BaseJumpRateModelV2.sol\":6085:6135  baseRatePerBlock = baseRatePerYear / blocksPerYear */\n      sstore\n        /* \"contracts/BaseJumpRateModelV2.sol\":6196:6217  blocksPerYear * kink_ */\n      tag_99\n        /* \"contracts/BaseJumpRateModelV2.sol\":6212:6217  kink_ */\n      dup2\n        /* \"contracts/BaseJumpRateModelV2.sol\":842:849  2102400 */\n      0x201480\n        /* \"contracts/BaseJumpRateModelV2.sol\":6196:6217  blocksPerYear * kink_ */\n      tag_72\n      jump\t// in\n    tag_99:\n        /* \"contracts/BaseJumpRateModelV2.sol\":6167:6191  multiplierPerYear * BASE */\n      tag_100\n        /* \"contracts/BaseJumpRateModelV2.sol\":529:533  1e18 */\n      0x0de0b6b3a7640000\n        /* \"contracts/BaseJumpRateModelV2.sol\":6167:6184  multiplierPerYear */\n      dup6\n        /* \"contracts/BaseJumpRateModelV2.sol\":6167:6191  multiplierPerYear * BASE */\n      tag_72\n      jump\t// in\n    tag_100:\n        /* \"contracts/BaseJumpRateModelV2.sol\":6166:6218  (multiplierPerYear * BASE) / (blocksPerYear * kink_) */\n      tag_101\n      swap2\n      swap1\n      tag_74\n      jump\t// in\n    tag_101:\n        /* \"contracts/BaseJumpRateModelV2.sol\":6145:6163  multiplierPerBlock */\n      0x01\n        /* \"contracts/BaseJumpRateModelV2.sol\":6145:6218  multiplierPerBlock = (multiplierPerYear * BASE) / (blocksPerYear * kink_) */\n      sstore\n        /* \"contracts/BaseJumpRateModelV2.sol\":6253:6290  jumpMultiplierPerYear / blocksPerYear */\n      tag_102\n        /* \"contracts/BaseJumpRateModelV2.sol\":842:849  2102400 */\n      0x201480\n        /* \"contracts/BaseJumpRateModelV2.sol\":6253:6274  jumpMultiplierPerYear */\n      dup4\n        /* \"contracts/BaseJumpRateModelV2.sol\":6253:6290  jumpMultiplierPerYear / blocksPerYear */\n      tag_74\n      jump\t// in\n    tag_102:\n        /* \"contracts/BaseJumpRateModelV2.sol\":6228:6250  jumpMultiplierPerBlock */\n      0x03\n        /* \"contracts/BaseJumpRateModelV2.sol\":6228:6290  jumpMultiplierPerBlock = jumpMultiplierPerYear / blocksPerYear */\n      dup2\n      swap1\n      sstore\n        /* \"contracts/BaseJumpRateModelV2.sol\":6300:6304  kink */\n      0x04\n        /* \"contracts/BaseJumpRateModelV2.sol\":6300:6312  kink = kink_ */\n      dup3\n      swap1\n      sstore\n        /* \"contracts/BaseJumpRateModelV2.sol\":6346:6362  baseRatePerBlock */\n      sload(0x02)\n        /* \"contracts/BaseJumpRateModelV2.sol\":6364:6382  multiplierPerBlock */\n      sload(0x01)\n        /* \"contracts/BaseJumpRateModelV2.sol\":6328:6413  NewInterestParams(baseRatePerBlock, multiplierPerBlock, jumpMultiplierPerBlock, kink) */\n      0x40\n      dup1\n      mload\n        /* \"#utility.yul\":2735:2760   */\n      swap3\n      dup4\n      mstore\n        /* \"#utility.yul\":2791:2793   */\n      0x20\n        /* \"#utility.yul\":2776:2794   */\n      dup4\n      add\n        /* \"#utility.yul\":2769:2803   */\n      swap2\n      swap1\n      swap2\n      mstore\n        /* \"#utility.yul\":2819:2837   */\n      dup2\n      add\n        /* \"#utility.yul\":2812:2846   */\n      swap2\n      swap1\n      swap2\n      mstore\n        /* \"#utility.yul\":2877:2879   */\n      0x60\n        /* \"#utility.yul\":2862:2880   */\n      dup2\n      add\n        /* \"#utility.yul\":2855:2889   */\n      dup3\n      swap1\n      mstore\n        /* \"contracts/BaseJumpRateModelV2.sol\":6328:6413  NewInterestParams(baseRatePerBlock, multiplierPerBlock, jumpMultiplierPerBlock, kink) */\n      0x6960ab234c7ef4b0c9197100f5393cfcde7c453ac910a27bd2000aa1dd4c068d\n      swap1\n        /* \"#utility.yul\":2722:2725   */\n      0x80\n        /* \"#utility.yul\":2707:2726   */\n      add\n        /* \"contracts/BaseJumpRateModelV2.sol\":6328:6413  NewInterestParams(baseRatePerBlock, multiplierPerBlock, jumpMultiplierPerBlock, kink) */\n      mload(0x40)\n      dup1\n      swap2\n      sub\n      swap1\n      log1\n        /* \"contracts/BaseJumpRateModelV2.sol\":5943:6420  function updateJumpRateModelInternal(uint baseRatePerYear, uint multiplierPerYear, uint jumpMultiplierPerYear, uint kink_) internal {... */\n      pop\n      pop\n      pop\n      pop\n      jump\t// out\n        /* \"#utility.yul\":14:330   */\n    tag_17:\n        /* \"#utility.yul\":91:97   */\n      0x00\n        /* \"#utility.yul\":99:105   */\n      dup1\n        /* \"#utility.yul\":107:113   */\n      0x00\n        /* \"#utility.yul\":160:162   */\n      0x60\n        /* \"#utility.yul\":148:157   */\n      dup5\n        /* \"#utility.yul\":139:146   */\n      dup7\n        /* \"#utility.yul\":135:158   */\n      sub\n        /* \"#utility.yul\":131:163   */\n      slt\n        /* \"#utility.yul\":128:180   */\n      iszero\n      tag_108\n      jumpi\n        /* \"#utility.yul\":176:177   */\n      0x00\n        /* \"#utility.yul\":173:174   */\n      dup1\n        /* \"#utility.yul\":166:178   */\n      revert\n        /* \"#utility.yul\":128:180   */\n    tag_108:\n      pop\n      pop\n        /* \"#utility.yul\":199:222   */\n      dup2\n      calldataload\n      swap4\n        /* \"#utility.yul\":269:271   */\n      0x20\n        /* \"#utility.yul\":254:272   */\n      dup4\n      add\n        /* \"#utility.yul\":241:273   */\n      calldataload\n      swap4\n      pop\n        /* \"#utility.yul\":320:322   */\n      0x40\n        /* \"#utility.yul\":305:323   */\n      swap1\n      swap3\n      add\n        /* \"#utility.yul\":292:324   */\n      calldataload\n      swap2\n        /* \"#utility.yul\":14:330   */\n      swap1\n      pop\n      jump\t// out\n        /* \"#utility.yul\":517:902   */\n    tag_23:\n        /* \"#utility.yul\":603:609   */\n      0x00\n        /* \"#utility.yul\":611:617   */\n      dup1\n        /* \"#utility.yul\":619:625   */\n      0x00\n        /* \"#utility.yul\":627:633   */\n      dup1\n        /* \"#utility.yul\":680:683   */\n      0x80\n        /* \"#utility.yul\":668:677   */\n      dup6\n        /* \"#utility.yul\":659:666   */\n      dup8\n        /* \"#utility.yul\":655:678   */\n      sub\n        /* \"#utility.yul\":651:684   */\n      slt\n        /* \"#utility.yul\":648:701   */\n      iszero\n      tag_111\n      jumpi\n        /* \"#utility.yul\":697:698   */\n      0x00\n        /* \"#utility.yul\":694:695   */\n      dup1\n        /* \"#utility.yul\":687:699   */\n      revert\n        /* \"#utility.yul\":648:701   */\n    tag_111:\n      pop\n      pop\n        /* \"#utility.yul\":720:743   */\n      dup3\n      calldataload\n      swap5\n        /* \"#utility.yul\":790:792   */\n      0x20\n        /* \"#utility.yul\":775:793   */\n      dup5\n      add\n        /* \"#utility.yul\":762:794   */\n      calldataload\n      swap5\n      pop\n        /* \"#utility.yul\":841:843   */\n      0x40\n        /* \"#utility.yul\":826:844   */\n      dup5\n      add\n        /* \"#utility.yul\":813:845   */\n      calldataload\n      swap4\n        /* \"#utility.yul\":892:894   */\n      0x60\n        /* \"#utility.yul\":877:895   */\n      add\n        /* \"#utility.yul\":864:896   */\n      calldataload\n      swap3\n      pop\n        /* \"#utility.yul\":517:902   */\n      swap1\n      pop\n      jump\t// out\n        /* \"#utility.yul\":1714:1841   */\n    tag_105:\n        /* \"#utility.yul\":1775:1785   */\n      0x4e487b71\n        /* \"#utility.yul\":1770:1773   */\n      0xe0\n        /* \"#utility.yul\":1766:1786   */\n      shl\n        /* \"#utility.yul\":1763:1764   */\n      0x00\n        /* \"#utility.yul\":1756:1787   */\n      mstore\n        /* \"#utility.yul\":1806:1810   */\n      0x11\n        /* \"#utility.yul\":1803:1804   */\n      0x04\n        /* \"#utility.yul\":1796:1811   */\n      mstore\n        /* \"#utility.yul\":1830:1834   */\n      0x24\n        /* \"#utility.yul\":1827:1828   */\n      0x00\n        /* \"#utility.yul\":1820:1835   */\n      revert\n        /* \"#utility.yul\":1846:1974   */\n    tag_68:\n        /* \"#utility.yul\":1886:1889   */\n      0x00\n        /* \"#utility.yul\":1917:1918   */\n      dup3\n        /* \"#utility.yul\":1913:1919   */\n      not\n        /* \"#utility.yul\":1910:1911   */\n      dup3\n        /* \"#utility.yul\":1907:1920   */\n      gt\n        /* \"#utility.yul\":1904:1943   */\n      iszero\n      tag_118\n      jumpi\n        /* \"#utility.yul\":1923:1941   */\n      tag_118\n      tag_105\n      jump\t// in\n    tag_118:\n      pop\n        /* \"#utility.yul\":1959:1968   */\n      add\n      swap1\n        /* \"#utility.yul\":1846:1974   */\n      jump\t// out\n        /* \"#utility.yul\":1979:2104   */\n    tag_70:\n        /* \"#utility.yul\":2019:2023   */\n      0x00\n        /* \"#utility.yul\":2047:2048   */\n      dup3\n        /* \"#utility.yul\":2044:2045   */\n      dup3\n        /* \"#utility.yul\":2041:2049   */\n      lt\n        /* \"#utility.yul\":2038:2072   */\n      iszero\n      tag_121\n      jumpi\n        /* \"#utility.yul\":2052:2070   */\n      tag_121\n      tag_105\n      jump\t// in\n    tag_121:\n      pop\n        /* \"#utility.yul\":2089:2098   */\n      sub\n      swap1\n        /* \"#utility.yul\":1979:2104   */\n      jump\t// out\n        /* \"#utility.yul\":2109:2277   */\n    tag_72:\n        /* \"#utility.yul\":2149:2156   */\n      0x00\n        /* \"#utility.yul\":2215:2216   */\n      dup2\n        /* \"#utility.yul\":2211:2212   */\n      0x00\n        /* \"#utility.yul\":2207:2213   */\n      not\n        /* \"#utility.yul\":2203:2217   */\n      div\n        /* \"#utility.yul\":2200:2201   */\n      dup4\n        /* \"#utility.yul\":2197:2218   */\n      gt\n        /* \"#utility.yul\":2192:2193   */\n      dup3\n        /* \"#utility.yul\":2185:2194   */\n      iszero\n        /* \"#utility.yul\":2178:2195   */\n      iszero\n        /* \"#utility.yul\":2174:2219   */\n      and\n        /* \"#utility.yul\":2171:2242   */\n      iszero\n      tag_124\n      jumpi\n        /* \"#utility.yul\":2222:2240   */\n      tag_124\n      tag_105\n      jump\t// in\n    tag_124:\n      pop\n        /* \"#utility.yul\":2262:2271   */\n      mul\n      swap1\n        /* \"#utility.yul\":2109:2277   */\n      jump\t// out\n        /* \"#utility.yul\":2282:2499   */\n    tag_74:\n        /* \"#utility.yul\":2322:2323   */\n      0x00\n        /* \"#utility.yul\":2348:2349   */\n      dup3\n        /* \"#utility.yul\":2338:2470   */\n      tag_126\n      jumpi\n        /* \"#utility.yul\":2392:2402   */\n      0x4e487b71\n        /* \"#utility.yul\":2387:2390   */\n      0xe0\n        /* \"#utility.yul\":2383:2403   */\n      shl\n        /* \"#utility.yul\":2380:2381   */\n      0x00\n        /* \"#utility.yul\":2373:2404   */\n      mstore\n        /* \"#utility.yul\":2427:2431   */\n      0x12\n        /* \"#utility.yul\":2424:2425   */\n      0x04\n        /* \"#utility.yul\":2417:2432   */\n      mstore\n        /* \"#utility.yul\":2455:2459   */\n      0x24\n        /* \"#utility.yul\":2452:2453   */\n      0x00\n        /* \"#utility.yul\":2445:2460   */\n      revert\n        /* \"#utility.yul\":2338:2470   */\n    tag_126:\n      pop\n        /* \"#utility.yul\":2484:2493   */\n      div\n      swap1\n        /* \"#utility.yul\":2282:2499   */\n      jump\t// out\n\n    auxdata: 0xa26469706673582212200284fee7db48ce5d3abb1cebffae9483213347ae82b547f2482344acc84e91e064736f6c634300080a0033\n}\n",
				"bytecode": {
					"linkReferences": {},
					"object": "608060405234801561001057600080fd5b5060405161072a38038061072a83398101604081905261002f91610112565b600080546001600160a01b0319166001600160a01b038316179055848484848461005b8585858561006a565b505050505050505050506101bc565b610077622014808561016d565b600255610087816220148061018f565b610099670de0b6b3a76400008561018f565b6100a3919061016d565b6001556100b3622014808361016d565b60038190556004829055600254600154604080519283526020830191909152810191909152606081018290527f6960ab234c7ef4b0c9197100f5393cfcde7c453ac910a27bd2000aa1dd4c068d9060800160405180910390a150505050565b600080600080600060a0868803121561012a57600080fd5b855160208701516040880151606089015160808a0151939850919650945092506001600160a01b038116811461015f57600080fd5b809150509295509295909350565b60008261018a57634e487b7160e01b600052601260045260246000fd5b500490565b60008160001904831182151516156101b757634e487b7160e01b600052601160045260246000fd5b500290565b61055f806101cb6000396000f3fe608060405234801561001057600080fd5b50600436106100a95760003560e01c80638da5cb5b116100715780638da5cb5b1461011d578063a385fb9614610148578063b816881614610152578063b9f9850a14610165578063f14039de1461016e578063fd2da3391461017757600080fd5b806315f24053146100ae5780632037f3e7146100d45780632191f92a146100e95780636e71e2d8146101015780638726bb8914610114575b600080fd5b6100c16100bc366004610445565b610180565b6040519081526020015b60405180910390f35b6100e76100e2366004610471565b610197565b005b6100f1600181565b60405190151581526020016100cb565b6100c161010f366004610445565b610216565b6100c160015481565b600054610130906001600160a01b031681565b6040516001600160a01b0390911681526020016100cb565b6100c16220148081565b6100c1610160366004610471565b610256565b6100c160035481565b6100c160025481565b6100c160045481565b600061018d8484846102d2565b90505b9392505050565b6000546001600160a01b031633146102045760405162461bcd60e51b815260206004820152602660248201527f6f6e6c7920746865206f776e6572206d61792063616c6c20746869732066756e60448201526531ba34b7b71760d11b606482015260840160405180910390fd5b6102108484848461039d565b50505050565b60008261022557506000610190565b8161023084866104b9565b61023a91906104d1565b61024c670de0b6b3a7640000856104e8565b61018d9190610507565b60008061026b83670de0b6b3a76400006104d1565b9050600061027a8787876102d2565b90506000670de0b6b3a764000061029184846104e8565b61029b9190610507565b9050670de0b6b3a7640000816102b28a8a8a610216565b6102bc91906104e8565b6102c69190610507565b98975050505050505050565b6000806102e0858585610216565b9050600454811161032157600254670de0b6b3a76400006001548361030591906104e8565b61030f9190610507565b61031991906104b9565b915050610190565b6000600254670de0b6b3a764000060015460045461033f91906104e8565b6103499190610507565b61035391906104b9565b905060006004548361036591906104d1565b905081670de0b6b3a76400006003548361037f91906104e8565b6103899190610507565b61039391906104b9565b9350505050610190565b6103aa6220148085610507565b6002556103ba81622014806104e8565b6103cc670de0b6b3a7640000856104e8565b6103d69190610507565b6001556103e66220148083610507565b60038190556004829055600254600154604080519283526020830191909152810191909152606081018290527f6960ab234c7ef4b0c9197100f5393cfcde7c453ac910a27bd2000aa1dd4c068d9060800160405180910390a150505050565b60008060006060848603121561045a57600080fd5b505081359360208301359350604090920135919050565b6000806000806080858703121561048757600080fd5b5050823594602084013594506040840135936060013592509050565b634e487b7160e01b600052601160045260246000fd5b600082198211156104cc576104cc6104a3565b500190565b6000828210156104e3576104e36104a3565b500390565b6000816000190483118215151615610502576105026104a3565b500290565b60008261052457634e487b7160e01b600052601260045260246000fd5b50049056fea26469706673582212200284fee7db48ce5d3abb1cebffae9483213347ae82b547f2482344acc84e91e064736f6c634300080a0033",
					"opcodes": "PUSH1 0x80 PUSH1 0x40 MSTORE CALLVALUE DUP1 ISZERO PUSH2 0x10 JUMPI PUSH1 0x0 DUP1 REVERT JUMPDEST POP PUSH1 0x40 MLOAD PUSH2 0x72A CODESIZE SUB DUP1 PUSH2 0x72A DUP4 CODECOPY DUP2 ADD PUSH1 0x40 DUP2 SWAP1 MSTORE PUSH2 0x2F SWAP2 PUSH2 0x112 JUMP JUMPDEST PUSH1 0x0 DUP1 SLOAD PUSH1 0x1 PUSH1 0x1 PUSH1 0xA0 SHL SUB NOT AND PUSH1 0x1 PUSH1 0x1 PUSH1 0xA0 SHL SUB DUP4 AND OR SWAP1 SSTORE DUP5 DUP5 DUP5 DUP5 DUP5 PUSH2 0x5B DUP6 DUP6 DUP6 DUP6 PUSH2 0x6A JUMP JUMPDEST POP POP POP POP POP POP POP POP POP POP PUSH2 0x1BC JUMP JUMPDEST PUSH2 0x77 PUSH3 0x201480 DUP6 PUSH2 0x16D JUMP JUMPDEST PUSH1 0x2 SSTORE PUSH2 0x87 DUP2 PUSH3 0x201480 PUSH2 0x18F JUMP JUMPDEST PUSH2 0x99 PUSH8 0xDE0B6B3A7640000 DUP6 PUSH2 0x18F JUMP JUMPDEST PUSH2 0xA3 SWAP2 SWAP1 PUSH2 0x16D JUMP JUMPDEST PUSH1 0x1 SSTORE PUSH2 0xB3 PUSH3 0x201480 DUP4 PUSH2 0x16D JUMP JUMPDEST PUSH1 0x3 DUP2 SWAP1 SSTORE PUSH1 0x4 DUP3 SWAP1 SSTORE PUSH1 0x2 SLOAD PUSH1 0x1 SLOAD PUSH1 0x40 DUP1 MLOAD SWAP3 DUP4 MSTORE PUSH1 0x20 DUP4 ADD SWAP2 SWAP1 SWAP2 MSTORE DUP2 ADD SWAP2 SWAP1 SWAP2 MSTORE PUSH1 0x60 DUP2 ADD DUP3 SWAP1 MSTORE PUSH32 0x6960AB234C7EF4B0C9197100F5393CFCDE7C453AC910A27BD2000AA1DD4C068D SWAP1 PUSH1 0x80 ADD PUSH1 0x40 MLOAD DUP1 SWAP2 SUB SWAP1 LOG1 POP POP POP POP JUMP JUMPDEST PUSH1 0x0 DUP1 PUSH1 0x0 DUP1 PUSH1 0x0 PUSH1 0xA0 DUP7 DUP9 SUB SLT ISZERO PUSH2 0x12A JUMPI PUSH1 0x0 DUP1 REVERT JUMPDEST DUP6 MLOAD PUSH1 0x20 DUP8 ADD MLOAD PUSH1 0x40 DUP9 ADD MLOAD PUSH1 0x60 DUP10 ADD MLOAD PUSH1 0x80 DUP11 ADD MLOAD SWAP4 SWAP9 POP SWAP2 SWAP7 POP SWAP5 POP SWAP3 POP PUSH1 0x1 PUSH1 0x1 PUSH1 0xA0 SHL SUB DUP2 AND DUP2 EQ PUSH2 0x15F JUMPI PUSH1 0x0 DUP1 REVERT JUMPDEST DUP1 SWAP2 POP POP SWAP3 SWAP6 POP SWAP3 SWAP6 SWAP1 SWAP4 POP JUMP JUMPDEST PUSH1 0x0 DUP3 PUSH2 0x18A JUMPI PUSH4 0x4E487B71 PUSH1 0xE0 SHL PUSH1 0x0 MSTORE PUSH1 0x12 PUSH1 0x4 MSTORE PUSH1 0x24 PUSH1 0x0 REVERT JUMPDEST POP DIV SWAP1 JUMP JUMPDEST PUSH1 0x0 DUP2 PUSH1 0x0 NOT DIV DUP4 GT DUP3 ISZERO ISZERO AND ISZERO PUSH2 0x1B7 JUMPI PUSH4 0x4E487B71 PUSH1 0xE0 SHL PUSH1 0x0 MSTORE PUSH1 0x11 PUSH1 0x4 MSTORE PUSH1 0x24 PUSH1 0x0 REVERT JUMPDEST POP MUL SWAP1 JUMP JUMPDEST PUSH2 0x55F DUP1 PUSH2 0x1CB PUSH1 0x0 CODECOPY PUSH1 0x0 RETURN INVALID PUSH1 0x80 PUSH1 0x40 MSTORE CALLVALUE DUP1 ISZERO PUSH2 0x10 JUMPI PUSH1 0x0 DUP1 REVERT JUMPDEST POP PUSH1 0x4 CALLDATASIZE LT PUSH2 0xA9 JUMPI PUSH1 0x0 CALLDATALOAD PUSH1 0xE0 SHR DUP1 PUSH4 0x8DA5CB5B GT PUSH2 0x71 JUMPI DUP1 PUSH4 0x8DA5CB5B EQ PUSH2 0x11D JUMPI DUP1 PUSH4 0xA385FB96 EQ PUSH2 0x148 JUMPI DUP1 PUSH4 0xB8168816 EQ PUSH2 0x152 JUMPI DUP1 PUSH4 0xB9F9850A EQ PUSH2 0x165 JUMPI DUP1 PUSH4 0xF14039DE EQ PUSH2 0x16E JUMPI DUP1 PUSH4 0xFD2DA339 EQ PUSH2 0x177 JUMPI PUSH1 0x0 DUP1 REVERT JUMPDEST DUP1 PUSH4 0x15F24053 EQ PUSH2 0xAE JUMPI DUP1 PUSH4 0x2037F3E7 EQ PUSH2 0xD4 JUMPI DUP1 PUSH4 0x2191F92A EQ PUSH2 0xE9 JUMPI DUP1 PUSH4 0x6E71E2D8 EQ PUSH2 0x101 JUMPI DUP1 PUSH4 0x8726BB89 EQ PUSH2 0x114 JUMPI JUMPDEST PUSH1 0x0 DUP1 REVERT JUMPDEST PUSH2 0xC1 PUSH2 0xBC CALLDATASIZE PUSH1 0x4 PUSH2 0x445 JUMP JUMPDEST PUSH2 0x180 JUMP JUMPDEST PUSH1 0x40 MLOAD SWAP1 DUP2 MSTORE PUSH1 0x20 ADD JUMPDEST PUSH1 0x40 MLOAD DUP1 SWAP2 SUB SWAP1 RETURN JUMPDEST PUSH2 0xE7 PUSH2 0xE2 CALLDATASIZE PUSH1 0x4 PUSH2 0x471 JUMP JUMPDEST PUSH2 0x197 JUMP JUMPDEST STOP JUMPDEST PUSH2 0xF1 PUSH1 0x1 DUP2 JUMP JUMPDEST PUSH1 0x40 MLOAD SWAP1 ISZERO ISZERO DUP2 MSTORE PUSH1 0x20 ADD PUSH2 0xCB JUMP JUMPDEST PUSH2 0xC1 PUSH2 0x10F CALLDATASIZE PUSH1 0x4 PUSH2 0x445 JUMP JUMPDEST PUSH2 0x216 JUMP JUMPDEST PUSH2 0xC1 PUSH1 0x1 SLOAD DUP2 JUMP JUMPDEST PUSH1 0x0 SLOAD PUSH2 0x130 SWAP1 PUSH1 0x1 PUSH1 0x1 PUSH1 0xA0 SHL SUB AND DUP2 JUMP JUMPDEST PUSH1 0x40 MLOAD PUSH1 0x1 PUSH1 0x1 PUSH1 0xA0 SHL SUB SWAP1 SWAP2 AND DUP2 MSTORE PUSH1 0x20 ADD PUSH2 0xCB JUMP JUMPDEST PUSH2 0xC1 PUSH3 0x201480 DUP2 JUMP JUMPDEST PUSH2 0xC1 PUSH2 0x160 CALLDATASIZE PUSH1 0x4 PUSH2 0x471 JUMP JUMPDEST PUSH2 0x256 JUMP JUMPDEST PUSH2 0xC1 PUSH1 0x3 SLOAD DUP2 JUMP JUMPDEST PUSH2 0xC1 PUSH1 0x2 SLOAD DUP2 JUMP JUMPDEST PUSH2 0xC1 PUSH1 0x4 SLOAD DUP2 JUMP JUMPDEST PUSH1 0x0 PUSH2 0x18D DUP5 DUP5 DUP5 PUSH2 0x2D2 JUMP JUMPDEST SWAP1 POP JUMPDEST SWAP4 SWAP3 POP POP POP JUMP JUMPDEST PUSH1 0x0 SLOAD PUSH1 0x1 PUSH1 0x1 PUSH1 0xA0 SHL SUB AND CALLER EQ PUSH2 0x204 JUMPI PUSH1 0x40 MLOAD PUSH3 0x461BCD PUSH1 0xE5 SHL DUP2 MSTORE PUSH1 0x20 PUSH1 0x4 DUP3 ADD MSTORE PUSH1 0x26 PUSH1 0x24 DUP3 ADD MSTORE PUSH32 0x6F6E6C7920746865206F776E6572206D61792063616C6C20746869732066756E PUSH1 0x44 DUP3 ADD MSTORE PUSH6 0x31BA34B7B717 PUSH1 0xD1 SHL PUSH1 0x64 DUP3 ADD MSTORE PUSH1 0x84 ADD PUSH1 0x40 MLOAD DUP1 SWAP2 SUB SWAP1 REVERT JUMPDEST PUSH2 0x210 DUP5 DUP5 DUP5 DUP5 PUSH2 0x39D JUMP JUMPDEST POP POP POP POP JUMP JUMPDEST PUSH1 0x0 DUP3 PUSH2 0x225 JUMPI POP PUSH1 0x0 PUSH2 0x190 JUMP JUMPDEST DUP2 PUSH2 0x230 DUP5 DUP7 PUSH2 0x4B9 JUMP JUMPDEST PUSH2 0x23A SWAP2 SWAP1 PUSH2 0x4D1 JUMP JUMPDEST PUSH2 0x24C PUSH8 0xDE0B6B3A7640000 DUP6 PUSH2 0x4E8 JUMP JUMPDEST PUSH2 0x18D SWAP2 SWAP1 PUSH2 0x507 JUMP JUMPDEST PUSH1 0x0 DUP1 PUSH2 0x26B DUP4 PUSH8 0xDE0B6B3A7640000 PUSH2 0x4D1 JUMP JUMPDEST SWAP1 POP PUSH1 0x0 PUSH2 0x27A DUP8 DUP8 DUP8 PUSH2 0x2D2 JUMP JUMPDEST SWAP1 POP PUSH1 0x0 PUSH8 0xDE0B6B3A7640000 PUSH2 0x291 DUP5 DUP5 PUSH2 0x4E8 JUMP JUMPDEST PUSH2 0x29B SWAP2 SWAP1 PUSH2 0x507 JUMP JUMPDEST SWAP1 POP PUSH8 0xDE0B6B3A7640000 DUP2 PUSH2 0x2B2 DUP11 DUP11 DUP11 PUSH2 0x216 JUMP JUMPDEST PUSH2 0x2BC SWAP2 SWAP1 PUSH2 0x4E8 JUMP JUMPDEST PUSH2 0x2C6 SWAP2 SWAP1 PUSH2 0x507 JUMP JUMPDEST SWAP9 SWAP8 POP POP POP POP POP POP POP POP JUMP JUMPDEST PUSH1 0x0 DUP1 PUSH2 0x2E0 DUP6 DUP6 DUP6 PUSH2 0x216 JUMP JUMPDEST SWAP1 POP PUSH1 0x4 SLOAD DUP2 GT PUSH2 0x321 JUMPI PUSH1 0x2 SLOAD PUSH8 0xDE0B6B3A7640000 PUSH1 0x1 SLOAD DUP4 PUSH2 0x305 SWAP2 SWAP1 PUSH2 0x4E8 JUMP JUMPDEST PUSH2 0x30F SWAP2 SWAP1 PUSH2 0x507 JUMP JUMPDEST PUSH2 0x319 SWAP2 SWAP1 PUSH2 0x4B9 JUMP JUMPDEST SWAP2 POP POP PUSH2 0x190 JUMP JUMPDEST PUSH1 0x0 PUSH1 0x2 SLOAD PUSH8 0xDE0B6B3A7640000 PUSH1 0x1 SLOAD PUSH1 0x4 SLOAD PUSH2 0x33F SWAP2 SWAP1 PUSH2 0x4E8 JUMP JUMPDEST PUSH2 0x349 SWAP2 SWAP1 PUSH2 0x507 JUMP JUMPDEST PUSH2 0x353 SWAP2 SWAP1 PUSH2 0x4B9 JUMP JUMPDEST SWAP1 POP PUSH1 0x0 PUSH1 0x4 SLOAD DUP4 PUSH2 0x365 SWAP2 SWAP1 PUSH2 0x4D1 JUMP JUMPDEST SWAP1 POP DUP2 PUSH8 0xDE0B6B3A7640000 PUSH1 0x3 SLOAD DUP4 PUSH2 0x37F SWAP2 SWAP1 PUSH2 0x4E8 JUMP JUMPDEST PUSH2 0x389 SWAP2 SWAP1 PUSH2 0x507 JUMP JUMPDEST PUSH2 0x393 SWAP2 SWAP1 PUSH2 0x4B9 JUMP JUMPDEST SWAP4 POP POP POP POP PUSH2 0x190 JUMP JUMPDEST PUSH2 0x3AA PUSH3 0x201480 DUP6 PUSH2 0x507 JUMP JUMPDEST PUSH1 0x2 SSTORE PUSH2 0x3BA DUP2 PUSH3 0x201480 PUSH2 0x4E8 JUMP JUMPDEST PUSH2 0x3CC PUSH8 0xDE0B6B3A7640000 DUP6 PUSH2 0x4E8 JUMP JUMPDEST PUSH2 0x3D6 SWAP2 SWAP1 PUSH2 0x507 JUMP JUMPDEST PUSH1 0x1 SSTORE PUSH2 0x3E6 PUSH3 0x201480 DUP4 PUSH2 0x507 JUMP JUMPDEST PUSH1 0x3 DUP2 SWAP1 SSTORE PUSH1 0x4 DUP3 SWAP1 SSTORE PUSH1 0x2 SLOAD PUSH1 0x1 SLOAD PUSH1 0x40 DUP1 MLOAD SWAP3 DUP4 MSTORE PUSH1 0x20 DUP4 ADD SWAP2 SWAP1 SWAP2 MSTORE DUP2 ADD SWAP2 SWAP1 SWAP2 MSTORE PUSH1 0x60 DUP2 ADD DUP3 SWAP1 MSTORE PUSH32 0x6960AB234C7EF4B0C9197100F5393CFCDE7C453AC910A27BD2000AA1DD4C068D SWAP1 PUSH1 0x80 ADD PUSH1 0x40 MLOAD DUP1 SWAP2 SUB SWAP1 LOG1 POP POP POP POP JUMP JUMPDEST PUSH1 0x0 DUP1 PUSH1 0x0 PUSH1 0x60 DUP5 DUP7 SUB SLT ISZERO PUSH2 0x45A JUMPI PUSH1 0x0 DUP1 REVERT JUMPDEST POP POP DUP2 CALLDATALOAD SWAP4 PUSH1 0x20 DUP4 ADD CALLDATALOAD SWAP4 POP PUSH1 0x40 SWAP1 SWAP3 ADD CALLDATALOAD SWAP2 SWAP1 POP JUMP JUMPDEST PUSH1 0x0 DUP1 PUSH1 0x0 DUP1 PUSH1 0x80 DUP6 DUP8 SUB SLT ISZERO PUSH2 0x487 JUMPI PUSH1 0x0 DUP1 REVERT JUMPDEST POP POP DUP3 CALLDATALOAD SWAP5 PUSH1 0x20 DUP5 ADD CALLDATALOAD SWAP5 POP PUSH1 0x40 DUP5 ADD CALLDATALOAD SWAP4 PUSH1 0x60 ADD CALLDATALOAD SWAP3 POP SWAP1 POP JUMP JUMPDEST PUSH4 0x4E487B71 PUSH1 0xE0 SHL PUSH1 0x0 MSTORE PUSH1 0x11 PUSH1 0x4 MSTORE PUSH1 0x24 PUSH1 0x0 REVERT JUMPDEST PUSH1 0x0 DUP3 NOT DUP3 GT ISZERO PUSH2 0x4CC JUMPI PUSH2 0x4CC PUSH2 0x4A3 JUMP JUMPDEST POP ADD SWAP1 JUMP JUMPDEST PUSH1 0x0 DUP3 DUP3 LT ISZERO PUSH2 0x4E3 JUMPI PUSH2 0x4E3 PUSH2 0x4A3 JUMP JUMPDEST POP SUB SWAP1 JUMP JUMPDEST PUSH1 0x0 DUP2 PUSH1 0x0 NOT DIV DUP4 GT DUP3 ISZERO ISZERO AND ISZERO PUSH2 0x502 JUMPI PUSH2 0x502 PUSH2 0x4A3 JUMP JUMPDEST POP MUL SWAP1 JUMP JUMPDEST PUSH1 0x0 DUP3 PUSH2 0x524 JUMPI PUSH4 0x4E487B71 PUSH1 0xE0 SHL PUSH1 0x0 MSTORE PUSH1 0x12 PUSH1 0x4 MSTORE PUSH1 0x24 PUSH1 0x0 REVERT JUMPDEST POP DIV SWAP1 JUMP INVALID LOG2 PUSH5 0x6970667358 0x22 SLT KECCAK256 MUL DUP5 INVALID 0xE7 0xDB BASEFEE 0xCE 0x5D GASPRICE 0xBB SHR 0xEB SELFDESTRUCT 0xAE SWAP5 DUP4 0x21 CALLER SELFBALANCE 0xAE DUP3 0xB5 SELFBALANCE CALLCODE BASEFEE 0x23 DIFFICULTY 0xAC 0xC8 0x4E SWAP2 0xE0 PUSH5 0x736F6C6343 STOP ADDMOD EXP STOP CALLER "
				},
				"gasEstimates": {
					"creation": {
						"codeDepositCost": "275000",
						"executionCost": "infinite",
						"totalCost": "infinite"
					},
					"external": {
						"baseRatePerBlock()": "2372",
						"blocksPerYear()": "206",
						"getBorrowRate(uint256,uint256,uint256)": "infinite",
						"getSupplyRate(uint256,uint256,uint256,uint256)": "infinite",
						"isInterestRateModel()": "246",
						"jumpMultiplierPerBlock()": "2350",
						"kink()": "2394",
						"multiplierPerBlock()": "2373",
						"owner()": "2337",
						"updateJumpRateModel(uint256,uint256,uint256,uint256)": "infinite",
						"utilizationRate(uint256,uint256,uint256)": "710"
					}
				},
				"methodIdentifiers": {
					"baseRatePerBlock()": "f14039de",
					"blocksPerYear()": "a385fb96",
					"getBorrowRate(uint256,uint256,uint256)": "15f24053",
					"getSupplyRate(uint256,uint256,uint256,uint256)": "b8168816",
					"isInterestRateModel()": "2191f92a",
					"jumpMultiplierPerBlock()": "b9f9850a",
					"kink()": "fd2da339",
					"multiplierPerBlock()": "8726bb89",
					"owner()": "8da5cb5b",
					"updateJumpRateModel(uint256,uint256,uint256,uint256)": "2037f3e7",
					"utilizationRate(uint256,uint256,uint256)": "6e71e2d8"
				}
			},
			"storageLayout": {
				"storage": [
					{
						"astId": 21,
						"contract": "contracts/JumpRateModelV2.sol:JumpRateModelV2",
						"label": "owner",
						"offset": 0,
						"slot": "0",
						"type": "t_address"
					},
					{
						"astId": 28,
						"contract": "contracts/JumpRateModelV2.sol:JumpRateModelV2",
						"label": "multiplierPerBlock",
						"offset": 0,
						"slot": "1",
						"type": "t_uint256"
					},
					{
						"astId": 31,
						"contract": "contracts/JumpRateModelV2.sol:JumpRateModelV2",
						"label": "baseRatePerBlock",
						"offset": 0,
						"slot": "2",
						"type": "t_uint256"
					},
					{
						"astId": 34,
						"contract": "contracts/JumpRateModelV2.sol:JumpRateModelV2",
						"label": "jumpMultiplierPerBlock",
						"offset": 0,
						"slot": "3",
						"type": "t_uint256"
					},
					{
						"astId": 37,
						"contract": "contracts/JumpRateModelV2.sol:JumpRateModelV2",
						"label": "kink",
						"offset": 0,
						"slot": "4",
						"type": "t_uint256"
					}
				],
				"types": {
					"t_address": {
						"encoding": "inplace",
						"label": "address",
						"numberOfBytes": "20"
					},
					"t_uint256": {
						"encoding": "inplace",
						"label": "uint256",
						"numberOfBytes": "32"
					}
				}
			},
			"userdoc": {
				"kind": "user",
				"methods": {
					"baseRatePerBlock()": {
						"notice": "The base interest rate which is the y-intercept when utilization rate is 0"
					},
					"blocksPerYear()": {
						"notice": "The approximate number of blocks per year that is assumed by the interest rate model"
					},
					"getBorrowRate(uint256,uint256,uint256)": {
						"notice": "Calculates the current borrow rate per block"
					},
					"getSupplyRate(uint256,uint256,uint256,uint256)": {
						"notice": "Calculates the current supply rate per block"
					},
					"isInterestRateModel()": {
						"notice": "Indicator that this is an InterestRateModel contract (for inspection)"
					},
					"jumpMultiplierPerBlock()": {
						"notice": "The multiplierPerBlock after hitting a specified utilization point"
					},
					"kink()": {
						"notice": "The utilization point at which the jump multiplier is applied"
					},
					"multiplierPerBlock()": {
						"notice": "The multiplier of utilization rate that gives the slope of the interest rate"
					},
					"owner()": {
						"notice": "The address of the owner, i.e. the Timelock contract, which can update parameters directly"
					},
					"updateJumpRateModel(uint256,uint256,uint256,uint256)": {
						"notice": "Update the parameters of the interest rate model (only callable by owner, i.e. Timelock)"
					},
					"utilizationRate(uint256,uint256,uint256)": {
						"notice": "Calculates the utilization rate of the market: `borrows / (cash + borrows - reserves)`"
					}
				},
				"notice": "Supports only for V2 cTokens",
				"version": 1
			}
		}
	}
}