{
	"contracts/CTokenInterfaces.sol": {
		"CTokenStorage": {
			"abi": [
				{
					"inputs": [],
					"name": "accrualBlockNumber",
					"outputs": [
						{
							"internalType": "uint256",
							"name": "",
							"type": "uint256"
						}
					],
					"stateMutability": "view",
					"type": "function"
				},
				{
					"inputs": [],
					"name": "admin",
					"outputs": [
						{
							"internalType": "address payable",
							"name": "",
							"type": "address"
						}
					],
					"stateMutability": "view",
					"type": "function"
				},
				{
					"inputs": [],
					"name": "borrowIndex",
					"outputs": [
						{
							"internalType": "uint256",
							"name": "",
							"type": "uint256"
						}
					],
					"stateMutability": "view",
					"type": "function"
				},
				{
					"inputs": [],
					"name": "comptroller",
					"outputs": [
						{
							"internalType": "contract ComptrollerInterface",
							"name": "",
							"type": "address"
						}
					],
					"stateMutability": "view",
					"type": "function"
				},
				{
					"inputs": [],
					"name": "decimals",
					"outputs": [
						{
							"internalType": "uint8",
							"name": "",
							"type": "uint8"
						}
					],
					"stateMutability": "view",
					"type": "function"
				},
				{
					"inputs": [],
					"name": "interestRateModel",
					"outputs": [
						{
							"internalType": "contract InterestRateModel",
							"name": "",
							"type": "address"
						}
					],
					"stateMutability": "view",
					"type": "function"
				},
				{
					"inputs": [],
					"name": "name",
					"outputs": [
						{
							"internalType": "string",
							"name": "",
							"type": "string"
						}
					],
					"stateMutability": "view",
					"type": "function"
				},
				{
					"inputs": [],
					"name": "pendingAdmin",
					"outputs": [
						{
							"internalType": "address payable",
							"name": "",
							"type": "address"
						}
					],
					"stateMutability": "view",
					"type": "function"
				},
				{
					"inputs": [],
					"name": "protocolSeizeShareMantissa",
					"outputs": [
						{
							"internalType": "uint256",
							"name": "",
							"type": "uint256"
						}
					],
					"stateMutability": "view",
					"type": "function"
				},
				{
					"inputs": [],
					"name": "reserveFactorMantissa",
					"outputs": [
						{
							"internalType": "uint256",
							"name": "",
							"type": "uint256"
						}
					],
					"stateMutability": "view",
					"type": "function"
				},
				{
					"inputs": [],
					"name": "symbol",
					"outputs": [
						{
							"internalType": "string",
							"name": "",
							"type": "string"
						}
					],
					"stateMutability": "view",
					"type": "function"
				},
				{
					"inputs": [],
					"name": "totalBorrows",
					"outputs": [
						{
							"internalType": "uint256",
							"name": "",
							"type": "uint256"
						}
					],
					"stateMutability": "view",
					"type": "function"
				},
				{
					"inputs": [],
					"name": "totalReserves",
					"outputs": [
						{
							"internalType": "uint256",
							"name": "",
							"type": "uint256"
						}
					],
					"stateMutability": "view",
					"type": "function"
				},
				{
					"inputs": [],
					"name": "totalSupply",
					"outputs": [
						{
							"internalType": "uint256",
							"name": "",
							"type": "uint256"
						}
					],
					"stateMutability": "view",
					"type": "function"
				}
			],
			"devdoc": {
				"kind": "dev",
				"methods": {},
				"stateVariables": {
					"_notEntered": {
						"details": "Guard variable for re-entrancy checks"
					}
				},
				"version": 1
			},
			"evm": {
				"assembly": "    /* \"contracts/CTokenInterfaces.sol\":211:3138  contract CTokenStorage {... */\n  mstore(0x40, 0x80)\n  callvalue\n  dup1\n  iszero\n  tag_1\n  jumpi\n  0x00\n  dup1\n  revert\ntag_1:\n  pop\n  dataSize(sub_0)\n  dup1\n  dataOffset(sub_0)\n  0x00\n  codecopy\n  0x00\n  return\nstop\n\nsub_0: assembly {\n        /* \"contracts/CTokenInterfaces.sol\":211:3138  contract CTokenStorage {... */\n      mstore(0x40, 0x80)\n      callvalue\n      dup1\n      iszero\n      tag_1\n      jumpi\n      0x00\n      dup1\n      revert\n    tag_1:\n      pop\n      jumpi(tag_2, lt(calldatasize, 0x04))\n      shr(0xe0, calldataload(0x00))\n      dup1\n      0x6752e702\n      gt\n      tag_17\n      jumpi\n      dup1\n      0x95d89b41\n      gt\n      tag_18\n      jumpi\n      dup1\n      0x95d89b41\n      eq\n      tag_13\n      jumpi\n      dup1\n      0xaa5af0fd\n      eq\n      tag_14\n      jumpi\n      dup1\n      0xf3fdb15a\n      eq\n      tag_15\n      jumpi\n      dup1\n      0xf851a440\n      eq\n      tag_16\n      jumpi\n      0x00\n      dup1\n      revert\n    tag_18:\n      dup1\n      0x6752e702\n      eq\n      tag_10\n      jumpi\n      dup1\n      0x6c540baf\n      eq\n      tag_11\n      jumpi\n      dup1\n      0x8f840ddd\n      eq\n      tag_12\n      jumpi\n      0x00\n      dup1\n      revert\n    tag_17:\n      dup1\n      0x26782247\n      gt\n      tag_19\n      jumpi\n      dup1\n      0x26782247\n      eq\n      tag_6\n      jumpi\n      dup1\n      0x313ce567\n      eq\n      tag_7\n      jumpi\n      dup1\n      0x47bd3718\n      eq\n      tag_8\n      jumpi\n      dup1\n      0x5fe3b567\n      eq\n      tag_9\n      jumpi\n      0x00\n      dup1\n      revert\n    tag_19:\n      dup1\n      0x06fdde03\n      eq\n      tag_3\n      jumpi\n      dup1\n      0x173b9904\n      eq\n      tag_4\n      jumpi\n      dup1\n      0x18160ddd\n      eq\n      tag_5\n      jumpi\n    tag_2:\n      0x00\n      dup1\n      revert\n        /* \"contracts/CTokenInterfaces.sol\":402:420  string public name */\n    tag_3:\n      tag_20\n      tag_21\n      jump\t// in\n    tag_20:\n      mload(0x40)\n      tag_22\n      swap2\n      swap1\n      tag_23\n      jump\t// in\n    tag_22:\n      mload(0x40)\n      dup1\n      swap2\n      sub\n      swap1\n      return\n        /* \"contracts/CTokenInterfaces.sol\":1581:1614  uint public reserveFactorMantissa */\n    tag_4:\n      tag_24\n      sload(0x08)\n      dup2\n      jump\n    tag_24:\n      mload(0x40)\n        /* \"#utility.yul\":762:787   */\n      swap1\n      dup2\n      mstore\n        /* \"#utility.yul\":750:752   */\n      0x20\n        /* \"#utility.yul\":735:753   */\n      add\n        /* \"contracts/CTokenInterfaces.sol\":1581:1614  uint public reserveFactorMantissa */\n      tag_22\n        /* \"#utility.yul\":616:793   */\n      jump\n        /* \"contracts/CTokenInterfaces.sol\":2201:2224  uint public totalSupply */\n    tag_5:\n      tag_24\n      sload(0x0d)\n      dup2\n      jump\n        /* \"contracts/CTokenInterfaces.sol\":1049:1084  address payable public pendingAdmin */\n    tag_6:\n      sload(0x04)\n      tag_31\n      swap1\n      sub(shl(0xa0, 0x01), 0x01)\n      and\n      dup2\n      jump\n    tag_31:\n      mload(0x40)\n      sub(shl(0xa0, 0x01), 0x01)\n        /* \"#utility.yul\":978:1010   */\n      swap1\n      swap2\n      and\n        /* \"#utility.yul\":960:1011   */\n      dup2\n      mstore\n        /* \"#utility.yul\":948:950   */\n      0x20\n        /* \"#utility.yul\":933:951   */\n      add\n        /* \"contracts/CTokenInterfaces.sol\":1049:1084  address payable public pendingAdmin */\n      tag_22\n        /* \"#utility.yul\":798:1017   */\n      jump\n        /* \"contracts/CTokenInterfaces.sol\":588:609  uint8 public decimals */\n    tag_7:\n      sload(0x03)\n      tag_35\n      swap1\n      0xff\n      and\n      dup2\n      jump\n    tag_35:\n      mload(0x40)\n        /* \"#utility.yul\":1194:1198   */\n      0xff\n        /* \"#utility.yul\":1182:1199   */\n      swap1\n      swap2\n      and\n        /* \"#utility.yul\":1164:1200   */\n      dup2\n      mstore\n        /* \"#utility.yul\":1152:1154   */\n      0x20\n        /* \"#utility.yul\":1137:1155   */\n      add\n        /* \"contracts/CTokenInterfaces.sol\":588:609  uint8 public decimals */\n      tag_22\n        /* \"#utility.yul\":1022:1206   */\n      jump\n        /* \"contracts/CTokenInterfaces.sol\":1975:1999  uint public totalBorrows */\n    tag_8:\n      tag_24\n      sload(0x0b)\n      dup2\n      jump\n        /* \"contracts/CTokenInterfaces.sol\":1170:1209  ComptrollerInterface public comptroller */\n    tag_9:\n      sload(0x05)\n      tag_31\n      swap1\n      sub(shl(0xa0, 0x01), 0x01)\n      and\n      dup2\n      jump\n        /* \"contracts/CTokenInterfaces.sol\":3072:3128  uint public constant protocolSeizeShareMantissa = 2.8e16 */\n    tag_10:\n      tag_24\n        /* \"contracts/CTokenInterfaces.sol\":3122:3128  2.8e16 */\n      0x6379da05b60000\n        /* \"contracts/CTokenInterfaces.sol\":3072:3128  uint public constant protocolSeizeShareMantissa = 2.8e16 */\n      dup2\n      jump\n        /* \"contracts/CTokenInterfaces.sol\":1699:1729  uint public accrualBlockNumber */\n    tag_11:\n      tag_24\n      sload(0x09)\n      dup2\n      jump\n        /* \"contracts/CTokenInterfaces.sol\":2100:2125  uint public totalReserves */\n    tag_12:\n      tag_24\n      sload(0x0c)\n      dup2\n      jump\n        /* \"contracts/CTokenInterfaces.sol\":493:513  string public symbol */\n    tag_13:\n      tag_20\n      tag_56\n      jump\t// in\n        /* \"contracts/CTokenInterfaces.sol\":1845:1868  uint public borrowIndex */\n    tag_14:\n      tag_24\n      sload(0x0a)\n      dup2\n      jump\n        /* \"contracts/CTokenInterfaces.sol\":1306:1348  InterestRateModel public interestRateModel */\n    tag_15:\n      sload(0x06)\n      tag_31\n      swap1\n      sub(shl(0xa0, 0x01), 0x01)\n      and\n      dup2\n      jump\n        /* \"contracts/CTokenInterfaces.sol\":943:971  address payable public admin */\n    tag_16:\n      sload(0x03)\n      tag_31\n      swap1\n      0x0100\n      swap1\n      div\n      sub(shl(0xa0, 0x01), 0x01)\n      and\n      dup2\n      jump\n        /* \"contracts/CTokenInterfaces.sol\":402:420  string public name */\n    tag_21:\n      0x01\n      dup1\n      sload\n      tag_68\n      swap1\n      tag_69\n      jump\t// in\n    tag_68:\n      dup1\n      0x1f\n      add\n      0x20\n      dup1\n      swap2\n      div\n      mul\n      0x20\n      add\n      mload(0x40)\n      swap1\n      dup2\n      add\n      0x40\n      mstore\n      dup1\n      swap3\n      swap2\n      swap1\n      dup2\n      dup2\n      mstore\n      0x20\n      add\n      dup3\n      dup1\n      sload\n      tag_70\n      swap1\n      tag_69\n      jump\t// in\n    tag_70:\n      dup1\n      iszero\n      tag_71\n      jumpi\n      dup1\n      0x1f\n      lt\n      tag_72\n      jumpi\n      0x0100\n      dup1\n      dup4\n      sload\n      div\n      mul\n      dup4\n      mstore\n      swap2\n      0x20\n      add\n      swap2\n      jump(tag_71)\n    tag_72:\n      dup3\n      add\n      swap2\n      swap1\n      0x00\n      mstore\n      keccak256(0x00, 0x20)\n      swap1\n    tag_73:\n      dup2\n      sload\n      dup2\n      mstore\n      swap1\n      0x01\n      add\n      swap1\n      0x20\n      add\n      dup1\n      dup4\n      gt\n      tag_73\n      jumpi\n      dup3\n      swap1\n      sub\n      0x1f\n      and\n      dup3\n      add\n      swap2\n    tag_71:\n      pop\n      pop\n      pop\n      pop\n      pop\n      dup2\n      jump\t// out\n        /* \"contracts/CTokenInterfaces.sol\":493:513  string public symbol */\n    tag_56:\n      0x02\n      dup1\n      sload\n      tag_68\n      swap1\n      tag_69\n      jump\t// in\n        /* \"#utility.yul\":14:611   */\n    tag_23:\n        /* \"#utility.yul\":126:130   */\n      0x00\n        /* \"#utility.yul\":155:157   */\n      0x20\n        /* \"#utility.yul\":184:186   */\n      dup1\n        /* \"#utility.yul\":173:182   */\n      dup4\n        /* \"#utility.yul\":166:187   */\n      mstore\n        /* \"#utility.yul\":216:222   */\n      dup4\n        /* \"#utility.yul\":210:223   */\n      mload\n        /* \"#utility.yul\":259:265   */\n      dup1\n        /* \"#utility.yul\":254:256   */\n      dup3\n        /* \"#utility.yul\":243:252   */\n      dup6\n        /* \"#utility.yul\":239:257   */\n      add\n        /* \"#utility.yul\":232:266   */\n      mstore\n        /* \"#utility.yul\":284:285   */\n      0x00\n        /* \"#utility.yul\":294:434   */\n    tag_81:\n        /* \"#utility.yul\":308:314   */\n      dup2\n        /* \"#utility.yul\":305:306   */\n      dup2\n        /* \"#utility.yul\":302:315   */\n      lt\n        /* \"#utility.yul\":294:434   */\n      iszero\n      tag_83\n      jumpi\n        /* \"#utility.yul\":403:417   */\n      dup6\n      dup2\n      add\n        /* \"#utility.yul\":399:422   */\n      dup4\n      add\n        /* \"#utility.yul\":393:423   */\n      mload\n        /* \"#utility.yul\":369:386   */\n      dup6\n      dup3\n      add\n        /* \"#utility.yul\":388:390   */\n      0x40\n        /* \"#utility.yul\":365:391   */\n      add\n        /* \"#utility.yul\":358:424   */\n      mstore\n        /* \"#utility.yul\":323:333   */\n      dup3\n      add\n        /* \"#utility.yul\":294:434   */\n      jump(tag_81)\n    tag_83:\n        /* \"#utility.yul\":452:458   */\n      dup2\n        /* \"#utility.yul\":449:450   */\n      dup2\n        /* \"#utility.yul\":446:459   */\n      gt\n        /* \"#utility.yul\":443:534   */\n      iszero\n      tag_84\n      jumpi\n        /* \"#utility.yul\":522:523   */\n      0x00\n        /* \"#utility.yul\":517:519   */\n      0x40\n        /* \"#utility.yul\":508:514   */\n      dup4\n        /* \"#utility.yul\":497:506   */\n      dup8\n        /* \"#utility.yul\":493:515   */\n      add\n        /* \"#utility.yul\":489:520   */\n      add\n        /* \"#utility.yul\":482:524   */\n      mstore\n        /* \"#utility.yul\":443:534   */\n    tag_84:\n      pop\n        /* \"#utility.yul\":595:597   */\n      0x1f\n        /* \"#utility.yul\":574:589   */\n      add\n      not(0x1f)\n        /* \"#utility.yul\":570:599   */\n      and\n        /* \"#utility.yul\":555:600   */\n      swap3\n      swap1\n      swap3\n      add\n        /* \"#utility.yul\":602:604   */\n      0x40\n        /* \"#utility.yul\":551:605   */\n      add\n      swap4\n        /* \"#utility.yul\":14:611   */\n      swap3\n      pop\n      pop\n      pop\n      jump\t// out\n        /* \"#utility.yul\":1682:2062   */\n    tag_69:\n        /* \"#utility.yul\":1761:1762   */\n      0x01\n        /* \"#utility.yul\":1757:1769   */\n      dup2\n      dup2\n      shr\n      swap1\n        /* \"#utility.yul\":1804:1816   */\n      dup3\n      and\n      dup1\n        /* \"#utility.yul\":1825:1886   */\n      tag_91\n      jumpi\n        /* \"#utility.yul\":1879:1883   */\n      0x7f\n        /* \"#utility.yul\":1871:1877   */\n      dup3\n        /* \"#utility.yul\":1867:1884   */\n      and\n        /* \"#utility.yul\":1857:1884   */\n      swap2\n      pop\n        /* \"#utility.yul\":1825:1886   */\n    tag_91:\n        /* \"#utility.yul\":1932:1934   */\n      0x20\n        /* \"#utility.yul\":1924:1930   */\n      dup3\n        /* \"#utility.yul\":1921:1935   */\n      lt\n        /* \"#utility.yul\":1901:1919   */\n      dup2\n        /* \"#utility.yul\":1898:1936   */\n      eq\n        /* \"#utility.yul\":1895:2056   */\n      iszero\n      tag_92\n      jumpi\n        /* \"#utility.yul\":1978:1988   */\n      0x4e487b71\n        /* \"#utility.yul\":1973:1976   */\n      0xe0\n        /* \"#utility.yul\":1969:1989   */\n      shl\n        /* \"#utility.yul\":1966:1967   */\n      0x00\n        /* \"#utility.yul\":1959:1990   */\n      mstore\n        /* \"#utility.yul\":2013:2017   */\n      0x22\n        /* \"#utility.yul\":2010:2011   */\n      0x04\n        /* \"#utility.yul\":2003:2018   */\n      mstore\n        /* \"#utility.yul\":2041:2045   */\n      0x24\n        /* \"#utility.yul\":2038:2039   */\n      0x00\n        /* \"#utility.yul\":2031:2046   */\n      revert\n        /* \"#utility.yul\":1895:2056   */\n    tag_92:\n      pop\n        /* \"#utility.yul\":1682:2062   */\n      swap2\n      swap1\n      pop\n      jump\t// out\n\n    auxdata: 0xa26469706673582212201a5bfe1bd309b769d8fcc97768b599bc0341968fc69a8ce57e943a9c080f616c64736f6c634300080a0033\n}\n",
				"bytecode": {
					"linkReferences": {},
					"object": "608060405234801561001057600080fd5b50610350806100206000396000f3fe608060405234801561001057600080fd5b50600436106100ea5760003560e01c80636752e7021161008c57806395d89b411161006657806395d89b41146101b3578063aa5af0fd146101bb578063f3fdb15a146101c4578063f851a440146101d757600080fd5b80636752e702146101935780636c540baf146101a15780638f840ddd146101aa57600080fd5b806326782247116100c8578063267822471461012d578063313ce5671461015857806347bd3718146101775780635fe3b5671461018057600080fd5b806306fdde03146100ef578063173b99041461010d57806318160ddd14610124575b600080fd5b6100f76101ef565b604051610104919061028a565b60405180910390f35b61011660085481565b604051908152602001610104565b610116600d5481565b600454610140906001600160a01b031681565b6040516001600160a01b039091168152602001610104565b6003546101659060ff1681565b60405160ff9091168152602001610104565b610116600b5481565b600554610140906001600160a01b031681565b610116666379da05b6000081565b61011660095481565b610116600c5481565b6100f761027d565b610116600a5481565b600654610140906001600160a01b031681565b6003546101409061010090046001600160a01b031681565b600180546101fc906102df565b80601f0160208091040260200160405190810160405280929190818152602001828054610228906102df565b80156102755780601f1061024a57610100808354040283529160200191610275565b820191906000526020600020905b81548152906001019060200180831161025857829003601f168201915b505050505081565b600280546101fc906102df565b600060208083528351808285015260005b818110156102b75785810183015185820160400152820161029b565b818111156102c9576000604083870101525b50601f01601f1916929092016040019392505050565b600181811c908216806102f357607f821691505b6020821081141561031457634e487b7160e01b600052602260045260246000fd5b5091905056fea26469706673582212201a5bfe1bd309b769d8fcc97768b599bc0341968fc69a8ce57e943a9c080f616c64736f6c634300080a0033",
					"opcodes": "PUSH1 0x80 PUSH1 0x40 MSTORE CALLVALUE DUP1 ISZERO PUSH2 0x10 JUMPI PUSH1 0x0 DUP1 REVERT JUMPDEST POP PUSH2 0x350 DUP1 PUSH2 0x20 PUSH1 0x0 CODECOPY PUSH1 0x0 RETURN INVALID PUSH1 0x80 PUSH1 0x40 MSTORE CALLVALUE DUP1 ISZERO PUSH2 0x10 JUMPI PUSH1 0x0 DUP1 REVERT JUMPDEST POP PUSH1 0x4 CALLDATASIZE LT PUSH2 0xEA JUMPI PUSH1 0x0 CALLDATALOAD PUSH1 0xE0 SHR DUP1 PUSH4 0x6752E702 GT PUSH2 0x8C JUMPI DUP1 PUSH4 0x95D89B41 GT PUSH2 0x66 JUMPI DUP1 PUSH4 0x95D89B41 EQ PUSH2 0x1B3 JUMPI DUP1 PUSH4 0xAA5AF0FD EQ PUSH2 0x1BB JUMPI DUP1 PUSH4 0xF3FDB15A EQ PUSH2 0x1C4 JUMPI DUP1 PUSH4 0xF851A440 EQ PUSH2 0x1D7 JUMPI PUSH1 0x0 DUP1 REVERT JUMPDEST DUP1 PUSH4 0x6752E702 EQ PUSH2 0x193 JUMPI DUP1 PUSH4 0x6C540BAF EQ PUSH2 0x1A1 JUMPI DUP1 PUSH4 0x8F840DDD EQ PUSH2 0x1AA JUMPI PUSH1 0x0 DUP1 REVERT JUMPDEST DUP1 PUSH4 0x26782247 GT PUSH2 0xC8 JUMPI DUP1 PUSH4 0x26782247 EQ PUSH2 0x12D JUMPI DUP1 PUSH4 0x313CE567 EQ PUSH2 0x158 JUMPI DUP1 PUSH4 0x47BD3718 EQ PUSH2 0x177 JUMPI DUP1 PUSH4 0x5FE3B567 EQ PUSH2 0x180 JUMPI PUSH1 0x0 DUP1 REVERT JUMPDEST DUP1 PUSH4 0x6FDDE03 EQ PUSH2 0xEF JUMPI DUP1 PUSH4 0x173B9904 EQ PUSH2 0x10D JUMPI DUP1 PUSH4 0x18160DDD EQ PUSH2 0x124 JUMPI JUMPDEST PUSH1 0x0 DUP1 REVERT JUMPDEST PUSH2 0xF7 PUSH2 0x1EF JUMP JUMPDEST PUSH1 0x40 MLOAD PUSH2 0x104 SWAP2 SWAP1 PUSH2 0x28A JUMP JUMPDEST PUSH1 0x40 MLOAD DUP1 SWAP2 SUB SWAP1 RETURN JUMPDEST PUSH2 0x116 PUSH1 0x8 SLOAD DUP2 JUMP JUMPDEST PUSH1 0x40 MLOAD SWAP1 DUP2 MSTORE PUSH1 0x20 ADD PUSH2 0x104 JUMP JUMPDEST PUSH2 0x116 PUSH1 0xD SLOAD DUP2 JUMP JUMPDEST PUSH1 0x4 SLOAD PUSH2 0x140 SWAP1 PUSH1 0x1 PUSH1 0x1 PUSH1 0xA0 SHL SUB AND DUP2 JUMP JUMPDEST PUSH1 0x40 MLOAD PUSH1 0x1 PUSH1 0x1 PUSH1 0xA0 SHL SUB SWAP1 SWAP2 AND DUP2 MSTORE PUSH1 0x20 ADD PUSH2 0x104 JUMP JUMPDEST PUSH1 0x3 SLOAD PUSH2 0x165 SWAP1 PUSH1 0xFF AND DUP2 JUMP JUMPDEST PUSH1 0x40 MLOAD PUSH1 0xFF SWAP1 SWAP2 AND DUP2 MSTORE PUSH1 0x20 ADD PUSH2 0x104 JUMP JUMPDEST PUSH2 0x116 PUSH1 0xB SLOAD DUP2 JUMP JUMPDEST PUSH1 0x5 SLOAD PUSH2 0x140 SWAP1 PUSH1 0x1 PUSH1 0x1 PUSH1 0xA0 SHL SUB AND DUP2 JUMP JUMPDEST PUSH2 0x116 PUSH7 0x6379DA05B60000 DUP2 JUMP JUMPDEST PUSH2 0x116 PUSH1 0x9 SLOAD DUP2 JUMP JUMPDEST PUSH2 0x116 PUSH1 0xC SLOAD DUP2 JUMP JUMPDEST PUSH2 0xF7 PUSH2 0x27D JUMP JUMPDEST PUSH2 0x116 PUSH1 0xA SLOAD DUP2 JUMP JUMPDEST PUSH1 0x6 SLOAD PUSH2 0x140 SWAP1 PUSH1 0x1 PUSH1 0x1 PUSH1 0xA0 SHL SUB AND DUP2 JUMP JUMPDEST PUSH1 0x3 SLOAD PUSH2 0x140 SWAP1 PUSH2 0x100 SWAP1 DIV PUSH1 0x1 PUSH1 0x1 PUSH1 0xA0 SHL SUB AND DUP2 JUMP JUMPDEST PUSH1 0x1 DUP1 SLOAD PUSH2 0x1FC SWAP1 PUSH2 0x2DF JUMP JUMPDEST DUP1 PUSH1 0x1F ADD PUSH1 0x20 DUP1 SWAP2 DIV MUL PUSH1 0x20 ADD PUSH1 0x40 MLOAD SWAP1 DUP2 ADD PUSH1 0x40 MSTORE DUP1 SWAP3 SWAP2 SWAP1 DUP2 DUP2 MSTORE PUSH1 0x20 ADD DUP3 DUP1 SLOAD PUSH2 0x228 SWAP1 PUSH2 0x2DF JUMP JUMPDEST DUP1 ISZERO PUSH2 0x275 JUMPI DUP1 PUSH1 0x1F LT PUSH2 0x24A JUMPI PUSH2 0x100 DUP1 DUP4 SLOAD DIV MUL DUP4 MSTORE SWAP2 PUSH1 0x20 ADD SWAP2 PUSH2 0x275 JUMP JUMPDEST DUP3 ADD SWAP2 SWAP1 PUSH1 0x0 MSTORE PUSH1 0x20 PUSH1 0x0 KECCAK256 SWAP1 JUMPDEST DUP2 SLOAD DUP2 MSTORE SWAP1 PUSH1 0x1 ADD SWAP1 PUSH1 0x20 ADD DUP1 DUP4 GT PUSH2 0x258 JUMPI DUP3 SWAP1 SUB PUSH1 0x1F AND DUP3 ADD SWAP2 JUMPDEST POP POP POP POP POP DUP2 JUMP JUMPDEST PUSH1 0x2 DUP1 SLOAD PUSH2 0x1FC SWAP1 PUSH2 0x2DF JUMP JUMPDEST PUSH1 0x0 PUSH1 0x20 DUP1 DUP4 MSTORE DUP4 MLOAD DUP1 DUP3 DUP6 ADD MSTORE PUSH1 0x0 JUMPDEST DUP2 DUP2 LT ISZERO PUSH2 0x2B7 JUMPI DUP6 DUP2 ADD DUP4 ADD MLOAD DUP6 DUP3 ADD PUSH1 0x40 ADD MSTORE DUP3 ADD PUSH2 0x29B JUMP JUMPDEST DUP2 DUP2 GT ISZERO PUSH2 0x2C9 JUMPI PUSH1 0x0 PUSH1 0x40 DUP4 DUP8 ADD ADD MSTORE JUMPDEST POP PUSH1 0x1F ADD PUSH1 0x1F NOT AND SWAP3 SWAP1 SWAP3 ADD PUSH1 0x40 ADD SWAP4 SWAP3 POP POP POP JUMP JUMPDEST PUSH1 0x1 DUP2 DUP2 SHR SWAP1 DUP3 AND DUP1 PUSH2 0x2F3 JUMPI PUSH1 0x7F DUP3 AND SWAP2 POP JUMPDEST PUSH1 0x20 DUP3 LT DUP2 EQ ISZERO PUSH2 0x314 JUMPI PUSH4 0x4E487B71 PUSH1 0xE0 SHL PUSH1 0x0 MSTORE PUSH1 0x22 PUSH1 0x4 MSTORE PUSH1 0x24 PUSH1 0x0 REVERT JUMPDEST POP SWAP2 SWAP1 POP JUMP INVALID LOG2 PUSH5 0x6970667358 0x22 SLT KECCAK256 BYTE JUMPDEST INVALID SHL 0xD3 MULMOD 0xB7 PUSH10 0xD8FCC97768B599BC0341 SWAP7 DUP16 0xC6 SWAP11 DUP13 0xE5 PUSH31 0x943A9C080F616C64736F6C634300080A003300000000000000000000000000 "
				},
				"gasEstimates": {
					"creation": {
						"codeDepositCost": "169600",
						"executionCost": "214",
						"totalCost": "169814"
					},
					"external": {
						"accrualBlockNumber()": "2340",
						"admin()": "2436",
						"borrowIndex()": "2339",
						"comptroller()": "2426",
						"decimals()": "2358",
						"interestRateModel()": "2403",
						"name()": "infinite",
						"pendingAdmin()": "2360",
						"protocolSeizeShareMantissa()": "218",
						"reserveFactorMantissa()": "2341",
						"symbol()": "infinite",
						"totalBorrows()": "2362",
						"totalReserves()": "2362",
						"totalSupply()": "2363"
					}
				},
				"methodIdentifiers": {
					"accrualBlockNumber()": "6c540baf",
					"admin()": "f851a440",
					"borrowIndex()": "aa5af0fd",
					"comptroller()": "5fe3b567",
					"decimals()": "313ce567",
					"interestRateModel()": "f3fdb15a",
					"name()": "06fdde03",
					"pendingAdmin()": "26782247",
					"protocolSeizeShareMantissa()": "6752e702",
					"reserveFactorMantissa()": "173b9904",
					"symbol()": "95d89b41",
					"totalBorrows()": "47bd3718",
					"totalReserves()": "8f840ddd",
					"totalSupply()": "18160ddd"
				}
			},
			"storageLayout": {
				"storage": [
					{
						"astId": 2190,
						"contract": "contracts/CTokenInterfaces.sol:CTokenStorage",
						"label": "_notEntered",
						"offset": 0,
						"slot": "0",
						"type": "t_bool"
					},
					{
						"astId": 2193,
						"contract": "contracts/CTokenInterfaces.sol:CTokenStorage",
						"label": "name",
						"offset": 0,
						"slot": "1",
						"type": "t_string_storage"
					},
					{
						"astId": 2196,
						"contract": "contracts/CTokenInterfaces.sol:CTokenStorage",
						"label": "symbol",
						"offset": 0,
						"slot": "2",
						"type": "t_string_storage"
					},
					{
						"astId": 2199,
						"contract": "contracts/CTokenInterfaces.sol:CTokenStorage",
						"label": "decimals",
						"offset": 0,
						"slot": "3",
						"type": "t_uint8"
					},
					{
						"astId": 2208,
						"contract": "contracts/CTokenInterfaces.sol:CTokenStorage",
						"label": "admin",
						"offset": 1,
						"slot": "3",
						"type": "t_address_payable"
					},
					{
						"astId": 2211,
						"contract": "contracts/CTokenInterfaces.sol:CTokenStorage",
						"label": "pendingAdmin",
						"offset": 0,
						"slot": "4",
						"type": "t_address_payable"
					},
					{
						"astId": 2215,
						"contract": "contracts/CTokenInterfaces.sol:CTokenStorage",
						"label": "comptroller",
						"offset": 0,
						"slot": "5",
						"type": "t_contract(ComptrollerInterface)2900"
					},
					{
						"astId": 2219,
						"contract": "contracts/CTokenInterfaces.sol:CTokenStorage",
						"label": "interestRateModel",
						"offset": 0,
						"slot": "6",
						"type": "t_contract(InterestRateModel)3946"
					},
					{
						"astId": 2221,
						"contract": "contracts/CTokenInterfaces.sol:CTokenStorage",
						"label": "initialExchangeRateMantissa",
						"offset": 0,
						"slot": "7",
						"type": "t_uint256"
					},
					{
						"astId": 2224,
						"contract": "contracts/CTokenInterfaces.sol:CTokenStorage",
						"label": "reserveFactorMantissa",
						"offset": 0,
						"slot": "8",
						"type": "t_uint256"
					},
					{
						"astId": 2227,
						"contract": "contracts/CTokenInterfaces.sol:CTokenStorage",
						"label": "accrualBlockNumber",
						"offset": 0,
						"slot": "9",
						"type": "t_uint256"
					},
					{
						"astId": 2230,
						"contract": "contracts/CTokenInterfaces.sol:CTokenStorage",
						"label": "borrowIndex",
						"offset": 0,
						"slot": "10",
						"type": "t_uint256"
					},
					{
						"astId": 2233,
						"contract": "contracts/CTokenInterfaces.sol:CTokenStorage",
						"label": "totalBorrows",
						"offset": 0,
						"slot": "11",
						"type": "t_uint256"
					},
					{
						"astId": 2236,
						"contract": "contracts/CTokenInterfaces.sol:CTokenStorage",
						"label": "totalReserves",
						"offset": 0,
						"slot": "12",
						"type": "t_uint256"
					},
					{
						"astId": 2239,
						"contract": "contracts/CTokenInterfaces.sol:CTokenStorage",
						"label": "totalSupply",
						"offset": 0,
						"slot": "13",
						"type": "t_uint256"
					},
					{
						"astId": 2243,
						"contract": "contracts/CTokenInterfaces.sol:CTokenStorage",
						"label": "accountTokens",
						"offset": 0,
						"slot": "14",
						"type": "t_mapping(t_address,t_uint256)"
					},
					{
						"astId": 2249,
						"contract": "contracts/CTokenInterfaces.sol:CTokenStorage",
						"label": "transferAllowances",
						"offset": 0,
						"slot": "15",
						"type": "t_mapping(t_address,t_mapping(t_address,t_uint256))"
					},
					{
						"astId": 2259,
						"contract": "contracts/CTokenInterfaces.sol:CTokenStorage",
						"label": "accountBorrows",
						"offset": 0,
						"slot": "16",
						"type": "t_mapping(t_address,t_struct(BorrowSnapshot)2254_storage)"
					}
				],
				"types": {
					"t_address": {
						"encoding": "inplace",
						"label": "address",
						"numberOfBytes": "20"
					},
					"t_address_payable": {
						"encoding": "inplace",
						"label": "address payable",
						"numberOfBytes": "20"
					},
					"t_bool": {
						"encoding": "inplace",
						"label": "bool",
						"numberOfBytes": "1"
					},
					"t_contract(ComptrollerInterface)2900": {
						"encoding": "inplace",
						"label": "contract ComptrollerInterface",
						"numberOfBytes": "20"
					},
					"t_contract(InterestRateModel)3946": {
						"encoding": "inplace",
						"label": "contract InterestRateModel",
						"numberOfBytes": "20"
					},
					"t_mapping(t_address,t_mapping(t_address,t_uint256))": {
						"encoding": "mapping",
						"key": "t_address",
						"label": "mapping(address => mapping(address => uint256))",
						"numberOfBytes": "32",
						"value": "t_mapping(t_address,t_uint256)"
					},
					"t_mapping(t_address,t_struct(BorrowSnapshot)2254_storage)": {
						"encoding": "mapping",
						"key": "t_address",
						"label": "mapping(address => struct CTokenStorage.BorrowSnapshot)",
						"numberOfBytes": "32",
						"value": "t_struct(BorrowSnapshot)2254_storage"
					},
					"t_mapping(t_address,t_uint256)": {
						"encoding": "mapping",
						"key": "t_address",
						"label": "mapping(address => uint256)",
						"numberOfBytes": "32",
						"value": "t_uint256"
					},
					"t_string_storage": {
						"encoding": "bytes",
						"label": "string",
						"numberOfBytes": "32"
					},
					"t_struct(BorrowSnapshot)2254_storage": {
						"encoding": "inplace",
						"label": "struct CTokenStorage.BorrowSnapshot",
						"members": [
							{
								"astId": 2251,
								"contract": "contracts/CTokenInterfaces.sol:CTokenStorage",
								"label": "principal",
								"offset": 0,
								"slot": "0",
								"type": "t_uint256"
							},
							{
								"astId": 2253,
								"contract": "contracts/CTokenInterfaces.sol:CTokenStorage",
								"label": "interestIndex",
								"offset": 0,
								"slot": "1",
								"type": "t_uint256"
							}
						],
						"numberOfBytes": "64"
					},
					"t_uint256": {
						"encoding": "inplace",
						"label": "uint256",
						"numberOfBytes": "32"
					},
					"t_uint8": {
						"encoding": "inplace",
						"label": "uint8",
						"numberOfBytes": "1"
					}
				}
			},
			"userdoc": {
				"kind": "user",
				"methods": {
					"accrualBlockNumber()": {
						"notice": "Block number that interest was last accrued at"
					},
					"admin()": {
						"notice": "Administrator for this contract"
					},
					"borrowIndex()": {
						"notice": "Accumulator of the total earned interest rate since the opening of the market"
					},
					"comptroller()": {
						"notice": "Contract which oversees inter-cToken operations"
					},
					"decimals()": {
						"notice": "EIP-20 token decimals for this token"
					},
					"interestRateModel()": {
						"notice": "Model which tells what the current interest rate should be"
					},
					"name()": {
						"notice": "EIP-20 token name for this token"
					},
					"pendingAdmin()": {
						"notice": "Pending administrator for this contract"
					},
					"protocolSeizeShareMantissa()": {
						"notice": "Share of seized collateral that is added to reserves"
					},
					"reserveFactorMantissa()": {
						"notice": "Fraction of interest currently set aside for reserves"
					},
					"symbol()": {
						"notice": "EIP-20 token symbol for this token"
					},
					"totalBorrows()": {
						"notice": "Total amount of outstanding borrows of the underlying in this market"
					},
					"totalReserves()": {
						"notice": "Total amount of reserves of the underlying held in this market"
					},
					"totalSupply()": {
						"notice": "Total number of tokens in circulation"
					}
				},
				"version": 1
			}
		}
	}
}