{
	"contracts/Reservoir.sol": {
		"Reservoir": {
			"abi": [
				{
					"inputs": [
						{
							"internalType": "uint256",
							"name": "dripRate_",
							"type": "uint256"
						},
						{
							"internalType": "contract EIP20Interface",
							"name": "token_",
							"type": "address"
						},
						{
							"internalType": "address",
							"name": "target_",
							"type": "address"
						}
					],
					"stateMutability": "nonpayable",
					"type": "constructor"
				},
				{
					"inputs": [],
					"name": "drip",
					"outputs": [
						{
							"internalType": "uint256",
							"name": "",
							"type": "uint256"
						}
					],
					"stateMutability": "nonpayable",
					"type": "function"
				},
				{
					"inputs": [],
					"name": "dripRate",
					"outputs": [
						{
							"internalType": "uint256",
							"name": "",
							"type": "uint256"
						}
					],
					"stateMutability": "view",
					"type": "function"
				},
				{
					"inputs": [],
					"name": "dripStart",
					"outputs": [
						{
							"internalType": "uint256",
							"name": "",
							"type": "uint256"
						}
					],
					"stateMutability": "view",
					"type": "function"
				},
				{
					"inputs": [],
					"name": "dripped",
					"outputs": [
						{
							"internalType": "uint256",
							"name": "",
							"type": "uint256"
						}
					],
					"stateMutability": "view",
					"type": "function"
				},
				{
					"inputs": [],
					"name": "target",
					"outputs": [
						{
							"internalType": "address",
							"name": "",
							"type": "address"
						}
					],
					"stateMutability": "view",
					"type": "function"
				},
				{
					"inputs": [],
					"name": "token",
					"outputs": [
						{
							"internalType": "contract EIP20Interface",
							"name": "",
							"type": "address"
						}
					],
					"stateMutability": "view",
					"type": "function"
				}
			],
			"devdoc": {
				"author": "Compound",
				"details": "This contract must be poked via the `drip()` function every so often.",
				"kind": "dev",
				"methods": {
					"constructor": {
						"params": {
							"dripRate_": "Numer of tokens per block to drip",
							"target_": "The recipient of dripped tokens",
							"token_": "The token to drip"
						}
					},
					"drip()": {
						"details": "Note: this will only drip up to the amount of tokens available.",
						"returns": {
							"_0": "The amount of tokens dripped in this call"
						}
					}
				},
				"title": "Reservoir Contract",
				"version": 1
			},
			"evm": {
				"assembly": "    /* \"contracts/Reservoir.sol\":274:2985  contract Reservoir {... */\n  mstore(0x40, 0x80)\n    /* \"contracts/Reservoir.sol\":928:1123  constructor(uint dripRate_, EIP20Interface token_, address target_) public {... */\n  callvalue\n  dup1\n  iszero\n  tag_1\n  jumpi\n  0x00\n  dup1\n  revert\ntag_1:\n  pop\n  mload(0x40)\n  sub(codesize, bytecodeSize)\n  dup1\n  bytecodeSize\n  dup4\n  codecopy\n  dup2\n  add\n  0x40\n  dup2\n  swap1\n  mstore\n  tag_2\n  swap2\n  tag_3\n  jump\t// in\ntag_2:\n    /* \"contracts/Reservoir.sol\":1021:1033  block.number */\n  number\n    /* \"contracts/Reservoir.sol\":1009:1018  dripStart */\n  0x00\n    /* \"contracts/Reservoir.sol\":1009:1033  dripStart = block.number */\n  swap1\n  dup2\n  sstore\n    /* \"contracts/Reservoir.sol\":1039:1047  dripRate */\n  0x01\n    /* \"contracts/Reservoir.sol\":1039:1059  dripRate = dripRate_ */\n  swap4\n  swap1\n  swap4\n  sstore\n    /* \"contracts/Reservoir.sol\":1065:1070  token */\n  0x02\n    /* \"contracts/Reservoir.sol\":1065:1079  token = token_ */\n  dup1\n  sload\n  sub(shl(0xa0, 0x01), 0x01)\n  swap4\n  dup5\n  and\n  not(sub(shl(0xa0, 0x01), 0x01))\n  swap2\n  dup3\n  and\n  or\n  swap1\n  swap2\n  sstore\n    /* \"contracts/Reservoir.sol\":1085:1091  target */\n  0x03\n    /* \"contracts/Reservoir.sol\":1085:1101  target = target_ */\n  dup1\n  sload\n  swap3\n  swap1\n  swap4\n  and\n  swap2\n  and\n  or\n  swap1\n  sstore\n    /* \"contracts/Reservoir.sol\":1107:1114  dripped */\n  0x04\n    /* \"contracts/Reservoir.sol\":1107:1118  dripped = 0 */\n  sstore\n    /* \"contracts/Reservoir.sol\":274:2985  contract Reservoir {... */\n  jump(tag_8)\n    /* \"#utility.yul\":14:161   */\ntag_7:\n  sub(shl(0xa0, 0x01), 0x01)\n    /* \"#utility.yul\":105:136   */\n  dup2\n  and\n    /* \"#utility.yul\":95:137   */\n  dup2\n  eq\n    /* \"#utility.yul\":85:155   */\n  tag_10\n  jumpi\n    /* \"#utility.yul\":151:152   */\n  0x00\n    /* \"#utility.yul\":148:149   */\n  dup1\n    /* \"#utility.yul\":141:153   */\n  revert\n    /* \"#utility.yul\":85:155   */\ntag_10:\n    /* \"#utility.yul\":14:161   */\n  pop\n  jump\t// out\n    /* \"#utility.yul\":166:665   */\ntag_3:\n    /* \"#utility.yul\":275:281   */\n  0x00\n    /* \"#utility.yul\":283:289   */\n  dup1\n    /* \"#utility.yul\":291:297   */\n  0x00\n    /* \"#utility.yul\":344:346   */\n  0x60\n    /* \"#utility.yul\":332:341   */\n  dup5\n    /* \"#utility.yul\":323:330   */\n  dup7\n    /* \"#utility.yul\":319:342   */\n  sub\n    /* \"#utility.yul\":315:347   */\n  slt\n    /* \"#utility.yul\":312:364   */\n  iszero\n  tag_12\n  jumpi\n    /* \"#utility.yul\":360:361   */\n  0x00\n    /* \"#utility.yul\":357:358   */\n  dup1\n    /* \"#utility.yul\":350:362   */\n  revert\n    /* \"#utility.yul\":312:364   */\ntag_12:\n    /* \"#utility.yul\":389:398   */\n  dup4\n    /* \"#utility.yul\":383:399   */\n  mload\n    /* \"#utility.yul\":373:399   */\n  swap3\n  pop\n    /* \"#utility.yul\":442:444   */\n  0x20\n    /* \"#utility.yul\":431:440   */\n  dup5\n    /* \"#utility.yul\":427:445   */\n  add\n    /* \"#utility.yul\":421:446   */\n  mload\n    /* \"#utility.yul\":455:502   */\n  tag_13\n    /* \"#utility.yul\":496:501   */\n  dup2\n    /* \"#utility.yul\":455:502   */\n  tag_7\n  jump\t// in\ntag_13:\n    /* \"#utility.yul\":571:573   */\n  0x40\n    /* \"#utility.yul\":556:574   */\n  dup6\n  add\n    /* \"#utility.yul\":550:575   */\n  mload\n    /* \"#utility.yul\":521:526   */\n  swap1\n  swap3\n  pop\n    /* \"#utility.yul\":584:633   */\n  tag_14\n    /* \"#utility.yul\":550:575   */\n  dup2\n    /* \"#utility.yul\":584:633   */\n  tag_7\n  jump\t// in\ntag_14:\n    /* \"#utility.yul\":652:659   */\n  dup1\n    /* \"#utility.yul\":642:659   */\n  swap2\n  pop\n  pop\n    /* \"#utility.yul\":166:665   */\n  swap3\n  pop\n  swap3\n  pop\n  swap3\n  jump\t// out\ntag_8:\n    /* \"contracts/Reservoir.sol\":274:2985  contract Reservoir {... */\n  dataSize(sub_0)\n  dup1\n  dataOffset(sub_0)\n  0x00\n  codecopy\n  0x00\n  return\nstop\n\nsub_0: assembly {\n        /* \"contracts/Reservoir.sol\":274:2985  contract Reservoir {... */\n      mstore(0x40, 0x80)\n      callvalue\n      dup1\n      iszero\n      tag_1\n      jumpi\n      0x00\n      dup1\n      revert\n    tag_1:\n      pop\n      jumpi(tag_2, lt(calldatasize, 0x04))\n      shr(0xe0, calldataload(0x00))\n      dup1\n      0x88a91a8a\n      eq\n      tag_3\n      jumpi\n      dup1\n      0x95f632b3\n      eq\n      tag_4\n      jumpi\n      dup1\n      0x9f678cca\n      eq\n      tag_5\n      jumpi\n      dup1\n      0xd3261592\n      eq\n      tag_6\n      jumpi\n      dup1\n      0xd4b83992\n      eq\n      tag_7\n      jumpi\n      dup1\n      0xfc0c546a\n      eq\n      tag_8\n      jumpi\n    tag_2:\n      0x00\n      dup1\n      revert\n        /* \"contracts/Reservoir.sol\":368:389  uint public dripStart */\n    tag_3:\n      tag_9\n      sload(0x00)\n      dup2\n      jump\n    tag_9:\n      mload(0x40)\n        /* \"#utility.yul\":160:185   */\n      swap1\n      dup2\n      mstore\n        /* \"#utility.yul\":148:150   */\n      0x20\n        /* \"#utility.yul\":133:151   */\n      add\n        /* \"contracts/Reservoir.sol\":368:389  uint public dripStart */\n    tag_11:\n      mload(0x40)\n      dup1\n      swap2\n      sub\n      swap1\n      return\n        /* \"contracts/Reservoir.sol\":706:725  uint public dripped */\n    tag_4:\n      tag_9\n      sload(0x04)\n      dup2\n      jump\n        /* \"contracts/Reservoir.sol\":1359:2220  function drip() public returns (uint) {... */\n    tag_5:\n      tag_9\n      tag_17\n      jump\t// in\n        /* \"contracts/Reservoir.sol\":460:480  uint public dripRate */\n    tag_6:\n      tag_9\n      sload(0x01)\n      dup2\n      jump\n        /* \"contracts/Reservoir.sol\":629:650  address public target */\n    tag_7:\n      sload(0x03)\n      tag_22\n      swap1\n      sub(shl(0xa0, 0x01), 0x01)\n      and\n      dup2\n      jump\n    tag_22:\n      mload(0x40)\n      sub(shl(0xa0, 0x01), 0x01)\n        /* \"#utility.yul\":360:392   */\n      swap1\n      swap2\n      and\n        /* \"#utility.yul\":342:393   */\n      dup2\n      mstore\n        /* \"#utility.yul\":330:332   */\n      0x20\n        /* \"#utility.yul\":315:333   */\n      add\n        /* \"contracts/Reservoir.sol\":629:650  address public target */\n      tag_11\n        /* \"#utility.yul\":196:399   */\n      jump\n        /* \"contracts/Reservoir.sol\":538:565  EIP20Interface public token */\n    tag_8:\n      sload(0x02)\n      tag_22\n      swap1\n      sub(shl(0xa0, 0x01), 0x01)\n      and\n      dup2\n      jump\n        /* \"contracts/Reservoir.sol\":1359:2220  function drip() public returns (uint) {... */\n    tag_17:\n        /* \"contracts/Reservoir.sol\":1466:1471  token */\n      sload(0x02)\n        /* \"contracts/Reservoir.sol\":1502:1533  token_.balanceOf(address(this)) */\n      mload(0x40)\n      shl(0xe0, 0x70a08231)\n      dup2\n      mstore\n        /* \"contracts/Reservoir.sol\":1527:1531  this */\n      address\n        /* \"contracts/Reservoir.sol\":1502:1533  token_.balanceOf(address(this)) */\n      0x04\n      dup3\n      add\n        /* \"#utility.yul\":342:393   */\n      mstore\n        /* \"contracts/Reservoir.sol\":1391:1395  uint */\n      0x00\n      swap2\n      sub(shl(0xa0, 0x01), 0x01)\n        /* \"contracts/Reservoir.sol\":1466:1471  token */\n      and\n      swap1\n        /* \"contracts/Reservoir.sol\":1391:1395  uint */\n      dup3\n      swap1\n        /* \"contracts/Reservoir.sol\":1466:1471  token */\n      dup3\n      swap1\n        /* \"contracts/Reservoir.sol\":1502:1518  token_.balanceOf */\n      0x70a08231\n      swap1\n        /* \"#utility.yul\":315:333   */\n      0x24\n      add\n        /* \"contracts/Reservoir.sol\":1502:1533  token_.balanceOf(address(this)) */\n      0x20\n      mload(0x40)\n      dup1\n      dup4\n      sub\n      dup2\n      dup7\n      gas\n      staticcall\n      iszero\n      dup1\n      iszero\n      tag_33\n      jumpi\n      returndatasize\n      0x00\n      dup1\n      returndatacopy\n      revert(0x00, returndatasize)\n    tag_33:\n      pop\n      pop\n      pop\n      pop\n      mload(0x40)\n      returndatasize\n      not(0x1f)\n      0x1f\n      dup3\n      add\n      and\n      dup3\n      add\n      dup1\n      0x40\n      mstore\n      pop\n      dup2\n      add\n      swap1\n      tag_34\n      swap2\n      swap1\n      tag_35\n      jump\t// in\n    tag_34:\n        /* \"contracts/Reservoir.sol\":1594:1602  dripRate */\n      sload(0x01)\n        /* \"contracts/Reservoir.sol\":1577:1591  uint dripRate_ */\n      0x00\n        /* \"contracts/Reservoir.sol\":1626:1635  dripStart */\n      dup1\n      sload\n        /* \"contracts/Reservoir.sol\":1657:1664  dripped */\n      sload(0x04)\n        /* \"contracts/Reservoir.sol\":1688:1694  target */\n      sload(0x03)\n        /* \"contracts/Reservoir.sol\":1477:1533  uint reservoirBalance_ = token_.balanceOf(address(this)) */\n      swap5\n      swap6\n      pop\n        /* \"contracts/Reservoir.sol\":1594:1602  dripRate */\n      swap3\n      swap4\n        /* \"contracts/Reservoir.sol\":1626:1635  dripStart */\n      swap1\n      swap3\n        /* \"contracts/Reservoir.sol\":1657:1664  dripped */\n      swap2\n      sub(shl(0xa0, 0x01), 0x01)\n        /* \"contracts/Reservoir.sol\":1688:1694  target */\n      swap1\n      swap2\n      and\n      swap1\n        /* \"contracts/Reservoir.sol\":1720:1732  block.number */\n      number\n      swap1\n        /* \"contracts/Reservoir.sol\":1800:1863  mul(dripRate_, blockNumber_ - dripStart_, \"dripTotal overflow\") */\n      tag_36\n        /* \"contracts/Reservoir.sol\":1594:1602  dripRate */\n      dup7\n        /* \"contracts/Reservoir.sol\":1815:1840  blockNumber_ - dripStart_ */\n      tag_37\n        /* \"contracts/Reservoir.sol\":1626:1635  dripStart */\n      dup8\n        /* \"contracts/Reservoir.sol\":1720:1732  block.number */\n      dup6\n        /* \"contracts/Reservoir.sol\":1815:1840  blockNumber_ - dripStart_ */\n      tag_38\n      jump\t// in\n    tag_37:\n        /* \"contracts/Reservoir.sol\":1800:1863  mul(dripRate_, blockNumber_ - dripStart_, \"dripTotal overflow\") */\n      mload(0x40)\n      dup1\n      0x40\n      add\n      0x40\n      mstore\n      dup1\n      0x12\n      dup2\n      mstore\n      0x20\n      add\n      shl(0x70, 0x64726970546f74616c206f766572666c6f77)\n      dup2\n      mstore\n      pop\n        /* \"contracts/Reservoir.sol\":1800:1803  mul */\n      tag_39\n        /* \"contracts/Reservoir.sol\":1800:1863  mul(dripRate_, blockNumber_ - dripStart_, \"dripTotal overflow\") */\n      jump\t// in\n    tag_36:\n        /* \"contracts/Reservoir.sol\":1782:1863  uint dripTotal_ = mul(dripRate_, blockNumber_ - dripStart_, \"dripTotal overflow\") */\n      swap1\n      pop\n        /* \"contracts/Reservoir.sol\":1869:1884  uint deltaDrip_ */\n      0x00\n        /* \"contracts/Reservoir.sol\":1887:1935  sub(dripTotal_, dripped_, \"deltaDrip underflow\") */\n      tag_40\n        /* \"contracts/Reservoir.sol\":1891:1901  dripTotal_ */\n      dup3\n        /* \"contracts/Reservoir.sol\":1903:1911  dripped_ */\n      dup7\n        /* \"contracts/Reservoir.sol\":1887:1935  sub(dripTotal_, dripped_, \"deltaDrip underflow\") */\n      mload(0x40)\n      dup1\n      0x40\n      add\n      0x40\n      mstore\n      dup1\n      0x13\n      dup2\n      mstore\n      0x20\n      add\n      shl(0x68, 0x64656c74614472697020756e646572666c6f77)\n      dup2\n      mstore\n      pop\n        /* \"contracts/Reservoir.sol\":1887:1890  sub */\n      tag_41\n        /* \"contracts/Reservoir.sol\":1887:1935  sub(dripTotal_, dripped_, \"deltaDrip underflow\") */\n      jump\t// in\n    tag_40:\n        /* \"contracts/Reservoir.sol\":1869:1935  uint deltaDrip_ = sub(dripTotal_, dripped_, \"deltaDrip underflow\") */\n      swap1\n      pop\n        /* \"contracts/Reservoir.sol\":1941:1953  uint toDrip_ */\n      0x00\n        /* \"contracts/Reservoir.sol\":1956:1990  min(reservoirBalance_, deltaDrip_) */\n      tag_42\n        /* \"contracts/Reservoir.sol\":1960:1977  reservoirBalance_ */\n      dup10\n        /* \"contracts/Reservoir.sol\":1979:1989  deltaDrip_ */\n      dup4\n        /* \"contracts/Reservoir.sol\":1956:1959  min */\n      tag_43\n        /* \"contracts/Reservoir.sol\":1956:1990  min(reservoirBalance_, deltaDrip_) */\n      jump\t// in\n    tag_42:\n        /* \"contracts/Reservoir.sol\":1941:1990  uint toDrip_ = min(reservoirBalance_, deltaDrip_) */\n      swap1\n      pop\n        /* \"contracts/Reservoir.sol\":1996:2013  uint drippedNext_ */\n      0x00\n        /* \"contracts/Reservoir.sol\":2016:2054  add(dripped_, toDrip_, \"tautological\") */\n      tag_44\n        /* \"contracts/Reservoir.sol\":2020:2028  dripped_ */\n      dup8\n        /* \"contracts/Reservoir.sol\":2030:2037  toDrip_ */\n      dup4\n        /* \"contracts/Reservoir.sol\":2016:2054  add(dripped_, toDrip_, \"tautological\") */\n      mload(0x40)\n      dup1\n      0x40\n      add\n      0x40\n      mstore\n      dup1\n      0x0c\n      dup2\n      mstore\n      0x20\n      add\n      shl(0xa2, 0x1d185d5d1bdb1bd9da58d85b)\n      dup2\n      mstore\n      pop\n        /* \"contracts/Reservoir.sol\":2016:2019  add */\n      tag_45\n        /* \"contracts/Reservoir.sol\":2016:2054  add(dripped_, toDrip_, \"tautological\") */\n      jump\t// in\n    tag_44:\n        /* \"contracts/Reservoir.sol\":2133:2140  dripped */\n      0x04\n        /* \"contracts/Reservoir.sol\":2133:2155  dripped = drippedNext_ */\n      dup2\n      dup2\n      sstore\n        /* \"contracts/Reservoir.sol\":2161:2194  token_.transfer(target_, toDrip_) */\n      mload(0x40)\n      shl(0xe0, 0xa9059cbb)\n      dup2\n      mstore\n      sub(shl(0xa0, 0x01), 0x01)\n        /* \"#utility.yul\":1241:1273   */\n      dup10\n      dup2\n      and\n        /* \"contracts/Reservoir.sol\":2161:2194  token_.transfer(target_, toDrip_) */\n      swap3\n      dup3\n      add\n        /* \"#utility.yul\":1223:1274   */\n      swap3\n      swap1\n      swap3\n      mstore\n        /* \"#utility.yul\":1290:1308   */\n      0x24\n      dup2\n      add\n        /* \"#utility.yul\":1283:1317   */\n      dup6\n      swap1\n      mstore\n        /* \"contracts/Reservoir.sol\":2133:2155  dripped = drippedNext_ */\n      swap2\n      swap3\n      pop\n        /* \"contracts/Reservoir.sol\":2161:2176  token_.transfer */\n      dup13\n      and\n      swap1\n      0xa9059cbb\n      swap1\n        /* \"#utility.yul\":1196:1214   */\n      0x44\n      add\n        /* \"contracts/Reservoir.sol\":2161:2194  token_.transfer(target_, toDrip_) */\n      0x20\n      mload(0x40)\n      dup1\n      dup4\n      sub\n      dup2\n      0x00\n      dup8\n      gas\n      call\n      iszero\n      dup1\n      iszero\n      tag_49\n      jumpi\n      returndatasize\n      0x00\n      dup1\n      returndatacopy\n      revert(0x00, returndatasize)\n    tag_49:\n      pop\n      pop\n      pop\n      pop\n      mload(0x40)\n      returndatasize\n      not(0x1f)\n      0x1f\n      dup3\n      add\n      and\n      dup3\n      add\n      dup1\n      0x40\n      mstore\n      pop\n      dup2\n      add\n      swap1\n      tag_50\n      swap2\n      swap1\n      tag_51\n      jump\t// in\n    tag_50:\n      pop\n        /* \"contracts/Reservoir.sol\":2208:2215  toDrip_ */\n      swap1\n      swap12\n        /* \"contracts/Reservoir.sol\":1359:2220  function drip() public returns (uint) {... */\n      swap11\n      pop\n      pop\n      pop\n      pop\n      pop\n      pop\n      pop\n      pop\n      pop\n      pop\n      pop\n      jump\t// out\n        /* \"contracts/Reservoir.sol\":2622:2847  function mul(uint a, uint b, string memory errorMessage) internal pure returns (uint) {... */\n    tag_39:\n        /* \"contracts/Reservoir.sol\":2702:2706  uint */\n      0x00\n        /* \"contracts/Reservoir.sol\":2718:2724  a == 0 */\n      dup4\n        /* \"contracts/Reservoir.sol\":2714:2749  if (a == 0) {... */\n      tag_53\n      jumpi\n      pop\n        /* \"contracts/Reservoir.sol\":2741:2742  0 */\n      0x00\n        /* \"contracts/Reservoir.sol\":2734:2742  return 0 */\n      jump(tag_52)\n        /* \"contracts/Reservoir.sol\":2714:2749  if (a == 0) {... */\n    tag_53:\n        /* \"contracts/Reservoir.sol\":2782:2787  a * b */\n      dup4\n      dup4\n      mul\n        /* \"contracts/Reservoir.sol\":2786:2787  b */\n      dup4\n        /* \"contracts/Reservoir.sol\":2803:2808  c / a */\n      tag_54\n        /* \"contracts/Reservoir.sol\":2782:2783  a */\n      dup7\n        /* \"contracts/Reservoir.sol\":2782:2787  a * b */\n      dup4\n        /* \"contracts/Reservoir.sol\":2803:2808  c / a */\n      tag_55\n      jump\t// in\n    tag_54:\n        /* \"contracts/Reservoir.sol\":2803:2813  c / a == b */\n      eq\n        /* \"contracts/Reservoir.sol\":2815:2827  errorMessage */\n      dup4\n        /* \"contracts/Reservoir.sol\":2795:2828  require(c / a == b, errorMessage) */\n      swap1\n      tag_56\n      jumpi\n      mload(0x40)\n      shl(0xe5, 0x461bcd)\n      dup2\n      mstore\n      0x04\n      add\n      tag_57\n      swap2\n      swap1\n      tag_58\n      jump\t// in\n    tag_57:\n      mload(0x40)\n      dup1\n      swap2\n      sub\n      swap1\n      revert\n    tag_56:\n      pop\n        /* \"contracts/Reservoir.sol\":2841:2842  c */\n      swap1\n      pop\n        /* \"contracts/Reservoir.sol\":2622:2847  function mul(uint a, uint b, string memory errorMessage) internal pure returns (uint) {... */\n    tag_52:\n      swap4\n      swap3\n      pop\n      pop\n      pop\n      jump\t// out\n        /* \"contracts/Reservoir.sol\":2458:2618  function sub(uint a, uint b, string memory errorMessage) internal pure returns (uint) {... */\n    tag_41:\n        /* \"contracts/Reservoir.sol\":2538:2542  uint */\n      0x00\n        /* \"contracts/Reservoir.sol\":2566:2578  errorMessage */\n      dup2\n        /* \"contracts/Reservoir.sol\":2558:2564  b <= a */\n      dup5\n      dup5\n      gt\n      iszero\n        /* \"contracts/Reservoir.sol\":2550:2579  require(b <= a, errorMessage) */\n      tag_60\n      jumpi\n      mload(0x40)\n      shl(0xe5, 0x461bcd)\n      dup2\n      mstore\n      0x04\n      add\n      tag_57\n      swap2\n      swap1\n      tag_58\n      jump\t// in\n    tag_60:\n      pop\n        /* \"contracts/Reservoir.sol\":2585:2591  uint c */\n      0x00\n        /* \"contracts/Reservoir.sol\":2594:2599  a - b */\n      tag_62\n        /* \"contracts/Reservoir.sol\":2598:2599  b */\n      dup5\n        /* \"contracts/Reservoir.sol\":2594:2595  a */\n      dup7\n        /* \"contracts/Reservoir.sol\":2594:2599  a - b */\n      tag_38\n      jump\t// in\n    tag_62:\n        /* \"contracts/Reservoir.sol\":2585:2599  uint c = a - b */\n      swap6\n        /* \"contracts/Reservoir.sol\":2458:2618  function sub(uint a, uint b, string memory errorMessage) internal pure returns (uint) {... */\n      swap5\n      pop\n      pop\n      pop\n      pop\n      pop\n      jump\t// out\n        /* \"contracts/Reservoir.sol\":2851:2983  function min(uint a, uint b) internal pure returns (uint) {... */\n    tag_43:\n        /* \"contracts/Reservoir.sol\":2903:2907  uint */\n      0x00\n        /* \"contracts/Reservoir.sol\":2924:2925  b */\n      dup2\n        /* \"contracts/Reservoir.sol\":2919:2920  a */\n      dup4\n        /* \"contracts/Reservoir.sol\":2919:2925  a <= b */\n      gt\n        /* \"contracts/Reservoir.sol\":2915:2979  if (a <= b) {... */\n      tag_64\n      jumpi\n      pop\n        /* \"contracts/Reservoir.sol\":2942:2943  a */\n      dup2\n        /* \"contracts/Reservoir.sol\":2935:2943  return a */\n      jump(tag_65)\n        /* \"contracts/Reservoir.sol\":2915:2979  if (a <= b) {... */\n    tag_64:\n      pop\n        /* \"contracts/Reservoir.sol\":2971:2972  b */\n      dup1\n        /* \"contracts/Reservoir.sol\":2915:2979  if (a <= b) {... */\n    tag_65:\n        /* \"contracts/Reservoir.sol\":2851:2983  function min(uint a, uint b) internal pure returns (uint) {... */\n      swap3\n      swap2\n      pop\n      pop\n      jump\t// out\n        /* \"contracts/Reservoir.sol\":2273:2454  function add(uint a, uint b, string memory errorMessage) internal pure returns (uint) {... */\n    tag_45:\n        /* \"contracts/Reservoir.sol\":2353:2357  uint */\n      0x00\n        /* \"contracts/Reservoir.sol\":2393:2398  a + b */\n      dup4\n      dup4\n      add\n        /* \"contracts/Reservoir.sol\":2422:2434  errorMessage */\n      dup3\n        /* \"contracts/Reservoir.sol\":2414:2420  c >= a */\n      dup6\n      dup3\n      lt\n      iszero\n        /* \"contracts/Reservoir.sol\":2406:2435  require(c >= a, errorMessage) */\n      tag_56\n      jumpi\n      mload(0x40)\n      shl(0xe5, 0x461bcd)\n      dup2\n      mstore\n      0x04\n      add\n      tag_57\n      swap2\n      swap1\n      tag_58\n      jump\t// in\n        /* \"#utility.yul\":633:817   */\n    tag_35:\n        /* \"#utility.yul\":703:709   */\n      0x00\n        /* \"#utility.yul\":756:758   */\n      0x20\n        /* \"#utility.yul\":744:753   */\n      dup3\n        /* \"#utility.yul\":735:742   */\n      dup5\n        /* \"#utility.yul\":731:754   */\n      sub\n        /* \"#utility.yul\":727:759   */\n      slt\n        /* \"#utility.yul\":724:776   */\n      iszero\n      tag_74\n      jumpi\n        /* \"#utility.yul\":772:773   */\n      0x00\n        /* \"#utility.yul\":769:770   */\n      dup1\n        /* \"#utility.yul\":762:774   */\n      revert\n        /* \"#utility.yul\":724:776   */\n    tag_74:\n      pop\n        /* \"#utility.yul\":795:811   */\n      mload\n      swap2\n        /* \"#utility.yul\":633:817   */\n      swap1\n      pop\n      jump\t// out\n        /* \"#utility.yul\":822:1044   */\n    tag_38:\n        /* \"#utility.yul\":862:866   */\n      0x00\n        /* \"#utility.yul\":890:891   */\n      dup3\n        /* \"#utility.yul\":887:888   */\n      dup3\n        /* \"#utility.yul\":884:892   */\n      lt\n        /* \"#utility.yul\":881:1012   */\n      iszero\n      tag_76\n      jumpi\n        /* \"#utility.yul\":934:944   */\n      0x4e487b71\n        /* \"#utility.yul\":929:932   */\n      0xe0\n        /* \"#utility.yul\":925:945   */\n      shl\n        /* \"#utility.yul\":922:923   */\n      0x00\n        /* \"#utility.yul\":915:946   */\n      mstore\n        /* \"#utility.yul\":969:973   */\n      0x11\n        /* \"#utility.yul\":966:967   */\n      0x04\n        /* \"#utility.yul\":959:974   */\n      mstore\n        /* \"#utility.yul\":997:1001   */\n      0x24\n        /* \"#utility.yul\":994:995   */\n      0x00\n        /* \"#utility.yul\":987:1002   */\n      revert\n        /* \"#utility.yul\":881:1012   */\n    tag_76:\n      pop\n        /* \"#utility.yul\":1029:1038   */\n      sub\n      swap1\n        /* \"#utility.yul\":822:1044   */\n      jump\t// out\n        /* \"#utility.yul\":1328:1605   */\n    tag_51:\n        /* \"#utility.yul\":1395:1401   */\n      0x00\n        /* \"#utility.yul\":1448:1450   */\n      0x20\n        /* \"#utility.yul\":1436:1445   */\n      dup3\n        /* \"#utility.yul\":1427:1434   */\n      dup5\n        /* \"#utility.yul\":1423:1446   */\n      sub\n        /* \"#utility.yul\":1419:1451   */\n      slt\n        /* \"#utility.yul\":1416:1468   */\n      iszero\n      tag_79\n      jumpi\n        /* \"#utility.yul\":1464:1465   */\n      0x00\n        /* \"#utility.yul\":1461:1462   */\n      dup1\n        /* \"#utility.yul\":1454:1466   */\n      revert\n        /* \"#utility.yul\":1416:1468   */\n    tag_79:\n        /* \"#utility.yul\":1496:1505   */\n      dup2\n        /* \"#utility.yul\":1490:1506   */\n      mload\n        /* \"#utility.yul\":1549:1554   */\n      dup1\n        /* \"#utility.yul\":1542:1555   */\n      iszero\n        /* \"#utility.yul\":1535:1556   */\n      iszero\n        /* \"#utility.yul\":1528:1533   */\n      dup2\n        /* \"#utility.yul\":1525:1557   */\n      eq\n        /* \"#utility.yul\":1515:1575   */\n      tag_52\n      jumpi\n        /* \"#utility.yul\":1571:1572   */\n      0x00\n        /* \"#utility.yul\":1568:1569   */\n      dup1\n        /* \"#utility.yul\":1561:1573   */\n      revert\n        /* \"#utility.yul\":1610:1827   */\n    tag_55:\n        /* \"#utility.yul\":1650:1651   */\n      0x00\n        /* \"#utility.yul\":1676:1677   */\n      dup3\n        /* \"#utility.yul\":1666:1798   */\n      tag_82\n      jumpi\n        /* \"#utility.yul\":1720:1730   */\n      0x4e487b71\n        /* \"#utility.yul\":1715:1718   */\n      0xe0\n        /* \"#utility.yul\":1711:1731   */\n      shl\n        /* \"#utility.yul\":1708:1709   */\n      0x00\n        /* \"#utility.yul\":1701:1732   */\n      mstore\n        /* \"#utility.yul\":1755:1759   */\n      0x12\n        /* \"#utility.yul\":1752:1753   */\n      0x04\n        /* \"#utility.yul\":1745:1760   */\n      mstore\n        /* \"#utility.yul\":1783:1787   */\n      0x24\n        /* \"#utility.yul\":1780:1781   */\n      0x00\n        /* \"#utility.yul\":1773:1788   */\n      revert\n        /* \"#utility.yul\":1666:1798   */\n    tag_82:\n      pop\n        /* \"#utility.yul\":1812:1821   */\n      div\n      swap1\n        /* \"#utility.yul\":1610:1827   */\n      jump\t// out\n        /* \"#utility.yul\":1832:2429   */\n    tag_58:\n        /* \"#utility.yul\":1944:1948   */\n      0x00\n        /* \"#utility.yul\":1973:1975   */\n      0x20\n        /* \"#utility.yul\":2002:2004   */\n      dup1\n        /* \"#utility.yul\":1991:2000   */\n      dup4\n        /* \"#utility.yul\":1984:2005   */\n      mstore\n        /* \"#utility.yul\":2034:2040   */\n      dup4\n        /* \"#utility.yul\":2028:2041   */\n      mload\n        /* \"#utility.yul\":2077:2083   */\n      dup1\n        /* \"#utility.yul\":2072:2074   */\n      dup3\n        /* \"#utility.yul\":2061:2070   */\n      dup6\n        /* \"#utility.yul\":2057:2075   */\n      add\n        /* \"#utility.yul\":2050:2084   */\n      mstore\n        /* \"#utility.yul\":2102:2103   */\n      0x00\n        /* \"#utility.yul\":2112:2252   */\n    tag_84:\n        /* \"#utility.yul\":2126:2132   */\n      dup2\n        /* \"#utility.yul\":2123:2124   */\n      dup2\n        /* \"#utility.yul\":2120:2133   */\n      lt\n        /* \"#utility.yul\":2112:2252   */\n      iszero\n      tag_86\n      jumpi\n        /* \"#utility.yul\":2221:2235   */\n      dup6\n      dup2\n      add\n        /* \"#utility.yul\":2217:2240   */\n      dup4\n      add\n        /* \"#utility.yul\":2211:2241   */\n      mload\n        /* \"#utility.yul\":2187:2204   */\n      dup6\n      dup3\n      add\n        /* \"#utility.yul\":2206:2208   */\n      0x40\n        /* \"#utility.yul\":2183:2209   */\n      add\n        /* \"#utility.yul\":2176:2242   */\n      mstore\n        /* \"#utility.yul\":2141:2151   */\n      dup3\n      add\n        /* \"#utility.yul\":2112:2252   */\n      jump(tag_84)\n    tag_86:\n        /* \"#utility.yul\":2270:2276   */\n      dup2\n        /* \"#utility.yul\":2267:2268   */\n      dup2\n        /* \"#utility.yul\":2264:2277   */\n      gt\n        /* \"#utility.yul\":2261:2352   */\n      iszero\n      tag_87\n      jumpi\n        /* \"#utility.yul\":2340:2341   */\n      0x00\n        /* \"#utility.yul\":2335:2337   */\n      0x40\n        /* \"#utility.yul\":2326:2332   */\n      dup4\n        /* \"#utility.yul\":2315:2324   */\n      dup8\n        /* \"#utility.yul\":2311:2333   */\n      add\n        /* \"#utility.yul\":2307:2338   */\n      add\n        /* \"#utility.yul\":2300:2342   */\n      mstore\n        /* \"#utility.yul\":2261:2352   */\n    tag_87:\n      pop\n        /* \"#utility.yul\":2413:2415   */\n      0x1f\n        /* \"#utility.yul\":2392:2407   */\n      add\n      not(0x1f)\n        /* \"#utility.yul\":2388:2417   */\n      and\n        /* \"#utility.yul\":2373:2418   */\n      swap3\n      swap1\n      swap3\n      add\n        /* \"#utility.yul\":2420:2422   */\n      0x40\n        /* \"#utility.yul\":2369:2423   */\n      add\n      swap4\n        /* \"#utility.yul\":1832:2429   */\n      swap3\n      pop\n      pop\n      pop\n      jump\t// out\n\n    auxdata: 0xa264697066735822122008c8078fc485980be0b917ea38763205508a5a6e7297946ef0ab2bee8c7eb29f64736f6c634300080a0033\n}\n",
				"bytecode": {
					"linkReferences": {},
					"object": "608060405234801561001057600080fd5b5060405161056738038061056783398101604081905261002f91610087565b436000908155600193909355600280546001600160a01b039384166001600160a01b031991821617909155600380549290931691161790556004556100ca565b6001600160a01b038116811461008457600080fd5b50565b60008060006060848603121561009c57600080fd5b8351925060208401516100ae8161006f565b60408501519092506100bf8161006f565b809150509250925092565b61048e806100d96000396000f3fe608060405234801561001057600080fd5b50600436106100625760003560e01c806388a91a8a1461006757806395f632b3146100835780639f678cca1461008c578063d326159214610094578063d4b839921461009d578063fc0c546a146100c8575b600080fd5b61007060005481565b6040519081526020015b60405180910390f35b61007060045481565b6100706100db565b61007060015481565b6003546100b0906001600160a01b031681565b6040516001600160a01b03909116815260200161007a565b6002546100b0906001600160a01b031681565b6002546040516370a0823160e01b81523060048201526000916001600160a01b031690829082906370a0823190602401602060405180830381865afa158015610128573d6000803e3d6000fd5b505050506040513d601f19601f8201168201806040525081019061014c9190610381565b6001546000805460045460035494955092939092916001600160a01b039091169043906101ad8661017d878561039a565b6040518060400160405280601281526020017164726970546f74616c206f766572666c6f7760701b8152506102b6565b905060006101e782866040518060400160405280601381526020017264656c74614472697020756e646572666c6f7760681b815250610307565b905060006101f58983610341565b9050600061022887836040518060400160405280600c81526020016b1d185d5d1bdb1bd9da58d85b60a21b81525061035a565b600481815560405163a9059cbb60e01b81526001600160a01b0389811692820192909252602481018590529192508c169063a9059cbb906044016020604051808303816000875af1158015610281573d6000803e3d6000fd5b505050506040513d601f19601f820116820180604052508101906102a591906103bf565b50909b9a5050505050505050505050565b6000836102c557506000610300565b838302836102d386836103e1565b1483906102fc5760405162461bcd60e51b81526004016102f39190610403565b60405180910390fd5b5090505b9392505050565b6000818484111561032b5760405162461bcd60e51b81526004016102f39190610403565b506000610338848661039a565b95945050505050565b6000818311610351575081610354565b50805b92915050565b600083830182858210156102fc5760405162461bcd60e51b81526004016102f39190610403565b60006020828403121561039357600080fd5b5051919050565b6000828210156103ba57634e487b7160e01b600052601160045260246000fd5b500390565b6000602082840312156103d157600080fd5b8151801515811461030057600080fd5b6000826103fe57634e487b7160e01b600052601260045260246000fd5b500490565b600060208083528351808285015260005b8181101561043057858101830151858201604001528201610414565b81811115610442576000604083870101525b50601f01601f191692909201604001939250505056fea264697066735822122008c8078fc485980be0b917ea38763205508a5a6e7297946ef0ab2bee8c7eb29f64736f6c634300080a0033",
					"opcodes": "PUSH1 0x80 PUSH1 0x40 MSTORE CALLVALUE DUP1 ISZERO PUSH2 0x10 JUMPI PUSH1 0x0 DUP1 REVERT JUMPDEST POP PUSH1 0x40 MLOAD PUSH2 0x567 CODESIZE SUB DUP1 PUSH2 0x567 DUP4 CODECOPY DUP2 ADD PUSH1 0x40 DUP2 SWAP1 MSTORE PUSH2 0x2F SWAP2 PUSH2 0x87 JUMP JUMPDEST NUMBER PUSH1 0x0 SWAP1 DUP2 SSTORE PUSH1 0x1 SWAP4 SWAP1 SWAP4 SSTORE PUSH1 0x2 DUP1 SLOAD PUSH1 0x1 PUSH1 0x1 PUSH1 0xA0 SHL SUB SWAP4 DUP5 AND PUSH1 0x1 PUSH1 0x1 PUSH1 0xA0 SHL SUB NOT SWAP2 DUP3 AND OR SWAP1 SWAP2 SSTORE PUSH1 0x3 DUP1 SLOAD SWAP3 SWAP1 SWAP4 AND SWAP2 AND OR SWAP1 SSTORE PUSH1 0x4 SSTORE PUSH2 0xCA JUMP JUMPDEST PUSH1 0x1 PUSH1 0x1 PUSH1 0xA0 SHL SUB DUP2 AND DUP2 EQ PUSH2 0x84 JUMPI PUSH1 0x0 DUP1 REVERT JUMPDEST POP JUMP JUMPDEST PUSH1 0x0 DUP1 PUSH1 0x0 PUSH1 0x60 DUP5 DUP7 SUB SLT ISZERO PUSH2 0x9C JUMPI PUSH1 0x0 DUP1 REVERT JUMPDEST DUP4 MLOAD SWAP3 POP PUSH1 0x20 DUP5 ADD MLOAD PUSH2 0xAE DUP2 PUSH2 0x6F JUMP JUMPDEST PUSH1 0x40 DUP6 ADD MLOAD SWAP1 SWAP3 POP PUSH2 0xBF DUP2 PUSH2 0x6F JUMP JUMPDEST DUP1 SWAP2 POP POP SWAP3 POP SWAP3 POP SWAP3 JUMP JUMPDEST PUSH2 0x48E DUP1 PUSH2 0xD9 PUSH1 0x0 CODECOPY PUSH1 0x0 RETURN INVALID PUSH1 0x80 PUSH1 0x40 MSTORE CALLVALUE DUP1 ISZERO PUSH2 0x10 JUMPI PUSH1 0x0 DUP1 REVERT JUMPDEST POP PUSH1 0x4 CALLDATASIZE LT PUSH2 0x62 JUMPI PUSH1 0x0 CALLDATALOAD PUSH1 0xE0 SHR DUP1 PUSH4 0x88A91A8A EQ PUSH2 0x67 JUMPI DUP1 PUSH4 0x95F632B3 EQ PUSH2 0x83 JUMPI DUP1 PUSH4 0x9F678CCA EQ PUSH2 0x8C JUMPI DUP1 PUSH4 0xD3261592 EQ PUSH2 0x94 JUMPI DUP1 PUSH4 0xD4B83992 EQ PUSH2 0x9D JUMPI DUP1 PUSH4 0xFC0C546A EQ PUSH2 0xC8 JUMPI JUMPDEST PUSH1 0x0 DUP1 REVERT JUMPDEST PUSH2 0x70 PUSH1 0x0 SLOAD DUP2 JUMP JUMPDEST PUSH1 0x40 MLOAD SWAP1 DUP2 MSTORE PUSH1 0x20 ADD JUMPDEST PUSH1 0x40 MLOAD DUP1 SWAP2 SUB SWAP1 RETURN JUMPDEST PUSH2 0x70 PUSH1 0x4 SLOAD DUP2 JUMP JUMPDEST PUSH2 0x70 PUSH2 0xDB JUMP JUMPDEST PUSH2 0x70 PUSH1 0x1 SLOAD DUP2 JUMP JUMPDEST PUSH1 0x3 SLOAD PUSH2 0xB0 SWAP1 PUSH1 0x1 PUSH1 0x1 PUSH1 0xA0 SHL SUB AND DUP2 JUMP JUMPDEST PUSH1 0x40 MLOAD PUSH1 0x1 PUSH1 0x1 PUSH1 0xA0 SHL SUB SWAP1 SWAP2 AND DUP2 MSTORE PUSH1 0x20 ADD PUSH2 0x7A JUMP JUMPDEST PUSH1 0x2 SLOAD PUSH2 0xB0 SWAP1 PUSH1 0x1 PUSH1 0x1 PUSH1 0xA0 SHL SUB AND DUP2 JUMP JUMPDEST PUSH1 0x2 SLOAD PUSH1 0x40 MLOAD PUSH4 0x70A08231 PUSH1 0xE0 SHL DUP2 MSTORE ADDRESS PUSH1 0x4 DUP3 ADD MSTORE PUSH1 0x0 SWAP2 PUSH1 0x1 PUSH1 0x1 PUSH1 0xA0 SHL SUB AND SWAP1 DUP3 SWAP1 DUP3 SWAP1 PUSH4 0x70A08231 SWAP1 PUSH1 0x24 ADD PUSH1 0x20 PUSH1 0x40 MLOAD DUP1 DUP4 SUB DUP2 DUP7 GAS STATICCALL ISZERO DUP1 ISZERO PUSH2 0x128 JUMPI RETURNDATASIZE PUSH1 0x0 DUP1 RETURNDATACOPY RETURNDATASIZE PUSH1 0x0 REVERT JUMPDEST POP POP POP POP PUSH1 0x40 MLOAD RETURNDATASIZE PUSH1 0x1F NOT PUSH1 0x1F DUP3 ADD AND DUP3 ADD DUP1 PUSH1 0x40 MSTORE POP DUP2 ADD SWAP1 PUSH2 0x14C SWAP2 SWAP1 PUSH2 0x381 JUMP JUMPDEST PUSH1 0x1 SLOAD PUSH1 0x0 DUP1 SLOAD PUSH1 0x4 SLOAD PUSH1 0x3 SLOAD SWAP5 SWAP6 POP SWAP3 SWAP4 SWAP1 SWAP3 SWAP2 PUSH1 0x1 PUSH1 0x1 PUSH1 0xA0 SHL SUB SWAP1 SWAP2 AND SWAP1 NUMBER SWAP1 PUSH2 0x1AD DUP7 PUSH2 0x17D DUP8 DUP6 PUSH2 0x39A JUMP JUMPDEST PUSH1 0x40 MLOAD DUP1 PUSH1 0x40 ADD PUSH1 0x40 MSTORE DUP1 PUSH1 0x12 DUP2 MSTORE PUSH1 0x20 ADD PUSH18 0x64726970546F74616C206F766572666C6F77 PUSH1 0x70 SHL DUP2 MSTORE POP PUSH2 0x2B6 JUMP JUMPDEST SWAP1 POP PUSH1 0x0 PUSH2 0x1E7 DUP3 DUP7 PUSH1 0x40 MLOAD DUP1 PUSH1 0x40 ADD PUSH1 0x40 MSTORE DUP1 PUSH1 0x13 DUP2 MSTORE PUSH1 0x20 ADD PUSH19 0x64656C74614472697020756E646572666C6F77 PUSH1 0x68 SHL DUP2 MSTORE POP PUSH2 0x307 JUMP JUMPDEST SWAP1 POP PUSH1 0x0 PUSH2 0x1F5 DUP10 DUP4 PUSH2 0x341 JUMP JUMPDEST SWAP1 POP PUSH1 0x0 PUSH2 0x228 DUP8 DUP4 PUSH1 0x40 MLOAD DUP1 PUSH1 0x40 ADD PUSH1 0x40 MSTORE DUP1 PUSH1 0xC DUP2 MSTORE PUSH1 0x20 ADD PUSH12 0x1D185D5D1BDB1BD9DA58D85B PUSH1 0xA2 SHL DUP2 MSTORE POP PUSH2 0x35A JUMP JUMPDEST PUSH1 0x4 DUP2 DUP2 SSTORE PUSH1 0x40 MLOAD PUSH4 0xA9059CBB PUSH1 0xE0 SHL DUP2 MSTORE PUSH1 0x1 PUSH1 0x1 PUSH1 0xA0 SHL SUB DUP10 DUP2 AND SWAP3 DUP3 ADD SWAP3 SWAP1 SWAP3 MSTORE PUSH1 0x24 DUP2 ADD DUP6 SWAP1 MSTORE SWAP2 SWAP3 POP DUP13 AND SWAP1 PUSH4 0xA9059CBB SWAP1 PUSH1 0x44 ADD PUSH1 0x20 PUSH1 0x40 MLOAD DUP1 DUP4 SUB DUP2 PUSH1 0x0 DUP8 GAS CALL ISZERO DUP1 ISZERO PUSH2 0x281 JUMPI RETURNDATASIZE PUSH1 0x0 DUP1 RETURNDATACOPY RETURNDATASIZE PUSH1 0x0 REVERT JUMPDEST POP POP POP POP PUSH1 0x40 MLOAD RETURNDATASIZE PUSH1 0x1F NOT PUSH1 0x1F DUP3 ADD AND DUP3 ADD DUP1 PUSH1 0x40 MSTORE POP DUP2 ADD SWAP1 PUSH2 0x2A5 SWAP2 SWAP1 PUSH2 0x3BF JUMP JUMPDEST POP SWAP1 SWAP12 SWAP11 POP POP POP POP POP POP POP POP POP POP POP JUMP JUMPDEST PUSH1 0x0 DUP4 PUSH2 0x2C5 JUMPI POP PUSH1 0x0 PUSH2 0x300 JUMP JUMPDEST DUP4 DUP4 MUL DUP4 PUSH2 0x2D3 DUP7 DUP4 PUSH2 0x3E1 JUMP JUMPDEST EQ DUP4 SWAP1 PUSH2 0x2FC JUMPI PUSH1 0x40 MLOAD PUSH3 0x461BCD PUSH1 0xE5 SHL DUP2 MSTORE PUSH1 0x4 ADD PUSH2 0x2F3 SWAP2 SWAP1 PUSH2 0x403 JUMP JUMPDEST PUSH1 0x40 MLOAD DUP1 SWAP2 SUB SWAP1 REVERT JUMPDEST POP SWAP1 POP JUMPDEST SWAP4 SWAP3 POP POP POP JUMP JUMPDEST PUSH1 0x0 DUP2 DUP5 DUP5 GT ISZERO PUSH2 0x32B JUMPI PUSH1 0x40 MLOAD PUSH3 0x461BCD PUSH1 0xE5 SHL DUP2 MSTORE PUSH1 0x4 ADD PUSH2 0x2F3 SWAP2 SWAP1 PUSH2 0x403 JUMP JUMPDEST POP PUSH1 0x0 PUSH2 0x338 DUP5 DUP7 PUSH2 0x39A JUMP JUMPDEST SWAP6 SWAP5 POP POP POP POP POP JUMP JUMPDEST PUSH1 0x0 DUP2 DUP4 GT PUSH2 0x351 JUMPI POP DUP2 PUSH2 0x354 JUMP JUMPDEST POP DUP1 JUMPDEST SWAP3 SWAP2 POP POP JUMP JUMPDEST PUSH1 0x0 DUP4 DUP4 ADD DUP3 DUP6 DUP3 LT ISZERO PUSH2 0x2FC JUMPI PUSH1 0x40 MLOAD PUSH3 0x461BCD PUSH1 0xE5 SHL DUP2 MSTORE PUSH1 0x4 ADD PUSH2 0x2F3 SWAP2 SWAP1 PUSH2 0x403 JUMP JUMPDEST PUSH1 0x0 PUSH1 0x20 DUP3 DUP5 SUB SLT ISZERO PUSH2 0x393 JUMPI PUSH1 0x0 DUP1 REVERT JUMPDEST POP MLOAD SWAP2 SWAP1 POP JUMP JUMPDEST PUSH1 0x0 DUP3 DUP3 LT ISZERO PUSH2 0x3BA JUMPI PUSH4 0x4E487B71 PUSH1 0xE0 SHL PUSH1 0x0 MSTORE PUSH1 0x11 PUSH1 0x4 MSTORE PUSH1 0x24 PUSH1 0x0 REVERT JUMPDEST POP SUB SWAP1 JUMP JUMPDEST PUSH1 0x0 PUSH1 0x20 DUP3 DUP5 SUB SLT ISZERO PUSH2 0x3D1 JUMPI PUSH1 0x0 DUP1 REVERT JUMPDEST DUP2 MLOAD DUP1 ISZERO ISZERO DUP2 EQ PUSH2 0x300 JUMPI PUSH1 0x0 DUP1 REVERT JUMPDEST PUSH1 0x0 DUP3 PUSH2 0x3FE JUMPI PUSH4 0x4E487B71 PUSH1 0xE0 SHL PUSH1 0x0 MSTORE PUSH1 0x12 PUSH1 0x4 MSTORE PUSH1 0x24 PUSH1 0x0 REVERT JUMPDEST POP DIV SWAP1 JUMP JUMPDEST PUSH1 0x0 PUSH1 0x20 DUP1 DUP4 MSTORE DUP4 MLOAD DUP1 DUP3 DUP6 ADD MSTORE PUSH1 0x0 JUMPDEST DUP2 DUP2 LT ISZERO PUSH2 0x430 JUMPI DUP6 DUP2 ADD DUP4 ADD MLOAD DUP6 DUP3 ADD PUSH1 0x40 ADD MSTORE DUP3 ADD PUSH2 0x414 JUMP JUMPDEST DUP2 DUP2 GT ISZERO PUSH2 0x442 JUMPI PUSH1 0x0 PUSH1 0x40 DUP4 DUP8 ADD ADD MSTORE JUMPDEST POP PUSH1 0x1F ADD PUSH1 0x1F NOT AND SWAP3 SWAP1 SWAP3 ADD PUSH1 0x40 ADD SWAP4 SWAP3 POP POP POP JUMP INVALID LOG2 PUSH5 0x6970667358 0x22 SLT KECCAK256 ADDMOD 0xC8 SMOD DUP16 0xC4 DUP6 SWAP9 SIGNEXTEND 0xE0 0xB9 OR 0xEA CODESIZE PUSH23 0x3205508A5A6E7297946EF0AB2BEE8C7EB29F64736F6C63 NUMBER STOP ADDMOD EXP STOP CALLER "
				},
				"gasEstimates": {
					"creation": {
						"codeDepositCost": "233200",
						"executionCost": "infinite",
						"totalCost": "infinite"
					},
					"external": {
						"drip()": "infinite",
						"dripRate()": "2328",
						"dripStart()": "2262",
						"dripped()": "2284",
						"target()": "2403",
						"token()": "2425"
					},
					"internal": {
						"add(uint256,uint256,string memory)": "infinite",
						"min(uint256,uint256)": "61",
						"mul(uint256,uint256,string memory)": "infinite",
						"sub(uint256,uint256,string memory)": "infinite"
					}
				},
				"methodIdentifiers": {
					"drip()": "9f678cca",
					"dripRate()": "d3261592",
					"dripStart()": "88a91a8a",
					"dripped()": "95f632b3",
					"target()": "d4b83992",
					"token()": "fc0c546a"
				}
			},
			"storageLayout": {
				"storage": [
					{
						"astId": 96,
						"contract": "contracts/Reservoir.sol:Reservoir",
						"label": "dripStart",
						"offset": 0,
						"slot": "0",
						"type": "t_uint256"
					},
					{
						"astId": 99,
						"contract": "contracts/Reservoir.sol:Reservoir",
						"label": "dripRate",
						"offset": 0,
						"slot": "1",
						"type": "t_uint256"
					},
					{
						"astId": 103,
						"contract": "contracts/Reservoir.sol:Reservoir",
						"label": "token",
						"offset": 0,
						"slot": "2",
						"type": "t_contract(EIP20Interface)90"
					},
					{
						"astId": 106,
						"contract": "contracts/Reservoir.sol:Reservoir",
						"label": "target",
						"offset": 0,
						"slot": "3",
						"type": "t_address"
					},
					{
						"astId": 109,
						"contract": "contracts/Reservoir.sol:Reservoir",
						"label": "dripped",
						"offset": 0,
						"slot": "4",
						"type": "t_uint256"
					}
				],
				"types": {
					"t_address": {
						"encoding": "inplace",
						"label": "address",
						"numberOfBytes": "20"
					},
					"t_contract(EIP20Interface)90": {
						"encoding": "inplace",
						"label": "contract EIP20Interface",
						"numberOfBytes": "20"
					},
					"t_uint256": {
						"encoding": "inplace",
						"label": "uint256",
						"numberOfBytes": "32"
					}
				}
			},
			"userdoc": {
				"kind": "user",
				"methods": {
					"constructor": {
						"notice": "Constructs a Reservoir"
					},
					"drip()": {
						"notice": "Drips the maximum amount of tokens to match the drip rate since inception"
					},
					"dripRate()": {
						"notice": "Tokens per block that to drip to target (immutable)"
					},
					"dripStart()": {
						"notice": "The block number when the Reservoir started (immutable)"
					},
					"dripped()": {
						"notice": "Amount that has already been dripped"
					},
					"target()": {
						"notice": "Target to receive dripped tokens (immutable)"
					},
					"token()": {
						"notice": "Reference to token to drip (immutable)"
					}
				},
				"notice": "Distributes a token to a different contract at a fixed rate.",
				"version": 1
			}
		}
	}
}