{
	"contracts/JumpRateModel.sol": {
		"JumpRateModel": {
			"abi": [
				{
					"inputs": [
						{
							"internalType": "uint256",
							"name": "baseRatePerYear",
							"type": "uint256"
						},
						{
							"internalType": "uint256",
							"name": "multiplierPerYear",
							"type": "uint256"
						},
						{
							"internalType": "uint256",
							"name": "jumpMultiplierPerYear",
							"type": "uint256"
						},
						{
							"internalType": "uint256",
							"name": "kink_",
							"type": "uint256"
						}
					],
					"stateMutability": "nonpayable",
					"type": "constructor"
				},
				{
					"anonymous": false,
					"inputs": [
						{
							"indexed": false,
							"internalType": "uint256",
							"name": "baseRatePerBlock",
							"type": "uint256"
						},
						{
							"indexed": false,
							"internalType": "uint256",
							"name": "multiplierPerBlock",
							"type": "uint256"
						},
						{
							"indexed": false,
							"internalType": "uint256",
							"name": "jumpMultiplierPerBlock",
							"type": "uint256"
						},
						{
							"indexed": false,
							"internalType": "uint256",
							"name": "kink",
							"type": "uint256"
						}
					],
					"name": "NewInterestParams",
					"type": "event"
				},
				{
					"inputs": [],
					"name": "baseRatePerBlock",
					"outputs": [
						{
							"internalType": "uint256",
							"name": "",
							"type": "uint256"
						}
					],
					"stateMutability": "view",
					"type": "function"
				},
				{
					"inputs": [],
					"name": "blocksPerYear",
					"outputs": [
						{
							"internalType": "uint256",
							"name": "",
							"type": "uint256"
						}
					],
					"stateMutability": "view",
					"type": "function"
				},
				{
					"inputs": [
						{
							"internalType": "uint256",
							"name": "cash",
							"type": "uint256"
						},
						{
							"internalType": "uint256",
							"name": "borrows",
							"type": "uint256"
						},
						{
							"internalType": "uint256",
							"name": "reserves",
							"type": "uint256"
						}
					],
					"name": "getBorrowRate",
					"outputs": [
						{
							"internalType": "uint256",
							"name": "",
							"type": "uint256"
						}
					],
					"stateMutability": "view",
					"type": "function"
				},
				{
					"inputs": [
						{
							"internalType": "uint256",
							"name": "cash",
							"type": "uint256"
						},
						{
							"internalType": "uint256",
							"name": "borrows",
							"type": "uint256"
						},
						{
							"internalType": "uint256",
							"name": "reserves",
							"type": "uint256"
						},
						{
							"internalType": "uint256",
							"name": "reserveFactorMantissa",
							"type": "uint256"
						}
					],
					"name": "getSupplyRate",
					"outputs": [
						{
							"internalType": "uint256",
							"name": "",
							"type": "uint256"
						}
					],
					"stateMutability": "view",
					"type": "function"
				},
				{
					"inputs": [],
					"name": "isInterestRateModel",
					"outputs": [
						{
							"internalType": "bool",
							"name": "",
							"type": "bool"
						}
					],
					"stateMutability": "view",
					"type": "function"
				},
				{
					"inputs": [],
					"name": "jumpMultiplierPerBlock",
					"outputs": [
						{
							"internalType": "uint256",
							"name": "",
							"type": "uint256"
						}
					],
					"stateMutability": "view",
					"type": "function"
				},
				{
					"inputs": [],
					"name": "kink",
					"outputs": [
						{
							"internalType": "uint256",
							"name": "",
							"type": "uint256"
						}
					],
					"stateMutability": "view",
					"type": "function"
				},
				{
					"inputs": [],
					"name": "multiplierPerBlock",
					"outputs": [
						{
							"internalType": "uint256",
							"name": "",
							"type": "uint256"
						}
					],
					"stateMutability": "view",
					"type": "function"
				},
				{
					"inputs": [
						{
							"internalType": "uint256",
							"name": "cash",
							"type": "uint256"
						},
						{
							"internalType": "uint256",
							"name": "borrows",
							"type": "uint256"
						},
						{
							"internalType": "uint256",
							"name": "reserves",
							"type": "uint256"
						}
					],
					"name": "utilizationRate",
					"outputs": [
						{
							"internalType": "uint256",
							"name": "",
							"type": "uint256"
						}
					],
					"stateMutability": "pure",
					"type": "function"
				}
			],
			"devdoc": {
				"author": "Compound",
				"kind": "dev",
				"methods": {
					"constructor": {
						"params": {
							"baseRatePerYear": "The approximate target base APR, as a mantissa (scaled by BASE)",
							"jumpMultiplierPerYear": "The multiplierPerBlock after hitting a specified utilization point",
							"kink_": "The utilization point at which the jump multiplier is applied",
							"multiplierPerYear": "The rate of increase in interest rate wrt utilization (scaled by BASE)"
						}
					},
					"getBorrowRate(uint256,uint256,uint256)": {
						"params": {
							"borrows": "The amount of borrows in the market",
							"cash": "The amount of cash in the market",
							"reserves": "The amount of reserves in the market"
						},
						"returns": {
							"_0": "The borrow rate percentage per block as a mantissa (scaled by BASE)"
						}
					},
					"getSupplyRate(uint256,uint256,uint256,uint256)": {
						"params": {
							"borrows": "The amount of borrows in the market",
							"cash": "The amount of cash in the market",
							"reserveFactorMantissa": "The current reserve factor for the market",
							"reserves": "The amount of reserves in the market"
						},
						"returns": {
							"_0": "The supply rate percentage per block as a mantissa (scaled by BASE)"
						}
					},
					"utilizationRate(uint256,uint256,uint256)": {
						"params": {
							"borrows": "The amount of borrows in the market",
							"cash": "The amount of cash in the market",
							"reserves": "The amount of reserves in the market (currently unused)"
						},
						"returns": {
							"_0": "The utilization rate as a mantissa between [0, BASE]"
						}
					}
				},
				"title": "Compound's JumpRateModel Contract",
				"version": 1
			},
			"evm": {
				"assembly": "    /* \"contracts/JumpRateModel.sol\":177:4344  contract JumpRateModel is InterestRateModel {... */\n  mstore(0x40, 0x80)\n    /* \"contracts/JumpRateModel.sol\":1542:1973  constructor(uint baseRatePerYear, uint multiplierPerYear, uint jumpMultiplierPerYear, uint kink_) public {... */\n  callvalue\n  dup1\n  iszero\n  tag_1\n  jumpi\n  0x00\n  dup1\n  revert\ntag_1:\n  pop\n  mload(0x40)\n  sub(codesize, bytecodeSize)\n  dup1\n  bytecodeSize\n  dup4\n  codecopy\n  dup2\n  add\n  0x40\n  dup2\n  swap1\n  mstore\n  tag_2\n  swap2\n  tag_3\n  jump\t// in\ntag_2:\n    /* \"contracts/JumpRateModel.sol\":1676:1707  baseRatePerYear / blocksPerYear */\n  tag_6\n    /* \"contracts/JumpRateModel.sol\":541:548  2102400 */\n  0x201480\n    /* \"contracts/JumpRateModel.sol\":1676:1691  baseRatePerYear */\n  dup6\n    /* \"contracts/JumpRateModel.sol\":1676:1707  baseRatePerYear / blocksPerYear */\n  tag_7\n  jump\t// in\ntag_6:\n    /* \"contracts/JumpRateModel.sol\":1657:1673  baseRatePerBlock */\n  0x01\n    /* \"contracts/JumpRateModel.sol\":1657:1707  baseRatePerBlock = baseRatePerYear / blocksPerYear */\n  sstore\n    /* \"contracts/JumpRateModel.sol\":1738:1771  multiplierPerYear / blocksPerYear */\n  tag_8\n    /* \"contracts/JumpRateModel.sol\":541:548  2102400 */\n  0x201480\n    /* \"contracts/JumpRateModel.sol\":1738:1755  multiplierPerYear */\n  dup5\n    /* \"contracts/JumpRateModel.sol\":1738:1771  multiplierPerYear / blocksPerYear */\n  tag_7\n  jump\t// in\ntag_8:\n    /* \"contracts/JumpRateModel.sol\":1717:1735  multiplierPerBlock */\n  0x00\n    /* \"contracts/JumpRateModel.sol\":1717:1771  multiplierPerBlock = multiplierPerYear / blocksPerYear */\n  sstore\n    /* \"contracts/JumpRateModel.sol\":1806:1843  jumpMultiplierPerYear / blocksPerYear */\n  tag_9\n    /* \"contracts/JumpRateModel.sol\":541:548  2102400 */\n  0x201480\n    /* \"contracts/JumpRateModel.sol\":1806:1827  jumpMultiplierPerYear */\n  dup4\n    /* \"contracts/JumpRateModel.sol\":1806:1843  jumpMultiplierPerYear / blocksPerYear */\n  tag_7\n  jump\t// in\ntag_9:\n    /* \"contracts/JumpRateModel.sol\":1781:1803  jumpMultiplierPerBlock */\n  0x02\n    /* \"contracts/JumpRateModel.sol\":1781:1843  jumpMultiplierPerBlock = jumpMultiplierPerYear / blocksPerYear */\n  dup2\n  swap1\n  sstore\n    /* \"contracts/JumpRateModel.sol\":1853:1857  kink */\n  0x03\n    /* \"contracts/JumpRateModel.sol\":1853:1865  kink = kink_ */\n  dup3\n  swap1\n  sstore\n    /* \"contracts/JumpRateModel.sol\":1899:1915  baseRatePerBlock */\n  sload(0x01)\n  0x00\n    /* \"contracts/JumpRateModel.sol\":1917:1935  multiplierPerBlock */\n  sload\n    /* \"contracts/JumpRateModel.sol\":1881:1966  NewInterestParams(baseRatePerBlock, multiplierPerBlock, jumpMultiplierPerBlock, kink) */\n  0x40\n  dup1\n  mload\n    /* \"#utility.yul\":840:865   */\n  swap3\n  dup4\n  mstore\n    /* \"#utility.yul\":896:898   */\n  0x20\n    /* \"#utility.yul\":881:899   */\n  dup4\n  add\n    /* \"#utility.yul\":874:908   */\n  swap2\n  swap1\n  swap2\n  mstore\n    /* \"#utility.yul\":924:942   */\n  dup2\n  add\n    /* \"#utility.yul\":917:951   */\n  swap2\n  swap1\n  swap2\n  mstore\n    /* \"#utility.yul\":982:984   */\n  0x60\n    /* \"#utility.yul\":967:985   */\n  dup2\n  add\n    /* \"#utility.yul\":960:994   */\n  dup3\n  swap1\n  mstore\n    /* \"contracts/JumpRateModel.sol\":1881:1966  NewInterestParams(baseRatePerBlock, multiplierPerBlock, jumpMultiplierPerBlock, kink) */\n  0x6960ab234c7ef4b0c9197100f5393cfcde7c453ac910a27bd2000aa1dd4c068d\n  swap1\n    /* \"#utility.yul\":827:830   */\n  0x80\n    /* \"#utility.yul\":812:831   */\n  add\n    /* \"contracts/JumpRateModel.sol\":1881:1966  NewInterestParams(baseRatePerBlock, multiplierPerBlock, jumpMultiplierPerBlock, kink) */\n  mload(0x40)\n  dup1\n  swap2\n  sub\n  swap1\n  log1\n    /* \"contracts/JumpRateModel.sol\":1542:1973  constructor(uint baseRatePerYear, uint multiplierPerYear, uint jumpMultiplierPerYear, uint kink_) public {... */\n  pop\n  pop\n  pop\n  pop\n    /* \"contracts/JumpRateModel.sol\":177:4344  contract JumpRateModel is InterestRateModel {... */\n  jump(tag_13)\n    /* \"#utility.yul\":14:382   */\ntag_3:\n    /* \"#utility.yul\":111:117   */\n  0x00\n    /* \"#utility.yul\":119:125   */\n  dup1\n    /* \"#utility.yul\":127:133   */\n  0x00\n    /* \"#utility.yul\":135:141   */\n  dup1\n    /* \"#utility.yul\":188:191   */\n  0x80\n    /* \"#utility.yul\":176:185   */\n  dup6\n    /* \"#utility.yul\":167:174   */\n  dup8\n    /* \"#utility.yul\":163:186   */\n  sub\n    /* \"#utility.yul\":159:192   */\n  slt\n    /* \"#utility.yul\":156:209   */\n  iszero\n  tag_15\n  jumpi\n    /* \"#utility.yul\":205:206   */\n  0x00\n    /* \"#utility.yul\":202:203   */\n  dup1\n    /* \"#utility.yul\":195:207   */\n  revert\n    /* \"#utility.yul\":156:209   */\ntag_15:\n  pop\n  pop\n    /* \"#utility.yul\":228:244   */\n  dup3\n  mload\n    /* \"#utility.yul\":284:286   */\n  0x20\n    /* \"#utility.yul\":269:287   */\n  dup5\n  add\n    /* \"#utility.yul\":263:288   */\n  mload\n    /* \"#utility.yul\":328:330   */\n  0x40\n    /* \"#utility.yul\":313:331   */\n  dup6\n  add\n    /* \"#utility.yul\":307:332   */\n  mload\n    /* \"#utility.yul\":372:374   */\n  0x60\n    /* \"#utility.yul\":357:375   */\n  swap1\n  swap6\n  add\n    /* \"#utility.yul\":351:376   */\n  mload\n    /* \"#utility.yul\":228:244   */\n  swap2\n  swap7\n    /* \"#utility.yul\":263:288   */\n  swap1\n  swap6\n  pop\n    /* \"#utility.yul\":351:376   */\n  swap1\n  swap3\n  pop\n    /* \"#utility.yul\":14:382   */\n  swap1\n  pop\n  jump\t// out\n    /* \"#utility.yul\":387:604   */\ntag_7:\n    /* \"#utility.yul\":427:428   */\n  0x00\n    /* \"#utility.yul\":453:454   */\n  dup3\n    /* \"#utility.yul\":443:575   */\n  tag_17\n  jumpi\n    /* \"#utility.yul\":497:507   */\n  0x4e487b71\n    /* \"#utility.yul\":492:495   */\n  0xe0\n    /* \"#utility.yul\":488:508   */\n  shl\n    /* \"#utility.yul\":485:486   */\n  0x00\n    /* \"#utility.yul\":478:509   */\n  mstore\n    /* \"#utility.yul\":532:536   */\n  0x12\n    /* \"#utility.yul\":529:530   */\n  0x04\n    /* \"#utility.yul\":522:537   */\n  mstore\n    /* \"#utility.yul\":560:564   */\n  0x24\n    /* \"#utility.yul\":557:558   */\n  0x00\n    /* \"#utility.yul\":550:565   */\n  revert\n    /* \"#utility.yul\":443:575   */\ntag_17:\n  pop\n    /* \"#utility.yul\":589:598   */\n  div\n  swap1\n    /* \"#utility.yul\":387:604   */\n  jump\t// out\n    /* \"#utility.yul\":609:1000   */\ntag_13:\n    /* \"contracts/JumpRateModel.sol\":177:4344  contract JumpRateModel is InterestRateModel {... */\n  dataSize(sub_0)\n  dup1\n  dataOffset(sub_0)\n  0x00\n  codecopy\n  0x00\n  return\nstop\n\nsub_0: assembly {\n        /* \"contracts/JumpRateModel.sol\":177:4344  contract JumpRateModel is InterestRateModel {... */\n      mstore(0x40, 0x80)\n      callvalue\n      dup1\n      iszero\n      tag_1\n      jumpi\n      0x00\n      dup1\n      revert\n    tag_1:\n      pop\n      jumpi(tag_2, lt(calldatasize, 0x04))\n      shr(0xe0, calldataload(0x00))\n      dup1\n      0xa385fb96\n      gt\n      tag_12\n      jumpi\n      dup1\n      0xa385fb96\n      eq\n      tag_7\n      jumpi\n      dup1\n      0xb8168816\n      eq\n      tag_8\n      jumpi\n      dup1\n      0xb9f9850a\n      eq\n      tag_9\n      jumpi\n      dup1\n      0xf14039de\n      eq\n      tag_10\n      jumpi\n      dup1\n      0xfd2da339\n      eq\n      tag_11\n      jumpi\n      0x00\n      dup1\n      revert\n    tag_12:\n      dup1\n      0x15f24053\n      eq\n      tag_3\n      jumpi\n      dup1\n      0x2191f92a\n      eq\n      tag_4\n      jumpi\n      dup1\n      0x6e71e2d8\n      eq\n      tag_5\n      jumpi\n      dup1\n      0x8726bb89\n      eq\n      tag_6\n      jumpi\n    tag_2:\n      0x00\n      dup1\n      revert\n        /* \"contracts/JumpRateModel.sol\":3013:3516  function getBorrowRate(uint cash, uint borrows, uint reserves) override public view returns (uint) {... */\n    tag_3:\n      tag_13\n      tag_14\n      calldatasize\n      0x04\n      tag_15\n      jump\t// in\n    tag_14:\n      tag_16\n      jump\t// in\n    tag_13:\n      mload(0x40)\n        /* \"#utility.yul\":481:506   */\n      swap1\n      dup2\n      mstore\n        /* \"#utility.yul\":469:471   */\n      0x20\n        /* \"#utility.yul\":454:472   */\n      add\n        /* \"contracts/JumpRateModel.sol\":3013:3516  function getBorrowRate(uint cash, uint borrows, uint reserves) override public view returns (uint) {... */\n    tag_17:\n      mload(0x40)\n      dup1\n      swap2\n      sub\n      swap1\n      return\n        /* \"contracts/InterestRateModel.sol\":275:322  bool public constant isInterestRateModel = true */\n    tag_4:\n      tag_19\n        /* \"contracts/InterestRateModel.sol\":318:322  true */\n      0x01\n        /* \"contracts/InterestRateModel.sol\":275:322  bool public constant isInterestRateModel = true */\n      dup2\n      jump\n    tag_19:\n      mload(0x40)\n        /* \"#utility.yul\":682:696   */\n      swap1\n      iszero\n        /* \"#utility.yul\":675:697   */\n      iszero\n        /* \"#utility.yul\":657:698   */\n      dup2\n      mstore\n        /* \"#utility.yul\":645:647   */\n      0x20\n        /* \"#utility.yul\":630:648   */\n      add\n        /* \"contracts/InterestRateModel.sol\":275:322  bool public constant isInterestRateModel = true */\n      tag_17\n        /* \"#utility.yul\":517:704   */\n      jump\n        /* \"contracts/JumpRateModel.sol\":2354:2634  function utilizationRate(uint cash, uint borrows, uint reserves) public pure returns (uint) {... */\n    tag_5:\n      tag_13\n      tag_24\n      calldatasize\n      0x04\n      tag_15\n      jump\t// in\n    tag_24:\n      tag_25\n      jump\t// in\n        /* \"contracts/JumpRateModel.sol\":663:693  uint public multiplierPerBlock */\n    tag_6:\n      tag_13\n      sload(0x00)\n      dup2\n      jump\n        /* \"contracts/JumpRateModel.sol\":504:548  uint public constant blocksPerYear = 2102400 */\n    tag_7:\n      tag_13\n        /* \"contracts/JumpRateModel.sol\":541:548  2102400 */\n      0x201480\n        /* \"contracts/JumpRateModel.sol\":504:548  uint public constant blocksPerYear = 2102400 */\n      dup2\n      jump\n        /* \"contracts/JumpRateModel.sol\":3929:4342  function getSupplyRate(uint cash, uint borrows, uint reserves, uint reserveFactorMantissa) override public view returns (uint) {... */\n    tag_8:\n      tag_13\n      tag_34\n      calldatasize\n      0x04\n      tag_35\n      jump\t// in\n    tag_34:\n      tag_36\n      jump\t// in\n        /* \"contracts/JumpRateModel.sol\":939:973  uint public jumpMultiplierPerBlock */\n    tag_9:\n      tag_13\n      sload(0x02)\n      dup2\n      jump\n        /* \"contracts/JumpRateModel.sol\":806:834  uint public baseRatePerBlock */\n    tag_10:\n      tag_13\n      sload(0x01)\n      dup2\n      jump\n        /* \"contracts/JumpRateModel.sol\":1073:1089  uint public kink */\n    tag_11:\n      tag_13\n      sload(0x03)\n      dup2\n      jump\n        /* \"contracts/JumpRateModel.sol\":3013:3516  function getBorrowRate(uint cash, uint borrows, uint reserves) override public view returns (uint) {... */\n    tag_16:\n        /* \"contracts/JumpRateModel.sol\":3106:3110  uint */\n      0x00\n        /* \"contracts/JumpRateModel.sol\":3122:3131  uint util */\n      dup1\n        /* \"contracts/JumpRateModel.sol\":3134:3174  utilizationRate(cash, borrows, reserves) */\n      tag_48\n        /* \"contracts/JumpRateModel.sol\":3150:3154  cash */\n      dup6\n        /* \"contracts/JumpRateModel.sol\":3156:3163  borrows */\n      dup6\n        /* \"contracts/JumpRateModel.sol\":3165:3173  reserves */\n      dup6\n        /* \"contracts/JumpRateModel.sol\":3134:3149  utilizationRate */\n      tag_25\n        /* \"contracts/JumpRateModel.sol\":3134:3174  utilizationRate(cash, borrows, reserves) */\n      jump\t// in\n    tag_48:\n        /* \"contracts/JumpRateModel.sol\":3122:3174  uint util = utilizationRate(cash, borrows, reserves) */\n      swap1\n      pop\n        /* \"contracts/JumpRateModel.sol\":3197:3201  kink */\n      sload(0x03)\n        /* \"contracts/JumpRateModel.sol\":3189:3193  util */\n      dup2\n        /* \"contracts/JumpRateModel.sol\":3189:3201  util <= kink */\n      gt\n        /* \"contracts/JumpRateModel.sol\":3185:3510  if (util <= kink) {... */\n      tag_49\n      jumpi\n        /* \"contracts/JumpRateModel.sol\":3261:3277  baseRatePerBlock */\n      sload(0x01)\n        /* \"contracts/JumpRateModel.sol\":377:381  1e18 */\n      0x0de0b6b3a7640000\n        /* \"contracts/JumpRateModel.sol\":3232:3250  multiplierPerBlock */\n      sload(0x00)\n        /* \"contracts/JumpRateModel.sol\":3225:3229  util */\n      dup4\n        /* \"contracts/JumpRateModel.sol\":3225:3250  util * multiplierPerBlock */\n      tag_50\n      swap2\n      swap1\n      tag_51\n      jump\t// in\n    tag_50:\n        /* \"contracts/JumpRateModel.sol\":3225:3257  util * multiplierPerBlock / BASE */\n      tag_52\n      swap2\n      swap1\n      tag_53\n      jump\t// in\n    tag_52:\n        /* \"contracts/JumpRateModel.sol\":3224:3277  (util * multiplierPerBlock / BASE) + baseRatePerBlock */\n      tag_54\n      swap2\n      swap1\n      tag_55\n      jump\t// in\n    tag_54:\n        /* \"contracts/JumpRateModel.sol\":3217:3277  return (util * multiplierPerBlock / BASE) + baseRatePerBlock */\n      swap2\n      pop\n      pop\n      jump(tag_47)\n        /* \"contracts/JumpRateModel.sol\":3185:3510  if (util <= kink) {... */\n    tag_49:\n        /* \"contracts/JumpRateModel.sol\":3308:3323  uint normalRate */\n      0x00\n        /* \"contracts/JumpRateModel.sol\":3363:3379  baseRatePerBlock */\n      sload(0x01)\n        /* \"contracts/JumpRateModel.sol\":377:381  1e18 */\n      0x0de0b6b3a7640000\n        /* \"contracts/JumpRateModel.sol\":3334:3352  multiplierPerBlock */\n      sload(0x00)\n        /* \"contracts/JumpRateModel.sol\":3327:3331  kink */\n      sload(0x03)\n        /* \"contracts/JumpRateModel.sol\":3327:3352  kink * multiplierPerBlock */\n      tag_57\n      swap2\n      swap1\n      tag_51\n      jump\t// in\n    tag_57:\n        /* \"contracts/JumpRateModel.sol\":3327:3359  kink * multiplierPerBlock / BASE */\n      tag_58\n      swap2\n      swap1\n      tag_53\n      jump\t// in\n    tag_58:\n        /* \"contracts/JumpRateModel.sol\":3326:3379  (kink * multiplierPerBlock / BASE) + baseRatePerBlock */\n      tag_59\n      swap2\n      swap1\n      tag_55\n      jump\t// in\n    tag_59:\n        /* \"contracts/JumpRateModel.sol\":3308:3379  uint normalRate = (kink * multiplierPerBlock / BASE) + baseRatePerBlock */\n      swap1\n      pop\n        /* \"contracts/JumpRateModel.sol\":3393:3408  uint excessUtil */\n      0x00\n        /* \"contracts/JumpRateModel.sol\":3418:3422  kink */\n      sload(0x03)\n        /* \"contracts/JumpRateModel.sol\":3411:3415  util */\n      dup4\n        /* \"contracts/JumpRateModel.sol\":3411:3422  util - kink */\n      tag_60\n      swap2\n      swap1\n      tag_61\n      jump\t// in\n    tag_60:\n        /* \"contracts/JumpRateModel.sol\":3393:3422  uint excessUtil = util - kink */\n      swap1\n      pop\n        /* \"contracts/JumpRateModel.sol\":3489:3499  normalRate */\n      dup2\n        /* \"contracts/JumpRateModel.sol\":377:381  1e18 */\n      0x0de0b6b3a7640000\n        /* \"contracts/JumpRateModel.sol\":3457:3479  jumpMultiplierPerBlock */\n      sload(0x02)\n        /* \"contracts/JumpRateModel.sol\":3444:3454  excessUtil */\n      dup4\n        /* \"contracts/JumpRateModel.sol\":3444:3479  excessUtil * jumpMultiplierPerBlock */\n      tag_62\n      swap2\n      swap1\n      tag_51\n      jump\t// in\n    tag_62:\n        /* \"contracts/JumpRateModel.sol\":3444:3485  excessUtil * jumpMultiplierPerBlock/ BASE */\n      tag_63\n      swap2\n      swap1\n      tag_53\n      jump\t// in\n    tag_63:\n        /* \"contracts/JumpRateModel.sol\":3443:3499  (excessUtil * jumpMultiplierPerBlock/ BASE) + normalRate */\n      tag_64\n      swap2\n      swap1\n      tag_55\n      jump\t// in\n    tag_64:\n        /* \"contracts/JumpRateModel.sol\":3436:3499  return (excessUtil * jumpMultiplierPerBlock/ BASE) + normalRate */\n      swap4\n      pop\n      pop\n      pop\n      pop\n        /* \"contracts/JumpRateModel.sol\":3013:3516  function getBorrowRate(uint cash, uint borrows, uint reserves) override public view returns (uint) {... */\n    tag_47:\n      swap4\n      swap3\n      pop\n      pop\n      pop\n      jump\t// out\n        /* \"contracts/JumpRateModel.sol\":2354:2634  function utilizationRate(uint cash, uint borrows, uint reserves) public pure returns (uint) {... */\n    tag_25:\n        /* \"contracts/JumpRateModel.sol\":2440:2444  uint */\n      0x00\n        /* \"contracts/JumpRateModel.sol\":2519:2526  borrows */\n      dup3\n        /* \"contracts/JumpRateModel.sol\":2530:2531  0 */\n      0x00\n        /* \"contracts/JumpRateModel.sol\":2519:2531  borrows == 0 */\n      sub\n        /* \"contracts/JumpRateModel.sol\":2515:2566  if (borrows == 0) {... */\n      tag_66\n      jumpi\n      pop\n        /* \"contracts/JumpRateModel.sol\":2554:2555  0 */\n      0x00\n        /* \"contracts/JumpRateModel.sol\":2547:2555  return 0 */\n      jump(tag_47)\n        /* \"contracts/JumpRateModel.sol\":2515:2566  if (borrows == 0) {... */\n    tag_66:\n        /* \"contracts/JumpRateModel.sol\":2618:2626  reserves */\n      dup2\n        /* \"contracts/JumpRateModel.sol\":2601:2615  cash + borrows */\n      tag_67\n        /* \"contracts/JumpRateModel.sol\":2608:2615  borrows */\n      dup5\n        /* \"contracts/JumpRateModel.sol\":2601:2605  cash */\n      dup7\n        /* \"contracts/JumpRateModel.sol\":2601:2615  cash + borrows */\n      tag_55\n      jump\t// in\n    tag_67:\n        /* \"contracts/JumpRateModel.sol\":2601:2626  cash + borrows - reserves */\n      tag_68\n      swap2\n      swap1\n      tag_61\n      jump\t// in\n    tag_68:\n        /* \"contracts/JumpRateModel.sol\":2583:2597  borrows * BASE */\n      tag_69\n        /* \"contracts/JumpRateModel.sol\":377:381  1e18 */\n      0x0de0b6b3a7640000\n        /* \"contracts/JumpRateModel.sol\":2583:2590  borrows */\n      dup6\n        /* \"contracts/JumpRateModel.sol\":2583:2597  borrows * BASE */\n      tag_51\n      jump\t// in\n    tag_69:\n        /* \"contracts/JumpRateModel.sol\":2583:2627  borrows * BASE / (cash + borrows - reserves) */\n      tag_70\n      swap2\n      swap1\n      tag_53\n      jump\t// in\n    tag_70:\n        /* \"contracts/JumpRateModel.sol\":2576:2627  return borrows * BASE / (cash + borrows - reserves) */\n      swap5\n        /* \"contracts/JumpRateModel.sol\":2354:2634  function utilizationRate(uint cash, uint borrows, uint reserves) public pure returns (uint) {... */\n      swap4\n      pop\n      pop\n      pop\n      pop\n      jump\t// out\n        /* \"contracts/JumpRateModel.sol\":3929:4342  function getSupplyRate(uint cash, uint borrows, uint reserves, uint reserveFactorMantissa) override public view returns (uint) {... */\n    tag_36:\n        /* \"contracts/JumpRateModel.sol\":4050:4054  uint */\n      0x00\n      dup1\n        /* \"contracts/JumpRateModel.sol\":4095:4123  BASE - reserveFactorMantissa */\n      tag_72\n        /* \"contracts/JumpRateModel.sol\":4102:4123  reserveFactorMantissa */\n      dup4\n        /* \"contracts/JumpRateModel.sol\":377:381  1e18 */\n      0x0de0b6b3a7640000\n        /* \"contracts/JumpRateModel.sol\":4095:4123  BASE - reserveFactorMantissa */\n      tag_61\n      jump\t// in\n    tag_72:\n        /* \"contracts/JumpRateModel.sol\":4066:4123  uint oneMinusReserveFactor = BASE - reserveFactorMantissa */\n      swap1\n      pop\n        /* \"contracts/JumpRateModel.sol\":4133:4148  uint borrowRate */\n      0x00\n        /* \"contracts/JumpRateModel.sol\":4151:4189  getBorrowRate(cash, borrows, reserves) */\n      tag_73\n        /* \"contracts/JumpRateModel.sol\":4165:4169  cash */\n      dup8\n        /* \"contracts/JumpRateModel.sol\":4171:4178  borrows */\n      dup8\n        /* \"contracts/JumpRateModel.sol\":4180:4188  reserves */\n      dup8\n        /* \"contracts/JumpRateModel.sol\":4151:4164  getBorrowRate */\n      tag_16\n        /* \"contracts/JumpRateModel.sol\":4151:4189  getBorrowRate(cash, borrows, reserves) */\n      jump\t// in\n    tag_73:\n        /* \"contracts/JumpRateModel.sol\":4133:4189  uint borrowRate = getBorrowRate(cash, borrows, reserves) */\n      swap1\n      pop\n        /* \"contracts/JumpRateModel.sol\":4199:4214  uint rateToPool */\n      0x00\n        /* \"contracts/JumpRateModel.sol\":377:381  1e18 */\n      0x0de0b6b3a7640000\n        /* \"contracts/JumpRateModel.sol\":4217:4251  borrowRate * oneMinusReserveFactor */\n      tag_74\n        /* \"contracts/JumpRateModel.sol\":4230:4251  oneMinusReserveFactor */\n      dup5\n        /* \"contracts/JumpRateModel.sol\":4133:4189  uint borrowRate = getBorrowRate(cash, borrows, reserves) */\n      dup5\n        /* \"contracts/JumpRateModel.sol\":4217:4251  borrowRate * oneMinusReserveFactor */\n      tag_51\n      jump\t// in\n    tag_74:\n        /* \"contracts/JumpRateModel.sol\":4217:4258  borrowRate * oneMinusReserveFactor / BASE */\n      tag_75\n      swap2\n      swap1\n      tag_53\n      jump\t// in\n    tag_75:\n        /* \"contracts/JumpRateModel.sol\":4199:4258  uint rateToPool = borrowRate * oneMinusReserveFactor / BASE */\n      swap1\n      pop\n        /* \"contracts/JumpRateModel.sol\":377:381  1e18 */\n      0x0de0b6b3a7640000\n        /* \"contracts/JumpRateModel.sol\":4318:4328  rateToPool */\n      dup2\n        /* \"contracts/JumpRateModel.sol\":4275:4315  utilizationRate(cash, borrows, reserves) */\n      tag_76\n        /* \"contracts/JumpRateModel.sol\":4291:4295  cash */\n      dup11\n        /* \"contracts/JumpRateModel.sol\":4297:4304  borrows */\n      dup11\n        /* \"contracts/JumpRateModel.sol\":4306:4314  reserves */\n      dup11\n        /* \"contracts/JumpRateModel.sol\":4275:4290  utilizationRate */\n      tag_25\n        /* \"contracts/JumpRateModel.sol\":4275:4315  utilizationRate(cash, borrows, reserves) */\n      jump\t// in\n    tag_76:\n        /* \"contracts/JumpRateModel.sol\":4275:4328  utilizationRate(cash, borrows, reserves) * rateToPool */\n      tag_77\n      swap2\n      swap1\n      tag_51\n      jump\t// in\n    tag_77:\n        /* \"contracts/JumpRateModel.sol\":4275:4335  utilizationRate(cash, borrows, reserves) * rateToPool / BASE */\n      tag_78\n      swap2\n      swap1\n      tag_53\n      jump\t// in\n    tag_78:\n        /* \"contracts/JumpRateModel.sol\":4268:4335  return utilizationRate(cash, borrows, reserves) * rateToPool / BASE */\n      swap9\n        /* \"contracts/JumpRateModel.sol\":3929:4342  function getSupplyRate(uint cash, uint borrows, uint reserves, uint reserveFactorMantissa) override public view returns (uint) {... */\n      swap8\n      pop\n      pop\n      pop\n      pop\n      pop\n      pop\n      pop\n      pop\n      jump\t// out\n        /* \"#utility.yul\":14:330   */\n    tag_15:\n        /* \"#utility.yul\":91:97   */\n      0x00\n        /* \"#utility.yul\":99:105   */\n      dup1\n        /* \"#utility.yul\":107:113   */\n      0x00\n        /* \"#utility.yul\":160:162   */\n      0x60\n        /* \"#utility.yul\":148:157   */\n      dup5\n        /* \"#utility.yul\":139:146   */\n      dup7\n        /* \"#utility.yul\":135:158   */\n      sub\n        /* \"#utility.yul\":131:163   */\n      slt\n        /* \"#utility.yul\":128:180   */\n      iszero\n      tag_82\n      jumpi\n        /* \"#utility.yul\":176:177   */\n      0x00\n        /* \"#utility.yul\":173:174   */\n      dup1\n        /* \"#utility.yul\":166:178   */\n      revert\n        /* \"#utility.yul\":128:180   */\n    tag_82:\n      pop\n      pop\n        /* \"#utility.yul\":199:222   */\n      dup2\n      calldataload\n      swap4\n        /* \"#utility.yul\":269:271   */\n      0x20\n        /* \"#utility.yul\":254:272   */\n      dup4\n      add\n        /* \"#utility.yul\":241:273   */\n      calldataload\n      swap4\n      pop\n        /* \"#utility.yul\":320:322   */\n      0x40\n        /* \"#utility.yul\":305:323   */\n      swap1\n      swap3\n      add\n        /* \"#utility.yul\":292:324   */\n      calldataload\n      swap2\n        /* \"#utility.yul\":14:330   */\n      swap1\n      pop\n      jump\t// out\n        /* \"#utility.yul\":709:1094   */\n    tag_35:\n        /* \"#utility.yul\":795:801   */\n      0x00\n        /* \"#utility.yul\":803:809   */\n      dup1\n        /* \"#utility.yul\":811:817   */\n      0x00\n        /* \"#utility.yul\":819:825   */\n      dup1\n        /* \"#utility.yul\":872:875   */\n      0x80\n        /* \"#utility.yul\":860:869   */\n      dup6\n        /* \"#utility.yul\":851:858   */\n      dup8\n        /* \"#utility.yul\":847:870   */\n      sub\n        /* \"#utility.yul\":843:876   */\n      slt\n        /* \"#utility.yul\":840:893   */\n      iszero\n      tag_86\n      jumpi\n        /* \"#utility.yul\":889:890   */\n      0x00\n        /* \"#utility.yul\":886:887   */\n      dup1\n        /* \"#utility.yul\":879:891   */\n      revert\n        /* \"#utility.yul\":840:893   */\n    tag_86:\n      pop\n      pop\n        /* \"#utility.yul\":912:935   */\n      dup3\n      calldataload\n      swap5\n        /* \"#utility.yul\":982:984   */\n      0x20\n        /* \"#utility.yul\":967:985   */\n      dup5\n      add\n        /* \"#utility.yul\":954:986   */\n      calldataload\n      swap5\n      pop\n        /* \"#utility.yul\":1033:1035   */\n      0x40\n        /* \"#utility.yul\":1018:1036   */\n      dup5\n      add\n        /* \"#utility.yul\":1005:1037   */\n      calldataload\n      swap4\n        /* \"#utility.yul\":1084:1086   */\n      0x60\n        /* \"#utility.yul\":1069:1087   */\n      add\n        /* \"#utility.yul\":1056:1088   */\n      calldataload\n      swap3\n      pop\n        /* \"#utility.yul\":709:1094   */\n      swap1\n      pop\n      jump\t// out\n        /* \"#utility.yul\":1099:1226   */\n    tag_79:\n        /* \"#utility.yul\":1160:1170   */\n      0x4e487b71\n        /* \"#utility.yul\":1155:1158   */\n      0xe0\n        /* \"#utility.yul\":1151:1171   */\n      shl\n        /* \"#utility.yul\":1148:1149   */\n      0x00\n        /* \"#utility.yul\":1141:1172   */\n      mstore\n        /* \"#utility.yul\":1191:1195   */\n      0x11\n        /* \"#utility.yul\":1188:1189   */\n      0x04\n        /* \"#utility.yul\":1181:1196   */\n      mstore\n        /* \"#utility.yul\":1215:1219   */\n      0x24\n        /* \"#utility.yul\":1212:1213   */\n      0x00\n        /* \"#utility.yul\":1205:1220   */\n      revert\n        /* \"#utility.yul\":1231:1399   */\n    tag_51:\n        /* \"#utility.yul\":1304:1313   */\n      dup1\n      dup3\n      mul\n        /* \"#utility.yul\":1335:1344   */\n      dup2\n      iszero\n        /* \"#utility.yul\":1352:1367   */\n      dup3\n      dup3\n      div\n        /* \"#utility.yul\":1346:1368   */\n      dup5\n      eq\n        /* \"#utility.yul\":1332:1369   */\n      or\n        /* \"#utility.yul\":1322:1393   */\n      tag_90\n      jumpi\n        /* \"#utility.yul\":1373:1391   */\n      tag_90\n      tag_79\n      jump\t// in\n    tag_90:\n        /* \"#utility.yul\":1231:1399   */\n      swap3\n      swap2\n      pop\n      pop\n      jump\t// out\n        /* \"#utility.yul\":1404:1621   */\n    tag_53:\n        /* \"#utility.yul\":1444:1445   */\n      0x00\n        /* \"#utility.yul\":1470:1471   */\n      dup3\n        /* \"#utility.yul\":1460:1592   */\n      tag_92\n      jumpi\n        /* \"#utility.yul\":1514:1524   */\n      0x4e487b71\n        /* \"#utility.yul\":1509:1512   */\n      0xe0\n        /* \"#utility.yul\":1505:1525   */\n      shl\n        /* \"#utility.yul\":1502:1503   */\n      0x00\n        /* \"#utility.yul\":1495:1526   */\n      mstore\n        /* \"#utility.yul\":1549:1553   */\n      0x12\n        /* \"#utility.yul\":1546:1547   */\n      0x04\n        /* \"#utility.yul\":1539:1554   */\n      mstore\n        /* \"#utility.yul\":1577:1581   */\n      0x24\n        /* \"#utility.yul\":1574:1575   */\n      0x00\n        /* \"#utility.yul\":1567:1582   */\n      revert\n        /* \"#utility.yul\":1460:1592   */\n    tag_92:\n      pop\n        /* \"#utility.yul\":1606:1615   */\n      div\n      swap1\n        /* \"#utility.yul\":1404:1621   */\n      jump\t// out\n        /* \"#utility.yul\":1626:1751   */\n    tag_55:\n        /* \"#utility.yul\":1691:1700   */\n      dup1\n      dup3\n      add\n        /* \"#utility.yul\":1712:1722   */\n      dup1\n      dup3\n      gt\n        /* \"#utility.yul\":1709:1745   */\n      iszero\n      tag_90\n      jumpi\n        /* \"#utility.yul\":1725:1743   */\n      tag_90\n      tag_79\n      jump\t// in\n        /* \"#utility.yul\":1756:1884   */\n    tag_61:\n        /* \"#utility.yul\":1823:1832   */\n      dup2\n      dup2\n      sub\n        /* \"#utility.yul\":1844:1855   */\n      dup2\n      dup2\n      gt\n        /* \"#utility.yul\":1841:1878   */\n      iszero\n      tag_90\n      jumpi\n        /* \"#utility.yul\":1858:1876   */\n      tag_90\n      tag_79\n      jump\t// in\n\n    auxdata: 0xa264697066735822122044b7cceea466eafc5acd516dec267ce7dc0f1d8df7a66efd0696d00f150b59ea64736f6c63430008120033\n}\n",
				"bytecode": {
					"linkReferences": {},
					"object": "608060405234801561001057600080fd5b506040516104f33803806104f383398101604081905261002f916100be565b61003c62201480856100f4565b60015561004c62201480846100f4565b60005561005c62201480836100f4565b60028190556003829055600154600054604080519283526020830191909152810191909152606081018290527f6960ab234c7ef4b0c9197100f5393cfcde7c453ac910a27bd2000aa1dd4c068d9060800160405180910390a150505050610116565b600080600080608085870312156100d457600080fd5b505082516020840151604085015160609095015191969095509092509050565b60008261011157634e487b7160e01b600052601260045260246000fd5b500490565b6103ce806101256000396000f3fe608060405234801561001057600080fd5b50600436106100935760003560e01c8063a385fb9611610066578063a385fb96146100f2578063b8168816146100fc578063b9f9850a1461010f578063f14039de14610118578063fd2da3391461012157600080fd5b806315f24053146100985780632191f92a146100be5780636e71e2d8146100d65780638726bb89146100e9575b600080fd5b6100ab6100a63660046102bf565b61012a565b6040519081526020015b60405180910390f35b6100c6600181565b60405190151581526020016100b5565b6100ab6100e43660046102bf565b6101f8565b6100ab60005481565b6100ab6220148081565b6100ab61010a3660046102eb565b610243565b6100ab60025481565b6100ab60015481565b6100ab60035481565b6000806101388585856101f8565b9050600354811161017957600154670de0b6b3a76400006000548361015d9190610333565b6101679190610350565b6101719190610372565b9150506101f1565b6000600154670de0b6b3a76400006000546003546101979190610333565b6101a19190610350565b6101ab9190610372565b90506000600354836101bd9190610385565b905081670de0b6b3a7640000600254836101d79190610333565b6101e19190610350565b6101eb9190610372565b93505050505b9392505050565b60008260000361020a575060006101f1565b816102158486610372565b61021f9190610385565b610231670de0b6b3a764000085610333565b61023b9190610350565b949350505050565b60008061025883670de0b6b3a7640000610385565b9050600061026787878761012a565b90506000670de0b6b3a764000061027e8484610333565b6102889190610350565b9050670de0b6b3a76400008161029f8a8a8a6101f8565b6102a99190610333565b6102b39190610350565b98975050505050505050565b6000806000606084860312156102d457600080fd5b505081359360208301359350604090920135919050565b6000806000806080858703121561030157600080fd5b5050823594602084013594506040840135936060013592509050565b634e487b7160e01b600052601160045260246000fd5b808202811582820484141761034a5761034a61031d565b92915050565b60008261036d57634e487b7160e01b600052601260045260246000fd5b500490565b8082018082111561034a5761034a61031d565b8181038181111561034a5761034a61031d56fea264697066735822122044b7cceea466eafc5acd516dec267ce7dc0f1d8df7a66efd0696d00f150b59ea64736f6c63430008120033",
					"opcodes": "PUSH1 0x80 PUSH1 0x40 MSTORE CALLVALUE DUP1 ISZERO PUSH2 0x10 JUMPI PUSH1 0x0 DUP1 REVERT JUMPDEST POP PUSH1 0x40 MLOAD PUSH2 0x4F3 CODESIZE SUB DUP1 PUSH2 0x4F3 DUP4 CODECOPY DUP2 ADD PUSH1 0x40 DUP2 SWAP1 MSTORE PUSH2 0x2F SWAP2 PUSH2 0xBE JUMP JUMPDEST PUSH2 0x3C PUSH3 0x201480 DUP6 PUSH2 0xF4 JUMP JUMPDEST PUSH1 0x1 SSTORE PUSH2 0x4C PUSH3 0x201480 DUP5 PUSH2 0xF4 JUMP JUMPDEST PUSH1 0x0 SSTORE PUSH2 0x5C PUSH3 0x201480 DUP4 PUSH2 0xF4 JUMP JUMPDEST PUSH1 0x2 DUP2 SWAP1 SSTORE PUSH1 0x3 DUP3 SWAP1 SSTORE PUSH1 0x1 SLOAD PUSH1 0x0 SLOAD PUSH1 0x40 DUP1 MLOAD SWAP3 DUP4 MSTORE PUSH1 0x20 DUP4 ADD SWAP2 SWAP1 SWAP2 MSTORE DUP2 ADD SWAP2 SWAP1 SWAP2 MSTORE PUSH1 0x60 DUP2 ADD DUP3 SWAP1 MSTORE PUSH32 0x6960AB234C7EF4B0C9197100F5393CFCDE7C453AC910A27BD2000AA1DD4C068D SWAP1 PUSH1 0x80 ADD PUSH1 0x40 MLOAD DUP1 SWAP2 SUB SWAP1 LOG1 POP POP POP POP PUSH2 0x116 JUMP JUMPDEST PUSH1 0x0 DUP1 PUSH1 0x0 DUP1 PUSH1 0x80 DUP6 DUP8 SUB SLT ISZERO PUSH2 0xD4 JUMPI PUSH1 0x0 DUP1 REVERT JUMPDEST POP POP DUP3 MLOAD PUSH1 0x20 DUP5 ADD MLOAD PUSH1 0x40 DUP6 ADD MLOAD PUSH1 0x60 SWAP1 SWAP6 ADD MLOAD SWAP2 SWAP7 SWAP1 SWAP6 POP SWAP1 SWAP3 POP SWAP1 POP JUMP JUMPDEST PUSH1 0x0 DUP3 PUSH2 0x111 JUMPI PUSH4 0x4E487B71 PUSH1 0xE0 SHL PUSH1 0x0 MSTORE PUSH1 0x12 PUSH1 0x4 MSTORE PUSH1 0x24 PUSH1 0x0 REVERT JUMPDEST POP DIV SWAP1 JUMP JUMPDEST PUSH2 0x3CE DUP1 PUSH2 0x125 PUSH1 0x0 CODECOPY PUSH1 0x0 RETURN INVALID PUSH1 0x80 PUSH1 0x40 MSTORE CALLVALUE DUP1 ISZERO PUSH2 0x10 JUMPI PUSH1 0x0 DUP1 REVERT JUMPDEST POP PUSH1 0x4 CALLDATASIZE LT PUSH2 0x93 JUMPI PUSH1 0x0 CALLDATALOAD PUSH1 0xE0 SHR DUP1 PUSH4 0xA385FB96 GT PUSH2 0x66 JUMPI DUP1 PUSH4 0xA385FB96 EQ PUSH2 0xF2 JUMPI DUP1 PUSH4 0xB8168816 EQ PUSH2 0xFC JUMPI DUP1 PUSH4 0xB9F9850A EQ PUSH2 0x10F JUMPI DUP1 PUSH4 0xF14039DE EQ PUSH2 0x118 JUMPI DUP1 PUSH4 0xFD2DA339 EQ PUSH2 0x121 JUMPI PUSH1 0x0 DUP1 REVERT JUMPDEST DUP1 PUSH4 0x15F24053 EQ PUSH2 0x98 JUMPI DUP1 PUSH4 0x2191F92A EQ PUSH2 0xBE JUMPI DUP1 PUSH4 0x6E71E2D8 EQ PUSH2 0xD6 JUMPI DUP1 PUSH4 0x8726BB89 EQ PUSH2 0xE9 JUMPI JUMPDEST PUSH1 0x0 DUP1 REVERT JUMPDEST PUSH2 0xAB PUSH2 0xA6 CALLDATASIZE PUSH1 0x4 PUSH2 0x2BF JUMP JUMPDEST PUSH2 0x12A JUMP JUMPDEST PUSH1 0x40 MLOAD SWAP1 DUP2 MSTORE PUSH1 0x20 ADD JUMPDEST PUSH1 0x40 MLOAD DUP1 SWAP2 SUB SWAP1 RETURN JUMPDEST PUSH2 0xC6 PUSH1 0x1 DUP2 JUMP JUMPDEST PUSH1 0x40 MLOAD SWAP1 ISZERO ISZERO DUP2 MSTORE PUSH1 0x20 ADD PUSH2 0xB5 JUMP JUMPDEST PUSH2 0xAB PUSH2 0xE4 CALLDATASIZE PUSH1 0x4 PUSH2 0x2BF JUMP JUMPDEST PUSH2 0x1F8 JUMP JUMPDEST PUSH2 0xAB PUSH1 0x0 SLOAD DUP2 JUMP JUMPDEST PUSH2 0xAB PUSH3 0x201480 DUP2 JUMP JUMPDEST PUSH2 0xAB PUSH2 0x10A CALLDATASIZE PUSH1 0x4 PUSH2 0x2EB JUMP JUMPDEST PUSH2 0x243 JUMP JUMPDEST PUSH2 0xAB PUSH1 0x2 SLOAD DUP2 JUMP JUMPDEST PUSH2 0xAB PUSH1 0x1 SLOAD DUP2 JUMP JUMPDEST PUSH2 0xAB PUSH1 0x3 SLOAD DUP2 JUMP JUMPDEST PUSH1 0x0 DUP1 PUSH2 0x138 DUP6 DUP6 DUP6 PUSH2 0x1F8 JUMP JUMPDEST SWAP1 POP PUSH1 0x3 SLOAD DUP2 GT PUSH2 0x179 JUMPI PUSH1 0x1 SLOAD PUSH8 0xDE0B6B3A7640000 PUSH1 0x0 SLOAD DUP4 PUSH2 0x15D SWAP2 SWAP1 PUSH2 0x333 JUMP JUMPDEST PUSH2 0x167 SWAP2 SWAP1 PUSH2 0x350 JUMP JUMPDEST PUSH2 0x171 SWAP2 SWAP1 PUSH2 0x372 JUMP JUMPDEST SWAP2 POP POP PUSH2 0x1F1 JUMP JUMPDEST PUSH1 0x0 PUSH1 0x1 SLOAD PUSH8 0xDE0B6B3A7640000 PUSH1 0x0 SLOAD PUSH1 0x3 SLOAD PUSH2 0x197 SWAP2 SWAP1 PUSH2 0x333 JUMP JUMPDEST PUSH2 0x1A1 SWAP2 SWAP1 PUSH2 0x350 JUMP JUMPDEST PUSH2 0x1AB SWAP2 SWAP1 PUSH2 0x372 JUMP JUMPDEST SWAP1 POP PUSH1 0x0 PUSH1 0x3 SLOAD DUP4 PUSH2 0x1BD SWAP2 SWAP1 PUSH2 0x385 JUMP JUMPDEST SWAP1 POP DUP2 PUSH8 0xDE0B6B3A7640000 PUSH1 0x2 SLOAD DUP4 PUSH2 0x1D7 SWAP2 SWAP1 PUSH2 0x333 JUMP JUMPDEST PUSH2 0x1E1 SWAP2 SWAP1 PUSH2 0x350 JUMP JUMPDEST PUSH2 0x1EB SWAP2 SWAP1 PUSH2 0x372 JUMP JUMPDEST SWAP4 POP POP POP POP JUMPDEST SWAP4 SWAP3 POP POP POP JUMP JUMPDEST PUSH1 0x0 DUP3 PUSH1 0x0 SUB PUSH2 0x20A JUMPI POP PUSH1 0x0 PUSH2 0x1F1 JUMP JUMPDEST DUP2 PUSH2 0x215 DUP5 DUP7 PUSH2 0x372 JUMP JUMPDEST PUSH2 0x21F SWAP2 SWAP1 PUSH2 0x385 JUMP JUMPDEST PUSH2 0x231 PUSH8 0xDE0B6B3A7640000 DUP6 PUSH2 0x333 JUMP JUMPDEST PUSH2 0x23B SWAP2 SWAP1 PUSH2 0x350 JUMP JUMPDEST SWAP5 SWAP4 POP POP POP POP JUMP JUMPDEST PUSH1 0x0 DUP1 PUSH2 0x258 DUP4 PUSH8 0xDE0B6B3A7640000 PUSH2 0x385 JUMP JUMPDEST SWAP1 POP PUSH1 0x0 PUSH2 0x267 DUP8 DUP8 DUP8 PUSH2 0x12A JUMP JUMPDEST SWAP1 POP PUSH1 0x0 PUSH8 0xDE0B6B3A7640000 PUSH2 0x27E DUP5 DUP5 PUSH2 0x333 JUMP JUMPDEST PUSH2 0x288 SWAP2 SWAP1 PUSH2 0x350 JUMP JUMPDEST SWAP1 POP PUSH8 0xDE0B6B3A7640000 DUP2 PUSH2 0x29F DUP11 DUP11 DUP11 PUSH2 0x1F8 JUMP JUMPDEST PUSH2 0x2A9 SWAP2 SWAP1 PUSH2 0x333 JUMP JUMPDEST PUSH2 0x2B3 SWAP2 SWAP1 PUSH2 0x350 JUMP JUMPDEST SWAP9 SWAP8 POP POP POP POP POP POP POP POP JUMP JUMPDEST PUSH1 0x0 DUP1 PUSH1 0x0 PUSH1 0x60 DUP5 DUP7 SUB SLT ISZERO PUSH2 0x2D4 JUMPI PUSH1 0x0 DUP1 REVERT JUMPDEST POP POP DUP2 CALLDATALOAD SWAP4 PUSH1 0x20 DUP4 ADD CALLDATALOAD SWAP4 POP PUSH1 0x40 SWAP1 SWAP3 ADD CALLDATALOAD SWAP2 SWAP1 POP JUMP JUMPDEST PUSH1 0x0 DUP1 PUSH1 0x0 DUP1 PUSH1 0x80 DUP6 DUP8 SUB SLT ISZERO PUSH2 0x301 JUMPI PUSH1 0x0 DUP1 REVERT JUMPDEST POP POP DUP3 CALLDATALOAD SWAP5 PUSH1 0x20 DUP5 ADD CALLDATALOAD SWAP5 POP PUSH1 0x40 DUP5 ADD CALLDATALOAD SWAP4 PUSH1 0x60 ADD CALLDATALOAD SWAP3 POP SWAP1 POP JUMP JUMPDEST PUSH4 0x4E487B71 PUSH1 0xE0 SHL PUSH1 0x0 MSTORE PUSH1 0x11 PUSH1 0x4 MSTORE PUSH1 0x24 PUSH1 0x0 REVERT JUMPDEST DUP1 DUP3 MUL DUP2 ISZERO DUP3 DUP3 DIV DUP5 EQ OR PUSH2 0x34A JUMPI PUSH2 0x34A PUSH2 0x31D JUMP JUMPDEST SWAP3 SWAP2 POP POP JUMP JUMPDEST PUSH1 0x0 DUP3 PUSH2 0x36D JUMPI PUSH4 0x4E487B71 PUSH1 0xE0 SHL PUSH1 0x0 MSTORE PUSH1 0x12 PUSH1 0x4 MSTORE PUSH1 0x24 PUSH1 0x0 REVERT JUMPDEST POP DIV SWAP1 JUMP JUMPDEST DUP1 DUP3 ADD DUP1 DUP3 GT ISZERO PUSH2 0x34A JUMPI PUSH2 0x34A PUSH2 0x31D JUMP JUMPDEST DUP2 DUP2 SUB DUP2 DUP2 GT ISZERO PUSH2 0x34A JUMPI PUSH2 0x34A PUSH2 0x31D JUMP INVALID LOG2 PUSH5 0x6970667358 0x22 SLT KECCAK256 PREVRANDAO 0xB7 0xCC 0xEE LOG4 PUSH7 0xEAFC5ACD516DEC 0x26 PUSH29 0xE7DC0F1D8DF7A66EFD0696D00F150B59EA64736F6C6343000812003300 "
				},
				"gasEstimates": {
					"creation": {
						"codeDepositCost": "194800",
						"executionCost": "infinite",
						"totalCost": "infinite"
					},
					"external": {
						"baseRatePerBlock()": "2350",
						"blocksPerYear()": "184",
						"getBorrowRate(uint256,uint256,uint256)": "infinite",
						"getSupplyRate(uint256,uint256,uint256,uint256)": "infinite",
						"isInterestRateModel()": "224",
						"jumpMultiplierPerBlock()": "2328",
						"kink()": "2372",
						"multiplierPerBlock()": "2351",
						"utilizationRate(uint256,uint256,uint256)": "infinite"
					}
				},
				"methodIdentifiers": {
					"baseRatePerBlock()": "f14039de",
					"blocksPerYear()": "a385fb96",
					"getBorrowRate(uint256,uint256,uint256)": "15f24053",
					"getSupplyRate(uint256,uint256,uint256,uint256)": "b8168816",
					"isInterestRateModel()": "2191f92a",
					"jumpMultiplierPerBlock()": "b9f9850a",
					"kink()": "fd2da339",
					"multiplierPerBlock()": "8726bb89",
					"utilizationRate(uint256,uint256,uint256)": "6e71e2d8"
				}
			},
			"storageLayout": {
				"storage": [
					{
						"astId": 59,
						"contract": "contracts/JumpRateModel.sol:JumpRateModel",
						"label": "multiplierPerBlock",
						"offset": 0,
						"slot": "0",
						"type": "t_uint256"
					},
					{
						"astId": 62,
						"contract": "contracts/JumpRateModel.sol:JumpRateModel",
						"label": "baseRatePerBlock",
						"offset": 0,
						"slot": "1",
						"type": "t_uint256"
					},
					{
						"astId": 65,
						"contract": "contracts/JumpRateModel.sol:JumpRateModel",
						"label": "jumpMultiplierPerBlock",
						"offset": 0,
						"slot": "2",
						"type": "t_uint256"
					},
					{
						"astId": 68,
						"contract": "contracts/JumpRateModel.sol:JumpRateModel",
						"label": "kink",
						"offset": 0,
						"slot": "3",
						"type": "t_uint256"
					}
				],
				"types": {
					"t_uint256": {
						"encoding": "inplace",
						"label": "uint256",
						"numberOfBytes": "32"
					}
				}
			},
			"userdoc": {
				"kind": "user",
				"methods": {
					"baseRatePerBlock()": {
						"notice": "The base interest rate which is the y-intercept when utilization rate is 0"
					},
					"blocksPerYear()": {
						"notice": "The approximate number of blocks per year that is assumed by the interest rate model"
					},
					"constructor": {
						"notice": "Construct an interest rate model"
					},
					"getBorrowRate(uint256,uint256,uint256)": {
						"notice": "Calculates the current borrow rate per block, with the error code expected by the market"
					},
					"getSupplyRate(uint256,uint256,uint256,uint256)": {
						"notice": "Calculates the current supply rate per block"
					},
					"isInterestRateModel()": {
						"notice": "Indicator that this is an InterestRateModel contract (for inspection)"
					},
					"jumpMultiplierPerBlock()": {
						"notice": "The multiplierPerBlock after hitting a specified utilization point"
					},
					"kink()": {
						"notice": "The utilization point at which the jump multiplier is applied"
					},
					"multiplierPerBlock()": {
						"notice": "The multiplier of utilization rate that gives the slope of the interest rate"
					},
					"utilizationRate(uint256,uint256,uint256)": {
						"notice": "Calculates the utilization rate of the market: `borrows / (cash + borrows - reserves)`"
					}
				},
				"version": 1
			}
		}
	}
}