{
	"contracts/ErrorReporter.sol": {
		"TokenErrorReporter": {
			"abi": [
				{
					"inputs": [],
					"name": "AcceptAdminPendingAdminCheck",
					"type": "error"
				},
				{
					"inputs": [
						{
							"internalType": "uint256",
							"name": "actualAddAmount",
							"type": "uint256"
						}
					],
					"name": "AddReservesFactorFreshCheck",
					"type": "error"
				},
				{
					"inputs": [],
					"name": "BorrowCashNotAvailable",
					"type": "error"
				},
				{
					"inputs": [
						{
							"internalType": "uint256",
							"name": "errorCode",
							"type": "uint256"
						}
					],
					"name": "BorrowComptrollerRejection",
					"type": "error"
				},
				{
					"inputs": [],
					"name": "BorrowFreshnessCheck",
					"type": "error"
				},
				{
					"inputs": [
						{
							"internalType": "uint256",
							"name": "errorCode",
							"type": "uint256"
						}
					],
					"name": "LiquidateAccrueBorrowInterestFailed",
					"type": "error"
				},
				{
					"inputs": [
						{
							"internalType": "uint256",
							"name": "errorCode",
							"type": "uint256"
						}
					],
					"name": "LiquidateAccrueCollateralInterestFailed",
					"type": "error"
				},
				{
					"inputs": [],
					"name": "LiquidateCloseAmountIsUintMax",
					"type": "error"
				},
				{
					"inputs": [],
					"name": "LiquidateCloseAmountIsZero",
					"type": "error"
				},
				{
					"inputs": [],
					"name": "LiquidateCollateralFreshnessCheck",
					"type": "error"
				},
				{
					"inputs": [
						{
							"internalType": "uint256",
							"name": "errorCode",
							"type": "uint256"
						}
					],
					"name": "LiquidateComptrollerRejection",
					"type": "error"
				},
				{
					"inputs": [],
					"name": "LiquidateFreshnessCheck",
					"type": "error"
				},
				{
					"inputs": [],
					"name": "LiquidateLiquidatorIsBorrower",
					"type": "error"
				},
				{
					"inputs": [
						{
							"internalType": "uint256",
							"name": "errorCode",
							"type": "uint256"
						}
					],
					"name": "LiquidateRepayBorrowFreshFailed",
					"type": "error"
				},
				{
					"inputs": [
						{
							"internalType": "uint256",
							"name": "errorCode",
							"type": "uint256"
						}
					],
					"name": "LiquidateSeizeComptrollerRejection",
					"type": "error"
				},
				{
					"inputs": [],
					"name": "LiquidateSeizeLiquidatorIsBorrower",
					"type": "error"
				},
				{
					"inputs": [
						{
							"internalType": "uint256",
							"name": "errorCode",
							"type": "uint256"
						}
					],
					"name": "MintComptrollerRejection",
					"type": "error"
				},
				{
					"inputs": [],
					"name": "MintFreshnessCheck",
					"type": "error"
				},
				{
					"inputs": [
						{
							"internalType": "uint256",
							"name": "errorCode",
							"type": "uint256"
						}
					],
					"name": "RedeemComptrollerRejection",
					"type": "error"
				},
				{
					"inputs": [],
					"name": "RedeemFreshnessCheck",
					"type": "error"
				},
				{
					"inputs": [],
					"name": "RedeemTransferOutNotPossible",
					"type": "error"
				},
				{
					"inputs": [],
					"name": "ReduceReservesAdminCheck",
					"type": "error"
				},
				{
					"inputs": [],
					"name": "ReduceReservesCashNotAvailable",
					"type": "error"
				},
				{
					"inputs": [],
					"name": "ReduceReservesCashValidation",
					"type": "error"
				},
				{
					"inputs": [],
					"name": "ReduceReservesFreshCheck",
					"type": "error"
				},
				{
					"inputs": [
						{
							"internalType": "uint256",
							"name": "errorCode",
							"type": "uint256"
						}
					],
					"name": "RepayBorrowComptrollerRejection",
					"type": "error"
				},
				{
					"inputs": [],
					"name": "RepayBorrowFreshnessCheck",
					"type": "error"
				},
				{
					"inputs": [],
					"name": "SetComptrollerOwnerCheck",
					"type": "error"
				},
				{
					"inputs": [],
					"name": "SetInterestRateModelFreshCheck",
					"type": "error"
				},
				{
					"inputs": [],
					"name": "SetInterestRateModelOwnerCheck",
					"type": "error"
				},
				{
					"inputs": [],
					"name": "SetPendingAdminOwnerCheck",
					"type": "error"
				},
				{
					"inputs": [],
					"name": "SetReserveFactorAdminCheck",
					"type": "error"
				},
				{
					"inputs": [],
					"name": "SetReserveFactorBoundsCheck",
					"type": "error"
				},
				{
					"inputs": [],
					"name": "SetReserveFactorFreshCheck",
					"type": "error"
				},
				{
					"inputs": [
						{
							"internalType": "uint256",
							"name": "errorCode",
							"type": "uint256"
						}
					],
					"name": "TransferComptrollerRejection",
					"type": "error"
				},
				{
					"inputs": [],
					"name": "TransferNotAllowed",
					"type": "error"
				},
				{
					"inputs": [],
					"name": "TransferNotEnough",
					"type": "error"
				},
				{
					"inputs": [],
					"name": "TransferTooMuch",
					"type": "error"
				},
				{
					"inputs": [],
					"name": "NO_ERROR",
					"outputs": [
						{
							"internalType": "uint256",
							"name": "",
							"type": "uint256"
						}
					],
					"stateMutability": "view",
					"type": "function"
				}
			],
			"devdoc": {
				"kind": "dev",
				"methods": {},
				"version": 1
			},
			"evm": {
				"assembly": "    /* \"contracts/ErrorReporter.sol\":2350:4198  contract TokenErrorReporter {... */\n  mstore(0x40, 0x80)\n  callvalue\n  dup1\n  iszero\n  tag_1\n  jumpi\n  0x00\n  dup1\n  revert\ntag_1:\n  pop\n  dataSize(sub_0)\n  dup1\n  dataOffset(sub_0)\n  0x00\n  codecopy\n  0x00\n  return\nstop\n\nsub_0: assembly {\n        /* \"contracts/ErrorReporter.sol\":2350:4198  contract TokenErrorReporter {... */\n      mstore(0x40, 0x80)\n      callvalue\n      dup1\n      iszero\n      tag_1\n      jumpi\n      0x00\n      dup1\n      revert\n    tag_1:\n      pop\n      jumpi(tag_2, lt(calldatasize, 0x04))\n      shr(0xe0, calldataload(0x00))\n      dup1\n      0x69ab3250\n      eq\n      tag_3\n      jumpi\n    tag_2:\n      0x00\n      dup1\n      revert\n        /* \"contracts/ErrorReporter.sol\":2384:2417  uint public constant NO_ERROR = 0 */\n    tag_3:\n      tag_4\n        /* \"contracts/ErrorReporter.sol\":2416:2417  0 */\n      0x00\n        /* \"contracts/ErrorReporter.sol\":2384:2417  uint public constant NO_ERROR = 0 */\n      dup2\n      jump\n    tag_4:\n      mload(0x40)\n        /* \"#utility.yul\":160:185   */\n      swap1\n      dup2\n      mstore\n        /* \"#utility.yul\":148:150   */\n      0x20\n        /* \"#utility.yul\":133:151   */\n      add\n        /* \"contracts/ErrorReporter.sol\":2384:2417  uint public constant NO_ERROR = 0 */\n      mload(0x40)\n      dup1\n      swap2\n      sub\n      swap1\n      return\n\n    auxdata: 0xa26469706673582212204ffdca617bd6c00531235b4ba88f8164d6170e2745402b52d1906f3ba88d57c764736f6c634300080a0033\n}\n",
				"bytecode": {
					"linkReferences": {},
					"object": "6080604052348015600f57600080fd5b50607c8061001e6000396000f3fe6080604052348015600f57600080fd5b506004361060285760003560e01c806369ab325014602d575b600080fd5b6034600081565b60405190815260200160405180910390f3fea26469706673582212204ffdca617bd6c00531235b4ba88f8164d6170e2745402b52d1906f3ba88d57c764736f6c634300080a0033",
					"opcodes": "PUSH1 0x80 PUSH1 0x40 MSTORE CALLVALUE DUP1 ISZERO PUSH1 0xF JUMPI PUSH1 0x0 DUP1 REVERT JUMPDEST POP PUSH1 0x7C DUP1 PUSH2 0x1E PUSH1 0x0 CODECOPY PUSH1 0x0 RETURN INVALID PUSH1 0x80 PUSH1 0x40 MSTORE CALLVALUE DUP1 ISZERO PUSH1 0xF JUMPI PUSH1 0x0 DUP1 REVERT JUMPDEST POP PUSH1 0x4 CALLDATASIZE LT PUSH1 0x28 JUMPI PUSH1 0x0 CALLDATALOAD PUSH1 0xE0 SHR DUP1 PUSH4 0x69AB3250 EQ PUSH1 0x2D JUMPI JUMPDEST PUSH1 0x0 DUP1 REVERT JUMPDEST PUSH1 0x34 PUSH1 0x0 DUP2 JUMP JUMPDEST PUSH1 0x40 MLOAD SWAP1 DUP2 MSTORE PUSH1 0x20 ADD PUSH1 0x40 MLOAD DUP1 SWAP2 SUB SWAP1 RETURN INVALID LOG2 PUSH5 0x6970667358 0x22 SLT KECCAK256 0x4F REVERT 0xCA PUSH2 0x7BD6 0xC0 SDIV BALANCE 0x23 JUMPDEST 0x4B 0xA8 DUP16 DUP2 PUSH5 0xD6170E2745 BLOCKHASH 0x2B MSTORE 0xD1 SWAP1 PUSH16 0x3BA88D57C764736F6C634300080A0033 "
				},
				"gasEstimates": {
					"creation": {
						"codeDepositCost": "24800",
						"executionCost": "75",
						"totalCost": "24875"
					},
					"external": {
						"NO_ERROR()": "161"
					}
				},
				"methodIdentifiers": {
					"NO_ERROR()": "69ab3250"
				}
			},
			"storageLayout": {
				"storage": [],
				"types": null
			},
			"userdoc": {
				"kind": "user",
				"methods": {},
				"version": 1
			}
		}
	}
}