{
	"contracts/CErc20Delegator.sol": {
		"CErc20Delegator": {
			"abi": [
				{
					"inputs": [
						{
							"internalType": "address",
							"name": "underlying_",
							"type": "address"
						},
						{
							"internalType": "contract ComptrollerInterface",
							"name": "comptroller_",
							"type": "address"
						},
						{
							"internalType": "contract InterestRateModel",
							"name": "interestRateModel_",
							"type": "address"
						},
						{
							"internalType": "uint256",
							"name": "initialExchangeRateMantissa_",
							"type": "uint256"
						},
						{
							"internalType": "string",
							"name": "name_",
							"type": "string"
						},
						{
							"internalType": "string",
							"name": "symbol_",
							"type": "string"
						},
						{
							"internalType": "uint8",
							"name": "decimals_",
							"type": "uint8"
						},
						{
							"internalType": "address payable",
							"name": "admin_",
							"type": "address"
						},
						{
							"internalType": "address",
							"name": "implementation_",
							"type": "address"
						},
						{
							"internalType": "bytes",
							"name": "becomeImplementationData",
							"type": "bytes"
						}
					],
					"stateMutability": "nonpayable",
					"type": "constructor"
				},
				{
					"anonymous": false,
					"inputs": [
						{
							"indexed": false,
							"internalType": "uint256",
							"name": "cashPrior",
							"type": "uint256"
						},
						{
							"indexed": false,
							"internalType": "uint256",
							"name": "interestAccumulated",
							"type": "uint256"
						},
						{
							"indexed": false,
							"internalType": "uint256",
							"name": "borrowIndex",
							"type": "uint256"
						},
						{
							"indexed": false,
							"internalType": "uint256",
							"name": "totalBorrows",
							"type": "uint256"
						}
					],
					"name": "AccrueInterest",
					"type": "event"
				},
				{
					"anonymous": false,
					"inputs": [
						{
							"indexed": true,
							"internalType": "address",
							"name": "owner",
							"type": "address"
						},
						{
							"indexed": true,
							"internalType": "address",
							"name": "spender",
							"type": "address"
						},
						{
							"indexed": false,
							"internalType": "uint256",
							"name": "amount",
							"type": "uint256"
						}
					],
					"name": "Approval",
					"type": "event"
				},
				{
					"anonymous": false,
					"inputs": [
						{
							"indexed": false,
							"internalType": "address",
							"name": "borrower",
							"type": "address"
						},
						{
							"indexed": false,
							"internalType": "uint256",
							"name": "borrowAmount",
							"type": "uint256"
						},
						{
							"indexed": false,
							"internalType": "uint256",
							"name": "accountBorrows",
							"type": "uint256"
						},
						{
							"indexed": false,
							"internalType": "uint256",
							"name": "totalBorrows",
							"type": "uint256"
						}
					],
					"name": "Borrow",
					"type": "event"
				},
				{
					"anonymous": false,
					"inputs": [
						{
							"indexed": false,
							"internalType": "address",
							"name": "liquidator",
							"type": "address"
						},
						{
							"indexed": false,
							"internalType": "address",
							"name": "borrower",
							"type": "address"
						},
						{
							"indexed": false,
							"internalType": "uint256",
							"name": "repayAmount",
							"type": "uint256"
						},
						{
							"indexed": false,
							"internalType": "address",
							"name": "cTokenCollateral",
							"type": "address"
						},
						{
							"indexed": false,
							"internalType": "uint256",
							"name": "seizeTokens",
							"type": "uint256"
						}
					],
					"name": "LiquidateBorrow",
					"type": "event"
				},
				{
					"anonymous": false,
					"inputs": [
						{
							"indexed": false,
							"internalType": "address",
							"name": "minter",
							"type": "address"
						},
						{
							"indexed": false,
							"internalType": "uint256",
							"name": "mintAmount",
							"type": "uint256"
						},
						{
							"indexed": false,
							"internalType": "uint256",
							"name": "mintTokens",
							"type": "uint256"
						}
					],
					"name": "Mint",
					"type": "event"
				},
				{
					"anonymous": false,
					"inputs": [
						{
							"indexed": false,
							"internalType": "address",
							"name": "oldAdmin",
							"type": "address"
						},
						{
							"indexed": false,
							"internalType": "address",
							"name": "newAdmin",
							"type": "address"
						}
					],
					"name": "NewAdmin",
					"type": "event"
				},
				{
					"anonymous": false,
					"inputs": [
						{
							"indexed": false,
							"internalType": "contract ComptrollerInterface",
							"name": "oldComptroller",
							"type": "address"
						},
						{
							"indexed": false,
							"internalType": "contract ComptrollerInterface",
							"name": "newComptroller",
							"type": "address"
						}
					],
					"name": "NewComptroller",
					"type": "event"
				},
				{
					"anonymous": false,
					"inputs": [
						{
							"indexed": false,
							"internalType": "address",
							"name": "oldImplementation",
							"type": "address"
						},
						{
							"indexed": false,
							"internalType": "address",
							"name": "newImplementation",
							"type": "address"
						}
					],
					"name": "NewImplementation",
					"type": "event"
				},
				{
					"anonymous": false,
					"inputs": [
						{
							"indexed": false,
							"internalType": "contract InterestRateModel",
							"name": "oldInterestRateModel",
							"type": "address"
						},
						{
							"indexed": false,
							"internalType": "contract InterestRateModel",
							"name": "newInterestRateModel",
							"type": "address"
						}
					],
					"name": "NewMarketInterestRateModel",
					"type": "event"
				},
				{
					"anonymous": false,
					"inputs": [
						{
							"indexed": false,
							"internalType": "address",
							"name": "oldPendingAdmin",
							"type": "address"
						},
						{
							"indexed": false,
							"internalType": "address",
							"name": "newPendingAdmin",
							"type": "address"
						}
					],
					"name": "NewPendingAdmin",
					"type": "event"
				},
				{
					"anonymous": false,
					"inputs": [
						{
							"indexed": false,
							"internalType": "uint256",
							"name": "oldReserveFactorMantissa",
							"type": "uint256"
						},
						{
							"indexed": false,
							"internalType": "uint256",
							"name": "newReserveFactorMantissa",
							"type": "uint256"
						}
					],
					"name": "NewReserveFactor",
					"type": "event"
				},
				{
					"anonymous": false,
					"inputs": [
						{
							"indexed": false,
							"internalType": "address",
							"name": "redeemer",
							"type": "address"
						},
						{
							"indexed": false,
							"internalType": "uint256",
							"name": "redeemAmount",
							"type": "uint256"
						},
						{
							"indexed": false,
							"internalType": "uint256",
							"name": "redeemTokens",
							"type": "uint256"
						}
					],
					"name": "Redeem",
					"type": "event"
				},
				{
					"anonymous": false,
					"inputs": [
						{
							"indexed": false,
							"internalType": "address",
							"name": "payer",
							"type": "address"
						},
						{
							"indexed": false,
							"internalType": "address",
							"name": "borrower",
							"type": "address"
						},
						{
							"indexed": false,
							"internalType": "uint256",
							"name": "repayAmount",
							"type": "uint256"
						},
						{
							"indexed": false,
							"internalType": "uint256",
							"name": "accountBorrows",
							"type": "uint256"
						},
						{
							"indexed": false,
							"internalType": "uint256",
							"name": "totalBorrows",
							"type": "uint256"
						}
					],
					"name": "RepayBorrow",
					"type": "event"
				},
				{
					"anonymous": false,
					"inputs": [
						{
							"indexed": false,
							"internalType": "address",
							"name": "benefactor",
							"type": "address"
						},
						{
							"indexed": false,
							"internalType": "uint256",
							"name": "addAmount",
							"type": "uint256"
						},
						{
							"indexed": false,
							"internalType": "uint256",
							"name": "newTotalReserves",
							"type": "uint256"
						}
					],
					"name": "ReservesAdded",
					"type": "event"
				},
				{
					"anonymous": false,
					"inputs": [
						{
							"indexed": false,
							"internalType": "address",
							"name": "admin",
							"type": "address"
						},
						{
							"indexed": false,
							"internalType": "uint256",
							"name": "reduceAmount",
							"type": "uint256"
						},
						{
							"indexed": false,
							"internalType": "uint256",
							"name": "newTotalReserves",
							"type": "uint256"
						}
					],
					"name": "ReservesReduced",
					"type": "event"
				},
				{
					"anonymous": false,
					"inputs": [
						{
							"indexed": true,
							"internalType": "address",
							"name": "from",
							"type": "address"
						},
						{
							"indexed": true,
							"internalType": "address",
							"name": "to",
							"type": "address"
						},
						{
							"indexed": false,
							"internalType": "uint256",
							"name": "amount",
							"type": "uint256"
						}
					],
					"name": "Transfer",
					"type": "event"
				},
				{
					"stateMutability": "payable",
					"type": "fallback"
				},
				{
					"inputs": [],
					"name": "_acceptAdmin",
					"outputs": [
						{
							"internalType": "uint256",
							"name": "",
							"type": "uint256"
						}
					],
					"stateMutability": "nonpayable",
					"type": "function"
				},
				{
					"inputs": [
						{
							"internalType": "uint256",
							"name": "addAmount",
							"type": "uint256"
						}
					],
					"name": "_addReserves",
					"outputs": [
						{
							"internalType": "uint256",
							"name": "",
							"type": "uint256"
						}
					],
					"stateMutability": "nonpayable",
					"type": "function"
				},
				{
					"inputs": [
						{
							"internalType": "uint256",
							"name": "reduceAmount",
							"type": "uint256"
						}
					],
					"name": "_reduceReserves",
					"outputs": [
						{
							"internalType": "uint256",
							"name": "",
							"type": "uint256"
						}
					],
					"stateMutability": "nonpayable",
					"type": "function"
				},
				{
					"inputs": [
						{
							"internalType": "contract ComptrollerInterface",
							"name": "newComptroller",
							"type": "address"
						}
					],
					"name": "_setComptroller",
					"outputs": [
						{
							"internalType": "uint256",
							"name": "",
							"type": "uint256"
						}
					],
					"stateMutability": "nonpayable",
					"type": "function"
				},
				{
					"inputs": [
						{
							"internalType": "address",
							"name": "implementation_",
							"type": "address"
						},
						{
							"internalType": "bool",
							"name": "allowResign",
							"type": "bool"
						},
						{
							"internalType": "bytes",
							"name": "becomeImplementationData",
							"type": "bytes"
						}
					],
					"name": "_setImplementation",
					"outputs": [],
					"stateMutability": "nonpayable",
					"type": "function"
				},
				{
					"inputs": [
						{
							"internalType": "contract InterestRateModel",
							"name": "newInterestRateModel",
							"type": "address"
						}
					],
					"name": "_setInterestRateModel",
					"outputs": [
						{
							"internalType": "uint256",
							"name": "",
							"type": "uint256"
						}
					],
					"stateMutability": "nonpayable",
					"type": "function"
				},
				{
					"inputs": [
						{
							"internalType": "address payable",
							"name": "newPendingAdmin",
							"type": "address"
						}
					],
					"name": "_setPendingAdmin",
					"outputs": [
						{
							"internalType": "uint256",
							"name": "",
							"type": "uint256"
						}
					],
					"stateMutability": "nonpayable",
					"type": "function"
				},
				{
					"inputs": [
						{
							"internalType": "uint256",
							"name": "newReserveFactorMantissa",
							"type": "uint256"
						}
					],
					"name": "_setReserveFactor",
					"outputs": [
						{
							"internalType": "uint256",
							"name": "",
							"type": "uint256"
						}
					],
					"stateMutability": "nonpayable",
					"type": "function"
				},
				{
					"inputs": [],
					"name": "accrualBlockNumber",
					"outputs": [
						{
							"internalType": "uint256",
							"name": "",
							"type": "uint256"
						}
					],
					"stateMutability": "view",
					"type": "function"
				},
				{
					"inputs": [],
					"name": "accrueInterest",
					"outputs": [
						{
							"internalType": "uint256",
							"name": "",
							"type": "uint256"
						}
					],
					"stateMutability": "nonpayable",
					"type": "function"
				},
				{
					"inputs": [],
					"name": "admin",
					"outputs": [
						{
							"internalType": "address payable",
							"name": "",
							"type": "address"
						}
					],
					"stateMutability": "view",
					"type": "function"
				},
				{
					"inputs": [
						{
							"internalType": "address",
							"name": "owner",
							"type": "address"
						},
						{
							"internalType": "address",
							"name": "spender",
							"type": "address"
						}
					],
					"name": "allowance",
					"outputs": [
						{
							"internalType": "uint256",
							"name": "",
							"type": "uint256"
						}
					],
					"stateMutability": "view",
					"type": "function"
				},
				{
					"inputs": [
						{
							"internalType": "address",
							"name": "spender",
							"type": "address"
						},
						{
							"internalType": "uint256",
							"name": "amount",
							"type": "uint256"
						}
					],
					"name": "approve",
					"outputs": [
						{
							"internalType": "bool",
							"name": "",
							"type": "bool"
						}
					],
					"stateMutability": "nonpayable",
					"type": "function"
				},
				{
					"inputs": [
						{
							"internalType": "address",
							"name": "owner",
							"type": "address"
						}
					],
					"name": "balanceOf",
					"outputs": [
						{
							"internalType": "uint256",
							"name": "",
							"type": "uint256"
						}
					],
					"stateMutability": "view",
					"type": "function"
				},
				{
					"inputs": [
						{
							"internalType": "address",
							"name": "owner",
							"type": "address"
						}
					],
					"name": "balanceOfUnderlying",
					"outputs": [
						{
							"internalType": "uint256",
							"name": "",
							"type": "uint256"
						}
					],
					"stateMutability": "nonpayable",
					"type": "function"
				},
				{
					"inputs": [
						{
							"internalType": "uint256",
							"name": "borrowAmount",
							"type": "uint256"
						}
					],
					"name": "borrow",
					"outputs": [
						{
							"internalType": "uint256",
							"name": "",
							"type": "uint256"
						}
					],
					"stateMutability": "nonpayable",
					"type": "function"
				},
				{
					"inputs": [
						{
							"internalType": "address",
							"name": "account",
							"type": "address"
						}
					],
					"name": "borrowBalanceCurrent",
					"outputs": [
						{
							"internalType": "uint256",
							"name": "",
							"type": "uint256"
						}
					],
					"stateMutability": "nonpayable",
					"type": "function"
				},
				{
					"inputs": [
						{
							"internalType": "address",
							"name": "account",
							"type": "address"
						}
					],
					"name": "borrowBalanceStored",
					"outputs": [
						{
							"internalType": "uint256",
							"name": "",
							"type": "uint256"
						}
					],
					"stateMutability": "view",
					"type": "function"
				},
				{
					"inputs": [],
					"name": "borrowIndex",
					"outputs": [
						{
							"internalType": "uint256",
							"name": "",
							"type": "uint256"
						}
					],
					"stateMutability": "view",
					"type": "function"
				},
				{
					"inputs": [],
					"name": "borrowRatePerBlock",
					"outputs": [
						{
							"internalType": "uint256",
							"name": "",
							"type": "uint256"
						}
					],
					"stateMutability": "view",
					"type": "function"
				},
				{
					"inputs": [],
					"name": "comptroller",
					"outputs": [
						{
							"internalType": "contract ComptrollerInterface",
							"name": "",
							"type": "address"
						}
					],
					"stateMutability": "view",
					"type": "function"
				},
				{
					"inputs": [],
					"name": "decimals",
					"outputs": [
						{
							"internalType": "uint8",
							"name": "",
							"type": "uint8"
						}
					],
					"stateMutability": "view",
					"type": "function"
				},
				{
					"inputs": [
						{
							"internalType": "bytes",
							"name": "data",
							"type": "bytes"
						}
					],
					"name": "delegateToImplementation",
					"outputs": [
						{
							"internalType": "bytes",
							"name": "",
							"type": "bytes"
						}
					],
					"stateMutability": "nonpayable",
					"type": "function"
				},
				{
					"inputs": [
						{
							"internalType": "bytes",
							"name": "data",
							"type": "bytes"
						}
					],
					"name": "delegateToViewImplementation",
					"outputs": [
						{
							"internalType": "bytes",
							"name": "",
							"type": "bytes"
						}
					],
					"stateMutability": "view",
					"type": "function"
				},
				{
					"inputs": [],
					"name": "exchangeRateCurrent",
					"outputs": [
						{
							"internalType": "uint256",
							"name": "",
							"type": "uint256"
						}
					],
					"stateMutability": "nonpayable",
					"type": "function"
				},
				{
					"inputs": [],
					"name": "exchangeRateStored",
					"outputs": [
						{
							"internalType": "uint256",
							"name": "",
							"type": "uint256"
						}
					],
					"stateMutability": "view",
					"type": "function"
				},
				{
					"inputs": [
						{
							"internalType": "address",
							"name": "account",
							"type": "address"
						}
					],
					"name": "getAccountSnapshot",
					"outputs": [
						{
							"internalType": "uint256",
							"name": "",
							"type": "uint256"
						},
						{
							"internalType": "uint256",
							"name": "",
							"type": "uint256"
						},
						{
							"internalType": "uint256",
							"name": "",
							"type": "uint256"
						},
						{
							"internalType": "uint256",
							"name": "",
							"type": "uint256"
						}
					],
					"stateMutability": "view",
					"type": "function"
				},
				{
					"inputs": [],
					"name": "getCash",
					"outputs": [
						{
							"internalType": "uint256",
							"name": "",
							"type": "uint256"
						}
					],
					"stateMutability": "view",
					"type": "function"
				},
				{
					"inputs": [],
					"name": "implementation",
					"outputs": [
						{
							"internalType": "address",
							"name": "",
							"type": "address"
						}
					],
					"stateMutability": "view",
					"type": "function"
				},
				{
					"inputs": [],
					"name": "interestRateModel",
					"outputs": [
						{
							"internalType": "contract InterestRateModel",
							"name": "",
							"type": "address"
						}
					],
					"stateMutability": "view",
					"type": "function"
				},
				{
					"inputs": [],
					"name": "isCToken",
					"outputs": [
						{
							"internalType": "bool",
							"name": "",
							"type": "bool"
						}
					],
					"stateMutability": "view",
					"type": "function"
				},
				{
					"inputs": [
						{
							"internalType": "address",
							"name": "borrower",
							"type": "address"
						},
						{
							"internalType": "uint256",
							"name": "repayAmount",
							"type": "uint256"
						},
						{
							"internalType": "contract CTokenInterface",
							"name": "cTokenCollateral",
							"type": "address"
						}
					],
					"name": "liquidateBorrow",
					"outputs": [
						{
							"internalType": "uint256",
							"name": "",
							"type": "uint256"
						}
					],
					"stateMutability": "nonpayable",
					"type": "function"
				},
				{
					"inputs": [
						{
							"internalType": "uint256",
							"name": "mintAmount",
							"type": "uint256"
						}
					],
					"name": "mint",
					"outputs": [
						{
							"internalType": "uint256",
							"name": "",
							"type": "uint256"
						}
					],
					"stateMutability": "nonpayable",
					"type": "function"
				},
				{
					"inputs": [],
					"name": "name",
					"outputs": [
						{
							"internalType": "string",
							"name": "",
							"type": "string"
						}
					],
					"stateMutability": "view",
					"type": "function"
				},
				{
					"inputs": [],
					"name": "pendingAdmin",
					"outputs": [
						{
							"internalType": "address payable",
							"name": "",
							"type": "address"
						}
					],
					"stateMutability": "view",
					"type": "function"
				},
				{
					"inputs": [],
					"name": "protocolSeizeShareMantissa",
					"outputs": [
						{
							"internalType": "uint256",
							"name": "",
							"type": "uint256"
						}
					],
					"stateMutability": "view",
					"type": "function"
				},
				{
					"inputs": [
						{
							"internalType": "uint256",
							"name": "redeemTokens",
							"type": "uint256"
						}
					],
					"name": "redeem",
					"outputs": [
						{
							"internalType": "uint256",
							"name": "",
							"type": "uint256"
						}
					],
					"stateMutability": "nonpayable",
					"type": "function"
				},
				{
					"inputs": [
						{
							"internalType": "uint256",
							"name": "redeemAmount",
							"type": "uint256"
						}
					],
					"name": "redeemUnderlying",
					"outputs": [
						{
							"internalType": "uint256",
							"name": "",
							"type": "uint256"
						}
					],
					"stateMutability": "nonpayable",
					"type": "function"
				},
				{
					"inputs": [
						{
							"internalType": "uint256",
							"name": "repayAmount",
							"type": "uint256"
						}
					],
					"name": "repayBorrow",
					"outputs": [
						{
							"internalType": "uint256",
							"name": "",
							"type": "uint256"
						}
					],
					"stateMutability": "nonpayable",
					"type": "function"
				},
				{
					"inputs": [
						{
							"internalType": "address",
							"name": "borrower",
							"type": "address"
						},
						{
							"internalType": "uint256",
							"name": "repayAmount",
							"type": "uint256"
						}
					],
					"name": "repayBorrowBehalf",
					"outputs": [
						{
							"internalType": "uint256",
							"name": "",
							"type": "uint256"
						}
					],
					"stateMutability": "nonpayable",
					"type": "function"
				},
				{
					"inputs": [],
					"name": "reserveFactorMantissa",
					"outputs": [
						{
							"internalType": "uint256",
							"name": "",
							"type": "uint256"
						}
					],
					"stateMutability": "view",
					"type": "function"
				},
				{
					"inputs": [
						{
							"internalType": "address",
							"name": "liquidator",
							"type": "address"
						},
						{
							"internalType": "address",
							"name": "borrower",
							"type": "address"
						},
						{
							"internalType": "uint256",
							"name": "seizeTokens",
							"type": "uint256"
						}
					],
					"name": "seize",
					"outputs": [
						{
							"internalType": "uint256",
							"name": "",
							"type": "uint256"
						}
					],
					"stateMutability": "nonpayable",
					"type": "function"
				},
				{
					"inputs": [],
					"name": "supplyRatePerBlock",
					"outputs": [
						{
							"internalType": "uint256",
							"name": "",
							"type": "uint256"
						}
					],
					"stateMutability": "view",
					"type": "function"
				},
				{
					"inputs": [
						{
							"internalType": "contract EIP20NonStandardInterface",
							"name": "token",
							"type": "address"
						}
					],
					"name": "sweepToken",
					"outputs": [],
					"stateMutability": "nonpayable",
					"type": "function"
				},
				{
					"inputs": [],
					"name": "symbol",
					"outputs": [
						{
							"internalType": "string",
							"name": "",
							"type": "string"
						}
					],
					"stateMutability": "view",
					"type": "function"
				},
				{
					"inputs": [],
					"name": "totalBorrows",
					"outputs": [
						{
							"internalType": "uint256",
							"name": "",
							"type": "uint256"
						}
					],
					"stateMutability": "view",
					"type": "function"
				},
				{
					"inputs": [],
					"name": "totalBorrowsCurrent",
					"outputs": [
						{
							"internalType": "uint256",
							"name": "",
							"type": "uint256"
						}
					],
					"stateMutability": "nonpayable",
					"type": "function"
				},
				{
					"inputs": [],
					"name": "totalReserves",
					"outputs": [
						{
							"internalType": "uint256",
							"name": "",
							"type": "uint256"
						}
					],
					"stateMutability": "view",
					"type": "function"
				},
				{
					"inputs": [],
					"name": "totalSupply",
					"outputs": [
						{
							"internalType": "uint256",
							"name": "",
							"type": "uint256"
						}
					],
					"stateMutability": "view",
					"type": "function"
				},
				{
					"inputs": [
						{
							"internalType": "address",
							"name": "dst",
							"type": "address"
						},
						{
							"internalType": "uint256",
							"name": "amount",
							"type": "uint256"
						}
					],
					"name": "transfer",
					"outputs": [
						{
							"internalType": "bool",
							"name": "",
							"type": "bool"
						}
					],
					"stateMutability": "nonpayable",
					"type": "function"
				},
				{
					"inputs": [
						{
							"internalType": "address",
							"name": "src",
							"type": "address"
						},
						{
							"internalType": "address",
							"name": "dst",
							"type": "address"
						},
						{
							"internalType": "uint256",
							"name": "amount",
							"type": "uint256"
						}
					],
					"name": "transferFrom",
					"outputs": [
						{
							"internalType": "bool",
							"name": "",
							"type": "bool"
						}
					],
					"stateMutability": "nonpayable",
					"type": "function"
				},
				{
					"inputs": [],
					"name": "underlying",
					"outputs": [
						{
							"internalType": "address",
							"name": "",
							"type": "address"
						}
					],
					"stateMutability": "view",
					"type": "function"
				}
			],
			"devdoc": {
				"author": "Compound",
				"kind": "dev",
				"methods": {
					"_acceptAdmin()": {
						"details": "Admin function for pending admin to accept role and update admin",
						"returns": {
							"_0": "uint 0=success, otherwise a failure (see ErrorReporter.sol for details)"
						}
					},
					"_addReserves(uint256)": {
						"params": {
							"addAmount": "Amount of reserves to add"
						},
						"returns": {
							"_0": "uint 0=success, otherwise a failure (see ErrorReporter.sol for details)"
						}
					},
					"_reduceReserves(uint256)": {
						"params": {
							"reduceAmount": "Amount of reduction to reserves"
						},
						"returns": {
							"_0": "uint 0=success, otherwise a failure (see ErrorReporter.sol for details)"
						}
					},
					"_setComptroller(address)": {
						"details": "Admin function to set a new comptroller",
						"returns": {
							"_0": "uint 0=success, otherwise a failure (see ErrorReporter.sol for details)"
						}
					},
					"_setImplementation(address,bool,bytes)": {
						"params": {
							"allowResign": "Flag to indicate whether to call _resignImplementation on the old implementation",
							"becomeImplementationData": "The encoded bytes data to be passed to _becomeImplementation",
							"implementation_": "The address of the new implementation for delegation"
						}
					},
					"_setInterestRateModel(address)": {
						"details": "Admin function to accrue interest and update the interest rate model",
						"params": {
							"newInterestRateModel": "the new interest rate model to use"
						},
						"returns": {
							"_0": "uint 0=success, otherwise a failure (see ErrorReporter.sol for details)"
						}
					},
					"_setPendingAdmin(address)": {
						"details": "Admin function to begin change of admin. The newPendingAdmin must call `_acceptAdmin` to finalize the transfer.",
						"params": {
							"newPendingAdmin": "New pending admin."
						},
						"returns": {
							"_0": "uint 0=success, otherwise a failure (see ErrorReporter.sol for details)"
						}
					},
					"_setReserveFactor(uint256)": {
						"details": "Admin function to accrue interest and set a new reserve factor",
						"returns": {
							"_0": "uint 0=success, otherwise a failure (see ErrorReporter.sol for details)"
						}
					},
					"accrueInterest()": {
						"details": "This calculates interest accrued from the last checkpointed block      up to the current block and writes new checkpoint to storage."
					},
					"allowance(address,address)": {
						"params": {
							"owner": "The address of the account which owns the tokens to be spent",
							"spender": "The address of the account which may transfer tokens"
						},
						"returns": {
							"_0": "The number of tokens allowed to be spent (-1 means infinite)"
						}
					},
					"approve(address,uint256)": {
						"details": "This will overwrite the approval amount for `spender`  and is subject to issues noted [here](https://eips.ethereum.org/EIPS/eip-20#approve)",
						"params": {
							"amount": "The number of tokens that are approved (-1 means infinite)",
							"spender": "The address of the account which may transfer tokens"
						},
						"returns": {
							"_0": "Whether or not the approval succeeded"
						}
					},
					"balanceOf(address)": {
						"params": {
							"owner": "The address of the account to query"
						},
						"returns": {
							"_0": "The number of tokens owned by `owner`"
						}
					},
					"balanceOfUnderlying(address)": {
						"details": "This also accrues interest in a transaction",
						"params": {
							"owner": "The address of the account to query"
						},
						"returns": {
							"_0": "The amount of underlying owned by `owner`"
						}
					},
					"borrow(uint256)": {
						"params": {
							"borrowAmount": "The amount of the underlying asset to borrow"
						},
						"returns": {
							"_0": "uint 0=success, otherwise a failure (see ErrorReporter.sol for details)"
						}
					},
					"borrowBalanceCurrent(address)": {
						"params": {
							"account": "The address whose balance should be calculated after updating borrowIndex"
						},
						"returns": {
							"_0": "The calculated balance"
						}
					},
					"borrowBalanceStored(address)": {
						"params": {
							"account": "The address whose balance should be calculated"
						},
						"returns": {
							"_0": "The calculated balance"
						}
					},
					"borrowRatePerBlock()": {
						"returns": {
							"_0": "The borrow interest rate per block, scaled by 1e18"
						}
					},
					"constructor": {
						"params": {
							"admin_": "Address of the administrator of this token",
							"becomeImplementationData": "The encoded args for becomeImplementation",
							"comptroller_": "The address of the Comptroller",
							"decimals_": "ERC-20 decimal precision of this token",
							"implementation_": "The address of the implementation the contract delegates to",
							"initialExchangeRateMantissa_": "The initial exchange rate, scaled by 1e18",
							"interestRateModel_": "The address of the interest rate model",
							"name_": "ERC-20 name of this token",
							"symbol_": "ERC-20 symbol of this token",
							"underlying_": "The address of the underlying asset"
						}
					},
					"delegateToImplementation(bytes)": {
						"details": "It returns to the external caller whatever the implementation returns or forwards reverts",
						"params": {
							"data": "The raw data to delegatecall"
						},
						"returns": {
							"_0": "The returned bytes from the delegatecall"
						}
					},
					"delegateToViewImplementation(bytes)": {
						"details": "It returns to the external caller whatever the implementation returns or forwards reverts  There are an additional 2 prefix uints from the wrapper returndata, which we ignore since we make an extra hop.",
						"params": {
							"data": "The raw data to delegatecall"
						},
						"returns": {
							"_0": "The returned bytes from the delegatecall"
						}
					},
					"exchangeRateCurrent()": {
						"returns": {
							"_0": "Calculated exchange rate scaled by 1e18"
						}
					},
					"exchangeRateStored()": {
						"details": "This function does not accrue interest before calculating the exchange rate",
						"returns": {
							"_0": "Calculated exchange rate scaled by 1e18"
						}
					},
					"getAccountSnapshot(address)": {
						"details": "This is used by comptroller to more efficiently perform liquidity checks.",
						"params": {
							"account": "Address of the account to snapshot"
						},
						"returns": {
							"_0": "(possible error, token balance, borrow balance, exchange rate mantissa)"
						}
					},
					"getCash()": {
						"returns": {
							"_0": "The quantity of underlying asset owned by this contract"
						}
					},
					"liquidateBorrow(address,uint256,address)": {
						"params": {
							"borrower": "The borrower of this cToken to be liquidated",
							"cTokenCollateral": "The market in which to seize collateral from the borrower",
							"repayAmount": "The amount of the underlying borrowed asset to repay"
						},
						"returns": {
							"_0": "uint 0=success, otherwise a failure (see ErrorReporter.sol for details)"
						}
					},
					"mint(uint256)": {
						"details": "Accrues interest whether or not the operation succeeds, unless reverted",
						"params": {
							"mintAmount": "The amount of the underlying asset to supply"
						},
						"returns": {
							"_0": "uint 0=success, otherwise a failure (see ErrorReporter.sol for details)"
						}
					},
					"redeem(uint256)": {
						"details": "Accrues interest whether or not the operation succeeds, unless reverted",
						"params": {
							"redeemTokens": "The number of cTokens to redeem into underlying"
						},
						"returns": {
							"_0": "uint 0=success, otherwise a failure (see ErrorReporter.sol for details)"
						}
					},
					"redeemUnderlying(uint256)": {
						"details": "Accrues interest whether or not the operation succeeds, unless reverted",
						"params": {
							"redeemAmount": "The amount of underlying to redeem"
						},
						"returns": {
							"_0": "uint 0=success, otherwise a failure (see ErrorReporter.sol for details)"
						}
					},
					"repayBorrow(uint256)": {
						"params": {
							"repayAmount": "The amount to repay, or -1 for the full outstanding amount"
						},
						"returns": {
							"_0": "uint 0=success, otherwise a failure (see ErrorReporter.sol for details)"
						}
					},
					"repayBorrowBehalf(address,uint256)": {
						"params": {
							"borrower": "the account with the debt being payed off",
							"repayAmount": "The amount to repay, or -1 for the full outstanding amount"
						},
						"returns": {
							"_0": "uint 0=success, otherwise a failure (see ErrorReporter.sol for details)"
						}
					},
					"seize(address,address,uint256)": {
						"details": "Will fail unless called by another cToken during the process of liquidation.  Its absolutely critical to use msg.sender as the borrowed cToken and not a parameter.",
						"params": {
							"borrower": "The account having collateral seized",
							"liquidator": "The account receiving seized collateral",
							"seizeTokens": "The number of cTokens to seize"
						},
						"returns": {
							"_0": "uint 0=success, otherwise a failure (see ErrorReporter.sol for details)"
						}
					},
					"supplyRatePerBlock()": {
						"returns": {
							"_0": "The supply interest rate per block, scaled by 1e18"
						}
					},
					"sweepToken(address)": {
						"params": {
							"token": "The address of the ERC-20 token to sweep"
						}
					},
					"totalBorrowsCurrent()": {
						"returns": {
							"_0": "The total borrows with interest"
						}
					},
					"transfer(address,uint256)": {
						"params": {
							"amount": "The number of tokens to transfer",
							"dst": "The address of the destination account"
						},
						"returns": {
							"_0": "Whether or not the transfer succeeded"
						}
					},
					"transferFrom(address,address,uint256)": {
						"params": {
							"amount": "The number of tokens to transfer",
							"dst": "The address of the destination account",
							"src": "The address of the source account"
						},
						"returns": {
							"_0": "Whether or not the transfer succeeded"
						}
					}
				},
				"title": "Compound's CErc20Delegator Contract",
				"version": 1
			},
			"evm": {
				"assembly": "    /* \"contracts/CErc20Delegator.sol\":260:23211  contract CErc20Delegator is CTokenInterface, CErc20Interface, CDelegatorInterface {... */\n  mstore(0x40, 0x80)\n    /* \"contracts/CErc20Delegator.sol\":1079:2607  constructor(address underlying_,... */\n  callvalue\n  dup1\n  iszero\n  tag_1\n  jumpi\n  0x00\n  dup1\n  revert\ntag_1:\n  pop\n  mload(0x40)\n  sub(codesize, bytecodeSize)\n  dup1\n  bytecodeSize\n  dup4\n  codecopy\n  dup2\n  add\n  0x40\n  dup2\n  swap1\n  mstore\n  tag_2\n  swap2\n  tag_3\n  jump\t// in\ntag_2:\n    /* \"contracts/CErc20Delegator.sol\":1589:1594  admin */\n  0x03\n    /* \"contracts/CErc20Delegator.sol\":1589:1616  admin = payable(msg.sender) */\n  dup1\n  sload\n  not(sub(shl(0xa8, 0x01), 0x0100))\n  and\n    /* \"contracts/CErc20Delegator.sol\":1605:1615  msg.sender */\n  caller\n    /* \"contracts/CErc20Delegator.sol\":1589:1616  admin = payable(msg.sender) */\n  0x0100\n  mul\n  or\n  swap1\n  sstore\n    /* \"contracts/CErc20Delegator.sol\":1738:2352  abi.encodeWithSignature(\"initialize(address,address,address,uint256,string,string,uint8)\",... */\n  mload(0x40)\n    /* \"contracts/CErc20Delegator.sol\":1710:2353  delegateTo(implementation_, abi.encodeWithSignature(\"initialize(address,address,address,uint256,string,string,uint8)\",... */\n  tag_6\n  swap1\n    /* \"contracts/CErc20Delegator.sol\":1721:1736  implementation_ */\n  dup4\n  swap1\n    /* \"contracts/CErc20Delegator.sol\":1738:2352  abi.encodeWithSignature(\"initialize(address,address,address,uint256,string,string,uint8)\",... */\n  tag_7\n  swap1\n    /* \"contracts/CErc20Delegator.sol\":1889:1900  underlying_ */\n  dup14\n  swap1\n    /* \"contracts/CErc20Delegator.sol\":1962:1974  comptroller_ */\n  dup14\n  swap1\n    /* \"contracts/CErc20Delegator.sol\":2036:2054  interestRateModel_ */\n  dup14\n  swap1\n    /* \"contracts/CErc20Delegator.sol\":2116:2144  initialExchangeRateMantissa_ */\n  dup14\n  swap1\n    /* \"contracts/CErc20Delegator.sol\":2206:2211  name_ */\n  dup14\n  swap1\n    /* \"contracts/CErc20Delegator.sol\":2273:2280  symbol_ */\n  dup14\n  swap1\n    /* \"contracts/CErc20Delegator.sol\":2342:2351  decimals_ */\n  dup14\n  swap1\n    /* \"contracts/CErc20Delegator.sol\":1738:2352  abi.encodeWithSignature(\"initialize(address,address,address,uint256,string,string,uint8)\",... */\n  0x24\n  add\n  tag_8\n  jump\t// in\ntag_7:\n  0x40\n  dup1\n  mload\n  not(0x1f)\n  dup2\n  dup5\n  sub\n  add\n  dup2\n  mstore\n  swap2\n  swap1\n  mstore\n  0x20\n  dup2\n  add\n  dup1\n  mload\n  sub(shl(0xe0, 0x01), 0x01)\n  swap1\n  dup2\n  and\n  shl(0xe0, 0x1a31d465)\n  or\n  swap1\n  swap2\n  mstore\n    /* \"contracts/CErc20Delegator.sol\":1710:1720  delegateTo */\n  tag_9\n    /* \"contracts/CErc20Delegator.sol\":1710:2353  delegateTo(implementation_, abi.encodeWithSignature(\"initialize(address,address,address,uint256,string,string,uint8)\",... */\n  and\n  jump\t// in\ntag_6:\n  pop\n    /* \"contracts/CErc20Delegator.sol\":2443:2511  _setImplementation(implementation_, false, becomeImplementationData) */\n  tag_10\n    /* \"contracts/CErc20Delegator.sol\":2462:2477  implementation_ */\n  dup3\n    /* \"contracts/CErc20Delegator.sol\":2479:2484  false */\n  0x00\n    /* \"contracts/CErc20Delegator.sol\":2486:2510  becomeImplementationData */\n  dup4\n    /* \"contracts/CErc20Delegator.sol\":2443:2461  _setImplementation */\n  tag_11\n    /* \"contracts/CErc20Delegator.sol\":2443:2511  _setImplementation(implementation_, false, becomeImplementationData) */\n  jump\t// in\ntag_10:\n  pop\n  pop\n    /* \"contracts/CErc20Delegator.sol\":2586:2591  admin */\n  0x03\n    /* \"contracts/CErc20Delegator.sol\":2586:2600  admin = admin_ */\n  dup1\n  sload\n  sub(shl(0xa0, 0x01), 0x01)\n  swap1\n  swap3\n  and\n  0x0100\n  mul\n  not(sub(shl(0xa8, 0x01), 0x0100))\n  swap1\n  swap3\n  and\n  swap2\n  swap1\n  swap2\n  or\n  swap1\n  sstore\n  pop\n    /* \"contracts/CErc20Delegator.sol\":260:23211  contract CErc20Delegator is CTokenInterface, CErc20Interface, CDelegatorInterface {... */\n  tag_40\n  swap6\n  pop\n  pop\n  pop\n  pop\n  pop\n  pop\n  jump\n    /* \"contracts/CErc20Delegator.sol\":20861:21198  function delegateTo(address callee, bytes memory data) internal returns (bytes memory) {... */\ntag_9:\n    /* \"contracts/CErc20Delegator.sol\":20934:20946  bytes memory */\n  0x60\n    /* \"contracts/CErc20Delegator.sol\":20959:20971  bool success */\n  0x00\n    /* \"contracts/CErc20Delegator.sol\":20973:20996  bytes memory returnData */\n  dup1\n    /* \"contracts/CErc20Delegator.sol\":21000:21006  callee */\n  dup5\n  sub(shl(0xa0, 0x01), 0x01)\n    /* \"contracts/CErc20Delegator.sol\":21000:21019  callee.delegatecall */\n  and\n    /* \"contracts/CErc20Delegator.sol\":21020:21024  data */\n  dup5\n    /* \"contracts/CErc20Delegator.sol\":21000:21025  callee.delegatecall(data) */\n  mload(0x40)\n  tag_14\n  swap2\n  swap1\n  tag_15\n  jump\t// in\ntag_14:\n  0x00\n  mload(0x40)\n  dup1\n  dup4\n  sub\n  dup2\n  dup6\n  gas\n  delegatecall\n  swap2\n  pop\n  pop\n  returndatasize\n  dup1\n  0x00\n  dup2\n  eq\n  tag_18\n  jumpi\n  mload(0x40)\n  swap2\n  pop\n  and(add(returndatasize, 0x3f), not(0x1f))\n  dup3\n  add\n  0x40\n  mstore\n  returndatasize\n  dup3\n  mstore\n  returndatasize\n  0x00\n  0x20\n  dup5\n  add\n  returndatacopy\n  jump(tag_17)\ntag_18:\n  0x60\n  swap2\n  pop\ntag_17:\n  pop\n    /* \"contracts/CErc20Delegator.sol\":20958:21025  (bool success, bytes memory returnData) = callee.delegatecall(data) */\n  swap2\n  pop\n  swap2\n  pop\n    /* \"contracts/CErc20Delegator.sol\":21073:21074  0 */\n  0x00\n    /* \"contracts/CErc20Delegator.sol\":21064:21071  success */\n  dup3\n    /* \"contracts/CErc20Delegator.sol\":21061:21075  eq(success, 0) */\n  eq\n    /* \"contracts/CErc20Delegator.sol\":21058:21155  if eq(success, 0) {... */\n  iszero\n  tag_19\n  jumpi\n    /* \"contracts/CErc20Delegator.sol\":21124:21140  returndatasize() */\n  returndatasize\n    /* \"contracts/CErc20Delegator.sol\":21117:21121  0x20 */\n  0x20\n    /* \"contracts/CErc20Delegator.sol\":21105:21115  returnData */\n  dup3\n    /* \"contracts/CErc20Delegator.sol\":21101:21122  add(returnData, 0x20) */\n  add\n    /* \"contracts/CErc20Delegator.sol\":21094:21141  revert(add(returnData, 0x20), returndatasize()) */\n  revert\n    /* \"contracts/CErc20Delegator.sol\":21058:21155  if eq(success, 0) {... */\ntag_19:\n    /* \"contracts/CErc20Delegator.sol\":21181:21191  returnData */\n  swap5\n    /* \"contracts/CErc20Delegator.sol\":20861:21198  function delegateTo(address callee, bytes memory data) internal returns (bytes memory) {... */\n  swap4\n  pop\n  pop\n  pop\n  pop\n  jump\t// out\n    /* \"contracts/CErc20Delegator.sol\":3000:3640  function _setImplementation(address implementation_, bool allowResign, bytes memory becomeImplementationData)override public {... */\ntag_11:\n    /* \"contracts/CErc20Delegator.sol\":3157:3162  admin */\n  sload(0x03)\n  0x0100\n  swap1\n  div\n  sub(shl(0xa0, 0x01), 0x01)\n  and\n    /* \"contracts/CErc20Delegator.sol\":3143:3153  msg.sender */\n  caller\n    /* \"contracts/CErc20Delegator.sol\":3143:3162  msg.sender == admin */\n  eq\n    /* \"contracts/CErc20Delegator.sol\":3135:3224  require(msg.sender == admin, \"CErc20Delegator::_setImplementation: Caller must be admin\") */\n  tag_21\n  jumpi\n  mload(0x40)\n  shl(0xe5, 0x461bcd)\n  dup2\n  mstore\n    /* \"#utility.yul\":4473:4475   */\n  0x20\n    /* \"contracts/CErc20Delegator.sol\":3135:3224  require(msg.sender == admin, \"CErc20Delegator::_setImplementation: Caller must be admin\") */\n  0x04\n  dup3\n  add\n    /* \"#utility.yul\":4455:4476   */\n  mstore\n    /* \"#utility.yul\":4512:4514   */\n  0x39\n    /* \"#utility.yul\":4492:4510   */\n  0x24\n  dup3\n  add\n    /* \"#utility.yul\":4485:4515   */\n  mstore\n    /* \"#utility.yul\":4551:4585   */\n  0x43457263323044656c656761746f723a3a5f736574496d706c656d656e746174\n    /* \"#utility.yul\":4531:4549   */\n  0x44\n  dup3\n  add\n    /* \"#utility.yul\":4524:4586   */\n  mstore\n    /* \"#utility.yul\":4622:4649   */\n  0x696f6e3a2043616c6c6572206d7573742062652061646d696e00000000000000\n    /* \"#utility.yul\":4602:4620   */\n  0x64\n  dup3\n  add\n    /* \"#utility.yul\":4595:4650   */\n  mstore\n    /* \"#utility.yul\":4667:4686   */\n  0x84\n  add\n    /* \"contracts/CErc20Delegator.sol\":3135:3224  require(msg.sender == admin, \"CErc20Delegator::_setImplementation: Caller must be admin\") */\n  mload(0x40)\n  dup1\n  swap2\n  sub\n  swap1\n  revert\ntag_21:\n    /* \"contracts/CErc20Delegator.sol\":3239:3250  allowResign */\n  dup2\n    /* \"contracts/CErc20Delegator.sol\":3235:3353  if (allowResign) {... */\n  iszero\n  tag_24\n  jumpi\n    /* \"contracts/CErc20Delegator.sol\":3291:3341  abi.encodeWithSignature(\"_resignImplementation()\") */\n  0x40\n  dup1\n  mload\n  0x04\n  dup2\n  mstore\n  0x24\n  dup2\n  add\n  swap1\n  swap2\n  mstore\n  0x20\n  dup2\n  add\n  dup1\n  mload\n  sub(shl(0xe0, 0x01), 0x01)\n  swap1\n  dup2\n  and\n  shl(0xe0, 0x153ab505)\n  or\n  swap1\n  swap2\n  mstore\n    /* \"contracts/CErc20Delegator.sol\":3266:3342  delegateToImplementation(abi.encodeWithSignature(\"_resignImplementation()\")) */\n  tag_25\n  swap2\n    /* \"contracts/CErc20Delegator.sol\":3291:3341  abi.encodeWithSignature(\"_resignImplementation()\") */\n  swap1\n    /* \"contracts/CErc20Delegator.sol\":3266:3290  delegateToImplementation */\n  tag_26\n    /* \"contracts/CErc20Delegator.sol\":3266:3342  delegateToImplementation(abi.encodeWithSignature(\"_resignImplementation()\")) */\n  and\n  jump\t// in\ntag_25:\n  pop\n    /* \"contracts/CErc20Delegator.sol\":3235:3353  if (allowResign) {... */\ntag_24:\n    /* \"contracts/CErc20Delegator.sol\":3391:3405  implementation */\n  0x12\n  dup1\n  sload\n  sub(shl(0xa0, 0x01), 0x01)\n    /* \"contracts/CErc20Delegator.sol\":3415:3447  implementation = implementation_ */\n  dup6\n  dup2\n  and\n  not(sub(shl(0xa0, 0x01), 0x01))\n  dup4\n  and\n  or\n  swap1\n  swap3\n  sstore\n    /* \"contracts/CErc20Delegator.sol\":3483:3564  abi.encodeWithSignature(\"_becomeImplementation(bytes)\", becomeImplementationData) */\n  mload(0x40)\n    /* \"contracts/CErc20Delegator.sol\":3391:3405  implementation */\n  swap2\n  and\n  swap1\n    /* \"contracts/CErc20Delegator.sol\":3458:3565  delegateToImplementation(abi.encodeWithSignature(\"_becomeImplementation(bytes)\", becomeImplementationData)) */\n  tag_27\n  swap1\n    /* \"contracts/CErc20Delegator.sol\":3483:3564  abi.encodeWithSignature(\"_becomeImplementation(bytes)\", becomeImplementationData) */\n  tag_28\n  swap1\n    /* \"contracts/CErc20Delegator.sol\":3539:3563  becomeImplementationData */\n  dup5\n  swap1\n    /* \"contracts/CErc20Delegator.sol\":3483:3564  abi.encodeWithSignature(\"_becomeImplementation(bytes)\", becomeImplementationData) */\n  0x24\n  add\n  tag_29\n  jump\t// in\ntag_28:\n  0x40\n  dup1\n  mload\n  not(0x1f)\n  dup2\n  dup5\n  sub\n  add\n  dup2\n  mstore\n  swap2\n  swap1\n  mstore\n  0x20\n  dup2\n  add\n  dup1\n  mload\n  sub(shl(0xe0, 0x01), 0x01)\n  swap1\n  dup2\n  and\n  shl(0xe3, 0x0adccee5)\n  or\n  swap1\n  swap2\n  mstore\n    /* \"contracts/CErc20Delegator.sol\":3458:3482  delegateToImplementation */\n  tag_26\n    /* \"contracts/CErc20Delegator.sol\":3458:3565  delegateToImplementation(abi.encodeWithSignature(\"_becomeImplementation(bytes)\", becomeImplementationData)) */\n  and\n  jump\t// in\ntag_27:\n  pop\n    /* \"contracts/CErc20Delegator.sol\":3618:3632  implementation */\n  sload(0x12)\n    /* \"contracts/CErc20Delegator.sol\":3581:3633  NewImplementation(oldImplementation, implementation) */\n  0x40\n  dup1\n  mload\n  sub(shl(0xa0, 0x01), 0x01)\n    /* \"#utility.yul\":5150:5165   */\n  dup1\n  dup6\n  and\n    /* \"#utility.yul\":5132:5166   */\n  dup3\n  mstore\n    /* \"contracts/CErc20Delegator.sol\":3618:3632  implementation */\n  swap1\n  swap3\n  and\n    /* \"#utility.yul\":5197:5199   */\n  0x20\n    /* \"#utility.yul\":5182:5200   */\n  dup4\n  add\n    /* \"#utility.yul\":5175:5218   */\n  mstore\n    /* \"contracts/CErc20Delegator.sol\":3581:3633  NewImplementation(oldImplementation, implementation) */\n  0xd604de94d45953f9138079ec1b82d533cb2160c906d1076d1f7ed54befbca97a\n  swap2\n    /* \"#utility.yul\":5067:5085   */\n  add\n    /* \"contracts/CErc20Delegator.sol\":3581:3633  NewImplementation(oldImplementation, implementation) */\n  mload(0x40)\n  dup1\n  swap2\n  sub\n  swap1\n  log1\n    /* \"contracts/CErc20Delegator.sol\":3125:3640  {... */\n  pop\n    /* \"contracts/CErc20Delegator.sol\":3000:3640  function _setImplementation(address implementation_, bool allowResign, bytes memory becomeImplementationData)override public {... */\n  pop\n  pop\n  pop\n  jump\t// out\n    /* \"contracts/CErc20Delegator.sol\":21492:21631  function delegateToImplementation(bytes memory data) public returns (bytes memory) {... */\ntag_26:\n    /* \"contracts/CErc20Delegator.sol\":21603:21617  implementation */\n  sload(0x12)\n    /* \"contracts/CErc20Delegator.sol\":21561:21573  bytes memory */\n  0x60\n  swap1\n    /* \"contracts/CErc20Delegator.sol\":21592:21624  delegateTo(implementation, data) */\n  tag_33\n  swap1\n  sub(shl(0xa0, 0x01), 0x01)\n    /* \"contracts/CErc20Delegator.sol\":21603:21617  implementation */\n  and\n    /* \"contracts/CErc20Delegator.sol\":21619:21623  data */\n  dup4\n    /* \"contracts/CErc20Delegator.sol\":21592:21602  delegateTo */\n  tag_9\n    /* \"contracts/CErc20Delegator.sol\":21592:21624  delegateTo(implementation, data) */\n  jump\t// in\ntag_33:\n    /* \"contracts/CErc20Delegator.sol\":21585:21624  return delegateTo(implementation, data) */\n  swap3\n    /* \"contracts/CErc20Delegator.sol\":21492:21631  function delegateToImplementation(bytes memory data) public returns (bytes memory) {... */\n  swap2\n  pop\n  pop\n  jump\t// out\n    /* \"#utility.yul\":14:191   */\ntag_34:\n    /* \"#utility.yul\":93:106   */\n  dup1\n  mload\n  sub(shl(0xa0, 0x01), 0x01)\n    /* \"#utility.yul\":135:166   */\n  dup2\n  and\n    /* \"#utility.yul\":125:167   */\n  dup2\n  eq\n    /* \"#utility.yul\":115:185   */\n  tag_42\n  jumpi\n    /* \"#utility.yul\":181:182   */\n  0x00\n    /* \"#utility.yul\":178:179   */\n  dup1\n    /* \"#utility.yul\":171:183   */\n  revert\n    /* \"#utility.yul\":115:185   */\ntag_42:\n    /* \"#utility.yul\":14:191   */\n  swap2\n  swap1\n  pop\n  jump\t// out\n    /* \"#utility.yul\":196:323   */\ntag_35:\n    /* \"#utility.yul\":257:267   */\n  0x4e487b71\n    /* \"#utility.yul\":252:255   */\n  0xe0\n    /* \"#utility.yul\":248:268   */\n  shl\n    /* \"#utility.yul\":245:246   */\n  0x00\n    /* \"#utility.yul\":238:269   */\n  mstore\n    /* \"#utility.yul\":288:292   */\n  0x41\n    /* \"#utility.yul\":285:286   */\n  0x04\n    /* \"#utility.yul\":278:293   */\n  mstore\n    /* \"#utility.yul\":312:316   */\n  0x24\n    /* \"#utility.yul\":309:310   */\n  0x00\n    /* \"#utility.yul\":302:317   */\n  revert\n    /* \"#utility.yul\":328:586   */\ntag_36:\n    /* \"#utility.yul\":400:401   */\n  0x00\n    /* \"#utility.yul\":410:523   */\ntag_45:\n    /* \"#utility.yul\":424:430   */\n  dup4\n    /* \"#utility.yul\":421:422   */\n  dup2\n    /* \"#utility.yul\":418:431   */\n  lt\n    /* \"#utility.yul\":410:523   */\n  iszero\n  tag_47\n  jumpi\n    /* \"#utility.yul\":500:511   */\n  dup2\n  dup2\n  add\n    /* \"#utility.yul\":494:512   */\n  mload\n    /* \"#utility.yul\":481:492   */\n  dup4\n  dup3\n  add\n    /* \"#utility.yul\":474:513   */\n  mstore\n    /* \"#utility.yul\":446:448   */\n  0x20\n    /* \"#utility.yul\":439:449   */\n  add\n    /* \"#utility.yul\":410:523   */\n  jump(tag_45)\ntag_47:\n    /* \"#utility.yul\":541:547   */\n  dup4\n    /* \"#utility.yul\":538:539   */\n  dup2\n    /* \"#utility.yul\":535:548   */\n  gt\n    /* \"#utility.yul\":532:580   */\n  iszero\n  tag_48\n  jumpi\n    /* \"#utility.yul\":576:577   */\n  0x00\n    /* \"#utility.yul\":567:573   */\n  dup5\n    /* \"#utility.yul\":562:565   */\n  dup5\n    /* \"#utility.yul\":558:574   */\n  add\n    /* \"#utility.yul\":551:578   */\n  mstore\n    /* \"#utility.yul\":532:580   */\ntag_48:\n  pop\n    /* \"#utility.yul\":328:586   */\n  pop\n  pop\n  pop\n  jump\t// out\n    /* \"#utility.yul\":591:1277   */\ntag_37:\n    /* \"#utility.yul\":645:650   */\n  0x00\n    /* \"#utility.yul\":698:701   */\n  dup3\n    /* \"#utility.yul\":691:695   */\n  0x1f\n    /* \"#utility.yul\":683:689   */\n  dup4\n    /* \"#utility.yul\":679:696   */\n  add\n    /* \"#utility.yul\":675:702   */\n  slt\n    /* \"#utility.yul\":665:720   */\n  tag_50\n  jumpi\n    /* \"#utility.yul\":716:717   */\n  0x00\n    /* \"#utility.yul\":713:714   */\n  dup1\n    /* \"#utility.yul\":706:718   */\n  revert\n    /* \"#utility.yul\":665:720   */\ntag_50:\n    /* \"#utility.yul\":739:752   */\n  dup2\n  mload\n  sub(shl(0x40, 0x01), 0x01)\n    /* \"#utility.yul\":801:811   */\n  dup1\n  dup3\n  gt\n    /* \"#utility.yul\":798:834   */\n  iszero\n  tag_52\n  jumpi\n    /* \"#utility.yul\":814:832   */\n  tag_52\n  tag_35\n  jump\t// in\ntag_52:\n    /* \"#utility.yul\":889:891   */\n  0x40\n    /* \"#utility.yul\":883:892   */\n  mload\n    /* \"#utility.yul\":857:859   */\n  0x1f\n    /* \"#utility.yul\":943:956   */\n  dup4\n  add\n  not(0x1f)\n    /* \"#utility.yul\":939:961   */\n  swap1\n  dup2\n  and\n    /* \"#utility.yul\":963:965   */\n  0x3f\n    /* \"#utility.yul\":935:966   */\n  add\n    /* \"#utility.yul\":931:971   */\n  and\n    /* \"#utility.yul\":919:972   */\n  dup2\n  add\n  swap1\n    /* \"#utility.yul\":987:1005   */\n  dup3\n  dup3\n  gt\n    /* \"#utility.yul\":1007:1029   */\n  dup2\n  dup4\n  lt\n    /* \"#utility.yul\":984:1030   */\n  or\n    /* \"#utility.yul\":981:1053   */\n  iszero\n  tag_54\n  jumpi\n    /* \"#utility.yul\":1033:1051   */\n  tag_54\n  tag_35\n  jump\t// in\ntag_54:\n    /* \"#utility.yul\":1073:1083   */\n  dup2\n    /* \"#utility.yul\":1069:1071   */\n  0x40\n    /* \"#utility.yul\":1062:1084   */\n  mstore\n    /* \"#utility.yul\":1108:1110   */\n  dup4\n    /* \"#utility.yul\":1100:1106   */\n  dup2\n    /* \"#utility.yul\":1093:1111   */\n  mstore\n    /* \"#utility.yul\":1154:1157   */\n  dup7\n    /* \"#utility.yul\":1147:1151   */\n  0x20\n    /* \"#utility.yul\":1142:1144   */\n  dup6\n    /* \"#utility.yul\":1134:1140   */\n  dup9\n    /* \"#utility.yul\":1130:1145   */\n  add\n    /* \"#utility.yul\":1126:1152   */\n  add\n    /* \"#utility.yul\":1123:1158   */\n  gt\n    /* \"#utility.yul\":1120:1175   */\n  iszero\n  tag_55\n  jumpi\n    /* \"#utility.yul\":1171:1172   */\n  0x00\n    /* \"#utility.yul\":1168:1169   */\n  dup1\n    /* \"#utility.yul\":1161:1173   */\n  revert\n    /* \"#utility.yul\":1120:1175   */\ntag_55:\n    /* \"#utility.yul\":1184:1247   */\n  tag_56\n    /* \"#utility.yul\":1244:1246   */\n  dup5\n    /* \"#utility.yul\":1237:1241   */\n  0x20\n    /* \"#utility.yul\":1229:1235   */\n  dup4\n    /* \"#utility.yul\":1225:1242   */\n  add\n    /* \"#utility.yul\":1218:1222   */\n  0x20\n    /* \"#utility.yul\":1210:1216   */\n  dup10\n    /* \"#utility.yul\":1206:1223   */\n  add\n    /* \"#utility.yul\":1184:1247   */\n  tag_36\n  jump\t// in\ntag_56:\n    /* \"#utility.yul\":1265:1271   */\n  swap7\n    /* \"#utility.yul\":591:1277   */\n  swap6\n  pop\n  pop\n  pop\n  pop\n  pop\n  pop\n  jump\t// out\n    /* \"#utility.yul\":1282:1442   */\ntag_38:\n    /* \"#utility.yul\":1359:1372   */\n  dup1\n  mload\n    /* \"#utility.yul\":1412:1416   */\n  0xff\n    /* \"#utility.yul\":1401:1417   */\n  dup2\n  and\n    /* \"#utility.yul\":1391:1418   */\n  dup2\n  eq\n    /* \"#utility.yul\":1381:1436   */\n  tag_42\n  jumpi\n    /* \"#utility.yul\":1432:1433   */\n  0x00\n    /* \"#utility.yul\":1429:1430   */\n  dup1\n    /* \"#utility.yul\":1422:1434   */\n  revert\n    /* \"#utility.yul\":1447:2849   */\ntag_3:\n    /* \"#utility.yul\":1688:1694   */\n  0x00\n    /* \"#utility.yul\":1696:1702   */\n  dup1\n    /* \"#utility.yul\":1704:1710   */\n  0x00\n    /* \"#utility.yul\":1712:1718   */\n  dup1\n    /* \"#utility.yul\":1720:1726   */\n  0x00\n    /* \"#utility.yul\":1728:1734   */\n  dup1\n    /* \"#utility.yul\":1736:1742   */\n  0x00\n    /* \"#utility.yul\":1744:1750   */\n  dup1\n    /* \"#utility.yul\":1752:1758   */\n  0x00\n    /* \"#utility.yul\":1760:1766   */\n  dup1\n    /* \"#utility.yul\":1813:1816   */\n  0x0140\n    /* \"#utility.yul\":1801:1810   */\n  dup12\n    /* \"#utility.yul\":1792:1799   */\n  dup14\n    /* \"#utility.yul\":1788:1811   */\n  sub\n    /* \"#utility.yul\":1784:1817   */\n  slt\n    /* \"#utility.yul\":1781:1834   */\n  iszero\n  tag_60\n  jumpi\n    /* \"#utility.yul\":1830:1831   */\n  0x00\n    /* \"#utility.yul\":1827:1828   */\n  dup1\n    /* \"#utility.yul\":1820:1832   */\n  revert\n    /* \"#utility.yul\":1781:1834   */\ntag_60:\n    /* \"#utility.yul\":1853:1893   */\n  tag_61\n    /* \"#utility.yul\":1883:1892   */\n  dup12\n    /* \"#utility.yul\":1853:1893   */\n  tag_34\n  jump\t// in\ntag_61:\n    /* \"#utility.yul\":1843:1893   */\n  swap10\n  pop\n    /* \"#utility.yul\":1912:1961   */\n  tag_62\n    /* \"#utility.yul\":1957:1959   */\n  0x20\n    /* \"#utility.yul\":1946:1955   */\n  dup13\n    /* \"#utility.yul\":1942:1960   */\n  add\n    /* \"#utility.yul\":1912:1961   */\n  tag_34\n  jump\t// in\ntag_62:\n    /* \"#utility.yul\":1902:1961   */\n  swap9\n  pop\n    /* \"#utility.yul\":1980:2029   */\n  tag_63\n    /* \"#utility.yul\":2025:2027   */\n  0x40\n    /* \"#utility.yul\":2014:2023   */\n  dup13\n    /* \"#utility.yul\":2010:2028   */\n  add\n    /* \"#utility.yul\":1980:2029   */\n  tag_34\n  jump\t// in\ntag_63:\n    /* \"#utility.yul\":2069:2071   */\n  0x60\n    /* \"#utility.yul\":2054:2072   */\n  dup13\n  add\n    /* \"#utility.yul\":2048:2073   */\n  mload\n    /* \"#utility.yul\":2117:2120   */\n  0x80\n    /* \"#utility.yul\":2102:2121   */\n  dup14\n  add\n    /* \"#utility.yul\":2096:2122   */\n  mload\n    /* \"#utility.yul\":1970:2029   */\n  swap2\n  swap10\n  pop\n    /* \"#utility.yul\":2048:2073   */\n  swap8\n  pop\n  sub(shl(0x40, 0x01), 0x01)\n    /* \"#utility.yul\":2171:2185   */\n  dup1\n  dup3\n  gt\n    /* \"#utility.yul\":2168:2202   */\n  iszero\n  tag_64\n  jumpi\n    /* \"#utility.yul\":2198:2199   */\n  0x00\n    /* \"#utility.yul\":2195:2196   */\n  dup1\n    /* \"#utility.yul\":2188:2200   */\n  revert\n    /* \"#utility.yul\":2168:2202   */\ntag_64:\n    /* \"#utility.yul\":2221:2282   */\n  tag_65\n    /* \"#utility.yul\":2274:2281   */\n  dup15\n    /* \"#utility.yul\":2265:2271   */\n  dup4\n    /* \"#utility.yul\":2254:2263   */\n  dup16\n    /* \"#utility.yul\":2250:2272   */\n  add\n    /* \"#utility.yul\":2221:2282   */\n  tag_37\n  jump\t// in\ntag_65:\n    /* \"#utility.yul\":2211:2282   */\n  swap8\n  pop\n    /* \"#utility.yul\":2328:2331   */\n  0xa0\n    /* \"#utility.yul\":2317:2326   */\n  dup14\n    /* \"#utility.yul\":2313:2332   */\n  add\n    /* \"#utility.yul\":2307:2333   */\n  mload\n    /* \"#utility.yul\":2291:2333   */\n  swap2\n  pop\n    /* \"#utility.yul\":2358:2360   */\n  dup1\n    /* \"#utility.yul\":2348:2356   */\n  dup3\n    /* \"#utility.yul\":2345:2361   */\n  gt\n    /* \"#utility.yul\":2342:2378   */\n  iszero\n  tag_66\n  jumpi\n    /* \"#utility.yul\":2374:2375   */\n  0x00\n    /* \"#utility.yul\":2371:2372   */\n  dup1\n    /* \"#utility.yul\":2364:2376   */\n  revert\n    /* \"#utility.yul\":2342:2378   */\ntag_66:\n    /* \"#utility.yul\":2397:2460   */\n  tag_67\n    /* \"#utility.yul\":2452:2459   */\n  dup15\n    /* \"#utility.yul\":2441:2449   */\n  dup4\n    /* \"#utility.yul\":2430:2439   */\n  dup16\n    /* \"#utility.yul\":2426:2450   */\n  add\n    /* \"#utility.yul\":2397:2460   */\n  tag_37\n  jump\t// in\ntag_67:\n    /* \"#utility.yul\":2387:2460   */\n  swap7\n  pop\n    /* \"#utility.yul\":2479:2527   */\n  tag_68\n    /* \"#utility.yul\":2522:2525   */\n  0xc0\n    /* \"#utility.yul\":2511:2520   */\n  dup15\n    /* \"#utility.yul\":2507:2526   */\n  add\n    /* \"#utility.yul\":2479:2527   */\n  tag_38\n  jump\t// in\ntag_68:\n    /* \"#utility.yul\":2469:2527   */\n  swap6\n  pop\n    /* \"#utility.yul\":2546:2596   */\n  tag_69\n    /* \"#utility.yul\":2591:2594   */\n  0xe0\n    /* \"#utility.yul\":2580:2589   */\n  dup15\n    /* \"#utility.yul\":2576:2595   */\n  add\n    /* \"#utility.yul\":2546:2596   */\n  tag_34\n  jump\t// in\ntag_69:\n    /* \"#utility.yul\":2536:2596   */\n  swap5\n  pop\n    /* \"#utility.yul\":2615:2665   */\n  tag_70\n    /* \"#utility.yul\":2660:2663   */\n  0x0100\n    /* \"#utility.yul\":2649:2658   */\n  dup15\n    /* \"#utility.yul\":2645:2664   */\n  add\n    /* \"#utility.yul\":2615:2665   */\n  tag_34\n  jump\t// in\ntag_70:\n    /* \"#utility.yul\":2605:2665   */\n  swap4\n  pop\n    /* \"#utility.yul\":2711:2714   */\n  0x0120\n    /* \"#utility.yul\":2700:2709   */\n  dup14\n    /* \"#utility.yul\":2696:2715   */\n  add\n    /* \"#utility.yul\":2690:2716   */\n  mload\n    /* \"#utility.yul\":2674:2716   */\n  swap2\n  pop\n    /* \"#utility.yul\":2741:2743   */\n  dup1\n    /* \"#utility.yul\":2731:2739   */\n  dup3\n    /* \"#utility.yul\":2728:2744   */\n  gt\n    /* \"#utility.yul\":2725:2761   */\n  iszero\n  tag_71\n  jumpi\n    /* \"#utility.yul\":2757:2758   */\n  0x00\n    /* \"#utility.yul\":2754:2755   */\n  dup1\n    /* \"#utility.yul\":2747:2759   */\n  revert\n    /* \"#utility.yul\":2725:2761   */\ntag_71:\n  pop\n    /* \"#utility.yul\":2780:2843   */\n  tag_72\n    /* \"#utility.yul\":2835:2842   */\n  dup14\n    /* \"#utility.yul\":2824:2832   */\n  dup3\n    /* \"#utility.yul\":2813:2822   */\n  dup15\n    /* \"#utility.yul\":2809:2833   */\n  add\n    /* \"#utility.yul\":2780:2843   */\n  tag_37\n  jump\t// in\ntag_72:\n    /* \"#utility.yul\":2770:2843   */\n  swap2\n  pop\n  pop\n    /* \"#utility.yul\":1447:2849   */\n  swap3\n  swap6\n  swap9\n  swap12\n  swap2\n  swap5\n  swap8\n  swap11\n  pop\n  swap3\n  swap6\n  swap9\n  pop\n  jump\t// out\n    /* \"#utility.yul\":2854:3112   */\ntag_39:\n    /* \"#utility.yul\":2896:2899   */\n  0x00\n    /* \"#utility.yul\":2934:2939   */\n  dup2\n    /* \"#utility.yul\":2928:2940   */\n  mload\n    /* \"#utility.yul\":2961:2967   */\n  dup1\n    /* \"#utility.yul\":2956:2959   */\n  dup5\n    /* \"#utility.yul\":2949:2968   */\n  mstore\n    /* \"#utility.yul\":2977:3040   */\n  tag_74\n    /* \"#utility.yul\":3033:3039   */\n  dup2\n    /* \"#utility.yul\":3026:3030   */\n  0x20\n    /* \"#utility.yul\":3021:3024   */\n  dup7\n    /* \"#utility.yul\":3017:3031   */\n  add\n    /* \"#utility.yul\":3010:3014   */\n  0x20\n    /* \"#utility.yul\":3003:3008   */\n  dup7\n    /* \"#utility.yul\":2999:3015   */\n  add\n    /* \"#utility.yul\":2977:3040   */\n  tag_36\n  jump\t// in\ntag_74:\n    /* \"#utility.yul\":3094:3096   */\n  0x1f\n    /* \"#utility.yul\":3073:3088   */\n  add\n  not(0x1f)\n    /* \"#utility.yul\":3069:3098   */\n  and\n    /* \"#utility.yul\":3060:3099   */\n  swap3\n  swap1\n  swap3\n  add\n    /* \"#utility.yul\":3101:3105   */\n  0x20\n    /* \"#utility.yul\":3056:3106   */\n  add\n  swap3\n    /* \"#utility.yul\":2854:3112   */\n  swap2\n  pop\n  pop\n  jump\t// out\n    /* \"#utility.yul\":3117:3987   */\ntag_8:\n  sub(shl(0xa0, 0x01), 0x01)\n    /* \"#utility.yul\":3543:3558   */\n  dup9\n  dup2\n  and\n    /* \"#utility.yul\":3525:3559   */\n  dup3\n  mstore\n    /* \"#utility.yul\":3595:3610   */\n  dup8\n  dup2\n  and\n    /* \"#utility.yul\":3590:3592   */\n  0x20\n    /* \"#utility.yul\":3575:3593   */\n  dup4\n  add\n    /* \"#utility.yul\":3568:3611   */\n  mstore\n    /* \"#utility.yul\":3647:3662   */\n  dup7\n  and\n    /* \"#utility.yul\":3642:3644   */\n  0x40\n    /* \"#utility.yul\":3627:3645   */\n  dup3\n  add\n    /* \"#utility.yul\":3620:3663   */\n  mstore\n    /* \"#utility.yul\":3694:3696   */\n  0x60\n    /* \"#utility.yul\":3679:3697   */\n  dup2\n  add\n    /* \"#utility.yul\":3672:3706   */\n  dup6\n  swap1\n  mstore\n    /* \"#utility.yul\":3743:3746   */\n  0xe0\n    /* \"#utility.yul\":3737:3740   */\n  0x80\n    /* \"#utility.yul\":3722:3741   */\n  dup3\n  add\n    /* \"#utility.yul\":3715:3747   */\n  dup2\n  swap1\n  mstore\n    /* \"#utility.yul\":3468:3472   */\n  0x00\n  swap1\n    /* \"#utility.yul\":3770:3816   */\n  tag_76\n  swap1\n    /* \"#utility.yul\":3796:3815   */\n  dup4\n  add\n    /* \"#utility.yul\":3788:3794   */\n  dup7\n    /* \"#utility.yul\":3770:3816   */\n  tag_39\n  jump\t// in\ntag_76:\n    /* \"#utility.yul\":3865:3874   */\n  dup3\n    /* \"#utility.yul\":3857:3863   */\n  dup2\n    /* \"#utility.yul\":3853:3875   */\n  sub\n    /* \"#utility.yul\":3847:3850   */\n  0xa0\n    /* \"#utility.yul\":3836:3845   */\n  dup5\n    /* \"#utility.yul\":3832:3851   */\n  add\n    /* \"#utility.yul\":3825:3876   */\n  mstore\n    /* \"#utility.yul\":3893:3926   */\n  tag_77\n    /* \"#utility.yul\":3919:3925   */\n  dup2\n    /* \"#utility.yul\":3911:3917   */\n  dup7\n    /* \"#utility.yul\":3893:3926   */\n  tag_39\n  jump\t// in\ntag_77:\n    /* \"#utility.yul\":3885:3926   */\n  swap2\n  pop\n  pop\n    /* \"#utility.yul\":3975:3979   */\n  0xff\n    /* \"#utility.yul\":3967:3973   */\n  dup4\n    /* \"#utility.yul\":3963:3980   */\n  and\n    /* \"#utility.yul\":3957:3960   */\n  0xc0\n    /* \"#utility.yul\":3946:3955   */\n  dup4\n    /* \"#utility.yul\":3942:3961   */\n  add\n    /* \"#utility.yul\":3935:3981   */\n  mstore\n    /* \"#utility.yul\":3117:3987   */\n  swap9\n  swap8\n  pop\n  pop\n  pop\n  pop\n  pop\n  pop\n  pop\n  pop\n  jump\t// out\n    /* \"#utility.yul\":3992:4266   */\ntag_15:\n    /* \"#utility.yul\":4121:4124   */\n  0x00\n    /* \"#utility.yul\":4159:4165   */\n  dup3\n    /* \"#utility.yul\":4153:4166   */\n  mload\n    /* \"#utility.yul\":4175:4228   */\n  tag_79\n    /* \"#utility.yul\":4221:4227   */\n  dup2\n    /* \"#utility.yul\":4216:4219   */\n  dup5\n    /* \"#utility.yul\":4209:4213   */\n  0x20\n    /* \"#utility.yul\":4201:4207   */\n  dup8\n    /* \"#utility.yul\":4197:4214   */\n  add\n    /* \"#utility.yul\":4175:4228   */\n  tag_36\n  jump\t// in\ntag_79:\n    /* \"#utility.yul\":4244:4260   */\n  swap2\n  swap1\n  swap2\n  add\n  swap3\n    /* \"#utility.yul\":3992:4266   */\n  swap2\n  pop\n  pop\n  jump\t// out\n    /* \"#utility.yul\":4697:4915   */\ntag_29:\n    /* \"#utility.yul\":4844:4846   */\n  0x20\n    /* \"#utility.yul\":4833:4842   */\n  dup2\n    /* \"#utility.yul\":4826:4847   */\n  mstore\n    /* \"#utility.yul\":4807:4811   */\n  0x00\n    /* \"#utility.yul\":4864:4909   */\n  tag_82\n    /* \"#utility.yul\":4905:4907   */\n  0x20\n    /* \"#utility.yul\":4894:4903   */\n  dup4\n    /* \"#utility.yul\":4890:4908   */\n  add\n    /* \"#utility.yul\":4882:4888   */\n  dup5\n    /* \"#utility.yul\":4864:4909   */\n  tag_39\n  jump\t// in\ntag_82:\n    /* \"#utility.yul\":4856:4909   */\n  swap4\n    /* \"#utility.yul\":4697:4915   */\n  swap3\n  pop\n  pop\n  pop\n  jump\t// out\n    /* \"#utility.yul\":4920:5224   */\ntag_40:\n    /* \"contracts/CErc20Delegator.sol\":260:23211  contract CErc20Delegator is CTokenInterface, CErc20Interface, CDelegatorInterface {... */\n  dataSize(sub_0)\n  dup1\n  dataOffset(sub_0)\n  0x00\n  codecopy\n  0x00\n  return\nstop\n\nsub_0: assembly {\n        /* \"contracts/CErc20Delegator.sol\":260:23211  contract CErc20Delegator is CTokenInterface, CErc20Interface, CDelegatorInterface {... */\n      mstore(0x40, 0x80)\n      jumpi(tag_1, lt(calldatasize, 0x04))\n      shr(0xe0, calldataload(0x00))\n      dup1\n      0x70a08231\n      gt\n      tag_55\n      jumpi\n      dup1\n      0xbd6d894d\n      gt\n      tag_56\n      jumpi\n      dup1\n      0xf2b3abbd\n      gt\n      tag_57\n      jumpi\n      dup1\n      0xf851a440\n      gt\n      tag_58\n      jumpi\n      dup1\n      0xf851a440\n      eq\n      tag_51\n      jumpi\n      dup1\n      0xf8f9da28\n      eq\n      tag_52\n      jumpi\n      dup1\n      0xfca7820b\n      eq\n      tag_53\n      jumpi\n      dup1\n      0xfe9c44ae\n      eq\n      tag_54\n      jumpi\n      jump(tag_1)\n    tag_58:\n      dup1\n      0xf2b3abbd\n      eq\n      tag_48\n      jumpi\n      dup1\n      0xf3fdb15a\n      eq\n      tag_49\n      jumpi\n      dup1\n      0xf5e3c462\n      eq\n      tag_50\n      jumpi\n      jump(tag_1)\n    tag_57:\n      dup1\n      0xbd6d894d\n      eq\n      tag_42\n      jumpi\n      dup1\n      0xc37f68e2\n      eq\n      tag_43\n      jumpi\n      dup1\n      0xc5ebeaec\n      eq\n      tag_44\n      jumpi\n      dup1\n      0xdb006a75\n      eq\n      tag_45\n      jumpi\n      dup1\n      0xdd62ed3e\n      eq\n      tag_46\n      jumpi\n      dup1\n      0xe9c714f2\n      eq\n      tag_47\n      jumpi\n      jump(tag_1)\n    tag_56:\n      dup1\n      0xa0712d68\n      gt\n      tag_59\n      jumpi\n      dup1\n      0xaa5af0fd\n      gt\n      tag_60\n      jumpi\n      dup1\n      0xaa5af0fd\n      eq\n      tag_38\n      jumpi\n      dup1\n      0xae9d70b0\n      eq\n      tag_39\n      jumpi\n      dup1\n      0xb2a02ff1\n      eq\n      tag_40\n      jumpi\n      dup1\n      0xb71d1a0c\n      eq\n      tag_41\n      jumpi\n      jump(tag_1)\n    tag_60:\n      dup1\n      0xa0712d68\n      eq\n      tag_35\n      jumpi\n      dup1\n      0xa6afed95\n      eq\n      tag_36\n      jumpi\n      dup1\n      0xa9059cbb\n      eq\n      tag_37\n      jumpi\n      jump(tag_1)\n    tag_59:\n      dup1\n      0x70a08231\n      eq\n      tag_29\n      jumpi\n      dup1\n      0x73acee98\n      eq\n      tag_30\n      jumpi\n      dup1\n      0x852a12e3\n      eq\n      tag_31\n      jumpi\n      dup1\n      0x8f840ddd\n      eq\n      tag_32\n      jumpi\n      dup1\n      0x95d89b41\n      eq\n      tag_33\n      jumpi\n      dup1\n      0x95dd9193\n      eq\n      tag_34\n      jumpi\n      jump(tag_1)\n    tag_55:\n      dup1\n      0x3af9e669\n      gt\n      tag_61\n      jumpi\n      dup1\n      0x555bcc40\n      gt\n      tag_62\n      jumpi\n      dup1\n      0x601a0bf1\n      gt\n      tag_63\n      jumpi\n      dup1\n      0x601a0bf1\n      eq\n      tag_25\n      jumpi\n      dup1\n      0x6752e702\n      eq\n      tag_26\n      jumpi\n      dup1\n      0x6c540baf\n      eq\n      tag_27\n      jumpi\n      dup1\n      0x6f307dc3\n      eq\n      tag_28\n      jumpi\n      jump(tag_1)\n    tag_63:\n      dup1\n      0x555bcc40\n      eq\n      tag_22\n      jumpi\n      dup1\n      0x5c60da1b\n      eq\n      tag_23\n      jumpi\n      dup1\n      0x5fe3b567\n      eq\n      tag_24\n      jumpi\n      jump(tag_1)\n    tag_62:\n      dup1\n      0x3af9e669\n      eq\n      tag_16\n      jumpi\n      dup1\n      0x3b1d21a2\n      eq\n      tag_17\n      jumpi\n      dup1\n      0x3e941010\n      eq\n      tag_18\n      jumpi\n      dup1\n      0x4487152f\n      eq\n      tag_19\n      jumpi\n      dup1\n      0x4576b5db\n      eq\n      tag_20\n      jumpi\n      dup1\n      0x47bd3718\n      eq\n      tag_21\n      jumpi\n      jump(tag_1)\n    tag_61:\n      dup1\n      0x18160ddd\n      gt\n      tag_64\n      jumpi\n      dup1\n      0x23b872dd\n      gt\n      tag_65\n      jumpi\n      dup1\n      0x23b872dd\n      eq\n      tag_12\n      jumpi\n      dup1\n      0x2608f818\n      eq\n      tag_13\n      jumpi\n      dup1\n      0x26782247\n      eq\n      tag_14\n      jumpi\n      dup1\n      0x313ce567\n      eq\n      tag_15\n      jumpi\n      jump(tag_1)\n    tag_65:\n      dup1\n      0x18160ddd\n      eq\n      tag_9\n      jumpi\n      dup1\n      0x182df0f5\n      eq\n      tag_10\n      jumpi\n      dup1\n      0x1be19560\n      eq\n      tag_11\n      jumpi\n      jump(tag_1)\n    tag_64:\n      dup1\n      0x06fdde03\n      eq\n      tag_3\n      jumpi\n      dup1\n      0x0933c1ed\n      eq\n      tag_4\n      jumpi\n      dup1\n      0x095ea7b3\n      eq\n      tag_5\n      jumpi\n      dup1\n      0x0e752702\n      eq\n      tag_6\n      jumpi\n      dup1\n      0x173b9904\n      eq\n      tag_7\n      jumpi\n      dup1\n      0x17bfdfbc\n      eq\n      tag_8\n      jumpi\n    tag_1:\n        /* \"contracts/CErc20Delegator.sol\":22707:22716  msg.value */\n      callvalue\n        /* \"contracts/CErc20Delegator.sol\":22707:22721  msg.value == 0 */\n      iszero\n        /* \"contracts/CErc20Delegator.sol\":22699:22780  require(msg.value == 0,\"CErc20Delegator:fallback: cannot send value to fallback\") */\n      tag_68\n      jumpi\n      mload(0x40)\n      shl(0xe5, 0x461bcd)\n      dup2\n      mstore\n        /* \"#utility.yul\":216:218   */\n      0x20\n        /* \"contracts/CErc20Delegator.sol\":22699:22780  require(msg.value == 0,\"CErc20Delegator:fallback: cannot send value to fallback\") */\n      0x04\n      dup3\n      add\n        /* \"#utility.yul\":198:219   */\n      mstore\n        /* \"#utility.yul\":255:257   */\n      0x37\n        /* \"#utility.yul\":235:253   */\n      0x24\n      dup3\n      add\n        /* \"#utility.yul\":228:258   */\n      mstore\n        /* \"#utility.yul\":294:328   */\n      0x43457263323044656c656761746f723a66616c6c6261636b3a2063616e6e6f74\n        /* \"#utility.yul\":274:292   */\n      0x44\n      dup3\n      add\n        /* \"#utility.yul\":267:329   */\n      mstore\n        /* \"#utility.yul\":365:390   */\n      0x2073656e642076616c756520746f2066616c6c6261636b000000000000000000\n        /* \"#utility.yul\":345:363   */\n      0x64\n      dup3\n      add\n        /* \"#utility.yul\":338:391   */\n      mstore\n        /* \"#utility.yul\":408:427   */\n      0x84\n      add\n        /* \"contracts/CErc20Delegator.sol\":22699:22780  require(msg.value == 0,\"CErc20Delegator:fallback: cannot send value to fallback\") */\n    tag_69:\n      mload(0x40)\n      dup1\n      swap2\n      sub\n      swap1\n      revert\n    tag_68:\n        /* \"contracts/CErc20Delegator.sol\":22876:22890  implementation */\n      sload(0x12)\n        /* \"contracts/CErc20Delegator.sol\":22876:22913  implementation.delegatecall(msg.data) */\n      mload(0x40)\n        /* \"contracts/CErc20Delegator.sol\":22858:22870  bool success */\n      0x00\n      swap2\n      sub(shl(0xa0, 0x01), 0x01)\n        /* \"contracts/CErc20Delegator.sol\":22876:22890  implementation */\n      and\n      swap1\n        /* \"contracts/CErc20Delegator.sol\":22876:22913  implementation.delegatecall(msg.data) */\n      tag_71\n      swap1\n        /* \"contracts/CErc20Delegator.sol\":22858:22870  bool success */\n      dup4\n      swap1\n        /* \"contracts/CErc20Delegator.sol\":22904:22912  msg.data */\n      calldatasize\n      swap1\n        /* \"contracts/CErc20Delegator.sol\":22876:22913  implementation.delegatecall(msg.data) */\n      tag_72\n      jump\t// in\n    tag_71:\n      0x00\n      mload(0x40)\n      dup1\n      dup4\n      sub\n      dup2\n      dup6\n      gas\n      delegatecall\n      swap2\n      pop\n      pop\n      returndatasize\n      dup1\n      0x00\n      dup2\n      eq\n      tag_75\n      jumpi\n      mload(0x40)\n      swap2\n      pop\n      and(add(returndatasize, 0x3f), not(0x1f))\n      dup3\n      add\n      0x40\n      mstore\n      returndatasize\n      dup3\n      mstore\n      returndatasize\n      0x00\n      0x20\n      dup5\n      add\n      returndatacopy\n      jump(tag_74)\n    tag_75:\n      0x60\n      swap2\n      pop\n    tag_74:\n      pop\n        /* \"contracts/CErc20Delegator.sol\":22857:22913  (bool success, ) = implementation.delegatecall(msg.data) */\n      pop\n      swap1\n      pop\n        /* \"contracts/CErc20Delegator.sol\":22973:22977  0x40 */\n      0x40\n        /* \"contracts/CErc20Delegator.sol\":22967:22978  mload(0x40) */\n      mload\n        /* \"contracts/CErc20Delegator.sol\":23023:23039  returndatasize() */\n      returndatasize\n        /* \"contracts/CErc20Delegator.sol\":23020:23021  0 */\n      0x00\n        /* \"contracts/CErc20Delegator.sol\":23006:23018  free_mem_ptr */\n      dup3\n        /* \"contracts/CErc20Delegator.sol\":22991:23040  returndatacopy(free_mem_ptr, 0, returndatasize()) */\n      returndatacopy\n        /* \"contracts/CErc20Delegator.sol\":23061:23068  success */\n      dup2\n        /* \"contracts/CErc20Delegator.sol\":23081:23130  case 0 { revert(free_mem_ptr, returndatasize()) } */\n      dup1\n      iszero\n      tag_77\n      jumpi\n        /* \"contracts/CErc20Delegator.sol\":23174:23190  returndatasize() */\n      returndatasize\n        /* \"contracts/CErc20Delegator.sol\":23160:23172  free_mem_ptr */\n      dup3\n        /* \"contracts/CErc20Delegator.sol\":23153:23191  return(free_mem_ptr, returndatasize()) */\n      return\n        /* \"contracts/CErc20Delegator.sol\":23081:23130  case 0 { revert(free_mem_ptr, returndatasize()) } */\n    tag_77:\n        /* \"contracts/CErc20Delegator.sol\":23111:23127  returndatasize() */\n      returndatasize\n        /* \"contracts/CErc20Delegator.sol\":23097:23109  free_mem_ptr */\n      dup3\n        /* \"contracts/CErc20Delegator.sol\":23090:23128  revert(free_mem_ptr, returndatasize()) */\n      revert\n        /* \"contracts/CTokenInterfaces.sol\":402:420  string public name */\n    tag_3:\n      callvalue\n      dup1\n      iszero\n      tag_78\n      jumpi\n      0x00\n      dup1\n      revert\n    tag_78:\n      pop\n      tag_79\n      tag_80\n      jump\t// in\n    tag_79:\n      mload(0x40)\n      tag_81\n      swap2\n      swap1\n      tag_82\n      jump\t// in\n    tag_81:\n      mload(0x40)\n      dup1\n      swap2\n      sub\n      swap1\n      return\n        /* \"contracts/CErc20Delegator.sol\":21492:21631  function delegateToImplementation(bytes memory data) public returns (bytes memory) {... */\n    tag_4:\n      callvalue\n      dup1\n      iszero\n      tag_83\n      jumpi\n      0x00\n      dup1\n      revert\n    tag_83:\n      pop\n      tag_79\n      tag_85\n      calldatasize\n      0x04\n      tag_86\n      jump\t// in\n    tag_85:\n      tag_87\n      jump\t// in\n        /* \"contracts/CErc20Delegator.sol\":9297:9552  function approve(address spender, uint256 amount) override external returns (bool) {... */\n    tag_5:\n      callvalue\n      dup1\n      iszero\n      tag_90\n      jumpi\n      0x00\n      dup1\n      revert\n    tag_90:\n      pop\n      tag_91\n      tag_92\n      calldatasize\n      0x04\n      tag_93\n      jump\t// in\n    tag_92:\n      tag_94\n      jump\t// in\n    tag_91:\n      mload(0x40)\n        /* \"#utility.yul\":3704:3718   */\n      swap1\n      iszero\n        /* \"#utility.yul\":3697:3719   */\n      iszero\n        /* \"#utility.yul\":3679:3720   */\n      dup2\n      mstore\n        /* \"#utility.yul\":3667:3669   */\n      0x20\n        /* \"#utility.yul\":3652:3670   */\n      add\n        /* \"contracts/CErc20Delegator.sol\":9297:9552  function approve(address spender, uint256 amount) override external returns (bool) {... */\n      tag_81\n        /* \"#utility.yul\":3539:3726   */\n      jump\n        /* \"contracts/CErc20Delegator.sol\":6106:6342  function repayBorrow(uint repayAmount) override external returns (uint) {... */\n    tag_6:\n      callvalue\n      dup1\n      iszero\n      tag_97\n      jumpi\n      0x00\n      dup1\n      revert\n    tag_97:\n      pop\n      tag_98\n      tag_99\n      calldatasize\n      0x04\n      tag_100\n      jump\t// in\n    tag_99:\n      tag_101\n      jump\t// in\n    tag_98:\n      mload(0x40)\n        /* \"#utility.yul\":4062:4087   */\n      swap1\n      dup2\n      mstore\n        /* \"#utility.yul\":4050:4052   */\n      0x20\n        /* \"#utility.yul\":4035:4053   */\n      add\n        /* \"contracts/CErc20Delegator.sol\":6106:6342  function repayBorrow(uint repayAmount) override external returns (uint) {... */\n      tag_81\n        /* \"#utility.yul\":3916:4093   */\n      jump\n        /* \"contracts/CTokenInterfaces.sol\":1581:1614  uint public reserveFactorMantissa */\n    tag_7:\n      callvalue\n      dup1\n      iszero\n      tag_104\n      jumpi\n      0x00\n      dup1\n      revert\n    tag_104:\n      pop\n      tag_98\n      sload(0x08)\n      dup2\n      jump\n        /* \"contracts/CErc20Delegator.sol\":13100:13349  function borrowBalanceCurrent(address account) override external returns (uint) {... */\n    tag_8:\n      callvalue\n      dup1\n      iszero\n      tag_108\n      jumpi\n      0x00\n      dup1\n      revert\n    tag_108:\n      pop\n      tag_98\n      tag_110\n      calldatasize\n      0x04\n      tag_111\n      jump\t// in\n    tag_110:\n      tag_112\n      jump\t// in\n        /* \"contracts/CTokenInterfaces.sol\":2201:2224  uint public totalSupply */\n    tag_9:\n      callvalue\n      dup1\n      iszero\n      tag_114\n      jumpi\n      0x00\n      dup1\n      revert\n    tag_114:\n      pop\n      tag_98\n      sload(0x0d)\n      dup2\n      jump\n        /* \"contracts/CErc20Delegator.sol\":14411:14632  function exchangeRateStored() override public view returns (uint) {... */\n    tag_10:\n      callvalue\n      dup1\n      iszero\n      tag_118\n      jumpi\n      0x00\n      dup1\n      revert\n    tag_118:\n      pop\n      tag_98\n      tag_120\n      jump\t// in\n        /* \"contracts/CErc20Delegator.sol\":16507:16674  function sweepToken(EIP20NonStandardInterface token) override external {... */\n    tag_11:\n      callvalue\n      dup1\n      iszero\n      tag_122\n      jumpi\n      0x00\n      dup1\n      revert\n    tag_122:\n      pop\n      tag_123\n      tag_124\n      calldatasize\n      0x04\n      tag_111\n      jump\t// in\n    tag_124:\n      tag_126\n      jump\t// in\n    tag_123:\n      stop\n        /* \"contracts/CErc20Delegator.sol\":8554:8837  function transferFrom(address src, address dst, uint256 amount) override external returns (bool) {... */\n    tag_12:\n      callvalue\n      dup1\n      iszero\n      tag_127\n      jumpi\n      0x00\n      dup1\n      revert\n    tag_127:\n      pop\n      tag_91\n      tag_129\n      calldatasize\n      0x04\n      tag_130\n      jump\t// in\n    tag_129:\n      tag_131\n      jump\t// in\n        /* \"contracts/CErc20Delegator.sol\":6661:6945  function repayBorrowBehalf(address borrower, uint repayAmount) override external returns (uint) {... */\n    tag_13:\n      callvalue\n      dup1\n      iszero\n      tag_133\n      jumpi\n      0x00\n      dup1\n      revert\n    tag_133:\n      pop\n      tag_98\n      tag_135\n      calldatasize\n      0x04\n      tag_93\n      jump\t// in\n    tag_135:\n      tag_136\n      jump\t// in\n        /* \"contracts/CTokenInterfaces.sol\":1049:1084  address payable public pendingAdmin */\n    tag_14:\n      callvalue\n      dup1\n      iszero\n      tag_138\n      jumpi\n      0x00\n      dup1\n      revert\n    tag_138:\n      pop\n      sload(0x04)\n      tag_139\n      swap1\n      sub(shl(0xa0, 0x01), 0x01)\n      and\n      dup2\n      jump\n    tag_139:\n      mload(0x40)\n      sub(shl(0xa0, 0x01), 0x01)\n        /* \"#utility.yul\":5277:5309   */\n      swap1\n      swap2\n      and\n        /* \"#utility.yul\":5259:5310   */\n      dup2\n      mstore\n        /* \"#utility.yul\":5247:5249   */\n      0x20\n        /* \"#utility.yul\":5232:5250   */\n      add\n        /* \"contracts/CTokenInterfaces.sol\":1049:1084  address payable public pendingAdmin */\n      tag_81\n        /* \"#utility.yul\":5097:5316   */\n      jump\n        /* \"contracts/CTokenInterfaces.sol\":588:609  uint8 public decimals */\n    tag_15:\n      callvalue\n      dup1\n      iszero\n      tag_143\n      jumpi\n      0x00\n      dup1\n      revert\n    tag_143:\n      pop\n      sload(0x03)\n      tag_144\n      swap1\n      0xff\n      and\n      dup2\n      jump\n    tag_144:\n      mload(0x40)\n        /* \"#utility.yul\":5493:5497   */\n      0xff\n        /* \"#utility.yul\":5481:5498   */\n      swap1\n      swap2\n      and\n        /* \"#utility.yul\":5463:5499   */\n      dup2\n      mstore\n        /* \"#utility.yul\":5451:5453   */\n      0x20\n        /* \"#utility.yul\":5436:5454   */\n      add\n        /* \"contracts/CTokenInterfaces.sol\":588:609  uint8 public decimals */\n      tag_81\n        /* \"#utility.yul\":5321:5505   */\n      jump\n        /* \"contracts/CErc20Delegator.sol\":10803:11046  function balanceOfUnderlying(address owner) override external returns (uint) {... */\n    tag_16:\n      callvalue\n      dup1\n      iszero\n      tag_148\n      jumpi\n      0x00\n      dup1\n      revert\n    tag_148:\n      pop\n      tag_98\n      tag_150\n      calldatasize\n      0x04\n      tag_111\n      jump\t// in\n    tag_150:\n      tag_151\n      jump\t// in\n        /* \"contracts/CErc20Delegator.sol\":14796:14997  function getCash() override external view returns (uint) {... */\n    tag_17:\n      callvalue\n      dup1\n      iszero\n      tag_153\n      jumpi\n      0x00\n      dup1\n      revert\n    tag_153:\n      pop\n      tag_98\n      tag_155\n      jump\t// in\n        /* \"contracts/CErc20Delegator.sol\":19138:19372  function _addReserves(uint addAmount) override external returns (uint) {... */\n    tag_18:\n      callvalue\n      dup1\n      iszero\n      tag_157\n      jumpi\n      0x00\n      dup1\n      revert\n    tag_157:\n      pop\n      tag_98\n      tag_159\n      calldatasize\n      0x04\n      tag_100\n      jump\t// in\n    tag_159:\n      tag_160\n      jump\t// in\n        /* \"contracts/CErc20Delegator.sol\":22044:22472  function delegateToViewImplementation(bytes memory data) public view returns (bytes memory) {... */\n    tag_19:\n      callvalue\n      dup1\n      iszero\n      tag_162\n      jumpi\n      0x00\n      dup1\n      revert\n    tag_162:\n      pop\n      tag_79\n      tag_164\n      calldatasize\n      0x04\n      tag_86\n      jump\t// in\n    tag_164:\n      tag_165\n      jump\t// in\n        /* \"contracts/CErc20Delegator.sol\":17595:17859  function _setComptroller(ComptrollerInterface newComptroller) override public returns (uint) {... */\n    tag_20:\n      callvalue\n      dup1\n      iszero\n      tag_167\n      jumpi\n      0x00\n      dup1\n      revert\n    tag_167:\n      pop\n      tag_98\n      tag_169\n      calldatasize\n      0x04\n      tag_111\n      jump\t// in\n    tag_169:\n      tag_171\n      jump\t// in\n        /* \"contracts/CTokenInterfaces.sol\":1975:1999  uint public totalBorrows */\n    tag_21:\n      callvalue\n      dup1\n      iszero\n      tag_173\n      jumpi\n      0x00\n      dup1\n      revert\n    tag_173:\n      pop\n      tag_98\n      sload(0x0b)\n      dup2\n      jump\n        /* \"contracts/CErc20Delegator.sol\":3000:3640  function _setImplementation(address implementation_, bool allowResign, bytes memory becomeImplementationData)override public {... */\n    tag_22:\n      callvalue\n      dup1\n      iszero\n      tag_177\n      jumpi\n      0x00\n      dup1\n      revert\n    tag_177:\n      pop\n      tag_123\n      tag_179\n      calldatasize\n      0x04\n      tag_180\n      jump\t// in\n    tag_179:\n      tag_181\n      jump\t// in\n        /* \"contracts/CTokenInterfaces.sol\":8913:8942  address public implementation */\n    tag_23:\n      callvalue\n      dup1\n      iszero\n      tag_182\n      jumpi\n      0x00\n      dup1\n      revert\n    tag_182:\n      pop\n      sload(0x12)\n      tag_139\n      swap1\n      sub(shl(0xa0, 0x01), 0x01)\n      and\n      dup2\n      jump\n        /* \"contracts/CTokenInterfaces.sol\":1170:1209  ComptrollerInterface public comptroller */\n    tag_24:\n      callvalue\n      dup1\n      iszero\n      tag_187\n      jumpi\n      0x00\n      dup1\n      revert\n    tag_187:\n      pop\n      sload(0x05)\n      tag_139\n      swap1\n      sub(shl(0xa0, 0x01), 0x01)\n      and\n      dup2\n      jump\n        /* \"contracts/CErc20Delegator.sol\":19618:19864  function _reduceReserves(uint reduceAmount) override external returns (uint) {... */\n    tag_25:\n      callvalue\n      dup1\n      iszero\n      tag_192\n      jumpi\n      0x00\n      dup1\n      revert\n    tag_192:\n      pop\n      tag_98\n      tag_194\n      calldatasize\n      0x04\n      tag_100\n      jump\t// in\n    tag_194:\n      tag_195\n      jump\t// in\n        /* \"contracts/CTokenInterfaces.sol\":3072:3128  uint public constant protocolSeizeShareMantissa = 2.8e16 */\n    tag_26:\n      callvalue\n      dup1\n      iszero\n      tag_197\n      jumpi\n      0x00\n      dup1\n      revert\n    tag_197:\n      pop\n      tag_98\n        /* \"contracts/CTokenInterfaces.sol\":3122:3128  2.8e16 */\n      0x6379da05b60000\n        /* \"contracts/CTokenInterfaces.sol\":3072:3128  uint public constant protocolSeizeShareMantissa = 2.8e16 */\n      dup2\n      jump\n        /* \"contracts/CTokenInterfaces.sol\":1699:1729  uint public accrualBlockNumber */\n    tag_27:\n      callvalue\n      dup1\n      iszero\n      tag_201\n      jumpi\n      0x00\n      dup1\n      revert\n    tag_201:\n      pop\n      tag_98\n      sload(0x09)\n      dup2\n      jump\n        /* \"contracts/CTokenInterfaces.sol\":7905:7930  address public underlying */\n    tag_28:\n      callvalue\n      dup1\n      iszero\n      tag_205\n      jumpi\n      0x00\n      dup1\n      revert\n    tag_205:\n      pop\n      sload(0x11)\n      tag_139\n      swap1\n      sub(shl(0xa0, 0x01), 0x01)\n      and\n      dup2\n      jump\n        /* \"contracts/CErc20Delegator.sol\":10323:10555  function balanceOf(address owner) override external view returns (uint) {... */\n    tag_29:\n      callvalue\n      dup1\n      iszero\n      tag_209\n      jumpi\n      0x00\n      dup1\n      revert\n    tag_209:\n      pop\n      tag_98\n      tag_211\n      calldatasize\n      0x04\n      tag_111\n      jump\t// in\n    tag_211:\n      tag_212\n      jump\t// in\n        /* \"contracts/CErc20Delegator.sol\":12600:12816  function totalBorrowsCurrent() override external returns (uint) {... */\n    tag_30:\n      callvalue\n      dup1\n      iszero\n      tag_214\n      jumpi\n      0x00\n      dup1\n      revert\n    tag_214:\n      pop\n      tag_98\n      tag_216\n      jump\t// in\n        /* \"contracts/CErc20Delegator.sol\":5129:5377  function redeemUnderlying(uint redeemAmount) override external returns (uint) {... */\n    tag_31:\n      callvalue\n      dup1\n      iszero\n      tag_218\n      jumpi\n      0x00\n      dup1\n      revert\n    tag_218:\n      pop\n      tag_98\n      tag_220\n      calldatasize\n      0x04\n      tag_100\n      jump\t// in\n    tag_220:\n      tag_221\n      jump\t// in\n        /* \"contracts/CTokenInterfaces.sol\":2100:2125  uint public totalReserves */\n    tag_32:\n      callvalue\n      dup1\n      iszero\n      tag_223\n      jumpi\n      0x00\n      dup1\n      revert\n    tag_223:\n      pop\n      tag_98\n      sload(0x0c)\n      dup2\n      jump\n        /* \"contracts/CTokenInterfaces.sol\":493:513  string public symbol */\n    tag_33:\n      callvalue\n      dup1\n      iszero\n      tag_227\n      jumpi\n      0x00\n      dup1\n      revert\n    tag_227:\n      pop\n      tag_79\n      tag_229\n      jump\t// in\n        /* \"contracts/CErc20Delegator.sol\":13551:13805  function borrowBalanceStored(address account) override public view returns (uint) {... */\n    tag_34:\n      callvalue\n      dup1\n      iszero\n      tag_231\n      jumpi\n      0x00\n      dup1\n      revert\n    tag_231:\n      pop\n      tag_98\n      tag_233\n      calldatasize\n      0x04\n      tag_111\n      jump\t// in\n    tag_233:\n      tag_234\n      jump\t// in\n        /* \"contracts/CErc20Delegator.sol\":3990:4210  function mint(uint mintAmount) override external returns (uint) {... */\n    tag_35:\n      callvalue\n      dup1\n      iszero\n      tag_236\n      jumpi\n      0x00\n      dup1\n      revert\n    tag_236:\n      pop\n      tag_98\n      tag_238\n      calldatasize\n      0x04\n      tag_100\n      jump\t// in\n    tag_238:\n      tag_239\n      jump\t// in\n        /* \"contracts/CErc20Delegator.sol\":15246:15450  function accrueInterest() override public returns (uint) {... */\n    tag_36:\n      callvalue\n      dup1\n      iszero\n      tag_241\n      jumpi\n      0x00\n      dup1\n      revert\n    tag_241:\n      pop\n      tag_98\n      tag_243\n      jump\t// in\n        /* \"contracts/CErc20Delegator.sol\":8010:8256  function transfer(address dst, uint amount) override external returns (bool) {... */\n    tag_37:\n      callvalue\n      dup1\n      iszero\n      tag_245\n      jumpi\n      0x00\n      dup1\n      revert\n    tag_245:\n      pop\n      tag_91\n      tag_247\n      calldatasize\n      0x04\n      tag_93\n      jump\t// in\n    tag_247:\n      tag_248\n      jump\t// in\n        /* \"contracts/CTokenInterfaces.sol\":1845:1868  uint public borrowIndex */\n    tag_38:\n      callvalue\n      dup1\n      iszero\n      tag_250\n      jumpi\n      0x00\n      dup1\n      revert\n    tag_250:\n      pop\n      tag_98\n      sload(0x0a)\n      dup2\n      jump\n        /* \"contracts/CErc20Delegator.sol\":12237:12460  function supplyRatePerBlock() override external view returns (uint) {... */\n    tag_39:\n      callvalue\n      dup1\n      iszero\n      tag_254\n      jumpi\n      0x00\n      dup1\n      revert\n    tag_254:\n      pop\n      tag_98\n      tag_256\n      jump\t// in\n        /* \"contracts/CErc20Delegator.sol\":16000:16300  function seize(address liquidator, address borrower, uint seizeTokens) override external returns (uint) {... */\n    tag_40:\n      callvalue\n      dup1\n      iszero\n      tag_258\n      jumpi\n      0x00\n      dup1\n      revert\n    tag_258:\n      pop\n      tag_98\n      tag_260\n      calldatasize\n      0x04\n      tag_130\n      jump\t// in\n    tag_260:\n      tag_261\n      jump\t// in\n        /* \"contracts/CErc20Delegator.sol\":17112:17377  function _setPendingAdmin(address payable newPendingAdmin) override external returns (uint) {... */\n    tag_41:\n      callvalue\n      dup1\n      iszero\n      tag_263\n      jumpi\n      0x00\n      dup1\n      revert\n    tag_263:\n      pop\n      tag_98\n      tag_265\n      calldatasize\n      0x04\n      tag_111\n      jump\t// in\n    tag_265:\n      tag_267\n      jump\t// in\n        /* \"contracts/CErc20Delegator.sol\":13954:14168  function exchangeRateCurrent() override public returns (uint) {... */\n    tag_42:\n      callvalue\n      dup1\n      iszero\n      tag_269\n      jumpi\n      0x00\n      dup1\n      revert\n    tag_269:\n      pop\n      tag_98\n      tag_271\n      jump\t// in\n        /* \"contracts/CErc20Delegator.sol\":11384:11674  function getAccountSnapshot(address account) override external view returns (uint, uint, uint, uint) {... */\n    tag_43:\n      callvalue\n      dup1\n      iszero\n      tag_273\n      jumpi\n      0x00\n      dup1\n      revert\n    tag_273:\n      pop\n      tag_274\n      tag_275\n      calldatasize\n      0x04\n      tag_111\n      jump\t// in\n    tag_275:\n      tag_276\n      jump\t// in\n    tag_274:\n      0x40\n      dup1\n      mload\n        /* \"#utility.yul\":7445:7470   */\n      swap5\n      dup6\n      mstore\n        /* \"#utility.yul\":7501:7503   */\n      0x20\n        /* \"#utility.yul\":7486:7504   */\n      dup6\n      add\n        /* \"#utility.yul\":7479:7513   */\n      swap4\n      swap1\n      swap4\n      mstore\n        /* \"#utility.yul\":7529:7547   */\n      swap2\n      dup4\n      add\n        /* \"#utility.yul\":7522:7556   */\n      mstore\n        /* \"#utility.yul\":7587:7589   */\n      0x60\n        /* \"#utility.yul\":7572:7590   */\n      dup3\n      add\n        /* \"#utility.yul\":7565:7599   */\n      mstore\n        /* \"#utility.yul\":7432:7435   */\n      0x80\n        /* \"#utility.yul\":7417:7436   */\n      add\n        /* \"contracts/CErc20Delegator.sol\":11384:11674  function getAccountSnapshot(address account) override external view returns (uint, uint, uint, uint) {... */\n      tag_81\n        /* \"#utility.yul\":7214:7605   */\n      jump\n        /* \"contracts/CErc20Delegator.sol\":5638:5866  function borrow(uint borrowAmount) override external returns (uint) {... */\n    tag_44:\n      callvalue\n      dup1\n      iszero\n      tag_279\n      jumpi\n      0x00\n      dup1\n      revert\n    tag_279:\n      pop\n      tag_98\n      tag_281\n      calldatasize\n      0x04\n      tag_100\n      jump\t// in\n    tag_281:\n      tag_282\n      jump\t// in\n        /* \"contracts/CErc20Delegator.sol\":4553:4781  function redeem(uint redeemTokens) override external returns (uint) {... */\n    tag_45:\n      callvalue\n      dup1\n      iszero\n      tag_284\n      jumpi\n      0x00\n      dup1\n      revert\n    tag_284:\n      pop\n      tag_98\n      tag_286\n      calldatasize\n      0x04\n      tag_100\n      jump\t// in\n    tag_286:\n      tag_287\n      jump\t// in\n        /* \"contracts/CErc20Delegator.sol\":9874:10140  function allowance(address owner, address spender) override external view returns (uint) {... */\n    tag_46:\n      callvalue\n      dup1\n      iszero\n      tag_289\n      jumpi\n      0x00\n      dup1\n      revert\n    tag_289:\n      pop\n      tag_98\n      tag_291\n      calldatasize\n      0x04\n      tag_292\n      jump\t// in\n    tag_291:\n      tag_293\n      jump\t// in\n        /* \"contracts/CErc20Delegator.sol\":18700:18902  function _acceptAdmin() override external returns (uint) {... */\n    tag_47:\n      callvalue\n      dup1\n      iszero\n      tag_295\n      jumpi\n      0x00\n      dup1\n      revert\n    tag_295:\n      pop\n      tag_98\n      tag_297\n      jump\t// in\n        /* \"contracts/CErc20Delegator.sol\":20225:20510  function _setInterestRateModel(InterestRateModel newInterestRateModel) override public returns (uint) {... */\n    tag_48:\n      callvalue\n      dup1\n      iszero\n      tag_299\n      jumpi\n      0x00\n      dup1\n      revert\n    tag_299:\n      pop\n      tag_98\n      tag_301\n      calldatasize\n      0x04\n      tag_111\n      jump\t// in\n    tag_301:\n      tag_303\n      jump\t// in\n        /* \"contracts/CTokenInterfaces.sol\":1306:1348  InterestRateModel public interestRateModel */\n    tag_49:\n      callvalue\n      dup1\n      iszero\n      tag_305\n      jumpi\n      0x00\n      dup1\n      revert\n    tag_305:\n      pop\n      sload(0x06)\n      tag_139\n      swap1\n      sub(shl(0xa0, 0x01), 0x01)\n      and\n      dup2\n      jump\n        /* \"contracts/CErc20Delegator.sol\":7417:7757  function liquidateBorrow(address borrower, uint repayAmount, CTokenInterface cTokenCollateral) override external returns (uint) {... */\n    tag_50:\n      callvalue\n      dup1\n      iszero\n      tag_310\n      jumpi\n      0x00\n      dup1\n      revert\n    tag_310:\n      pop\n      tag_98\n      tag_312\n      calldatasize\n      0x04\n      tag_313\n      jump\t// in\n    tag_312:\n      tag_314\n      jump\t// in\n        /* \"contracts/CTokenInterfaces.sol\":943:971  address payable public admin */\n    tag_51:\n      callvalue\n      dup1\n      iszero\n      tag_316\n      jumpi\n      0x00\n      dup1\n      revert\n    tag_316:\n      pop\n      sload(0x03)\n      tag_139\n      swap1\n      0x0100\n      swap1\n      div\n      sub(shl(0xa0, 0x01), 0x01)\n      and\n      dup2\n      jump\n        /* \"contracts/CErc20Delegator.sol\":11844:12067  function borrowRatePerBlock() override external view returns (uint) {... */\n    tag_52:\n      callvalue\n      dup1\n      iszero\n      tag_320\n      jumpi\n      0x00\n      dup1\n      revert\n    tag_320:\n      pop\n      tag_98\n      tag_322\n      jump\t// in\n        /* \"contracts/CErc20Delegator.sol\":18155:18429  function _setReserveFactor(uint newReserveFactorMantissa) override external returns (uint) {... */\n    tag_53:\n      callvalue\n      dup1\n      iszero\n      tag_324\n      jumpi\n      0x00\n      dup1\n      revert\n    tag_324:\n      pop\n      tag_98\n      tag_326\n      calldatasize\n      0x04\n      tag_100\n      jump\t// in\n    tag_326:\n      tag_327\n      jump\t// in\n        /* \"contracts/CTokenInterfaces.sol\":3286:3322  bool public constant isCToken = true */\n    tag_54:\n      callvalue\n      dup1\n      iszero\n      tag_329\n      jumpi\n      0x00\n      dup1\n      revert\n    tag_329:\n      pop\n      tag_91\n        /* \"contracts/CTokenInterfaces.sol\":3318:3322  true */\n      0x01\n        /* \"contracts/CTokenInterfaces.sol\":3286:3322  bool public constant isCToken = true */\n      dup2\n      jump\n        /* \"contracts/CTokenInterfaces.sol\":402:420  string public name */\n    tag_80:\n      0x01\n      dup1\n      sload\n      tag_333\n      swap1\n      tag_334\n      jump\t// in\n    tag_333:\n      dup1\n      0x1f\n      add\n      0x20\n      dup1\n      swap2\n      div\n      mul\n      0x20\n      add\n      mload(0x40)\n      swap1\n      dup2\n      add\n      0x40\n      mstore\n      dup1\n      swap3\n      swap2\n      swap1\n      dup2\n      dup2\n      mstore\n      0x20\n      add\n      dup3\n      dup1\n      sload\n      tag_335\n      swap1\n      tag_334\n      jump\t// in\n    tag_335:\n      dup1\n      iszero\n      tag_336\n      jumpi\n      dup1\n      0x1f\n      lt\n      tag_337\n      jumpi\n      0x0100\n      dup1\n      dup4\n      sload\n      div\n      mul\n      dup4\n      mstore\n      swap2\n      0x20\n      add\n      swap2\n      jump(tag_336)\n    tag_337:\n      dup3\n      add\n      swap2\n      swap1\n      0x00\n      mstore\n      keccak256(0x00, 0x20)\n      swap1\n    tag_338:\n      dup2\n      sload\n      dup2\n      mstore\n      swap1\n      0x01\n      add\n      swap1\n      0x20\n      add\n      dup1\n      dup4\n      gt\n      tag_338\n      jumpi\n      dup3\n      swap1\n      sub\n      0x1f\n      and\n      dup3\n      add\n      swap2\n    tag_336:\n      pop\n      pop\n      pop\n      pop\n      pop\n      dup2\n      jump\t// out\n        /* \"contracts/CErc20Delegator.sol\":21492:21631  function delegateToImplementation(bytes memory data) public returns (bytes memory) {... */\n    tag_87:\n        /* \"contracts/CErc20Delegator.sol\":21603:21617  implementation */\n      sload(0x12)\n        /* \"contracts/CErc20Delegator.sol\":21561:21573  bytes memory */\n      0x60\n      swap1\n        /* \"contracts/CErc20Delegator.sol\":21592:21624  delegateTo(implementation, data) */\n      tag_340\n      swap1\n      sub(shl(0xa0, 0x01), 0x01)\n        /* \"contracts/CErc20Delegator.sol\":21603:21617  implementation */\n      and\n        /* \"contracts/CErc20Delegator.sol\":21619:21623  data */\n      dup4\n        /* \"contracts/CErc20Delegator.sol\":21592:21602  delegateTo */\n      tag_341\n        /* \"contracts/CErc20Delegator.sol\":21592:21624  delegateTo(implementation, data) */\n      jump\t// in\n    tag_340:\n        /* \"contracts/CErc20Delegator.sol\":21585:21624  return delegateTo(implementation, data) */\n      swap3\n        /* \"contracts/CErc20Delegator.sol\":21492:21631  function delegateToImplementation(bytes memory data) public returns (bytes memory) {... */\n      swap2\n      pop\n      pop\n      jump\t// out\n        /* \"contracts/CErc20Delegator.sol\":9297:9552  function approve(address spender, uint256 amount) override external returns (bool) {... */\n    tag_94:\n        /* \"contracts/CErc20Delegator.sol\":9435:9503  abi.encodeWithSignature(\"approve(address,uint256)\", spender, amount) */\n      mload(0x40)\n      sub(shl(0xa0, 0x01), 0x01)\n        /* \"#utility.yul\":9577:9609   */\n      dup4\n      and\n        /* \"contracts/CErc20Delegator.sol\":9435:9503  abi.encodeWithSignature(\"approve(address,uint256)\", spender, amount) */\n      0x24\n      dup3\n      add\n        /* \"#utility.yul\":9559:9610   */\n      mstore\n        /* \"#utility.yul\":9626:9644   */\n      0x44\n      dup2\n      add\n        /* \"#utility.yul\":9619:9653   */\n      dup3\n      swap1\n      mstore\n        /* \"contracts/CErc20Delegator.sol\":9374:9378  bool */\n      0x00\n      swap1\n      dup2\n      swap1\n        /* \"contracts/CErc20Delegator.sol\":9410:9504  delegateToImplementation(abi.encodeWithSignature(\"approve(address,uint256)\", spender, amount)) */\n      tag_343\n      swap1\n        /* \"#utility.yul\":9532:9550   */\n      0x64\n      add\n        /* \"contracts/CErc20Delegator.sol\":9435:9503  abi.encodeWithSignature(\"approve(address,uint256)\", spender, amount) */\n      0x40\n      dup1\n      mload\n      not(0x1f)\n      dup2\n      dup5\n      sub\n      add\n      dup2\n      mstore\n      swap2\n      swap1\n      mstore\n      0x20\n      dup2\n      add\n      dup1\n      mload\n      sub(shl(0xe0, 0x01), 0x01)\n      and\n      shl(0xe0, 0x095ea7b3)\n      or\n      swap1\n      mstore\n        /* \"contracts/CErc20Delegator.sol\":9410:9434  delegateToImplementation */\n      tag_87\n        /* \"contracts/CErc20Delegator.sol\":9410:9504  delegateToImplementation(abi.encodeWithSignature(\"approve(address,uint256)\", spender, amount)) */\n      jump\t// in\n    tag_343:\n        /* \"contracts/CErc20Delegator.sol\":9390:9504  bytes memory data = delegateToImplementation(abi.encodeWithSignature(\"approve(address,uint256)\", spender, amount)) */\n      swap1\n      pop\n        /* \"contracts/CErc20Delegator.sol\":9532:9536  data */\n      dup1\n        /* \"contracts/CErc20Delegator.sol\":9521:9545  abi.decode(data, (bool)) */\n      dup1\n      0x20\n      add\n      swap1\n      mload\n      dup2\n      add\n      swap1\n      tag_346\n      swap2\n      swap1\n      tag_347\n      jump\t// in\n    tag_346:\n        /* \"contracts/CErc20Delegator.sol\":9514:9545  return abi.decode(data, (bool)) */\n      swap5\n        /* \"contracts/CErc20Delegator.sol\":9297:9552  function approve(address spender, uint256 amount) override external returns (bool) {... */\n      swap4\n      pop\n      pop\n      pop\n      pop\n      jump\t// out\n        /* \"contracts/CErc20Delegator.sol\":6106:6342  function repayBorrow(uint repayAmount) override external returns (uint) {... */\n    tag_101:\n        /* \"contracts/CErc20Delegator.sol\":6172:6176  uint */\n      0x00\n        /* \"contracts/CErc20Delegator.sol\":6188:6205  bytes memory data */\n      dup1\n        /* \"contracts/CErc20Delegator.sol\":6208:6294  delegateToImplementation(abi.encodeWithSignature(\"repayBorrow(uint256)\", repayAmount)) */\n      tag_349\n        /* \"contracts/CErc20Delegator.sol\":6281:6292  repayAmount */\n      dup4\n        /* \"contracts/CErc20Delegator.sol\":6233:6293  abi.encodeWithSignature(\"repayBorrow(uint256)\", repayAmount) */\n      add(0x24, mload(0x40))\n      tag_350\n      swap2\n        /* \"#utility.yul\":4062:4087   */\n      dup2\n      mstore\n        /* \"#utility.yul\":4050:4052   */\n      0x20\n        /* \"#utility.yul\":4035:4053   */\n      add\n      swap1\n        /* \"#utility.yul\":3916:4093   */\n      jump\n        /* \"contracts/CErc20Delegator.sol\":6233:6293  abi.encodeWithSignature(\"repayBorrow(uint256)\", repayAmount) */\n    tag_350:\n      0x40\n      dup1\n      mload\n      not(0x1f)\n      dup2\n      dup5\n      sub\n      add\n      dup2\n      mstore\n      swap2\n      swap1\n      mstore\n      0x20\n      dup2\n      add\n      dup1\n      mload\n      sub(shl(0xe0, 0x01), 0x01)\n      and\n      shl(0xe1, 0x073a9381)\n      or\n      swap1\n      mstore\n        /* \"contracts/CErc20Delegator.sol\":6208:6232  delegateToImplementation */\n      tag_87\n        /* \"contracts/CErc20Delegator.sol\":6208:6294  delegateToImplementation(abi.encodeWithSignature(\"repayBorrow(uint256)\", repayAmount)) */\n      jump\t// in\n    tag_349:\n        /* \"contracts/CErc20Delegator.sol\":6188:6294  bytes memory data = delegateToImplementation(abi.encodeWithSignature(\"repayBorrow(uint256)\", repayAmount)) */\n      swap1\n      pop\n        /* \"contracts/CErc20Delegator.sol\":6322:6326  data */\n      dup1\n        /* \"contracts/CErc20Delegator.sol\":6311:6335  abi.decode(data, (uint)) */\n      dup1\n      0x20\n      add\n      swap1\n      mload\n      dup2\n      add\n      swap1\n      tag_351\n      swap2\n      swap1\n      tag_352\n      jump\t// in\n    tag_351:\n        /* \"contracts/CErc20Delegator.sol\":6304:6335  return abi.decode(data, (uint)) */\n      swap4\n        /* \"contracts/CErc20Delegator.sol\":6106:6342  function repayBorrow(uint repayAmount) override external returns (uint) {... */\n      swap3\n      pop\n      pop\n      pop\n      jump\t// out\n        /* \"contracts/CErc20Delegator.sol\":13100:13349  function borrowBalanceCurrent(address account) override external returns (uint) {... */\n    tag_112:\n        /* \"contracts/CErc20Delegator.sol\":13235:13300  abi.encodeWithSignature(\"borrowBalanceCurrent(address)\", account) */\n      mload(0x40)\n      sub(shl(0xa0, 0x01), 0x01)\n        /* \"#utility.yul\":5277:5309   */\n      dup3\n      and\n        /* \"contracts/CErc20Delegator.sol\":13235:13300  abi.encodeWithSignature(\"borrowBalanceCurrent(address)\", account) */\n      0x24\n      dup3\n      add\n        /* \"#utility.yul\":5259:5310   */\n      mstore\n        /* \"contracts/CErc20Delegator.sol\":13174:13178  uint */\n      0x00\n      swap1\n      dup2\n      swap1\n        /* \"contracts/CErc20Delegator.sol\":13210:13301  delegateToImplementation(abi.encodeWithSignature(\"borrowBalanceCurrent(address)\", account)) */\n      tag_349\n      swap1\n        /* \"#utility.yul\":5232:5250   */\n      0x44\n      add\n        /* \"contracts/CErc20Delegator.sol\":13235:13300  abi.encodeWithSignature(\"borrowBalanceCurrent(address)\", account) */\n      0x40\n      dup1\n      mload\n      not(0x1f)\n      dup2\n      dup5\n      sub\n      add\n      dup2\n      mstore\n      swap2\n      swap1\n      mstore\n      0x20\n      dup2\n      add\n      dup1\n      mload\n      sub(shl(0xe0, 0x01), 0x01)\n      and\n      shl(0xe2, 0x05eff7ef)\n      or\n      swap1\n      mstore\n        /* \"contracts/CErc20Delegator.sol\":13210:13234  delegateToImplementation */\n      tag_87\n        /* \"contracts/CErc20Delegator.sol\":13210:13301  delegateToImplementation(abi.encodeWithSignature(\"borrowBalanceCurrent(address)\", account)) */\n      jump\t// in\n        /* \"contracts/CErc20Delegator.sol\":14411:14632  function exchangeRateStored() override public view returns (uint) {... */\n    tag_120:\n        /* \"contracts/CErc20Delegator.sol\":14536:14583  abi.encodeWithSignature(\"exchangeRateStored()\") */\n      0x40\n      dup1\n      mload\n      0x04\n      dup2\n      mstore\n      0x24\n      dup2\n      add\n      swap1\n      swap2\n      mstore\n      0x20\n      dup2\n      add\n      dup1\n      mload\n      sub(shl(0xe0, 0x01), 0x01)\n      and\n      shl(0xe0, 0x182df0f5)\n      or\n      swap1\n      mstore\n        /* \"contracts/CErc20Delegator.sol\":14471:14475  uint */\n      0x00\n      swap1\n      dup2\n      swap1\n        /* \"contracts/CErc20Delegator.sol\":14507:14584  delegateToViewImplementation(abi.encodeWithSignature(\"exchangeRateStored()\")) */\n      tag_358\n      swap1\n        /* \"contracts/CErc20Delegator.sol\":14507:14535  delegateToViewImplementation */\n      tag_165\n        /* \"contracts/CErc20Delegator.sol\":14507:14584  delegateToViewImplementation(abi.encodeWithSignature(\"exchangeRateStored()\")) */\n      jump\t// in\n    tag_358:\n        /* \"contracts/CErc20Delegator.sol\":14487:14584  bytes memory data = delegateToViewImplementation(abi.encodeWithSignature(\"exchangeRateStored()\")) */\n      swap1\n      pop\n        /* \"contracts/CErc20Delegator.sol\":14612:14616  data */\n      dup1\n        /* \"contracts/CErc20Delegator.sol\":14601:14625  abi.decode(data, (uint)) */\n      dup1\n      0x20\n      add\n      swap1\n      mload\n      dup2\n      add\n      swap1\n      tag_359\n      swap2\n      swap1\n      tag_352\n      jump\t// in\n    tag_359:\n        /* \"contracts/CErc20Delegator.sol\":14594:14625  return abi.decode(data, (uint)) */\n      swap2\n      pop\n      pop\n        /* \"contracts/CErc20Delegator.sol\":14411:14632  function exchangeRateStored() override public view returns (uint) {... */\n      swap1\n      jump\t// out\n        /* \"contracts/CErc20Delegator.sol\":16507:16674  function sweepToken(EIP20NonStandardInterface token) override external {... */\n    tag_126:\n        /* \"contracts/CErc20Delegator.sol\":16613:16666  abi.encodeWithSignature(\"sweepToken(address)\", token) */\n      mload(0x40)\n      sub(shl(0xa0, 0x01), 0x01)\n        /* \"#utility.yul\":5277:5309   */\n      dup3\n      and\n        /* \"contracts/CErc20Delegator.sol\":16613:16666  abi.encodeWithSignature(\"sweepToken(address)\", token) */\n      0x24\n      dup3\n      add\n        /* \"#utility.yul\":5259:5310   */\n      mstore\n        /* \"contracts/CErc20Delegator.sol\":16588:16667  delegateToImplementation(abi.encodeWithSignature(\"sweepToken(address)\", token)) */\n      tag_361\n      swap1\n        /* \"#utility.yul\":5232:5250   */\n      0x44\n      add\n        /* \"contracts/CErc20Delegator.sol\":16613:16666  abi.encodeWithSignature(\"sweepToken(address)\", token) */\n      0x40\n      dup1\n      mload\n      not(0x1f)\n      dup2\n      dup5\n      sub\n      add\n      dup2\n      mstore\n      swap2\n      swap1\n      mstore\n      0x20\n      dup2\n      add\n      dup1\n      mload\n      sub(shl(0xe0, 0x01), 0x01)\n      and\n      shl(0xe5, 0xdf0cab)\n      or\n      swap1\n      mstore\n        /* \"contracts/CErc20Delegator.sol\":16588:16612  delegateToImplementation */\n      tag_87\n        /* \"contracts/CErc20Delegator.sol\":16588:16667  delegateToImplementation(abi.encodeWithSignature(\"sweepToken(address)\", token)) */\n      jump\t// in\n    tag_361:\n      pop\n        /* \"contracts/CErc20Delegator.sol\":16507:16674  function sweepToken(EIP20NonStandardInterface token) override external {... */\n      pop\n      jump\t// out\n        /* \"contracts/CErc20Delegator.sol\":8554:8837  function transferFrom(address src, address dst, uint256 amount) override external returns (bool) {... */\n    tag_131:\n        /* \"contracts/CErc20Delegator.sol\":8706:8788  abi.encodeWithSignature(\"transferFrom(address,address,uint256)\", src, dst, amount) */\n      mload(0x40)\n      sub(shl(0xa0, 0x01), 0x01)\n        /* \"#utility.yul\":10603:10618   */\n      dup1\n      dup6\n      and\n        /* \"contracts/CErc20Delegator.sol\":8706:8788  abi.encodeWithSignature(\"transferFrom(address,address,uint256)\", src, dst, amount) */\n      0x24\n      dup4\n      add\n        /* \"#utility.yul\":10585:10619   */\n      mstore\n        /* \"#utility.yul\":10655:10670   */\n      dup4\n      and\n        /* \"#utility.yul\":10635:10653   */\n      0x44\n      dup3\n      add\n        /* \"#utility.yul\":10628:10671   */\n      mstore\n        /* \"#utility.yul\":10687:10705   */\n      0x64\n      dup2\n      add\n        /* \"#utility.yul\":10680:10714   */\n      dup3\n      swap1\n      mstore\n        /* \"contracts/CErc20Delegator.sol\":8645:8649  bool */\n      0x00\n      swap1\n      dup2\n      swap1\n        /* \"contracts/CErc20Delegator.sol\":8681:8789  delegateToImplementation(abi.encodeWithSignature(\"transferFrom(address,address,uint256)\", src, dst, amount)) */\n      tag_365\n      swap1\n        /* \"#utility.yul\":10520:10538   */\n      0x84\n      add\n        /* \"contracts/CErc20Delegator.sol\":8706:8788  abi.encodeWithSignature(\"transferFrom(address,address,uint256)\", src, dst, amount) */\n      0x40\n      dup1\n      mload\n      not(0x1f)\n      dup2\n      dup5\n      sub\n      add\n      dup2\n      mstore\n      swap2\n      swap1\n      mstore\n      0x20\n      dup2\n      add\n      dup1\n      mload\n      sub(shl(0xe0, 0x01), 0x01)\n      and\n      shl(0xe0, 0x23b872dd)\n      or\n      swap1\n      mstore\n        /* \"contracts/CErc20Delegator.sol\":8681:8705  delegateToImplementation */\n      tag_87\n        /* \"contracts/CErc20Delegator.sol\":8681:8789  delegateToImplementation(abi.encodeWithSignature(\"transferFrom(address,address,uint256)\", src, dst, amount)) */\n      jump\t// in\n    tag_365:\n        /* \"contracts/CErc20Delegator.sol\":8661:8789  bytes memory data = delegateToImplementation(abi.encodeWithSignature(\"transferFrom(address,address,uint256)\", src, dst, amount)) */\n      swap1\n      pop\n        /* \"contracts/CErc20Delegator.sol\":8817:8821  data */\n      dup1\n        /* \"contracts/CErc20Delegator.sol\":8806:8830  abi.decode(data, (bool)) */\n      dup1\n      0x20\n      add\n      swap1\n      mload\n      dup2\n      add\n      swap1\n      tag_368\n      swap2\n      swap1\n      tag_347\n      jump\t// in\n    tag_368:\n        /* \"contracts/CErc20Delegator.sol\":8799:8830  return abi.decode(data, (bool)) */\n      swap6\n        /* \"contracts/CErc20Delegator.sol\":8554:8837  function transferFrom(address src, address dst, uint256 amount) override external returns (bool) {... */\n      swap5\n      pop\n      pop\n      pop\n      pop\n      pop\n      jump\t// out\n        /* \"contracts/CErc20Delegator.sol\":6661:6945  function repayBorrowBehalf(address borrower, uint repayAmount) override external returns (uint) {... */\n    tag_136:\n        /* \"contracts/CErc20Delegator.sol\":6812:6896  abi.encodeWithSignature(\"repayBorrowBehalf(address,uint256)\", borrower, repayAmount) */\n      mload(0x40)\n      sub(shl(0xa0, 0x01), 0x01)\n        /* \"#utility.yul\":9577:9609   */\n      dup4\n      and\n        /* \"contracts/CErc20Delegator.sol\":6812:6896  abi.encodeWithSignature(\"repayBorrowBehalf(address,uint256)\", borrower, repayAmount) */\n      0x24\n      dup3\n      add\n        /* \"#utility.yul\":9559:9610   */\n      mstore\n        /* \"#utility.yul\":9626:9644   */\n      0x44\n      dup2\n      add\n        /* \"#utility.yul\":9619:9653   */\n      dup3\n      swap1\n      mstore\n        /* \"contracts/CErc20Delegator.sol\":6751:6755  uint */\n      0x00\n      swap1\n      dup2\n      swap1\n        /* \"contracts/CErc20Delegator.sol\":6787:6897  delegateToImplementation(abi.encodeWithSignature(\"repayBorrowBehalf(address,uint256)\", borrower, repayAmount)) */\n      tag_370\n      swap1\n        /* \"#utility.yul\":9532:9550   */\n      0x64\n      add\n        /* \"contracts/CErc20Delegator.sol\":6812:6896  abi.encodeWithSignature(\"repayBorrowBehalf(address,uint256)\", borrower, repayAmount) */\n      0x40\n      dup1\n      mload\n      not(0x1f)\n      dup2\n      dup5\n      sub\n      add\n      dup2\n      mstore\n      swap2\n      swap1\n      mstore\n      0x20\n      dup2\n      add\n      dup1\n      mload\n      sub(shl(0xe0, 0x01), 0x01)\n      and\n      shl(0xe3, 0x04c11f03)\n      or\n      swap1\n      mstore\n        /* \"contracts/CErc20Delegator.sol\":6787:6811  delegateToImplementation */\n      tag_87\n        /* \"contracts/CErc20Delegator.sol\":6787:6897  delegateToImplementation(abi.encodeWithSignature(\"repayBorrowBehalf(address,uint256)\", borrower, repayAmount)) */\n      jump\t// in\n    tag_370:\n        /* \"contracts/CErc20Delegator.sol\":6767:6897  bytes memory data = delegateToImplementation(abi.encodeWithSignature(\"repayBorrowBehalf(address,uint256)\", borrower, repayAmount)) */\n      swap1\n      pop\n        /* \"contracts/CErc20Delegator.sol\":6925:6929  data */\n      dup1\n        /* \"contracts/CErc20Delegator.sol\":6914:6938  abi.decode(data, (uint)) */\n      dup1\n      0x20\n      add\n      swap1\n      mload\n      dup2\n      add\n      swap1\n      tag_346\n      swap2\n      swap1\n      tag_352\n      jump\t// in\n        /* \"contracts/CErc20Delegator.sol\":10803:11046  function balanceOfUnderlying(address owner) override external returns (uint) {... */\n    tag_151:\n        /* \"contracts/CErc20Delegator.sol\":10935:10997  abi.encodeWithSignature(\"balanceOfUnderlying(address)\", owner) */\n      mload(0x40)\n      sub(shl(0xa0, 0x01), 0x01)\n        /* \"#utility.yul\":5277:5309   */\n      dup3\n      and\n        /* \"contracts/CErc20Delegator.sol\":10935:10997  abi.encodeWithSignature(\"balanceOfUnderlying(address)\", owner) */\n      0x24\n      dup3\n      add\n        /* \"#utility.yul\":5259:5310   */\n      mstore\n        /* \"contracts/CErc20Delegator.sol\":10874:10878  uint */\n      0x00\n      swap1\n      dup2\n      swap1\n        /* \"contracts/CErc20Delegator.sol\":10910:10998  delegateToImplementation(abi.encodeWithSignature(\"balanceOfUnderlying(address)\", owner)) */\n      tag_349\n      swap1\n        /* \"#utility.yul\":5232:5250   */\n      0x44\n      add\n        /* \"contracts/CErc20Delegator.sol\":10935:10997  abi.encodeWithSignature(\"balanceOfUnderlying(address)\", owner) */\n      0x40\n      dup1\n      mload\n      not(0x1f)\n      dup2\n      dup5\n      sub\n      add\n      dup2\n      mstore\n      swap2\n      swap1\n      mstore\n      0x20\n      dup2\n      add\n      dup1\n      mload\n      sub(shl(0xe0, 0x01), 0x01)\n      and\n      shl(0xe0, 0x3af9e669)\n      or\n      swap1\n      mstore\n        /* \"contracts/CErc20Delegator.sol\":10910:10934  delegateToImplementation */\n      tag_87\n        /* \"contracts/CErc20Delegator.sol\":10910:10998  delegateToImplementation(abi.encodeWithSignature(\"balanceOfUnderlying(address)\", owner)) */\n      jump\t// in\n        /* \"contracts/CErc20Delegator.sol\":14796:14997  function getCash() override external view returns (uint) {... */\n    tag_155:\n        /* \"contracts/CErc20Delegator.sol\":14912:14948  abi.encodeWithSignature(\"getCash()\") */\n      0x40\n      dup1\n      mload\n      0x04\n      dup2\n      mstore\n      0x24\n      dup2\n      add\n      swap1\n      swap2\n      mstore\n      0x20\n      dup2\n      add\n      dup1\n      mload\n      sub(shl(0xe0, 0x01), 0x01)\n      and\n      shl(0xe1, 0x1d8e90d1)\n      or\n      swap1\n      mstore\n        /* \"contracts/CErc20Delegator.sol\":14847:14851  uint */\n      0x00\n      swap1\n      dup2\n      swap1\n        /* \"contracts/CErc20Delegator.sol\":14883:14949  delegateToViewImplementation(abi.encodeWithSignature(\"getCash()\")) */\n      tag_358\n      swap1\n        /* \"contracts/CErc20Delegator.sol\":14883:14911  delegateToViewImplementation */\n      tag_165\n        /* \"contracts/CErc20Delegator.sol\":14883:14949  delegateToViewImplementation(abi.encodeWithSignature(\"getCash()\")) */\n      jump\t// in\n        /* \"contracts/CErc20Delegator.sol\":19138:19372  function _addReserves(uint addAmount) override external returns (uint) {... */\n    tag_160:\n        /* \"contracts/CErc20Delegator.sol\":19203:19207  uint */\n      0x00\n        /* \"contracts/CErc20Delegator.sol\":19219:19236  bytes memory data */\n      dup1\n        /* \"contracts/CErc20Delegator.sol\":19239:19324  delegateToImplementation(abi.encodeWithSignature(\"_addReserves(uint256)\", addAmount)) */\n      tag_349\n        /* \"contracts/CErc20Delegator.sol\":19313:19322  addAmount */\n      dup4\n        /* \"contracts/CErc20Delegator.sol\":19264:19323  abi.encodeWithSignature(\"_addReserves(uint256)\", addAmount) */\n      add(0x24, mload(0x40))\n      tag_382\n      swap2\n        /* \"#utility.yul\":4062:4087   */\n      dup2\n      mstore\n        /* \"#utility.yul\":4050:4052   */\n      0x20\n        /* \"#utility.yul\":4035:4053   */\n      add\n      swap1\n        /* \"#utility.yul\":3916:4093   */\n      jump\n        /* \"contracts/CErc20Delegator.sol\":19264:19323  abi.encodeWithSignature(\"_addReserves(uint256)\", addAmount) */\n    tag_382:\n      0x40\n      dup1\n      mload\n      not(0x1f)\n      dup2\n      dup5\n      sub\n      add\n      dup2\n      mstore\n      swap2\n      swap1\n      mstore\n      0x20\n      dup2\n      add\n      dup1\n      mload\n      sub(shl(0xe0, 0x01), 0x01)\n      and\n      shl(0xe4, 0x03e94101)\n      or\n      swap1\n      mstore\n        /* \"contracts/CErc20Delegator.sol\":19239:19263  delegateToImplementation */\n      tag_87\n        /* \"contracts/CErc20Delegator.sol\":19239:19324  delegateToImplementation(abi.encodeWithSignature(\"_addReserves(uint256)\", addAmount)) */\n      jump\t// in\n        /* \"contracts/CErc20Delegator.sol\":22044:22472  function delegateToViewImplementation(bytes memory data) public view returns (bytes memory) {... */\n    tag_165:\n        /* \"contracts/CErc20Delegator.sol\":22122:22134  bytes memory */\n      0x60\n        /* \"contracts/CErc20Delegator.sol\":22147:22159  bool success */\n      0x00\n        /* \"contracts/CErc20Delegator.sol\":22161:22184  bytes memory returnData */\n      dup1\n        /* \"contracts/CErc20Delegator.sol\":22196:22200  this */\n      address\n      sub(shl(0xa0, 0x01), 0x01)\n        /* \"contracts/CErc20Delegator.sol\":22188:22212  address(this).staticcall */\n      and\n        /* \"contracts/CErc20Delegator.sol\":22272:22276  data */\n      dup5\n        /* \"contracts/CErc20Delegator.sol\":22213:22277  abi.encodeWithSignature(\"delegateToImplementation(bytes)\", data) */\n      add(0x24, mload(0x40))\n      tag_385\n      swap2\n      swap1\n      tag_82\n      jump\t// in\n    tag_385:\n      0x40\n      dup1\n      mload\n      not(0x1f)\n      dup2\n      dup5\n      sub\n      add\n      dup2\n      mstore\n      swap2\n      dup2\n      mstore\n      0x20\n      dup3\n      add\n      dup1\n      mload\n      sub(shl(0xe0, 0x01), 0x01)\n      and\n      shl(0xe0, 0x0933c1ed)\n      or\n      swap1\n      mstore\n        /* \"contracts/CErc20Delegator.sol\":22188:22278  address(this).staticcall(abi.encodeWithSignature(\"delegateToImplementation(bytes)\", data)) */\n      mload\n      tag_386\n      swap2\n        /* \"contracts/CErc20Delegator.sol\":22213:22277  abi.encodeWithSignature(\"delegateToImplementation(bytes)\", data) */\n      swap1\n        /* \"contracts/CErc20Delegator.sol\":22188:22278  address(this).staticcall(abi.encodeWithSignature(\"delegateToImplementation(bytes)\", data)) */\n      tag_387\n      jump\t// in\n    tag_386:\n      0x00\n      mload(0x40)\n      dup1\n      dup4\n      sub\n      dup2\n      dup6\n      gas\n      staticcall\n      swap2\n      pop\n      pop\n      returndatasize\n      dup1\n      0x00\n      dup2\n      eq\n      tag_390\n      jumpi\n      mload(0x40)\n      swap2\n      pop\n      and(add(returndatasize, 0x3f), not(0x1f))\n      dup3\n      add\n      0x40\n      mstore\n      returndatasize\n      dup3\n      mstore\n      returndatasize\n      0x00\n      0x20\n      dup5\n      add\n      returndatacopy\n      jump(tag_389)\n    tag_390:\n      0x60\n      swap2\n      pop\n    tag_389:\n      pop\n        /* \"contracts/CErc20Delegator.sol\":22146:22278  (bool success, bytes memory returnData) = address(this).staticcall(abi.encodeWithSignature(\"delegateToImplementation(bytes)\", data)) */\n      swap2\n      pop\n      swap2\n      pop\n        /* \"contracts/CErc20Delegator.sol\":22326:22327  0 */\n      0x00\n        /* \"contracts/CErc20Delegator.sol\":22317:22324  success */\n      dup3\n        /* \"contracts/CErc20Delegator.sol\":22314:22328  eq(success, 0) */\n      eq\n        /* \"contracts/CErc20Delegator.sol\":22311:22408  if eq(success, 0) {... */\n      iszero\n      tag_391\n      jumpi\n        /* \"contracts/CErc20Delegator.sol\":22377:22393  returndatasize() */\n      returndatasize\n        /* \"contracts/CErc20Delegator.sol\":22370:22374  0x20 */\n      0x20\n        /* \"contracts/CErc20Delegator.sol\":22358:22368  returnData */\n      dup3\n        /* \"contracts/CErc20Delegator.sol\":22354:22375  add(returnData, 0x20) */\n      add\n        /* \"contracts/CErc20Delegator.sol\":22347:22394  revert(add(returnData, 0x20), returndatasize()) */\n      revert\n        /* \"contracts/CErc20Delegator.sol\":22311:22408  if eq(success, 0) {... */\n    tag_391:\n        /* \"contracts/CErc20Delegator.sol\":22445:22455  returnData */\n      dup1\n        /* \"contracts/CErc20Delegator.sol\":22434:22465  abi.decode(returnData, (bytes)) */\n      dup1\n      0x20\n      add\n      swap1\n      mload\n      dup2\n      add\n      swap1\n      tag_346\n      swap2\n      swap1\n      tag_393\n      jump\t// in\n        /* \"contracts/CErc20Delegator.sol\":17595:17859  function _setComptroller(ComptrollerInterface newComptroller) override public returns (uint) {... */\n    tag_171:\n        /* \"contracts/CErc20Delegator.sol\":17743:17810  abi.encodeWithSignature(\"_setComptroller(address)\", newComptroller) */\n      mload(0x40)\n      sub(shl(0xa0, 0x01), 0x01)\n        /* \"#utility.yul\":5277:5309   */\n      dup3\n      and\n        /* \"contracts/CErc20Delegator.sol\":17743:17810  abi.encodeWithSignature(\"_setComptroller(address)\", newComptroller) */\n      0x24\n      dup3\n      add\n        /* \"#utility.yul\":5259:5310   */\n      mstore\n        /* \"contracts/CErc20Delegator.sol\":17682:17686  uint */\n      0x00\n      swap1\n      dup2\n      swap1\n        /* \"contracts/CErc20Delegator.sol\":17718:17811  delegateToImplementation(abi.encodeWithSignature(\"_setComptroller(address)\", newComptroller)) */\n      tag_349\n      swap1\n        /* \"#utility.yul\":5232:5250   */\n      0x44\n      add\n        /* \"contracts/CErc20Delegator.sol\":17743:17810  abi.encodeWithSignature(\"_setComptroller(address)\", newComptroller) */\n      0x40\n      dup1\n      mload\n      not(0x1f)\n      dup2\n      dup5\n      sub\n      add\n      dup2\n      mstore\n      swap2\n      swap1\n      mstore\n      0x20\n      dup2\n      add\n      dup1\n      mload\n      sub(shl(0xe0, 0x01), 0x01)\n      and\n      shl(0xe0, 0x4576b5db)\n      or\n      swap1\n      mstore\n        /* \"contracts/CErc20Delegator.sol\":17718:17742  delegateToImplementation */\n      tag_87\n        /* \"contracts/CErc20Delegator.sol\":17718:17811  delegateToImplementation(abi.encodeWithSignature(\"_setComptroller(address)\", newComptroller)) */\n      jump\t// in\n        /* \"contracts/CErc20Delegator.sol\":3000:3640  function _setImplementation(address implementation_, bool allowResign, bytes memory becomeImplementationData)override public {... */\n    tag_181:\n        /* \"contracts/CErc20Delegator.sol\":3157:3162  admin */\n      sload(0x03)\n      0x0100\n      swap1\n      div\n      sub(shl(0xa0, 0x01), 0x01)\n      and\n        /* \"contracts/CErc20Delegator.sol\":3143:3153  msg.sender */\n      caller\n        /* \"contracts/CErc20Delegator.sol\":3143:3162  msg.sender == admin */\n      eq\n        /* \"contracts/CErc20Delegator.sol\":3135:3224  require(msg.sender == admin, \"CErc20Delegator::_setImplementation: Caller must be admin\") */\n      tag_399\n      jumpi\n      mload(0x40)\n      shl(0xe5, 0x461bcd)\n      dup2\n      mstore\n        /* \"#utility.yul\":11845:11847   */\n      0x20\n        /* \"contracts/CErc20Delegator.sol\":3135:3224  require(msg.sender == admin, \"CErc20Delegator::_setImplementation: Caller must be admin\") */\n      0x04\n      dup3\n      add\n        /* \"#utility.yul\":11827:11848   */\n      mstore\n        /* \"#utility.yul\":11884:11886   */\n      0x39\n        /* \"#utility.yul\":11864:11882   */\n      0x24\n      dup3\n      add\n        /* \"#utility.yul\":11857:11887   */\n      mstore\n        /* \"#utility.yul\":11923:11957   */\n      0x43457263323044656c656761746f723a3a5f736574496d706c656d656e746174\n        /* \"#utility.yul\":11903:11921   */\n      0x44\n      dup3\n      add\n        /* \"#utility.yul\":11896:11958   */\n      mstore\n        /* \"#utility.yul\":11994:12021   */\n      0x696f6e3a2043616c6c6572206d7573742062652061646d696e00000000000000\n        /* \"#utility.yul\":11974:11992   */\n      0x64\n      dup3\n      add\n        /* \"#utility.yul\":11967:12022   */\n      mstore\n        /* \"#utility.yul\":12039:12058   */\n      0x84\n      add\n        /* \"contracts/CErc20Delegator.sol\":3135:3224  require(msg.sender == admin, \"CErc20Delegator::_setImplementation: Caller must be admin\") */\n      tag_69\n        /* \"#utility.yul\":11643:12064   */\n      jump\n        /* \"contracts/CErc20Delegator.sol\":3135:3224  require(msg.sender == admin, \"CErc20Delegator::_setImplementation: Caller must be admin\") */\n    tag_399:\n        /* \"contracts/CErc20Delegator.sol\":3239:3250  allowResign */\n      dup2\n        /* \"contracts/CErc20Delegator.sol\":3235:3353  if (allowResign) {... */\n      iszero\n      tag_402\n      jumpi\n        /* \"contracts/CErc20Delegator.sol\":3291:3341  abi.encodeWithSignature(\"_resignImplementation()\") */\n      0x40\n      dup1\n      mload\n      0x04\n      dup2\n      mstore\n      0x24\n      dup2\n      add\n      swap1\n      swap2\n      mstore\n      0x20\n      dup2\n      add\n      dup1\n      mload\n      sub(shl(0xe0, 0x01), 0x01)\n      and\n      shl(0xe0, 0x153ab505)\n      or\n      swap1\n      mstore\n        /* \"contracts/CErc20Delegator.sol\":3266:3342  delegateToImplementation(abi.encodeWithSignature(\"_resignImplementation()\")) */\n      tag_403\n      swap1\n        /* \"contracts/CErc20Delegator.sol\":3266:3290  delegateToImplementation */\n      tag_87\n        /* \"contracts/CErc20Delegator.sol\":3266:3342  delegateToImplementation(abi.encodeWithSignature(\"_resignImplementation()\")) */\n      jump\t// in\n    tag_403:\n      pop\n        /* \"contracts/CErc20Delegator.sol\":3235:3353  if (allowResign) {... */\n    tag_402:\n        /* \"contracts/CErc20Delegator.sol\":3391:3405  implementation */\n      0x12\n      dup1\n      sload\n      sub(shl(0xa0, 0x01), 0x01)\n        /* \"contracts/CErc20Delegator.sol\":3415:3447  implementation = implementation_ */\n      dup6\n      dup2\n      and\n      not(sub(shl(0xa0, 0x01), 0x01))\n      dup4\n      and\n      or\n      swap1\n      swap3\n      sstore\n        /* \"contracts/CErc20Delegator.sol\":3483:3564  abi.encodeWithSignature(\"_becomeImplementation(bytes)\", becomeImplementationData) */\n      mload(0x40)\n        /* \"contracts/CErc20Delegator.sol\":3391:3405  implementation */\n      swap2\n      and\n      swap1\n        /* \"contracts/CErc20Delegator.sol\":3458:3565  delegateToImplementation(abi.encodeWithSignature(\"_becomeImplementation(bytes)\", becomeImplementationData)) */\n      tag_404\n      swap1\n        /* \"contracts/CErc20Delegator.sol\":3483:3564  abi.encodeWithSignature(\"_becomeImplementation(bytes)\", becomeImplementationData) */\n      tag_405\n      swap1\n        /* \"contracts/CErc20Delegator.sol\":3539:3563  becomeImplementationData */\n      dup5\n      swap1\n        /* \"contracts/CErc20Delegator.sol\":3483:3564  abi.encodeWithSignature(\"_becomeImplementation(bytes)\", becomeImplementationData) */\n      0x24\n      add\n      tag_82\n      jump\t// in\n    tag_405:\n      0x40\n      dup1\n      mload\n      not(0x1f)\n      dup2\n      dup5\n      sub\n      add\n      dup2\n      mstore\n      swap2\n      swap1\n      mstore\n      0x20\n      dup2\n      add\n      dup1\n      mload\n      sub(shl(0xe0, 0x01), 0x01)\n      and\n      shl(0xe3, 0x0adccee5)\n      or\n      swap1\n      mstore\n        /* \"contracts/CErc20Delegator.sol\":3458:3482  delegateToImplementation */\n      tag_87\n        /* \"contracts/CErc20Delegator.sol\":3458:3565  delegateToImplementation(abi.encodeWithSignature(\"_becomeImplementation(bytes)\", becomeImplementationData)) */\n      jump\t// in\n    tag_404:\n      pop\n        /* \"contracts/CErc20Delegator.sol\":3618:3632  implementation */\n      sload(0x12)\n        /* \"contracts/CErc20Delegator.sol\":3581:3633  NewImplementation(oldImplementation, implementation) */\n      0x40\n      dup1\n      mload\n      sub(shl(0xa0, 0x01), 0x01)\n        /* \"#utility.yul\":12299:12314   */\n      dup1\n      dup6\n      and\n        /* \"#utility.yul\":12281:12315   */\n      dup3\n      mstore\n        /* \"contracts/CErc20Delegator.sol\":3618:3632  implementation */\n      swap1\n      swap3\n      and\n        /* \"#utility.yul\":12346:12348   */\n      0x20\n        /* \"#utility.yul\":12331:12349   */\n      dup4\n      add\n        /* \"#utility.yul\":12324:12367   */\n      mstore\n        /* \"contracts/CErc20Delegator.sol\":3581:3633  NewImplementation(oldImplementation, implementation) */\n      0xd604de94d45953f9138079ec1b82d533cb2160c906d1076d1f7ed54befbca97a\n      swap2\n        /* \"#utility.yul\":12216:12234   */\n      add\n        /* \"contracts/CErc20Delegator.sol\":3581:3633  NewImplementation(oldImplementation, implementation) */\n      mload(0x40)\n      dup1\n      swap2\n      sub\n      swap1\n      log1\n        /* \"contracts/CErc20Delegator.sol\":3125:3640  {... */\n      pop\n        /* \"contracts/CErc20Delegator.sol\":3000:3640  function _setImplementation(address implementation_, bool allowResign, bytes memory becomeImplementationData)override public {... */\n      pop\n      pop\n      pop\n      jump\t// out\n        /* \"contracts/CErc20Delegator.sol\":19618:19864  function _reduceReserves(uint reduceAmount) override external returns (uint) {... */\n    tag_195:\n        /* \"contracts/CErc20Delegator.sol\":19689:19693  uint */\n      0x00\n        /* \"contracts/CErc20Delegator.sol\":19705:19722  bytes memory data */\n      dup1\n        /* \"contracts/CErc20Delegator.sol\":19725:19816  delegateToImplementation(abi.encodeWithSignature(\"_reduceReserves(uint256)\", reduceAmount)) */\n      tag_349\n        /* \"contracts/CErc20Delegator.sol\":19802:19814  reduceAmount */\n      dup4\n        /* \"contracts/CErc20Delegator.sol\":19750:19815  abi.encodeWithSignature(\"_reduceReserves(uint256)\", reduceAmount) */\n      add(0x24, mload(0x40))\n      tag_410\n      swap2\n        /* \"#utility.yul\":4062:4087   */\n      dup2\n      mstore\n        /* \"#utility.yul\":4050:4052   */\n      0x20\n        /* \"#utility.yul\":4035:4053   */\n      add\n      swap1\n        /* \"#utility.yul\":3916:4093   */\n      jump\n        /* \"contracts/CErc20Delegator.sol\":19750:19815  abi.encodeWithSignature(\"_reduceReserves(uint256)\", reduceAmount) */\n    tag_410:\n      0x40\n      dup1\n      mload\n      not(0x1f)\n      dup2\n      dup5\n      sub\n      add\n      dup2\n      mstore\n      swap2\n      swap1\n      mstore\n      0x20\n      dup2\n      add\n      dup1\n      mload\n      sub(shl(0xe0, 0x01), 0x01)\n      and\n      shl(0xe0, 0x601a0bf1)\n      or\n      swap1\n      mstore\n        /* \"contracts/CErc20Delegator.sol\":19725:19749  delegateToImplementation */\n      tag_87\n        /* \"contracts/CErc20Delegator.sol\":19725:19816  delegateToImplementation(abi.encodeWithSignature(\"_reduceReserves(uint256)\", reduceAmount)) */\n      jump\t// in\n        /* \"contracts/CErc20Delegator.sol\":10323:10555  function balanceOf(address owner) override external view returns (uint) {... */\n    tag_212:\n        /* \"contracts/CErc20Delegator.sol\":10454:10506  abi.encodeWithSignature(\"balanceOf(address)\", owner) */\n      mload(0x40)\n      sub(shl(0xa0, 0x01), 0x01)\n        /* \"#utility.yul\":5277:5309   */\n      dup3\n      and\n        /* \"contracts/CErc20Delegator.sol\":10454:10506  abi.encodeWithSignature(\"balanceOf(address)\", owner) */\n      0x24\n      dup3\n      add\n        /* \"#utility.yul\":5259:5310   */\n      mstore\n        /* \"contracts/CErc20Delegator.sol\":10389:10393  uint */\n      0x00\n      swap1\n      dup2\n      swap1\n        /* \"contracts/CErc20Delegator.sol\":10425:10507  delegateToViewImplementation(abi.encodeWithSignature(\"balanceOf(address)\", owner)) */\n      tag_349\n      swap1\n        /* \"#utility.yul\":5232:5250   */\n      0x44\n      add\n        /* \"contracts/CErc20Delegator.sol\":10454:10506  abi.encodeWithSignature(\"balanceOf(address)\", owner) */\n      0x40\n      dup1\n      mload\n      not(0x1f)\n      dup2\n      dup5\n      sub\n      add\n      dup2\n      mstore\n      swap2\n      swap1\n      mstore\n      0x20\n      dup2\n      add\n      dup1\n      mload\n      sub(shl(0xe0, 0x01), 0x01)\n      and\n      shl(0xe0, 0x70a08231)\n      or\n      swap1\n      mstore\n        /* \"contracts/CErc20Delegator.sol\":10425:10453  delegateToViewImplementation */\n      tag_165\n        /* \"contracts/CErc20Delegator.sol\":10425:10507  delegateToViewImplementation(abi.encodeWithSignature(\"balanceOf(address)\", owner)) */\n      jump\t// in\n        /* \"contracts/CErc20Delegator.sol\":12600:12816  function totalBorrowsCurrent() override external returns (uint) {... */\n    tag_216:\n        /* \"contracts/CErc20Delegator.sol\":12719:12767  abi.encodeWithSignature(\"totalBorrowsCurrent()\") */\n      0x40\n      dup1\n      mload\n      0x04\n      dup2\n      mstore\n      0x24\n      dup2\n      add\n      swap1\n      swap2\n      mstore\n      0x20\n      dup2\n      add\n      dup1\n      mload\n      sub(shl(0xe0, 0x01), 0x01)\n      and\n      shl(0xe3, 0x0e759dd3)\n      or\n      swap1\n      mstore\n        /* \"contracts/CErc20Delegator.sol\":12658:12662  uint */\n      0x00\n      swap1\n      dup2\n      swap1\n        /* \"contracts/CErc20Delegator.sol\":12694:12768  delegateToImplementation(abi.encodeWithSignature(\"totalBorrowsCurrent()\")) */\n      tag_358\n      swap1\n        /* \"contracts/CErc20Delegator.sol\":12694:12718  delegateToImplementation */\n      tag_87\n        /* \"contracts/CErc20Delegator.sol\":12694:12768  delegateToImplementation(abi.encodeWithSignature(\"totalBorrowsCurrent()\")) */\n      jump\t// in\n        /* \"contracts/CErc20Delegator.sol\":5129:5377  function redeemUnderlying(uint redeemAmount) override external returns (uint) {... */\n    tag_221:\n        /* \"contracts/CErc20Delegator.sol\":5201:5205  uint */\n      0x00\n        /* \"contracts/CErc20Delegator.sol\":5217:5234  bytes memory data */\n      dup1\n        /* \"contracts/CErc20Delegator.sol\":5237:5329  delegateToImplementation(abi.encodeWithSignature(\"redeemUnderlying(uint256)\", redeemAmount)) */\n      tag_349\n        /* \"contracts/CErc20Delegator.sol\":5315:5327  redeemAmount */\n      dup4\n        /* \"contracts/CErc20Delegator.sol\":5262:5328  abi.encodeWithSignature(\"redeemUnderlying(uint256)\", redeemAmount) */\n      add(0x24, mload(0x40))\n      tag_421\n      swap2\n        /* \"#utility.yul\":4062:4087   */\n      dup2\n      mstore\n        /* \"#utility.yul\":4050:4052   */\n      0x20\n        /* \"#utility.yul\":4035:4053   */\n      add\n      swap1\n        /* \"#utility.yul\":3916:4093   */\n      jump\n        /* \"contracts/CErc20Delegator.sol\":5262:5328  abi.encodeWithSignature(\"redeemUnderlying(uint256)\", redeemAmount) */\n    tag_421:\n      0x40\n      dup1\n      mload\n      not(0x1f)\n      dup2\n      dup5\n      sub\n      add\n      dup2\n      mstore\n      swap2\n      swap1\n      mstore\n      0x20\n      dup2\n      add\n      dup1\n      mload\n      sub(shl(0xe0, 0x01), 0x01)\n      and\n      shl(0xe0, 0x852a12e3)\n      or\n      swap1\n      mstore\n        /* \"contracts/CErc20Delegator.sol\":5237:5261  delegateToImplementation */\n      tag_87\n        /* \"contracts/CErc20Delegator.sol\":5237:5329  delegateToImplementation(abi.encodeWithSignature(\"redeemUnderlying(uint256)\", redeemAmount)) */\n      jump\t// in\n        /* \"contracts/CTokenInterfaces.sol\":493:513  string public symbol */\n    tag_229:\n      0x02\n      dup1\n      sload\n      tag_333\n      swap1\n      tag_334\n      jump\t// in\n        /* \"contracts/CErc20Delegator.sol\":13551:13805  function borrowBalanceStored(address account) override public view returns (uint) {... */\n    tag_234:\n        /* \"contracts/CErc20Delegator.sol\":13692:13756  abi.encodeWithSignature(\"borrowBalanceStored(address)\", account) */\n      mload(0x40)\n      sub(shl(0xa0, 0x01), 0x01)\n        /* \"#utility.yul\":5277:5309   */\n      dup3\n      and\n        /* \"contracts/CErc20Delegator.sol\":13692:13756  abi.encodeWithSignature(\"borrowBalanceStored(address)\", account) */\n      0x24\n      dup3\n      add\n        /* \"#utility.yul\":5259:5310   */\n      mstore\n        /* \"contracts/CErc20Delegator.sol\":13627:13631  uint */\n      0x00\n      swap1\n      dup2\n      swap1\n        /* \"contracts/CErc20Delegator.sol\":13663:13757  delegateToViewImplementation(abi.encodeWithSignature(\"borrowBalanceStored(address)\", account)) */\n      tag_349\n      swap1\n        /* \"#utility.yul\":5232:5250   */\n      0x44\n      add\n        /* \"contracts/CErc20Delegator.sol\":13692:13756  abi.encodeWithSignature(\"borrowBalanceStored(address)\", account) */\n      0x40\n      dup1\n      mload\n      not(0x1f)\n      dup2\n      dup5\n      sub\n      add\n      dup2\n      mstore\n      swap2\n      swap1\n      mstore\n      0x20\n      dup2\n      add\n      dup1\n      mload\n      sub(shl(0xe0, 0x01), 0x01)\n      and\n      shl(0xe0, 0x95dd9193)\n      or\n      swap1\n      mstore\n        /* \"contracts/CErc20Delegator.sol\":13663:13691  delegateToViewImplementation */\n      tag_165\n        /* \"contracts/CErc20Delegator.sol\":13663:13757  delegateToViewImplementation(abi.encodeWithSignature(\"borrowBalanceStored(address)\", account)) */\n      jump\t// in\n        /* \"contracts/CErc20Delegator.sol\":3990:4210  function mint(uint mintAmount) override external returns (uint) {... */\n    tag_239:\n        /* \"contracts/CErc20Delegator.sol\":4048:4052  uint */\n      0x00\n        /* \"contracts/CErc20Delegator.sol\":4064:4081  bytes memory data */\n      dup1\n        /* \"contracts/CErc20Delegator.sol\":4084:4162  delegateToImplementation(abi.encodeWithSignature(\"mint(uint256)\", mintAmount)) */\n      tag_349\n        /* \"contracts/CErc20Delegator.sol\":4150:4160  mintAmount */\n      dup4\n        /* \"contracts/CErc20Delegator.sol\":4109:4161  abi.encodeWithSignature(\"mint(uint256)\", mintAmount) */\n      add(0x24, mload(0x40))\n      tag_434\n      swap2\n        /* \"#utility.yul\":4062:4087   */\n      dup2\n      mstore\n        /* \"#utility.yul\":4050:4052   */\n      0x20\n        /* \"#utility.yul\":4035:4053   */\n      add\n      swap1\n        /* \"#utility.yul\":3916:4093   */\n      jump\n        /* \"contracts/CErc20Delegator.sol\":4109:4161  abi.encodeWithSignature(\"mint(uint256)\", mintAmount) */\n    tag_434:\n      0x40\n      dup1\n      mload\n      not(0x1f)\n      dup2\n      dup5\n      sub\n      add\n      dup2\n      mstore\n      swap2\n      swap1\n      mstore\n      0x20\n      dup2\n      add\n      dup1\n      mload\n      sub(shl(0xe0, 0x01), 0x01)\n      and\n      shl(0xe3, 0x140e25ad)\n      or\n      swap1\n      mstore\n        /* \"contracts/CErc20Delegator.sol\":4084:4108  delegateToImplementation */\n      tag_87\n        /* \"contracts/CErc20Delegator.sol\":4084:4162  delegateToImplementation(abi.encodeWithSignature(\"mint(uint256)\", mintAmount)) */\n      jump\t// in\n        /* \"contracts/CErc20Delegator.sol\":15246:15450  function accrueInterest() override public returns (uint) {... */\n    tag_243:\n        /* \"contracts/CErc20Delegator.sol\":15358:15401  abi.encodeWithSignature(\"accrueInterest()\") */\n      0x40\n      dup1\n      mload\n      0x04\n      dup2\n      mstore\n      0x24\n      dup2\n      add\n      swap1\n      swap2\n      mstore\n      0x20\n      dup2\n      add\n      dup1\n      mload\n      sub(shl(0xe0, 0x01), 0x01)\n      and\n      shl(0xe0, 0xa6afed95)\n      or\n      swap1\n      mstore\n        /* \"contracts/CErc20Delegator.sol\":15297:15301  uint */\n      0x00\n      swap1\n      dup2\n      swap1\n        /* \"contracts/CErc20Delegator.sol\":15333:15402  delegateToImplementation(abi.encodeWithSignature(\"accrueInterest()\")) */\n      tag_358\n      swap1\n        /* \"contracts/CErc20Delegator.sol\":15333:15357  delegateToImplementation */\n      tag_87\n        /* \"contracts/CErc20Delegator.sol\":15333:15402  delegateToImplementation(abi.encodeWithSignature(\"accrueInterest()\")) */\n      jump\t// in\n        /* \"contracts/CErc20Delegator.sol\":8010:8256  function transfer(address dst, uint amount) override external returns (bool) {... */\n    tag_248:\n        /* \"contracts/CErc20Delegator.sol\":8142:8207  abi.encodeWithSignature(\"transfer(address,uint256)\", dst, amount) */\n      mload(0x40)\n      sub(shl(0xa0, 0x01), 0x01)\n        /* \"#utility.yul\":9577:9609   */\n      dup4\n      and\n        /* \"contracts/CErc20Delegator.sol\":8142:8207  abi.encodeWithSignature(\"transfer(address,uint256)\", dst, amount) */\n      0x24\n      dup3\n      add\n        /* \"#utility.yul\":9559:9610   */\n      mstore\n        /* \"#utility.yul\":9626:9644   */\n      0x44\n      dup2\n      add\n        /* \"#utility.yul\":9619:9653   */\n      dup3\n      swap1\n      mstore\n        /* \"contracts/CErc20Delegator.sol\":8081:8085  bool */\n      0x00\n      swap1\n      dup2\n      swap1\n        /* \"contracts/CErc20Delegator.sol\":8117:8208  delegateToImplementation(abi.encodeWithSignature(\"transfer(address,uint256)\", dst, amount)) */\n      tag_343\n      swap1\n        /* \"#utility.yul\":9532:9550   */\n      0x64\n      add\n        /* \"contracts/CErc20Delegator.sol\":8142:8207  abi.encodeWithSignature(\"transfer(address,uint256)\", dst, amount) */\n      0x40\n      dup1\n      mload\n      not(0x1f)\n      dup2\n      dup5\n      sub\n      add\n      dup2\n      mstore\n      swap2\n      swap1\n      mstore\n      0x20\n      dup2\n      add\n      dup1\n      mload\n      sub(shl(0xe0, 0x01), 0x01)\n      and\n      shl(0xe0, 0xa9059cbb)\n      or\n      swap1\n      mstore\n        /* \"contracts/CErc20Delegator.sol\":8117:8141  delegateToImplementation */\n      tag_87\n        /* \"contracts/CErc20Delegator.sol\":8117:8208  delegateToImplementation(abi.encodeWithSignature(\"transfer(address,uint256)\", dst, amount)) */\n      jump\t// in\n        /* \"contracts/CErc20Delegator.sol\":12237:12460  function supplyRatePerBlock() override external view returns (uint) {... */\n    tag_256:\n        /* \"contracts/CErc20Delegator.sol\":12364:12411  abi.encodeWithSignature(\"supplyRatePerBlock()\") */\n      0x40\n      dup1\n      mload\n      0x04\n      dup2\n      mstore\n      0x24\n      dup2\n      add\n      swap1\n      swap2\n      mstore\n      0x20\n      dup2\n      add\n      dup1\n      mload\n      sub(shl(0xe0, 0x01), 0x01)\n      and\n      shl(0xe4, 0x0ae9d70b)\n      or\n      swap1\n      mstore\n        /* \"contracts/CErc20Delegator.sol\":12299:12303  uint */\n      0x00\n      swap1\n      dup2\n      swap1\n        /* \"contracts/CErc20Delegator.sol\":12335:12412  delegateToViewImplementation(abi.encodeWithSignature(\"supplyRatePerBlock()\")) */\n      tag_358\n      swap1\n        /* \"contracts/CErc20Delegator.sol\":12335:12363  delegateToViewImplementation */\n      tag_165\n        /* \"contracts/CErc20Delegator.sol\":12335:12412  delegateToViewImplementation(abi.encodeWithSignature(\"supplyRatePerBlock()\")) */\n      jump\t// in\n        /* \"contracts/CErc20Delegator.sol\":16000:16300  function seize(address liquidator, address borrower, uint seizeTokens) override external returns (uint) {... */\n    tag_261:\n        /* \"contracts/CErc20Delegator.sol\":16159:16251  abi.encodeWithSignature(\"seize(address,address,uint256)\", liquidator, borrower, seizeTokens) */\n      mload(0x40)\n      sub(shl(0xa0, 0x01), 0x01)\n        /* \"#utility.yul\":10603:10618   */\n      dup1\n      dup6\n      and\n        /* \"contracts/CErc20Delegator.sol\":16159:16251  abi.encodeWithSignature(\"seize(address,address,uint256)\", liquidator, borrower, seizeTokens) */\n      0x24\n      dup4\n      add\n        /* \"#utility.yul\":10585:10619   */\n      mstore\n        /* \"#utility.yul\":10655:10670   */\n      dup4\n      and\n        /* \"#utility.yul\":10635:10653   */\n      0x44\n      dup3\n      add\n        /* \"#utility.yul\":10628:10671   */\n      mstore\n        /* \"#utility.yul\":10687:10705   */\n      0x64\n      dup2\n      add\n        /* \"#utility.yul\":10680:10714   */\n      dup3\n      swap1\n      mstore\n        /* \"contracts/CErc20Delegator.sol\":16098:16102  uint */\n      0x00\n      swap1\n      dup2\n      swap1\n        /* \"contracts/CErc20Delegator.sol\":16134:16252  delegateToImplementation(abi.encodeWithSignature(\"seize(address,address,uint256)\", liquidator, borrower, seizeTokens)) */\n      tag_447\n      swap1\n        /* \"#utility.yul\":10520:10538   */\n      0x84\n      add\n        /* \"contracts/CErc20Delegator.sol\":16159:16251  abi.encodeWithSignature(\"seize(address,address,uint256)\", liquidator, borrower, seizeTokens) */\n      0x40\n      dup1\n      mload\n      not(0x1f)\n      dup2\n      dup5\n      sub\n      add\n      dup2\n      mstore\n      swap2\n      swap1\n      mstore\n      0x20\n      dup2\n      add\n      dup1\n      mload\n      sub(shl(0xe0, 0x01), 0x01)\n      and\n      shl(0xe0, 0xb2a02ff1)\n      or\n      swap1\n      mstore\n        /* \"contracts/CErc20Delegator.sol\":16134:16158  delegateToImplementation */\n      tag_87\n        /* \"contracts/CErc20Delegator.sol\":16134:16252  delegateToImplementation(abi.encodeWithSignature(\"seize(address,address,uint256)\", liquidator, borrower, seizeTokens)) */\n      jump\t// in\n    tag_447:\n        /* \"contracts/CErc20Delegator.sol\":16114:16252  bytes memory data = delegateToImplementation(abi.encodeWithSignature(\"seize(address,address,uint256)\", liquidator, borrower, seizeTokens)) */\n      swap1\n      pop\n        /* \"contracts/CErc20Delegator.sol\":16280:16284  data */\n      dup1\n        /* \"contracts/CErc20Delegator.sol\":16269:16293  abi.decode(data, (uint)) */\n      dup1\n      0x20\n      add\n      swap1\n      mload\n      dup2\n      add\n      swap1\n      tag_368\n      swap2\n      swap1\n      tag_352\n      jump\t// in\n        /* \"contracts/CErc20Delegator.sol\":17112:17377  function _setPendingAdmin(address payable newPendingAdmin) override external returns (uint) {... */\n    tag_267:\n        /* \"contracts/CErc20Delegator.sol\":17259:17328  abi.encodeWithSignature(\"_setPendingAdmin(address)\", newPendingAdmin) */\n      mload(0x40)\n      sub(shl(0xa0, 0x01), 0x01)\n        /* \"#utility.yul\":5277:5309   */\n      dup3\n      and\n        /* \"contracts/CErc20Delegator.sol\":17259:17328  abi.encodeWithSignature(\"_setPendingAdmin(address)\", newPendingAdmin) */\n      0x24\n      dup3\n      add\n        /* \"#utility.yul\":5259:5310   */\n      mstore\n        /* \"contracts/CErc20Delegator.sol\":17198:17202  uint */\n      0x00\n      swap1\n      dup2\n      swap1\n        /* \"contracts/CErc20Delegator.sol\":17234:17329  delegateToImplementation(abi.encodeWithSignature(\"_setPendingAdmin(address)\", newPendingAdmin)) */\n      tag_349\n      swap1\n        /* \"#utility.yul\":5232:5250   */\n      0x44\n      add\n        /* \"contracts/CErc20Delegator.sol\":17259:17328  abi.encodeWithSignature(\"_setPendingAdmin(address)\", newPendingAdmin) */\n      0x40\n      dup1\n      mload\n      not(0x1f)\n      dup2\n      dup5\n      sub\n      add\n      dup2\n      mstore\n      swap2\n      swap1\n      mstore\n      0x20\n      dup2\n      add\n      dup1\n      mload\n      sub(shl(0xe0, 0x01), 0x01)\n      and\n      shl(0xe2, 0x2dc74683)\n      or\n      swap1\n      mstore\n        /* \"contracts/CErc20Delegator.sol\":17234:17258  delegateToImplementation */\n      tag_87\n        /* \"contracts/CErc20Delegator.sol\":17234:17329  delegateToImplementation(abi.encodeWithSignature(\"_setPendingAdmin(address)\", newPendingAdmin)) */\n      jump\t// in\n        /* \"contracts/CErc20Delegator.sol\":13954:14168  function exchangeRateCurrent() override public returns (uint) {... */\n    tag_271:\n        /* \"contracts/CErc20Delegator.sol\":14071:14119  abi.encodeWithSignature(\"exchangeRateCurrent()\") */\n      0x40\n      dup1\n      mload\n      0x04\n      dup2\n      mstore\n      0x24\n      dup2\n      add\n      swap1\n      swap2\n      mstore\n      0x20\n      dup2\n      add\n      dup1\n      mload\n      sub(shl(0xe0, 0x01), 0x01)\n      and\n      shl(0xe0, 0xbd6d894d)\n      or\n      swap1\n      mstore\n        /* \"contracts/CErc20Delegator.sol\":14010:14014  uint */\n      0x00\n      swap1\n      dup2\n      swap1\n        /* \"contracts/CErc20Delegator.sol\":14046:14120  delegateToImplementation(abi.encodeWithSignature(\"exchangeRateCurrent()\")) */\n      tag_358\n      swap1\n        /* \"contracts/CErc20Delegator.sol\":14046:14070  delegateToImplementation */\n      tag_87\n        /* \"contracts/CErc20Delegator.sol\":14046:14120  delegateToImplementation(abi.encodeWithSignature(\"exchangeRateCurrent()\")) */\n      jump\t// in\n        /* \"contracts/CErc20Delegator.sol\":11384:11674  function getAccountSnapshot(address account) override external view returns (uint, uint, uint, uint) {... */\n    tag_276:\n        /* \"contracts/CErc20Delegator.sol\":11461:11465  uint */\n      0x00\n        /* \"contracts/CErc20Delegator.sol\":11467:11471  uint */\n      dup1\n        /* \"contracts/CErc20Delegator.sol\":11473:11477  uint */\n      0x00\n        /* \"contracts/CErc20Delegator.sol\":11479:11483  uint */\n      dup1\n        /* \"contracts/CErc20Delegator.sol\":11495:11512  bytes memory data */\n      0x00\n        /* \"contracts/CErc20Delegator.sol\":11515:11608  delegateToViewImplementation(abi.encodeWithSignature(\"getAccountSnapshot(address)\", account)) */\n      tag_458\n        /* \"contracts/CErc20Delegator.sol\":11599:11606  account */\n      dup7\n        /* \"contracts/CErc20Delegator.sol\":11544:11607  abi.encodeWithSignature(\"getAccountSnapshot(address)\", account) */\n      add(0x24, mload(0x40))\n      tag_459\n      swap2\n      swap1\n      sub(shl(0xa0, 0x01), 0x01)\n        /* \"#utility.yul\":5277:5309   */\n      swap2\n      swap1\n      swap2\n      and\n        /* \"#utility.yul\":5259:5310   */\n      dup2\n      mstore\n        /* \"#utility.yul\":5247:5249   */\n      0x20\n        /* \"#utility.yul\":5232:5250   */\n      add\n      swap1\n        /* \"#utility.yul\":5097:5316   */\n      jump\n        /* \"contracts/CErc20Delegator.sol\":11544:11607  abi.encodeWithSignature(\"getAccountSnapshot(address)\", account) */\n    tag_459:\n      0x40\n      dup1\n      mload\n      not(0x1f)\n      dup2\n      dup5\n      sub\n      add\n      dup2\n      mstore\n      swap2\n      swap1\n      mstore\n      0x20\n      dup2\n      add\n      dup1\n      mload\n      sub(shl(0xe0, 0x01), 0x01)\n      and\n      shl(0xe1, 0x61bfb471)\n      or\n      swap1\n      mstore\n        /* \"contracts/CErc20Delegator.sol\":11515:11543  delegateToViewImplementation */\n      tag_165\n        /* \"contracts/CErc20Delegator.sol\":11515:11608  delegateToViewImplementation(abi.encodeWithSignature(\"getAccountSnapshot(address)\", account)) */\n      jump\t// in\n    tag_458:\n        /* \"contracts/CErc20Delegator.sol\":11495:11608  bytes memory data = delegateToViewImplementation(abi.encodeWithSignature(\"getAccountSnapshot(address)\", account)) */\n      swap1\n      pop\n        /* \"contracts/CErc20Delegator.sol\":11636:11640  data */\n      dup1\n        /* \"contracts/CErc20Delegator.sol\":11625:11667  abi.decode(data, (uint, uint, uint, uint)) */\n      dup1\n      0x20\n      add\n      swap1\n      mload\n      dup2\n      add\n      swap1\n      tag_460\n      swap2\n      swap1\n      tag_461\n      jump\t// in\n    tag_460:\n        /* \"contracts/CErc20Delegator.sol\":11618:11667  return abi.decode(data, (uint, uint, uint, uint)) */\n      swap5\n      pop\n      swap5\n      pop\n      swap5\n      pop\n      swap5\n      pop\n      pop\n        /* \"contracts/CErc20Delegator.sol\":11384:11674  function getAccountSnapshot(address account) override external view returns (uint, uint, uint, uint) {... */\n      swap2\n      swap4\n      pop\n      swap2\n      swap4\n      jump\t// out\n        /* \"contracts/CErc20Delegator.sol\":5638:5866  function borrow(uint borrowAmount) override external returns (uint) {... */\n    tag_282:\n        /* \"contracts/CErc20Delegator.sol\":5700:5704  uint */\n      0x00\n        /* \"contracts/CErc20Delegator.sol\":5716:5733  bytes memory data */\n      dup1\n        /* \"contracts/CErc20Delegator.sol\":5736:5818  delegateToImplementation(abi.encodeWithSignature(\"borrow(uint256)\", borrowAmount)) */\n      tag_349\n        /* \"contracts/CErc20Delegator.sol\":5804:5816  borrowAmount */\n      dup4\n        /* \"contracts/CErc20Delegator.sol\":5761:5817  abi.encodeWithSignature(\"borrow(uint256)\", borrowAmount) */\n      add(0x24, mload(0x40))\n      tag_464\n      swap2\n        /* \"#utility.yul\":4062:4087   */\n      dup2\n      mstore\n        /* \"#utility.yul\":4050:4052   */\n      0x20\n        /* \"#utility.yul\":4035:4053   */\n      add\n      swap1\n        /* \"#utility.yul\":3916:4093   */\n      jump\n        /* \"contracts/CErc20Delegator.sol\":5761:5817  abi.encodeWithSignature(\"borrow(uint256)\", borrowAmount) */\n    tag_464:\n      0x40\n      dup1\n      mload\n      not(0x1f)\n      dup2\n      dup5\n      sub\n      add\n      dup2\n      mstore\n      swap2\n      swap1\n      mstore\n      0x20\n      dup2\n      add\n      dup1\n      mload\n      sub(shl(0xe0, 0x01), 0x01)\n      and\n      shl(0xe2, 0x317afabb)\n      or\n      swap1\n      mstore\n        /* \"contracts/CErc20Delegator.sol\":5736:5760  delegateToImplementation */\n      tag_87\n        /* \"contracts/CErc20Delegator.sol\":5736:5818  delegateToImplementation(abi.encodeWithSignature(\"borrow(uint256)\", borrowAmount)) */\n      jump\t// in\n        /* \"contracts/CErc20Delegator.sol\":4553:4781  function redeem(uint redeemTokens) override external returns (uint) {... */\n    tag_287:\n        /* \"contracts/CErc20Delegator.sol\":4615:4619  uint */\n      0x00\n        /* \"contracts/CErc20Delegator.sol\":4631:4648  bytes memory data */\n      dup1\n        /* \"contracts/CErc20Delegator.sol\":4651:4733  delegateToImplementation(abi.encodeWithSignature(\"redeem(uint256)\", redeemTokens)) */\n      tag_349\n        /* \"contracts/CErc20Delegator.sol\":4719:4731  redeemTokens */\n      dup4\n        /* \"contracts/CErc20Delegator.sol\":4676:4732  abi.encodeWithSignature(\"redeem(uint256)\", redeemTokens) */\n      add(0x24, mload(0x40))\n      tag_468\n      swap2\n        /* \"#utility.yul\":4062:4087   */\n      dup2\n      mstore\n        /* \"#utility.yul\":4050:4052   */\n      0x20\n        /* \"#utility.yul\":4035:4053   */\n      add\n      swap1\n        /* \"#utility.yul\":3916:4093   */\n      jump\n        /* \"contracts/CErc20Delegator.sol\":4676:4732  abi.encodeWithSignature(\"redeem(uint256)\", redeemTokens) */\n    tag_468:\n      0x40\n      dup1\n      mload\n      not(0x1f)\n      dup2\n      dup5\n      sub\n      add\n      dup2\n      mstore\n      swap2\n      swap1\n      mstore\n      0x20\n      dup2\n      add\n      dup1\n      mload\n      sub(shl(0xe0, 0x01), 0x01)\n      and\n      shl(0xe0, 0xdb006a75)\n      or\n      swap1\n      mstore\n        /* \"contracts/CErc20Delegator.sol\":4651:4675  delegateToImplementation */\n      tag_87\n        /* \"contracts/CErc20Delegator.sol\":4651:4733  delegateToImplementation(abi.encodeWithSignature(\"redeem(uint256)\", redeemTokens)) */\n      jump\t// in\n        /* \"contracts/CErc20Delegator.sol\":9874:10140  function allowance(address owner, address spender) override external view returns (uint) {... */\n    tag_293:\n        /* \"contracts/CErc20Delegator.sol\":10022:10091  abi.encodeWithSignature(\"allowance(address,address)\", owner, spender) */\n      mload(0x40)\n      sub(shl(0xa0, 0x01), 0x01)\n        /* \"#utility.yul\":12299:12314   */\n      dup1\n      dup5\n      and\n        /* \"contracts/CErc20Delegator.sol\":10022:10091  abi.encodeWithSignature(\"allowance(address,address)\", owner, spender) */\n      0x24\n      dup4\n      add\n        /* \"#utility.yul\":12281:12315   */\n      mstore\n        /* \"#utility.yul\":12351:12366   */\n      dup3\n      and\n        /* \"#utility.yul\":12331:12349   */\n      0x44\n      dup3\n      add\n        /* \"#utility.yul\":12324:12367   */\n      mstore\n        /* \"contracts/CErc20Delegator.sol\":9957:9961  uint */\n      0x00\n      swap1\n      dup2\n      swap1\n        /* \"contracts/CErc20Delegator.sol\":9993:10092  delegateToViewImplementation(abi.encodeWithSignature(\"allowance(address,address)\", owner, spender)) */\n      tag_370\n      swap1\n        /* \"#utility.yul\":12216:12234   */\n      0x64\n      add\n        /* \"contracts/CErc20Delegator.sol\":10022:10091  abi.encodeWithSignature(\"allowance(address,address)\", owner, spender) */\n      0x40\n      dup1\n      mload\n      not(0x1f)\n      dup2\n      dup5\n      sub\n      add\n      dup2\n      mstore\n      swap2\n      swap1\n      mstore\n      0x20\n      dup2\n      add\n      dup1\n      mload\n      sub(shl(0xe0, 0x01), 0x01)\n      and\n      shl(0xe1, 0x6eb1769f)\n      or\n      swap1\n      mstore\n        /* \"contracts/CErc20Delegator.sol\":9993:10021  delegateToViewImplementation */\n      tag_165\n        /* \"contracts/CErc20Delegator.sol\":9993:10092  delegateToViewImplementation(abi.encodeWithSignature(\"allowance(address,address)\", owner, spender)) */\n      jump\t// in\n        /* \"contracts/CErc20Delegator.sol\":18700:18902  function _acceptAdmin() override external returns (uint) {... */\n    tag_297:\n        /* \"contracts/CErc20Delegator.sol\":18812:18853  abi.encodeWithSignature(\"_acceptAdmin()\") */\n      0x40\n      dup1\n      mload\n      0x04\n      dup2\n      mstore\n      0x24\n      dup2\n      add\n      swap1\n      swap2\n      mstore\n      0x20\n      dup2\n      add\n      dup1\n      mload\n      sub(shl(0xe0, 0x01), 0x01)\n      and\n      shl(0xe1, 0x74e38a79)\n      or\n      swap1\n      mstore\n        /* \"contracts/CErc20Delegator.sol\":18751:18755  uint */\n      0x00\n      swap1\n      dup2\n      swap1\n        /* \"contracts/CErc20Delegator.sol\":18787:18854  delegateToImplementation(abi.encodeWithSignature(\"_acceptAdmin()\")) */\n      tag_358\n      swap1\n        /* \"contracts/CErc20Delegator.sol\":18787:18811  delegateToImplementation */\n      tag_87\n        /* \"contracts/CErc20Delegator.sol\":18787:18854  delegateToImplementation(abi.encodeWithSignature(\"_acceptAdmin()\")) */\n      jump\t// in\n        /* \"contracts/CErc20Delegator.sol\":20225:20510  function _setInterestRateModel(InterestRateModel newInterestRateModel) override public returns (uint) {... */\n    tag_303:\n        /* \"contracts/CErc20Delegator.sol\":20382:20461  abi.encodeWithSignature(\"_setInterestRateModel(address)\", newInterestRateModel) */\n      mload(0x40)\n      sub(shl(0xa0, 0x01), 0x01)\n        /* \"#utility.yul\":5277:5309   */\n      dup3\n      and\n        /* \"contracts/CErc20Delegator.sol\":20382:20461  abi.encodeWithSignature(\"_setInterestRateModel(address)\", newInterestRateModel) */\n      0x24\n      dup3\n      add\n        /* \"#utility.yul\":5259:5310   */\n      mstore\n        /* \"contracts/CErc20Delegator.sol\":20321:20325  uint */\n      0x00\n      swap1\n      dup2\n      swap1\n        /* \"contracts/CErc20Delegator.sol\":20357:20462  delegateToImplementation(abi.encodeWithSignature(\"_setInterestRateModel(address)\", newInterestRateModel)) */\n      tag_349\n      swap1\n        /* \"#utility.yul\":5232:5250   */\n      0x44\n      add\n        /* \"contracts/CErc20Delegator.sol\":20382:20461  abi.encodeWithSignature(\"_setInterestRateModel(address)\", newInterestRateModel) */\n      0x40\n      dup1\n      mload\n      not(0x1f)\n      dup2\n      dup5\n      sub\n      add\n      dup2\n      mstore\n      swap2\n      swap1\n      mstore\n      0x20\n      dup2\n      add\n      dup1\n      mload\n      sub(shl(0xe0, 0x01), 0x01)\n      and\n      shl(0xe0, 0xf2b3abbd)\n      or\n      swap1\n      mstore\n        /* \"contracts/CErc20Delegator.sol\":20357:20381  delegateToImplementation */\n      tag_87\n        /* \"contracts/CErc20Delegator.sol\":20357:20462  delegateToImplementation(abi.encodeWithSignature(\"_setInterestRateModel(address)\", newInterestRateModel)) */\n      jump\t// in\n        /* \"contracts/CErc20Delegator.sol\":7417:7757  function liquidateBorrow(address borrower, uint repayAmount, CTokenInterface cTokenCollateral) override external returns (uint) {... */\n    tag_314:\n        /* \"contracts/CErc20Delegator.sol\":7600:7708  abi.encodeWithSignature(\"liquidateBorrow(address,uint256,address)\", borrower, repayAmount, cTokenCollateral) */\n      mload(0x40)\n      sub(shl(0xa0, 0x01), 0x01)\n        /* \"#utility.yul\":13033:13048   */\n      dup1\n      dup6\n      and\n        /* \"contracts/CErc20Delegator.sol\":7600:7708  abi.encodeWithSignature(\"liquidateBorrow(address,uint256,address)\", borrower, repayAmount, cTokenCollateral) */\n      0x24\n      dup4\n      add\n        /* \"#utility.yul\":13015:13049   */\n      mstore\n        /* \"#utility.yul\":13065:13083   */\n      0x44\n      dup3\n      add\n        /* \"#utility.yul\":13058:13092   */\n      dup5\n      swap1\n      mstore\n        /* \"#utility.yul\":13128:13143   */\n      dup3\n      and\n        /* \"#utility.yul\":13108:13126   */\n      0x64\n      dup3\n      add\n        /* \"#utility.yul\":13101:13144   */\n      mstore\n        /* \"contracts/CErc20Delegator.sol\":7539:7543  uint */\n      0x00\n      swap1\n      dup2\n      swap1\n        /* \"contracts/CErc20Delegator.sol\":7575:7709  delegateToImplementation(abi.encodeWithSignature(\"liquidateBorrow(address,uint256,address)\", borrower, repayAmount, cTokenCollateral)) */\n      tag_447\n      swap1\n        /* \"#utility.yul\":12950:12968   */\n      0x84\n      add\n        /* \"contracts/CErc20Delegator.sol\":7600:7708  abi.encodeWithSignature(\"liquidateBorrow(address,uint256,address)\", borrower, repayAmount, cTokenCollateral) */\n      0x40\n      dup1\n      mload\n      not(0x1f)\n      dup2\n      dup5\n      sub\n      add\n      dup2\n      mstore\n      swap2\n      swap1\n      mstore\n      0x20\n      dup2\n      add\n      dup1\n      mload\n      sub(shl(0xe0, 0x01), 0x01)\n      and\n      shl(0xe1, 0x7af1e231)\n      or\n      swap1\n      mstore\n        /* \"contracts/CErc20Delegator.sol\":7575:7599  delegateToImplementation */\n      tag_87\n        /* \"contracts/CErc20Delegator.sol\":7575:7709  delegateToImplementation(abi.encodeWithSignature(\"liquidateBorrow(address,uint256,address)\", borrower, repayAmount, cTokenCollateral)) */\n      jump\t// in\n        /* \"contracts/CErc20Delegator.sol\":11844:12067  function borrowRatePerBlock() override external view returns (uint) {... */\n    tag_322:\n        /* \"contracts/CErc20Delegator.sol\":11971:12018  abi.encodeWithSignature(\"borrowRatePerBlock()\") */\n      0x40\n      dup1\n      mload\n      0x04\n      dup2\n      mstore\n      0x24\n      dup2\n      add\n      swap1\n      swap2\n      mstore\n      0x20\n      dup2\n      add\n      dup1\n      mload\n      sub(shl(0xe0, 0x01), 0x01)\n      and\n      shl(0xe3, 0x1f1f3b45)\n      or\n      swap1\n      mstore\n        /* \"contracts/CErc20Delegator.sol\":11906:11910  uint */\n      0x00\n      swap1\n      dup2\n      swap1\n        /* \"contracts/CErc20Delegator.sol\":11942:12019  delegateToViewImplementation(abi.encodeWithSignature(\"borrowRatePerBlock()\")) */\n      tag_358\n      swap1\n        /* \"contracts/CErc20Delegator.sol\":11942:11970  delegateToViewImplementation */\n      tag_165\n        /* \"contracts/CErc20Delegator.sol\":11942:12019  delegateToViewImplementation(abi.encodeWithSignature(\"borrowRatePerBlock()\")) */\n      jump\t// in\n        /* \"contracts/CErc20Delegator.sol\":18155:18429  function _setReserveFactor(uint newReserveFactorMantissa) override external returns (uint) {... */\n    tag_327:\n        /* \"contracts/CErc20Delegator.sol\":18240:18244  uint */\n      0x00\n        /* \"contracts/CErc20Delegator.sol\":18256:18273  bytes memory data */\n      dup1\n        /* \"contracts/CErc20Delegator.sol\":18276:18381  delegateToImplementation(abi.encodeWithSignature(\"_setReserveFactor(uint256)\", newReserveFactorMantissa)) */\n      tag_349\n        /* \"contracts/CErc20Delegator.sol\":18355:18379  newReserveFactorMantissa */\n      dup4\n        /* \"contracts/CErc20Delegator.sol\":18301:18380  abi.encodeWithSignature(\"_setReserveFactor(uint256)\", newReserveFactorMantissa) */\n      add(0x24, mload(0x40))\n      tag_491\n      swap2\n        /* \"#utility.yul\":4062:4087   */\n      dup2\n      mstore\n        /* \"#utility.yul\":4050:4052   */\n      0x20\n        /* \"#utility.yul\":4035:4053   */\n      add\n      swap1\n        /* \"#utility.yul\":3916:4093   */\n      jump\n        /* \"contracts/CErc20Delegator.sol\":18301:18380  abi.encodeWithSignature(\"_setReserveFactor(uint256)\", newReserveFactorMantissa) */\n    tag_491:\n      0x40\n      dup1\n      mload\n      not(0x1f)\n      dup2\n      dup5\n      sub\n      add\n      dup2\n      mstore\n      swap2\n      swap1\n      mstore\n      0x20\n      dup2\n      add\n      dup1\n      mload\n      sub(shl(0xe0, 0x01), 0x01)\n      and\n      shl(0xe0, 0xfca7820b)\n      or\n      swap1\n      mstore\n        /* \"contracts/CErc20Delegator.sol\":18276:18300  delegateToImplementation */\n      tag_87\n        /* \"contracts/CErc20Delegator.sol\":18276:18381  delegateToImplementation(abi.encodeWithSignature(\"_setReserveFactor(uint256)\", newReserveFactorMantissa)) */\n      jump\t// in\n        /* \"contracts/CErc20Delegator.sol\":20861:21198  function delegateTo(address callee, bytes memory data) internal returns (bytes memory) {... */\n    tag_341:\n        /* \"contracts/CErc20Delegator.sol\":20934:20946  bytes memory */\n      0x60\n        /* \"contracts/CErc20Delegator.sol\":20959:20971  bool success */\n      0x00\n        /* \"contracts/CErc20Delegator.sol\":20973:20996  bytes memory returnData */\n      dup1\n        /* \"contracts/CErc20Delegator.sol\":21000:21006  callee */\n      dup5\n      sub(shl(0xa0, 0x01), 0x01)\n        /* \"contracts/CErc20Delegator.sol\":21000:21019  callee.delegatecall */\n      and\n        /* \"contracts/CErc20Delegator.sol\":21020:21024  data */\n      dup5\n        /* \"contracts/CErc20Delegator.sol\":21000:21025  callee.delegatecall(data) */\n      mload(0x40)\n      tag_494\n      swap2\n      swap1\n      tag_387\n      jump\t// in\n    tag_494:\n      0x00\n      mload(0x40)\n      dup1\n      dup4\n      sub\n      dup2\n      dup6\n      gas\n      delegatecall\n      swap2\n      pop\n      pop\n      returndatasize\n      dup1\n      0x00\n      dup2\n      eq\n      tag_497\n      jumpi\n      mload(0x40)\n      swap2\n      pop\n      and(add(returndatasize, 0x3f), not(0x1f))\n      dup3\n      add\n      0x40\n      mstore\n      returndatasize\n      dup3\n      mstore\n      returndatasize\n      0x00\n      0x20\n      dup5\n      add\n      returndatacopy\n      jump(tag_496)\n    tag_497:\n      0x60\n      swap2\n      pop\n    tag_496:\n      pop\n        /* \"contracts/CErc20Delegator.sol\":20958:21025  (bool success, bytes memory returnData) = callee.delegatecall(data) */\n      swap2\n      pop\n      swap2\n      pop\n        /* \"contracts/CErc20Delegator.sol\":21073:21074  0 */\n      0x00\n        /* \"contracts/CErc20Delegator.sol\":21064:21071  success */\n      dup3\n        /* \"contracts/CErc20Delegator.sol\":21061:21075  eq(success, 0) */\n      eq\n        /* \"contracts/CErc20Delegator.sol\":21058:21155  if eq(success, 0) {... */\n      iszero\n      tag_346\n      jumpi\n        /* \"contracts/CErc20Delegator.sol\":21124:21140  returndatasize() */\n      returndatasize\n        /* \"contracts/CErc20Delegator.sol\":21117:21121  0x20 */\n      0x20\n        /* \"contracts/CErc20Delegator.sol\":21105:21115  returnData */\n      dup3\n        /* \"contracts/CErc20Delegator.sol\":21101:21122  add(returnData, 0x20) */\n      add\n        /* \"contracts/CErc20Delegator.sol\":21094:21141  revert(add(returnData, 0x20), returndatasize()) */\n      revert\n        /* \"#utility.yul\":438:709   */\n    tag_72:\n        /* \"#utility.yul\":621:627   */\n      dup2\n        /* \"#utility.yul\":613:619   */\n      dup4\n        /* \"#utility.yul\":608:611   */\n      dup3\n        /* \"#utility.yul\":595:628   */\n      calldatacopy\n        /* \"#utility.yul\":577:580   */\n      0x00\n        /* \"#utility.yul\":647:663   */\n      swap2\n      add\n        /* \"#utility.yul\":672:685   */\n      swap1\n      dup2\n      mstore\n        /* \"#utility.yul\":647:663   */\n      swap2\n        /* \"#utility.yul\":438:709   */\n      swap1\n      pop\n      jump\t// out\n        /* \"#utility.yul\":714:972   */\n    tag_499:\n        /* \"#utility.yul\":786:787   */\n      0x00\n        /* \"#utility.yul\":796:909   */\n    tag_511:\n        /* \"#utility.yul\":810:816   */\n      dup4\n        /* \"#utility.yul\":807:808   */\n      dup2\n        /* \"#utility.yul\":804:817   */\n      lt\n        /* \"#utility.yul\":796:909   */\n      iszero\n      tag_513\n      jumpi\n        /* \"#utility.yul\":886:897   */\n      dup2\n      dup2\n      add\n        /* \"#utility.yul\":880:898   */\n      mload\n        /* \"#utility.yul\":867:878   */\n      dup4\n      dup3\n      add\n        /* \"#utility.yul\":860:899   */\n      mstore\n        /* \"#utility.yul\":832:834   */\n      0x20\n        /* \"#utility.yul\":825:835   */\n      add\n        /* \"#utility.yul\":796:909   */\n      jump(tag_511)\n    tag_513:\n        /* \"#utility.yul\":927:933   */\n      dup4\n        /* \"#utility.yul\":924:925   */\n      dup2\n        /* \"#utility.yul\":921:934   */\n      gt\n        /* \"#utility.yul\":918:966   */\n      iszero\n      tag_514\n      jumpi\n        /* \"#utility.yul\":962:963   */\n      0x00\n        /* \"#utility.yul\":953:959   */\n      dup5\n        /* \"#utility.yul\":948:951   */\n      dup5\n        /* \"#utility.yul\":944:960   */\n      add\n        /* \"#utility.yul\":937:964   */\n      mstore\n        /* \"#utility.yul\":918:966   */\n    tag_514:\n      pop\n        /* \"#utility.yul\":714:972   */\n      pop\n      pop\n      pop\n      jump\t// out\n        /* \"#utility.yul\":977:1235   */\n    tag_500:\n        /* \"#utility.yul\":1019:1022   */\n      0x00\n        /* \"#utility.yul\":1057:1062   */\n      dup2\n        /* \"#utility.yul\":1051:1063   */\n      mload\n        /* \"#utility.yul\":1084:1090   */\n      dup1\n        /* \"#utility.yul\":1079:1082   */\n      dup5\n        /* \"#utility.yul\":1072:1091   */\n      mstore\n        /* \"#utility.yul\":1100:1163   */\n      tag_516\n        /* \"#utility.yul\":1156:1162   */\n      dup2\n        /* \"#utility.yul\":1149:1153   */\n      0x20\n        /* \"#utility.yul\":1144:1147   */\n      dup7\n        /* \"#utility.yul\":1140:1154   */\n      add\n        /* \"#utility.yul\":1133:1137   */\n      0x20\n        /* \"#utility.yul\":1126:1131   */\n      dup7\n        /* \"#utility.yul\":1122:1138   */\n      add\n        /* \"#utility.yul\":1100:1163   */\n      tag_499\n      jump\t// in\n    tag_516:\n        /* \"#utility.yul\":1217:1219   */\n      0x1f\n        /* \"#utility.yul\":1196:1211   */\n      add\n      not(0x1f)\n        /* \"#utility.yul\":1192:1221   */\n      and\n        /* \"#utility.yul\":1183:1222   */\n      swap3\n      swap1\n      swap3\n      add\n        /* \"#utility.yul\":1224:1228   */\n      0x20\n        /* \"#utility.yul\":1179:1229   */\n      add\n      swap3\n        /* \"#utility.yul\":977:1235   */\n      swap2\n      pop\n      pop\n      jump\t// out\n        /* \"#utility.yul\":1240:1460   */\n    tag_82:\n        /* \"#utility.yul\":1389:1391   */\n      0x20\n        /* \"#utility.yul\":1378:1387   */\n      dup2\n        /* \"#utility.yul\":1371:1392   */\n      mstore\n        /* \"#utility.yul\":1352:1356   */\n      0x00\n        /* \"#utility.yul\":1409:1454   */\n      tag_351\n        /* \"#utility.yul\":1450:1452   */\n      0x20\n        /* \"#utility.yul\":1439:1448   */\n      dup4\n        /* \"#utility.yul\":1435:1453   */\n      add\n        /* \"#utility.yul\":1427:1433   */\n      dup5\n        /* \"#utility.yul\":1409:1454   */\n      tag_500\n      jump\t// in\n        /* \"#utility.yul\":1465:1592   */\n    tag_501:\n        /* \"#utility.yul\":1526:1536   */\n      0x4e487b71\n        /* \"#utility.yul\":1521:1524   */\n      0xe0\n        /* \"#utility.yul\":1517:1537   */\n      shl\n        /* \"#utility.yul\":1514:1515   */\n      0x00\n        /* \"#utility.yul\":1507:1538   */\n      mstore\n        /* \"#utility.yul\":1557:1561   */\n      0x41\n        /* \"#utility.yul\":1554:1555   */\n      0x04\n        /* \"#utility.yul\":1547:1562   */\n      mstore\n        /* \"#utility.yul\":1581:1585   */\n      0x24\n        /* \"#utility.yul\":1578:1579   */\n      0x00\n        /* \"#utility.yul\":1571:1586   */\n      revert\n        /* \"#utility.yul\":1597:1872   */\n    tag_502:\n        /* \"#utility.yul\":1668:1670   */\n      0x40\n        /* \"#utility.yul\":1662:1671   */\n      mload\n        /* \"#utility.yul\":1733:1735   */\n      0x1f\n        /* \"#utility.yul\":1714:1727   */\n      dup3\n      add\n      not(0x1f)\n        /* \"#utility.yul\":1710:1737   */\n      and\n        /* \"#utility.yul\":1698:1738   */\n      dup2\n      add\n        /* \"#utility.yul\":1768:1786   */\n      0xffffffffffffffff\n        /* \"#utility.yul\":1753:1787   */\n      dup2\n      gt\n        /* \"#utility.yul\":1789:1811   */\n      dup3\n      dup3\n      lt\n        /* \"#utility.yul\":1750:1812   */\n      or\n        /* \"#utility.yul\":1747:1835   */\n      iszero\n      tag_522\n      jumpi\n        /* \"#utility.yul\":1815:1833   */\n      tag_522\n      tag_501\n      jump\t// in\n    tag_522:\n        /* \"#utility.yul\":1851:1853   */\n      0x40\n        /* \"#utility.yul\":1844:1866   */\n      mstore\n        /* \"#utility.yul\":1597:1872   */\n      swap2\n      swap1\n      pop\n      jump\t// out\n        /* \"#utility.yul\":1877:2063   */\n    tag_503:\n        /* \"#utility.yul\":1925:1929   */\n      0x00\n        /* \"#utility.yul\":1958:1976   */\n      0xffffffffffffffff\n        /* \"#utility.yul\":1950:1956   */\n      dup3\n        /* \"#utility.yul\":1947:1977   */\n      gt\n        /* \"#utility.yul\":1944:2000   */\n      iszero\n      tag_525\n      jumpi\n        /* \"#utility.yul\":1980:1998   */\n      tag_525\n      tag_501\n      jump\t// in\n    tag_525:\n      pop\n        /* \"#utility.yul\":2046:2048   */\n      0x1f\n        /* \"#utility.yul\":2025:2040   */\n      add\n      not(0x1f)\n        /* \"#utility.yul\":2021:2050   */\n      and\n        /* \"#utility.yul\":2052:2056   */\n      0x20\n        /* \"#utility.yul\":2017:2057   */\n      add\n      swap1\n        /* \"#utility.yul\":1877:2063   */\n      jump\t// out\n        /* \"#utility.yul\":2068:2530   */\n    tag_504:\n        /* \"#utility.yul\":2110:2115   */\n      0x00\n        /* \"#utility.yul\":2163:2166   */\n      dup3\n        /* \"#utility.yul\":2156:2160   */\n      0x1f\n        /* \"#utility.yul\":2148:2154   */\n      dup4\n        /* \"#utility.yul\":2144:2161   */\n      add\n        /* \"#utility.yul\":2140:2167   */\n      slt\n        /* \"#utility.yul\":2130:2185   */\n      tag_527\n      jumpi\n        /* \"#utility.yul\":2181:2182   */\n      0x00\n        /* \"#utility.yul\":2178:2179   */\n      dup1\n        /* \"#utility.yul\":2171:2183   */\n      revert\n        /* \"#utility.yul\":2130:2185   */\n    tag_527:\n        /* \"#utility.yul\":2217:2223   */\n      dup2\n        /* \"#utility.yul\":2204:2224   */\n      calldataload\n        /* \"#utility.yul\":2248:2296   */\n      tag_528\n        /* \"#utility.yul\":2264:2295   */\n      tag_529\n        /* \"#utility.yul\":2292:2294   */\n      dup3\n        /* \"#utility.yul\":2264:2295   */\n      tag_503\n      jump\t// in\n    tag_529:\n        /* \"#utility.yul\":2248:2296   */\n      tag_502\n      jump\t// in\n    tag_528:\n        /* \"#utility.yul\":2321:2323   */\n      dup2\n        /* \"#utility.yul\":2312:2319   */\n      dup2\n        /* \"#utility.yul\":2305:2324   */\n      mstore\n        /* \"#utility.yul\":2367:2370   */\n      dup5\n        /* \"#utility.yul\":2360:2364   */\n      0x20\n        /* \"#utility.yul\":2355:2357   */\n      dup4\n        /* \"#utility.yul\":2347:2353   */\n      dup7\n        /* \"#utility.yul\":2343:2358   */\n      add\n        /* \"#utility.yul\":2339:2365   */\n      add\n        /* \"#utility.yul\":2336:2371   */\n      gt\n        /* \"#utility.yul\":2333:2388   */\n      iszero\n      tag_530\n      jumpi\n        /* \"#utility.yul\":2384:2385   */\n      0x00\n        /* \"#utility.yul\":2381:2382   */\n      dup1\n        /* \"#utility.yul\":2374:2386   */\n      revert\n        /* \"#utility.yul\":2333:2388   */\n    tag_530:\n        /* \"#utility.yul\":2449:2451   */\n      dup2\n        /* \"#utility.yul\":2442:2446   */\n      0x20\n        /* \"#utility.yul\":2434:2440   */\n      dup6\n        /* \"#utility.yul\":2430:2447   */\n      add\n        /* \"#utility.yul\":2423:2427   */\n      0x20\n        /* \"#utility.yul\":2414:2421   */\n      dup4\n        /* \"#utility.yul\":2410:2428   */\n      add\n        /* \"#utility.yul\":2397:2452   */\n      calldatacopy\n        /* \"#utility.yul\":2497:2498   */\n      0x00\n        /* \"#utility.yul\":2472:2488   */\n      swap2\n      dup2\n      add\n        /* \"#utility.yul\":2490:2494   */\n      0x20\n        /* \"#utility.yul\":2468:2495   */\n      add\n        /* \"#utility.yul\":2461:2499   */\n      swap2\n      swap1\n      swap2\n      mstore\n        /* \"#utility.yul\":2476:2483   */\n      swap4\n        /* \"#utility.yul\":2068:2530   */\n      swap3\n      pop\n      pop\n      pop\n      jump\t// out\n        /* \"#utility.yul\":2535:2855   */\n    tag_86:\n        /* \"#utility.yul\":2603:2609   */\n      0x00\n        /* \"#utility.yul\":2656:2658   */\n      0x20\n        /* \"#utility.yul\":2644:2653   */\n      dup3\n        /* \"#utility.yul\":2635:2642   */\n      dup5\n        /* \"#utility.yul\":2631:2654   */\n      sub\n        /* \"#utility.yul\":2627:2659   */\n      slt\n        /* \"#utility.yul\":2624:2676   */\n      iszero\n      tag_532\n      jumpi\n        /* \"#utility.yul\":2672:2673   */\n      0x00\n        /* \"#utility.yul\":2669:2670   */\n      dup1\n        /* \"#utility.yul\":2662:2674   */\n      revert\n        /* \"#utility.yul\":2624:2676   */\n    tag_532:\n        /* \"#utility.yul\":2712:2721   */\n      dup2\n        /* \"#utility.yul\":2699:2722   */\n      calldataload\n        /* \"#utility.yul\":2745:2763   */\n      0xffffffffffffffff\n        /* \"#utility.yul\":2737:2743   */\n      dup2\n        /* \"#utility.yul\":2734:2764   */\n      gt\n        /* \"#utility.yul\":2731:2781   */\n      iszero\n      tag_533\n      jumpi\n        /* \"#utility.yul\":2777:2778   */\n      0x00\n        /* \"#utility.yul\":2774:2775   */\n      dup1\n        /* \"#utility.yul\":2767:2779   */\n      revert\n        /* \"#utility.yul\":2731:2781   */\n    tag_533:\n        /* \"#utility.yul\":2800:2849   */\n      tag_346\n        /* \"#utility.yul\":2841:2848   */\n      dup5\n        /* \"#utility.yul\":2832:2838   */\n      dup3\n        /* \"#utility.yul\":2821:2830   */\n      dup6\n        /* \"#utility.yul\":2817:2839   */\n      add\n        /* \"#utility.yul\":2800:2849   */\n      tag_504\n      jump\t// in\n        /* \"#utility.yul\":3083:3214   */\n    tag_505:\n      sub(shl(0xa0, 0x01), 0x01)\n        /* \"#utility.yul\":3158:3189   */\n      dup2\n      and\n        /* \"#utility.yul\":3148:3190   */\n      dup2\n      eq\n        /* \"#utility.yul\":3138:3208   */\n      tag_538\n      jumpi\n        /* \"#utility.yul\":3204:3205   */\n      0x00\n        /* \"#utility.yul\":3201:3202   */\n      dup1\n        /* \"#utility.yul\":3194:3206   */\n      revert\n        /* \"#utility.yul\":3138:3208   */\n    tag_538:\n        /* \"#utility.yul\":3083:3214   */\n      pop\n      jump\t// out\n        /* \"#utility.yul\":3219:3534   */\n    tag_93:\n        /* \"#utility.yul\":3287:3293   */\n      0x00\n        /* \"#utility.yul\":3295:3301   */\n      dup1\n        /* \"#utility.yul\":3348:3350   */\n      0x40\n        /* \"#utility.yul\":3336:3345   */\n      dup4\n        /* \"#utility.yul\":3327:3334   */\n      dup6\n        /* \"#utility.yul\":3323:3346   */\n      sub\n        /* \"#utility.yul\":3319:3351   */\n      slt\n        /* \"#utility.yul\":3316:3368   */\n      iszero\n      tag_540\n      jumpi\n        /* \"#utility.yul\":3364:3365   */\n      0x00\n        /* \"#utility.yul\":3361:3362   */\n      dup1\n        /* \"#utility.yul\":3354:3366   */\n      revert\n        /* \"#utility.yul\":3316:3368   */\n    tag_540:\n        /* \"#utility.yul\":3403:3412   */\n      dup3\n        /* \"#utility.yul\":3390:3413   */\n      calldataload\n        /* \"#utility.yul\":3422:3453   */\n      tag_541\n        /* \"#utility.yul\":3447:3452   */\n      dup2\n        /* \"#utility.yul\":3422:3453   */\n      tag_505\n      jump\t// in\n    tag_541:\n        /* \"#utility.yul\":3472:3477   */\n      swap5\n        /* \"#utility.yul\":3524:3526   */\n      0x20\n        /* \"#utility.yul\":3509:3527   */\n      swap4\n      swap1\n      swap4\n      add\n        /* \"#utility.yul\":3496:3528   */\n      calldataload\n      swap4\n      pop\n      pop\n      pop\n        /* \"#utility.yul\":3219:3534   */\n      jump\t// out\n        /* \"#utility.yul\":3731:3911   */\n    tag_100:\n        /* \"#utility.yul\":3790:3796   */\n      0x00\n        /* \"#utility.yul\":3843:3845   */\n      0x20\n        /* \"#utility.yul\":3831:3840   */\n      dup3\n        /* \"#utility.yul\":3822:3829   */\n      dup5\n        /* \"#utility.yul\":3818:3841   */\n      sub\n        /* \"#utility.yul\":3814:3846   */\n      slt\n        /* \"#utility.yul\":3811:3863   */\n      iszero\n      tag_544\n      jumpi\n        /* \"#utility.yul\":3859:3860   */\n      0x00\n        /* \"#utility.yul\":3856:3857   */\n      dup1\n        /* \"#utility.yul\":3849:3861   */\n      revert\n        /* \"#utility.yul\":3811:3863   */\n    tag_544:\n      pop\n        /* \"#utility.yul\":3882:3905   */\n      calldataload\n      swap2\n        /* \"#utility.yul\":3731:3911   */\n      swap1\n      pop\n      jump\t// out\n        /* \"#utility.yul\":4098:4345   */\n    tag_111:\n        /* \"#utility.yul\":4157:4163   */\n      0x00\n        /* \"#utility.yul\":4210:4212   */\n      0x20\n        /* \"#utility.yul\":4198:4207   */\n      dup3\n        /* \"#utility.yul\":4189:4196   */\n      dup5\n        /* \"#utility.yul\":4185:4208   */\n      sub\n        /* \"#utility.yul\":4181:4213   */\n      slt\n        /* \"#utility.yul\":4178:4230   */\n      iszero\n      tag_547\n      jumpi\n        /* \"#utility.yul\":4226:4227   */\n      0x00\n        /* \"#utility.yul\":4223:4224   */\n      dup1\n        /* \"#utility.yul\":4216:4228   */\n      revert\n        /* \"#utility.yul\":4178:4230   */\n    tag_547:\n        /* \"#utility.yul\":4265:4274   */\n      dup2\n        /* \"#utility.yul\":4252:4275   */\n      calldataload\n        /* \"#utility.yul\":4284:4315   */\n      tag_351\n        /* \"#utility.yul\":4309:4314   */\n      dup2\n        /* \"#utility.yul\":4284:4315   */\n      tag_505\n      jump\t// in\n        /* \"#utility.yul\":4636:5092   */\n    tag_130:\n        /* \"#utility.yul\":4713:4719   */\n      0x00\n        /* \"#utility.yul\":4721:4727   */\n      dup1\n        /* \"#utility.yul\":4729:4735   */\n      0x00\n        /* \"#utility.yul\":4782:4784   */\n      0x60\n        /* \"#utility.yul\":4770:4779   */\n      dup5\n        /* \"#utility.yul\":4761:4768   */\n      dup7\n        /* \"#utility.yul\":4757:4780   */\n      sub\n        /* \"#utility.yul\":4753:4785   */\n      slt\n        /* \"#utility.yul\":4750:4802   */\n      iszero\n      tag_553\n      jumpi\n        /* \"#utility.yul\":4798:4799   */\n      0x00\n        /* \"#utility.yul\":4795:4796   */\n      dup1\n        /* \"#utility.yul\":4788:4800   */\n      revert\n        /* \"#utility.yul\":4750:4802   */\n    tag_553:\n        /* \"#utility.yul\":4837:4846   */\n      dup4\n        /* \"#utility.yul\":4824:4847   */\n      calldataload\n        /* \"#utility.yul\":4856:4887   */\n      tag_554\n        /* \"#utility.yul\":4881:4886   */\n      dup2\n        /* \"#utility.yul\":4856:4887   */\n      tag_505\n      jump\t// in\n    tag_554:\n        /* \"#utility.yul\":4906:4911   */\n      swap3\n      pop\n        /* \"#utility.yul\":4963:4965   */\n      0x20\n        /* \"#utility.yul\":4948:4966   */\n      dup5\n      add\n        /* \"#utility.yul\":4935:4967   */\n      calldataload\n        /* \"#utility.yul\":4976:5009   */\n      tag_555\n        /* \"#utility.yul\":4935:4967   */\n      dup2\n        /* \"#utility.yul\":4976:5009   */\n      tag_505\n      jump\t// in\n    tag_555:\n        /* \"#utility.yul\":4636:5092   */\n      swap3\n      swap6\n        /* \"#utility.yul\":5028:5035   */\n      swap3\n      swap5\n      pop\n      pop\n      pop\n        /* \"#utility.yul\":5082:5084   */\n      0x40\n        /* \"#utility.yul\":5067:5085   */\n      swap2\n      swap1\n      swap2\n      add\n        /* \"#utility.yul\":5054:5086   */\n      calldataload\n      swap1\n        /* \"#utility.yul\":4636:5092   */\n      jump\t// out\n        /* \"#utility.yul\":5791:5909   */\n    tag_506:\n        /* \"#utility.yul\":5877:5882   */\n      dup1\n        /* \"#utility.yul\":5870:5883   */\n      iszero\n        /* \"#utility.yul\":5863:5884   */\n      iszero\n        /* \"#utility.yul\":5856:5861   */\n      dup2\n        /* \"#utility.yul\":5853:5885   */\n      eq\n        /* \"#utility.yul\":5843:5903   */\n      tag_538\n      jumpi\n        /* \"#utility.yul\":5899:5900   */\n      0x00\n        /* \"#utility.yul\":5896:5897   */\n      dup1\n        /* \"#utility.yul\":5889:5901   */\n      revert\n        /* \"#utility.yul\":5914:6504   */\n    tag_180:\n        /* \"#utility.yul\":5997:6003   */\n      0x00\n        /* \"#utility.yul\":6005:6011   */\n      dup1\n        /* \"#utility.yul\":6013:6019   */\n      0x00\n        /* \"#utility.yul\":6066:6068   */\n      0x60\n        /* \"#utility.yul\":6054:6063   */\n      dup5\n        /* \"#utility.yul\":6045:6052   */\n      dup7\n        /* \"#utility.yul\":6041:6064   */\n      sub\n        /* \"#utility.yul\":6037:6069   */\n      slt\n        /* \"#utility.yul\":6034:6086   */\n      iszero\n      tag_564\n      jumpi\n        /* \"#utility.yul\":6082:6083   */\n      0x00\n        /* \"#utility.yul\":6079:6080   */\n      dup1\n        /* \"#utility.yul\":6072:6084   */\n      revert\n        /* \"#utility.yul\":6034:6086   */\n    tag_564:\n        /* \"#utility.yul\":6121:6130   */\n      dup4\n        /* \"#utility.yul\":6108:6131   */\n      calldataload\n        /* \"#utility.yul\":6140:6171   */\n      tag_565\n        /* \"#utility.yul\":6165:6170   */\n      dup2\n        /* \"#utility.yul\":6140:6171   */\n      tag_505\n      jump\t// in\n    tag_565:\n        /* \"#utility.yul\":6190:6195   */\n      swap3\n      pop\n        /* \"#utility.yul\":6247:6249   */\n      0x20\n        /* \"#utility.yul\":6232:6250   */\n      dup5\n      add\n        /* \"#utility.yul\":6219:6251   */\n      calldataload\n        /* \"#utility.yul\":6260:6290   */\n      tag_566\n        /* \"#utility.yul\":6219:6251   */\n      dup2\n        /* \"#utility.yul\":6260:6290   */\n      tag_506\n      jump\t// in\n    tag_566:\n        /* \"#utility.yul\":6309:6316   */\n      swap2\n      pop\n        /* \"#utility.yul\":6367:6369   */\n      0x40\n        /* \"#utility.yul\":6352:6370   */\n      dup5\n      add\n        /* \"#utility.yul\":6339:6371   */\n      calldataload\n        /* \"#utility.yul\":6394:6412   */\n      0xffffffffffffffff\n        /* \"#utility.yul\":6383:6413   */\n      dup2\n      gt\n        /* \"#utility.yul\":6380:6430   */\n      iszero\n      tag_567\n      jumpi\n        /* \"#utility.yul\":6426:6427   */\n      0x00\n        /* \"#utility.yul\":6423:6424   */\n      dup1\n        /* \"#utility.yul\":6416:6428   */\n      revert\n        /* \"#utility.yul\":6380:6430   */\n    tag_567:\n        /* \"#utility.yul\":6449:6498   */\n      tag_568\n        /* \"#utility.yul\":6490:6497   */\n      dup7\n        /* \"#utility.yul\":6481:6487   */\n      dup3\n        /* \"#utility.yul\":6470:6479   */\n      dup8\n        /* \"#utility.yul\":6466:6488   */\n      add\n        /* \"#utility.yul\":6449:6498   */\n      tag_504\n      jump\t// in\n    tag_568:\n        /* \"#utility.yul\":6439:6498   */\n      swap2\n      pop\n      pop\n        /* \"#utility.yul\":5914:6504   */\n      swap3\n      pop\n      swap3\n      pop\n      swap3\n      jump\t// out\n        /* \"#utility.yul\":7610:7998   */\n    tag_292:\n        /* \"#utility.yul\":7678:7684   */\n      0x00\n        /* \"#utility.yul\":7686:7692   */\n      dup1\n        /* \"#utility.yul\":7739:7741   */\n      0x40\n        /* \"#utility.yul\":7727:7736   */\n      dup4\n        /* \"#utility.yul\":7718:7725   */\n      dup6\n        /* \"#utility.yul\":7714:7737   */\n      sub\n        /* \"#utility.yul\":7710:7742   */\n      slt\n        /* \"#utility.yul\":7707:7759   */\n      iszero\n      tag_576\n      jumpi\n        /* \"#utility.yul\":7755:7756   */\n      0x00\n        /* \"#utility.yul\":7752:7753   */\n      dup1\n        /* \"#utility.yul\":7745:7757   */\n      revert\n        /* \"#utility.yul\":7707:7759   */\n    tag_576:\n        /* \"#utility.yul\":7794:7803   */\n      dup3\n        /* \"#utility.yul\":7781:7804   */\n      calldataload\n        /* \"#utility.yul\":7813:7844   */\n      tag_577\n        /* \"#utility.yul\":7838:7843   */\n      dup2\n        /* \"#utility.yul\":7813:7844   */\n      tag_505\n      jump\t// in\n    tag_577:\n        /* \"#utility.yul\":7863:7868   */\n      swap2\n      pop\n        /* \"#utility.yul\":7920:7922   */\n      0x20\n        /* \"#utility.yul\":7905:7923   */\n      dup4\n      add\n        /* \"#utility.yul\":7892:7924   */\n      calldataload\n        /* \"#utility.yul\":7933:7966   */\n      tag_578\n        /* \"#utility.yul\":7892:7924   */\n      dup2\n        /* \"#utility.yul\":7933:7966   */\n      tag_505\n      jump\t// in\n    tag_578:\n        /* \"#utility.yul\":7985:7992   */\n      dup1\n        /* \"#utility.yul\":7975:7992   */\n      swap2\n      pop\n      pop\n        /* \"#utility.yul\":7610:7998   */\n      swap3\n      pop\n      swap3\n      swap1\n      pop\n      jump\t// out\n        /* \"#utility.yul\":8515:8995   */\n    tag_313:\n        /* \"#utility.yul\":8616:8622   */\n      0x00\n        /* \"#utility.yul\":8624:8630   */\n      dup1\n        /* \"#utility.yul\":8632:8638   */\n      0x00\n        /* \"#utility.yul\":8685:8687   */\n      0x60\n        /* \"#utility.yul\":8673:8682   */\n      dup5\n        /* \"#utility.yul\":8664:8671   */\n      dup7\n        /* \"#utility.yul\":8660:8683   */\n      sub\n        /* \"#utility.yul\":8656:8688   */\n      slt\n        /* \"#utility.yul\":8653:8705   */\n      iszero\n      tag_584\n      jumpi\n        /* \"#utility.yul\":8701:8702   */\n      0x00\n        /* \"#utility.yul\":8698:8699   */\n      dup1\n        /* \"#utility.yul\":8691:8703   */\n      revert\n        /* \"#utility.yul\":8653:8705   */\n    tag_584:\n        /* \"#utility.yul\":8740:8749   */\n      dup4\n        /* \"#utility.yul\":8727:8750   */\n      calldataload\n        /* \"#utility.yul\":8759:8790   */\n      tag_585\n        /* \"#utility.yul\":8784:8789   */\n      dup2\n        /* \"#utility.yul\":8759:8790   */\n      tag_505\n      jump\t// in\n    tag_585:\n        /* \"#utility.yul\":8809:8814   */\n      swap3\n      pop\n        /* \"#utility.yul\":8861:8863   */\n      0x20\n        /* \"#utility.yul\":8846:8864   */\n      dup5\n      add\n        /* \"#utility.yul\":8833:8865   */\n      calldataload\n      swap2\n      pop\n        /* \"#utility.yul\":8917:8919   */\n      0x40\n        /* \"#utility.yul\":8902:8920   */\n      dup5\n      add\n        /* \"#utility.yul\":8889:8921   */\n      calldataload\n        /* \"#utility.yul\":8930:8963   */\n      tag_586\n        /* \"#utility.yul\":8889:8921   */\n      dup2\n        /* \"#utility.yul\":8930:8963   */\n      tag_505\n      jump\t// in\n    tag_586:\n        /* \"#utility.yul\":8982:8989   */\n      dup1\n        /* \"#utility.yul\":8972:8989   */\n      swap2\n      pop\n      pop\n        /* \"#utility.yul\":8515:8995   */\n      swap3\n      pop\n      swap3\n      pop\n      swap3\n      jump\t// out\n        /* \"#utility.yul\":9000:9380   */\n    tag_334:\n        /* \"#utility.yul\":9079:9080   */\n      0x01\n        /* \"#utility.yul\":9075:9087   */\n      dup2\n      dup2\n      shr\n      swap1\n        /* \"#utility.yul\":9122:9134   */\n      dup3\n      and\n      dup1\n        /* \"#utility.yul\":9143:9204   */\n      tag_588\n      jumpi\n        /* \"#utility.yul\":9197:9201   */\n      0x7f\n        /* \"#utility.yul\":9189:9195   */\n      dup3\n        /* \"#utility.yul\":9185:9202   */\n      and\n        /* \"#utility.yul\":9175:9202   */\n      swap2\n      pop\n        /* \"#utility.yul\":9143:9204   */\n    tag_588:\n        /* \"#utility.yul\":9250:9252   */\n      0x20\n        /* \"#utility.yul\":9242:9248   */\n      dup3\n        /* \"#utility.yul\":9239:9253   */\n      lt\n        /* \"#utility.yul\":9219:9237   */\n      dup2\n        /* \"#utility.yul\":9216:9254   */\n      eq\n        /* \"#utility.yul\":9213:9374   */\n      iszero\n      tag_589\n      jumpi\n        /* \"#utility.yul\":9296:9306   */\n      0x4e487b71\n        /* \"#utility.yul\":9291:9294   */\n      0xe0\n        /* \"#utility.yul\":9287:9307   */\n      shl\n        /* \"#utility.yul\":9284:9285   */\n      0x00\n        /* \"#utility.yul\":9277:9308   */\n      mstore\n        /* \"#utility.yul\":9331:9335   */\n      0x22\n        /* \"#utility.yul\":9328:9329   */\n      0x04\n        /* \"#utility.yul\":9321:9336   */\n      mstore\n        /* \"#utility.yul\":9359:9363   */\n      0x24\n        /* \"#utility.yul\":9356:9357   */\n      0x00\n        /* \"#utility.yul\":9349:9364   */\n      revert\n        /* \"#utility.yul\":9213:9374   */\n    tag_589:\n      pop\n        /* \"#utility.yul\":9000:9380   */\n      swap2\n      swap1\n      pop\n      jump\t// out\n        /* \"#utility.yul\":9664:9909   */\n    tag_347:\n        /* \"#utility.yul\":9731:9737   */\n      0x00\n        /* \"#utility.yul\":9784:9786   */\n      0x20\n        /* \"#utility.yul\":9772:9781   */\n      dup3\n        /* \"#utility.yul\":9763:9770   */\n      dup5\n        /* \"#utility.yul\":9759:9782   */\n      sub\n        /* \"#utility.yul\":9755:9787   */\n      slt\n        /* \"#utility.yul\":9752:9804   */\n      iszero\n      tag_592\n      jumpi\n        /* \"#utility.yul\":9800:9801   */\n      0x00\n        /* \"#utility.yul\":9797:9798   */\n      dup1\n        /* \"#utility.yul\":9790:9802   */\n      revert\n        /* \"#utility.yul\":9752:9804   */\n    tag_592:\n        /* \"#utility.yul\":9832:9841   */\n      dup2\n        /* \"#utility.yul\":9826:9842   */\n      mload\n        /* \"#utility.yul\":9851:9879   */\n      tag_351\n        /* \"#utility.yul\":9873:9878   */\n      dup2\n        /* \"#utility.yul\":9851:9879   */\n      tag_506\n      jump\t// in\n        /* \"#utility.yul\":9914:10098   */\n    tag_352:\n        /* \"#utility.yul\":9984:9990   */\n      0x00\n        /* \"#utility.yul\":10037:10039   */\n      0x20\n        /* \"#utility.yul\":10025:10034   */\n      dup3\n        /* \"#utility.yul\":10016:10023   */\n      dup5\n        /* \"#utility.yul\":10012:10035   */\n      sub\n        /* \"#utility.yul\":10008:10040   */\n      slt\n        /* \"#utility.yul\":10005:10057   */\n      iszero\n      tag_595\n      jumpi\n        /* \"#utility.yul\":10053:10054   */\n      0x00\n        /* \"#utility.yul\":10050:10051   */\n      dup1\n        /* \"#utility.yul\":10043:10055   */\n      revert\n        /* \"#utility.yul\":10005:10057   */\n    tag_595:\n      pop\n        /* \"#utility.yul\":10076:10092   */\n      mload\n      swap2\n        /* \"#utility.yul\":9914:10098   */\n      swap1\n      pop\n      jump\t// out\n        /* \"#utility.yul\":10725:10999   */\n    tag_387:\n        /* \"#utility.yul\":10854:10857   */\n      0x00\n        /* \"#utility.yul\":10892:10898   */\n      dup3\n        /* \"#utility.yul\":10886:10899   */\n      mload\n        /* \"#utility.yul\":10908:10961   */\n      tag_599\n        /* \"#utility.yul\":10954:10960   */\n      dup2\n        /* \"#utility.yul\":10949:10952   */\n      dup5\n        /* \"#utility.yul\":10942:10946   */\n      0x20\n        /* \"#utility.yul\":10934:10940   */\n      dup8\n        /* \"#utility.yul\":10930:10947   */\n      add\n        /* \"#utility.yul\":10908:10961   */\n      tag_499\n      jump\t// in\n    tag_599:\n        /* \"#utility.yul\":10977:10993   */\n      swap2\n      swap1\n      swap2\n      add\n      swap3\n        /* \"#utility.yul\":10725:10999   */\n      swap2\n      pop\n      pop\n      jump\t// out\n        /* \"#utility.yul\":11004:11638   */\n    tag_393:\n        /* \"#utility.yul\":11083:11089   */\n      0x00\n        /* \"#utility.yul\":11136:11138   */\n      0x20\n        /* \"#utility.yul\":11124:11133   */\n      dup3\n        /* \"#utility.yul\":11115:11122   */\n      dup5\n        /* \"#utility.yul\":11111:11134   */\n      sub\n        /* \"#utility.yul\":11107:11139   */\n      slt\n        /* \"#utility.yul\":11104:11156   */\n      iszero\n      tag_601\n      jumpi\n        /* \"#utility.yul\":11152:11153   */\n      0x00\n        /* \"#utility.yul\":11149:11150   */\n      dup1\n        /* \"#utility.yul\":11142:11154   */\n      revert\n        /* \"#utility.yul\":11104:11156   */\n    tag_601:\n        /* \"#utility.yul\":11185:11194   */\n      dup2\n        /* \"#utility.yul\":11179:11195   */\n      mload\n        /* \"#utility.yul\":11218:11236   */\n      0xffffffffffffffff\n        /* \"#utility.yul\":11210:11216   */\n      dup2\n        /* \"#utility.yul\":11207:11237   */\n      gt\n        /* \"#utility.yul\":11204:11254   */\n      iszero\n      tag_602\n      jumpi\n        /* \"#utility.yul\":11250:11251   */\n      0x00\n        /* \"#utility.yul\":11247:11248   */\n      dup1\n        /* \"#utility.yul\":11240:11252   */\n      revert\n        /* \"#utility.yul\":11204:11254   */\n    tag_602:\n        /* \"#utility.yul\":11273:11295   */\n      dup3\n      add\n        /* \"#utility.yul\":11326:11330   */\n      0x1f\n        /* \"#utility.yul\":11318:11331   */\n      dup2\n      add\n        /* \"#utility.yul\":11314:11341   */\n      dup5\n      sgt\n        /* \"#utility.yul\":11304:11359   */\n      tag_603\n      jumpi\n        /* \"#utility.yul\":11355:11356   */\n      0x00\n        /* \"#utility.yul\":11352:11353   */\n      dup1\n        /* \"#utility.yul\":11345:11357   */\n      revert\n        /* \"#utility.yul\":11304:11359   */\n    tag_603:\n        /* \"#utility.yul\":11384:11386   */\n      dup1\n        /* \"#utility.yul\":11378:11387   */\n      mload\n        /* \"#utility.yul\":11409:11457   */\n      tag_604\n        /* \"#utility.yul\":11425:11456   */\n      tag_529\n        /* \"#utility.yul\":11453:11455   */\n      dup3\n        /* \"#utility.yul\":11425:11456   */\n      tag_503\n      jump\t// in\n        /* \"#utility.yul\":11409:11457   */\n    tag_604:\n        /* \"#utility.yul\":11480:11482   */\n      dup2\n        /* \"#utility.yul\":11473:11478   */\n      dup2\n        /* \"#utility.yul\":11466:11483   */\n      mstore\n        /* \"#utility.yul\":11520:11527   */\n      dup6\n        /* \"#utility.yul\":11515:11517   */\n      0x20\n        /* \"#utility.yul\":11510:11512   */\n      dup4\n        /* \"#utility.yul\":11506:11508   */\n      dup6\n        /* \"#utility.yul\":11502:11513   */\n      add\n        /* \"#utility.yul\":11498:11518   */\n      add\n        /* \"#utility.yul\":11495:11528   */\n      gt\n        /* \"#utility.yul\":11492:11545   */\n      iszero\n      tag_606\n      jumpi\n        /* \"#utility.yul\":11541:11542   */\n      0x00\n        /* \"#utility.yul\":11538:11539   */\n      dup1\n        /* \"#utility.yul\":11531:11543   */\n      revert\n        /* \"#utility.yul\":11492:11545   */\n    tag_606:\n        /* \"#utility.yul\":11554:11608   */\n      tag_368\n        /* \"#utility.yul\":11605:11607   */\n      dup3\n        /* \"#utility.yul\":11600:11602   */\n      0x20\n        /* \"#utility.yul\":11593:11598   */\n      dup4\n        /* \"#utility.yul\":11589:11603   */\n      add\n        /* \"#utility.yul\":11584:11586   */\n      0x20\n        /* \"#utility.yul\":11580:11582   */\n      dup7\n        /* \"#utility.yul\":11576:11587   */\n      add\n        /* \"#utility.yul\":11554:11608   */\n      tag_499\n      jump\t// in\n        /* \"#utility.yul\":12378:12746   */\n    tag_461:\n        /* \"#utility.yul\":12475:12481   */\n      0x00\n        /* \"#utility.yul\":12483:12489   */\n      dup1\n        /* \"#utility.yul\":12491:12497   */\n      0x00\n        /* \"#utility.yul\":12499:12505   */\n      dup1\n        /* \"#utility.yul\":12552:12555   */\n      0x80\n        /* \"#utility.yul\":12540:12549   */\n      dup6\n        /* \"#utility.yul\":12531:12538   */\n      dup8\n        /* \"#utility.yul\":12527:12550   */\n      sub\n        /* \"#utility.yul\":12523:12556   */\n      slt\n        /* \"#utility.yul\":12520:12573   */\n      iszero\n      tag_611\n      jumpi\n        /* \"#utility.yul\":12569:12570   */\n      0x00\n        /* \"#utility.yul\":12566:12567   */\n      dup1\n        /* \"#utility.yul\":12559:12571   */\n      revert\n        /* \"#utility.yul\":12520:12573   */\n    tag_611:\n      pop\n      pop\n        /* \"#utility.yul\":12592:12608   */\n      dup3\n      mload\n        /* \"#utility.yul\":12648:12650   */\n      0x20\n        /* \"#utility.yul\":12633:12651   */\n      dup5\n      add\n        /* \"#utility.yul\":12627:12652   */\n      mload\n        /* \"#utility.yul\":12692:12694   */\n      0x40\n        /* \"#utility.yul\":12677:12695   */\n      dup6\n      add\n        /* \"#utility.yul\":12671:12696   */\n      mload\n        /* \"#utility.yul\":12736:12738   */\n      0x60\n        /* \"#utility.yul\":12721:12739   */\n      swap1\n      swap6\n      add\n        /* \"#utility.yul\":12715:12740   */\n      mload\n        /* \"#utility.yul\":12592:12608   */\n      swap2\n      swap7\n        /* \"#utility.yul\":12627:12652   */\n      swap1\n      swap6\n      pop\n        /* \"#utility.yul\":12715:12740   */\n      swap1\n      swap3\n      pop\n        /* \"#utility.yul\":12378:12746   */\n      swap1\n      pop\n      jump\t// out\n\n    auxdata: 0xa2646970667358221220ab0adbef71085c8289ecf131dffb9d45beeb14e4f5d0aba23c51bebce0e9737b64736f6c634300080a0033\n}\n",
				"bytecode": {
					"linkReferences": {},
					"object": "60806040523480156200001157600080fd5b50604051620022083803806200220883398101604081905262000034916200041a565b60038054610100600160a81b0319163361010002179055604051620000a590839062000071908d908d908d908d908d908d908d9060240162000556565b60408051601f198184030181529190526020810180516001600160e01b03908116631a31d46560e01b17909152620000ea16565b50620000b48260008362000169565b5050600380546001600160a01b0390921661010002610100600160a81b031990921691909117905550620005f995505050505050565b6060600080846001600160a01b031684604051620001099190620005bf565b600060405180830381855af49150503d806000811462000146576040519150601f19603f3d011682016040523d82523d6000602084013e6200014b565b606091505b5091509150600082141562000161573d60208201fd5b949350505050565b60035461010090046001600160a01b03163314620001f35760405162461bcd60e51b815260206004820152603960248201527f43457263323044656c656761746f723a3a5f736574496d706c656d656e74617460448201527f696f6e3a2043616c6c6572206d7573742062652061646d696e00000000000000606482015260840160405180910390fd5b811562000235576040805160048152602481019091526020810180516001600160e01b0390811663153ab50560e01b17909152620002339190620002f016565b505b601280546001600160a01b038581166001600160a01b0319831617909255604051911690620002a2906200026e908490602401620005dd565b60408051601f198184030181529190526020810180516001600160e01b03908116630adccee560e31b17909152620002f016565b50601254604080516001600160a01b03808516825290921660208301527fd604de94d45953f9138079ec1b82d533cb2160c906d1076d1f7ed54befbca97a910160405180910390a150505050565b6012546060906200030b906001600160a01b031683620000ea565b92915050565b80516001600160a01b03811681146200032957600080fd5b919050565b634e487b7160e01b600052604160045260246000fd5b60005b838110156200036157818101518382015260200162000347565b8381111562000371576000848401525b50505050565b600082601f8301126200038957600080fd5b81516001600160401b0380821115620003a657620003a66200032e565b604051601f8301601f19908116603f01168101908282118183101715620003d157620003d16200032e565b81604052838152866020858801011115620003eb57600080fd5b620003fe84602083016020890162000344565b9695505050505050565b805160ff811681146200032957600080fd5b6000806000806000806000806000806101408b8d0312156200043b57600080fd5b620004468b62000311565b99506200045660208c0162000311565b98506200046660408c0162000311565b60608c015160808d015191995097506001600160401b03808211156200048b57600080fd5b620004998e838f0162000377565b975060a08d0151915080821115620004b057600080fd5b620004be8e838f0162000377565b9650620004ce60c08e0162000408565b9550620004de60e08e0162000311565b9450620004ef6101008e0162000311565b93506101208d01519150808211156200050757600080fd5b50620005168d828e0162000377565b9150509295989b9194979a5092959850565b600081518084526200054281602086016020860162000344565b601f01601f19169290920160200192915050565b6001600160a01b0388811682528781166020830152861660408201526060810185905260e060808201819052600090620005939083018662000528565b82810360a0840152620005a7818662000528565b91505060ff831660c083015298975050505050505050565b60008251620005d381846020870162000344565b9190910192915050565b602081526000620005f2602083018462000528565b9392505050565b611bff80620006096000396000f3fe6080604052600436106102ff5760003560e01c806370a0823111610190578063bd6d894d116100dc578063f2b3abbd11610095578063f851a4401161006f578063f851a440146109c9578063f8f9da28146109ee578063fca7820b14610a03578063fe9c44ae14610a23576102ff565b8063f2b3abbd14610969578063f3fdb15a14610989578063f5e3c462146109a9576102ff565b8063bd6d894d1461089f578063c37f68e2146108b4578063c5ebeaec146108f4578063db006a7514610914578063dd62ed3e14610934578063e9c714f214610954576102ff565b8063a0712d6811610149578063aa5af0fd11610123578063aa5af0fd14610834578063ae9d70b01461084a578063b2a02ff11461085f578063b71d1a0c1461087f576102ff565b8063a0712d68146107df578063a6afed95146107ff578063a9059cbb14610814576102ff565b806370a082311461073f57806373acee981461075f578063852a12e3146107745780638f840ddd1461079457806395d89b41146107aa57806395dd9193146107bf576102ff565b80633af9e6691161024f578063555bcc4011610208578063601a0bf1116101e2578063601a0bf1146106ce5780636752e702146106ee5780636c540baf146107095780636f307dc31461071f576102ff565b8063555bcc401461066e5780635c60da1b1461068e5780635fe3b567146106ae576102ff565b80633af9e669146105c35780633b1d21a2146105e35780633e941010146105f85780634487152f146106185780634576b5db1461063857806347bd371814610658576102ff565b806318160ddd116102bc57806323b872dd1161029657806323b872dd1461051f5780632608f8181461053f578063267822471461055f578063313ce56714610597576102ff565b806318160ddd146104d2578063182df0f5146104e85780631be19560146104fd576102ff565b806306fdde03146103f35780630933c1ed1461041e578063095ea7b31461043e5780630e7527021461046e578063173b99041461049c57806317bfdfbc146104b2575b34156103785760405162461bcd60e51b815260206004820152603760248201527f43457263323044656c656761746f723a66616c6c6261636b3a2063616e6e6f7460448201527f2073656e642076616c756520746f2066616c6c6261636b00000000000000000060648201526084015b60405180910390fd5b6012546040516000916001600160a01b0316906103989083903690611779565b600060405180830381855af49150503d80600081146103d3576040519150601f19603f3d011682016040523d82523d6000602084013e6103d8565b606091505b505090506040513d6000823e8180156103ef573d82f35b3d82fd5b3480156103ff57600080fd5b50610408610a38565b60405161041591906117e5565b60405180910390f35b34801561042a57600080fd5b506104086104393660046118bd565b610ac6565b34801561044a57600080fd5b5061045e61045936600461190a565b610ae5565b6040519015158152602001610415565b34801561047a57600080fd5b5061048e610489366004611936565b610b57565b604051908152602001610415565b3480156104a857600080fd5b5061048e60085481565b3480156104be57600080fd5b5061048e6104cd36600461194f565b610bbc565b3480156104de57600080fd5b5061048e600d5481565b3480156104f457600080fd5b5061048e610c09565b34801561050957600080fd5b5061051d61051836600461194f565b610c5c565b005b34801561052b57600080fd5b5061045e61053a36600461196c565b610ca7565b34801561054b57600080fd5b5061048e61055a36600461190a565b610d22565b34801561056b57600080fd5b5060045461057f906001600160a01b031681565b6040516001600160a01b039091168152602001610415565b3480156105a357600080fd5b506003546105b19060ff1681565b60405160ff9091168152602001610415565b3480156105cf57600080fd5b5061048e6105de36600461194f565b610d8c565b3480156105ef57600080fd5b5061048e610dd9565b34801561060457600080fd5b5061048e610613366004611936565b610e10565b34801561062457600080fd5b506104086106333660046118bd565b610e58565b34801561064457600080fd5b5061048e61065336600461194f565b610f16565b34801561066457600080fd5b5061048e600b5481565b34801561067a57600080fd5b5061051d6106893660046119bb565b610f63565b34801561069a57600080fd5b5060125461057f906001600160a01b031681565b3480156106ba57600080fd5b5060055461057f906001600160a01b031681565b3480156106da57600080fd5b5061048e6106e9366004611936565b6110d5565b3480156106fa57600080fd5b5061048e666379da05b6000081565b34801561071557600080fd5b5061048e60095481565b34801561072b57600080fd5b5060115461057f906001600160a01b031681565b34801561074b57600080fd5b5061048e61075a36600461194f565b61111d565b34801561076b57600080fd5b5061048e61116a565b34801561078057600080fd5b5061048e61078f366004611936565b6111a1565b3480156107a057600080fd5b5061048e600c5481565b3480156107b657600080fd5b506104086111e9565b3480156107cb57600080fd5b5061048e6107da36600461194f565b6111f6565b3480156107eb57600080fd5b5061048e6107fa366004611936565b611243565b34801561080b57600080fd5b5061048e61128b565b34801561082057600080fd5b5061045e61082f36600461190a565b6112c2565b34801561084057600080fd5b5061048e600a5481565b34801561085657600080fd5b5061048e611316565b34801561086b57600080fd5b5061048e61087a36600461196c565b61134d565b34801561088b57600080fd5b5061048e61089a36600461194f565b6113bf565b3480156108ab57600080fd5b5061048e61140c565b3480156108c057600080fd5b506108d46108cf36600461194f565b611443565b604080519485526020850193909352918301526060820152608001610415565b34801561090057600080fd5b5061048e61090f366004611936565b6114c3565b34801561092057600080fd5b5061048e61092f366004611936565b61150b565b34801561094057600080fd5b5061048e61094f366004611a1d565b611553565b34801561096057600080fd5b5061048e6115a8565b34801561097557600080fd5b5061048e61098436600461194f565b6115df565b34801561099557600080fd5b5060065461057f906001600160a01b031681565b3480156109b557600080fd5b5061048e6109c4366004611a56565b61162c565b3480156109d557600080fd5b5060035461057f9061010090046001600160a01b031681565b3480156109fa57600080fd5b5061048e611688565b348015610a0f57600080fd5b5061048e610a1e366004611936565b6116bf565b348015610a2f57600080fd5b5061045e600181565b60018054610a4590611a98565b80601f0160208091040260200160405190810160405280929190818152602001828054610a7190611a98565b8015610abe5780601f10610a9357610100808354040283529160200191610abe565b820191906000526020600020905b815481529060010190602001808311610aa157829003601f168201915b505050505081565b601254606090610adf906001600160a01b031683611707565b92915050565b6040516001600160a01b0383166024820152604481018290526000908190610b399060640160408051601f198184030181529190526020810180516001600160e01b031663095ea7b360e01b179052610ac6565b905080806020019051810190610b4f9190611ad3565b949350505050565b600080610b9f83604051602401610b7091815260200190565b60408051601f198184030181529190526020810180516001600160e01b031663073a938160e11b179052610ac6565b905080806020019051810190610bb59190611af0565b9392505050565b6040516001600160a01b03821660248201526000908190610b9f9060440160408051601f198184030181529190526020810180516001600160e01b03166305eff7ef60e21b179052610ac6565b6040805160048152602481019091526020810180516001600160e01b031663182df0f560e01b1790526000908190610c4090610e58565b905080806020019051810190610c569190611af0565b91505090565b6040516001600160a01b0382166024820152610ca39060440160408051601f198184030181529190526020810180516001600160e01b031662df0cab60e51b179052610ac6565b5050565b6040516001600160a01b03808516602483015283166044820152606481018290526000908190610d039060840160408051601f198184030181529190526020810180516001600160e01b03166323b872dd60e01b179052610ac6565b905080806020019051810190610d199190611ad3565b95945050505050565b6040516001600160a01b0383166024820152604481018290526000908190610d769060640160408051601f198184030181529190526020810180516001600160e01b03166304c11f0360e31b179052610ac6565b905080806020019051810190610b4f9190611af0565b6040516001600160a01b03821660248201526000908190610b9f9060440160408051601f198184030181529190526020810180516001600160e01b0316633af9e66960e01b179052610ac6565b6040805160048152602481019091526020810180516001600160e01b0316631d8e90d160e11b1790526000908190610c4090610e58565b600080610b9f83604051602401610e2991815260200190565b60408051601f198184030181529190526020810180516001600160e01b03166303e9410160e41b179052610ac6565b6060600080306001600160a01b031684604051602401610e7891906117e5565b60408051601f198184030181529181526020820180516001600160e01b0316630933c1ed60e01b17905251610ead9190611b09565b600060405180830381855afa9150503d8060008114610ee8576040519150601f19603f3d011682016040523d82523d6000602084013e610eed565b606091505b50915091506000821415610f02573d60208201fd5b80806020019051810190610b4f9190611b25565b6040516001600160a01b03821660248201526000908190610b9f9060440160408051601f198184030181529190526020810180516001600160e01b0316634576b5db60e01b179052610ac6565b60035461010090046001600160a01b03163314610fe85760405162461bcd60e51b815260206004820152603960248201527f43457263323044656c656761746f723a3a5f736574496d706c656d656e74617460448201527f696f6e3a2043616c6c6572206d7573742062652061646d696e00000000000000606482015260840161036f565b8115611022576040805160048152602481019091526020810180516001600160e01b031663153ab50560e01b17905261102090610ac6565b505b601280546001600160a01b038581166001600160a01b0319831617909255604051911690611087906110589084906024016117e5565b60408051601f198184030181529190526020810180516001600160e01b0316630adccee560e31b179052610ac6565b50601254604080516001600160a01b03808516825290921660208301527fd604de94d45953f9138079ec1b82d533cb2160c906d1076d1f7ed54befbca97a910160405180910390a150505050565b600080610b9f836040516024016110ee91815260200190565b60408051601f198184030181529190526020810180516001600160e01b031663601a0bf160e01b179052610ac6565b6040516001600160a01b03821660248201526000908190610b9f9060440160408051601f198184030181529190526020810180516001600160e01b03166370a0823160e01b179052610e58565b6040805160048152602481019091526020810180516001600160e01b0316630e759dd360e31b1790526000908190610c4090610ac6565b600080610b9f836040516024016111ba91815260200190565b60408051601f198184030181529190526020810180516001600160e01b031663852a12e360e01b179052610ac6565b60028054610a4590611a98565b6040516001600160a01b03821660248201526000908190610b9f9060440160408051601f198184030181529190526020810180516001600160e01b03166395dd919360e01b179052610e58565b600080610b9f8360405160240161125c91815260200190565b60408051601f198184030181529190526020810180516001600160e01b031663140e25ad60e31b179052610ac6565b6040805160048152602481019091526020810180516001600160e01b031663a6afed9560e01b1790526000908190610c4090610ac6565b6040516001600160a01b0383166024820152604481018290526000908190610b399060640160408051601f198184030181529190526020810180516001600160e01b031663a9059cbb60e01b179052610ac6565b6040805160048152602481019091526020810180516001600160e01b0316630ae9d70b60e41b1790526000908190610c4090610e58565b6040516001600160a01b038085166024830152831660448201526064810182905260009081906113a99060840160408051601f198184030181529190526020810180516001600160e01b031663b2a02ff160e01b179052610ac6565b905080806020019051810190610d199190611af0565b6040516001600160a01b03821660248201526000908190610b9f9060440160408051601f198184030181529190526020810180516001600160e01b0316632dc7468360e21b179052610ac6565b6040805160048152602481019091526020810180516001600160e01b031663bd6d894d60e01b1790526000908190610c4090610ac6565b600080600080600061149d8660405160240161146e91906001600160a01b0391909116815260200190565b60408051601f198184030181529190526020810180516001600160e01b03166361bfb47160e11b179052610e58565b9050808060200190518101906114b39190611b93565b9450945094509450509193509193565b600080610b9f836040516024016114dc91815260200190565b60408051601f198184030181529190526020810180516001600160e01b031663317afabb60e21b179052610ac6565b600080610b9f8360405160240161152491815260200190565b60408051601f198184030181529190526020810180516001600160e01b031663db006a7560e01b179052610ac6565b6040516001600160a01b038084166024830152821660448201526000908190610d769060640160408051601f198184030181529190526020810180516001600160e01b0316636eb1769f60e11b179052610e58565b6040805160048152602481019091526020810180516001600160e01b03166374e38a7960e11b1790526000908190610c4090610ac6565b6040516001600160a01b03821660248201526000908190610b9f9060440160408051601f198184030181529190526020810180516001600160e01b031663f2b3abbd60e01b179052610ac6565b6040516001600160a01b038085166024830152604482018490528216606482015260009081906113a99060840160408051601f198184030181529190526020810180516001600160e01b0316637af1e23160e11b179052610ac6565b6040805160048152602481019091526020810180516001600160e01b0316631f1f3b4560e31b1790526000908190610c4090610e58565b600080610b9f836040516024016116d891815260200190565b60408051601f198184030181529190526020810180516001600160e01b031663fca7820b60e01b179052610ac6565b6060600080846001600160a01b0316846040516117249190611b09565b600060405180830381855af49150503d806000811461175f576040519150601f19603f3d011682016040523d82523d6000602084013e611764565b606091505b50915091506000821415610b4f573d60208201fd5b8183823760009101908152919050565b60005b838110156117a457818101518382015260200161178c565b838111156117b3576000848401525b50505050565b600081518084526117d1816020860160208601611789565b601f01601f19169290920160200192915050565b602081526000610bb560208301846117b9565b634e487b7160e01b600052604160045260246000fd5b604051601f8201601f1916810167ffffffffffffffff81118282101715611837576118376117f8565b604052919050565b600067ffffffffffffffff821115611859576118596117f8565b50601f01601f191660200190565b600082601f83011261187857600080fd5b813561188b6118868261183f565b61180e565b8181528460208386010111156118a057600080fd5b816020850160208301376000918101602001919091529392505050565b6000602082840312156118cf57600080fd5b813567ffffffffffffffff8111156118e657600080fd5b610b4f84828501611867565b6001600160a01b038116811461190757600080fd5b50565b6000806040838503121561191d57600080fd5b8235611928816118f2565b946020939093013593505050565b60006020828403121561194857600080fd5b5035919050565b60006020828403121561196157600080fd5b8135610bb5816118f2565b60008060006060848603121561198157600080fd5b833561198c816118f2565b9250602084013561199c816118f2565b929592945050506040919091013590565b801515811461190757600080fd5b6000806000606084860312156119d057600080fd5b83356119db816118f2565b925060208401356119eb816119ad565b9150604084013567ffffffffffffffff811115611a0757600080fd5b611a1386828701611867565b9150509250925092565b60008060408385031215611a3057600080fd5b8235611a3b816118f2565b91506020830135611a4b816118f2565b809150509250929050565b600080600060608486031215611a6b57600080fd5b8335611a76816118f2565b9250602084013591506040840135611a8d816118f2565b809150509250925092565b600181811c90821680611aac57607f821691505b60208210811415611acd57634e487b7160e01b600052602260045260246000fd5b50919050565b600060208284031215611ae557600080fd5b8151610bb5816119ad565b600060208284031215611b0257600080fd5b5051919050565b60008251611b1b818460208701611789565b9190910192915050565b600060208284031215611b3757600080fd5b815167ffffffffffffffff811115611b4e57600080fd5b8201601f81018413611b5f57600080fd5b8051611b6d6118868261183f565b818152856020838501011115611b8257600080fd5b610d19826020830160208601611789565b60008060008060808587031215611ba957600080fd5b50508251602084015160408501516060909501519196909550909250905056fea2646970667358221220ab0adbef71085c8289ecf131dffb9d45beeb14e4f5d0aba23c51bebce0e9737b64736f6c634300080a0033",
					"opcodes": "PUSH1 0x80 PUSH1 0x40 MSTORE CALLVALUE DUP1 ISZERO PUSH3 0x11 JUMPI PUSH1 0x0 DUP1 REVERT JUMPDEST POP PUSH1 0x40 MLOAD PUSH3 0x2208 CODESIZE SUB DUP1 PUSH3 0x2208 DUP4 CODECOPY DUP2 ADD PUSH1 0x40 DUP2 SWAP1 MSTORE PUSH3 0x34 SWAP2 PUSH3 0x41A JUMP JUMPDEST PUSH1 0x3 DUP1 SLOAD PUSH2 0x100 PUSH1 0x1 PUSH1 0xA8 SHL SUB NOT AND CALLER PUSH2 0x100 MUL OR SWAP1 SSTORE PUSH1 0x40 MLOAD PUSH3 0xA5 SWAP1 DUP4 SWAP1 PUSH3 0x71 SWAP1 DUP14 SWAP1 DUP14 SWAP1 DUP14 SWAP1 DUP14 SWAP1 DUP14 SWAP1 DUP14 SWAP1 DUP14 SWAP1 PUSH1 0x24 ADD PUSH3 0x556 JUMP JUMPDEST PUSH1 0x40 DUP1 MLOAD PUSH1 0x1F NOT DUP2 DUP5 SUB ADD DUP2 MSTORE SWAP2 SWAP1 MSTORE PUSH1 0x20 DUP2 ADD DUP1 MLOAD PUSH1 0x1 PUSH1 0x1 PUSH1 0xE0 SHL SUB SWAP1 DUP2 AND PUSH4 0x1A31D465 PUSH1 0xE0 SHL OR SWAP1 SWAP2 MSTORE PUSH3 0xEA AND JUMP JUMPDEST POP PUSH3 0xB4 DUP3 PUSH1 0x0 DUP4 PUSH3 0x169 JUMP JUMPDEST POP POP PUSH1 0x3 DUP1 SLOAD PUSH1 0x1 PUSH1 0x1 PUSH1 0xA0 SHL SUB SWAP1 SWAP3 AND PUSH2 0x100 MUL PUSH2 0x100 PUSH1 0x1 PUSH1 0xA8 SHL SUB NOT SWAP1 SWAP3 AND SWAP2 SWAP1 SWAP2 OR SWAP1 SSTORE POP PUSH3 0x5F9 SWAP6 POP POP POP POP POP POP JUMP JUMPDEST PUSH1 0x60 PUSH1 0x0 DUP1 DUP5 PUSH1 0x1 PUSH1 0x1 PUSH1 0xA0 SHL SUB AND DUP5 PUSH1 0x40 MLOAD PUSH3 0x109 SWAP2 SWAP1 PUSH3 0x5BF JUMP JUMPDEST PUSH1 0x0 PUSH1 0x40 MLOAD DUP1 DUP4 SUB DUP2 DUP6 GAS DELEGATECALL SWAP2 POP POP RETURNDATASIZE DUP1 PUSH1 0x0 DUP2 EQ PUSH3 0x146 JUMPI PUSH1 0x40 MLOAD SWAP2 POP PUSH1 0x1F NOT PUSH1 0x3F RETURNDATASIZE ADD AND DUP3 ADD PUSH1 0x40 MSTORE RETURNDATASIZE DUP3 MSTORE RETURNDATASIZE PUSH1 0x0 PUSH1 0x20 DUP5 ADD RETURNDATACOPY PUSH3 0x14B JUMP JUMPDEST PUSH1 0x60 SWAP2 POP JUMPDEST POP SWAP2 POP SWAP2 POP PUSH1 0x0 DUP3 EQ ISZERO PUSH3 0x161 JUMPI RETURNDATASIZE PUSH1 0x20 DUP3 ADD REVERT JUMPDEST SWAP5 SWAP4 POP POP POP POP JUMP JUMPDEST PUSH1 0x3 SLOAD PUSH2 0x100 SWAP1 DIV PUSH1 0x1 PUSH1 0x1 PUSH1 0xA0 SHL SUB AND CALLER EQ PUSH3 0x1F3 JUMPI PUSH1 0x40 MLOAD PUSH3 0x461BCD PUSH1 0xE5 SHL DUP2 MSTORE PUSH1 0x20 PUSH1 0x4 DUP3 ADD MSTORE PUSH1 0x39 PUSH1 0x24 DUP3 ADD MSTORE PUSH32 0x43457263323044656C656761746F723A3A5F736574496D706C656D656E746174 PUSH1 0x44 DUP3 ADD MSTORE PUSH32 0x696F6E3A2043616C6C6572206D7573742062652061646D696E00000000000000 PUSH1 0x64 DUP3 ADD MSTORE PUSH1 0x84 ADD PUSH1 0x40 MLOAD DUP1 SWAP2 SUB SWAP1 REVERT JUMPDEST DUP2 ISZERO PUSH3 0x235 JUMPI PUSH1 0x40 DUP1 MLOAD PUSH1 0x4 DUP2 MSTORE PUSH1 0x24 DUP2 ADD SWAP1 SWAP2 MSTORE PUSH1 0x20 DUP2 ADD DUP1 MLOAD PUSH1 0x1 PUSH1 0x1 PUSH1 0xE0 SHL SUB SWAP1 DUP2 AND PUSH4 0x153AB505 PUSH1 0xE0 SHL OR SWAP1 SWAP2 MSTORE PUSH3 0x233 SWAP2 SWAP1 PUSH3 0x2F0 AND JUMP JUMPDEST POP JUMPDEST PUSH1 0x12 DUP1 SLOAD PUSH1 0x1 PUSH1 0x1 PUSH1 0xA0 SHL SUB DUP6 DUP2 AND PUSH1 0x1 PUSH1 0x1 PUSH1 0xA0 SHL SUB NOT DUP4 AND OR SWAP1 SWAP3 SSTORE PUSH1 0x40 MLOAD SWAP2 AND SWAP1 PUSH3 0x2A2 SWAP1 PUSH3 0x26E SWAP1 DUP5 SWAP1 PUSH1 0x24 ADD PUSH3 0x5DD JUMP JUMPDEST PUSH1 0x40 DUP1 MLOAD PUSH1 0x1F NOT DUP2 DUP5 SUB ADD DUP2 MSTORE SWAP2 SWAP1 MSTORE PUSH1 0x20 DUP2 ADD DUP1 MLOAD PUSH1 0x1 PUSH1 0x1 PUSH1 0xE0 SHL SUB SWAP1 DUP2 AND PUSH4 0xADCCEE5 PUSH1 0xE3 SHL OR SWAP1 SWAP2 MSTORE PUSH3 0x2F0 AND JUMP JUMPDEST POP PUSH1 0x12 SLOAD PUSH1 0x40 DUP1 MLOAD PUSH1 0x1 PUSH1 0x1 PUSH1 0xA0 SHL SUB DUP1 DUP6 AND DUP3 MSTORE SWAP1 SWAP3 AND PUSH1 0x20 DUP4 ADD MSTORE PUSH32 0xD604DE94D45953F9138079EC1B82D533CB2160C906D1076D1F7ED54BEFBCA97A SWAP2 ADD PUSH1 0x40 MLOAD DUP1 SWAP2 SUB SWAP1 LOG1 POP POP POP POP JUMP JUMPDEST PUSH1 0x12 SLOAD PUSH1 0x60 SWAP1 PUSH3 0x30B SWAP1 PUSH1 0x1 PUSH1 0x1 PUSH1 0xA0 SHL SUB AND DUP4 PUSH3 0xEA JUMP JUMPDEST SWAP3 SWAP2 POP POP JUMP JUMPDEST DUP1 MLOAD PUSH1 0x1 PUSH1 0x1 PUSH1 0xA0 SHL SUB DUP2 AND DUP2 EQ PUSH3 0x329 JUMPI PUSH1 0x0 DUP1 REVERT JUMPDEST SWAP2 SWAP1 POP JUMP JUMPDEST PUSH4 0x4E487B71 PUSH1 0xE0 SHL PUSH1 0x0 MSTORE PUSH1 0x41 PUSH1 0x4 MSTORE PUSH1 0x24 PUSH1 0x0 REVERT JUMPDEST PUSH1 0x0 JUMPDEST DUP4 DUP2 LT ISZERO PUSH3 0x361 JUMPI DUP2 DUP2 ADD MLOAD DUP4 DUP3 ADD MSTORE PUSH1 0x20 ADD PUSH3 0x347 JUMP JUMPDEST DUP4 DUP2 GT ISZERO PUSH3 0x371 JUMPI PUSH1 0x0 DUP5 DUP5 ADD MSTORE JUMPDEST POP POP POP POP JUMP JUMPDEST PUSH1 0x0 DUP3 PUSH1 0x1F DUP4 ADD SLT PUSH3 0x389 JUMPI PUSH1 0x0 DUP1 REVERT JUMPDEST DUP2 MLOAD PUSH1 0x1 PUSH1 0x1 PUSH1 0x40 SHL SUB DUP1 DUP3 GT ISZERO PUSH3 0x3A6 JUMPI PUSH3 0x3A6 PUSH3 0x32E JUMP JUMPDEST PUSH1 0x40 MLOAD PUSH1 0x1F DUP4 ADD PUSH1 0x1F NOT SWAP1 DUP2 AND PUSH1 0x3F ADD AND DUP2 ADD SWAP1 DUP3 DUP3 GT DUP2 DUP4 LT OR ISZERO PUSH3 0x3D1 JUMPI PUSH3 0x3D1 PUSH3 0x32E JUMP JUMPDEST DUP2 PUSH1 0x40 MSTORE DUP4 DUP2 MSTORE DUP7 PUSH1 0x20 DUP6 DUP9 ADD ADD GT ISZERO PUSH3 0x3EB JUMPI PUSH1 0x0 DUP1 REVERT JUMPDEST PUSH3 0x3FE DUP5 PUSH1 0x20 DUP4 ADD PUSH1 0x20 DUP10 ADD PUSH3 0x344 JUMP JUMPDEST SWAP7 SWAP6 POP POP POP POP POP POP JUMP JUMPDEST DUP1 MLOAD PUSH1 0xFF DUP2 AND DUP2 EQ PUSH3 0x329 JUMPI PUSH1 0x0 DUP1 REVERT JUMPDEST PUSH1 0x0 DUP1 PUSH1 0x0 DUP1 PUSH1 0x0 DUP1 PUSH1 0x0 DUP1 PUSH1 0x0 DUP1 PUSH2 0x140 DUP12 DUP14 SUB SLT ISZERO PUSH3 0x43B JUMPI PUSH1 0x0 DUP1 REVERT JUMPDEST PUSH3 0x446 DUP12 PUSH3 0x311 JUMP JUMPDEST SWAP10 POP PUSH3 0x456 PUSH1 0x20 DUP13 ADD PUSH3 0x311 JUMP JUMPDEST SWAP9 POP PUSH3 0x466 PUSH1 0x40 DUP13 ADD PUSH3 0x311 JUMP JUMPDEST PUSH1 0x60 DUP13 ADD MLOAD PUSH1 0x80 DUP14 ADD MLOAD SWAP2 SWAP10 POP SWAP8 POP PUSH1 0x1 PUSH1 0x1 PUSH1 0x40 SHL SUB DUP1 DUP3 GT ISZERO PUSH3 0x48B JUMPI PUSH1 0x0 DUP1 REVERT JUMPDEST PUSH3 0x499 DUP15 DUP4 DUP16 ADD PUSH3 0x377 JUMP JUMPDEST SWAP8 POP PUSH1 0xA0 DUP14 ADD MLOAD SWAP2 POP DUP1 DUP3 GT ISZERO PUSH3 0x4B0 JUMPI PUSH1 0x0 DUP1 REVERT JUMPDEST PUSH3 0x4BE DUP15 DUP4 DUP16 ADD PUSH3 0x377 JUMP JUMPDEST SWAP7 POP PUSH3 0x4CE PUSH1 0xC0 DUP15 ADD PUSH3 0x408 JUMP JUMPDEST SWAP6 POP PUSH3 0x4DE PUSH1 0xE0 DUP15 ADD PUSH3 0x311 JUMP JUMPDEST SWAP5 POP PUSH3 0x4EF PUSH2 0x100 DUP15 ADD PUSH3 0x311 JUMP JUMPDEST SWAP4 POP PUSH2 0x120 DUP14 ADD MLOAD SWAP2 POP DUP1 DUP3 GT ISZERO PUSH3 0x507 JUMPI PUSH1 0x0 DUP1 REVERT JUMPDEST POP PUSH3 0x516 DUP14 DUP3 DUP15 ADD PUSH3 0x377 JUMP JUMPDEST SWAP2 POP POP SWAP3 SWAP6 SWAP9 SWAP12 SWAP2 SWAP5 SWAP8 SWAP11 POP SWAP3 SWAP6 SWAP9 POP JUMP JUMPDEST PUSH1 0x0 DUP2 MLOAD DUP1 DUP5 MSTORE PUSH3 0x542 DUP2 PUSH1 0x20 DUP7 ADD PUSH1 0x20 DUP7 ADD PUSH3 0x344 JUMP JUMPDEST PUSH1 0x1F ADD PUSH1 0x1F NOT AND SWAP3 SWAP1 SWAP3 ADD PUSH1 0x20 ADD SWAP3 SWAP2 POP POP JUMP JUMPDEST PUSH1 0x1 PUSH1 0x1 PUSH1 0xA0 SHL SUB DUP9 DUP2 AND DUP3 MSTORE DUP8 DUP2 AND PUSH1 0x20 DUP4 ADD MSTORE DUP7 AND PUSH1 0x40 DUP3 ADD MSTORE PUSH1 0x60 DUP2 ADD DUP6 SWAP1 MSTORE PUSH1 0xE0 PUSH1 0x80 DUP3 ADD DUP2 SWAP1 MSTORE PUSH1 0x0 SWAP1 PUSH3 0x593 SWAP1 DUP4 ADD DUP7 PUSH3 0x528 JUMP JUMPDEST DUP3 DUP2 SUB PUSH1 0xA0 DUP5 ADD MSTORE PUSH3 0x5A7 DUP2 DUP7 PUSH3 0x528 JUMP JUMPDEST SWAP2 POP POP PUSH1 0xFF DUP4 AND PUSH1 0xC0 DUP4 ADD MSTORE SWAP9 SWAP8 POP POP POP POP POP POP POP POP JUMP JUMPDEST PUSH1 0x0 DUP3 MLOAD PUSH3 0x5D3 DUP2 DUP5 PUSH1 0x20 DUP8 ADD PUSH3 0x344 JUMP JUMPDEST SWAP2 SWAP1 SWAP2 ADD SWAP3 SWAP2 POP POP JUMP JUMPDEST PUSH1 0x20 DUP2 MSTORE PUSH1 0x0 PUSH3 0x5F2 PUSH1 0x20 DUP4 ADD DUP5 PUSH3 0x528 JUMP JUMPDEST SWAP4 SWAP3 POP POP POP JUMP JUMPDEST PUSH2 0x1BFF DUP1 PUSH3 0x609 PUSH1 0x0 CODECOPY PUSH1 0x0 RETURN INVALID PUSH1 0x80 PUSH1 0x40 MSTORE PUSH1 0x4 CALLDATASIZE LT PUSH2 0x2FF JUMPI PUSH1 0x0 CALLDATALOAD PUSH1 0xE0 SHR DUP1 PUSH4 0x70A08231 GT PUSH2 0x190 JUMPI DUP1 PUSH4 0xBD6D894D GT PUSH2 0xDC JUMPI DUP1 PUSH4 0xF2B3ABBD GT PUSH2 0x95 JUMPI DUP1 PUSH4 0xF851A440 GT PUSH2 0x6F JUMPI DUP1 PUSH4 0xF851A440 EQ PUSH2 0x9C9 JUMPI DUP1 PUSH4 0xF8F9DA28 EQ PUSH2 0x9EE JUMPI DUP1 PUSH4 0xFCA7820B EQ PUSH2 0xA03 JUMPI DUP1 PUSH4 0xFE9C44AE EQ PUSH2 0xA23 JUMPI PUSH2 0x2FF JUMP JUMPDEST DUP1 PUSH4 0xF2B3ABBD EQ PUSH2 0x969 JUMPI DUP1 PUSH4 0xF3FDB15A EQ PUSH2 0x989 JUMPI DUP1 PUSH4 0xF5E3C462 EQ PUSH2 0x9A9 JUMPI PUSH2 0x2FF JUMP JUMPDEST DUP1 PUSH4 0xBD6D894D EQ PUSH2 0x89F JUMPI DUP1 PUSH4 0xC37F68E2 EQ PUSH2 0x8B4 JUMPI DUP1 PUSH4 0xC5EBEAEC EQ PUSH2 0x8F4 JUMPI DUP1 PUSH4 0xDB006A75 EQ PUSH2 0x914 JUMPI DUP1 PUSH4 0xDD62ED3E EQ PUSH2 0x934 JUMPI DUP1 PUSH4 0xE9C714F2 EQ PUSH2 0x954 JUMPI PUSH2 0x2FF JUMP JUMPDEST DUP1 PUSH4 0xA0712D68 GT PUSH2 0x149 JUMPI DUP1 PUSH4 0xAA5AF0FD GT PUSH2 0x123 JUMPI DUP1 PUSH4 0xAA5AF0FD EQ PUSH2 0x834 JUMPI DUP1 PUSH4 0xAE9D70B0 EQ PUSH2 0x84A JUMPI DUP1 PUSH4 0xB2A02FF1 EQ PUSH2 0x85F JUMPI DUP1 PUSH4 0xB71D1A0C EQ PUSH2 0x87F JUMPI PUSH2 0x2FF JUMP JUMPDEST DUP1 PUSH4 0xA0712D68 EQ PUSH2 0x7DF JUMPI DUP1 PUSH4 0xA6AFED95 EQ PUSH2 0x7FF JUMPI DUP1 PUSH4 0xA9059CBB EQ PUSH2 0x814 JUMPI PUSH2 0x2FF JUMP JUMPDEST DUP1 PUSH4 0x70A08231 EQ PUSH2 0x73F JUMPI DUP1 PUSH4 0x73ACEE98 EQ PUSH2 0x75F JUMPI DUP1 PUSH4 0x852A12E3 EQ PUSH2 0x774 JUMPI DUP1 PUSH4 0x8F840DDD EQ PUSH2 0x794 JUMPI DUP1 PUSH4 0x95D89B41 EQ PUSH2 0x7AA JUMPI DUP1 PUSH4 0x95DD9193 EQ PUSH2 0x7BF JUMPI PUSH2 0x2FF JUMP JUMPDEST DUP1 PUSH4 0x3AF9E669 GT PUSH2 0x24F JUMPI DUP1 PUSH4 0x555BCC40 GT PUSH2 0x208 JUMPI DUP1 PUSH4 0x601A0BF1 GT PUSH2 0x1E2 JUMPI DUP1 PUSH4 0x601A0BF1 EQ PUSH2 0x6CE JUMPI DUP1 PUSH4 0x6752E702 EQ PUSH2 0x6EE JUMPI DUP1 PUSH4 0x6C540BAF EQ PUSH2 0x709 JUMPI DUP1 PUSH4 0x6F307DC3 EQ PUSH2 0x71F JUMPI PUSH2 0x2FF JUMP JUMPDEST DUP1 PUSH4 0x555BCC40 EQ PUSH2 0x66E JUMPI DUP1 PUSH4 0x5C60DA1B EQ PUSH2 0x68E JUMPI DUP1 PUSH4 0x5FE3B567 EQ PUSH2 0x6AE JUMPI PUSH2 0x2FF JUMP JUMPDEST DUP1 PUSH4 0x3AF9E669 EQ PUSH2 0x5C3 JUMPI DUP1 PUSH4 0x3B1D21A2 EQ PUSH2 0x5E3 JUMPI DUP1 PUSH4 0x3E941010 EQ PUSH2 0x5F8 JUMPI DUP1 PUSH4 0x4487152F EQ PUSH2 0x618 JUMPI DUP1 PUSH4 0x4576B5DB EQ PUSH2 0x638 JUMPI DUP1 PUSH4 0x47BD3718 EQ PUSH2 0x658 JUMPI PUSH2 0x2FF JUMP JUMPDEST DUP1 PUSH4 0x18160DDD GT PUSH2 0x2BC JUMPI DUP1 PUSH4 0x23B872DD GT PUSH2 0x296 JUMPI DUP1 PUSH4 0x23B872DD EQ PUSH2 0x51F JUMPI DUP1 PUSH4 0x2608F818 EQ PUSH2 0x53F JUMPI DUP1 PUSH4 0x26782247 EQ PUSH2 0x55F JUMPI DUP1 PUSH4 0x313CE567 EQ PUSH2 0x597 JUMPI PUSH2 0x2FF JUMP JUMPDEST DUP1 PUSH4 0x18160DDD EQ PUSH2 0x4D2 JUMPI DUP1 PUSH4 0x182DF0F5 EQ PUSH2 0x4E8 JUMPI DUP1 PUSH4 0x1BE19560 EQ PUSH2 0x4FD JUMPI PUSH2 0x2FF JUMP JUMPDEST DUP1 PUSH4 0x6FDDE03 EQ PUSH2 0x3F3 JUMPI DUP1 PUSH4 0x933C1ED EQ PUSH2 0x41E JUMPI DUP1 PUSH4 0x95EA7B3 EQ PUSH2 0x43E JUMPI DUP1 PUSH4 0xE752702 EQ PUSH2 0x46E JUMPI DUP1 PUSH4 0x173B9904 EQ PUSH2 0x49C JUMPI DUP1 PUSH4 0x17BFDFBC EQ PUSH2 0x4B2 JUMPI JUMPDEST CALLVALUE ISZERO PUSH2 0x378 JUMPI PUSH1 0x40 MLOAD PUSH3 0x461BCD PUSH1 0xE5 SHL DUP2 MSTORE PUSH1 0x20 PUSH1 0x4 DUP3 ADD MSTORE PUSH1 0x37 PUSH1 0x24 DUP3 ADD MSTORE PUSH32 0x43457263323044656C656761746F723A66616C6C6261636B3A2063616E6E6F74 PUSH1 0x44 DUP3 ADD MSTORE PUSH32 0x2073656E642076616C756520746F2066616C6C6261636B000000000000000000 PUSH1 0x64 DUP3 ADD MSTORE PUSH1 0x84 ADD JUMPDEST PUSH1 0x40 MLOAD DUP1 SWAP2 SUB SWAP1 REVERT JUMPDEST PUSH1 0x12 SLOAD PUSH1 0x40 MLOAD PUSH1 0x0 SWAP2 PUSH1 0x1 PUSH1 0x1 PUSH1 0xA0 SHL SUB AND SWAP1 PUSH2 0x398 SWAP1 DUP4 SWAP1 CALLDATASIZE SWAP1 PUSH2 0x1779 JUMP JUMPDEST PUSH1 0x0 PUSH1 0x40 MLOAD DUP1 DUP4 SUB DUP2 DUP6 GAS DELEGATECALL SWAP2 POP POP RETURNDATASIZE DUP1 PUSH1 0x0 DUP2 EQ PUSH2 0x3D3 JUMPI PUSH1 0x40 MLOAD SWAP2 POP PUSH1 0x1F NOT PUSH1 0x3F RETURNDATASIZE ADD AND DUP3 ADD PUSH1 0x40 MSTORE RETURNDATASIZE DUP3 MSTORE RETURNDATASIZE PUSH1 0x0 PUSH1 0x20 DUP5 ADD RETURNDATACOPY PUSH2 0x3D8 JUMP JUMPDEST PUSH1 0x60 SWAP2 POP JUMPDEST POP POP SWAP1 POP PUSH1 0x40 MLOAD RETURNDATASIZE PUSH1 0x0 DUP3 RETURNDATACOPY DUP2 DUP1 ISZERO PUSH2 0x3EF JUMPI RETURNDATASIZE DUP3 RETURN JUMPDEST RETURNDATASIZE DUP3 REVERT JUMPDEST CALLVALUE DUP1 ISZERO PUSH2 0x3FF JUMPI PUSH1 0x0 DUP1 REVERT JUMPDEST POP PUSH2 0x408 PUSH2 0xA38 JUMP JUMPDEST PUSH1 0x40 MLOAD PUSH2 0x415 SWAP2 SWAP1 PUSH2 0x17E5 JUMP JUMPDEST PUSH1 0x40 MLOAD DUP1 SWAP2 SUB SWAP1 RETURN JUMPDEST CALLVALUE DUP1 ISZERO PUSH2 0x42A JUMPI PUSH1 0x0 DUP1 REVERT JUMPDEST POP PUSH2 0x408 PUSH2 0x439 CALLDATASIZE PUSH1 0x4 PUSH2 0x18BD JUMP JUMPDEST PUSH2 0xAC6 JUMP JUMPDEST CALLVALUE DUP1 ISZERO PUSH2 0x44A JUMPI PUSH1 0x0 DUP1 REVERT JUMPDEST POP PUSH2 0x45E PUSH2 0x459 CALLDATASIZE PUSH1 0x4 PUSH2 0x190A JUMP JUMPDEST PUSH2 0xAE5 JUMP JUMPDEST PUSH1 0x40 MLOAD SWAP1 ISZERO ISZERO DUP2 MSTORE PUSH1 0x20 ADD PUSH2 0x415 JUMP JUMPDEST CALLVALUE DUP1 ISZERO PUSH2 0x47A JUMPI PUSH1 0x0 DUP1 REVERT JUMPDEST POP PUSH2 0x48E PUSH2 0x489 CALLDATASIZE PUSH1 0x4 PUSH2 0x1936 JUMP JUMPDEST PUSH2 0xB57 JUMP JUMPDEST PUSH1 0x40 MLOAD SWAP1 DUP2 MSTORE PUSH1 0x20 ADD PUSH2 0x415 JUMP JUMPDEST CALLVALUE DUP1 ISZERO PUSH2 0x4A8 JUMPI PUSH1 0x0 DUP1 REVERT JUMPDEST POP PUSH2 0x48E PUSH1 0x8 SLOAD DUP2 JUMP JUMPDEST CALLVALUE DUP1 ISZERO PUSH2 0x4BE JUMPI PUSH1 0x0 DUP1 REVERT JUMPDEST POP PUSH2 0x48E PUSH2 0x4CD CALLDATASIZE PUSH1 0x4 PUSH2 0x194F JUMP JUMPDEST PUSH2 0xBBC JUMP JUMPDEST CALLVALUE DUP1 ISZERO PUSH2 0x4DE JUMPI PUSH1 0x0 DUP1 REVERT JUMPDEST POP PUSH2 0x48E PUSH1 0xD SLOAD DUP2 JUMP JUMPDEST CALLVALUE DUP1 ISZERO PUSH2 0x4F4 JUMPI PUSH1 0x0 DUP1 REVERT JUMPDEST POP PUSH2 0x48E PUSH2 0xC09 JUMP JUMPDEST CALLVALUE DUP1 ISZERO PUSH2 0x509 JUMPI PUSH1 0x0 DUP1 REVERT JUMPDEST POP PUSH2 0x51D PUSH2 0x518 CALLDATASIZE PUSH1 0x4 PUSH2 0x194F JUMP JUMPDEST PUSH2 0xC5C JUMP JUMPDEST STOP JUMPDEST CALLVALUE DUP1 ISZERO PUSH2 0x52B JUMPI PUSH1 0x0 DUP1 REVERT JUMPDEST POP PUSH2 0x45E PUSH2 0x53A CALLDATASIZE PUSH1 0x4 PUSH2 0x196C JUMP JUMPDEST PUSH2 0xCA7 JUMP JUMPDEST CALLVALUE DUP1 ISZERO PUSH2 0x54B JUMPI PUSH1 0x0 DUP1 REVERT JUMPDEST POP PUSH2 0x48E PUSH2 0x55A CALLDATASIZE PUSH1 0x4 PUSH2 0x190A JUMP JUMPDEST PUSH2 0xD22 JUMP JUMPDEST CALLVALUE DUP1 ISZERO PUSH2 0x56B JUMPI PUSH1 0x0 DUP1 REVERT JUMPDEST POP PUSH1 0x4 SLOAD PUSH2 0x57F SWAP1 PUSH1 0x1 PUSH1 0x1 PUSH1 0xA0 SHL SUB AND DUP2 JUMP JUMPDEST PUSH1 0x40 MLOAD PUSH1 0x1 PUSH1 0x1 PUSH1 0xA0 SHL SUB SWAP1 SWAP2 AND DUP2 MSTORE PUSH1 0x20 ADD PUSH2 0x415 JUMP JUMPDEST CALLVALUE DUP1 ISZERO PUSH2 0x5A3 JUMPI PUSH1 0x0 DUP1 REVERT JUMPDEST POP PUSH1 0x3 SLOAD PUSH2 0x5B1 SWAP1 PUSH1 0xFF AND DUP2 JUMP JUMPDEST PUSH1 0x40 MLOAD PUSH1 0xFF SWAP1 SWAP2 AND DUP2 MSTORE PUSH1 0x20 ADD PUSH2 0x415 JUMP JUMPDEST CALLVALUE DUP1 ISZERO PUSH2 0x5CF JUMPI PUSH1 0x0 DUP1 REVERT JUMPDEST POP PUSH2 0x48E PUSH2 0x5DE CALLDATASIZE PUSH1 0x4 PUSH2 0x194F JUMP JUMPDEST PUSH2 0xD8C JUMP JUMPDEST CALLVALUE DUP1 ISZERO PUSH2 0x5EF JUMPI PUSH1 0x0 DUP1 REVERT JUMPDEST POP PUSH2 0x48E PUSH2 0xDD9 JUMP JUMPDEST CALLVALUE DUP1 ISZERO PUSH2 0x604 JUMPI PUSH1 0x0 DUP1 REVERT JUMPDEST POP PUSH2 0x48E PUSH2 0x613 CALLDATASIZE PUSH1 0x4 PUSH2 0x1936 JUMP JUMPDEST PUSH2 0xE10 JUMP JUMPDEST CALLVALUE DUP1 ISZERO PUSH2 0x624 JUMPI PUSH1 0x0 DUP1 REVERT JUMPDEST POP PUSH2 0x408 PUSH2 0x633 CALLDATASIZE PUSH1 0x4 PUSH2 0x18BD JUMP JUMPDEST PUSH2 0xE58 JUMP JUMPDEST CALLVALUE DUP1 ISZERO PUSH2 0x644 JUMPI PUSH1 0x0 DUP1 REVERT JUMPDEST POP PUSH2 0x48E PUSH2 0x653 CALLDATASIZE PUSH1 0x4 PUSH2 0x194F JUMP JUMPDEST PUSH2 0xF16 JUMP JUMPDEST CALLVALUE DUP1 ISZERO PUSH2 0x664 JUMPI PUSH1 0x0 DUP1 REVERT JUMPDEST POP PUSH2 0x48E PUSH1 0xB SLOAD DUP2 JUMP JUMPDEST CALLVALUE DUP1 ISZERO PUSH2 0x67A JUMPI PUSH1 0x0 DUP1 REVERT JUMPDEST POP PUSH2 0x51D PUSH2 0x689 CALLDATASIZE PUSH1 0x4 PUSH2 0x19BB JUMP JUMPDEST PUSH2 0xF63 JUMP JUMPDEST CALLVALUE DUP1 ISZERO PUSH2 0x69A JUMPI PUSH1 0x0 DUP1 REVERT JUMPDEST POP PUSH1 0x12 SLOAD PUSH2 0x57F SWAP1 PUSH1 0x1 PUSH1 0x1 PUSH1 0xA0 SHL SUB AND DUP2 JUMP JUMPDEST CALLVALUE DUP1 ISZERO PUSH2 0x6BA JUMPI PUSH1 0x0 DUP1 REVERT JUMPDEST POP PUSH1 0x5 SLOAD PUSH2 0x57F SWAP1 PUSH1 0x1 PUSH1 0x1 PUSH1 0xA0 SHL SUB AND DUP2 JUMP JUMPDEST CALLVALUE DUP1 ISZERO PUSH2 0x6DA JUMPI PUSH1 0x0 DUP1 REVERT JUMPDEST POP PUSH2 0x48E PUSH2 0x6E9 CALLDATASIZE PUSH1 0x4 PUSH2 0x1936 JUMP JUMPDEST PUSH2 0x10D5 JUMP JUMPDEST CALLVALUE DUP1 ISZERO PUSH2 0x6FA JUMPI PUSH1 0x0 DUP1 REVERT JUMPDEST POP PUSH2 0x48E PUSH7 0x6379DA05B60000 DUP2 JUMP JUMPDEST CALLVALUE DUP1 ISZERO PUSH2 0x715 JUMPI PUSH1 0x0 DUP1 REVERT JUMPDEST POP PUSH2 0x48E PUSH1 0x9 SLOAD DUP2 JUMP JUMPDEST CALLVALUE DUP1 ISZERO PUSH2 0x72B JUMPI PUSH1 0x0 DUP1 REVERT JUMPDEST POP PUSH1 0x11 SLOAD PUSH2 0x57F SWAP1 PUSH1 0x1 PUSH1 0x1 PUSH1 0xA0 SHL SUB AND DUP2 JUMP JUMPDEST CALLVALUE DUP1 ISZERO PUSH2 0x74B JUMPI PUSH1 0x0 DUP1 REVERT JUMPDEST POP PUSH2 0x48E PUSH2 0x75A CALLDATASIZE PUSH1 0x4 PUSH2 0x194F JUMP JUMPDEST PUSH2 0x111D JUMP JUMPDEST CALLVALUE DUP1 ISZERO PUSH2 0x76B JUMPI PUSH1 0x0 DUP1 REVERT JUMPDEST POP PUSH2 0x48E PUSH2 0x116A JUMP JUMPDEST CALLVALUE DUP1 ISZERO PUSH2 0x780 JUMPI PUSH1 0x0 DUP1 REVERT JUMPDEST POP PUSH2 0x48E PUSH2 0x78F CALLDATASIZE PUSH1 0x4 PUSH2 0x1936 JUMP JUMPDEST PUSH2 0x11A1 JUMP JUMPDEST CALLVALUE DUP1 ISZERO PUSH2 0x7A0 JUMPI PUSH1 0x0 DUP1 REVERT JUMPDEST POP PUSH2 0x48E PUSH1 0xC SLOAD DUP2 JUMP JUMPDEST CALLVALUE DUP1 ISZERO PUSH2 0x7B6 JUMPI PUSH1 0x0 DUP1 REVERT JUMPDEST POP PUSH2 0x408 PUSH2 0x11E9 JUMP JUMPDEST CALLVALUE DUP1 ISZERO PUSH2 0x7CB JUMPI PUSH1 0x0 DUP1 REVERT JUMPDEST POP PUSH2 0x48E PUSH2 0x7DA CALLDATASIZE PUSH1 0x4 PUSH2 0x194F JUMP JUMPDEST PUSH2 0x11F6 JUMP JUMPDEST CALLVALUE DUP1 ISZERO PUSH2 0x7EB JUMPI PUSH1 0x0 DUP1 REVERT JUMPDEST POP PUSH2 0x48E PUSH2 0x7FA CALLDATASIZE PUSH1 0x4 PUSH2 0x1936 JUMP JUMPDEST PUSH2 0x1243 JUMP JUMPDEST CALLVALUE DUP1 ISZERO PUSH2 0x80B JUMPI PUSH1 0x0 DUP1 REVERT JUMPDEST POP PUSH2 0x48E PUSH2 0x128B JUMP JUMPDEST CALLVALUE DUP1 ISZERO PUSH2 0x820 JUMPI PUSH1 0x0 DUP1 REVERT JUMPDEST POP PUSH2 0x45E PUSH2 0x82F CALLDATASIZE PUSH1 0x4 PUSH2 0x190A JUMP JUMPDEST PUSH2 0x12C2 JUMP JUMPDEST CALLVALUE DUP1 ISZERO PUSH2 0x840 JUMPI PUSH1 0x0 DUP1 REVERT JUMPDEST POP PUSH2 0x48E PUSH1 0xA SLOAD DUP2 JUMP JUMPDEST CALLVALUE DUP1 ISZERO PUSH2 0x856 JUMPI PUSH1 0x0 DUP1 REVERT JUMPDEST POP PUSH2 0x48E PUSH2 0x1316 JUMP JUMPDEST CALLVALUE DUP1 ISZERO PUSH2 0x86B JUMPI PUSH1 0x0 DUP1 REVERT JUMPDEST POP PUSH2 0x48E PUSH2 0x87A CALLDATASIZE PUSH1 0x4 PUSH2 0x196C JUMP JUMPDEST PUSH2 0x134D JUMP JUMPDEST CALLVALUE DUP1 ISZERO PUSH2 0x88B JUMPI PUSH1 0x0 DUP1 REVERT JUMPDEST POP PUSH2 0x48E PUSH2 0x89A CALLDATASIZE PUSH1 0x4 PUSH2 0x194F JUMP JUMPDEST PUSH2 0x13BF JUMP JUMPDEST CALLVALUE DUP1 ISZERO PUSH2 0x8AB JUMPI PUSH1 0x0 DUP1 REVERT JUMPDEST POP PUSH2 0x48E PUSH2 0x140C JUMP JUMPDEST CALLVALUE DUP1 ISZERO PUSH2 0x8C0 JUMPI PUSH1 0x0 DUP1 REVERT JUMPDEST POP PUSH2 0x8D4 PUSH2 0x8CF CALLDATASIZE PUSH1 0x4 PUSH2 0x194F JUMP JUMPDEST PUSH2 0x1443 JUMP JUMPDEST PUSH1 0x40 DUP1 MLOAD SWAP5 DUP6 MSTORE PUSH1 0x20 DUP6 ADD SWAP4 SWAP1 SWAP4 MSTORE SWAP2 DUP4 ADD MSTORE PUSH1 0x60 DUP3 ADD MSTORE PUSH1 0x80 ADD PUSH2 0x415 JUMP JUMPDEST CALLVALUE DUP1 ISZERO PUSH2 0x900 JUMPI PUSH1 0x0 DUP1 REVERT JUMPDEST POP PUSH2 0x48E PUSH2 0x90F CALLDATASIZE PUSH1 0x4 PUSH2 0x1936 JUMP JUMPDEST PUSH2 0x14C3 JUMP JUMPDEST CALLVALUE DUP1 ISZERO PUSH2 0x920 JUMPI PUSH1 0x0 DUP1 REVERT JUMPDEST POP PUSH2 0x48E PUSH2 0x92F CALLDATASIZE PUSH1 0x4 PUSH2 0x1936 JUMP JUMPDEST PUSH2 0x150B JUMP JUMPDEST CALLVALUE DUP1 ISZERO PUSH2 0x940 JUMPI PUSH1 0x0 DUP1 REVERT JUMPDEST POP PUSH2 0x48E PUSH2 0x94F CALLDATASIZE PUSH1 0x4 PUSH2 0x1A1D JUMP JUMPDEST PUSH2 0x1553 JUMP JUMPDEST CALLVALUE DUP1 ISZERO PUSH2 0x960 JUMPI PUSH1 0x0 DUP1 REVERT JUMPDEST POP PUSH2 0x48E PUSH2 0x15A8 JUMP JUMPDEST CALLVALUE DUP1 ISZERO PUSH2 0x975 JUMPI PUSH1 0x0 DUP1 REVERT JUMPDEST POP PUSH2 0x48E PUSH2 0x984 CALLDATASIZE PUSH1 0x4 PUSH2 0x194F JUMP JUMPDEST PUSH2 0x15DF JUMP JUMPDEST CALLVALUE DUP1 ISZERO PUSH2 0x995 JUMPI PUSH1 0x0 DUP1 REVERT JUMPDEST POP PUSH1 0x6 SLOAD PUSH2 0x57F SWAP1 PUSH1 0x1 PUSH1 0x1 PUSH1 0xA0 SHL SUB AND DUP2 JUMP JUMPDEST CALLVALUE DUP1 ISZERO PUSH2 0x9B5 JUMPI PUSH1 0x0 DUP1 REVERT JUMPDEST POP PUSH2 0x48E PUSH2 0x9C4 CALLDATASIZE PUSH1 0x4 PUSH2 0x1A56 JUMP JUMPDEST PUSH2 0x162C JUMP JUMPDEST CALLVALUE DUP1 ISZERO PUSH2 0x9D5 JUMPI PUSH1 0x0 DUP1 REVERT JUMPDEST POP PUSH1 0x3 SLOAD PUSH2 0x57F SWAP1 PUSH2 0x100 SWAP1 DIV PUSH1 0x1 PUSH1 0x1 PUSH1 0xA0 SHL SUB AND DUP2 JUMP JUMPDEST CALLVALUE DUP1 ISZERO PUSH2 0x9FA JUMPI PUSH1 0x0 DUP1 REVERT JUMPDEST POP PUSH2 0x48E PUSH2 0x1688 JUMP JUMPDEST CALLVALUE DUP1 ISZERO PUSH2 0xA0F JUMPI PUSH1 0x0 DUP1 REVERT JUMPDEST POP PUSH2 0x48E PUSH2 0xA1E CALLDATASIZE PUSH1 0x4 PUSH2 0x1936 JUMP JUMPDEST PUSH2 0x16BF JUMP JUMPDEST CALLVALUE DUP1 ISZERO PUSH2 0xA2F JUMPI PUSH1 0x0 DUP1 REVERT JUMPDEST POP PUSH2 0x45E PUSH1 0x1 DUP2 JUMP JUMPDEST PUSH1 0x1 DUP1 SLOAD PUSH2 0xA45 SWAP1 PUSH2 0x1A98 JUMP JUMPDEST DUP1 PUSH1 0x1F ADD PUSH1 0x20 DUP1 SWAP2 DIV MUL PUSH1 0x20 ADD PUSH1 0x40 MLOAD SWAP1 DUP2 ADD PUSH1 0x40 MSTORE DUP1 SWAP3 SWAP2 SWAP1 DUP2 DUP2 MSTORE PUSH1 0x20 ADD DUP3 DUP1 SLOAD PUSH2 0xA71 SWAP1 PUSH2 0x1A98 JUMP JUMPDEST DUP1 ISZERO PUSH2 0xABE JUMPI DUP1 PUSH1 0x1F LT PUSH2 0xA93 JUMPI PUSH2 0x100 DUP1 DUP4 SLOAD DIV MUL DUP4 MSTORE SWAP2 PUSH1 0x20 ADD SWAP2 PUSH2 0xABE JUMP JUMPDEST DUP3 ADD SWAP2 SWAP1 PUSH1 0x0 MSTORE PUSH1 0x20 PUSH1 0x0 KECCAK256 SWAP1 JUMPDEST DUP2 SLOAD DUP2 MSTORE SWAP1 PUSH1 0x1 ADD SWAP1 PUSH1 0x20 ADD DUP1 DUP4 GT PUSH2 0xAA1 JUMPI DUP3 SWAP1 SUB PUSH1 0x1F AND DUP3 ADD SWAP2 JUMPDEST POP POP POP POP POP DUP2 JUMP JUMPDEST PUSH1 0x12 SLOAD PUSH1 0x60 SWAP1 PUSH2 0xADF SWAP1 PUSH1 0x1 PUSH1 0x1 PUSH1 0xA0 SHL SUB AND DUP4 PUSH2 0x1707 JUMP JUMPDEST SWAP3 SWAP2 POP POP JUMP JUMPDEST PUSH1 0x40 MLOAD PUSH1 0x1 PUSH1 0x1 PUSH1 0xA0 SHL SUB DUP4 AND PUSH1 0x24 DUP3 ADD MSTORE PUSH1 0x44 DUP2 ADD DUP3 SWAP1 MSTORE PUSH1 0x0 SWAP1 DUP2 SWAP1 PUSH2 0xB39 SWAP1 PUSH1 0x64 ADD PUSH1 0x40 DUP1 MLOAD PUSH1 0x1F NOT DUP2 DUP5 SUB ADD DUP2 MSTORE SWAP2 SWAP1 MSTORE PUSH1 0x20 DUP2 ADD DUP1 MLOAD PUSH1 0x1 PUSH1 0x1 PUSH1 0xE0 SHL SUB AND PUSH4 0x95EA7B3 PUSH1 0xE0 SHL OR SWAP1 MSTORE PUSH2 0xAC6 JUMP JUMPDEST SWAP1 POP DUP1 DUP1 PUSH1 0x20 ADD SWAP1 MLOAD DUP2 ADD SWAP1 PUSH2 0xB4F SWAP2 SWAP1 PUSH2 0x1AD3 JUMP JUMPDEST SWAP5 SWAP4 POP POP POP POP JUMP JUMPDEST PUSH1 0x0 DUP1 PUSH2 0xB9F DUP4 PUSH1 0x40 MLOAD PUSH1 0x24 ADD PUSH2 0xB70 SWAP2 DUP2 MSTORE PUSH1 0x20 ADD SWAP1 JUMP JUMPDEST PUSH1 0x40 DUP1 MLOAD PUSH1 0x1F NOT DUP2 DUP5 SUB ADD DUP2 MSTORE SWAP2 SWAP1 MSTORE PUSH1 0x20 DUP2 ADD DUP1 MLOAD PUSH1 0x1 PUSH1 0x1 PUSH1 0xE0 SHL SUB AND PUSH4 0x73A9381 PUSH1 0xE1 SHL OR SWAP1 MSTORE PUSH2 0xAC6 JUMP JUMPDEST SWAP1 POP DUP1 DUP1 PUSH1 0x20 ADD SWAP1 MLOAD DUP2 ADD SWAP1 PUSH2 0xBB5 SWAP2 SWAP1 PUSH2 0x1AF0 JUMP JUMPDEST SWAP4 SWAP3 POP POP POP JUMP JUMPDEST PUSH1 0x40 MLOAD PUSH1 0x1 PUSH1 0x1 PUSH1 0xA0 SHL SUB DUP3 AND PUSH1 0x24 DUP3 ADD MSTORE PUSH1 0x0 SWAP1 DUP2 SWAP1 PUSH2 0xB9F SWAP1 PUSH1 0x44 ADD PUSH1 0x40 DUP1 MLOAD PUSH1 0x1F NOT DUP2 DUP5 SUB ADD DUP2 MSTORE SWAP2 SWAP1 MSTORE PUSH1 0x20 DUP2 ADD DUP1 MLOAD PUSH1 0x1 PUSH1 0x1 PUSH1 0xE0 SHL SUB AND PUSH4 0x5EFF7EF PUSH1 0xE2 SHL OR SWAP1 MSTORE PUSH2 0xAC6 JUMP JUMPDEST PUSH1 0x40 DUP1 MLOAD PUSH1 0x4 DUP2 MSTORE PUSH1 0x24 DUP2 ADD SWAP1 SWAP2 MSTORE PUSH1 0x20 DUP2 ADD DUP1 MLOAD PUSH1 0x1 PUSH1 0x1 PUSH1 0xE0 SHL SUB AND PUSH4 0x182DF0F5 PUSH1 0xE0 SHL OR SWAP1 MSTORE PUSH1 0x0 SWAP1 DUP2 SWAP1 PUSH2 0xC40 SWAP1 PUSH2 0xE58 JUMP JUMPDEST SWAP1 POP DUP1 DUP1 PUSH1 0x20 ADD SWAP1 MLOAD DUP2 ADD SWAP1 PUSH2 0xC56 SWAP2 SWAP1 PUSH2 0x1AF0 JUMP JUMPDEST SWAP2 POP POP SWAP1 JUMP JUMPDEST PUSH1 0x40 MLOAD PUSH1 0x1 PUSH1 0x1 PUSH1 0xA0 SHL SUB DUP3 AND PUSH1 0x24 DUP3 ADD MSTORE PUSH2 0xCA3 SWAP1 PUSH1 0x44 ADD PUSH1 0x40 DUP1 MLOAD PUSH1 0x1F NOT DUP2 DUP5 SUB ADD DUP2 MSTORE SWAP2 SWAP1 MSTORE PUSH1 0x20 DUP2 ADD DUP1 MLOAD PUSH1 0x1 PUSH1 0x1 PUSH1 0xE0 SHL SUB AND PUSH3 0xDF0CAB PUSH1 0xE5 SHL OR SWAP1 MSTORE PUSH2 0xAC6 JUMP JUMPDEST POP POP JUMP JUMPDEST PUSH1 0x40 MLOAD PUSH1 0x1 PUSH1 0x1 PUSH1 0xA0 SHL SUB DUP1 DUP6 AND PUSH1 0x24 DUP4 ADD MSTORE DUP4 AND PUSH1 0x44 DUP3 ADD MSTORE PUSH1 0x64 DUP2 ADD DUP3 SWAP1 MSTORE PUSH1 0x0 SWAP1 DUP2 SWAP1 PUSH2 0xD03 SWAP1 PUSH1 0x84 ADD PUSH1 0x40 DUP1 MLOAD PUSH1 0x1F NOT DUP2 DUP5 SUB ADD DUP2 MSTORE SWAP2 SWAP1 MSTORE PUSH1 0x20 DUP2 ADD DUP1 MLOAD PUSH1 0x1 PUSH1 0x1 PUSH1 0xE0 SHL SUB AND PUSH4 0x23B872DD PUSH1 0xE0 SHL OR SWAP1 MSTORE PUSH2 0xAC6 JUMP JUMPDEST SWAP1 POP DUP1 DUP1 PUSH1 0x20 ADD SWAP1 MLOAD DUP2 ADD SWAP1 PUSH2 0xD19 SWAP2 SWAP1 PUSH2 0x1AD3 JUMP JUMPDEST SWAP6 SWAP5 POP POP POP POP POP JUMP JUMPDEST PUSH1 0x40 MLOAD PUSH1 0x1 PUSH1 0x1 PUSH1 0xA0 SHL SUB DUP4 AND PUSH1 0x24 DUP3 ADD MSTORE PUSH1 0x44 DUP2 ADD DUP3 SWAP1 MSTORE PUSH1 0x0 SWAP1 DUP2 SWAP1 PUSH2 0xD76 SWAP1 PUSH1 0x64 ADD PUSH1 0x40 DUP1 MLOAD PUSH1 0x1F NOT DUP2 DUP5 SUB ADD DUP2 MSTORE SWAP2 SWAP1 MSTORE PUSH1 0x20 DUP2 ADD DUP1 MLOAD PUSH1 0x1 PUSH1 0x1 PUSH1 0xE0 SHL SUB AND PUSH4 0x4C11F03 PUSH1 0xE3 SHL OR SWAP1 MSTORE PUSH2 0xAC6 JUMP JUMPDEST SWAP1 POP DUP1 DUP1 PUSH1 0x20 ADD SWAP1 MLOAD DUP2 ADD SWAP1 PUSH2 0xB4F SWAP2 SWAP1 PUSH2 0x1AF0 JUMP JUMPDEST PUSH1 0x40 MLOAD PUSH1 0x1 PUSH1 0x1 PUSH1 0xA0 SHL SUB DUP3 AND PUSH1 0x24 DUP3 ADD MSTORE PUSH1 0x0 SWAP1 DUP2 SWAP1 PUSH2 0xB9F SWAP1 PUSH1 0x44 ADD PUSH1 0x40 DUP1 MLOAD PUSH1 0x1F NOT DUP2 DUP5 SUB ADD DUP2 MSTORE SWAP2 SWAP1 MSTORE PUSH1 0x20 DUP2 ADD DUP1 MLOAD PUSH1 0x1 PUSH1 0x1 PUSH1 0xE0 SHL SUB AND PUSH4 0x3AF9E669 PUSH1 0xE0 SHL OR SWAP1 MSTORE PUSH2 0xAC6 JUMP JUMPDEST PUSH1 0x40 DUP1 MLOAD PUSH1 0x4 DUP2 MSTORE PUSH1 0x24 DUP2 ADD SWAP1 SWAP2 MSTORE PUSH1 0x20 DUP2 ADD DUP1 MLOAD PUSH1 0x1 PUSH1 0x1 PUSH1 0xE0 SHL SUB AND PUSH4 0x1D8E90D1 PUSH1 0xE1 SHL OR SWAP1 MSTORE PUSH1 0x0 SWAP1 DUP2 SWAP1 PUSH2 0xC40 SWAP1 PUSH2 0xE58 JUMP JUMPDEST PUSH1 0x0 DUP1 PUSH2 0xB9F DUP4 PUSH1 0x40 MLOAD PUSH1 0x24 ADD PUSH2 0xE29 SWAP2 DUP2 MSTORE PUSH1 0x20 ADD SWAP1 JUMP JUMPDEST PUSH1 0x40 DUP1 MLOAD PUSH1 0x1F NOT DUP2 DUP5 SUB ADD DUP2 MSTORE SWAP2 SWAP1 MSTORE PUSH1 0x20 DUP2 ADD DUP1 MLOAD PUSH1 0x1 PUSH1 0x1 PUSH1 0xE0 SHL SUB AND PUSH4 0x3E94101 PUSH1 0xE4 SHL OR SWAP1 MSTORE PUSH2 0xAC6 JUMP JUMPDEST PUSH1 0x60 PUSH1 0x0 DUP1 ADDRESS PUSH1 0x1 PUSH1 0x1 PUSH1 0xA0 SHL SUB AND DUP5 PUSH1 0x40 MLOAD PUSH1 0x24 ADD PUSH2 0xE78 SWAP2 SWAP1 PUSH2 0x17E5 JUMP JUMPDEST PUSH1 0x40 DUP1 MLOAD PUSH1 0x1F NOT DUP2 DUP5 SUB ADD DUP2 MSTORE SWAP2 DUP2 MSTORE PUSH1 0x20 DUP3 ADD DUP1 MLOAD PUSH1 0x1 PUSH1 0x1 PUSH1 0xE0 SHL SUB AND PUSH4 0x933C1ED PUSH1 0xE0 SHL OR SWAP1 MSTORE MLOAD PUSH2 0xEAD SWAP2 SWAP1 PUSH2 0x1B09 JUMP JUMPDEST PUSH1 0x0 PUSH1 0x40 MLOAD DUP1 DUP4 SUB DUP2 DUP6 GAS STATICCALL SWAP2 POP POP RETURNDATASIZE DUP1 PUSH1 0x0 DUP2 EQ PUSH2 0xEE8 JUMPI PUSH1 0x40 MLOAD SWAP2 POP PUSH1 0x1F NOT PUSH1 0x3F RETURNDATASIZE ADD AND DUP3 ADD PUSH1 0x40 MSTORE RETURNDATASIZE DUP3 MSTORE RETURNDATASIZE PUSH1 0x0 PUSH1 0x20 DUP5 ADD RETURNDATACOPY PUSH2 0xEED JUMP JUMPDEST PUSH1 0x60 SWAP2 POP JUMPDEST POP SWAP2 POP SWAP2 POP PUSH1 0x0 DUP3 EQ ISZERO PUSH2 0xF02 JUMPI RETURNDATASIZE PUSH1 0x20 DUP3 ADD REVERT JUMPDEST DUP1 DUP1 PUSH1 0x20 ADD SWAP1 MLOAD DUP2 ADD SWAP1 PUSH2 0xB4F SWAP2 SWAP1 PUSH2 0x1B25 JUMP JUMPDEST PUSH1 0x40 MLOAD PUSH1 0x1 PUSH1 0x1 PUSH1 0xA0 SHL SUB DUP3 AND PUSH1 0x24 DUP3 ADD MSTORE PUSH1 0x0 SWAP1 DUP2 SWAP1 PUSH2 0xB9F SWAP1 PUSH1 0x44 ADD PUSH1 0x40 DUP1 MLOAD PUSH1 0x1F NOT DUP2 DUP5 SUB ADD DUP2 MSTORE SWAP2 SWAP1 MSTORE PUSH1 0x20 DUP2 ADD DUP1 MLOAD PUSH1 0x1 PUSH1 0x1 PUSH1 0xE0 SHL SUB AND PUSH4 0x4576B5DB PUSH1 0xE0 SHL OR SWAP1 MSTORE PUSH2 0xAC6 JUMP JUMPDEST PUSH1 0x3 SLOAD PUSH2 0x100 SWAP1 DIV PUSH1 0x1 PUSH1 0x1 PUSH1 0xA0 SHL SUB AND CALLER EQ PUSH2 0xFE8 JUMPI PUSH1 0x40 MLOAD PUSH3 0x461BCD PUSH1 0xE5 SHL DUP2 MSTORE PUSH1 0x20 PUSH1 0x4 DUP3 ADD MSTORE PUSH1 0x39 PUSH1 0x24 DUP3 ADD MSTORE PUSH32 0x43457263323044656C656761746F723A3A5F736574496D706C656D656E746174 PUSH1 0x44 DUP3 ADD MSTORE PUSH32 0x696F6E3A2043616C6C6572206D7573742062652061646D696E00000000000000 PUSH1 0x64 DUP3 ADD MSTORE PUSH1 0x84 ADD PUSH2 0x36F JUMP JUMPDEST DUP2 ISZERO PUSH2 0x1022 JUMPI PUSH1 0x40 DUP1 MLOAD PUSH1 0x4 DUP2 MSTORE PUSH1 0x24 DUP2 ADD SWAP1 SWAP2 MSTORE PUSH1 0x20 DUP2 ADD DUP1 MLOAD PUSH1 0x1 PUSH1 0x1 PUSH1 0xE0 SHL SUB AND PUSH4 0x153AB505 PUSH1 0xE0 SHL OR SWAP1 MSTORE PUSH2 0x1020 SWAP1 PUSH2 0xAC6 JUMP JUMPDEST POP JUMPDEST PUSH1 0x12 DUP1 SLOAD PUSH1 0x1 PUSH1 0x1 PUSH1 0xA0 SHL SUB DUP6 DUP2 AND PUSH1 0x1 PUSH1 0x1 PUSH1 0xA0 SHL SUB NOT DUP4 AND OR SWAP1 SWAP3 SSTORE PUSH1 0x40 MLOAD SWAP2 AND SWAP1 PUSH2 0x1087 SWAP1 PUSH2 0x1058 SWAP1 DUP5 SWAP1 PUSH1 0x24 ADD PUSH2 0x17E5 JUMP JUMPDEST PUSH1 0x40 DUP1 MLOAD PUSH1 0x1F NOT DUP2 DUP5 SUB ADD DUP2 MSTORE SWAP2 SWAP1 MSTORE PUSH1 0x20 DUP2 ADD DUP1 MLOAD PUSH1 0x1 PUSH1 0x1 PUSH1 0xE0 SHL SUB AND PUSH4 0xADCCEE5 PUSH1 0xE3 SHL OR SWAP1 MSTORE PUSH2 0xAC6 JUMP JUMPDEST POP PUSH1 0x12 SLOAD PUSH1 0x40 DUP1 MLOAD PUSH1 0x1 PUSH1 0x1 PUSH1 0xA0 SHL SUB DUP1 DUP6 AND DUP3 MSTORE SWAP1 SWAP3 AND PUSH1 0x20 DUP4 ADD MSTORE PUSH32 0xD604DE94D45953F9138079EC1B82D533CB2160C906D1076D1F7ED54BEFBCA97A SWAP2 ADD PUSH1 0x40 MLOAD DUP1 SWAP2 SUB SWAP1 LOG1 POP POP POP POP JUMP JUMPDEST PUSH1 0x0 DUP1 PUSH2 0xB9F DUP4 PUSH1 0x40 MLOAD PUSH1 0x24 ADD PUSH2 0x10EE SWAP2 DUP2 MSTORE PUSH1 0x20 ADD SWAP1 JUMP JUMPDEST PUSH1 0x40 DUP1 MLOAD PUSH1 0x1F NOT DUP2 DUP5 SUB ADD DUP2 MSTORE SWAP2 SWAP1 MSTORE PUSH1 0x20 DUP2 ADD DUP1 MLOAD PUSH1 0x1 PUSH1 0x1 PUSH1 0xE0 SHL SUB AND PUSH4 0x601A0BF1 PUSH1 0xE0 SHL OR SWAP1 MSTORE PUSH2 0xAC6 JUMP JUMPDEST PUSH1 0x40 MLOAD PUSH1 0x1 PUSH1 0x1 PUSH1 0xA0 SHL SUB DUP3 AND PUSH1 0x24 DUP3 ADD MSTORE PUSH1 0x0 SWAP1 DUP2 SWAP1 PUSH2 0xB9F SWAP1 PUSH1 0x44 ADD PUSH1 0x40 DUP1 MLOAD PUSH1 0x1F NOT DUP2 DUP5 SUB ADD DUP2 MSTORE SWAP2 SWAP1 MSTORE PUSH1 0x20 DUP2 ADD DUP1 MLOAD PUSH1 0x1 PUSH1 0x1 PUSH1 0xE0 SHL SUB AND PUSH4 0x70A08231 PUSH1 0xE0 SHL OR SWAP1 MSTORE PUSH2 0xE58 JUMP JUMPDEST PUSH1 0x40 DUP1 MLOAD PUSH1 0x4 DUP2 MSTORE PUSH1 0x24 DUP2 ADD SWAP1 SWAP2 MSTORE PUSH1 0x20 DUP2 ADD DUP1 MLOAD PUSH1 0x1 PUSH1 0x1 PUSH1 0xE0 SHL SUB AND PUSH4 0xE759DD3 PUSH1 0xE3 SHL OR SWAP1 MSTORE PUSH1 0x0 SWAP1 DUP2 SWAP1 PUSH2 0xC40 SWAP1 PUSH2 0xAC6 JUMP JUMPDEST PUSH1 0x0 DUP1 PUSH2 0xB9F DUP4 PUSH1 0x40 MLOAD PUSH1 0x24 ADD PUSH2 0x11BA SWAP2 DUP2 MSTORE PUSH1 0x20 ADD SWAP1 JUMP JUMPDEST PUSH1 0x40 DUP1 MLOAD PUSH1 0x1F NOT DUP2 DUP5 SUB ADD DUP2 MSTORE SWAP2 SWAP1 MSTORE PUSH1 0x20 DUP2 ADD DUP1 MLOAD PUSH1 0x1 PUSH1 0x1 PUSH1 0xE0 SHL SUB AND PUSH4 0x852A12E3 PUSH1 0xE0 SHL OR SWAP1 MSTORE PUSH2 0xAC6 JUMP JUMPDEST PUSH1 0x2 DUP1 SLOAD PUSH2 0xA45 SWAP1 PUSH2 0x1A98 JUMP JUMPDEST PUSH1 0x40 MLOAD PUSH1 0x1 PUSH1 0x1 PUSH1 0xA0 SHL SUB DUP3 AND PUSH1 0x24 DUP3 ADD MSTORE PUSH1 0x0 SWAP1 DUP2 SWAP1 PUSH2 0xB9F SWAP1 PUSH1 0x44 ADD PUSH1 0x40 DUP1 MLOAD PUSH1 0x1F NOT DUP2 DUP5 SUB ADD DUP2 MSTORE SWAP2 SWAP1 MSTORE PUSH1 0x20 DUP2 ADD DUP1 MLOAD PUSH1 0x1 PUSH1 0x1 PUSH1 0xE0 SHL SUB AND PUSH4 0x95DD9193 PUSH1 0xE0 SHL OR SWAP1 MSTORE PUSH2 0xE58 JUMP JUMPDEST PUSH1 0x0 DUP1 PUSH2 0xB9F DUP4 PUSH1 0x40 MLOAD PUSH1 0x24 ADD PUSH2 0x125C SWAP2 DUP2 MSTORE PUSH1 0x20 ADD SWAP1 JUMP JUMPDEST PUSH1 0x40 DUP1 MLOAD PUSH1 0x1F NOT DUP2 DUP5 SUB ADD DUP2 MSTORE SWAP2 SWAP1 MSTORE PUSH1 0x20 DUP2 ADD DUP1 MLOAD PUSH1 0x1 PUSH1 0x1 PUSH1 0xE0 SHL SUB AND PUSH4 0x140E25AD PUSH1 0xE3 SHL OR SWAP1 MSTORE PUSH2 0xAC6 JUMP JUMPDEST PUSH1 0x40 DUP1 MLOAD PUSH1 0x4 DUP2 MSTORE PUSH1 0x24 DUP2 ADD SWAP1 SWAP2 MSTORE PUSH1 0x20 DUP2 ADD DUP1 MLOAD PUSH1 0x1 PUSH1 0x1 PUSH1 0xE0 SHL SUB AND PUSH4 0xA6AFED95 PUSH1 0xE0 SHL OR SWAP1 MSTORE PUSH1 0x0 SWAP1 DUP2 SWAP1 PUSH2 0xC40 SWAP1 PUSH2 0xAC6 JUMP JUMPDEST PUSH1 0x40 MLOAD PUSH1 0x1 PUSH1 0x1 PUSH1 0xA0 SHL SUB DUP4 AND PUSH1 0x24 DUP3 ADD MSTORE PUSH1 0x44 DUP2 ADD DUP3 SWAP1 MSTORE PUSH1 0x0 SWAP1 DUP2 SWAP1 PUSH2 0xB39 SWAP1 PUSH1 0x64 ADD PUSH1 0x40 DUP1 MLOAD PUSH1 0x1F NOT DUP2 DUP5 SUB ADD DUP2 MSTORE SWAP2 SWAP1 MSTORE PUSH1 0x20 DUP2 ADD DUP1 MLOAD PUSH1 0x1 PUSH1 0x1 PUSH1 0xE0 SHL SUB AND PUSH4 0xA9059CBB PUSH1 0xE0 SHL OR SWAP1 MSTORE PUSH2 0xAC6 JUMP JUMPDEST PUSH1 0x40 DUP1 MLOAD PUSH1 0x4 DUP2 MSTORE PUSH1 0x24 DUP2 ADD SWAP1 SWAP2 MSTORE PUSH1 0x20 DUP2 ADD DUP1 MLOAD PUSH1 0x1 PUSH1 0x1 PUSH1 0xE0 SHL SUB AND PUSH4 0xAE9D70B PUSH1 0xE4 SHL OR SWAP1 MSTORE PUSH1 0x0 SWAP1 DUP2 SWAP1 PUSH2 0xC40 SWAP1 PUSH2 0xE58 JUMP JUMPDEST PUSH1 0x40 MLOAD PUSH1 0x1 PUSH1 0x1 PUSH1 0xA0 SHL SUB DUP1 DUP6 AND PUSH1 0x24 DUP4 ADD MSTORE DUP4 AND PUSH1 0x44 DUP3 ADD MSTORE PUSH1 0x64 DUP2 ADD DUP3 SWAP1 MSTORE PUSH1 0x0 SWAP1 DUP2 SWAP1 PUSH2 0x13A9 SWAP1 PUSH1 0x84 ADD PUSH1 0x40 DUP1 MLOAD PUSH1 0x1F NOT DUP2 DUP5 SUB ADD DUP2 MSTORE SWAP2 SWAP1 MSTORE PUSH1 0x20 DUP2 ADD DUP1 MLOAD PUSH1 0x1 PUSH1 0x1 PUSH1 0xE0 SHL SUB AND PUSH4 0xB2A02FF1 PUSH1 0xE0 SHL OR SWAP1 MSTORE PUSH2 0xAC6 JUMP JUMPDEST SWAP1 POP DUP1 DUP1 PUSH1 0x20 ADD SWAP1 MLOAD DUP2 ADD SWAP1 PUSH2 0xD19 SWAP2 SWAP1 PUSH2 0x1AF0 JUMP JUMPDEST PUSH1 0x40 MLOAD PUSH1 0x1 PUSH1 0x1 PUSH1 0xA0 SHL SUB DUP3 AND PUSH1 0x24 DUP3 ADD MSTORE PUSH1 0x0 SWAP1 DUP2 SWAP1 PUSH2 0xB9F SWAP1 PUSH1 0x44 ADD PUSH1 0x40 DUP1 MLOAD PUSH1 0x1F NOT DUP2 DUP5 SUB ADD DUP2 MSTORE SWAP2 SWAP1 MSTORE PUSH1 0x20 DUP2 ADD DUP1 MLOAD PUSH1 0x1 PUSH1 0x1 PUSH1 0xE0 SHL SUB AND PUSH4 0x2DC74683 PUSH1 0xE2 SHL OR SWAP1 MSTORE PUSH2 0xAC6 JUMP JUMPDEST PUSH1 0x40 DUP1 MLOAD PUSH1 0x4 DUP2 MSTORE PUSH1 0x24 DUP2 ADD SWAP1 SWAP2 MSTORE PUSH1 0x20 DUP2 ADD DUP1 MLOAD PUSH1 0x1 PUSH1 0x1 PUSH1 0xE0 SHL SUB AND PUSH4 0xBD6D894D PUSH1 0xE0 SHL OR SWAP1 MSTORE PUSH1 0x0 SWAP1 DUP2 SWAP1 PUSH2 0xC40 SWAP1 PUSH2 0xAC6 JUMP JUMPDEST PUSH1 0x0 DUP1 PUSH1 0x0 DUP1 PUSH1 0x0 PUSH2 0x149D DUP7 PUSH1 0x40 MLOAD PUSH1 0x24 ADD PUSH2 0x146E SWAP2 SWAP1 PUSH1 0x1 PUSH1 0x1 PUSH1 0xA0 SHL SUB SWAP2 SWAP1 SWAP2 AND DUP2 MSTORE PUSH1 0x20 ADD SWAP1 JUMP JUMPDEST PUSH1 0x40 DUP1 MLOAD PUSH1 0x1F NOT DUP2 DUP5 SUB ADD DUP2 MSTORE SWAP2 SWAP1 MSTORE PUSH1 0x20 DUP2 ADD DUP1 MLOAD PUSH1 0x1 PUSH1 0x1 PUSH1 0xE0 SHL SUB AND PUSH4 0x61BFB471 PUSH1 0xE1 SHL OR SWAP1 MSTORE PUSH2 0xE58 JUMP JUMPDEST SWAP1 POP DUP1 DUP1 PUSH1 0x20 ADD SWAP1 MLOAD DUP2 ADD SWAP1 PUSH2 0x14B3 SWAP2 SWAP1 PUSH2 0x1B93 JUMP JUMPDEST SWAP5 POP SWAP5 POP SWAP5 POP SWAP5 POP POP SWAP2 SWAP4 POP SWAP2 SWAP4 JUMP JUMPDEST PUSH1 0x0 DUP1 PUSH2 0xB9F DUP4 PUSH1 0x40 MLOAD PUSH1 0x24 ADD PUSH2 0x14DC SWAP2 DUP2 MSTORE PUSH1 0x20 ADD SWAP1 JUMP JUMPDEST PUSH1 0x40 DUP1 MLOAD PUSH1 0x1F NOT DUP2 DUP5 SUB ADD DUP2 MSTORE SWAP2 SWAP1 MSTORE PUSH1 0x20 DUP2 ADD DUP1 MLOAD PUSH1 0x1 PUSH1 0x1 PUSH1 0xE0 SHL SUB AND PUSH4 0x317AFABB PUSH1 0xE2 SHL OR SWAP1 MSTORE PUSH2 0xAC6 JUMP JUMPDEST PUSH1 0x0 DUP1 PUSH2 0xB9F DUP4 PUSH1 0x40 MLOAD PUSH1 0x24 ADD PUSH2 0x1524 SWAP2 DUP2 MSTORE PUSH1 0x20 ADD SWAP1 JUMP JUMPDEST PUSH1 0x40 DUP1 MLOAD PUSH1 0x1F NOT DUP2 DUP5 SUB ADD DUP2 MSTORE SWAP2 SWAP1 MSTORE PUSH1 0x20 DUP2 ADD DUP1 MLOAD PUSH1 0x1 PUSH1 0x1 PUSH1 0xE0 SHL SUB AND PUSH4 0xDB006A75 PUSH1 0xE0 SHL OR SWAP1 MSTORE PUSH2 0xAC6 JUMP JUMPDEST PUSH1 0x40 MLOAD PUSH1 0x1 PUSH1 0x1 PUSH1 0xA0 SHL SUB DUP1 DUP5 AND PUSH1 0x24 DUP4 ADD MSTORE DUP3 AND PUSH1 0x44 DUP3 ADD MSTORE PUSH1 0x0 SWAP1 DUP2 SWAP1 PUSH2 0xD76 SWAP1 PUSH1 0x64 ADD PUSH1 0x40 DUP1 MLOAD PUSH1 0x1F NOT DUP2 DUP5 SUB ADD DUP2 MSTORE SWAP2 SWAP1 MSTORE PUSH1 0x20 DUP2 ADD DUP1 MLOAD PUSH1 0x1 PUSH1 0x1 PUSH1 0xE0 SHL SUB AND PUSH4 0x6EB1769F PUSH1 0xE1 SHL OR SWAP1 MSTORE PUSH2 0xE58 JUMP JUMPDEST PUSH1 0x40 DUP1 MLOAD PUSH1 0x4 DUP2 MSTORE PUSH1 0x24 DUP2 ADD SWAP1 SWAP2 MSTORE PUSH1 0x20 DUP2 ADD DUP1 MLOAD PUSH1 0x1 PUSH1 0x1 PUSH1 0xE0 SHL SUB AND PUSH4 0x74E38A79 PUSH1 0xE1 SHL OR SWAP1 MSTORE PUSH1 0x0 SWAP1 DUP2 SWAP1 PUSH2 0xC40 SWAP1 PUSH2 0xAC6 JUMP JUMPDEST PUSH1 0x40 MLOAD PUSH1 0x1 PUSH1 0x1 PUSH1 0xA0 SHL SUB DUP3 AND PUSH1 0x24 DUP3 ADD MSTORE PUSH1 0x0 SWAP1 DUP2 SWAP1 PUSH2 0xB9F SWAP1 PUSH1 0x44 ADD PUSH1 0x40 DUP1 MLOAD PUSH1 0x1F NOT DUP2 DUP5 SUB ADD DUP2 MSTORE SWAP2 SWAP1 MSTORE PUSH1 0x20 DUP2 ADD DUP1 MLOAD PUSH1 0x1 PUSH1 0x1 PUSH1 0xE0 SHL SUB AND PUSH4 0xF2B3ABBD PUSH1 0xE0 SHL OR SWAP1 MSTORE PUSH2 0xAC6 JUMP JUMPDEST PUSH1 0x40 MLOAD PUSH1 0x1 PUSH1 0x1 PUSH1 0xA0 SHL SUB DUP1 DUP6 AND PUSH1 0x24 DUP4 ADD MSTORE PUSH1 0x44 DUP3 ADD DUP5 SWAP1 MSTORE DUP3 AND PUSH1 0x64 DUP3 ADD MSTORE PUSH1 0x0 SWAP1 DUP2 SWAP1 PUSH2 0x13A9 SWAP1 PUSH1 0x84 ADD PUSH1 0x40 DUP1 MLOAD PUSH1 0x1F NOT DUP2 DUP5 SUB ADD DUP2 MSTORE SWAP2 SWAP1 MSTORE PUSH1 0x20 DUP2 ADD DUP1 MLOAD PUSH1 0x1 PUSH1 0x1 PUSH1 0xE0 SHL SUB AND PUSH4 0x7AF1E231 PUSH1 0xE1 SHL OR SWAP1 MSTORE PUSH2 0xAC6 JUMP JUMPDEST PUSH1 0x40 DUP1 MLOAD PUSH1 0x4 DUP2 MSTORE PUSH1 0x24 DUP2 ADD SWAP1 SWAP2 MSTORE PUSH1 0x20 DUP2 ADD DUP1 MLOAD PUSH1 0x1 PUSH1 0x1 PUSH1 0xE0 SHL SUB AND PUSH4 0x1F1F3B45 PUSH1 0xE3 SHL OR SWAP1 MSTORE PUSH1 0x0 SWAP1 DUP2 SWAP1 PUSH2 0xC40 SWAP1 PUSH2 0xE58 JUMP JUMPDEST PUSH1 0x0 DUP1 PUSH2 0xB9F DUP4 PUSH1 0x40 MLOAD PUSH1 0x24 ADD PUSH2 0x16D8 SWAP2 DUP2 MSTORE PUSH1 0x20 ADD SWAP1 JUMP JUMPDEST PUSH1 0x40 DUP1 MLOAD PUSH1 0x1F NOT DUP2 DUP5 SUB ADD DUP2 MSTORE SWAP2 SWAP1 MSTORE PUSH1 0x20 DUP2 ADD DUP1 MLOAD PUSH1 0x1 PUSH1 0x1 PUSH1 0xE0 SHL SUB AND PUSH4 0xFCA7820B PUSH1 0xE0 SHL OR SWAP1 MSTORE PUSH2 0xAC6 JUMP JUMPDEST PUSH1 0x60 PUSH1 0x0 DUP1 DUP5 PUSH1 0x1 PUSH1 0x1 PUSH1 0xA0 SHL SUB AND DUP5 PUSH1 0x40 MLOAD PUSH2 0x1724 SWAP2 SWAP1 PUSH2 0x1B09 JUMP JUMPDEST PUSH1 0x0 PUSH1 0x40 MLOAD DUP1 DUP4 SUB DUP2 DUP6 GAS DELEGATECALL SWAP2 POP POP RETURNDATASIZE DUP1 PUSH1 0x0 DUP2 EQ PUSH2 0x175F JUMPI PUSH1 0x40 MLOAD SWAP2 POP PUSH1 0x1F NOT PUSH1 0x3F RETURNDATASIZE ADD AND DUP3 ADD PUSH1 0x40 MSTORE RETURNDATASIZE DUP3 MSTORE RETURNDATASIZE PUSH1 0x0 PUSH1 0x20 DUP5 ADD RETURNDATACOPY PUSH2 0x1764 JUMP JUMPDEST PUSH1 0x60 SWAP2 POP JUMPDEST POP SWAP2 POP SWAP2 POP PUSH1 0x0 DUP3 EQ ISZERO PUSH2 0xB4F JUMPI RETURNDATASIZE PUSH1 0x20 DUP3 ADD REVERT JUMPDEST DUP2 DUP4 DUP3 CALLDATACOPY PUSH1 0x0 SWAP2 ADD SWAP1 DUP2 MSTORE SWAP2 SWAP1 POP JUMP JUMPDEST PUSH1 0x0 JUMPDEST DUP4 DUP2 LT ISZERO PUSH2 0x17A4 JUMPI DUP2 DUP2 ADD MLOAD DUP4 DUP3 ADD MSTORE PUSH1 0x20 ADD PUSH2 0x178C JUMP JUMPDEST DUP4 DUP2 GT ISZERO PUSH2 0x17B3 JUMPI PUSH1 0x0 DUP5 DUP5 ADD MSTORE JUMPDEST POP POP POP POP JUMP JUMPDEST PUSH1 0x0 DUP2 MLOAD DUP1 DUP5 MSTORE PUSH2 0x17D1 DUP2 PUSH1 0x20 DUP7 ADD PUSH1 0x20 DUP7 ADD PUSH2 0x1789 JUMP JUMPDEST PUSH1 0x1F ADD PUSH1 0x1F NOT AND SWAP3 SWAP1 SWAP3 ADD PUSH1 0x20 ADD SWAP3 SWAP2 POP POP JUMP JUMPDEST PUSH1 0x20 DUP2 MSTORE PUSH1 0x0 PUSH2 0xBB5 PUSH1 0x20 DUP4 ADD DUP5 PUSH2 0x17B9 JUMP JUMPDEST PUSH4 0x4E487B71 PUSH1 0xE0 SHL PUSH1 0x0 MSTORE PUSH1 0x41 PUSH1 0x4 MSTORE PUSH1 0x24 PUSH1 0x0 REVERT JUMPDEST PUSH1 0x40 MLOAD PUSH1 0x1F DUP3 ADD PUSH1 0x1F NOT AND DUP2 ADD PUSH8 0xFFFFFFFFFFFFFFFF DUP2 GT DUP3 DUP3 LT OR ISZERO PUSH2 0x1837 JUMPI PUSH2 0x1837 PUSH2 0x17F8 JUMP JUMPDEST PUSH1 0x40 MSTORE SWAP2 SWAP1 POP JUMP JUMPDEST PUSH1 0x0 PUSH8 0xFFFFFFFFFFFFFFFF DUP3 GT ISZERO PUSH2 0x1859 JUMPI PUSH2 0x1859 PUSH2 0x17F8 JUMP JUMPDEST POP PUSH1 0x1F ADD PUSH1 0x1F NOT AND PUSH1 0x20 ADD SWAP1 JUMP JUMPDEST PUSH1 0x0 DUP3 PUSH1 0x1F DUP4 ADD SLT PUSH2 0x1878 JUMPI PUSH1 0x0 DUP1 REVERT JUMPDEST DUP2 CALLDATALOAD PUSH2 0x188B PUSH2 0x1886 DUP3 PUSH2 0x183F JUMP JUMPDEST PUSH2 0x180E JUMP JUMPDEST DUP2 DUP2 MSTORE DUP5 PUSH1 0x20 DUP4 DUP7 ADD ADD GT ISZERO PUSH2 0x18A0 JUMPI PUSH1 0x0 DUP1 REVERT JUMPDEST DUP2 PUSH1 0x20 DUP6 ADD PUSH1 0x20 DUP4 ADD CALLDATACOPY PUSH1 0x0 SWAP2 DUP2 ADD PUSH1 0x20 ADD SWAP2 SWAP1 SWAP2 MSTORE SWAP4 SWAP3 POP POP POP JUMP JUMPDEST PUSH1 0x0 PUSH1 0x20 DUP3 DUP5 SUB SLT ISZERO PUSH2 0x18CF JUMPI PUSH1 0x0 DUP1 REVERT JUMPDEST DUP2 CALLDATALOAD PUSH8 0xFFFFFFFFFFFFFFFF DUP2 GT ISZERO PUSH2 0x18E6 JUMPI PUSH1 0x0 DUP1 REVERT JUMPDEST PUSH2 0xB4F DUP5 DUP3 DUP6 ADD PUSH2 0x1867 JUMP JUMPDEST PUSH1 0x1 PUSH1 0x1 PUSH1 0xA0 SHL SUB DUP2 AND DUP2 EQ PUSH2 0x1907 JUMPI PUSH1 0x0 DUP1 REVERT JUMPDEST POP JUMP JUMPDEST PUSH1 0x0 DUP1 PUSH1 0x40 DUP4 DUP6 SUB SLT ISZERO PUSH2 0x191D JUMPI PUSH1 0x0 DUP1 REVERT JUMPDEST DUP3 CALLDATALOAD PUSH2 0x1928 DUP2 PUSH2 0x18F2 JUMP JUMPDEST SWAP5 PUSH1 0x20 SWAP4 SWAP1 SWAP4 ADD CALLDATALOAD SWAP4 POP POP POP JUMP JUMPDEST PUSH1 0x0 PUSH1 0x20 DUP3 DUP5 SUB SLT ISZERO PUSH2 0x1948 JUMPI PUSH1 0x0 DUP1 REVERT JUMPDEST POP CALLDATALOAD SWAP2 SWAP1 POP JUMP JUMPDEST PUSH1 0x0 PUSH1 0x20 DUP3 DUP5 SUB SLT ISZERO PUSH2 0x1961 JUMPI PUSH1 0x0 DUP1 REVERT JUMPDEST DUP2 CALLDATALOAD PUSH2 0xBB5 DUP2 PUSH2 0x18F2 JUMP JUMPDEST PUSH1 0x0 DUP1 PUSH1 0x0 PUSH1 0x60 DUP5 DUP7 SUB SLT ISZERO PUSH2 0x1981 JUMPI PUSH1 0x0 DUP1 REVERT JUMPDEST DUP4 CALLDATALOAD PUSH2 0x198C DUP2 PUSH2 0x18F2 JUMP JUMPDEST SWAP3 POP PUSH1 0x20 DUP5 ADD CALLDATALOAD PUSH2 0x199C DUP2 PUSH2 0x18F2 JUMP JUMPDEST SWAP3 SWAP6 SWAP3 SWAP5 POP POP POP PUSH1 0x40 SWAP2 SWAP1 SWAP2 ADD CALLDATALOAD SWAP1 JUMP JUMPDEST DUP1 ISZERO ISZERO DUP2 EQ PUSH2 0x1907 JUMPI PUSH1 0x0 DUP1 REVERT JUMPDEST PUSH1 0x0 DUP1 PUSH1 0x0 PUSH1 0x60 DUP5 DUP7 SUB SLT ISZERO PUSH2 0x19D0 JUMPI PUSH1 0x0 DUP1 REVERT JUMPDEST DUP4 CALLDATALOAD PUSH2 0x19DB DUP2 PUSH2 0x18F2 JUMP JUMPDEST SWAP3 POP PUSH1 0x20 DUP5 ADD CALLDATALOAD PUSH2 0x19EB DUP2 PUSH2 0x19AD JUMP JUMPDEST SWAP2 POP PUSH1 0x40 DUP5 ADD CALLDATALOAD PUSH8 0xFFFFFFFFFFFFFFFF DUP2 GT ISZERO PUSH2 0x1A07 JUMPI PUSH1 0x0 DUP1 REVERT JUMPDEST PUSH2 0x1A13 DUP7 DUP3 DUP8 ADD PUSH2 0x1867 JUMP JUMPDEST SWAP2 POP POP SWAP3 POP SWAP3 POP SWAP3 JUMP JUMPDEST PUSH1 0x0 DUP1 PUSH1 0x40 DUP4 DUP6 SUB SLT ISZERO PUSH2 0x1A30 JUMPI PUSH1 0x0 DUP1 REVERT JUMPDEST DUP3 CALLDATALOAD PUSH2 0x1A3B DUP2 PUSH2 0x18F2 JUMP JUMPDEST SWAP2 POP PUSH1 0x20 DUP4 ADD CALLDATALOAD PUSH2 0x1A4B DUP2 PUSH2 0x18F2 JUMP JUMPDEST DUP1 SWAP2 POP POP SWAP3 POP SWAP3 SWAP1 POP JUMP JUMPDEST PUSH1 0x0 DUP1 PUSH1 0x0 PUSH1 0x60 DUP5 DUP7 SUB SLT ISZERO PUSH2 0x1A6B JUMPI PUSH1 0x0 DUP1 REVERT JUMPDEST DUP4 CALLDATALOAD PUSH2 0x1A76 DUP2 PUSH2 0x18F2 JUMP JUMPDEST SWAP3 POP PUSH1 0x20 DUP5 ADD CALLDATALOAD SWAP2 POP PUSH1 0x40 DUP5 ADD CALLDATALOAD PUSH2 0x1A8D DUP2 PUSH2 0x18F2 JUMP JUMPDEST DUP1 SWAP2 POP POP SWAP3 POP SWAP3 POP SWAP3 JUMP JUMPDEST PUSH1 0x1 DUP2 DUP2 SHR SWAP1 DUP3 AND DUP1 PUSH2 0x1AAC JUMPI PUSH1 0x7F DUP3 AND SWAP2 POP JUMPDEST PUSH1 0x20 DUP3 LT DUP2 EQ ISZERO PUSH2 0x1ACD JUMPI PUSH4 0x4E487B71 PUSH1 0xE0 SHL PUSH1 0x0 MSTORE PUSH1 0x22 PUSH1 0x4 MSTORE PUSH1 0x24 PUSH1 0x0 REVERT JUMPDEST POP SWAP2 SWAP1 POP JUMP JUMPDEST PUSH1 0x0 PUSH1 0x20 DUP3 DUP5 SUB SLT ISZERO PUSH2 0x1AE5 JUMPI PUSH1 0x0 DUP1 REVERT JUMPDEST DUP2 MLOAD PUSH2 0xBB5 DUP2 PUSH2 0x19AD JUMP JUMPDEST PUSH1 0x0 PUSH1 0x20 DUP3 DUP5 SUB SLT ISZERO PUSH2 0x1B02 JUMPI PUSH1 0x0 DUP1 REVERT JUMPDEST POP MLOAD SWAP2 SWAP1 POP JUMP JUMPDEST PUSH1 0x0 DUP3 MLOAD PUSH2 0x1B1B DUP2 DUP5 PUSH1 0x20 DUP8 ADD PUSH2 0x1789 JUMP JUMPDEST SWAP2 SWAP1 SWAP2 ADD SWAP3 SWAP2 POP POP JUMP JUMPDEST PUSH1 0x0 PUSH1 0x20 DUP3 DUP5 SUB SLT ISZERO PUSH2 0x1B37 JUMPI PUSH1 0x0 DUP1 REVERT JUMPDEST DUP2 MLOAD PUSH8 0xFFFFFFFFFFFFFFFF DUP2 GT ISZERO PUSH2 0x1B4E JUMPI PUSH1 0x0 DUP1 REVERT JUMPDEST DUP3 ADD PUSH1 0x1F DUP2 ADD DUP5 SGT PUSH2 0x1B5F JUMPI PUSH1 0x0 DUP1 REVERT JUMPDEST DUP1 MLOAD PUSH2 0x1B6D PUSH2 0x1886 DUP3 PUSH2 0x183F JUMP JUMPDEST DUP2 DUP2 MSTORE DUP6 PUSH1 0x20 DUP4 DUP6 ADD ADD GT ISZERO PUSH2 0x1B82 JUMPI PUSH1 0x0 DUP1 REVERT JUMPDEST PUSH2 0xD19 DUP3 PUSH1 0x20 DUP4 ADD PUSH1 0x20 DUP7 ADD PUSH2 0x1789 JUMP JUMPDEST PUSH1 0x0 DUP1 PUSH1 0x0 DUP1 PUSH1 0x80 DUP6 DUP8 SUB SLT ISZERO PUSH2 0x1BA9 JUMPI PUSH1 0x0 DUP1 REVERT JUMPDEST POP POP DUP3 MLOAD PUSH1 0x20 DUP5 ADD MLOAD PUSH1 0x40 DUP6 ADD MLOAD PUSH1 0x60 SWAP1 SWAP6 ADD MLOAD SWAP2 SWAP7 SWAP1 SWAP6 POP SWAP1 SWAP3 POP SWAP1 POP JUMP INVALID LOG2 PUSH5 0x6970667358 0x22 SLT KECCAK256 0xAB EXP 0xDB 0xEF PUSH18 0x85C8289ECF131DFFB9D45BEEB14E4F5D0AB LOG2 EXTCODECOPY MLOAD 0xBE 0xBC 0xE0 0xE9 PUSH20 0x7B64736F6C634300080A00330000000000000000 "
				},
				"gasEstimates": {
					"creation": {
						"codeDepositCost": "1433400",
						"executionCost": "infinite",
						"totalCost": "infinite"
					},
					"external": {
						"": "infinite",
						"_acceptAdmin()": "infinite",
						"_addReserves(uint256)": "infinite",
						"_reduceReserves(uint256)": "infinite",
						"_setComptroller(address)": "infinite",
						"_setImplementation(address,bool,bytes)": "infinite",
						"_setInterestRateModel(address)": "infinite",
						"_setPendingAdmin(address)": "infinite",
						"_setReserveFactor(uint256)": "infinite",
						"accrualBlockNumber()": "2406",
						"accrueInterest()": "infinite",
						"admin()": "2414",
						"allowance(address,address)": "infinite",
						"approve(address,uint256)": "infinite",
						"balanceOf(address)": "infinite",
						"balanceOfUnderlying(address)": "infinite",
						"borrow(uint256)": "infinite",
						"borrowBalanceCurrent(address)": "infinite",
						"borrowBalanceStored(address)": "infinite",
						"borrowIndex()": "2362",
						"borrowRatePerBlock()": "infinite",
						"comptroller()": "2449",
						"decimals()": "2447",
						"delegateToImplementation(bytes)": "infinite",
						"delegateToViewImplementation(bytes)": "infinite",
						"exchangeRateCurrent()": "infinite",
						"exchangeRateStored()": "infinite",
						"getAccountSnapshot(address)": "infinite",
						"getCash()": "infinite",
						"implementation()": "2427",
						"interestRateModel()": "2426",
						"isCToken()": "333",
						"liquidateBorrow(address,uint256,address)": "infinite",
						"mint(uint256)": "infinite",
						"name()": "infinite",
						"pendingAdmin()": "2449",
						"protocolSeizeShareMantissa()": "284",
						"redeem(uint256)": "infinite",
						"redeemUnderlying(uint256)": "infinite",
						"repayBorrow(uint256)": "infinite",
						"repayBorrowBehalf(address,uint256)": "infinite",
						"reserveFactorMantissa()": "2430",
						"seize(address,address,uint256)": "infinite",
						"supplyRatePerBlock()": "infinite",
						"sweepToken(address)": "infinite",
						"symbol()": "infinite",
						"totalBorrows()": "2451",
						"totalBorrowsCurrent()": "infinite",
						"totalReserves()": "2407",
						"totalSupply()": "2364",
						"transfer(address,uint256)": "infinite",
						"transferFrom(address,address,uint256)": "infinite",
						"underlying()": "2470"
					},
					"internal": {
						"delegateTo(address,bytes memory)": "infinite"
					}
				},
				"methodIdentifiers": {
					"_acceptAdmin()": "e9c714f2",
					"_addReserves(uint256)": "3e941010",
					"_reduceReserves(uint256)": "601a0bf1",
					"_setComptroller(address)": "4576b5db",
					"_setImplementation(address,bool,bytes)": "555bcc40",
					"_setInterestRateModel(address)": "f2b3abbd",
					"_setPendingAdmin(address)": "b71d1a0c",
					"_setReserveFactor(uint256)": "fca7820b",
					"accrualBlockNumber()": "6c540baf",
					"accrueInterest()": "a6afed95",
					"admin()": "f851a440",
					"allowance(address,address)": "dd62ed3e",
					"approve(address,uint256)": "095ea7b3",
					"balanceOf(address)": "70a08231",
					"balanceOfUnderlying(address)": "3af9e669",
					"borrow(uint256)": "c5ebeaec",
					"borrowBalanceCurrent(address)": "17bfdfbc",
					"borrowBalanceStored(address)": "95dd9193",
					"borrowIndex()": "aa5af0fd",
					"borrowRatePerBlock()": "f8f9da28",
					"comptroller()": "5fe3b567",
					"decimals()": "313ce567",
					"delegateToImplementation(bytes)": "0933c1ed",
					"delegateToViewImplementation(bytes)": "4487152f",
					"exchangeRateCurrent()": "bd6d894d",
					"exchangeRateStored()": "182df0f5",
					"getAccountSnapshot(address)": "c37f68e2",
					"getCash()": "3b1d21a2",
					"implementation()": "5c60da1b",
					"interestRateModel()": "f3fdb15a",
					"isCToken()": "fe9c44ae",
					"liquidateBorrow(address,uint256,address)": "f5e3c462",
					"mint(uint256)": "a0712d68",
					"name()": "06fdde03",
					"pendingAdmin()": "26782247",
					"protocolSeizeShareMantissa()": "6752e702",
					"redeem(uint256)": "db006a75",
					"redeemUnderlying(uint256)": "852a12e3",
					"repayBorrow(uint256)": "0e752702",
					"repayBorrowBehalf(address,uint256)": "2608f818",
					"reserveFactorMantissa()": "173b9904",
					"seize(address,address,uint256)": "b2a02ff1",
					"supplyRatePerBlock()": "ae9d70b0",
					"sweepToken(address)": "1be19560",
					"symbol()": "95d89b41",
					"totalBorrows()": "47bd3718",
					"totalBorrowsCurrent()": "73acee98",
					"totalReserves()": "8f840ddd",
					"totalSupply()": "18160ddd",
					"transfer(address,uint256)": "a9059cbb",
					"transferFrom(address,address,uint256)": "23b872dd",
					"underlying()": "6f307dc3"
				}
			},
			"storageLayout": {
				"storage": [
					{
						"astId": 1129,
						"contract": "contracts/CErc20Delegator.sol:CErc20Delegator",
						"label": "_notEntered",
						"offset": 0,
						"slot": "0",
						"type": "t_bool"
					},
					{
						"astId": 1132,
						"contract": "contracts/CErc20Delegator.sol:CErc20Delegator",
						"label": "name",
						"offset": 0,
						"slot": "1",
						"type": "t_string_storage"
					},
					{
						"astId": 1135,
						"contract": "contracts/CErc20Delegator.sol:CErc20Delegator",
						"label": "symbol",
						"offset": 0,
						"slot": "2",
						"type": "t_string_storage"
					},
					{
						"astId": 1138,
						"contract": "contracts/CErc20Delegator.sol:CErc20Delegator",
						"label": "decimals",
						"offset": 0,
						"slot": "3",
						"type": "t_uint8"
					},
					{
						"astId": 1147,
						"contract": "contracts/CErc20Delegator.sol:CErc20Delegator",
						"label": "admin",
						"offset": 1,
						"slot": "3",
						"type": "t_address_payable"
					},
					{
						"astId": 1150,
						"contract": "contracts/CErc20Delegator.sol:CErc20Delegator",
						"label": "pendingAdmin",
						"offset": 0,
						"slot": "4",
						"type": "t_address_payable"
					},
					{
						"astId": 1154,
						"contract": "contracts/CErc20Delegator.sol:CErc20Delegator",
						"label": "comptroller",
						"offset": 0,
						"slot": "5",
						"type": "t_contract(ComptrollerInterface)1839"
					},
					{
						"astId": 1158,
						"contract": "contracts/CErc20Delegator.sol:CErc20Delegator",
						"label": "interestRateModel",
						"offset": 0,
						"slot": "6",
						"type": "t_contract(InterestRateModel)2161"
					},
					{
						"astId": 1160,
						"contract": "contracts/CErc20Delegator.sol:CErc20Delegator",
						"label": "initialExchangeRateMantissa",
						"offset": 0,
						"slot": "7",
						"type": "t_uint256"
					},
					{
						"astId": 1163,
						"contract": "contracts/CErc20Delegator.sol:CErc20Delegator",
						"label": "reserveFactorMantissa",
						"offset": 0,
						"slot": "8",
						"type": "t_uint256"
					},
					{
						"astId": 1166,
						"contract": "contracts/CErc20Delegator.sol:CErc20Delegator",
						"label": "accrualBlockNumber",
						"offset": 0,
						"slot": "9",
						"type": "t_uint256"
					},
					{
						"astId": 1169,
						"contract": "contracts/CErc20Delegator.sol:CErc20Delegator",
						"label": "borrowIndex",
						"offset": 0,
						"slot": "10",
						"type": "t_uint256"
					},
					{
						"astId": 1172,
						"contract": "contracts/CErc20Delegator.sol:CErc20Delegator",
						"label": "totalBorrows",
						"offset": 0,
						"slot": "11",
						"type": "t_uint256"
					},
					{
						"astId": 1175,
						"contract": "contracts/CErc20Delegator.sol:CErc20Delegator",
						"label": "totalReserves",
						"offset": 0,
						"slot": "12",
						"type": "t_uint256"
					},
					{
						"astId": 1178,
						"contract": "contracts/CErc20Delegator.sol:CErc20Delegator",
						"label": "totalSupply",
						"offset": 0,
						"slot": "13",
						"type": "t_uint256"
					},
					{
						"astId": 1182,
						"contract": "contracts/CErc20Delegator.sol:CErc20Delegator",
						"label": "accountTokens",
						"offset": 0,
						"slot": "14",
						"type": "t_mapping(t_address,t_uint256)"
					},
					{
						"astId": 1188,
						"contract": "contracts/CErc20Delegator.sol:CErc20Delegator",
						"label": "transferAllowances",
						"offset": 0,
						"slot": "15",
						"type": "t_mapping(t_address,t_mapping(t_address,t_uint256))"
					},
					{
						"astId": 1198,
						"contract": "contracts/CErc20Delegator.sol:CErc20Delegator",
						"label": "accountBorrows",
						"offset": 0,
						"slot": "16",
						"type": "t_mapping(t_address,t_struct(BorrowSnapshot)1193_storage)"
					},
					{
						"astId": 1521,
						"contract": "contracts/CErc20Delegator.sol:CErc20Delegator",
						"label": "underlying",
						"offset": 0,
						"slot": "17",
						"type": "t_address"
					},
					{
						"astId": 1597,
						"contract": "contracts/CErc20Delegator.sol:CErc20Delegator",
						"label": "implementation",
						"offset": 0,
						"slot": "18",
						"type": "t_address"
					}
				],
				"types": {
					"t_address": {
						"encoding": "inplace",
						"label": "address",
						"numberOfBytes": "20"
					},
					"t_address_payable": {
						"encoding": "inplace",
						"label": "address payable",
						"numberOfBytes": "20"
					},
					"t_bool": {
						"encoding": "inplace",
						"label": "bool",
						"numberOfBytes": "1"
					},
					"t_contract(ComptrollerInterface)1839": {
						"encoding": "inplace",
						"label": "contract ComptrollerInterface",
						"numberOfBytes": "20"
					},
					"t_contract(InterestRateModel)2161": {
						"encoding": "inplace",
						"label": "contract InterestRateModel",
						"numberOfBytes": "20"
					},
					"t_mapping(t_address,t_mapping(t_address,t_uint256))": {
						"encoding": "mapping",
						"key": "t_address",
						"label": "mapping(address => mapping(address => uint256))",
						"numberOfBytes": "32",
						"value": "t_mapping(t_address,t_uint256)"
					},
					"t_mapping(t_address,t_struct(BorrowSnapshot)1193_storage)": {
						"encoding": "mapping",
						"key": "t_address",
						"label": "mapping(address => struct CTokenStorage.BorrowSnapshot)",
						"numberOfBytes": "32",
						"value": "t_struct(BorrowSnapshot)1193_storage"
					},
					"t_mapping(t_address,t_uint256)": {
						"encoding": "mapping",
						"key": "t_address",
						"label": "mapping(address => uint256)",
						"numberOfBytes": "32",
						"value": "t_uint256"
					},
					"t_string_storage": {
						"encoding": "bytes",
						"label": "string",
						"numberOfBytes": "32"
					},
					"t_struct(BorrowSnapshot)1193_storage": {
						"encoding": "inplace",
						"label": "struct CTokenStorage.BorrowSnapshot",
						"members": [
							{
								"astId": 1190,
								"contract": "contracts/CErc20Delegator.sol:CErc20Delegator",
								"label": "principal",
								"offset": 0,
								"slot": "0",
								"type": "t_uint256"
							},
							{
								"astId": 1192,
								"contract": "contracts/CErc20Delegator.sol:CErc20Delegator",
								"label": "interestIndex",
								"offset": 0,
								"slot": "1",
								"type": "t_uint256"
							}
						],
						"numberOfBytes": "64"
					},
					"t_uint256": {
						"encoding": "inplace",
						"label": "uint256",
						"numberOfBytes": "32"
					},
					"t_uint8": {
						"encoding": "inplace",
						"label": "uint8",
						"numberOfBytes": "1"
					}
				}
			},
			"userdoc": {
				"events": {
					"AccrueInterest(uint256,uint256,uint256,uint256)": {
						"notice": "Event emitted when interest is accrued"
					},
					"Approval(address,address,uint256)": {
						"notice": "EIP20 Approval event"
					},
					"Borrow(address,uint256,uint256,uint256)": {
						"notice": "Event emitted when underlying is borrowed"
					},
					"LiquidateBorrow(address,address,uint256,address,uint256)": {
						"notice": "Event emitted when a borrow is liquidated"
					},
					"Mint(address,uint256,uint256)": {
						"notice": "Event emitted when tokens are minted"
					},
					"NewAdmin(address,address)": {
						"notice": "Event emitted when pendingAdmin is accepted, which means admin is updated"
					},
					"NewComptroller(address,address)": {
						"notice": "Event emitted when comptroller is changed"
					},
					"NewImplementation(address,address)": {
						"notice": "Emitted when implementation is changed"
					},
					"NewMarketInterestRateModel(address,address)": {
						"notice": "Event emitted when interestRateModel is changed"
					},
					"NewPendingAdmin(address,address)": {
						"notice": "Event emitted when pendingAdmin is changed"
					},
					"NewReserveFactor(uint256,uint256)": {
						"notice": "Event emitted when the reserve factor is changed"
					},
					"Redeem(address,uint256,uint256)": {
						"notice": "Event emitted when tokens are redeemed"
					},
					"RepayBorrow(address,address,uint256,uint256,uint256)": {
						"notice": "Event emitted when a borrow is repaid"
					},
					"ReservesAdded(address,uint256,uint256)": {
						"notice": "Event emitted when the reserves are added"
					},
					"ReservesReduced(address,uint256,uint256)": {
						"notice": "Event emitted when the reserves are reduced"
					},
					"Transfer(address,address,uint256)": {
						"notice": "EIP20 Transfer event"
					}
				},
				"kind": "user",
				"methods": {
					"_acceptAdmin()": {
						"notice": "Accepts transfer of admin rights. msg.sender must be pendingAdmin"
					},
					"_addReserves(uint256)": {
						"notice": "Accrues interest and adds reserves by transferring from admin"
					},
					"_reduceReserves(uint256)": {
						"notice": "Accrues interest and reduces reserves by transferring to admin"
					},
					"_setComptroller(address)": {
						"notice": "Sets a new comptroller for the market"
					},
					"_setImplementation(address,bool,bytes)": {
						"notice": "Called by the admin to update the implementation of the delegator"
					},
					"_setInterestRateModel(address)": {
						"notice": "Accrues interest and updates the interest rate model using _setInterestRateModelFresh"
					},
					"_setPendingAdmin(address)": {
						"notice": "Begins transfer of admin rights. The newPendingAdmin must call `_acceptAdmin` to finalize the transfer."
					},
					"_setReserveFactor(uint256)": {
						"notice": "accrues interest and sets a new reserve factor for the protocol using _setReserveFactorFresh"
					},
					"accrualBlockNumber()": {
						"notice": "Block number that interest was last accrued at"
					},
					"accrueInterest()": {
						"notice": "Applies accrued interest to total borrows and reserves."
					},
					"admin()": {
						"notice": "Administrator for this contract"
					},
					"allowance(address,address)": {
						"notice": "Get the current allowance from `owner` for `spender`"
					},
					"approve(address,uint256)": {
						"notice": "Approve `spender` to transfer up to `amount` from `src`"
					},
					"balanceOf(address)": {
						"notice": "Get the token balance of the `owner`"
					},
					"balanceOfUnderlying(address)": {
						"notice": "Get the underlying balance of the `owner`"
					},
					"borrow(uint256)": {
						"notice": "Sender borrows assets from the protocol to their own address"
					},
					"borrowBalanceCurrent(address)": {
						"notice": "Accrue interest to updated borrowIndex and then calculate account's borrow balance using the updated borrowIndex"
					},
					"borrowBalanceStored(address)": {
						"notice": "Return the borrow balance of account based on stored data"
					},
					"borrowIndex()": {
						"notice": "Accumulator of the total earned interest rate since the opening of the market"
					},
					"borrowRatePerBlock()": {
						"notice": "Returns the current per-block borrow interest rate for this cToken"
					},
					"comptroller()": {
						"notice": "Contract which oversees inter-cToken operations"
					},
					"constructor": {
						"notice": "Construct a new money market"
					},
					"decimals()": {
						"notice": "EIP-20 token decimals for this token"
					},
					"delegateToImplementation(bytes)": {
						"notice": "Delegates execution to the implementation contract"
					},
					"delegateToViewImplementation(bytes)": {
						"notice": "Delegates execution to an implementation contract"
					},
					"exchangeRateCurrent()": {
						"notice": "Accrue interest then return the up-to-date exchange rate"
					},
					"exchangeRateStored()": {
						"notice": "Calculates the exchange rate from the underlying to the CToken"
					},
					"getAccountSnapshot(address)": {
						"notice": "Get a snapshot of the account's balances, and the cached exchange rate"
					},
					"getCash()": {
						"notice": "Get cash balance of this cToken in the underlying asset"
					},
					"implementation()": {
						"notice": "Implementation address for this contract"
					},
					"interestRateModel()": {
						"notice": "Model which tells what the current interest rate should be"
					},
					"isCToken()": {
						"notice": "Indicator that this is a CToken contract (for inspection)"
					},
					"liquidateBorrow(address,uint256,address)": {
						"notice": "The sender liquidates the borrowers collateral.  The collateral seized is transferred to the liquidator."
					},
					"mint(uint256)": {
						"notice": "Sender supplies assets into the market and receives cTokens in exchange"
					},
					"name()": {
						"notice": "EIP-20 token name for this token"
					},
					"pendingAdmin()": {
						"notice": "Pending administrator for this contract"
					},
					"protocolSeizeShareMantissa()": {
						"notice": "Share of seized collateral that is added to reserves"
					},
					"redeem(uint256)": {
						"notice": "Sender redeems cTokens in exchange for the underlying asset"
					},
					"redeemUnderlying(uint256)": {
						"notice": "Sender redeems cTokens in exchange for a specified amount of underlying asset"
					},
					"repayBorrow(uint256)": {
						"notice": "Sender repays their own borrow"
					},
					"repayBorrowBehalf(address,uint256)": {
						"notice": "Sender repays a borrow belonging to borrower"
					},
					"reserveFactorMantissa()": {
						"notice": "Fraction of interest currently set aside for reserves"
					},
					"seize(address,address,uint256)": {
						"notice": "Transfers collateral tokens (this market) to the liquidator."
					},
					"supplyRatePerBlock()": {
						"notice": "Returns the current per-block supply interest rate for this cToken"
					},
					"sweepToken(address)": {
						"notice": "A public function to sweep accidental ERC-20 transfers to this contract. Tokens are sent to admin (timelock)"
					},
					"symbol()": {
						"notice": "EIP-20 token symbol for this token"
					},
					"totalBorrows()": {
						"notice": "Total amount of outstanding borrows of the underlying in this market"
					},
					"totalBorrowsCurrent()": {
						"notice": "Returns the current total borrows plus accrued interest"
					},
					"totalReserves()": {
						"notice": "Total amount of reserves of the underlying held in this market"
					},
					"totalSupply()": {
						"notice": "Total number of tokens in circulation"
					},
					"transfer(address,uint256)": {
						"notice": "Transfer `amount` tokens from `msg.sender` to `dst`"
					},
					"transferFrom(address,address,uint256)": {
						"notice": "Transfer `amount` tokens from `src` to `dst`"
					},
					"underlying()": {
						"notice": "Underlying asset for this CToken"
					}
				},
				"notice": "CTokens which wrap an EIP-20 underlying and delegate to an implementation",
				"version": 1
			}
		}
	}
}