{
	"data": {
		"bytecode": {
			"linkReferences": {},
			"object": "608060405234801561001057600080fd5b50600080546001600160a01b0319163317905561543b806100326000396000f3fe608060405234801561001057600080fd5b506004361061048a5760003560e01c8063731f0c2b11610262578063b21be7fd11610151578063dce15449116100ce578063e9af029211610092578063e9af029214610c04578063eabe7d9114610c17578063ede4edd014610c2a578063f00a7a9214610c3d578063f4a433c014610c4a578063f851a44014610c6a57600080fd5b8063dce1544914610bae578063dcfbc0c714610bc1578063e4028eee14610bd4578063e6653f3d14610be7578063e875544614610bfb57600080fd5b8063c488847b11610115578063c488847b14610b15578063ca0af04314610b3d578063cc7ebdc414610b68578063d02f735114610b88578063da3d454c14610b9b57600080fd5b8063b21be7fd14610a84578063bb82aa5e14610aaf578063bdcdc25814610ac2578063bea6b8b814610ad5578063c299823814610af557600080fd5b806394b2294b116101df578063a8b43948116101a3578063a8b4394814610a2c578063aa90075414610a3f578063abfceffc14610a48578063ac0b0bb714610a68578063b0772d0b14610a7c57600080fd5b806394b2294b146109a9578063986ab838146109b25780639d1b5a0a146109d2578063a76b3fda146109ec578063a7f0e231146109ff57600080fd5b80638c57804e116102265780638c57804e146108b75780638e8f294b146108ef5780638ebf636414610942578063929fe9a11461095557806394543c151461099657600080fd5b8063731f0c2b1461083a578063741b25251461085d5780637dc0d1d01461087057806385b7beb81461088357806387f76303146108a357600080fd5b80634a5844321161037e5780635ec88c79116102fb5780636a56947e116102bf5780636a56947e1461077f5780636aa875b51461078d5780636b79c38d146107ad5780636d154ea5146108095780636d35bf911461082c57600080fd5b80635ec88c79146107205780635f5af1aa146107335780635fc7e71e14610746578063607ef6c1146107595780636810dfa61461076c57600080fd5b806351dff9891161034257806351dff989146106c157806352d84d1e146106d457806355ee1fe1146106e7578063598ee1cb146106fa5780635c7786051461070d57600080fd5b80634a584432146106445780634ada90af146106645780634e79238f1461066d5780634ef4c3e11461069b5780634fd42e17146106ae57600080fd5b8063267822471161040c5780633bcf7ec1116103d05780633bcf7ec1146105ed5780633c94786f1461060057806341c728b91461061457806342cbb15c1461062857806347ef3b3b1461062e57600080fd5b8063267822471461058e57806327efe3cb146105a15780632d70db78146105b4578063317b0b77146105c7578063391957d7146105da57600080fd5b80631d7b33d7116104535780631d7b33d7146104fa5780631ededc911461052857806321af45691461053d57806324008a621461056857806324a3d6221461057b57600080fd5b80627e3dd21461048f57806316b95e8f146104ac57806318c882a5146104c15780631c3db2e0146104d45780631d504dc6146104e7575b600080fd5b610497600181565b60405190151581526020015b60405180910390f35b6104bf6104ba366004614a3c565b610c7d565b005b6104976104cf366004614acb565b610f26565b6104bf6104e2366004614be3565b61105f565b6104bf6104f5366004614c33565b6110c2565b61051a610508366004614c33565b600f6020526000908152604090205481565b6040519081526020016104a3565b6104bf610536366004614c50565b5050505050565b601554610550906001600160a01b031681565b6040516001600160a01b0390911681526020016104a3565b61051a610576366004614cab565b611240565b600a54610550906001600160a01b031681565b600154610550906001600160a01b031681565b6104bf6105af366004614cfc565b6112fe565b6104976105c2366004614d28565b6113f5565b61051a6105d5366004614d45565b6114e5565b6104bf6105e8366004614c33565b61158c565b6104976105fb366004614acb565b611656565b600a5461049790600160a01b900460ff1681565b6104bf610622366004614d5e565b50505050565b4361051a565b6104bf61063c366004614da4565b505050505050565b61051a610652366004614c33565b60166020526000908152604090205481565b61051a60065481565b61068061067b366004614d5e565b611780565b604080519384526020840192909252908201526060016104a3565b61051a6106a9366004614e12565b6117c0565b61051a6106bc366004614d45565b611861565b6104bf6106cf366004614d5e565b6118be565b6105506106e2366004614d45565b61190d565b61051a6106f5366004614c33565b611937565b6104bf610708366004614cfc565b6119b0565b6104bf61071b366004614e12565b505050565b61068061072e366004614c33565b611aa4565b61051a610741366004614c33565b611adf565b61051a610754366004614e53565b611b58565b6104bf610767366004614a3c565b611d27565b6104bf61077a366004614f1b565b611f05565b6104bf610622366004614cab565b61051a61079b366004614c33565b601a6020526000908152604090205481565b6107e56107bb366004614c33565b6010602052600090815260409020546001600160e01b03811690600160e01b900463ffffffff1682565b604080516001600160e01b03909316835263ffffffff9091166020830152016104a3565b610497610817366004614c33565b600c6020526000908152604090205460ff1681565b6104bf610536366004614e53565b610497610848366004614c33565b600b6020526000908152604090205460ff1681565b6104bf61086b366004614c33565b61218f565b600454610550906001600160a01b031681565b61051a610891366004614c33565b601c6020526000908152604090205481565b600a5461049790600160b01b900460ff1681565b6107e56108c5366004614c33565b6011602052600090815260409020546001600160e01b03811690600160e01b900463ffffffff1682565b6109236108fd366004614c33565b60096020526000908152604090208054600182015460039092015460ff91821692911683565b60408051931515845260208401929092521515908201526060016104a3565b610497610950366004614d28565b61223b565b610497610963366004614fa4565b6001600160a01b038082166000908152600960209081526040808320938616835260029093019052205460ff1692915050565b6104976109a4366004614c33565b612322565b61051a60075481565b61051a6109c0366004614c33565b60176020526000908152604090205481565b73c00e94cb662c3520282e6f5717214004a7f26888610550565b61051a6109fa366004614c33565b6123e1565b610a146a0c097ce7bc90715b34b9f160241b81565b6040516001600160e01b0390911681526020016104a3565b6104bf610a3a36600461502d565b612513565b61051a600e5481565b610a5b610a56366004614c33565b612648565b6040516104a391906150b5565b600a5461049790600160b81b900460ff1681565b610a5b6126be565b61051a610a92366004614fa4565b601260209081526000928352604080842090915290825290205481565b600254610550906001600160a01b031681565b61051a610ad0366004614cab565b612720565b61051a610ae3366004614c33565b60186020526000908152604090205481565b610b08610b03366004615102565b6127ab565b6040516104a39190615137565b610b28610b23366004614e12565b612873565b604080519283526020830191909152016104a3565b61051a610b4b366004614fa4565b601360209081526000928352604080842090915290825290205481565b61051a610b76366004614c33565b60146020526000908152604090205481565b61051a610b96366004614e53565b612a91565b61051a610ba9366004614e12565b612c38565b610550610bbc366004614cfc565b613008565b600354610550906001600160a01b031681565b61051a610be2366004614cfc565b613040565b600a5461049790600160a81b900460ff1681565b61051a60055481565b6104bf610c12366004614c33565b6131d2565b61051a610c25366004614e12565b613236565b61051a610c38366004614c33565b613271565b601b546104979060ff1681565b61051a610c58366004614c33565b60196020526000908152604090205481565b600054610550906001600160a01b031681565b6000546001600160a01b03163314610ce65760405162461bcd60e51b815260206004820152602160248201527f4f6e6c792061646d696e2063616e2063616c6c20746869732066756e6374696f6044820152603760f91b60648201526084015b60405180910390fd5b601b5460ff1615610d485760405162461bcd60e51b815260206004820152602660248201527f416c72656164792065786563757465642074686973206f6e652d6f66662066756044820152653731ba34b7b760d11b6064820152608401610cdd565b828114610d875760405162461bcd60e51b815260206004820152600d60248201526c125b9d985b1a59081a5b9c1d5d609a1b6044820152606401610cdd565b60008060008060005b87811015610f0e57888882818110610daa57610daa61516f565b9050602002016020810190610dbf9190614c33565b6001600160a01b0381166000908152601460205260409020549095509350868682818110610def57610def61516f565b90506020020135925083831115610e93576000610e0c858561519b565b6001600160a01b0387166000908152601c6020526040812054919250610e3282846135d7565b6001600160a01b0389166000818152601c6020908152604091829020849055815186815290810184905292935090917f17fea09d9a7ca41b2f9f9118f18f44848a62e9c70d55dd4385131eb2cf1b7e47910160405180910390a28695505050505b8215610efe57610ea384846135e3565b6001600160a01b038616600081815260146020908152604091829020849055815188815290810184905292945090917f4a5c134e28b537a76546993ea37f3b60d9190476df7356d3842aa40902e20f04910160405180910390a25b610f07816151b2565b9050610d90565b5050601b805460ff1916600117905550505050505050565b6001600160a01b03821660009081526009602052604081205460ff16610f5e5760405162461bcd60e51b8152600401610cdd906151cd565b600a546001600160a01b0316331480610f8157506000546001600160a01b031633145b610f9d5760405162461bcd60e51b8152600401610cdd90615215565b6000546001600160a01b0316331480610fb857506001821515145b610fd45760405162461bcd60e51b8152600401610cdd9061525c565b6001600160a01b0383166000818152600c6020908152604091829020805460ff19168615159081179091558251938452606091840182905260069184019190915265426f72726f7760d01b6080840152908201527f71aec636243f9709bb0007ae15e9afb8150ab01716d75fd7573be5cc096e03b09060a0015b60405180910390a150805b92915050565b6040805160018082528183019092526000916020808301908036833701905050905082816000815181106110955761109561516f565b60200260200101906001600160a01b031690816001600160a01b03168152505061071b8183600180611f05565b806001600160a01b031663f851a4406040518163ffffffff1660e01b8152600401602060405180830381865afa158015611100573d6000803e3d6000fd5b505050506040513d601f19601f82011682018060405250810190611124919061528c565b6001600160a01b0316336001600160a01b0316146111945760405162461bcd60e51b815260206004820152602760248201527f6f6e6c7920756e6974726f6c6c65722061646d696e2063616e206368616e676560448201526620627261696e7360c81b6064820152608401610cdd565b806001600160a01b031663c1e803346040518163ffffffff1660e01b81526004016020604051808303816000875af11580156111d4573d6000803e3d6000fd5b505050506040513d601f19601f820116820180604052508101906111f891906152a9565b1561123d5760405162461bcd60e51b815260206004820152601560248201527418da185b99d9481b9bdd08185d5d1a1bdc9a5e9959605a1b6044820152606401610cdd565b50565b6001600160a01b03841660009081526009602052604081205460ff16611268575060096112f6565b60006040518060200160405280876001600160a01b031663aa5af0fd6040518163ffffffff1660e01b8152600401602060405180830381865afa1580156112b3573d6000803e3d6000fd5b505050506040513d601f19601f820116820180604052508101906112d791906152a9565b905290506112e586826135ef565b6112f08685836137e2565b60009150505b949350505050565b611306613962565b6113525760405162461bcd60e51b815260206004820152601960248201527f6f6e6c792061646d696e2063616e206772616e7420636f6d70000000000000006044820152606401610cdd565b600061135e838361398b565b905080156113ae5760405162461bcd60e51b815260206004820152601b60248201527f696e73756666696369656e7420636f6d7020666f72206772616e7400000000006044820152606401610cdd565b604080516001600160a01b0385168152602081018490527f98b2f82a3a07f223a0be64b3d0f47711c64dccd1feafb94aa28156b38cd9695c910160405180910390a1505050565b600a546000906001600160a01b031633148061141b57506000546001600160a01b031633145b6114375760405162461bcd60e51b8152600401610cdd90615215565b6000546001600160a01b031633148061145257506001821515145b61146e5760405162461bcd60e51b8152600401610cdd9061525c565b600a8054831515600160b81b0260ff60b81b199091161790556040517fef159d9a32b2472e32b098f954f3ce62d232939f1c207070b584df1814de2de0906114d99084906040808252600590820152645365697a6560d81b6060820152901515602082015260800190565b60405180910390a15090565b600080546001600160a01b031633146115405760405162461bcd60e51b815260206004820152601f60248201527f6f6e6c792061646d696e2063616e2073657420636c6f736520666163746f72006044820152606401610cdd565b600580549083905560408051828152602081018590527f3b9670cf975d26958e754b57098eaa2ac914d8d2a31b83257997b9f346110fd991015b60405180910390a160005b9392505050565b6000546001600160a01b031633146115f55760405162461bcd60e51b815260206004820152602660248201527f6f6e6c792061646d696e2063616e2073657420626f72726f772063617020677560448201526530b93234b0b760d11b6064820152608401610cdd565b601580546001600160a01b038381166001600160a01b031983168117909355604080519190921680825260208201939093527feda98690e518e9a05f8ec6837663e188211b2da8f4906648b323f2c1d4434e29910160405180910390a15050565b6001600160a01b03821660009081526009602052604081205460ff1661168e5760405162461bcd60e51b8152600401610cdd906151cd565b600a546001600160a01b03163314806116b157506000546001600160a01b031633145b6116cd5760405162461bcd60e51b8152600401610cdd90615215565b6000546001600160a01b03163314806116e857506001821515145b6117045760405162461bcd60e51b8152600401610cdd9061525c565b6001600160a01b0383166000818152600b6020908152604091829020805460ff19168615159081179091558251938452606091840182905260049184019190915263135a5b9d60e21b6080840152908201527f71aec636243f9709bb0007ae15e9afb8150ab01716d75fd7573be5cc096e03b09060a00161104e565b6000806000806000806117958a8a8a8a613ab0565b9250925092508260118111156117ad576117ad6152c2565b95509093509150505b9450945094915050565b6001600160a01b0383166000908152600b602052604081205460ff161561181a5760405162461bcd60e51b815260206004820152600e60248201526d1b5a5b9d081a5cc81c185d5cd95960921b6044820152606401610cdd565b6001600160a01b03841660009081526009602052604090205460ff166118445760095b9050611585565b61184d84613dde565b6118578484613f56565b6000949350505050565b600080546001600160a01b03163314611880576110596001600b6140f4565b600680549083905560408051828152602081018590527faeba5a6c40a8ac138134bff1aaa65debf25971188a58804bad717f82f0ec1316910161157a565b801580156118cc5750600082115b156106225760405162461bcd60e51b815260206004820152601160248201527072656465656d546f6b656e73207a65726f60781b6044820152606401610cdd565b600d818154811061191d57600080fd5b6000918252602090912001546001600160a01b0316905081565b600080546001600160a01b0316331461195657611059600160106140f4565b600480546001600160a01b038481166001600160a01b031983168117909355604080519190921680825260208201939093527fd52b2b9b7e9ee655fcb95d2e5b9e0c9f69e7ef2b8e9d2d0ea78402d576d22e22910161157a565b6119b8613962565b611a045760405162461bcd60e51b815260206004820152601d60248201527f6f6e6c792061646d696e2063616e2073657420636f6d702073706565640000006044820152606401610cdd565b611a0d8261218f565b80611a30576001600160a01b038216600090815260186020526040812055611a4b565b436001600160a01b0383166000908152601860205260409020555b6001600160a01b03821660008181526017602052604090819020839055517f386537fa92edc3319af95f1f904dcf1900021e4f3f4e08169a577a09076e66b390611a989084815260200190565b60405180910390a25050565b600080600080600080611abb876000806000613ab0565b925092509250826011811115611ad357611ad36152c2565b97919650945092505050565b600080546001600160a01b03163314611afe57611059600160136140f4565b600a80546001600160a01b038481166001600160a01b031983168117909355604080519190921680825260208201939093527f0613b6ee6a04f0d09f390e4d9318894b9f6ac7fd83897cd8d18896ba579c401e910161157a565b6001600160a01b03851660009081526009602052604081205460ff161580611b9957506001600160a01b03851660009081526009602052604090205460ff16155b15611ba85760095b9050611d1e565b6040516395dd919360e01b81526001600160a01b038481166004830152600091908816906395dd919390602401602060405180830381865afa158015611bf2573d6000803e3d6000fd5b505050506040513d601f19601f82011682018060405250810190611c1691906152a9565b9050611c2187612322565b15611c8c5782811015611c875760405162461bcd60e51b815260206004820152602860248201527f43616e206e6f74207265706179206d6f7265207468616e2074686520746f74616044820152676c20626f72726f7760c01b6064820152608401610cdd565b611d18565b600080611c988661416d565b91935090915060009050826011811115611cb457611cb46152c2565b14611cd557816011811115611ccb57611ccb6152c2565b9350505050611d1e565b80611ce1576003611ccb565b6000611cfd60405180602001604052806005548152508561418d565b905080861115611d14576011945050505050611d1e565b5050505b60009150505b95945050505050565b6000546001600160a01b0316331480611d4a57506015546001600160a01b031633145b611db45760405162461bcd60e51b815260206004820152603560248201527f6f6e6c792061646d696e206f7220626f72726f772063617020677561726469616044820152746e2063616e2073657420626f72726f77206361707360581b6064820152608401610cdd565b82818115801590611dc457508082145b611e005760405162461bcd60e51b815260206004820152600d60248201526c1a5b9d985b1a59081a5b9c1d5d609a1b6044820152606401610cdd565b60005b82811015611efc57848482818110611e1d57611e1d61516f565b9050602002013560166000898985818110611e3a57611e3a61516f565b9050602002016020810190611e4f9190614c33565b6001600160a01b03168152602081019190915260400160002055868682818110611e7b57611e7b61516f565b9050602002016020810190611e909190614c33565b6001600160a01b03167f6f1951b2aad10f3fc81b86d91105b413a5b3f847a34bbc5ce1904201b14438f6868684818110611ecc57611ecc61516f565b90506020020135604051611ee291815260200190565b60405180910390a280611ef4816151b2565b915050611e03565b50505050505050565b60005b83518110156120cc576000848281518110611f2557611f2561516f565b6020908102919091018101516001600160a01b0381166000908152600990925260409091205490915060ff16611f955760405162461bcd60e51b81526020600482015260156024820152741b585c9ad95d081b5d5cdd081899481b1a5cdd1959605a1b6044820152606401610cdd565b600184151514156120625760006040518060200160405280836001600160a01b031663aa5af0fd6040518163ffffffff1660e01b8152600401602060405180830381865afa158015611feb573d6000803e3d6000fd5b505050506040513d601f19601f8201168201806040525081019061200f91906152a9565b9052905061201d82826135ef565b60005b875181101561205f5761204d8389838151811061203f5761203f61516f565b6020026020010151846137e2565b80612057816151b2565b915050612020565b50505b600183151514156120b95761207681613dde565b60005b86518110156120b7576120a5828883815181106120985761209861516f565b6020026020010151613f56565b806120af816151b2565b915050612079565b505b50806120c4816151b2565b915050611f08565b5060005b84518110156105365761213a8582815181106120ee576120ee61516f565b60200260200101516014600088858151811061210c5761210c61516f565b60200260200101516001600160a01b03166001600160a01b031681526020019081526020016000205461398b565b601460008784815181106121505761215061516f565b60200260200101516001600160a01b03166001600160a01b03168152602001908152602001600020819055508080612187906151b2565b9150506120d0565b6001600160a01b0381166000908152601760209081526040808320546018909252822054909143916121c29083906135e3565b90506000811180156121d45750600083115b156106225760006121e582856141a5565b6001600160a01b0386166000908152601460205260408120549192509061220c90836135d7565b6001600160a01b0387166000908152601460209081526040808320939093556018905220849055505050505050565b600a546000906001600160a01b031633148061226157506000546001600160a01b031633145b61227d5760405162461bcd60e51b8152600401610cdd90615215565b6000546001600160a01b031633148061229857506001821515145b6122b45760405162461bcd60e51b8152600401610cdd9061525c565b600a8054831515600160b01b0260ff60b01b199091161790556040517fef159d9a32b2472e32b098f954f3ce62d232939f1c207070b584df1814de2de0906114d99084906040808252600890820152672a3930b739b332b960c11b6060820152901515602082015260800190565b6001600160a01b03811660009081526009602052604081206001015415801561236857506001600160a01b0382166000908152600c602052604090205460ff1615156001145b80156110595750816001600160a01b031663173b99046040518163ffffffff1660e01b8152600401602060405180830381865afa1580156123ad573d6000803e3d6000fd5b505050506040513d601f19601f820116820180604052508101906123d191906152a9565b670de0b6b3a76400001492915050565b600080546001600160a01b0316331461240057611059600160126140f4565b6001600160a01b03821660009081526009602052604090205460ff161561242d57611059600a60116140f4565b816001600160a01b031663fe9c44ae6040518163ffffffff1660e01b8152600401602060405180830381865afa15801561246b573d6000803e3d6000fd5b505050506040513d601f19601f8201168201806040525081019061248f91906152d8565b506001600160a01b03821660009081526009602052604081208054600160ff19918216811783556003830180549092169091558101919091556124d1836141b1565b6124da8361429a565b6040516001600160a01b03841681527fcf583bb0c569eb967f806b11601c4cb93c10310485c67add5f8362c2f212321f9060200161157a565b61251b613962565b6125675760405162461bcd60e51b815260206004820152601d60248201527f6f6e6c792061646d696e2063616e2073657420636f6d702073706565640000006044820152606401610cdd565b82518251811480156125795750815181145b6125d75760405162461bcd60e51b815260206004820152602960248201527f436f6d7074726f6c6c65723a3a5f736574436f6d7053706565647320696e76616044820152681b1a59081a5b9c1d5d60ba1b6064820152608401610cdd565b60005b81811015610536576126388582815181106125f7576125f761516f565b60200260200101518583815181106126115761261161516f565b602002602001015185848151811061262b5761262b61516f565b6020026020010151614356565b612641816151b2565b90506125da565b6001600160a01b03811660009081526008602090815260408083208054825181850281018501909352808352606094938301828280156126b157602002820191906000526020600020905b81546001600160a01b03168152600190910190602001808311612693575b5093979650505050505050565b6060600d80548060200260200160405190810160405280929190818152602001828054801561271657602002820191906000526020600020905b81546001600160a01b031681526001909101906020018083116126f8575b5050505050905090565b600a54600090600160b01b900460ff16156127725760405162461bcd60e51b81526020600482015260126024820152711d1c985b9cd9995c881a5cc81c185d5cd95960721b6044820152606401610cdd565b600061277f868685614535565b9050801561278e5790506112f6565b61279786613dde565b6127a18686613f56565b6112f08685613f56565b805160609060008167ffffffffffffffff8111156127cb576127cb614b04565b6040519080825280602002602001820160405280156127f4578160200160208202803683370190505b50905060005b8281101561286b5760008582815181106128165761281661516f565b6020026020010151905061282a81336145ed565b601181111561283b5761283b6152c2565b83838151811061284d5761284d61516f565b60209081029190910101525080612863816151b2565b9150506127fa565b509392505050565b6004805460405163fc57d4df60e01b81526001600160a01b03868116938201939093526000928392839291169063fc57d4df90602401602060405180830381865afa1580156128c6573d6000803e3d6000fd5b505050506040513d601f19601f820116820180604052508101906128ea91906152a9565b6004805460405163fc57d4df60e01b81526001600160a01b038981169382019390935292935060009291169063fc57d4df90602401602060405180830381865afa15801561293c573d6000803e3d6000fd5b505050506040513d601f19601f8201168201806040525081019061296091906152a9565b905081158061296d575080155b1561298157600d6000935093505050612a89565b6000866001600160a01b031663182df0f56040518163ffffffff1660e01b8152600401602060405180830381865afa1580156129c1573d6000803e3d6000fd5b505050506040513d601f19601f820116820180604052508101906129e591906152a9565b905060006129ff6040518060200160405280600081525090565b604080516020808201835260008083528351808301855290815283518083018552600654815284519283019094528882529192612a3b916146e2565b9250612a636040518060200160405280888152506040518060200160405280888152506146e2565b9150612a6f838361472a565b9050612a7b818b61418d565b600099509750505050505050505b935093915050565b600a54600090600160b81b900460ff1615612ae05760405162461bcd60e51b815260206004820152600f60248201526e1cd95a5e99481a5cc81c185d5cd959608a1b6044820152606401610cdd565b6001600160a01b03861660009081526009602052604090205460ff161580612b2157506001600160a01b03851660009081526009602052604090205460ff16155b15612b2d576009611ba1565b846001600160a01b0316635fe3b5676040518163ffffffff1660e01b8152600401602060405180830381865afa158015612b6b573d6000803e3d6000fd5b505050506040513d601f19601f82011682018060405250810190612b8f919061528c565b6001600160a01b0316866001600160a01b0316635fe3b5676040518163ffffffff1660e01b8152600401602060405180830381865afa158015612bd6573d6000803e3d6000fd5b505050506040513d601f19601f82011682018060405250810190612bfa919061528c565b6001600160a01b031614612c0f576002611ba1565b612c1886613dde565b612c228684613f56565b612c2c8685613f56565b60009695505050505050565b6001600160a01b0383166000908152600c602052604081205460ff1615612c945760405162461bcd60e51b815260206004820152601060248201526f189bdc9c9bddc81a5cc81c185d5cd95960821b6044820152606401610cdd565b6001600160a01b03841660009081526009602052604090205460ff16612cbb57600961183d565b6001600160a01b038085166000908152600960209081526040808320938716835260029093019052205460ff16612db857336001600160a01b03851614612d3c5760405162461bcd60e51b815260206004820152601560248201527439b2b73232b91036bab9ba1031329031aa37b5b2b760591b6044820152606401610cdd565b6000612d4833856145ed565b90506000816011811115612d5e57612d5e6152c2565b14612d7d57806011811115612d7557612d756152c2565b915050611585565b6001600160a01b038086166000908152600960209081526040808320938816835260029093019052205460ff16612db657612db66152f5565b505b6004805460405163fc57d4df60e01b81526001600160a01b038781169382019390935291169063fc57d4df90602401602060405180830381865afa158015612e04573d6000803e3d6000fd5b505050506040513d601f19601f82011682018060405250810190612e2891906152a9565b612e3357600d61183d565b6001600160a01b0384166000908152601660205260409020548015612f18576000856001600160a01b03166347bd37186040518163ffffffff1660e01b8152600401602060405180830381865afa158015612e92573d6000803e3d6000fd5b505050506040513d601f19601f82011682018060405250810190612eb691906152a9565b90506000612ec482866135d7565b9050828110612f155760405162461bcd60e51b815260206004820152601960248201527f6d61726b657420626f72726f77206361702072656163686564000000000000006044820152606401610cdd565b50505b600080612f288688600088613ab0565b91935090915060009050826011811115612f4457612f446152c2565b14612f6557816011811115612f5b57612f5b6152c2565b9350505050611585565b8015612f72576004612f5b565b60006040518060200160405280896001600160a01b031663aa5af0fd6040518163ffffffff1660e01b8152600401602060405180830381865afa158015612fbd573d6000803e3d6000fd5b505050506040513d601f19601f82011682018060405250810190612fe191906152a9565b90529050612fef88826135ef565b612ffa8888836137e2565b600098975050505050505050565b6008602052816000526040600020818154811061302457600080fd5b6000918252602090912001546001600160a01b03169150829050565b600080546001600160a01b031633146130665761305f600160066140f4565b9050611059565b6001600160a01b0383166000908152600960205260409020805460ff1661309b57613093600960076140f4565b915050611059565b60408051602080820183528582528251908101909252670c7d713b49da00008252906130c981835190511090565b156130e4576130da600660086140f4565b9350505050611059565b841580159061316057506004805460405163fc57d4df60e01b81526001600160a01b038981169382019390935291169063fc57d4df90602401602060405180830381865afa15801561313a573d6000803e3d6000fd5b505050506040513d601f19601f8201168201806040525081019061315e91906152a9565b155b15613171576130da600d60096140f4565b60018301805490869055604080516001600160a01b0389168152602081018390529081018790527f70483e6592cd5182d45ac970e05bc62cdcc90e9d8ef2c2dbe686cf383bcd7fc59060600160405180910390a16000979650505050505050565b61123d81600d80548060200260200160405190810160405280929190818152602001828054801561322c57602002820191906000526020600020905b81546001600160a01b0316815260019091019060200180831161320e575b505050505061105f565b600080613244858585614535565b90508015613253579050611585565b61325c85613dde565b6132668585613f56565b600095945050505050565b6040516361bfb47160e11b815233600482015260009082908290819081906001600160a01b0385169063c37f68e290602401608060405180830381865afa1580156132c0573d6000803e3d6000fd5b505050506040513d601f19601f820116820180604052508101906132e4919061530b565b50925092509250826000146133495760405162461bcd60e51b815260206004820152602560248201527f657869744d61726b65743a206765744163636f756e74536e617073686f742066604482015264185a5b195960da1b6064820152608401610cdd565b80156133655761335b600c60026140f4565b9695505050505050565b6000613372873385614535565b9050801561339257613387600e600383614764565b979650505050505050565b6001600160a01b0385166000908152600960209081526040808320338452600281019092529091205460ff166133d057600098975050505050505050565b3360009081526002820160209081526040808320805460ff19169055600882528083208054825181850281018501909352808352919290919083018282801561344257602002820191906000526020600020905b81546001600160a01b03168152600190910190602001808311613424575b5050835193945083925060009150505b828110156134a757896001600160a01b03168482815181106134765761347661516f565b60200260200101516001600160a01b03161415613495578091506134a7565b8061349f816151b2565b915050613452565b508181106134b7576134b76152f5565b336000908152600860205260409020805481906134d69060019061519b565b815481106134e6576134e661516f565b9060005260206000200160009054906101000a90046001600160a01b03168183815481106135165761351661516f565b9060005260206000200160006101000a8154816001600160a01b0302191690836001600160a01b031602179055508080548061355457613554615341565b600082815260209020810160001990810180546001600160a01b03191690550190556040517fe699a64c18b07ac5b7301aa273f36a2287239eb9501d81950672794afba29a0d906135bd908c9033906001600160a01b0392831681529116602082015260400190565b60405180910390a160009c9b505050505050505050505050565b60006115858284615357565b6000611585828461519b565b6001600160a01b038216600090815260116020908152604080832060199092528220549091613654435b6040518060400160405280601c81526020017f626c6f636b206e756d62657220657863656564732033322062697473000000008152506147dc565b83549091506000906136769063ffffffff80851691600160e01b9004166135e3565b90506000811180156136885750600083115b156137b75760006136fa876001600160a01b03166347bd37186040518163ffffffff1660e01b8152600401602060405180830381865afa1580156136d0573d6000803e3d6000fd5b505050506040513d601f19601f820116820180604052508101906136f491906152a9565b8761480c565b9050600061370883866141a5565b905060008083116137285760405180602001604052806000815250613732565b613732828461482a565b604080516020810190915288546001600160e01b031681529091506137959061375b9083614865565b5160408051808201909152601a81527f6e657720696e64657820657863656564732032323420626974730000000000006020820152614891565b6001600160e01b0316600160e01b63ffffffff8716021787555061063c915050565b801561063c57835463ffffffff8316600160e01b026001600160e01b03909116178455505050505050565b6001600160a01b03838116600090815260116020908152604080832080546013845282852095881685529490925290912080546001600160e01b039093169081905590918015801561384257506a0c097ce7bc90715b34b9f160241b8210155b1561385857506a0c097ce7bc90715b34b9f160241b5b6000604051806020016040528061386f85856135e3565b90526040516395dd919360e01b81526001600160a01b0388811660048301529192506000916138c291908a16906395dd919390602401602060405180830381865afa1580156136d0573d6000803e3d6000fd5b905060006138d082846148b8565b6001600160a01b038916600090815260146020526040812054919250906138f790836135d7565b6001600160a01b038a811660008181526014602090815260409182902085905581518781529081018b90529394509092918d16917f1fc3ecc087d8d2d15e23d0032af5a47059c3892d003d8e139fdcb6bb327c99a6910160405180910390a350505050505050505050565b600080546001600160a01b031633148061398657506002546001600160a01b031633145b905090565b60008073c00e94cb662c3520282e6f5717214004a7f268886040516370a0823160e01b81523060048201529091506000906001600160a01b038316906370a0823190602401602060405180830381865afa1580156139ed573d6000803e3d6000fd5b505050506040513d601f19601f82011682018060405250810190613a1191906152a9565b9050600084118015613a235750808411155b15613aa75760405163a9059cbb60e01b81526001600160a01b0386811660048301526024820186905283169063a9059cbb906044016020604051808303816000875af1158015613a77573d6000803e3d6000fd5b505050506040513d601f19601f82011682018060405250810190613a9b91906152d8565b50600092505050611059565b50919392505050565b6000806000613abd61494e565b6001600160a01b038816600090815260086020908152604080832080548251818502810185019093528083528493830182828015613b2457602002820191906000526020600020905b81546001600160a01b03168152600190910190602001808311613b06575b5050505050905060005b8151811015613d88576000828281518110613b4b57613b4b61516f565b60209081029190910101516040516361bfb47160e11b81526001600160a01b038e811660048301529192509082169063c37f68e290602401608060405180830381865afa158015613ba0573d6000803e3d6000fd5b505050506040513d601f19601f82011682018060405250810190613bc4919061530b565b60808901526060880152604087015293508315613bf057600f60008097509750975050505050506117b6565b60408051602080820183526001600160a01b0384811660008181526009845285902060010154845260c08a01939093528351808301855260808a0151815260e08a015260048054855163fc57d4df60e01b815291820194909452935192169263fc57d4df92602480830193928290030181865afa158015613c75573d6000803e3d6000fd5b505050506040513d601f19601f82011682018060405250810190613c9991906152a9565b60a08601819052613cb957600d60008097509750975050505050506117b6565b604080516020810190915260a0860151815261010086015260c085015160e0860151613cf391613ce8916146e2565b8661010001516146e2565b610120860181905260408601518651613d0d9291906148e1565b855261010085015160608601516020870151613d2a9291906148e1565b60208601526001600160a01b03818116908c161415613d7557613d578561012001518b87602001516148e1565b60208601819052610100860151613d6f918b906148e1565b60208601525b5080613d80816151b2565b915050613b2e565b50602083015183511115613db95760208301518351600091613da99161519b565b60009550955095505050506117b6565b60008084600001518560200151613dd0919061519b565b9550955095505050506117b6565b6001600160a01b0381166000908152601060209081526040808320601a9092528220549091613e0c43613619565b8354909150600090613e2e9063ffffffff80851691600160e01b9004166135e3565b9050600081118015613e405750600083115b15613f2c576000856001600160a01b03166318160ddd6040518163ffffffff1660e01b8152600401602060405180830381865afa158015613e85573d6000803e3d6000fd5b505050506040513d601f19601f82011682018060405250810190613ea991906152a9565b90506000613eb783866141a5565b90506000808311613ed75760405180602001604052806000815250613ee1565b613ee1828461482a565b604080516020810190915288546001600160e01b03168152909150613f0a9061375b9083614865565b6001600160e01b0316600160e01b63ffffffff87160217875550610536915050565b801561053657835463ffffffff8316600160e01b026001600160e01b039091161784555050505050565b6001600160a01b03828116600090815260106020908152604080832080546012845282852095871685529490925290912080546001600160e01b0390931690819055909180158015613fb657506a0c097ce7bc90715b34b9f160241b8210155b15613fcc57506a0c097ce7bc90715b34b9f160241b5b60006040518060200160405280613fe385856135e3565b90526040516370a0823160e01b81526001600160a01b0387811660048301529192506000918816906370a0823190602401602060405180830381865afa158015614031573d6000803e3d6000fd5b505050506040513d601f19601f8201168201806040525081019061405591906152a9565b9050600061406382846148b8565b6001600160a01b0388166000908152601460205260408120549192509061408a90836135d7565b6001600160a01b0389811660008181526014602090815260409182902085905581518781529081018b90529394509092918c16917f2caecd17d02f56fa897705dcc740da2d237c373f70686f4e0d9bd3bf0400ea7a910160405180910390a3505050505050505050565b60007f45b96fe442630264581b197e84bbada861235052c5a1aadfff9ea4e40a969aa0836011811115614129576141296152c2565b83601381111561413b5761413b6152c2565b60408051928352602083019190915260009082015260600160405180910390a1826011811115611585576115856152c2565b6000806000614180846000806000613ab0565b9250925092509193909250565b60008061419a8484614902565b90506112f68161492a565b6000611585828461536f565b60005b600d5481101561424757816001600160a01b0316600d82815481106141db576141db61516f565b6000918252602090912001546001600160a01b031614156142355760405162461bcd60e51b81526020600482015260146024820152731b585c9ad95d08185b1c9958591e48185919195960621b6044820152606401610cdd565b8061423f816151b2565b9150506141b4565b50600d80546001810182556000919091527fd7b6990105719101dabeb77144f2a3385c8033acd3af97e9423a695e81ad1eb50180546001600160a01b0319166001600160a01b0392909216919091179055565b60006142a543613619565b6001600160a01b03831660009081526010602090815260408083206011909252909120815492935090916001600160e01b03166142fb5781546001600160e01b0319166a0c097ce7bc90715b34b9f160241b1782555b80546001600160e01b03166143295780546001600160e01b0319166a0c097ce7bc90715b34b9f160241b1781555b805463ffffffff909316600160e01b026001600160e01b0393841681179091558154909216909117905550565b6001600160a01b0383166000908152600960205260409020805460ff166143bf5760405162461bcd60e51b815260206004820152601960248201527f636f6d70206d61726b6574206973206e6f74206c6973746564000000000000006044820152606401610cdd565b6001600160a01b0384166000908152601a6020526040902054831461443d576143e784613dde565b6001600160a01b0384166000818152601a602052604090819020859055517fdeafccd0c0b768b2529f7dcbbe58e155d6023059150b7490ed4535cc3744b92d906144349086815260200190565b60405180910390a25b6001600160a01b03841660009081526019602052604090205482146106225760006040518060200160405280866001600160a01b031663aa5af0fd6040518163ffffffff1660e01b8152600401602060405180830381865afa1580156144a7573d6000803e3d6000fd5b505050506040513d601f19601f820116820180604052508101906144cb91906152a9565b905290506144d985826135ef565b6001600160a01b03851660008181526019602052604090819020859055517f20af8e791cc98f74b2d7a391c80980ca8e5aebf3d4060bf581997b6acae2e537906145269086815260200190565b60405180910390a25050505050565b6001600160a01b03831660009081526009602052604081205460ff1661455c57600961183d565b6001600160a01b038085166000908152600960209081526040808320938716835260029093019052205460ff1661459457600061183d565b6000806145a48587866000613ab0565b919350909150600090508260118111156145c0576145c06152c2565b146145e0578160118111156145d7576145d76152c2565b92505050611585565b8015612c2c5760046145d7565b6001600160a01b0382166000908152600960205260408120805460ff16614618576009915050611059565b6001600160a01b038316600090815260028201602052604090205460ff1615156001141561464a576000915050611059565b6001600160a01b03838116600081815260028401602090815260408083208054600160ff199091168117909155600883528184208054918201815584529282902090920180546001600160a01b031916948916948517905581519384528301919091527f3ab23ab0d51cccc0c3085aec51f99228625aa1a922b3a8ca89a26b0f2027a1a5910160405180910390a15060009392505050565b6040805160208101909152600081526040518060200160405280670de0b6b3a7640000614717866000015186600001516141a5565b614721919061538e565b90529392505050565b604080516020810190915260008152604051806020016040528061472161475d8660000151670de0b6b3a76400006141a5565b8551614942565b60007f45b96fe442630264581b197e84bbada861235052c5a1aadfff9ea4e40a969aa0846011811115614799576147996152c2565b8460138111156147ab576147ab6152c2565b604080519283526020830191909152810184905260600160405180910390a18360118111156112f6576112f66152c2565b60008164010000000084106148045760405162461bcd60e51b8152600401610cdd91906153b0565b509192915050565b600061158561482384670de0b6b3a76400006141a5565b8351614942565b604080516020810190915260008152604051806020016040528061472161485f866a0c097ce7bc90715b34b9f160241b6141a5565b85614942565b6040805160208101909152600081526040518060200160405280614721856000015185600001516135d7565b600081600160e01b84106148045760405162461bcd60e51b8152600401610cdd91906153b0565b60006a0c097ce7bc90715b34b9f160241b6148d78484600001516141a5565b611585919061538e565b6000806148ee8585614902565b9050611d1e6148fc8261492a565b846135d7565b60408051602081019091526000815260405180602001604052806147218560000151856141a5565b805160009061105990670de0b6b3a76400009061538e565b6000611585828461538e565b60405180610140016040528060008152602001600081526020016000815260200160008152602001600081526020016000815260200161499a6040518060200160405280600081525090565b81526020016149b56040518060200160405280600081525090565b81526020016149d06040518060200160405280600081525090565b81526020016149eb6040518060200160405280600081525090565b905290565b60008083601f840112614a0257600080fd5b50813567ffffffffffffffff811115614a1a57600080fd5b6020830191508360208260051b8501011115614a3557600080fd5b9250929050565b60008060008060408587031215614a5257600080fd5b843567ffffffffffffffff80821115614a6a57600080fd5b614a76888389016149f0565b90965094506020870135915080821115614a8f57600080fd5b50614a9c878288016149f0565b95989497509550505050565b6001600160a01b038116811461123d57600080fd5b801515811461123d57600080fd5b60008060408385031215614ade57600080fd5b8235614ae981614aa8565b91506020830135614af981614abd565b809150509250929050565b634e487b7160e01b600052604160045260246000fd5b604051601f8201601f1916810167ffffffffffffffff81118282101715614b4357614b43614b04565b604052919050565b600067ffffffffffffffff821115614b6557614b65614b04565b5060051b60200190565b600082601f830112614b8057600080fd5b81356020614b95614b9083614b4b565b614b1a565b82815260059290921b84018101918181019086841115614bb457600080fd5b8286015b84811015614bd8578035614bcb81614aa8565b8352918301918301614bb8565b509695505050505050565b60008060408385031215614bf657600080fd5b8235614c0181614aa8565b9150602083013567ffffffffffffffff811115614c1d57600080fd5b614c2985828601614b6f565b9150509250929050565b600060208284031215614c4557600080fd5b813561158581614aa8565b600080600080600060a08688031215614c6857600080fd5b8535614c7381614aa8565b94506020860135614c8381614aa8565b93506040860135614c9381614aa8565b94979396509394606081013594506080013592915050565b60008060008060808587031215614cc157600080fd5b8435614ccc81614aa8565b93506020850135614cdc81614aa8565b92506040850135614cec81614aa8565b9396929550929360600135925050565b60008060408385031215614d0f57600080fd5b8235614d1a81614aa8565b946020939093013593505050565b600060208284031215614d3a57600080fd5b813561158581614abd565b600060208284031215614d5757600080fd5b5035919050565b60008060008060808587031215614d7457600080fd5b8435614d7f81614aa8565b93506020850135614d8f81614aa8565b93969395505050506040820135916060013590565b60008060008060008060c08789031215614dbd57600080fd5b8635614dc881614aa8565b95506020870135614dd881614aa8565b94506040870135614de881614aa8565b93506060870135614df881614aa8565b9598949750929560808101359460a0909101359350915050565b600080600060608486031215614e2757600080fd5b8335614e3281614aa8565b92506020840135614e4281614aa8565b929592945050506040919091013590565b600080600080600060a08688031215614e6b57600080fd5b8535614e7681614aa8565b94506020860135614e8681614aa8565b93506040860135614e9681614aa8565b92506060860135614ea681614aa8565b949793965091946080013592915050565b600082601f830112614ec857600080fd5b81356020614ed8614b9083614b4b565b82815260059290921b84018101918181019086841115614ef757600080fd5b8286015b84811015614bd8578035614f0e81614aa8565b8352918301918301614efb565b60008060008060808587031215614f3157600080fd5b843567ffffffffffffffff80821115614f4957600080fd5b614f5588838901614eb7565b95506020870135915080821115614f6b57600080fd5b50614f7887828801614b6f565b9350506040850135614f8981614abd565b91506060850135614f9981614abd565b939692955090935050565b60008060408385031215614fb757600080fd5b8235614fc281614aa8565b91506020830135614af981614aa8565b600082601f830112614fe357600080fd5b81356020614ff3614b9083614b4b565b82815260059290921b8401810191818101908684111561501257600080fd5b8286015b84811015614bd85780358352918301918301615016565b60008060006060848603121561504257600080fd5b833567ffffffffffffffff8082111561505a57600080fd5b61506687838801614b6f565b9450602086013591508082111561507c57600080fd5b61508887838801614fd2565b9350604086013591508082111561509e57600080fd5b506150ab86828701614fd2565b9150509250925092565b6020808252825182820181905260009190848201906040850190845b818110156150f65783516001600160a01b0316835292840192918401916001016150d1565b50909695505050505050565b60006020828403121561511457600080fd5b813567ffffffffffffffff81111561512b57600080fd5b6112f684828501614eb7565b6020808252825182820181905260009190848201906040850190845b818110156150f657835183529284019291840191600101615153565b634e487b7160e01b600052603260045260246000fd5b634e487b7160e01b600052601160045260246000fd5b6000828210156151ad576151ad615185565b500390565b60006000198214156151c6576151c6615185565b5060010190565b60208082526028908201527f63616e6e6f742070617573652061206d61726b65742074686174206973206e6f6040820152671d081b1a5cdd195960c21b606082015260800190565b60208082526027908201527f6f6e6c7920706175736520677561726469616e20616e642061646d696e2063616040820152666e20706175736560c81b606082015260800190565b6020808252601690820152756f6e6c792061646d696e2063616e20756e706175736560501b604082015260600190565b60006020828403121561529e57600080fd5b815161158581614aa8565b6000602082840312156152bb57600080fd5b5051919050565b634e487b7160e01b600052602160045260246000fd5b6000602082840312156152ea57600080fd5b815161158581614abd565b634e487b7160e01b600052600160045260246000fd5b6000806000806080858703121561532157600080fd5b505082516020840151604085015160609095015191969095509092509050565b634e487b7160e01b600052603160045260246000fd5b6000821982111561536a5761536a615185565b500190565b600081600019048311821515161561538957615389615185565b500290565b6000826153ab57634e487b7160e01b600052601260045260246000fd5b500490565b600060208083528351808285015260005b818110156153dd578581018301518582016040015282016153c1565b818111156153ef576000604083870101525b50601f01601f191692909201604001939250505056fea264697066735822122041123b38793b38dd778514ed4429875b64cbc20d94572caf18002c98d12eac5f64736f6c634300080a0033",
			"opcodes": "PUSH1 0x80 PUSH1 0x40 MSTORE CALLVALUE DUP1 ISZERO PUSH2 0x10 JUMPI PUSH1 0x0 DUP1 REVERT JUMPDEST POP PUSH1 0x0 DUP1 SLOAD PUSH1 0x1 PUSH1 0x1 PUSH1 0xA0 SHL SUB NOT AND CALLER OR SWAP1 SSTORE PUSH2 0x543B DUP1 PUSH2 0x32 PUSH1 0x0 CODECOPY PUSH1 0x0 RETURN INVALID PUSH1 0x80 PUSH1 0x40 MSTORE CALLVALUE DUP1 ISZERO PUSH2 0x10 JUMPI PUSH1 0x0 DUP1 REVERT JUMPDEST POP PUSH1 0x4 CALLDATASIZE LT PUSH2 0x48A JUMPI PUSH1 0x0 CALLDATALOAD PUSH1 0xE0 SHR DUP1 PUSH4 0x731F0C2B GT PUSH2 0x262 JUMPI DUP1 PUSH4 0xB21BE7FD GT PUSH2 0x151 JUMPI DUP1 PUSH4 0xDCE15449 GT PUSH2 0xCE JUMPI DUP1 PUSH4 0xE9AF0292 GT PUSH2 0x92 JUMPI DUP1 PUSH4 0xE9AF0292 EQ PUSH2 0xC04 JUMPI DUP1 PUSH4 0xEABE7D91 EQ PUSH2 0xC17 JUMPI DUP1 PUSH4 0xEDE4EDD0 EQ PUSH2 0xC2A JUMPI DUP1 PUSH4 0xF00A7A92 EQ PUSH2 0xC3D JUMPI DUP1 PUSH4 0xF4A433C0 EQ PUSH2 0xC4A JUMPI DUP1 PUSH4 0xF851A440 EQ PUSH2 0xC6A JUMPI PUSH1 0x0 DUP1 REVERT JUMPDEST DUP1 PUSH4 0xDCE15449 EQ PUSH2 0xBAE JUMPI DUP1 PUSH4 0xDCFBC0C7 EQ PUSH2 0xBC1 JUMPI DUP1 PUSH4 0xE4028EEE EQ PUSH2 0xBD4 JUMPI DUP1 PUSH4 0xE6653F3D EQ PUSH2 0xBE7 JUMPI DUP1 PUSH4 0xE8755446 EQ PUSH2 0xBFB JUMPI PUSH1 0x0 DUP1 REVERT JUMPDEST DUP1 PUSH4 0xC488847B GT PUSH2 0x115 JUMPI DUP1 PUSH4 0xC488847B EQ PUSH2 0xB15 JUMPI DUP1 PUSH4 0xCA0AF043 EQ PUSH2 0xB3D JUMPI DUP1 PUSH4 0xCC7EBDC4 EQ PUSH2 0xB68 JUMPI DUP1 PUSH4 0xD02F7351 EQ PUSH2 0xB88 JUMPI DUP1 PUSH4 0xDA3D454C EQ PUSH2 0xB9B JUMPI PUSH1 0x0 DUP1 REVERT JUMPDEST DUP1 PUSH4 0xB21BE7FD EQ PUSH2 0xA84 JUMPI DUP1 PUSH4 0xBB82AA5E EQ PUSH2 0xAAF JUMPI DUP1 PUSH4 0xBDCDC258 EQ PUSH2 0xAC2 JUMPI DUP1 PUSH4 0xBEA6B8B8 EQ PUSH2 0xAD5 JUMPI DUP1 PUSH4 0xC2998238 EQ PUSH2 0xAF5 JUMPI PUSH1 0x0 DUP1 REVERT JUMPDEST DUP1 PUSH4 0x94B2294B GT PUSH2 0x1DF JUMPI DUP1 PUSH4 0xA8B43948 GT PUSH2 0x1A3 JUMPI DUP1 PUSH4 0xA8B43948 EQ PUSH2 0xA2C JUMPI DUP1 PUSH4 0xAA900754 EQ PUSH2 0xA3F JUMPI DUP1 PUSH4 0xABFCEFFC EQ PUSH2 0xA48 JUMPI DUP1 PUSH4 0xAC0B0BB7 EQ PUSH2 0xA68 JUMPI DUP1 PUSH4 0xB0772D0B EQ PUSH2 0xA7C JUMPI PUSH1 0x0 DUP1 REVERT JUMPDEST DUP1 PUSH4 0x94B2294B EQ PUSH2 0x9A9 JUMPI DUP1 PUSH4 0x986AB838 EQ PUSH2 0x9B2 JUMPI DUP1 PUSH4 0x9D1B5A0A EQ PUSH2 0x9D2 JUMPI DUP1 PUSH4 0xA76B3FDA EQ PUSH2 0x9EC JUMPI DUP1 PUSH4 0xA7F0E231 EQ PUSH2 0x9FF JUMPI PUSH1 0x0 DUP1 REVERT JUMPDEST DUP1 PUSH4 0x8C57804E GT PUSH2 0x226 JUMPI DUP1 PUSH4 0x8C57804E EQ PUSH2 0x8B7 JUMPI DUP1 PUSH4 0x8E8F294B EQ PUSH2 0x8EF JUMPI DUP1 PUSH4 0x8EBF6364 EQ PUSH2 0x942 JUMPI DUP1 PUSH4 0x929FE9A1 EQ PUSH2 0x955 JUMPI DUP1 PUSH4 0x94543C15 EQ PUSH2 0x996 JUMPI PUSH1 0x0 DUP1 REVERT JUMPDEST DUP1 PUSH4 0x731F0C2B EQ PUSH2 0x83A JUMPI DUP1 PUSH4 0x741B2525 EQ PUSH2 0x85D JUMPI DUP1 PUSH4 0x7DC0D1D0 EQ PUSH2 0x870 JUMPI DUP1 PUSH4 0x85B7BEB8 EQ PUSH2 0x883 JUMPI DUP1 PUSH4 0x87F76303 EQ PUSH2 0x8A3 JUMPI PUSH1 0x0 DUP1 REVERT JUMPDEST DUP1 PUSH4 0x4A584432 GT PUSH2 0x37E JUMPI DUP1 PUSH4 0x5EC88C79 GT PUSH2 0x2FB JUMPI DUP1 PUSH4 0x6A56947E GT PUSH2 0x2BF JUMPI DUP1 PUSH4 0x6A56947E EQ PUSH2 0x77F JUMPI DUP1 PUSH4 0x6AA875B5 EQ PUSH2 0x78D JUMPI DUP1 PUSH4 0x6B79C38D EQ PUSH2 0x7AD JUMPI DUP1 PUSH4 0x6D154EA5 EQ PUSH2 0x809 JUMPI DUP1 PUSH4 0x6D35BF91 EQ PUSH2 0x82C JUMPI PUSH1 0x0 DUP1 REVERT JUMPDEST DUP1 PUSH4 0x5EC88C79 EQ PUSH2 0x720 JUMPI DUP1 PUSH4 0x5F5AF1AA EQ PUSH2 0x733 JUMPI DUP1 PUSH4 0x5FC7E71E EQ PUSH2 0x746 JUMPI DUP1 PUSH4 0x607EF6C1 EQ PUSH2 0x759 JUMPI DUP1 PUSH4 0x6810DFA6 EQ PUSH2 0x76C JUMPI PUSH1 0x0 DUP1 REVERT JUMPDEST DUP1 PUSH4 0x51DFF989 GT PUSH2 0x342 JUMPI DUP1 PUSH4 0x51DFF989 EQ PUSH2 0x6C1 JUMPI DUP1 PUSH4 0x52D84D1E EQ PUSH2 0x6D4 JUMPI DUP1 PUSH4 0x55EE1FE1 EQ PUSH2 0x6E7 JUMPI DUP1 PUSH4 0x598EE1CB EQ PUSH2 0x6FA JUMPI DUP1 PUSH4 0x5C778605 EQ PUSH2 0x70D JUMPI PUSH1 0x0 DUP1 REVERT JUMPDEST DUP1 PUSH4 0x4A584432 EQ PUSH2 0x644 JUMPI DUP1 PUSH4 0x4ADA90AF EQ PUSH2 0x664 JUMPI DUP1 PUSH4 0x4E79238F EQ PUSH2 0x66D JUMPI DUP1 PUSH4 0x4EF4C3E1 EQ PUSH2 0x69B JUMPI DUP1 PUSH4 0x4FD42E17 EQ PUSH2 0x6AE JUMPI PUSH1 0x0 DUP1 REVERT JUMPDEST DUP1 PUSH4 0x26782247 GT PUSH2 0x40C JUMPI DUP1 PUSH4 0x3BCF7EC1 GT PUSH2 0x3D0 JUMPI DUP1 PUSH4 0x3BCF7EC1 EQ PUSH2 0x5ED JUMPI DUP1 PUSH4 0x3C94786F EQ PUSH2 0x600 JUMPI DUP1 PUSH4 0x41C728B9 EQ PUSH2 0x614 JUMPI DUP1 PUSH4 0x42CBB15C EQ PUSH2 0x628 JUMPI DUP1 PUSH4 0x47EF3B3B EQ PUSH2 0x62E JUMPI PUSH1 0x0 DUP1 REVERT JUMPDEST DUP1 PUSH4 0x26782247 EQ PUSH2 0x58E JUMPI DUP1 PUSH4 0x27EFE3CB EQ PUSH2 0x5A1 JUMPI DUP1 PUSH4 0x2D70DB78 EQ PUSH2 0x5B4 JUMPI DUP1 PUSH4 0x317B0B77 EQ PUSH2 0x5C7 JUMPI DUP1 PUSH4 0x391957D7 EQ PUSH2 0x5DA JUMPI PUSH1 0x0 DUP1 REVERT JUMPDEST DUP1 PUSH4 0x1D7B33D7 GT PUSH2 0x453 JUMPI DUP1 PUSH4 0x1D7B33D7 EQ PUSH2 0x4FA JUMPI DUP1 PUSH4 0x1EDEDC91 EQ PUSH2 0x528 JUMPI DUP1 PUSH4 0x21AF4569 EQ PUSH2 0x53D JUMPI DUP1 PUSH4 0x24008A62 EQ PUSH2 0x568 JUMPI DUP1 PUSH4 0x24A3D622 EQ PUSH2 0x57B JUMPI PUSH1 0x0 DUP1 REVERT JUMPDEST DUP1 PUSH3 0x7E3DD2 EQ PUSH2 0x48F JUMPI DUP1 PUSH4 0x16B95E8F EQ PUSH2 0x4AC JUMPI DUP1 PUSH4 0x18C882A5 EQ PUSH2 0x4C1 JUMPI DUP1 PUSH4 0x1C3DB2E0 EQ PUSH2 0x4D4 JUMPI DUP1 PUSH4 0x1D504DC6 EQ PUSH2 0x4E7 JUMPI JUMPDEST PUSH1 0x0 DUP1 REVERT JUMPDEST PUSH2 0x497 PUSH1 0x1 DUP2 JUMP JUMPDEST PUSH1 0x40 MLOAD SWAP1 ISZERO ISZERO DUP2 MSTORE PUSH1 0x20 ADD JUMPDEST PUSH1 0x40 MLOAD DUP1 SWAP2 SUB SWAP1 RETURN JUMPDEST PUSH2 0x4BF PUSH2 0x4BA CALLDATASIZE PUSH1 0x4 PUSH2 0x4A3C JUMP JUMPDEST PUSH2 0xC7D JUMP JUMPDEST STOP JUMPDEST PUSH2 0x497 PUSH2 0x4CF CALLDATASIZE PUSH1 0x4 PUSH2 0x4ACB JUMP JUMPDEST PUSH2 0xF26 JUMP JUMPDEST PUSH2 0x4BF PUSH2 0x4E2 CALLDATASIZE PUSH1 0x4 PUSH2 0x4BE3 JUMP JUMPDEST PUSH2 0x105F JUMP JUMPDEST PUSH2 0x4BF PUSH2 0x4F5 CALLDATASIZE PUSH1 0x4 PUSH2 0x4C33 JUMP JUMPDEST PUSH2 0x10C2 JUMP JUMPDEST PUSH2 0x51A PUSH2 0x508 CALLDATASIZE PUSH1 0x4 PUSH2 0x4C33 JUMP JUMPDEST PUSH1 0xF PUSH1 0x20 MSTORE PUSH1 0x0 SWAP1 DUP2 MSTORE PUSH1 0x40 SWAP1 KECCAK256 SLOAD DUP2 JUMP JUMPDEST PUSH1 0x40 MLOAD SWAP1 DUP2 MSTORE PUSH1 0x20 ADD PUSH2 0x4A3 JUMP JUMPDEST PUSH2 0x4BF PUSH2 0x536 CALLDATASIZE PUSH1 0x4 PUSH2 0x4C50 JUMP JUMPDEST POP POP POP POP POP JUMP JUMPDEST PUSH1 0x15 SLOAD PUSH2 0x550 SWAP1 PUSH1 0x1 PUSH1 0x1 PUSH1 0xA0 SHL SUB AND DUP2 JUMP JUMPDEST PUSH1 0x40 MLOAD PUSH1 0x1 PUSH1 0x1 PUSH1 0xA0 SHL SUB SWAP1 SWAP2 AND DUP2 MSTORE PUSH1 0x20 ADD PUSH2 0x4A3 JUMP JUMPDEST PUSH2 0x51A PUSH2 0x576 CALLDATASIZE PUSH1 0x4 PUSH2 0x4CAB JUMP JUMPDEST PUSH2 0x1240 JUMP JUMPDEST PUSH1 0xA SLOAD PUSH2 0x550 SWAP1 PUSH1 0x1 PUSH1 0x1 PUSH1 0xA0 SHL SUB AND DUP2 JUMP JUMPDEST PUSH1 0x1 SLOAD PUSH2 0x550 SWAP1 PUSH1 0x1 PUSH1 0x1 PUSH1 0xA0 SHL SUB AND DUP2 JUMP JUMPDEST PUSH2 0x4BF PUSH2 0x5AF CALLDATASIZE PUSH1 0x4 PUSH2 0x4CFC JUMP JUMPDEST PUSH2 0x12FE JUMP JUMPDEST PUSH2 0x497 PUSH2 0x5C2 CALLDATASIZE PUSH1 0x4 PUSH2 0x4D28 JUMP JUMPDEST PUSH2 0x13F5 JUMP JUMPDEST PUSH2 0x51A PUSH2 0x5D5 CALLDATASIZE PUSH1 0x4 PUSH2 0x4D45 JUMP JUMPDEST PUSH2 0x14E5 JUMP JUMPDEST PUSH2 0x4BF PUSH2 0x5E8 CALLDATASIZE PUSH1 0x4 PUSH2 0x4C33 JUMP JUMPDEST PUSH2 0x158C JUMP JUMPDEST PUSH2 0x497 PUSH2 0x5FB CALLDATASIZE PUSH1 0x4 PUSH2 0x4ACB JUMP JUMPDEST PUSH2 0x1656 JUMP JUMPDEST PUSH1 0xA SLOAD PUSH2 0x497 SWAP1 PUSH1 0x1 PUSH1 0xA0 SHL SWAP1 DIV PUSH1 0xFF AND DUP2 JUMP JUMPDEST PUSH2 0x4BF PUSH2 0x622 CALLDATASIZE PUSH1 0x4 PUSH2 0x4D5E JUMP JUMPDEST POP POP POP POP JUMP JUMPDEST NUMBER PUSH2 0x51A JUMP JUMPDEST PUSH2 0x4BF PUSH2 0x63C CALLDATASIZE PUSH1 0x4 PUSH2 0x4DA4 JUMP JUMPDEST POP POP POP POP POP POP JUMP JUMPDEST PUSH2 0x51A PUSH2 0x652 CALLDATASIZE PUSH1 0x4 PUSH2 0x4C33 JUMP JUMPDEST PUSH1 0x16 PUSH1 0x20 MSTORE PUSH1 0x0 SWAP1 DUP2 MSTORE PUSH1 0x40 SWAP1 KECCAK256 SLOAD DUP2 JUMP JUMPDEST PUSH2 0x51A PUSH1 0x6 SLOAD DUP2 JUMP JUMPDEST PUSH2 0x680 PUSH2 0x67B CALLDATASIZE PUSH1 0x4 PUSH2 0x4D5E JUMP JUMPDEST PUSH2 0x1780 JUMP JUMPDEST PUSH1 0x40 DUP1 MLOAD SWAP4 DUP5 MSTORE PUSH1 0x20 DUP5 ADD SWAP3 SWAP1 SWAP3 MSTORE SWAP1 DUP3 ADD MSTORE PUSH1 0x60 ADD PUSH2 0x4A3 JUMP JUMPDEST PUSH2 0x51A PUSH2 0x6A9 CALLDATASIZE PUSH1 0x4 PUSH2 0x4E12 JUMP JUMPDEST PUSH2 0x17C0 JUMP JUMPDEST PUSH2 0x51A PUSH2 0x6BC CALLDATASIZE PUSH1 0x4 PUSH2 0x4D45 JUMP JUMPDEST PUSH2 0x1861 JUMP JUMPDEST PUSH2 0x4BF PUSH2 0x6CF CALLDATASIZE PUSH1 0x4 PUSH2 0x4D5E JUMP JUMPDEST PUSH2 0x18BE JUMP JUMPDEST PUSH2 0x550 PUSH2 0x6E2 CALLDATASIZE PUSH1 0x4 PUSH2 0x4D45 JUMP JUMPDEST PUSH2 0x190D JUMP JUMPDEST PUSH2 0x51A PUSH2 0x6F5 CALLDATASIZE PUSH1 0x4 PUSH2 0x4C33 JUMP JUMPDEST PUSH2 0x1937 JUMP JUMPDEST PUSH2 0x4BF PUSH2 0x708 CALLDATASIZE PUSH1 0x4 PUSH2 0x4CFC JUMP JUMPDEST PUSH2 0x19B0 JUMP JUMPDEST PUSH2 0x4BF PUSH2 0x71B CALLDATASIZE PUSH1 0x4 PUSH2 0x4E12 JUMP JUMPDEST POP POP POP JUMP JUMPDEST PUSH2 0x680 PUSH2 0x72E CALLDATASIZE PUSH1 0x4 PUSH2 0x4C33 JUMP JUMPDEST PUSH2 0x1AA4 JUMP JUMPDEST PUSH2 0x51A PUSH2 0x741 CALLDATASIZE PUSH1 0x4 PUSH2 0x4C33 JUMP JUMPDEST PUSH2 0x1ADF JUMP JUMPDEST PUSH2 0x51A PUSH2 0x754 CALLDATASIZE PUSH1 0x4 PUSH2 0x4E53 JUMP JUMPDEST PUSH2 0x1B58 JUMP JUMPDEST PUSH2 0x4BF PUSH2 0x767 CALLDATASIZE PUSH1 0x4 PUSH2 0x4A3C JUMP JUMPDEST PUSH2 0x1D27 JUMP JUMPDEST PUSH2 0x4BF PUSH2 0x77A CALLDATASIZE PUSH1 0x4 PUSH2 0x4F1B JUMP JUMPDEST PUSH2 0x1F05 JUMP JUMPDEST PUSH2 0x4BF PUSH2 0x622 CALLDATASIZE PUSH1 0x4 PUSH2 0x4CAB JUMP JUMPDEST PUSH2 0x51A PUSH2 0x79B CALLDATASIZE PUSH1 0x4 PUSH2 0x4C33 JUMP JUMPDEST PUSH1 0x1A PUSH1 0x20 MSTORE PUSH1 0x0 SWAP1 DUP2 MSTORE PUSH1 0x40 SWAP1 KECCAK256 SLOAD DUP2 JUMP JUMPDEST PUSH2 0x7E5 PUSH2 0x7BB CALLDATASIZE PUSH1 0x4 PUSH2 0x4C33 JUMP JUMPDEST PUSH1 0x10 PUSH1 0x20 MSTORE PUSH1 0x0 SWAP1 DUP2 MSTORE PUSH1 0x40 SWAP1 KECCAK256 SLOAD PUSH1 0x1 PUSH1 0x1 PUSH1 0xE0 SHL SUB DUP2 AND SWAP1 PUSH1 0x1 PUSH1 0xE0 SHL SWAP1 DIV PUSH4 0xFFFFFFFF AND DUP3 JUMP JUMPDEST PUSH1 0x40 DUP1 MLOAD PUSH1 0x1 PUSH1 0x1 PUSH1 0xE0 SHL SUB SWAP1 SWAP4 AND DUP4 MSTORE PUSH4 0xFFFFFFFF SWAP1 SWAP2 AND PUSH1 0x20 DUP4 ADD MSTORE ADD PUSH2 0x4A3 JUMP JUMPDEST PUSH2 0x497 PUSH2 0x817 CALLDATASIZE PUSH1 0x4 PUSH2 0x4C33 JUMP JUMPDEST PUSH1 0xC PUSH1 0x20 MSTORE PUSH1 0x0 SWAP1 DUP2 MSTORE PUSH1 0x40 SWAP1 KECCAK256 SLOAD PUSH1 0xFF AND DUP2 JUMP JUMPDEST PUSH2 0x4BF PUSH2 0x536 CALLDATASIZE PUSH1 0x4 PUSH2 0x4E53 JUMP JUMPDEST PUSH2 0x497 PUSH2 0x848 CALLDATASIZE PUSH1 0x4 PUSH2 0x4C33 JUMP JUMPDEST PUSH1 0xB PUSH1 0x20 MSTORE PUSH1 0x0 SWAP1 DUP2 MSTORE PUSH1 0x40 SWAP1 KECCAK256 SLOAD PUSH1 0xFF AND DUP2 JUMP JUMPDEST PUSH2 0x4BF PUSH2 0x86B CALLDATASIZE PUSH1 0x4 PUSH2 0x4C33 JUMP JUMPDEST PUSH2 0x218F JUMP JUMPDEST PUSH1 0x4 SLOAD PUSH2 0x550 SWAP1 PUSH1 0x1 PUSH1 0x1 PUSH1 0xA0 SHL SUB AND DUP2 JUMP JUMPDEST PUSH2 0x51A PUSH2 0x891 CALLDATASIZE PUSH1 0x4 PUSH2 0x4C33 JUMP JUMPDEST PUSH1 0x1C PUSH1 0x20 MSTORE PUSH1 0x0 SWAP1 DUP2 MSTORE PUSH1 0x40 SWAP1 KECCAK256 SLOAD DUP2 JUMP JUMPDEST PUSH1 0xA SLOAD PUSH2 0x497 SWAP1 PUSH1 0x1 PUSH1 0xB0 SHL SWAP1 DIV PUSH1 0xFF AND DUP2 JUMP JUMPDEST PUSH2 0x7E5 PUSH2 0x8C5 CALLDATASIZE PUSH1 0x4 PUSH2 0x4C33 JUMP JUMPDEST PUSH1 0x11 PUSH1 0x20 MSTORE PUSH1 0x0 SWAP1 DUP2 MSTORE PUSH1 0x40 SWAP1 KECCAK256 SLOAD PUSH1 0x1 PUSH1 0x1 PUSH1 0xE0 SHL SUB DUP2 AND SWAP1 PUSH1 0x1 PUSH1 0xE0 SHL SWAP1 DIV PUSH4 0xFFFFFFFF AND DUP3 JUMP JUMPDEST PUSH2 0x923 PUSH2 0x8FD CALLDATASIZE PUSH1 0x4 PUSH2 0x4C33 JUMP JUMPDEST PUSH1 0x9 PUSH1 0x20 MSTORE PUSH1 0x0 SWAP1 DUP2 MSTORE PUSH1 0x40 SWAP1 KECCAK256 DUP1 SLOAD PUSH1 0x1 DUP3 ADD SLOAD PUSH1 0x3 SWAP1 SWAP3 ADD SLOAD PUSH1 0xFF SWAP2 DUP3 AND SWAP3 SWAP2 AND DUP4 JUMP JUMPDEST PUSH1 0x40 DUP1 MLOAD SWAP4 ISZERO ISZERO DUP5 MSTORE PUSH1 0x20 DUP5 ADD SWAP3 SWAP1 SWAP3 MSTORE ISZERO ISZERO SWAP1 DUP3 ADD MSTORE PUSH1 0x60 ADD PUSH2 0x4A3 JUMP JUMPDEST PUSH2 0x497 PUSH2 0x950 CALLDATASIZE PUSH1 0x4 PUSH2 0x4D28 JUMP JUMPDEST PUSH2 0x223B JUMP JUMPDEST PUSH2 0x497 PUSH2 0x963 CALLDATASIZE PUSH1 0x4 PUSH2 0x4FA4 JUMP JUMPDEST PUSH1 0x1 PUSH1 0x1 PUSH1 0xA0 SHL SUB DUP1 DUP3 AND PUSH1 0x0 SWAP1 DUP2 MSTORE PUSH1 0x9 PUSH1 0x20 SWAP1 DUP2 MSTORE PUSH1 0x40 DUP1 DUP4 KECCAK256 SWAP4 DUP7 AND DUP4 MSTORE PUSH1 0x2 SWAP1 SWAP4 ADD SWAP1 MSTORE KECCAK256 SLOAD PUSH1 0xFF AND SWAP3 SWAP2 POP POP JUMP JUMPDEST PUSH2 0x497 PUSH2 0x9A4 CALLDATASIZE PUSH1 0x4 PUSH2 0x4C33 JUMP JUMPDEST PUSH2 0x2322 JUMP JUMPDEST PUSH2 0x51A PUSH1 0x7 SLOAD DUP2 JUMP JUMPDEST PUSH2 0x51A PUSH2 0x9C0 CALLDATASIZE PUSH1 0x4 PUSH2 0x4C33 JUMP JUMPDEST PUSH1 0x17 PUSH1 0x20 MSTORE PUSH1 0x0 SWAP1 DUP2 MSTORE PUSH1 0x40 SWAP1 KECCAK256 SLOAD DUP2 JUMP JUMPDEST PUSH20 0xC00E94CB662C3520282E6F5717214004A7F26888 PUSH2 0x550 JUMP JUMPDEST PUSH2 0x51A PUSH2 0x9FA CALLDATASIZE PUSH1 0x4 PUSH2 0x4C33 JUMP JUMPDEST PUSH2 0x23E1 JUMP JUMPDEST PUSH2 0xA14 PUSH11 0xC097CE7BC90715B34B9F1 PUSH1 0x24 SHL DUP2 JUMP JUMPDEST PUSH1 0x40 MLOAD PUSH1 0x1 PUSH1 0x1 PUSH1 0xE0 SHL SUB SWAP1 SWAP2 AND DUP2 MSTORE PUSH1 0x20 ADD PUSH2 0x4A3 JUMP JUMPDEST PUSH2 0x4BF PUSH2 0xA3A CALLDATASIZE PUSH1 0x4 PUSH2 0x502D JUMP JUMPDEST PUSH2 0x2513 JUMP JUMPDEST PUSH2 0x51A PUSH1 0xE SLOAD DUP2 JUMP JUMPDEST PUSH2 0xA5B PUSH2 0xA56 CALLDATASIZE PUSH1 0x4 PUSH2 0x4C33 JUMP JUMPDEST PUSH2 0x2648 JUMP JUMPDEST PUSH1 0x40 MLOAD PUSH2 0x4A3 SWAP2 SWAP1 PUSH2 0x50B5 JUMP JUMPDEST PUSH1 0xA SLOAD PUSH2 0x497 SWAP1 PUSH1 0x1 PUSH1 0xB8 SHL SWAP1 DIV PUSH1 0xFF AND DUP2 JUMP JUMPDEST PUSH2 0xA5B PUSH2 0x26BE JUMP JUMPDEST PUSH2 0x51A PUSH2 0xA92 CALLDATASIZE PUSH1 0x4 PUSH2 0x4FA4 JUMP JUMPDEST PUSH1 0x12 PUSH1 0x20 SWAP1 DUP2 MSTORE PUSH1 0x0 SWAP3 DUP4 MSTORE PUSH1 0x40 DUP1 DUP5 KECCAK256 SWAP1 SWAP2 MSTORE SWAP1 DUP3 MSTORE SWAP1 KECCAK256 SLOAD DUP2 JUMP JUMPDEST PUSH1 0x2 SLOAD PUSH2 0x550 SWAP1 PUSH1 0x1 PUSH1 0x1 PUSH1 0xA0 SHL SUB AND DUP2 JUMP JUMPDEST PUSH2 0x51A PUSH2 0xAD0 CALLDATASIZE PUSH1 0x4 PUSH2 0x4CAB JUMP JUMPDEST PUSH2 0x2720 JUMP JUMPDEST PUSH2 0x51A PUSH2 0xAE3 CALLDATASIZE PUSH1 0x4 PUSH2 0x4C33 JUMP JUMPDEST PUSH1 0x18 PUSH1 0x20 MSTORE PUSH1 0x0 SWAP1 DUP2 MSTORE PUSH1 0x40 SWAP1 KECCAK256 SLOAD DUP2 JUMP JUMPDEST PUSH2 0xB08 PUSH2 0xB03 CALLDATASIZE PUSH1 0x4 PUSH2 0x5102 JUMP JUMPDEST PUSH2 0x27AB JUMP JUMPDEST PUSH1 0x40 MLOAD PUSH2 0x4A3 SWAP2 SWAP1 PUSH2 0x5137 JUMP JUMPDEST PUSH2 0xB28 PUSH2 0xB23 CALLDATASIZE PUSH1 0x4 PUSH2 0x4E12 JUMP JUMPDEST PUSH2 0x2873 JUMP JUMPDEST PUSH1 0x40 DUP1 MLOAD SWAP3 DUP4 MSTORE PUSH1 0x20 DUP4 ADD SWAP2 SWAP1 SWAP2 MSTORE ADD PUSH2 0x4A3 JUMP JUMPDEST PUSH2 0x51A PUSH2 0xB4B CALLDATASIZE PUSH1 0x4 PUSH2 0x4FA4 JUMP JUMPDEST PUSH1 0x13 PUSH1 0x20 SWAP1 DUP2 MSTORE PUSH1 0x0 SWAP3 DUP4 MSTORE PUSH1 0x40 DUP1 DUP5 KECCAK256 SWAP1 SWAP2 MSTORE SWAP1 DUP3 MSTORE SWAP1 KECCAK256 SLOAD DUP2 JUMP JUMPDEST PUSH2 0x51A PUSH2 0xB76 CALLDATASIZE PUSH1 0x4 PUSH2 0x4C33 JUMP JUMPDEST PUSH1 0x14 PUSH1 0x20 MSTORE PUSH1 0x0 SWAP1 DUP2 MSTORE PUSH1 0x40 SWAP1 KECCAK256 SLOAD DUP2 JUMP JUMPDEST PUSH2 0x51A PUSH2 0xB96 CALLDATASIZE PUSH1 0x4 PUSH2 0x4E53 JUMP JUMPDEST PUSH2 0x2A91 JUMP JUMPDEST PUSH2 0x51A PUSH2 0xBA9 CALLDATASIZE PUSH1 0x4 PUSH2 0x4E12 JUMP JUMPDEST PUSH2 0x2C38 JUMP JUMPDEST PUSH2 0x550 PUSH2 0xBBC CALLDATASIZE PUSH1 0x4 PUSH2 0x4CFC JUMP JUMPDEST PUSH2 0x3008 JUMP JUMPDEST PUSH1 0x3 SLOAD PUSH2 0x550 SWAP1 PUSH1 0x1 PUSH1 0x1 PUSH1 0xA0 SHL SUB AND DUP2 JUMP JUMPDEST PUSH2 0x51A PUSH2 0xBE2 CALLDATASIZE PUSH1 0x4 PUSH2 0x4CFC JUMP JUMPDEST PUSH2 0x3040 JUMP JUMPDEST PUSH1 0xA SLOAD PUSH2 0x497 SWAP1 PUSH1 0x1 PUSH1 0xA8 SHL SWAP1 DIV PUSH1 0xFF AND DUP2 JUMP JUMPDEST PUSH2 0x51A PUSH1 0x5 SLOAD DUP2 JUMP JUMPDEST PUSH2 0x4BF PUSH2 0xC12 CALLDATASIZE PUSH1 0x4 PUSH2 0x4C33 JUMP JUMPDEST PUSH2 0x31D2 JUMP JUMPDEST PUSH2 0x51A PUSH2 0xC25 CALLDATASIZE PUSH1 0x4 PUSH2 0x4E12 JUMP JUMPDEST PUSH2 0x3236 JUMP JUMPDEST PUSH2 0x51A PUSH2 0xC38 CALLDATASIZE PUSH1 0x4 PUSH2 0x4C33 JUMP JUMPDEST PUSH2 0x3271 JUMP JUMPDEST PUSH1 0x1B SLOAD PUSH2 0x497 SWAP1 PUSH1 0xFF AND DUP2 JUMP JUMPDEST PUSH2 0x51A PUSH2 0xC58 CALLDATASIZE PUSH1 0x4 PUSH2 0x4C33 JUMP JUMPDEST PUSH1 0x19 PUSH1 0x20 MSTORE PUSH1 0x0 SWAP1 DUP2 MSTORE PUSH1 0x40 SWAP1 KECCAK256 SLOAD DUP2 JUMP JUMPDEST PUSH1 0x0 SLOAD PUSH2 0x550 SWAP1 PUSH1 0x1 PUSH1 0x1 PUSH1 0xA0 SHL SUB AND DUP2 JUMP JUMPDEST PUSH1 0x0 SLOAD PUSH1 0x1 PUSH1 0x1 PUSH1 0xA0 SHL SUB AND CALLER EQ PUSH2 0xCE6 JUMPI PUSH1 0x40 MLOAD PUSH3 0x461BCD PUSH1 0xE5 SHL DUP2 MSTORE PUSH1 0x20 PUSH1 0x4 DUP3 ADD MSTORE PUSH1 0x21 PUSH1 0x24 DUP3 ADD MSTORE PUSH32 0x4F6E6C792061646D696E2063616E2063616C6C20746869732066756E6374696F PUSH1 0x44 DUP3 ADD MSTORE PUSH1 0x37 PUSH1 0xF9 SHL PUSH1 0x64 DUP3 ADD MSTORE PUSH1 0x84 ADD JUMPDEST PUSH1 0x40 MLOAD DUP1 SWAP2 SUB SWAP1 REVERT JUMPDEST PUSH1 0x1B SLOAD PUSH1 0xFF AND ISZERO PUSH2 0xD48 JUMPI PUSH1 0x40 MLOAD PUSH3 0x461BCD PUSH1 0xE5 SHL DUP2 MSTORE PUSH1 0x20 PUSH1 0x4 DUP3 ADD MSTORE PUSH1 0x26 PUSH1 0x24 DUP3 ADD MSTORE PUSH32 0x416C72656164792065786563757465642074686973206F6E652D6F6666206675 PUSH1 0x44 DUP3 ADD MSTORE PUSH6 0x3731BA34B7B7 PUSH1 0xD1 SHL PUSH1 0x64 DUP3 ADD MSTORE PUSH1 0x84 ADD PUSH2 0xCDD JUMP JUMPDEST DUP3 DUP2 EQ PUSH2 0xD87 JUMPI PUSH1 0x40 MLOAD PUSH3 0x461BCD PUSH1 0xE5 SHL DUP2 MSTORE PUSH1 0x20 PUSH1 0x4 DUP3 ADD MSTORE PUSH1 0xD PUSH1 0x24 DUP3 ADD MSTORE PUSH13 0x125B9D985B1A59081A5B9C1D5D PUSH1 0x9A SHL PUSH1 0x44 DUP3 ADD MSTORE PUSH1 0x64 ADD PUSH2 0xCDD JUMP JUMPDEST PUSH1 0x0 DUP1 PUSH1 0x0 DUP1 PUSH1 0x0 JUMPDEST DUP8 DUP2 LT ISZERO PUSH2 0xF0E JUMPI DUP9 DUP9 DUP3 DUP2 DUP2 LT PUSH2 0xDAA JUMPI PUSH2 0xDAA PUSH2 0x516F JUMP JUMPDEST SWAP1 POP PUSH1 0x20 MUL ADD PUSH1 0x20 DUP2 ADD SWAP1 PUSH2 0xDBF SWAP2 SWAP1 PUSH2 0x4C33 JUMP JUMPDEST PUSH1 0x1 PUSH1 0x1 PUSH1 0xA0 SHL SUB DUP2 AND PUSH1 0x0 SWAP1 DUP2 MSTORE PUSH1 0x14 PUSH1 0x20 MSTORE PUSH1 0x40 SWAP1 KECCAK256 SLOAD SWAP1 SWAP6 POP SWAP4 POP DUP7 DUP7 DUP3 DUP2 DUP2 LT PUSH2 0xDEF JUMPI PUSH2 0xDEF PUSH2 0x516F JUMP JUMPDEST SWAP1 POP PUSH1 0x20 MUL ADD CALLDATALOAD SWAP3 POP DUP4 DUP4 GT ISZERO PUSH2 0xE93 JUMPI PUSH1 0x0 PUSH2 0xE0C DUP6 DUP6 PUSH2 0x519B JUMP JUMPDEST PUSH1 0x1 PUSH1 0x1 PUSH1 0xA0 SHL SUB DUP8 AND PUSH1 0x0 SWAP1 DUP2 MSTORE PUSH1 0x1C PUSH1 0x20 MSTORE PUSH1 0x40 DUP2 KECCAK256 SLOAD SWAP2 SWAP3 POP PUSH2 0xE32 DUP3 DUP5 PUSH2 0x35D7 JUMP JUMPDEST PUSH1 0x1 PUSH1 0x1 PUSH1 0xA0 SHL SUB DUP10 AND PUSH1 0x0 DUP2 DUP2 MSTORE PUSH1 0x1C PUSH1 0x20 SWAP1 DUP2 MSTORE PUSH1 0x40 SWAP2 DUP3 SWAP1 KECCAK256 DUP5 SWAP1 SSTORE DUP2 MLOAD DUP7 DUP2 MSTORE SWAP1 DUP2 ADD DUP5 SWAP1 MSTORE SWAP3 SWAP4 POP SWAP1 SWAP2 PUSH32 0x17FEA09D9A7CA41B2F9F9118F18F44848A62E9C70D55DD4385131EB2CF1B7E47 SWAP2 ADD PUSH1 0x40 MLOAD DUP1 SWAP2 SUB SWAP1 LOG2 DUP7 SWAP6 POP POP POP POP JUMPDEST DUP3 ISZERO PUSH2 0xEFE JUMPI PUSH2 0xEA3 DUP5 DUP5 PUSH2 0x35E3 JUMP JUMPDEST PUSH1 0x1 PUSH1 0x1 PUSH1 0xA0 SHL SUB DUP7 AND PUSH1 0x0 DUP2 DUP2 MSTORE PUSH1 0x14 PUSH1 0x20 SWAP1 DUP2 MSTORE PUSH1 0x40 SWAP2 DUP3 SWAP1 KECCAK256 DUP5 SWAP1 SSTORE DUP2 MLOAD DUP9 DUP2 MSTORE SWAP1 DUP2 ADD DUP5 SWAP1 MSTORE SWAP3 SWAP5 POP SWAP1 SWAP2 PUSH32 0x4A5C134E28B537A76546993EA37F3B60D9190476DF7356D3842AA40902E20F04 SWAP2 ADD PUSH1 0x40 MLOAD DUP1 SWAP2 SUB SWAP1 LOG2 JUMPDEST PUSH2 0xF07 DUP2 PUSH2 0x51B2 JUMP JUMPDEST SWAP1 POP PUSH2 0xD90 JUMP JUMPDEST POP POP PUSH1 0x1B DUP1 SLOAD PUSH1 0xFF NOT AND PUSH1 0x1 OR SWAP1 SSTORE POP POP POP POP POP POP POP JUMP JUMPDEST PUSH1 0x1 PUSH1 0x1 PUSH1 0xA0 SHL SUB DUP3 AND PUSH1 0x0 SWAP1 DUP2 MSTORE PUSH1 0x9 PUSH1 0x20 MSTORE PUSH1 0x40 DUP2 KECCAK256 SLOAD PUSH1 0xFF AND PUSH2 0xF5E JUMPI PUSH1 0x40 MLOAD PUSH3 0x461BCD PUSH1 0xE5 SHL DUP2 MSTORE PUSH1 0x4 ADD PUSH2 0xCDD SWAP1 PUSH2 0x51CD JUMP JUMPDEST PUSH1 0xA SLOAD PUSH1 0x1 PUSH1 0x1 PUSH1 0xA0 SHL SUB AND CALLER EQ DUP1 PUSH2 0xF81 JUMPI POP PUSH1 0x0 SLOAD PUSH1 0x1 PUSH1 0x1 PUSH1 0xA0 SHL SUB AND CALLER EQ JUMPDEST PUSH2 0xF9D JUMPI PUSH1 0x40 MLOAD PUSH3 0x461BCD PUSH1 0xE5 SHL DUP2 MSTORE PUSH1 0x4 ADD PUSH2 0xCDD SWAP1 PUSH2 0x5215 JUMP JUMPDEST PUSH1 0x0 SLOAD PUSH1 0x1 PUSH1 0x1 PUSH1 0xA0 SHL SUB AND CALLER EQ DUP1 PUSH2 0xFB8 JUMPI POP PUSH1 0x1 DUP3 ISZERO ISZERO EQ JUMPDEST PUSH2 0xFD4 JUMPI PUSH1 0x40 MLOAD PUSH3 0x461BCD PUSH1 0xE5 SHL DUP2 MSTORE PUSH1 0x4 ADD PUSH2 0xCDD SWAP1 PUSH2 0x525C JUMP JUMPDEST PUSH1 0x1 PUSH1 0x1 PUSH1 0xA0 SHL SUB DUP4 AND PUSH1 0x0 DUP2 DUP2 MSTORE PUSH1 0xC PUSH1 0x20 SWAP1 DUP2 MSTORE PUSH1 0x40 SWAP2 DUP3 SWAP1 KECCAK256 DUP1 SLOAD PUSH1 0xFF NOT AND DUP7 ISZERO ISZERO SWAP1 DUP2 OR SWAP1 SWAP2 SSTORE DUP3 MLOAD SWAP4 DUP5 MSTORE PUSH1 0x60 SWAP2 DUP5 ADD DUP3 SWAP1 MSTORE PUSH1 0x6 SWAP2 DUP5 ADD SWAP2 SWAP1 SWAP2 MSTORE PUSH6 0x426F72726F77 PUSH1 0xD0 SHL PUSH1 0x80 DUP5 ADD MSTORE SWAP1 DUP3 ADD MSTORE PUSH32 0x71AEC636243F9709BB0007AE15E9AFB8150AB01716D75FD7573BE5CC096E03B0 SWAP1 PUSH1 0xA0 ADD JUMPDEST PUSH1 0x40 MLOAD DUP1 SWAP2 SUB SWAP1 LOG1 POP DUP1 JUMPDEST SWAP3 SWAP2 POP POP JUMP JUMPDEST PUSH1 0x40 DUP1 MLOAD PUSH1 0x1 DUP1 DUP3 MSTORE DUP2 DUP4 ADD SWAP1 SWAP3 MSTORE PUSH1 0x0 SWAP2 PUSH1 0x20 DUP1 DUP4 ADD SWAP1 DUP1 CALLDATASIZE DUP4 CALLDATACOPY ADD SWAP1 POP POP SWAP1 POP DUP3 DUP2 PUSH1 0x0 DUP2 MLOAD DUP2 LT PUSH2 0x1095 JUMPI PUSH2 0x1095 PUSH2 0x516F JUMP JUMPDEST PUSH1 0x20 MUL PUSH1 0x20 ADD ADD SWAP1 PUSH1 0x1 PUSH1 0x1 PUSH1 0xA0 SHL SUB AND SWAP1 DUP2 PUSH1 0x1 PUSH1 0x1 PUSH1 0xA0 SHL SUB AND DUP2 MSTORE POP POP PUSH2 0x71B DUP2 DUP4 PUSH1 0x1 DUP1 PUSH2 0x1F05 JUMP JUMPDEST DUP1 PUSH1 0x1 PUSH1 0x1 PUSH1 0xA0 SHL SUB AND PUSH4 0xF851A440 PUSH1 0x40 MLOAD DUP2 PUSH4 0xFFFFFFFF AND PUSH1 0xE0 SHL DUP2 MSTORE PUSH1 0x4 ADD PUSH1 0x20 PUSH1 0x40 MLOAD DUP1 DUP4 SUB DUP2 DUP7 GAS STATICCALL ISZERO DUP1 ISZERO PUSH2 0x1100 JUMPI RETURNDATASIZE PUSH1 0x0 DUP1 RETURNDATACOPY RETURNDATASIZE PUSH1 0x0 REVERT JUMPDEST POP POP POP POP PUSH1 0x40 MLOAD RETURNDATASIZE PUSH1 0x1F NOT PUSH1 0x1F DUP3 ADD AND DUP3 ADD DUP1 PUSH1 0x40 MSTORE POP DUP2 ADD SWAP1 PUSH2 0x1124 SWAP2 SWAP1 PUSH2 0x528C JUMP JUMPDEST PUSH1 0x1 PUSH1 0x1 PUSH1 0xA0 SHL SUB AND CALLER PUSH1 0x1 PUSH1 0x1 PUSH1 0xA0 SHL SUB AND EQ PUSH2 0x1194 JUMPI PUSH1 0x40 MLOAD PUSH3 0x461BCD PUSH1 0xE5 SHL DUP2 MSTORE PUSH1 0x20 PUSH1 0x4 DUP3 ADD MSTORE PUSH1 0x27 PUSH1 0x24 DUP3 ADD MSTORE PUSH32 0x6F6E6C7920756E6974726F6C6C65722061646D696E2063616E206368616E6765 PUSH1 0x44 DUP3 ADD MSTORE PUSH7 0x20627261696E73 PUSH1 0xC8 SHL PUSH1 0x64 DUP3 ADD MSTORE PUSH1 0x84 ADD PUSH2 0xCDD JUMP JUMPDEST DUP1 PUSH1 0x1 PUSH1 0x1 PUSH1 0xA0 SHL SUB AND PUSH4 0xC1E80334 PUSH1 0x40 MLOAD DUP2 PUSH4 0xFFFFFFFF AND PUSH1 0xE0 SHL DUP2 MSTORE PUSH1 0x4 ADD PUSH1 0x20 PUSH1 0x40 MLOAD DUP1 DUP4 SUB DUP2 PUSH1 0x0 DUP8 GAS CALL ISZERO DUP1 ISZERO PUSH2 0x11D4 JUMPI RETURNDATASIZE PUSH1 0x0 DUP1 RETURNDATACOPY RETURNDATASIZE PUSH1 0x0 REVERT JUMPDEST POP POP POP POP PUSH1 0x40 MLOAD RETURNDATASIZE PUSH1 0x1F NOT PUSH1 0x1F DUP3 ADD AND DUP3 ADD DUP1 PUSH1 0x40 MSTORE POP DUP2 ADD SWAP1 PUSH2 0x11F8 SWAP2 SWAP1 PUSH2 0x52A9 JUMP JUMPDEST ISZERO PUSH2 0x123D JUMPI PUSH1 0x40 MLOAD PUSH3 0x461BCD PUSH1 0xE5 SHL DUP2 MSTORE PUSH1 0x20 PUSH1 0x4 DUP3 ADD MSTORE PUSH1 0x15 PUSH1 0x24 DUP3 ADD MSTORE PUSH21 0x18DA185B99D9481B9BDD08185D5D1A1BDC9A5E9959 PUSH1 0x5A SHL PUSH1 0x44 DUP3 ADD MSTORE PUSH1 0x64 ADD PUSH2 0xCDD JUMP JUMPDEST POP JUMP JUMPDEST PUSH1 0x1 PUSH1 0x1 PUSH1 0xA0 SHL SUB DUP5 AND PUSH1 0x0 SWAP1 DUP2 MSTORE PUSH1 0x9 PUSH1 0x20 MSTORE PUSH1 0x40 DUP2 KECCAK256 SLOAD PUSH1 0xFF AND PUSH2 0x1268 JUMPI POP PUSH1 0x9 PUSH2 0x12F6 JUMP JUMPDEST PUSH1 0x0 PUSH1 0x40 MLOAD DUP1 PUSH1 0x20 ADD PUSH1 0x40 MSTORE DUP1 DUP8 PUSH1 0x1 PUSH1 0x1 PUSH1 0xA0 SHL SUB AND PUSH4 0xAA5AF0FD PUSH1 0x40 MLOAD DUP2 PUSH4 0xFFFFFFFF AND PUSH1 0xE0 SHL DUP2 MSTORE PUSH1 0x4 ADD PUSH1 0x20 PUSH1 0x40 MLOAD DUP1 DUP4 SUB DUP2 DUP7 GAS STATICCALL ISZERO DUP1 ISZERO PUSH2 0x12B3 JUMPI RETURNDATASIZE PUSH1 0x0 DUP1 RETURNDATACOPY RETURNDATASIZE PUSH1 0x0 REVERT JUMPDEST POP POP POP POP PUSH1 0x40 MLOAD RETURNDATASIZE PUSH1 0x1F NOT PUSH1 0x1F DUP3 ADD AND DUP3 ADD DUP1 PUSH1 0x40 MSTORE POP DUP2 ADD SWAP1 PUSH2 0x12D7 SWAP2 SWAP1 PUSH2 0x52A9 JUMP JUMPDEST SWAP1 MSTORE SWAP1 POP PUSH2 0x12E5 DUP7 DUP3 PUSH2 0x35EF JUMP JUMPDEST PUSH2 0x12F0 DUP7 DUP6 DUP4 PUSH2 0x37E2 JUMP JUMPDEST PUSH1 0x0 SWAP2 POP POP JUMPDEST SWAP5 SWAP4 POP POP POP POP JUMP JUMPDEST PUSH2 0x1306 PUSH2 0x3962 JUMP JUMPDEST PUSH2 0x1352 JUMPI PUSH1 0x40 MLOAD PUSH3 0x461BCD PUSH1 0xE5 SHL DUP2 MSTORE PUSH1 0x20 PUSH1 0x4 DUP3 ADD MSTORE PUSH1 0x19 PUSH1 0x24 DUP3 ADD MSTORE PUSH32 0x6F6E6C792061646D696E2063616E206772616E7420636F6D7000000000000000 PUSH1 0x44 DUP3 ADD MSTORE PUSH1 0x64 ADD PUSH2 0xCDD JUMP JUMPDEST PUSH1 0x0 PUSH2 0x135E DUP4 DUP4 PUSH2 0x398B JUMP JUMPDEST SWAP1 POP DUP1 ISZERO PUSH2 0x13AE JUMPI PUSH1 0x40 MLOAD PUSH3 0x461BCD PUSH1 0xE5 SHL DUP2 MSTORE PUSH1 0x20 PUSH1 0x4 DUP3 ADD MSTORE PUSH1 0x1B PUSH1 0x24 DUP3 ADD MSTORE PUSH32 0x696E73756666696369656E7420636F6D7020666F72206772616E740000000000 PUSH1 0x44 DUP3 ADD MSTORE PUSH1 0x64 ADD PUSH2 0xCDD JUMP JUMPDEST PUSH1 0x40 DUP1 MLOAD PUSH1 0x1 PUSH1 0x1 PUSH1 0xA0 SHL SUB DUP6 AND DUP2 MSTORE PUSH1 0x20 DUP2 ADD DUP5 SWAP1 MSTORE PUSH32 0x98B2F82A3A07F223A0BE64B3D0F47711C64DCCD1FEAFB94AA28156B38CD9695C SWAP2 ADD PUSH1 0x40 MLOAD DUP1 SWAP2 SUB SWAP1 LOG1 POP POP POP JUMP JUMPDEST PUSH1 0xA SLOAD PUSH1 0x0 SWAP1 PUSH1 0x1 PUSH1 0x1 PUSH1 0xA0 SHL SUB AND CALLER EQ DUP1 PUSH2 0x141B JUMPI POP PUSH1 0x0 SLOAD PUSH1 0x1 PUSH1 0x1 PUSH1 0xA0 SHL SUB AND CALLER EQ JUMPDEST PUSH2 0x1437 JUMPI PUSH1 0x40 MLOAD PUSH3 0x461BCD PUSH1 0xE5 SHL DUP2 MSTORE PUSH1 0x4 ADD PUSH2 0xCDD SWAP1 PUSH2 0x5215 JUMP JUMPDEST PUSH1 0x0 SLOAD PUSH1 0x1 PUSH1 0x1 PUSH1 0xA0 SHL SUB AND CALLER EQ DUP1 PUSH2 0x1452 JUMPI POP PUSH1 0x1 DUP3 ISZERO ISZERO EQ JUMPDEST PUSH2 0x146E JUMPI PUSH1 0x40 MLOAD PUSH3 0x461BCD PUSH1 0xE5 SHL DUP2 MSTORE PUSH1 0x4 ADD PUSH2 0xCDD SWAP1 PUSH2 0x525C JUMP JUMPDEST PUSH1 0xA DUP1 SLOAD DUP4 ISZERO ISZERO PUSH1 0x1 PUSH1 0xB8 SHL MUL PUSH1 0xFF PUSH1 0xB8 SHL NOT SWAP1 SWAP2 AND OR SWAP1 SSTORE PUSH1 0x40 MLOAD PUSH32 0xEF159D9A32B2472E32B098F954F3CE62D232939F1C207070B584DF1814DE2DE0 SWAP1 PUSH2 0x14D9 SWAP1 DUP5 SWAP1 PUSH1 0x40 DUP1 DUP3 MSTORE PUSH1 0x5 SWAP1 DUP3 ADD MSTORE PUSH5 0x5365697A65 PUSH1 0xD8 SHL PUSH1 0x60 DUP3 ADD MSTORE SWAP1 ISZERO ISZERO PUSH1 0x20 DUP3 ADD MSTORE PUSH1 0x80 ADD SWAP1 JUMP JUMPDEST PUSH1 0x40 MLOAD DUP1 SWAP2 SUB SWAP1 LOG1 POP SWAP1 JUMP JUMPDEST PUSH1 0x0 DUP1 SLOAD PUSH1 0x1 PUSH1 0x1 PUSH1 0xA0 SHL SUB AND CALLER EQ PUSH2 0x1540 JUMPI PUSH1 0x40 MLOAD PUSH3 0x461BCD PUSH1 0xE5 SHL DUP2 MSTORE PUSH1 0x20 PUSH1 0x4 DUP3 ADD MSTORE PUSH1 0x1F PUSH1 0x24 DUP3 ADD MSTORE PUSH32 0x6F6E6C792061646D696E2063616E2073657420636C6F736520666163746F7200 PUSH1 0x44 DUP3 ADD MSTORE PUSH1 0x64 ADD PUSH2 0xCDD JUMP JUMPDEST PUSH1 0x5 DUP1 SLOAD SWAP1 DUP4 SWAP1 SSTORE PUSH1 0x40 DUP1 MLOAD DUP3 DUP2 MSTORE PUSH1 0x20 DUP2 ADD DUP6 SWAP1 MSTORE PUSH32 0x3B9670CF975D26958E754B57098EAA2AC914D8D2A31B83257997B9F346110FD9 SWAP2 ADD JUMPDEST PUSH1 0x40 MLOAD DUP1 SWAP2 SUB SWAP1 LOG1 PUSH1 0x0 JUMPDEST SWAP4 SWAP3 POP POP POP JUMP JUMPDEST PUSH1 0x0 SLOAD PUSH1 0x1 PUSH1 0x1 PUSH1 0xA0 SHL SUB AND CALLER EQ PUSH2 0x15F5 JUMPI PUSH1 0x40 MLOAD PUSH3 0x461BCD PUSH1 0xE5 SHL DUP2 MSTORE PUSH1 0x20 PUSH1 0x4 DUP3 ADD MSTORE PUSH1 0x26 PUSH1 0x24 DUP3 ADD MSTORE PUSH32 0x6F6E6C792061646D696E2063616E2073657420626F72726F7720636170206775 PUSH1 0x44 DUP3 ADD MSTORE PUSH6 0x30B93234B0B7 PUSH1 0xD1 SHL PUSH1 0x64 DUP3 ADD MSTORE PUSH1 0x84 ADD PUSH2 0xCDD JUMP JUMPDEST PUSH1 0x15 DUP1 SLOAD PUSH1 0x1 PUSH1 0x1 PUSH1 0xA0 SHL SUB DUP4 DUP2 AND PUSH1 0x1 PUSH1 0x1 PUSH1 0xA0 SHL SUB NOT DUP4 AND DUP2 OR SWAP1 SWAP4 SSTORE PUSH1 0x40 DUP1 MLOAD SWAP2 SWAP1 SWAP3 AND DUP1 DUP3 MSTORE PUSH1 0x20 DUP3 ADD SWAP4 SWAP1 SWAP4 MSTORE PUSH32 0xEDA98690E518E9A05F8EC6837663E188211B2DA8F4906648B323F2C1D4434E29 SWAP2 ADD PUSH1 0x40 MLOAD DUP1 SWAP2 SUB SWAP1 LOG1 POP POP JUMP JUMPDEST PUSH1 0x1 PUSH1 0x1 PUSH1 0xA0 SHL SUB DUP3 AND PUSH1 0x0 SWAP1 DUP2 MSTORE PUSH1 0x9 PUSH1 0x20 MSTORE PUSH1 0x40 DUP2 KECCAK256 SLOAD PUSH1 0xFF AND PUSH2 0x168E JUMPI PUSH1 0x40 MLOAD PUSH3 0x461BCD PUSH1 0xE5 SHL DUP2 MSTORE PUSH1 0x4 ADD PUSH2 0xCDD SWAP1 PUSH2 0x51CD JUMP JUMPDEST PUSH1 0xA SLOAD PUSH1 0x1 PUSH1 0x1 PUSH1 0xA0 SHL SUB AND CALLER EQ DUP1 PUSH2 0x16B1 JUMPI POP PUSH1 0x0 SLOAD PUSH1 0x1 PUSH1 0x1 PUSH1 0xA0 SHL SUB AND CALLER EQ JUMPDEST PUSH2 0x16CD JUMPI PUSH1 0x40 MLOAD PUSH3 0x461BCD PUSH1 0xE5 SHL DUP2 MSTORE PUSH1 0x4 ADD PUSH2 0xCDD SWAP1 PUSH2 0x5215 JUMP JUMPDEST PUSH1 0x0 SLOAD PUSH1 0x1 PUSH1 0x1 PUSH1 0xA0 SHL SUB AND CALLER EQ DUP1 PUSH2 0x16E8 JUMPI POP PUSH1 0x1 DUP3 ISZERO ISZERO EQ JUMPDEST PUSH2 0x1704 JUMPI PUSH1 0x40 MLOAD PUSH3 0x461BCD PUSH1 0xE5 SHL DUP2 MSTORE PUSH1 0x4 ADD PUSH2 0xCDD SWAP1 PUSH2 0x525C JUMP JUMPDEST PUSH1 0x1 PUSH1 0x1 PUSH1 0xA0 SHL SUB DUP4 AND PUSH1 0x0 DUP2 DUP2 MSTORE PUSH1 0xB PUSH1 0x20 SWAP1 DUP2 MSTORE PUSH1 0x40 SWAP2 DUP3 SWAP1 KECCAK256 DUP1 SLOAD PUSH1 0xFF NOT AND DUP7 ISZERO ISZERO SWAP1 DUP2 OR SWAP1 SWAP2 SSTORE DUP3 MLOAD SWAP4 DUP5 MSTORE PUSH1 0x60 SWAP2 DUP5 ADD DUP3 SWAP1 MSTORE PUSH1 0x4 SWAP2 DUP5 ADD SWAP2 SWAP1 SWAP2 MSTORE PUSH4 0x135A5B9D PUSH1 0xE2 SHL PUSH1 0x80 DUP5 ADD MSTORE SWAP1 DUP3 ADD MSTORE PUSH32 0x71AEC636243F9709BB0007AE15E9AFB8150AB01716D75FD7573BE5CC096E03B0 SWAP1 PUSH1 0xA0 ADD PUSH2 0x104E JUMP JUMPDEST PUSH1 0x0 DUP1 PUSH1 0x0 DUP1 PUSH1 0x0 DUP1 PUSH2 0x1795 DUP11 DUP11 DUP11 DUP11 PUSH2 0x3AB0 JUMP JUMPDEST SWAP3 POP SWAP3 POP SWAP3 POP DUP3 PUSH1 0x11 DUP2 GT ISZERO PUSH2 0x17AD JUMPI PUSH2 0x17AD PUSH2 0x52C2 JUMP JUMPDEST SWAP6 POP SWAP1 SWAP4 POP SWAP2 POP POP JUMPDEST SWAP5 POP SWAP5 POP SWAP5 SWAP2 POP POP JUMP JUMPDEST PUSH1 0x1 PUSH1 0x1 PUSH1 0xA0 SHL SUB DUP4 AND PUSH1 0x0 SWAP1 DUP2 MSTORE PUSH1 0xB PUSH1 0x20 MSTORE PUSH1 0x40 DUP2 KECCAK256 SLOAD PUSH1 0xFF AND ISZERO PUSH2 0x181A JUMPI PUSH1 0x40 MLOAD PUSH3 0x461BCD PUSH1 0xE5 SHL DUP2 MSTORE PUSH1 0x20 PUSH1 0x4 DUP3 ADD MSTORE PUSH1 0xE PUSH1 0x24 DUP3 ADD MSTORE PUSH14 0x1B5A5B9D081A5CC81C185D5CD959 PUSH1 0x92 SHL PUSH1 0x44 DUP3 ADD MSTORE PUSH1 0x64 ADD PUSH2 0xCDD JUMP JUMPDEST PUSH1 0x1 PUSH1 0x1 PUSH1 0xA0 SHL SUB DUP5 AND PUSH1 0x0 SWAP1 DUP2 MSTORE PUSH1 0x9 PUSH1 0x20 MSTORE PUSH1 0x40 SWAP1 KECCAK256 SLOAD PUSH1 0xFF AND PUSH2 0x1844 JUMPI PUSH1 0x9 JUMPDEST SWAP1 POP PUSH2 0x1585 JUMP JUMPDEST PUSH2 0x184D DUP5 PUSH2 0x3DDE JUMP JUMPDEST PUSH2 0x1857 DUP5 DUP5 PUSH2 0x3F56 JUMP JUMPDEST PUSH1 0x0 SWAP5 SWAP4 POP POP POP POP JUMP JUMPDEST PUSH1 0x0 DUP1 SLOAD PUSH1 0x1 PUSH1 0x1 PUSH1 0xA0 SHL SUB AND CALLER EQ PUSH2 0x1880 JUMPI PUSH2 0x1059 PUSH1 0x1 PUSH1 0xB PUSH2 0x40F4 JUMP JUMPDEST PUSH1 0x6 DUP1 SLOAD SWAP1 DUP4 SWAP1 SSTORE PUSH1 0x40 DUP1 MLOAD DUP3 DUP2 MSTORE PUSH1 0x20 DUP2 ADD DUP6 SWAP1 MSTORE PUSH32 0xAEBA5A6C40A8AC138134BFF1AAA65DEBF25971188A58804BAD717F82F0EC1316 SWAP2 ADD PUSH2 0x157A JUMP JUMPDEST DUP1 ISZERO DUP1 ISZERO PUSH2 0x18CC JUMPI POP PUSH1 0x0 DUP3 GT JUMPDEST ISZERO PUSH2 0x622 JUMPI PUSH1 0x40 MLOAD PUSH3 0x461BCD PUSH1 0xE5 SHL DUP2 MSTORE PUSH1 0x20 PUSH1 0x4 DUP3 ADD MSTORE PUSH1 0x11 PUSH1 0x24 DUP3 ADD MSTORE PUSH17 0x72656465656D546F6B656E73207A65726F PUSH1 0x78 SHL PUSH1 0x44 DUP3 ADD MSTORE PUSH1 0x64 ADD PUSH2 0xCDD JUMP JUMPDEST PUSH1 0xD DUP2 DUP2 SLOAD DUP2 LT PUSH2 0x191D JUMPI PUSH1 0x0 DUP1 REVERT JUMPDEST PUSH1 0x0 SWAP2 DUP3 MSTORE PUSH1 0x20 SWAP1 SWAP2 KECCAK256 ADD SLOAD PUSH1 0x1 PUSH1 0x1 PUSH1 0xA0 SHL SUB AND SWAP1 POP DUP2 JUMP JUMPDEST PUSH1 0x0 DUP1 SLOAD PUSH1 0x1 PUSH1 0x1 PUSH1 0xA0 SHL SUB AND CALLER EQ PUSH2 0x1956 JUMPI PUSH2 0x1059 PUSH1 0x1 PUSH1 0x10 PUSH2 0x40F4 JUMP JUMPDEST PUSH1 0x4 DUP1 SLOAD PUSH1 0x1 PUSH1 0x1 PUSH1 0xA0 SHL SUB DUP5 DUP2 AND PUSH1 0x1 PUSH1 0x1 PUSH1 0xA0 SHL SUB NOT DUP4 AND DUP2 OR SWAP1 SWAP4 SSTORE PUSH1 0x40 DUP1 MLOAD SWAP2 SWAP1 SWAP3 AND DUP1 DUP3 MSTORE PUSH1 0x20 DUP3 ADD SWAP4 SWAP1 SWAP4 MSTORE PUSH32 0xD52B2B9B7E9EE655FCB95D2E5B9E0C9F69E7EF2B8E9D2D0EA78402D576D22E22 SWAP2 ADD PUSH2 0x157A JUMP JUMPDEST PUSH2 0x19B8 PUSH2 0x3962 JUMP JUMPDEST PUSH2 0x1A04 JUMPI PUSH1 0x40 MLOAD PUSH3 0x461BCD PUSH1 0xE5 SHL DUP2 MSTORE PUSH1 0x20 PUSH1 0x4 DUP3 ADD MSTORE PUSH1 0x1D PUSH1 0x24 DUP3 ADD MSTORE PUSH32 0x6F6E6C792061646D696E2063616E2073657420636F6D70207370656564000000 PUSH1 0x44 DUP3 ADD MSTORE PUSH1 0x64 ADD PUSH2 0xCDD JUMP JUMPDEST PUSH2 0x1A0D DUP3 PUSH2 0x218F JUMP JUMPDEST DUP1 PUSH2 0x1A30 JUMPI PUSH1 0x1 PUSH1 0x1 PUSH1 0xA0 SHL SUB DUP3 AND PUSH1 0x0 SWAP1 DUP2 MSTORE PUSH1 0x18 PUSH1 0x20 MSTORE PUSH1 0x40 DUP2 KECCAK256 SSTORE PUSH2 0x1A4B JUMP JUMPDEST NUMBER PUSH1 0x1 PUSH1 0x1 PUSH1 0xA0 SHL SUB DUP4 AND PUSH1 0x0 SWAP1 DUP2 MSTORE PUSH1 0x18 PUSH1 0x20 MSTORE PUSH1 0x40 SWAP1 KECCAK256 SSTORE JUMPDEST PUSH1 0x1 PUSH1 0x1 PUSH1 0xA0 SHL SUB DUP3 AND PUSH1 0x0 DUP2 DUP2 MSTORE PUSH1 0x17 PUSH1 0x20 MSTORE PUSH1 0x40 SWAP1 DUP2 SWAP1 KECCAK256 DUP4 SWAP1 SSTORE MLOAD PUSH32 0x386537FA92EDC3319AF95F1F904DCF1900021E4F3F4E08169A577A09076E66B3 SWAP1 PUSH2 0x1A98 SWAP1 DUP5 DUP2 MSTORE PUSH1 0x20 ADD SWAP1 JUMP JUMPDEST PUSH1 0x40 MLOAD DUP1 SWAP2 SUB SWAP1 LOG2 POP POP JUMP JUMPDEST PUSH1 0x0 DUP1 PUSH1 0x0 DUP1 PUSH1 0x0 DUP1 PUSH2 0x1ABB DUP8 PUSH1 0x0 DUP1 PUSH1 0x0 PUSH2 0x3AB0 JUMP JUMPDEST SWAP3 POP SWAP3 POP SWAP3 POP DUP3 PUSH1 0x11 DUP2 GT ISZERO PUSH2 0x1AD3 JUMPI PUSH2 0x1AD3 PUSH2 0x52C2 JUMP JUMPDEST SWAP8 SWAP2 SWAP7 POP SWAP5 POP SWAP3 POP POP POP JUMP JUMPDEST PUSH1 0x0 DUP1 SLOAD PUSH1 0x1 PUSH1 0x1 PUSH1 0xA0 SHL SUB AND CALLER EQ PUSH2 0x1AFE JUMPI PUSH2 0x1059 PUSH1 0x1 PUSH1 0x13 PUSH2 0x40F4 JUMP JUMPDEST PUSH1 0xA DUP1 SLOAD PUSH1 0x1 PUSH1 0x1 PUSH1 0xA0 SHL SUB DUP5 DUP2 AND PUSH1 0x1 PUSH1 0x1 PUSH1 0xA0 SHL SUB NOT DUP4 AND DUP2 OR SWAP1 SWAP4 SSTORE PUSH1 0x40 DUP1 MLOAD SWAP2 SWAP1 SWAP3 AND DUP1 DUP3 MSTORE PUSH1 0x20 DUP3 ADD SWAP4 SWAP1 SWAP4 MSTORE PUSH32 0x613B6EE6A04F0D09F390E4D9318894B9F6AC7FD83897CD8D18896BA579C401E SWAP2 ADD PUSH2 0x157A JUMP JUMPDEST PUSH1 0x1 PUSH1 0x1 PUSH1 0xA0 SHL SUB DUP6 AND PUSH1 0x0 SWAP1 DUP2 MSTORE PUSH1 0x9 PUSH1 0x20 MSTORE PUSH1 0x40 DUP2 KECCAK256 SLOAD PUSH1 0xFF AND ISZERO DUP1 PUSH2 0x1B99 JUMPI POP PUSH1 0x1 PUSH1 0x1 PUSH1 0xA0 SHL SUB DUP6 AND PUSH1 0x0 SWAP1 DUP2 MSTORE PUSH1 0x9 PUSH1 0x20 MSTORE PUSH1 0x40 SWAP1 KECCAK256 SLOAD PUSH1 0xFF AND ISZERO JUMPDEST ISZERO PUSH2 0x1BA8 JUMPI PUSH1 0x9 JUMPDEST SWAP1 POP PUSH2 0x1D1E JUMP JUMPDEST PUSH1 0x40 MLOAD PUSH4 0x95DD9193 PUSH1 0xE0 SHL DUP2 MSTORE PUSH1 0x1 PUSH1 0x1 PUSH1 0xA0 SHL SUB DUP5 DUP2 AND PUSH1 0x4 DUP4 ADD MSTORE PUSH1 0x0 SWAP2 SWAP1 DUP9 AND SWAP1 PUSH4 0x95DD9193 SWAP1 PUSH1 0x24 ADD PUSH1 0x20 PUSH1 0x40 MLOAD DUP1 DUP4 SUB DUP2 DUP7 GAS STATICCALL ISZERO DUP1 ISZERO PUSH2 0x1BF2 JUMPI RETURNDATASIZE PUSH1 0x0 DUP1 RETURNDATACOPY RETURNDATASIZE PUSH1 0x0 REVERT JUMPDEST POP POP POP POP PUSH1 0x40 MLOAD RETURNDATASIZE PUSH1 0x1F NOT PUSH1 0x1F DUP3 ADD AND DUP3 ADD DUP1 PUSH1 0x40 MSTORE POP DUP2 ADD SWAP1 PUSH2 0x1C16 SWAP2 SWAP1 PUSH2 0x52A9 JUMP JUMPDEST SWAP1 POP PUSH2 0x1C21 DUP8 PUSH2 0x2322 JUMP JUMPDEST ISZERO PUSH2 0x1C8C JUMPI DUP3 DUP2 LT ISZERO PUSH2 0x1C87 JUMPI PUSH1 0x40 MLOAD PUSH3 0x461BCD PUSH1 0xE5 SHL DUP2 MSTORE PUSH1 0x20 PUSH1 0x4 DUP3 ADD MSTORE PUSH1 0x28 PUSH1 0x24 DUP3 ADD MSTORE PUSH32 0x43616E206E6F74207265706179206D6F7265207468616E2074686520746F7461 PUSH1 0x44 DUP3 ADD MSTORE PUSH8 0x6C20626F72726F77 PUSH1 0xC0 SHL PUSH1 0x64 DUP3 ADD MSTORE PUSH1 0x84 ADD PUSH2 0xCDD JUMP JUMPDEST PUSH2 0x1D18 JUMP JUMPDEST PUSH1 0x0 DUP1 PUSH2 0x1C98 DUP7 PUSH2 0x416D JUMP JUMPDEST SWAP2 SWAP4 POP SWAP1 SWAP2 POP PUSH1 0x0 SWAP1 POP DUP3 PUSH1 0x11 DUP2 GT ISZERO PUSH2 0x1CB4 JUMPI PUSH2 0x1CB4 PUSH2 0x52C2 JUMP JUMPDEST EQ PUSH2 0x1CD5 JUMPI DUP2 PUSH1 0x11 DUP2 GT ISZERO PUSH2 0x1CCB JUMPI PUSH2 0x1CCB PUSH2 0x52C2 JUMP JUMPDEST SWAP4 POP POP POP POP PUSH2 0x1D1E JUMP JUMPDEST DUP1 PUSH2 0x1CE1 JUMPI PUSH1 0x3 PUSH2 0x1CCB JUMP JUMPDEST PUSH1 0x0 PUSH2 0x1CFD PUSH1 0x40 MLOAD DUP1 PUSH1 0x20 ADD PUSH1 0x40 MSTORE DUP1 PUSH1 0x5 SLOAD DUP2 MSTORE POP DUP6 PUSH2 0x418D JUMP JUMPDEST SWAP1 POP DUP1 DUP7 GT ISZERO PUSH2 0x1D14 JUMPI PUSH1 0x11 SWAP5 POP POP POP POP POP PUSH2 0x1D1E JUMP JUMPDEST POP POP POP JUMPDEST PUSH1 0x0 SWAP2 POP POP JUMPDEST SWAP6 SWAP5 POP POP POP POP POP JUMP JUMPDEST PUSH1 0x0 SLOAD PUSH1 0x1 PUSH1 0x1 PUSH1 0xA0 SHL SUB AND CALLER EQ DUP1 PUSH2 0x1D4A JUMPI POP PUSH1 0x15 SLOAD PUSH1 0x1 PUSH1 0x1 PUSH1 0xA0 SHL SUB AND CALLER EQ JUMPDEST PUSH2 0x1DB4 JUMPI PUSH1 0x40 MLOAD PUSH3 0x461BCD PUSH1 0xE5 SHL DUP2 MSTORE PUSH1 0x20 PUSH1 0x4 DUP3 ADD MSTORE PUSH1 0x35 PUSH1 0x24 DUP3 ADD MSTORE PUSH32 0x6F6E6C792061646D696E206F7220626F72726F77206361702067756172646961 PUSH1 0x44 DUP3 ADD MSTORE PUSH21 0x6E2063616E2073657420626F72726F772063617073 PUSH1 0x58 SHL PUSH1 0x64 DUP3 ADD MSTORE PUSH1 0x84 ADD PUSH2 0xCDD JUMP JUMPDEST DUP3 DUP2 DUP2 ISZERO DUP1 ISZERO SWAP1 PUSH2 0x1DC4 JUMPI POP DUP1 DUP3 EQ JUMPDEST PUSH2 0x1E00 JUMPI PUSH1 0x40 MLOAD PUSH3 0x461BCD PUSH1 0xE5 SHL DUP2 MSTORE PUSH1 0x20 PUSH1 0x4 DUP3 ADD MSTORE PUSH1 0xD PUSH1 0x24 DUP3 ADD MSTORE PUSH13 0x1A5B9D985B1A59081A5B9C1D5D PUSH1 0x9A SHL PUSH1 0x44 DUP3 ADD MSTORE PUSH1 0x64 ADD PUSH2 0xCDD JUMP JUMPDEST PUSH1 0x0 JUMPDEST DUP3 DUP2 LT ISZERO PUSH2 0x1EFC JUMPI DUP5 DUP5 DUP3 DUP2 DUP2 LT PUSH2 0x1E1D JUMPI PUSH2 0x1E1D PUSH2 0x516F JUMP JUMPDEST SWAP1 POP PUSH1 0x20 MUL ADD CALLDATALOAD PUSH1 0x16 PUSH1 0x0 DUP10 DUP10 DUP6 DUP2 DUP2 LT PUSH2 0x1E3A JUMPI PUSH2 0x1E3A PUSH2 0x516F JUMP JUMPDEST SWAP1 POP PUSH1 0x20 MUL ADD PUSH1 0x20 DUP2 ADD SWAP1 PUSH2 0x1E4F SWAP2 SWAP1 PUSH2 0x4C33 JUMP JUMPDEST PUSH1 0x1 PUSH1 0x1 PUSH1 0xA0 SHL SUB AND DUP2 MSTORE PUSH1 0x20 DUP2 ADD SWAP2 SWAP1 SWAP2 MSTORE PUSH1 0x40 ADD PUSH1 0x0 KECCAK256 SSTORE DUP7 DUP7 DUP3 DUP2 DUP2 LT PUSH2 0x1E7B JUMPI PUSH2 0x1E7B PUSH2 0x516F JUMP JUMPDEST SWAP1 POP PUSH1 0x20 MUL ADD PUSH1 0x20 DUP2 ADD SWAP1 PUSH2 0x1E90 SWAP2 SWAP1 PUSH2 0x4C33 JUMP JUMPDEST PUSH1 0x1 PUSH1 0x1 PUSH1 0xA0 SHL SUB AND PUSH32 0x6F1951B2AAD10F3FC81B86D91105B413A5B3F847A34BBC5CE1904201B14438F6 DUP7 DUP7 DUP5 DUP2 DUP2 LT PUSH2 0x1ECC JUMPI PUSH2 0x1ECC PUSH2 0x516F JUMP JUMPDEST SWAP1 POP PUSH1 0x20 MUL ADD CALLDATALOAD PUSH1 0x40 MLOAD PUSH2 0x1EE2 SWAP2 DUP2 MSTORE PUSH1 0x20 ADD SWAP1 JUMP JUMPDEST PUSH1 0x40 MLOAD DUP1 SWAP2 SUB SWAP1 LOG2 DUP1 PUSH2 0x1EF4 DUP2 PUSH2 0x51B2 JUMP JUMPDEST SWAP2 POP POP PUSH2 0x1E03 JUMP JUMPDEST POP POP POP POP POP POP POP JUMP JUMPDEST PUSH1 0x0 JUMPDEST DUP4 MLOAD DUP2 LT ISZERO PUSH2 0x20CC JUMPI PUSH1 0x0 DUP5 DUP3 DUP2 MLOAD DUP2 LT PUSH2 0x1F25 JUMPI PUSH2 0x1F25 PUSH2 0x516F JUMP JUMPDEST PUSH1 0x20 SWAP1 DUP2 MUL SWAP2 SWAP1 SWAP2 ADD DUP2 ADD MLOAD PUSH1 0x1 PUSH1 0x1 PUSH1 0xA0 SHL SUB DUP2 AND PUSH1 0x0 SWAP1 DUP2 MSTORE PUSH1 0x9 SWAP1 SWAP3 MSTORE PUSH1 0x40 SWAP1 SWAP2 KECCAK256 SLOAD SWAP1 SWAP2 POP PUSH1 0xFF AND PUSH2 0x1F95 JUMPI PUSH1 0x40 MLOAD PUSH3 0x461BCD PUSH1 0xE5 SHL DUP2 MSTORE PUSH1 0x20 PUSH1 0x4 DUP3 ADD MSTORE PUSH1 0x15 PUSH1 0x24 DUP3 ADD MSTORE PUSH21 0x1B585C9AD95D081B5D5CDD081899481B1A5CDD1959 PUSH1 0x5A SHL PUSH1 0x44 DUP3 ADD MSTORE PUSH1 0x64 ADD PUSH2 0xCDD JUMP JUMPDEST PUSH1 0x1 DUP5 ISZERO ISZERO EQ ISZERO PUSH2 0x2062 JUMPI PUSH1 0x0 PUSH1 0x40 MLOAD DUP1 PUSH1 0x20 ADD PUSH1 0x40 MSTORE DUP1 DUP4 PUSH1 0x1 PUSH1 0x1 PUSH1 0xA0 SHL SUB AND PUSH4 0xAA5AF0FD PUSH1 0x40 MLOAD DUP2 PUSH4 0xFFFFFFFF AND PUSH1 0xE0 SHL DUP2 MSTORE PUSH1 0x4 ADD PUSH1 0x20 PUSH1 0x40 MLOAD DUP1 DUP4 SUB DUP2 DUP7 GAS STATICCALL ISZERO DUP1 ISZERO PUSH2 0x1FEB JUMPI RETURNDATASIZE PUSH1 0x0 DUP1 RETURNDATACOPY RETURNDATASIZE PUSH1 0x0 REVERT JUMPDEST POP POP POP POP PUSH1 0x40 MLOAD RETURNDATASIZE PUSH1 0x1F NOT PUSH1 0x1F DUP3 ADD AND DUP3 ADD DUP1 PUSH1 0x40 MSTORE POP DUP2 ADD SWAP1 PUSH2 0x200F SWAP2 SWAP1 PUSH2 0x52A9 JUMP JUMPDEST SWAP1 MSTORE SWAP1 POP PUSH2 0x201D DUP3 DUP3 PUSH2 0x35EF JUMP JUMPDEST PUSH1 0x0 JUMPDEST DUP8 MLOAD DUP2 LT ISZERO PUSH2 0x205F JUMPI PUSH2 0x204D DUP4 DUP10 DUP4 DUP2 MLOAD DUP2 LT PUSH2 0x203F JUMPI PUSH2 0x203F PUSH2 0x516F JUMP JUMPDEST PUSH1 0x20 MUL PUSH1 0x20 ADD ADD MLOAD DUP5 PUSH2 0x37E2 JUMP JUMPDEST DUP1 PUSH2 0x2057 DUP2 PUSH2 0x51B2 JUMP JUMPDEST SWAP2 POP POP PUSH2 0x2020 JUMP JUMPDEST POP POP JUMPDEST PUSH1 0x1 DUP4 ISZERO ISZERO EQ ISZERO PUSH2 0x20B9 JUMPI PUSH2 0x2076 DUP2 PUSH2 0x3DDE JUMP JUMPDEST PUSH1 0x0 JUMPDEST DUP7 MLOAD DUP2 LT ISZERO PUSH2 0x20B7 JUMPI PUSH2 0x20A5 DUP3 DUP9 DUP4 DUP2 MLOAD DUP2 LT PUSH2 0x2098 JUMPI PUSH2 0x2098 PUSH2 0x516F JUMP JUMPDEST PUSH1 0x20 MUL PUSH1 0x20 ADD ADD MLOAD PUSH2 0x3F56 JUMP JUMPDEST DUP1 PUSH2 0x20AF DUP2 PUSH2 0x51B2 JUMP JUMPDEST SWAP2 POP POP PUSH2 0x2079 JUMP JUMPDEST POP JUMPDEST POP DUP1 PUSH2 0x20C4 DUP2 PUSH2 0x51B2 JUMP JUMPDEST SWAP2 POP POP PUSH2 0x1F08 JUMP JUMPDEST POP PUSH1 0x0 JUMPDEST DUP5 MLOAD DUP2 LT ISZERO PUSH2 0x536 JUMPI PUSH2 0x213A DUP6 DUP3 DUP2 MLOAD DUP2 LT PUSH2 0x20EE JUMPI PUSH2 0x20EE PUSH2 0x516F JUMP JUMPDEST PUSH1 0x20 MUL PUSH1 0x20 ADD ADD MLOAD PUSH1 0x14 PUSH1 0x0 DUP9 DUP6 DUP2 MLOAD DUP2 LT PUSH2 0x210C JUMPI PUSH2 0x210C PUSH2 0x516F JUMP JUMPDEST PUSH1 0x20 MUL PUSH1 0x20 ADD ADD MLOAD PUSH1 0x1 PUSH1 0x1 PUSH1 0xA0 SHL SUB AND PUSH1 0x1 PUSH1 0x1 PUSH1 0xA0 SHL SUB AND DUP2 MSTORE PUSH1 0x20 ADD SWAP1 DUP2 MSTORE PUSH1 0x20 ADD PUSH1 0x0 KECCAK256 SLOAD PUSH2 0x398B JUMP JUMPDEST PUSH1 0x14 PUSH1 0x0 DUP8 DUP5 DUP2 MLOAD DUP2 LT PUSH2 0x2150 JUMPI PUSH2 0x2150 PUSH2 0x516F JUMP JUMPDEST PUSH1 0x20 MUL PUSH1 0x20 ADD ADD MLOAD PUSH1 0x1 PUSH1 0x1 PUSH1 0xA0 SHL SUB AND PUSH1 0x1 PUSH1 0x1 PUSH1 0xA0 SHL SUB AND DUP2 MSTORE PUSH1 0x20 ADD SWAP1 DUP2 MSTORE PUSH1 0x20 ADD PUSH1 0x0 KECCAK256 DUP2 SWAP1 SSTORE POP DUP1 DUP1 PUSH2 0x2187 SWAP1 PUSH2 0x51B2 JUMP JUMPDEST SWAP2 POP POP PUSH2 0x20D0 JUMP JUMPDEST PUSH1 0x1 PUSH1 0x1 PUSH1 0xA0 SHL SUB DUP2 AND PUSH1 0x0 SWAP1 DUP2 MSTORE PUSH1 0x17 PUSH1 0x20 SWAP1 DUP2 MSTORE PUSH1 0x40 DUP1 DUP4 KECCAK256 SLOAD PUSH1 0x18 SWAP1 SWAP3 MSTORE DUP3 KECCAK256 SLOAD SWAP1 SWAP2 NUMBER SWAP2 PUSH2 0x21C2 SWAP1 DUP4 SWAP1 PUSH2 0x35E3 JUMP JUMPDEST SWAP1 POP PUSH1 0x0 DUP2 GT DUP1 ISZERO PUSH2 0x21D4 JUMPI POP PUSH1 0x0 DUP4 GT JUMPDEST ISZERO PUSH2 0x622 JUMPI PUSH1 0x0 PUSH2 0x21E5 DUP3 DUP6 PUSH2 0x41A5 JUMP JUMPDEST PUSH1 0x1 PUSH1 0x1 PUSH1 0xA0 SHL SUB DUP7 AND PUSH1 0x0 SWAP1 DUP2 MSTORE PUSH1 0x14 PUSH1 0x20 MSTORE PUSH1 0x40 DUP2 KECCAK256 SLOAD SWAP2 SWAP3 POP SWAP1 PUSH2 0x220C SWAP1 DUP4 PUSH2 0x35D7 JUMP JUMPDEST PUSH1 0x1 PUSH1 0x1 PUSH1 0xA0 SHL SUB DUP8 AND PUSH1 0x0 SWAP1 DUP2 MSTORE PUSH1 0x14 PUSH1 0x20 SWAP1 DUP2 MSTORE PUSH1 0x40 DUP1 DUP4 KECCAK256 SWAP4 SWAP1 SWAP4 SSTORE PUSH1 0x18 SWAP1 MSTORE KECCAK256 DUP5 SWAP1 SSTORE POP POP POP POP POP POP JUMP JUMPDEST PUSH1 0xA SLOAD PUSH1 0x0 SWAP1 PUSH1 0x1 PUSH1 0x1 PUSH1 0xA0 SHL SUB AND CALLER EQ DUP1 PUSH2 0x2261 JUMPI POP PUSH1 0x0 SLOAD PUSH1 0x1 PUSH1 0x1 PUSH1 0xA0 SHL SUB AND CALLER EQ JUMPDEST PUSH2 0x227D JUMPI PUSH1 0x40 MLOAD PUSH3 0x461BCD PUSH1 0xE5 SHL DUP2 MSTORE PUSH1 0x4 ADD PUSH2 0xCDD SWAP1 PUSH2 0x5215 JUMP JUMPDEST PUSH1 0x0 SLOAD PUSH1 0x1 PUSH1 0x1 PUSH1 0xA0 SHL SUB AND CALLER EQ DUP1 PUSH2 0x2298 JUMPI POP PUSH1 0x1 DUP3 ISZERO ISZERO EQ JUMPDEST PUSH2 0x22B4 JUMPI PUSH1 0x40 MLOAD PUSH3 0x461BCD PUSH1 0xE5 SHL DUP2 MSTORE PUSH1 0x4 ADD PUSH2 0xCDD SWAP1 PUSH2 0x525C JUMP JUMPDEST PUSH1 0xA DUP1 SLOAD DUP4 ISZERO ISZERO PUSH1 0x1 PUSH1 0xB0 SHL MUL PUSH1 0xFF PUSH1 0xB0 SHL NOT SWAP1 SWAP2 AND OR SWAP1 SSTORE PUSH1 0x40 MLOAD PUSH32 0xEF159D9A32B2472E32B098F954F3CE62D232939F1C207070B584DF1814DE2DE0 SWAP1 PUSH2 0x14D9 SWAP1 DUP5 SWAP1 PUSH1 0x40 DUP1 DUP3 MSTORE PUSH1 0x8 SWAP1 DUP3 ADD MSTORE PUSH8 0x2A3930B739B332B9 PUSH1 0xC1 SHL PUSH1 0x60 DUP3 ADD MSTORE SWAP1 ISZERO ISZERO PUSH1 0x20 DUP3 ADD MSTORE PUSH1 0x80 ADD SWAP1 JUMP JUMPDEST PUSH1 0x1 PUSH1 0x1 PUSH1 0xA0 SHL SUB DUP2 AND PUSH1 0x0 SWAP1 DUP2 MSTORE PUSH1 0x9 PUSH1 0x20 MSTORE PUSH1 0x40 DUP2 KECCAK256 PUSH1 0x1 ADD SLOAD ISZERO DUP1 ISZERO PUSH2 0x2368 JUMPI POP PUSH1 0x1 PUSH1 0x1 PUSH1 0xA0 SHL SUB DUP3 AND PUSH1 0x0 SWAP1 DUP2 MSTORE PUSH1 0xC PUSH1 0x20 MSTORE PUSH1 0x40 SWAP1 KECCAK256 SLOAD PUSH1 0xFF AND ISZERO ISZERO PUSH1 0x1 EQ JUMPDEST DUP1 ISZERO PUSH2 0x1059 JUMPI POP DUP2 PUSH1 0x1 PUSH1 0x1 PUSH1 0xA0 SHL SUB AND PUSH4 0x173B9904 PUSH1 0x40 MLOAD DUP2 PUSH4 0xFFFFFFFF AND PUSH1 0xE0 SHL DUP2 MSTORE PUSH1 0x4 ADD PUSH1 0x20 PUSH1 0x40 MLOAD DUP1 DUP4 SUB DUP2 DUP7 GAS STATICCALL ISZERO DUP1 ISZERO PUSH2 0x23AD JUMPI RETURNDATASIZE PUSH1 0x0 DUP1 RETURNDATACOPY RETURNDATASIZE PUSH1 0x0 REVERT JUMPDEST POP POP POP POP PUSH1 0x40 MLOAD RETURNDATASIZE PUSH1 0x1F NOT PUSH1 0x1F DUP3 ADD AND DUP3 ADD DUP1 PUSH1 0x40 MSTORE POP DUP2 ADD SWAP1 PUSH2 0x23D1 SWAP2 SWAP1 PUSH2 0x52A9 JUMP JUMPDEST PUSH8 0xDE0B6B3A7640000 EQ SWAP3 SWAP2 POP POP JUMP JUMPDEST PUSH1 0x0 DUP1 SLOAD PUSH1 0x1 PUSH1 0x1 PUSH1 0xA0 SHL SUB AND CALLER EQ PUSH2 0x2400 JUMPI PUSH2 0x1059 PUSH1 0x1 PUSH1 0x12 PUSH2 0x40F4 JUMP JUMPDEST PUSH1 0x1 PUSH1 0x1 PUSH1 0xA0 SHL SUB DUP3 AND PUSH1 0x0 SWAP1 DUP2 MSTORE PUSH1 0x9 PUSH1 0x20 MSTORE PUSH1 0x40 SWAP1 KECCAK256 SLOAD PUSH1 0xFF AND ISZERO PUSH2 0x242D JUMPI PUSH2 0x1059 PUSH1 0xA PUSH1 0x11 PUSH2 0x40F4 JUMP JUMPDEST DUP2 PUSH1 0x1 PUSH1 0x1 PUSH1 0xA0 SHL SUB AND PUSH4 0xFE9C44AE PUSH1 0x40 MLOAD DUP2 PUSH4 0xFFFFFFFF AND PUSH1 0xE0 SHL DUP2 MSTORE PUSH1 0x4 ADD PUSH1 0x20 PUSH1 0x40 MLOAD DUP1 DUP4 SUB DUP2 DUP7 GAS STATICCALL ISZERO DUP1 ISZERO PUSH2 0x246B JUMPI RETURNDATASIZE PUSH1 0x0 DUP1 RETURNDATACOPY RETURNDATASIZE PUSH1 0x0 REVERT JUMPDEST POP POP POP POP PUSH1 0x40 MLOAD RETURNDATASIZE PUSH1 0x1F NOT PUSH1 0x1F DUP3 ADD AND DUP3 ADD DUP1 PUSH1 0x40 MSTORE POP DUP2 ADD SWAP1 PUSH2 0x248F SWAP2 SWAP1 PUSH2 0x52D8 JUMP JUMPDEST POP PUSH1 0x1 PUSH1 0x1 PUSH1 0xA0 SHL SUB DUP3 AND PUSH1 0x0 SWAP1 DUP2 MSTORE PUSH1 0x9 PUSH1 0x20 MSTORE PUSH1 0x40 DUP2 KECCAK256 DUP1 SLOAD PUSH1 0x1 PUSH1 0xFF NOT SWAP2 DUP3 AND DUP2 OR DUP4 SSTORE PUSH1 0x3 DUP4 ADD DUP1 SLOAD SWAP1 SWAP3 AND SWAP1 SWAP2 SSTORE DUP2 ADD SWAP2 SWAP1 SWAP2 SSTORE PUSH2 0x24D1 DUP4 PUSH2 0x41B1 JUMP JUMPDEST PUSH2 0x24DA DUP4 PUSH2 0x429A JUMP JUMPDEST PUSH1 0x40 MLOAD PUSH1 0x1 PUSH1 0x1 PUSH1 0xA0 SHL SUB DUP5 AND DUP2 MSTORE PUSH32 0xCF583BB0C569EB967F806B11601C4CB93C10310485C67ADD5F8362C2F212321F SWAP1 PUSH1 0x20 ADD PUSH2 0x157A JUMP JUMPDEST PUSH2 0x251B PUSH2 0x3962 JUMP JUMPDEST PUSH2 0x2567 JUMPI PUSH1 0x40 MLOAD PUSH3 0x461BCD PUSH1 0xE5 SHL DUP2 MSTORE PUSH1 0x20 PUSH1 0x4 DUP3 ADD MSTORE PUSH1 0x1D PUSH1 0x24 DUP3 ADD MSTORE PUSH32 0x6F6E6C792061646D696E2063616E2073657420636F6D70207370656564000000 PUSH1 0x44 DUP3 ADD MSTORE PUSH1 0x64 ADD PUSH2 0xCDD JUMP JUMPDEST DUP3 MLOAD DUP3 MLOAD DUP2 EQ DUP1 ISZERO PUSH2 0x2579 JUMPI POP DUP2 MLOAD DUP2 EQ JUMPDEST PUSH2 0x25D7 JUMPI PUSH1 0x40 MLOAD PUSH3 0x461BCD PUSH1 0xE5 SHL DUP2 MSTORE PUSH1 0x20 PUSH1 0x4 DUP3 ADD MSTORE PUSH1 0x29 PUSH1 0x24 DUP3 ADD MSTORE PUSH32 0x436F6D7074726F6C6C65723A3A5F736574436F6D7053706565647320696E7661 PUSH1 0x44 DUP3 ADD MSTORE PUSH9 0x1B1A59081A5B9C1D5D PUSH1 0xBA SHL PUSH1 0x64 DUP3 ADD MSTORE PUSH1 0x84 ADD PUSH2 0xCDD JUMP JUMPDEST PUSH1 0x0 JUMPDEST DUP2 DUP2 LT ISZERO PUSH2 0x536 JUMPI PUSH2 0x2638 DUP6 DUP3 DUP2 MLOAD DUP2 LT PUSH2 0x25F7 JUMPI PUSH2 0x25F7 PUSH2 0x516F JUMP JUMPDEST PUSH1 0x20 MUL PUSH1 0x20 ADD ADD MLOAD DUP6 DUP4 DUP2 MLOAD DUP2 LT PUSH2 0x2611 JUMPI PUSH2 0x2611 PUSH2 0x516F JUMP JUMPDEST PUSH1 0x20 MUL PUSH1 0x20 ADD ADD MLOAD DUP6 DUP5 DUP2 MLOAD DUP2 LT PUSH2 0x262B JUMPI PUSH2 0x262B PUSH2 0x516F JUMP JUMPDEST PUSH1 0x20 MUL PUSH1 0x20 ADD ADD MLOAD PUSH2 0x4356 JUMP JUMPDEST PUSH2 0x2641 DUP2 PUSH2 0x51B2 JUMP JUMPDEST SWAP1 POP PUSH2 0x25DA JUMP JUMPDEST PUSH1 0x1 PUSH1 0x1 PUSH1 0xA0 SHL SUB DUP2 AND PUSH1 0x0 SWAP1 DUP2 MSTORE PUSH1 0x8 PUSH1 0x20 SWAP1 DUP2 MSTORE PUSH1 0x40 DUP1 DUP4 KECCAK256 DUP1 SLOAD DUP3 MLOAD DUP2 DUP6 MUL DUP2 ADD DUP6 ADD SWAP1 SWAP4 MSTORE DUP1 DUP4 MSTORE PUSH1 0x60 SWAP5 SWAP4 DUP4 ADD DUP3 DUP3 DUP1 ISZERO PUSH2 0x26B1 JUMPI PUSH1 0x20 MUL DUP3 ADD SWAP2 SWAP1 PUSH1 0x0 MSTORE PUSH1 0x20 PUSH1 0x0 KECCAK256 SWAP1 JUMPDEST DUP2 SLOAD PUSH1 0x1 PUSH1 0x1 PUSH1 0xA0 SHL SUB AND DUP2 MSTORE PUSH1 0x1 SWAP1 SWAP2 ADD SWAP1 PUSH1 0x20 ADD DUP1 DUP4 GT PUSH2 0x2693 JUMPI JUMPDEST POP SWAP4 SWAP8 SWAP7 POP POP POP POP POP POP POP JUMP JUMPDEST PUSH1 0x60 PUSH1 0xD DUP1 SLOAD DUP1 PUSH1 0x20 MUL PUSH1 0x20 ADD PUSH1 0x40 MLOAD SWAP1 DUP2 ADD PUSH1 0x40 MSTORE DUP1 SWAP3 SWAP2 SWAP1 DUP2 DUP2 MSTORE PUSH1 0x20 ADD DUP3 DUP1 SLOAD DUP1 ISZERO PUSH2 0x2716 JUMPI PUSH1 0x20 MUL DUP3 ADD SWAP2 SWAP1 PUSH1 0x0 MSTORE PUSH1 0x20 PUSH1 0x0 KECCAK256 SWAP1 JUMPDEST DUP2 SLOAD PUSH1 0x1 PUSH1 0x1 PUSH1 0xA0 SHL SUB AND DUP2 MSTORE PUSH1 0x1 SWAP1 SWAP2 ADD SWAP1 PUSH1 0x20 ADD DUP1 DUP4 GT PUSH2 0x26F8 JUMPI JUMPDEST POP POP POP POP POP SWAP1 POP SWAP1 JUMP JUMPDEST PUSH1 0xA SLOAD PUSH1 0x0 SWAP1 PUSH1 0x1 PUSH1 0xB0 SHL SWAP1 DIV PUSH1 0xFF AND ISZERO PUSH2 0x2772 JUMPI PUSH1 0x40 MLOAD PUSH3 0x461BCD PUSH1 0xE5 SHL DUP2 MSTORE PUSH1 0x20 PUSH1 0x4 DUP3 ADD MSTORE PUSH1 0x12 PUSH1 0x24 DUP3 ADD MSTORE PUSH18 0x1D1C985B9CD9995C881A5CC81C185D5CD959 PUSH1 0x72 SHL PUSH1 0x44 DUP3 ADD MSTORE PUSH1 0x64 ADD PUSH2 0xCDD JUMP JUMPDEST PUSH1 0x0 PUSH2 0x277F DUP7 DUP7 DUP6 PUSH2 0x4535 JUMP JUMPDEST SWAP1 POP DUP1 ISZERO PUSH2 0x278E JUMPI SWAP1 POP PUSH2 0x12F6 JUMP JUMPDEST PUSH2 0x2797 DUP7 PUSH2 0x3DDE JUMP JUMPDEST PUSH2 0x27A1 DUP7 DUP7 PUSH2 0x3F56 JUMP JUMPDEST PUSH2 0x12F0 DUP7 DUP6 PUSH2 0x3F56 JUMP JUMPDEST DUP1 MLOAD PUSH1 0x60 SWAP1 PUSH1 0x0 DUP2 PUSH8 0xFFFFFFFFFFFFFFFF DUP2 GT ISZERO PUSH2 0x27CB JUMPI PUSH2 0x27CB PUSH2 0x4B04 JUMP JUMPDEST PUSH1 0x40 MLOAD SWAP1 DUP1 DUP3 MSTORE DUP1 PUSH1 0x20 MUL PUSH1 0x20 ADD DUP3 ADD PUSH1 0x40 MSTORE DUP1 ISZERO PUSH2 0x27F4 JUMPI DUP2 PUSH1 0x20 ADD PUSH1 0x20 DUP3 MUL DUP1 CALLDATASIZE DUP4 CALLDATACOPY ADD SWAP1 POP JUMPDEST POP SWAP1 POP PUSH1 0x0 JUMPDEST DUP3 DUP2 LT ISZERO PUSH2 0x286B JUMPI PUSH1 0x0 DUP6 DUP3 DUP2 MLOAD DUP2 LT PUSH2 0x2816 JUMPI PUSH2 0x2816 PUSH2 0x516F JUMP JUMPDEST PUSH1 0x20 MUL PUSH1 0x20 ADD ADD MLOAD SWAP1 POP PUSH2 0x282A DUP2 CALLER PUSH2 0x45ED JUMP JUMPDEST PUSH1 0x11 DUP2 GT ISZERO PUSH2 0x283B JUMPI PUSH2 0x283B PUSH2 0x52C2 JUMP JUMPDEST DUP4 DUP4 DUP2 MLOAD DUP2 LT PUSH2 0x284D JUMPI PUSH2 0x284D PUSH2 0x516F JUMP JUMPDEST PUSH1 0x20 SWAP1 DUP2 MUL SWAP2 SWAP1 SWAP2 ADD ADD MSTORE POP DUP1 PUSH2 0x2863 DUP2 PUSH2 0x51B2 JUMP JUMPDEST SWAP2 POP POP PUSH2 0x27FA JUMP JUMPDEST POP SWAP4 SWAP3 POP POP POP JUMP JUMPDEST PUSH1 0x4 DUP1 SLOAD PUSH1 0x40 MLOAD PUSH4 0xFC57D4DF PUSH1 0xE0 SHL DUP2 MSTORE PUSH1 0x1 PUSH1 0x1 PUSH1 0xA0 SHL SUB DUP7 DUP2 AND SWAP4 DUP3 ADD SWAP4 SWAP1 SWAP4 MSTORE PUSH1 0x0 SWAP3 DUP4 SWAP3 DUP4 SWAP3 SWAP2 AND SWAP1 PUSH4 0xFC57D4DF SWAP1 PUSH1 0x24 ADD PUSH1 0x20 PUSH1 0x40 MLOAD DUP1 DUP4 SUB DUP2 DUP7 GAS STATICCALL ISZERO DUP1 ISZERO PUSH2 0x28C6 JUMPI RETURNDATASIZE PUSH1 0x0 DUP1 RETURNDATACOPY RETURNDATASIZE PUSH1 0x0 REVERT JUMPDEST POP POP POP POP PUSH1 0x40 MLOAD RETURNDATASIZE PUSH1 0x1F NOT PUSH1 0x1F DUP3 ADD AND DUP3 ADD DUP1 PUSH1 0x40 MSTORE POP DUP2 ADD SWAP1 PUSH2 0x28EA SWAP2 SWAP1 PUSH2 0x52A9 JUMP JUMPDEST PUSH1 0x4 DUP1 SLOAD PUSH1 0x40 MLOAD PUSH4 0xFC57D4DF PUSH1 0xE0 SHL DUP2 MSTORE PUSH1 0x1 PUSH1 0x1 PUSH1 0xA0 SHL SUB DUP10 DUP2 AND SWAP4 DUP3 ADD SWAP4 SWAP1 SWAP4 MSTORE SWAP3 SWAP4 POP PUSH1 0x0 SWAP3 SWAP2 AND SWAP1 PUSH4 0xFC57D4DF SWAP1 PUSH1 0x24 ADD PUSH1 0x20 PUSH1 0x40 MLOAD DUP1 DUP4 SUB DUP2 DUP7 GAS STATICCALL ISZERO DUP1 ISZERO PUSH2 0x293C JUMPI RETURNDATASIZE PUSH1 0x0 DUP1 RETURNDATACOPY RETURNDATASIZE PUSH1 0x0 REVERT JUMPDEST POP POP POP POP PUSH1 0x40 MLOAD RETURNDATASIZE PUSH1 0x1F NOT PUSH1 0x1F DUP3 ADD AND DUP3 ADD DUP1 PUSH1 0x40 MSTORE POP DUP2 ADD SWAP1 PUSH2 0x2960 SWAP2 SWAP1 PUSH2 0x52A9 JUMP JUMPDEST SWAP1 POP DUP2 ISZERO DUP1 PUSH2 0x296D JUMPI POP DUP1 ISZERO JUMPDEST ISZERO PUSH2 0x2981 JUMPI PUSH1 0xD PUSH1 0x0 SWAP4 POP SWAP4 POP POP POP PUSH2 0x2A89 JUMP JUMPDEST PUSH1 0x0 DUP7 PUSH1 0x1 PUSH1 0x1 PUSH1 0xA0 SHL SUB AND PUSH4 0x182DF0F5 PUSH1 0x40 MLOAD DUP2 PUSH4 0xFFFFFFFF AND PUSH1 0xE0 SHL DUP2 MSTORE PUSH1 0x4 ADD PUSH1 0x20 PUSH1 0x40 MLOAD DUP1 DUP4 SUB DUP2 DUP7 GAS STATICCALL ISZERO DUP1 ISZERO PUSH2 0x29C1 JUMPI RETURNDATASIZE PUSH1 0x0 DUP1 RETURNDATACOPY RETURNDATASIZE PUSH1 0x0 REVERT JUMPDEST POP POP POP POP PUSH1 0x40 MLOAD RETURNDATASIZE PUSH1 0x1F NOT PUSH1 0x1F DUP3 ADD AND DUP3 ADD DUP1 PUSH1 0x40 MSTORE POP DUP2 ADD SWAP1 PUSH2 0x29E5 SWAP2 SWAP1 PUSH2 0x52A9 JUMP JUMPDEST SWAP1 POP PUSH1 0x0 PUSH2 0x29FF PUSH1 0x40 MLOAD DUP1 PUSH1 0x20 ADD PUSH1 0x40 MSTORE DUP1 PUSH1 0x0 DUP2 MSTORE POP SWAP1 JUMP JUMPDEST PUSH1 0x40 DUP1 MLOAD PUSH1 0x20 DUP1 DUP3 ADD DUP4 MSTORE PUSH1 0x0 DUP1 DUP4 MSTORE DUP4 MLOAD DUP1 DUP4 ADD DUP6 MSTORE SWAP1 DUP2 MSTORE DUP4 MLOAD DUP1 DUP4 ADD DUP6 MSTORE PUSH1 0x6 SLOAD DUP2 MSTORE DUP5 MLOAD SWAP3 DUP4 ADD SWAP1 SWAP5 MSTORE DUP9 DUP3 MSTORE SWAP2 SWAP3 PUSH2 0x2A3B SWAP2 PUSH2 0x46E2 JUMP JUMPDEST SWAP3 POP PUSH2 0x2A63 PUSH1 0x40 MLOAD DUP1 PUSH1 0x20 ADD PUSH1 0x40 MSTORE DUP1 DUP9 DUP2 MSTORE POP PUSH1 0x40 MLOAD DUP1 PUSH1 0x20 ADD PUSH1 0x40 MSTORE DUP1 DUP9 DUP2 MSTORE POP PUSH2 0x46E2 JUMP JUMPDEST SWAP2 POP PUSH2 0x2A6F DUP4 DUP4 PUSH2 0x472A JUMP JUMPDEST SWAP1 POP PUSH2 0x2A7B DUP2 DUP12 PUSH2 0x418D JUMP JUMPDEST PUSH1 0x0 SWAP10 POP SWAP8 POP POP POP POP POP POP POP POP JUMPDEST SWAP4 POP SWAP4 SWAP2 POP POP JUMP JUMPDEST PUSH1 0xA SLOAD PUSH1 0x0 SWAP1 PUSH1 0x1 PUSH1 0xB8 SHL SWAP1 DIV PUSH1 0xFF AND ISZERO PUSH2 0x2AE0 JUMPI PUSH1 0x40 MLOAD PUSH3 0x461BCD PUSH1 0xE5 SHL DUP2 MSTORE PUSH1 0x20 PUSH1 0x4 DUP3 ADD MSTORE PUSH1 0xF PUSH1 0x24 DUP3 ADD MSTORE PUSH15 0x1CD95A5E99481A5CC81C185D5CD959 PUSH1 0x8A SHL PUSH1 0x44 DUP3 ADD MSTORE PUSH1 0x64 ADD PUSH2 0xCDD JUMP JUMPDEST PUSH1 0x1 PUSH1 0x1 PUSH1 0xA0 SHL SUB DUP7 AND PUSH1 0x0 SWAP1 DUP2 MSTORE PUSH1 0x9 PUSH1 0x20 MSTORE PUSH1 0x40 SWAP1 KECCAK256 SLOAD PUSH1 0xFF AND ISZERO DUP1 PUSH2 0x2B21 JUMPI POP PUSH1 0x1 PUSH1 0x1 PUSH1 0xA0 SHL SUB DUP6 AND PUSH1 0x0 SWAP1 DUP2 MSTORE PUSH1 0x9 PUSH1 0x20 MSTORE PUSH1 0x40 SWAP1 KECCAK256 SLOAD PUSH1 0xFF AND ISZERO JUMPDEST ISZERO PUSH2 0x2B2D JUMPI PUSH1 0x9 PUSH2 0x1BA1 JUMP JUMPDEST DUP5 PUSH1 0x1 PUSH1 0x1 PUSH1 0xA0 SHL SUB AND PUSH4 0x5FE3B567 PUSH1 0x40 MLOAD DUP2 PUSH4 0xFFFFFFFF AND PUSH1 0xE0 SHL DUP2 MSTORE PUSH1 0x4 ADD PUSH1 0x20 PUSH1 0x40 MLOAD DUP1 DUP4 SUB DUP2 DUP7 GAS STATICCALL ISZERO DUP1 ISZERO PUSH2 0x2B6B JUMPI RETURNDATASIZE PUSH1 0x0 DUP1 RETURNDATACOPY RETURNDATASIZE PUSH1 0x0 REVERT JUMPDEST POP POP POP POP PUSH1 0x40 MLOAD RETURNDATASIZE PUSH1 0x1F NOT PUSH1 0x1F DUP3 ADD AND DUP3 ADD DUP1 PUSH1 0x40 MSTORE POP DUP2 ADD SWAP1 PUSH2 0x2B8F SWAP2 SWAP1 PUSH2 0x528C JUMP JUMPDEST PUSH1 0x1 PUSH1 0x1 PUSH1 0xA0 SHL SUB AND DUP7 PUSH1 0x1 PUSH1 0x1 PUSH1 0xA0 SHL SUB AND PUSH4 0x5FE3B567 PUSH1 0x40 MLOAD DUP2 PUSH4 0xFFFFFFFF AND PUSH1 0xE0 SHL DUP2 MSTORE PUSH1 0x4 ADD PUSH1 0x20 PUSH1 0x40 MLOAD DUP1 DUP4 SUB DUP2 DUP7 GAS STATICCALL ISZERO DUP1 ISZERO PUSH2 0x2BD6 JUMPI RETURNDATASIZE PUSH1 0x0 DUP1 RETURNDATACOPY RETURNDATASIZE PUSH1 0x0 REVERT JUMPDEST POP POP POP POP PUSH1 0x40 MLOAD RETURNDATASIZE PUSH1 0x1F NOT PUSH1 0x1F DUP3 ADD AND DUP3 ADD DUP1 PUSH1 0x40 MSTORE POP DUP2 ADD SWAP1 PUSH2 0x2BFA SWAP2 SWAP1 PUSH2 0x528C JUMP JUMPDEST PUSH1 0x1 PUSH1 0x1 PUSH1 0xA0 SHL SUB AND EQ PUSH2 0x2C0F JUMPI PUSH1 0x2 PUSH2 0x1BA1 JUMP JUMPDEST PUSH2 0x2C18 DUP7 PUSH2 0x3DDE JUMP JUMPDEST PUSH2 0x2C22 DUP7 DUP5 PUSH2 0x3F56 JUMP JUMPDEST PUSH2 0x2C2C DUP7 DUP6 PUSH2 0x3F56 JUMP JUMPDEST PUSH1 0x0 SWAP7 SWAP6 POP POP POP POP POP POP JUMP JUMPDEST PUSH1 0x1 PUSH1 0x1 PUSH1 0xA0 SHL SUB DUP4 AND PUSH1 0x0 SWAP1 DUP2 MSTORE PUSH1 0xC PUSH1 0x20 MSTORE PUSH1 0x40 DUP2 KECCAK256 SLOAD PUSH1 0xFF AND ISZERO PUSH2 0x2C94 JUMPI PUSH1 0x40 MLOAD PUSH3 0x461BCD PUSH1 0xE5 SHL DUP2 MSTORE PUSH1 0x20 PUSH1 0x4 DUP3 ADD MSTORE PUSH1 0x10 PUSH1 0x24 DUP3 ADD MSTORE PUSH16 0x189BDC9C9BDDC81A5CC81C185D5CD959 PUSH1 0x82 SHL PUSH1 0x44 DUP3 ADD MSTORE PUSH1 0x64 ADD PUSH2 0xCDD JUMP JUMPDEST PUSH1 0x1 PUSH1 0x1 PUSH1 0xA0 SHL SUB DUP5 AND PUSH1 0x0 SWAP1 DUP2 MSTORE PUSH1 0x9 PUSH1 0x20 MSTORE PUSH1 0x40 SWAP1 KECCAK256 SLOAD PUSH1 0xFF AND PUSH2 0x2CBB JUMPI PUSH1 0x9 PUSH2 0x183D JUMP JUMPDEST PUSH1 0x1 PUSH1 0x1 PUSH1 0xA0 SHL SUB DUP1 DUP6 AND PUSH1 0x0 SWAP1 DUP2 MSTORE PUSH1 0x9 PUSH1 0x20 SWAP1 DUP2 MSTORE PUSH1 0x40 DUP1 DUP4 KECCAK256 SWAP4 DUP8 AND DUP4 MSTORE PUSH1 0x2 SWAP1 SWAP4 ADD SWAP1 MSTORE KECCAK256 SLOAD PUSH1 0xFF AND PUSH2 0x2DB8 JUMPI CALLER PUSH1 0x1 PUSH1 0x1 PUSH1 0xA0 SHL SUB DUP6 AND EQ PUSH2 0x2D3C JUMPI PUSH1 0x40 MLOAD PUSH3 0x461BCD PUSH1 0xE5 SHL DUP2 MSTORE PUSH1 0x20 PUSH1 0x4 DUP3 ADD MSTORE PUSH1 0x15 PUSH1 0x24 DUP3 ADD MSTORE PUSH21 0x39B2B73232B91036BAB9BA1031329031AA37B5B2B7 PUSH1 0x59 SHL PUSH1 0x44 DUP3 ADD MSTORE PUSH1 0x64 ADD PUSH2 0xCDD JUMP JUMPDEST PUSH1 0x0 PUSH2 0x2D48 CALLER DUP6 PUSH2 0x45ED JUMP JUMPDEST SWAP1 POP PUSH1 0x0 DUP2 PUSH1 0x11 DUP2 GT ISZERO PUSH2 0x2D5E JUMPI PUSH2 0x2D5E PUSH2 0x52C2 JUMP JUMPDEST EQ PUSH2 0x2D7D JUMPI DUP1 PUSH1 0x11 DUP2 GT ISZERO PUSH2 0x2D75 JUMPI PUSH2 0x2D75 PUSH2 0x52C2 JUMP JUMPDEST SWAP2 POP POP PUSH2 0x1585 JUMP JUMPDEST PUSH1 0x1 PUSH1 0x1 PUSH1 0xA0 SHL SUB DUP1 DUP7 AND PUSH1 0x0 SWAP1 DUP2 MSTORE PUSH1 0x9 PUSH1 0x20 SWAP1 DUP2 MSTORE PUSH1 0x40 DUP1 DUP4 KECCAK256 SWAP4 DUP9 AND DUP4 MSTORE PUSH1 0x2 SWAP1 SWAP4 ADD SWAP1 MSTORE KECCAK256 SLOAD PUSH1 0xFF AND PUSH2 0x2DB6 JUMPI PUSH2 0x2DB6 PUSH2 0x52F5 JUMP JUMPDEST POP JUMPDEST PUSH1 0x4 DUP1 SLOAD PUSH1 0x40 MLOAD PUSH4 0xFC57D4DF PUSH1 0xE0 SHL DUP2 MSTORE PUSH1 0x1 PUSH1 0x1 PUSH1 0xA0 SHL SUB DUP8 DUP2 AND SWAP4 DUP3 ADD SWAP4 SWAP1 SWAP4 MSTORE SWAP2 AND SWAP1 PUSH4 0xFC57D4DF SWAP1 PUSH1 0x24 ADD PUSH1 0x20 PUSH1 0x40 MLOAD DUP1 DUP4 SUB DUP2 DUP7 GAS STATICCALL ISZERO DUP1 ISZERO PUSH2 0x2E04 JUMPI RETURNDATASIZE PUSH1 0x0 DUP1 RETURNDATACOPY RETURNDATASIZE PUSH1 0x0 REVERT JUMPDEST POP POP POP POP PUSH1 0x40 MLOAD RETURNDATASIZE PUSH1 0x1F NOT PUSH1 0x1F DUP3 ADD AND DUP3 ADD DUP1 PUSH1 0x40 MSTORE POP DUP2 ADD SWAP1 PUSH2 0x2E28 SWAP2 SWAP1 PUSH2 0x52A9 JUMP JUMPDEST PUSH2 0x2E33 JUMPI PUSH1 0xD PUSH2 0x183D JUMP JUMPDEST PUSH1 0x1 PUSH1 0x1 PUSH1 0xA0 SHL SUB DUP5 AND PUSH1 0x0 SWAP1 DUP2 MSTORE PUSH1 0x16 PUSH1 0x20 MSTORE PUSH1 0x40 SWAP1 KECCAK256 SLOAD DUP1 ISZERO PUSH2 0x2F18 JUMPI PUSH1 0x0 DUP6 PUSH1 0x1 PUSH1 0x1 PUSH1 0xA0 SHL SUB AND PUSH4 0x47BD3718 PUSH1 0x40 MLOAD DUP2 PUSH4 0xFFFFFFFF AND PUSH1 0xE0 SHL DUP2 MSTORE PUSH1 0x4 ADD PUSH1 0x20 PUSH1 0x40 MLOAD DUP1 DUP4 SUB DUP2 DUP7 GAS STATICCALL ISZERO DUP1 ISZERO PUSH2 0x2E92 JUMPI RETURNDATASIZE PUSH1 0x0 DUP1 RETURNDATACOPY RETURNDATASIZE PUSH1 0x0 REVERT JUMPDEST POP POP POP POP PUSH1 0x40 MLOAD RETURNDATASIZE PUSH1 0x1F NOT PUSH1 0x1F DUP3 ADD AND DUP3 ADD DUP1 PUSH1 0x40 MSTORE POP DUP2 ADD SWAP1 PUSH2 0x2EB6 SWAP2 SWAP1 PUSH2 0x52A9 JUMP JUMPDEST SWAP1 POP PUSH1 0x0 PUSH2 0x2EC4 DUP3 DUP7 PUSH2 0x35D7 JUMP JUMPDEST SWAP1 POP DUP3 DUP2 LT PUSH2 0x2F15 JUMPI PUSH1 0x40 MLOAD PUSH3 0x461BCD PUSH1 0xE5 SHL DUP2 MSTORE PUSH1 0x20 PUSH1 0x4 DUP3 ADD MSTORE PUSH1 0x19 PUSH1 0x24 DUP3 ADD MSTORE PUSH32 0x6D61726B657420626F72726F7720636170207265616368656400000000000000 PUSH1 0x44 DUP3 ADD MSTORE PUSH1 0x64 ADD PUSH2 0xCDD JUMP JUMPDEST POP POP JUMPDEST PUSH1 0x0 DUP1 PUSH2 0x2F28 DUP7 DUP9 PUSH1 0x0 DUP9 PUSH2 0x3AB0 JUMP JUMPDEST SWAP2 SWAP4 POP SWAP1 SWAP2 POP PUSH1 0x0 SWAP1 POP DUP3 PUSH1 0x11 DUP2 GT ISZERO PUSH2 0x2F44 JUMPI PUSH2 0x2F44 PUSH2 0x52C2 JUMP JUMPDEST EQ PUSH2 0x2F65 JUMPI DUP2 PUSH1 0x11 DUP2 GT ISZERO PUSH2 0x2F5B JUMPI PUSH2 0x2F5B PUSH2 0x52C2 JUMP JUMPDEST SWAP4 POP POP POP POP PUSH2 0x1585 JUMP JUMPDEST DUP1 ISZERO PUSH2 0x2F72 JUMPI PUSH1 0x4 PUSH2 0x2F5B JUMP JUMPDEST PUSH1 0x0 PUSH1 0x40 MLOAD DUP1 PUSH1 0x20 ADD PUSH1 0x40 MSTORE DUP1 DUP10 PUSH1 0x1 PUSH1 0x1 PUSH1 0xA0 SHL SUB AND PUSH4 0xAA5AF0FD PUSH1 0x40 MLOAD DUP2 PUSH4 0xFFFFFFFF AND PUSH1 0xE0 SHL DUP2 MSTORE PUSH1 0x4 ADD PUSH1 0x20 PUSH1 0x40 MLOAD DUP1 DUP4 SUB DUP2 DUP7 GAS STATICCALL ISZERO DUP1 ISZERO PUSH2 0x2FBD JUMPI RETURNDATASIZE PUSH1 0x0 DUP1 RETURNDATACOPY RETURNDATASIZE PUSH1 0x0 REVERT JUMPDEST POP POP POP POP PUSH1 0x40 MLOAD RETURNDATASIZE PUSH1 0x1F NOT PUSH1 0x1F DUP3 ADD AND DUP3 ADD DUP1 PUSH1 0x40 MSTORE POP DUP2 ADD SWAP1 PUSH2 0x2FE1 SWAP2 SWAP1 PUSH2 0x52A9 JUMP JUMPDEST SWAP1 MSTORE SWAP1 POP PUSH2 0x2FEF DUP9 DUP3 PUSH2 0x35EF JUMP JUMPDEST PUSH2 0x2FFA DUP9 DUP9 DUP4 PUSH2 0x37E2 JUMP JUMPDEST PUSH1 0x0 SWAP9 SWAP8 POP POP POP POP POP POP POP POP JUMP JUMPDEST PUSH1 0x8 PUSH1 0x20 MSTORE DUP2 PUSH1 0x0 MSTORE PUSH1 0x40 PUSH1 0x0 KECCAK256 DUP2 DUP2 SLOAD DUP2 LT PUSH2 0x3024 JUMPI PUSH1 0x0 DUP1 REVERT JUMPDEST PUSH1 0x0 SWAP2 DUP3 MSTORE PUSH1 0x20 SWAP1 SWAP2 KECCAK256 ADD SLOAD PUSH1 0x1 PUSH1 0x1 PUSH1 0xA0 SHL SUB AND SWAP2 POP DUP3 SWAP1 POP JUMP JUMPDEST PUSH1 0x0 DUP1 SLOAD PUSH1 0x1 PUSH1 0x1 PUSH1 0xA0 SHL SUB AND CALLER EQ PUSH2 0x3066 JUMPI PUSH2 0x305F PUSH1 0x1 PUSH1 0x6 PUSH2 0x40F4 JUMP JUMPDEST SWAP1 POP PUSH2 0x1059 JUMP JUMPDEST PUSH1 0x1 PUSH1 0x1 PUSH1 0xA0 SHL SUB DUP4 AND PUSH1 0x0 SWAP1 DUP2 MSTORE PUSH1 0x9 PUSH1 0x20 MSTORE PUSH1 0x40 SWAP1 KECCAK256 DUP1 SLOAD PUSH1 0xFF AND PUSH2 0x309B JUMPI PUSH2 0x3093 PUSH1 0x9 PUSH1 0x7 PUSH2 0x40F4 JUMP JUMPDEST SWAP2 POP POP PUSH2 0x1059 JUMP JUMPDEST PUSH1 0x40 DUP1 MLOAD PUSH1 0x20 DUP1 DUP3 ADD DUP4 MSTORE DUP6 DUP3 MSTORE DUP3 MLOAD SWAP1 DUP2 ADD SWAP1 SWAP3 MSTORE PUSH8 0xC7D713B49DA0000 DUP3 MSTORE SWAP1 PUSH2 0x30C9 DUP2 DUP4 MLOAD SWAP1 MLOAD LT SWAP1 JUMP JUMPDEST ISZERO PUSH2 0x30E4 JUMPI PUSH2 0x30DA PUSH1 0x6 PUSH1 0x8 PUSH2 0x40F4 JUMP JUMPDEST SWAP4 POP POP POP POP PUSH2 0x1059 JUMP JUMPDEST DUP5 ISZERO DUP1 ISZERO SWAP1 PUSH2 0x3160 JUMPI POP PUSH1 0x4 DUP1 SLOAD PUSH1 0x40 MLOAD PUSH4 0xFC57D4DF PUSH1 0xE0 SHL DUP2 MSTORE PUSH1 0x1 PUSH1 0x1 PUSH1 0xA0 SHL SUB DUP10 DUP2 AND SWAP4 DUP3 ADD SWAP4 SWAP1 SWAP4 MSTORE SWAP2 AND SWAP1 PUSH4 0xFC57D4DF SWAP1 PUSH1 0x24 ADD PUSH1 0x20 PUSH1 0x40 MLOAD DUP1 DUP4 SUB DUP2 DUP7 GAS STATICCALL ISZERO DUP1 ISZERO PUSH2 0x313A JUMPI RETURNDATASIZE PUSH1 0x0 DUP1 RETURNDATACOPY RETURNDATASIZE PUSH1 0x0 REVERT JUMPDEST POP POP POP POP PUSH1 0x40 MLOAD RETURNDATASIZE PUSH1 0x1F NOT PUSH1 0x1F DUP3 ADD AND DUP3 ADD DUP1 PUSH1 0x40 MSTORE POP DUP2 ADD SWAP1 PUSH2 0x315E SWAP2 SWAP1 PUSH2 0x52A9 JUMP JUMPDEST ISZERO JUMPDEST ISZERO PUSH2 0x3171 JUMPI PUSH2 0x30DA PUSH1 0xD PUSH1 0x9 PUSH2 0x40F4 JUMP JUMPDEST PUSH1 0x1 DUP4 ADD DUP1 SLOAD SWAP1 DUP7 SWAP1 SSTORE PUSH1 0x40 DUP1 MLOAD PUSH1 0x1 PUSH1 0x1 PUSH1 0xA0 SHL SUB DUP10 AND DUP2 MSTORE PUSH1 0x20 DUP2 ADD DUP4 SWAP1 MSTORE SWAP1 DUP2 ADD DUP8 SWAP1 MSTORE PUSH32 0x70483E6592CD5182D45AC970E05BC62CDCC90E9D8EF2C2DBE686CF383BCD7FC5 SWAP1 PUSH1 0x60 ADD PUSH1 0x40 MLOAD DUP1 SWAP2 SUB SWAP1 LOG1 PUSH1 0x0 SWAP8 SWAP7 POP POP POP POP POP POP POP JUMP JUMPDEST PUSH2 0x123D DUP2 PUSH1 0xD DUP1 SLOAD DUP1 PUSH1 0x20 MUL PUSH1 0x20 ADD PUSH1 0x40 MLOAD SWAP1 DUP2 ADD PUSH1 0x40 MSTORE DUP1 SWAP3 SWAP2 SWAP1 DUP2 DUP2 MSTORE PUSH1 0x20 ADD DUP3 DUP1 SLOAD DUP1 ISZERO PUSH2 0x322C JUMPI PUSH1 0x20 MUL DUP3 ADD SWAP2 SWAP1 PUSH1 0x0 MSTORE PUSH1 0x20 PUSH1 0x0 KECCAK256 SWAP1 JUMPDEST DUP2 SLOAD PUSH1 0x1 PUSH1 0x1 PUSH1 0xA0 SHL SUB AND DUP2 MSTORE PUSH1 0x1 SWAP1 SWAP2 ADD SWAP1 PUSH1 0x20 ADD DUP1 DUP4 GT PUSH2 0x320E JUMPI JUMPDEST POP POP POP POP POP PUSH2 0x105F JUMP JUMPDEST PUSH1 0x0 DUP1 PUSH2 0x3244 DUP6 DUP6 DUP6 PUSH2 0x4535 JUMP JUMPDEST SWAP1 POP DUP1 ISZERO PUSH2 0x3253 JUMPI SWAP1 POP PUSH2 0x1585 JUMP JUMPDEST PUSH2 0x325C DUP6 PUSH2 0x3DDE JUMP JUMPDEST PUSH2 0x3266 DUP6 DUP6 PUSH2 0x3F56 JUMP JUMPDEST PUSH1 0x0 SWAP6 SWAP5 POP POP POP POP POP JUMP JUMPDEST PUSH1 0x40 MLOAD PUSH4 0x61BFB471 PUSH1 0xE1 SHL DUP2 MSTORE CALLER PUSH1 0x4 DUP3 ADD MSTORE PUSH1 0x0 SWAP1 DUP3 SWAP1 DUP3 SWAP1 DUP2 SWAP1 DUP2 SWAP1 PUSH1 0x1 PUSH1 0x1 PUSH1 0xA0 SHL SUB DUP6 AND SWAP1 PUSH4 0xC37F68E2 SWAP1 PUSH1 0x24 ADD PUSH1 0x80 PUSH1 0x40 MLOAD DUP1 DUP4 SUB DUP2 DUP7 GAS STATICCALL ISZERO DUP1 ISZERO PUSH2 0x32C0 JUMPI RETURNDATASIZE PUSH1 0x0 DUP1 RETURNDATACOPY RETURNDATASIZE PUSH1 0x0 REVERT JUMPDEST POP POP POP POP PUSH1 0x40 MLOAD RETURNDATASIZE PUSH1 0x1F NOT PUSH1 0x1F DUP3 ADD AND DUP3 ADD DUP1 PUSH1 0x40 MSTORE POP DUP2 ADD SWAP1 PUSH2 0x32E4 SWAP2 SWAP1 PUSH2 0x530B JUMP JUMPDEST POP SWAP3 POP SWAP3 POP SWAP3 POP DUP3 PUSH1 0x0 EQ PUSH2 0x3349 JUMPI PUSH1 0x40 MLOAD PUSH3 0x461BCD PUSH1 0xE5 SHL DUP2 MSTORE PUSH1 0x20 PUSH1 0x4 DUP3 ADD MSTORE PUSH1 0x25 PUSH1 0x24 DUP3 ADD MSTORE PUSH32 0x657869744D61726B65743A206765744163636F756E74536E617073686F742066 PUSH1 0x44 DUP3 ADD MSTORE PUSH5 0x185A5B1959 PUSH1 0xDA SHL PUSH1 0x64 DUP3 ADD MSTORE PUSH1 0x84 ADD PUSH2 0xCDD JUMP JUMPDEST DUP1 ISZERO PUSH2 0x3365 JUMPI PUSH2 0x335B PUSH1 0xC PUSH1 0x2 PUSH2 0x40F4 JUMP JUMPDEST SWAP7 SWAP6 POP POP POP POP POP POP JUMP JUMPDEST PUSH1 0x0 PUSH2 0x3372 DUP8 CALLER DUP6 PUSH2 0x4535 JUMP JUMPDEST SWAP1 POP DUP1 ISZERO PUSH2 0x3392 JUMPI PUSH2 0x3387 PUSH1 0xE PUSH1 0x3 DUP4 PUSH2 0x4764 JUMP JUMPDEST SWAP8 SWAP7 POP POP POP POP POP POP POP JUMP JUMPDEST PUSH1 0x1 PUSH1 0x1 PUSH1 0xA0 SHL SUB DUP6 AND PUSH1 0x0 SWAP1 DUP2 MSTORE PUSH1 0x9 PUSH1 0x20 SWAP1 DUP2 MSTORE PUSH1 0x40 DUP1 DUP4 KECCAK256 CALLER DUP5 MSTORE PUSH1 0x2 DUP2 ADD SWAP1 SWAP3 MSTORE SWAP1 SWAP2 KECCAK256 SLOAD PUSH1 0xFF AND PUSH2 0x33D0 JUMPI PUSH1 0x0 SWAP9 SWAP8 POP POP POP POP POP POP POP POP JUMP JUMPDEST CALLER PUSH1 0x0 SWAP1 DUP2 MSTORE PUSH1 0x2 DUP3 ADD PUSH1 0x20 SWAP1 DUP2 MSTORE PUSH1 0x40 DUP1 DUP4 KECCAK256 DUP1 SLOAD PUSH1 0xFF NOT AND SWAP1 SSTORE PUSH1 0x8 DUP3 MSTORE DUP1 DUP4 KECCAK256 DUP1 SLOAD DUP3 MLOAD DUP2 DUP6 MUL DUP2 ADD DUP6 ADD SWAP1 SWAP4 MSTORE DUP1 DUP4 MSTORE SWAP2 SWAP3 SWAP1 SWAP2 SWAP1 DUP4 ADD DUP3 DUP3 DUP1 ISZERO PUSH2 0x3442 JUMPI PUSH1 0x20 MUL DUP3 ADD SWAP2 SWAP1 PUSH1 0x0 MSTORE PUSH1 0x20 PUSH1 0x0 KECCAK256 SWAP1 JUMPDEST DUP2 SLOAD PUSH1 0x1 PUSH1 0x1 PUSH1 0xA0 SHL SUB AND DUP2 MSTORE PUSH1 0x1 SWAP1 SWAP2 ADD SWAP1 PUSH1 0x20 ADD DUP1 DUP4 GT PUSH2 0x3424 JUMPI JUMPDEST POP POP DUP4 MLOAD SWAP4 SWAP5 POP DUP4 SWAP3 POP PUSH1 0x0 SWAP2 POP POP JUMPDEST DUP3 DUP2 LT ISZERO PUSH2 0x34A7 JUMPI DUP10 PUSH1 0x1 PUSH1 0x1 PUSH1 0xA0 SHL SUB AND DUP5 DUP3 DUP2 MLOAD DUP2 LT PUSH2 0x3476 JUMPI PUSH2 0x3476 PUSH2 0x516F JUMP JUMPDEST PUSH1 0x20 MUL PUSH1 0x20 ADD ADD MLOAD PUSH1 0x1 PUSH1 0x1 PUSH1 0xA0 SHL SUB AND EQ ISZERO PUSH2 0x3495 JUMPI DUP1 SWAP2 POP PUSH2 0x34A7 JUMP JUMPDEST DUP1 PUSH2 0x349F DUP2 PUSH2 0x51B2 JUMP JUMPDEST SWAP2 POP POP PUSH2 0x3452 JUMP JUMPDEST POP DUP2 DUP2 LT PUSH2 0x34B7 JUMPI PUSH2 0x34B7 PUSH2 0x52F5 JUMP JUMPDEST CALLER PUSH1 0x0 SWAP1 DUP2 MSTORE PUSH1 0x8 PUSH1 0x20 MSTORE PUSH1 0x40 SWAP1 KECCAK256 DUP1 SLOAD DUP2 SWAP1 PUSH2 0x34D6 SWAP1 PUSH1 0x1 SWAP1 PUSH2 0x519B JUMP JUMPDEST DUP2 SLOAD DUP2 LT PUSH2 0x34E6 JUMPI PUSH2 0x34E6 PUSH2 0x516F JUMP JUMPDEST SWAP1 PUSH1 0x0 MSTORE PUSH1 0x20 PUSH1 0x0 KECCAK256 ADD PUSH1 0x0 SWAP1 SLOAD SWAP1 PUSH2 0x100 EXP SWAP1 DIV PUSH1 0x1 PUSH1 0x1 PUSH1 0xA0 SHL SUB AND DUP2 DUP4 DUP2 SLOAD DUP2 LT PUSH2 0x3516 JUMPI PUSH2 0x3516 PUSH2 0x516F JUMP JUMPDEST SWAP1 PUSH1 0x0 MSTORE PUSH1 0x20 PUSH1 0x0 KECCAK256 ADD PUSH1 0x0 PUSH2 0x100 EXP DUP2 SLOAD DUP2 PUSH1 0x1 PUSH1 0x1 PUSH1 0xA0 SHL SUB MUL NOT AND SWAP1 DUP4 PUSH1 0x1 PUSH1 0x1 PUSH1 0xA0 SHL SUB AND MUL OR SWAP1 SSTORE POP DUP1 DUP1 SLOAD DUP1 PUSH2 0x3554 JUMPI PUSH2 0x3554 PUSH2 0x5341 JUMP JUMPDEST PUSH1 0x0 DUP3 DUP2 MSTORE PUSH1 0x20 SWAP1 KECCAK256 DUP2 ADD PUSH1 0x0 NOT SWAP1 DUP2 ADD DUP1 SLOAD PUSH1 0x1 PUSH1 0x1 PUSH1 0xA0 SHL SUB NOT AND SWAP1 SSTORE ADD SWAP1 SSTORE PUSH1 0x40 MLOAD PUSH32 0xE699A64C18B07AC5B7301AA273F36A2287239EB9501D81950672794AFBA29A0D SWAP1 PUSH2 0x35BD SWAP1 DUP13 SWAP1 CALLER SWAP1 PUSH1 0x1 PUSH1 0x1 PUSH1 0xA0 SHL SUB SWAP3 DUP4 AND DUP2 MSTORE SWAP2 AND PUSH1 0x20 DUP3 ADD MSTORE PUSH1 0x40 ADD SWAP1 JUMP JUMPDEST PUSH1 0x40 MLOAD DUP1 SWAP2 SUB SWAP1 LOG1 PUSH1 0x0 SWAP13 SWAP12 POP POP POP POP POP POP POP POP POP POP POP POP JUMP JUMPDEST PUSH1 0x0 PUSH2 0x1585 DUP3 DUP5 PUSH2 0x5357 JUMP JUMPDEST PUSH1 0x0 PUSH2 0x1585 DUP3 DUP5 PUSH2 0x519B JUMP JUMPDEST PUSH1 0x1 PUSH1 0x1 PUSH1 0xA0 SHL SUB DUP3 AND PUSH1 0x0 SWAP1 DUP2 MSTORE PUSH1 0x11 PUSH1 0x20 SWAP1 DUP2 MSTORE PUSH1 0x40 DUP1 DUP4 KECCAK256 PUSH1 0x19 SWAP1 SWAP3 MSTORE DUP3 KECCAK256 SLOAD SWAP1 SWAP2 PUSH2 0x3654 NUMBER JUMPDEST PUSH1 0x40 MLOAD DUP1 PUSH1 0x40 ADD PUSH1 0x40 MSTORE DUP1 PUSH1 0x1C DUP2 MSTORE PUSH1 0x20 ADD PUSH32 0x626C6F636B206E756D6265722065786365656473203332206269747300000000 DUP2 MSTORE POP PUSH2 0x47DC JUMP JUMPDEST DUP4 SLOAD SWAP1 SWAP2 POP PUSH1 0x0 SWAP1 PUSH2 0x3676 SWAP1 PUSH4 0xFFFFFFFF DUP1 DUP6 AND SWAP2 PUSH1 0x1 PUSH1 0xE0 SHL SWAP1 DIV AND PUSH2 0x35E3 JUMP JUMPDEST SWAP1 POP PUSH1 0x0 DUP2 GT DUP1 ISZERO PUSH2 0x3688 JUMPI POP PUSH1 0x0 DUP4 GT JUMPDEST ISZERO PUSH2 0x37B7 JUMPI PUSH1 0x0 PUSH2 0x36FA DUP8 PUSH1 0x1 PUSH1 0x1 PUSH1 0xA0 SHL SUB AND PUSH4 0x47BD3718 PUSH1 0x40 MLOAD DUP2 PUSH4 0xFFFFFFFF AND PUSH1 0xE0 SHL DUP2 MSTORE PUSH1 0x4 ADD PUSH1 0x20 PUSH1 0x40 MLOAD DUP1 DUP4 SUB DUP2 DUP7 GAS STATICCALL ISZERO DUP1 ISZERO PUSH2 0x36D0 JUMPI RETURNDATASIZE PUSH1 0x0 DUP1 RETURNDATACOPY RETURNDATASIZE PUSH1 0x0 REVERT JUMPDEST POP POP POP POP PUSH1 0x40 MLOAD RETURNDATASIZE PUSH1 0x1F NOT PUSH1 0x1F DUP3 ADD AND DUP3 ADD DUP1 PUSH1 0x40 MSTORE POP DUP2 ADD SWAP1 PUSH2 0x36F4 SWAP2 SWAP1 PUSH2 0x52A9 JUMP JUMPDEST DUP8 PUSH2 0x480C JUMP JUMPDEST SWAP1 POP PUSH1 0x0 PUSH2 0x3708 DUP4 DUP7 PUSH2 0x41A5 JUMP JUMPDEST SWAP1 POP PUSH1 0x0 DUP1 DUP4 GT PUSH2 0x3728 JUMPI PUSH1 0x40 MLOAD DUP1 PUSH1 0x20 ADD PUSH1 0x40 MSTORE DUP1 PUSH1 0x0 DUP2 MSTORE POP PUSH2 0x3732 JUMP JUMPDEST PUSH2 0x3732 DUP3 DUP5 PUSH2 0x482A JUMP JUMPDEST PUSH1 0x40 DUP1 MLOAD PUSH1 0x20 DUP2 ADD SWAP1 SWAP2 MSTORE DUP9 SLOAD PUSH1 0x1 PUSH1 0x1 PUSH1 0xE0 SHL SUB AND DUP2 MSTORE SWAP1 SWAP2 POP PUSH2 0x3795 SWAP1 PUSH2 0x375B SWAP1 DUP4 PUSH2 0x4865 JUMP JUMPDEST MLOAD PUSH1 0x40 DUP1 MLOAD DUP1 DUP3 ADD SWAP1 SWAP2 MSTORE PUSH1 0x1A DUP2 MSTORE PUSH32 0x6E657720696E6465782065786365656473203232342062697473000000000000 PUSH1 0x20 DUP3 ADD MSTORE PUSH2 0x4891 JUMP JUMPDEST PUSH1 0x1 PUSH1 0x1 PUSH1 0xE0 SHL SUB AND PUSH1 0x1 PUSH1 0xE0 SHL PUSH4 0xFFFFFFFF DUP8 AND MUL OR DUP8 SSTORE POP PUSH2 0x63C SWAP2 POP POP JUMP JUMPDEST DUP1 ISZERO PUSH2 0x63C JUMPI DUP4 SLOAD PUSH4 0xFFFFFFFF DUP4 AND PUSH1 0x1 PUSH1 0xE0 SHL MUL PUSH1 0x1 PUSH1 0x1 PUSH1 0xE0 SHL SUB SWAP1 SWAP2 AND OR DUP5 SSTORE POP POP POP POP POP POP JUMP JUMPDEST PUSH1 0x1 PUSH1 0x1 PUSH1 0xA0 SHL SUB DUP4 DUP2 AND PUSH1 0x0 SWAP1 DUP2 MSTORE PUSH1 0x11 PUSH1 0x20 SWAP1 DUP2 MSTORE PUSH1 0x40 DUP1 DUP4 KECCAK256 DUP1 SLOAD PUSH1 0x13 DUP5 MSTORE DUP3 DUP6 KECCAK256 SWAP6 DUP9 AND DUP6 MSTORE SWAP5 SWAP1 SWAP3 MSTORE SWAP1 SWAP2 KECCAK256 DUP1 SLOAD PUSH1 0x1 PUSH1 0x1 PUSH1 0xE0 SHL SUB SWAP1 SWAP4 AND SWAP1 DUP2 SWAP1 SSTORE SWAP1 SWAP2 DUP1 ISZERO DUP1 ISZERO PUSH2 0x3842 JUMPI POP PUSH11 0xC097CE7BC90715B34B9F1 PUSH1 0x24 SHL DUP3 LT ISZERO JUMPDEST ISZERO PUSH2 0x3858 JUMPI POP PUSH11 0xC097CE7BC90715B34B9F1 PUSH1 0x24 SHL JUMPDEST PUSH1 0x0 PUSH1 0x40 MLOAD DUP1 PUSH1 0x20 ADD PUSH1 0x40 MSTORE DUP1 PUSH2 0x386F DUP6 DUP6 PUSH2 0x35E3 JUMP JUMPDEST SWAP1 MSTORE PUSH1 0x40 MLOAD PUSH4 0x95DD9193 PUSH1 0xE0 SHL DUP2 MSTORE PUSH1 0x1 PUSH1 0x1 PUSH1 0xA0 SHL SUB DUP9 DUP2 AND PUSH1 0x4 DUP4 ADD MSTORE SWAP2 SWAP3 POP PUSH1 0x0 SWAP2 PUSH2 0x38C2 SWAP2 SWAP1 DUP11 AND SWAP1 PUSH4 0x95DD9193 SWAP1 PUSH1 0x24 ADD PUSH1 0x20 PUSH1 0x40 MLOAD DUP1 DUP4 SUB DUP2 DUP7 GAS STATICCALL ISZERO DUP1 ISZERO PUSH2 0x36D0 JUMPI RETURNDATASIZE PUSH1 0x0 DUP1 RETURNDATACOPY RETURNDATASIZE PUSH1 0x0 REVERT JUMPDEST SWAP1 POP PUSH1 0x0 PUSH2 0x38D0 DUP3 DUP5 PUSH2 0x48B8 JUMP JUMPDEST PUSH1 0x1 PUSH1 0x1 PUSH1 0xA0 SHL SUB DUP10 AND PUSH1 0x0 SWAP1 DUP2 MSTORE PUSH1 0x14 PUSH1 0x20 MSTORE PUSH1 0x40 DUP2 KECCAK256 SLOAD SWAP2 SWAP3 POP SWAP1 PUSH2 0x38F7 SWAP1 DUP4 PUSH2 0x35D7 JUMP JUMPDEST PUSH1 0x1 PUSH1 0x1 PUSH1 0xA0 SHL SUB DUP11 DUP2 AND PUSH1 0x0 DUP2 DUP2 MSTORE PUSH1 0x14 PUSH1 0x20 SWAP1 DUP2 MSTORE PUSH1 0x40 SWAP2 DUP3 SWAP1 KECCAK256 DUP6 SWAP1 SSTORE DUP2 MLOAD DUP8 DUP2 MSTORE SWAP1 DUP2 ADD DUP12 SWAP1 MSTORE SWAP4 SWAP5 POP SWAP1 SWAP3 SWAP2 DUP14 AND SWAP2 PUSH32 0x1FC3ECC087D8D2D15E23D0032AF5A47059C3892D003D8E139FDCB6BB327C99A6 SWAP2 ADD PUSH1 0x40 MLOAD DUP1 SWAP2 SUB SWAP1 LOG3 POP POP POP POP POP POP POP POP POP POP JUMP JUMPDEST PUSH1 0x0 DUP1 SLOAD PUSH1 0x1 PUSH1 0x1 PUSH1 0xA0 SHL SUB AND CALLER EQ DUP1 PUSH2 0x3986 JUMPI POP PUSH1 0x2 SLOAD PUSH1 0x1 PUSH1 0x1 PUSH1 0xA0 SHL SUB AND CALLER EQ JUMPDEST SWAP1 POP SWAP1 JUMP JUMPDEST PUSH1 0x0 DUP1 PUSH20 0xC00E94CB662C3520282E6F5717214004A7F26888 PUSH1 0x40 MLOAD PUSH4 0x70A08231 PUSH1 0xE0 SHL DUP2 MSTORE ADDRESS PUSH1 0x4 DUP3 ADD MSTORE SWAP1 SWAP2 POP PUSH1 0x0 SWAP1 PUSH1 0x1 PUSH1 0x1 PUSH1 0xA0 SHL SUB DUP4 AND SWAP1 PUSH4 0x70A08231 SWAP1 PUSH1 0x24 ADD PUSH1 0x20 PUSH1 0x40 MLOAD DUP1 DUP4 SUB DUP2 DUP7 GAS STATICCALL ISZERO DUP1 ISZERO PUSH2 0x39ED JUMPI RETURNDATASIZE PUSH1 0x0 DUP1 RETURNDATACOPY RETURNDATASIZE PUSH1 0x0 REVERT JUMPDEST POP POP POP POP PUSH1 0x40 MLOAD RETURNDATASIZE PUSH1 0x1F NOT PUSH1 0x1F DUP3 ADD AND DUP3 ADD DUP1 PUSH1 0x40 MSTORE POP DUP2 ADD SWAP1 PUSH2 0x3A11 SWAP2 SWAP1 PUSH2 0x52A9 JUMP JUMPDEST SWAP1 POP PUSH1 0x0 DUP5 GT DUP1 ISZERO PUSH2 0x3A23 JUMPI POP DUP1 DUP5 GT ISZERO JUMPDEST ISZERO PUSH2 0x3AA7 JUMPI PUSH1 0x40 MLOAD PUSH4 0xA9059CBB PUSH1 0xE0 SHL DUP2 MSTORE PUSH1 0x1 PUSH1 0x1 PUSH1 0xA0 SHL SUB DUP7 DUP2 AND PUSH1 0x4 DUP4 ADD MSTORE PUSH1 0x24 DUP3 ADD DUP7 SWAP1 MSTORE DUP4 AND SWAP1 PUSH4 0xA9059CBB SWAP1 PUSH1 0x44 ADD PUSH1 0x20 PUSH1 0x40 MLOAD DUP1 DUP4 SUB DUP2 PUSH1 0x0 DUP8 GAS CALL ISZERO DUP1 ISZERO PUSH2 0x3A77 JUMPI RETURNDATASIZE PUSH1 0x0 DUP1 RETURNDATACOPY RETURNDATASIZE PUSH1 0x0 REVERT JUMPDEST POP POP POP POP PUSH1 0x40 MLOAD RETURNDATASIZE PUSH1 0x1F NOT PUSH1 0x1F DUP3 ADD AND DUP3 ADD DUP1 PUSH1 0x40 MSTORE POP DUP2 ADD SWAP1 PUSH2 0x3A9B SWAP2 SWAP1 PUSH2 0x52D8 JUMP JUMPDEST POP PUSH1 0x0 SWAP3 POP POP POP PUSH2 0x1059 JUMP JUMPDEST POP SWAP2 SWAP4 SWAP3 POP POP POP JUMP JUMPDEST PUSH1 0x0 DUP1 PUSH1 0x0 PUSH2 0x3ABD PUSH2 0x494E JUMP JUMPDEST PUSH1 0x1 PUSH1 0x1 PUSH1 0xA0 SHL SUB DUP9 AND PUSH1 0x0 SWAP1 DUP2 MSTORE PUSH1 0x8 PUSH1 0x20 SWAP1 DUP2 MSTORE PUSH1 0x40 DUP1 DUP4 KECCAK256 DUP1 SLOAD DUP3 MLOAD DUP2 DUP6 MUL DUP2 ADD DUP6 ADD SWAP1 SWAP4 MSTORE DUP1 DUP4 MSTORE DUP5 SWAP4 DUP4 ADD DUP3 DUP3 DUP1 ISZERO PUSH2 0x3B24 JUMPI PUSH1 0x20 MUL DUP3 ADD SWAP2 SWAP1 PUSH1 0x0 MSTORE PUSH1 0x20 PUSH1 0x0 KECCAK256 SWAP1 JUMPDEST DUP2 SLOAD PUSH1 0x1 PUSH1 0x1 PUSH1 0xA0 SHL SUB AND DUP2 MSTORE PUSH1 0x1 SWAP1 SWAP2 ADD SWAP1 PUSH1 0x20 ADD DUP1 DUP4 GT PUSH2 0x3B06 JUMPI JUMPDEST POP POP POP POP POP SWAP1 POP PUSH1 0x0 JUMPDEST DUP2 MLOAD DUP2 LT ISZERO PUSH2 0x3D88 JUMPI PUSH1 0x0 DUP3 DUP3 DUP2 MLOAD DUP2 LT PUSH2 0x3B4B JUMPI PUSH2 0x3B4B PUSH2 0x516F JUMP JUMPDEST PUSH1 0x20 SWAP1 DUP2 MUL SWAP2 SWAP1 SWAP2 ADD ADD MLOAD PUSH1 0x40 MLOAD PUSH4 0x61BFB471 PUSH1 0xE1 SHL DUP2 MSTORE PUSH1 0x1 PUSH1 0x1 PUSH1 0xA0 SHL SUB DUP15 DUP2 AND PUSH1 0x4 DUP4 ADD MSTORE SWAP2 SWAP3 POP SWAP1 DUP3 AND SWAP1 PUSH4 0xC37F68E2 SWAP1 PUSH1 0x24 ADD PUSH1 0x80 PUSH1 0x40 MLOAD DUP1 DUP4 SUB DUP2 DUP7 GAS STATICCALL ISZERO DUP1 ISZERO PUSH2 0x3BA0 JUMPI RETURNDATASIZE PUSH1 0x0 DUP1 RETURNDATACOPY RETURNDATASIZE PUSH1 0x0 REVERT JUMPDEST POP POP POP POP PUSH1 0x40 MLOAD RETURNDATASIZE PUSH1 0x1F NOT PUSH1 0x1F DUP3 ADD AND DUP3 ADD DUP1 PUSH1 0x40 MSTORE POP DUP2 ADD SWAP1 PUSH2 0x3BC4 SWAP2 SWAP1 PUSH2 0x530B JUMP JUMPDEST PUSH1 0x80 DUP10 ADD MSTORE PUSH1 0x60 DUP9 ADD MSTORE PUSH1 0x40 DUP8 ADD MSTORE SWAP4 POP DUP4 ISZERO PUSH2 0x3BF0 JUMPI PUSH1 0xF PUSH1 0x0 DUP1 SWAP8 POP SWAP8 POP SWAP8 POP POP POP POP POP POP PUSH2 0x17B6 JUMP JUMPDEST PUSH1 0x40 DUP1 MLOAD PUSH1 0x20 DUP1 DUP3 ADD DUP4 MSTORE PUSH1 0x1 PUSH1 0x1 PUSH1 0xA0 SHL SUB DUP5 DUP2 AND PUSH1 0x0 DUP2 DUP2 MSTORE PUSH1 0x9 DUP5 MSTORE DUP6 SWAP1 KECCAK256 PUSH1 0x1 ADD SLOAD DUP5 MSTORE PUSH1 0xC0 DUP11 ADD SWAP4 SWAP1 SWAP4 MSTORE DUP4 MLOAD DUP1 DUP4 ADD DUP6 MSTORE PUSH1 0x80 DUP11 ADD MLOAD DUP2 MSTORE PUSH1 0xE0 DUP11 ADD MSTORE PUSH1 0x4 DUP1 SLOAD DUP6 MLOAD PUSH4 0xFC57D4DF PUSH1 0xE0 SHL DUP2 MSTORE SWAP2 DUP3 ADD SWAP5 SWAP1 SWAP5 MSTORE SWAP4 MLOAD SWAP3 AND SWAP3 PUSH4 0xFC57D4DF SWAP3 PUSH1 0x24 DUP1 DUP4 ADD SWAP4 SWAP3 DUP3 SWAP1 SUB ADD DUP2 DUP7 GAS STATICCALL ISZERO DUP1 ISZERO PUSH2 0x3C75 JUMPI RETURNDATASIZE PUSH1 0x0 DUP1 RETURNDATACOPY RETURNDATASIZE PUSH1 0x0 REVERT JUMPDEST POP POP POP POP PUSH1 0x40 MLOAD RETURNDATASIZE PUSH1 0x1F NOT PUSH1 0x1F DUP3 ADD AND DUP3 ADD DUP1 PUSH1 0x40 MSTORE POP DUP2 ADD SWAP1 PUSH2 0x3C99 SWAP2 SWAP1 PUSH2 0x52A9 JUMP JUMPDEST PUSH1 0xA0 DUP7 ADD DUP2 SWAP1 MSTORE PUSH2 0x3CB9 JUMPI PUSH1 0xD PUSH1 0x0 DUP1 SWAP8 POP SWAP8 POP SWAP8 POP POP POP POP POP POP PUSH2 0x17B6 JUMP JUMPDEST PUSH1 0x40 DUP1 MLOAD PUSH1 0x20 DUP2 ADD SWAP1 SWAP2 MSTORE PUSH1 0xA0 DUP7 ADD MLOAD DUP2 MSTORE PUSH2 0x100 DUP7 ADD MSTORE PUSH1 0xC0 DUP6 ADD MLOAD PUSH1 0xE0 DUP7 ADD MLOAD PUSH2 0x3CF3 SWAP2 PUSH2 0x3CE8 SWAP2 PUSH2 0x46E2 JUMP JUMPDEST DUP7 PUSH2 0x100 ADD MLOAD PUSH2 0x46E2 JUMP JUMPDEST PUSH2 0x120 DUP7 ADD DUP2 SWAP1 MSTORE PUSH1 0x40 DUP7 ADD MLOAD DUP7 MLOAD PUSH2 0x3D0D SWAP3 SWAP2 SWAP1 PUSH2 0x48E1 JUMP JUMPDEST DUP6 MSTORE PUSH2 0x100 DUP6 ADD MLOAD PUSH1 0x60 DUP7 ADD MLOAD PUSH1 0x20 DUP8 ADD MLOAD PUSH2 0x3D2A SWAP3 SWAP2 SWAP1 PUSH2 0x48E1 JUMP JUMPDEST PUSH1 0x20 DUP7 ADD MSTORE PUSH1 0x1 PUSH1 0x1 PUSH1 0xA0 SHL SUB DUP2 DUP2 AND SWAP1 DUP13 AND EQ ISZERO PUSH2 0x3D75 JUMPI PUSH2 0x3D57 DUP6 PUSH2 0x120 ADD MLOAD DUP12 DUP8 PUSH1 0x20 ADD MLOAD PUSH2 0x48E1 JUMP JUMPDEST PUSH1 0x20 DUP7 ADD DUP2 SWAP1 MSTORE PUSH2 0x100 DUP7 ADD MLOAD PUSH2 0x3D6F SWAP2 DUP12 SWAP1 PUSH2 0x48E1 JUMP JUMPDEST PUSH1 0x20 DUP7 ADD MSTORE JUMPDEST POP DUP1 PUSH2 0x3D80 DUP2 PUSH2 0x51B2 JUMP JUMPDEST SWAP2 POP POP PUSH2 0x3B2E JUMP JUMPDEST POP PUSH1 0x20 DUP4 ADD MLOAD DUP4 MLOAD GT ISZERO PUSH2 0x3DB9 JUMPI PUSH1 0x20 DUP4 ADD MLOAD DUP4 MLOAD PUSH1 0x0 SWAP2 PUSH2 0x3DA9 SWAP2 PUSH2 0x519B JUMP JUMPDEST PUSH1 0x0 SWAP6 POP SWAP6 POP SWAP6 POP POP POP POP PUSH2 0x17B6 JUMP JUMPDEST PUSH1 0x0 DUP1 DUP5 PUSH1 0x0 ADD MLOAD DUP6 PUSH1 0x20 ADD MLOAD PUSH2 0x3DD0 SWAP2 SWAP1 PUSH2 0x519B JUMP JUMPDEST SWAP6 POP SWAP6 POP SWAP6 POP POP POP POP PUSH2 0x17B6 JUMP JUMPDEST PUSH1 0x1 PUSH1 0x1 PUSH1 0xA0 SHL SUB DUP2 AND PUSH1 0x0 SWAP1 DUP2 MSTORE PUSH1 0x10 PUSH1 0x20 SWAP1 DUP2 MSTORE PUSH1 0x40 DUP1 DUP4 KECCAK256 PUSH1 0x1A SWAP1 SWAP3 MSTORE DUP3 KECCAK256 SLOAD SWAP1 SWAP2 PUSH2 0x3E0C NUMBER PUSH2 0x3619 JUMP JUMPDEST DUP4 SLOAD SWAP1 SWAP2 POP PUSH1 0x0 SWAP1 PUSH2 0x3E2E SWAP1 PUSH4 0xFFFFFFFF DUP1 DUP6 AND SWAP2 PUSH1 0x1 PUSH1 0xE0 SHL SWAP1 DIV AND PUSH2 0x35E3 JUMP JUMPDEST SWAP1 POP PUSH1 0x0 DUP2 GT DUP1 ISZERO PUSH2 0x3E40 JUMPI POP PUSH1 0x0 DUP4 GT JUMPDEST ISZERO PUSH2 0x3F2C JUMPI PUSH1 0x0 DUP6 PUSH1 0x1 PUSH1 0x1 PUSH1 0xA0 SHL SUB AND PUSH4 0x18160DDD PUSH1 0x40 MLOAD DUP2 PUSH4 0xFFFFFFFF AND PUSH1 0xE0 SHL DUP2 MSTORE PUSH1 0x4 ADD PUSH1 0x20 PUSH1 0x40 MLOAD DUP1 DUP4 SUB DUP2 DUP7 GAS STATICCALL ISZERO DUP1 ISZERO PUSH2 0x3E85 JUMPI RETURNDATASIZE PUSH1 0x0 DUP1 RETURNDATACOPY RETURNDATASIZE PUSH1 0x0 REVERT JUMPDEST POP POP POP POP PUSH1 0x40 MLOAD RETURNDATASIZE PUSH1 0x1F NOT PUSH1 0x1F DUP3 ADD AND DUP3 ADD DUP1 PUSH1 0x40 MSTORE POP DUP2 ADD SWAP1 PUSH2 0x3EA9 SWAP2 SWAP1 PUSH2 0x52A9 JUMP JUMPDEST SWAP1 POP PUSH1 0x0 PUSH2 0x3EB7 DUP4 DUP7 PUSH2 0x41A5 JUMP JUMPDEST SWAP1 POP PUSH1 0x0 DUP1 DUP4 GT PUSH2 0x3ED7 JUMPI PUSH1 0x40 MLOAD DUP1 PUSH1 0x20 ADD PUSH1 0x40 MSTORE DUP1 PUSH1 0x0 DUP2 MSTORE POP PUSH2 0x3EE1 JUMP JUMPDEST PUSH2 0x3EE1 DUP3 DUP5 PUSH2 0x482A JUMP JUMPDEST PUSH1 0x40 DUP1 MLOAD PUSH1 0x20 DUP2 ADD SWAP1 SWAP2 MSTORE DUP9 SLOAD PUSH1 0x1 PUSH1 0x1 PUSH1 0xE0 SHL SUB AND DUP2 MSTORE SWAP1 SWAP2 POP PUSH2 0x3F0A SWAP1 PUSH2 0x375B SWAP1 DUP4 PUSH2 0x4865 JUMP JUMPDEST PUSH1 0x1 PUSH1 0x1 PUSH1 0xE0 SHL SUB AND PUSH1 0x1 PUSH1 0xE0 SHL PUSH4 0xFFFFFFFF DUP8 AND MUL OR DUP8 SSTORE POP PUSH2 0x536 SWAP2 POP POP JUMP JUMPDEST DUP1 ISZERO PUSH2 0x536 JUMPI DUP4 SLOAD PUSH4 0xFFFFFFFF DUP4 AND PUSH1 0x1 PUSH1 0xE0 SHL MUL PUSH1 0x1 PUSH1 0x1 PUSH1 0xE0 SHL SUB SWAP1 SWAP2 AND OR DUP5 SSTORE POP POP POP POP POP JUMP JUMPDEST PUSH1 0x1 PUSH1 0x1 PUSH1 0xA0 SHL SUB DUP3 DUP2 AND PUSH1 0x0 SWAP1 DUP2 MSTORE PUSH1 0x10 PUSH1 0x20 SWAP1 DUP2 MSTORE PUSH1 0x40 DUP1 DUP4 KECCAK256 DUP1 SLOAD PUSH1 0x12 DUP5 MSTORE DUP3 DUP6 KECCAK256 SWAP6 DUP8 AND DUP6 MSTORE SWAP5 SWAP1 SWAP3 MSTORE SWAP1 SWAP2 KECCAK256 DUP1 SLOAD PUSH1 0x1 PUSH1 0x1 PUSH1 0xE0 SHL SUB SWAP1 SWAP4 AND SWAP1 DUP2 SWAP1 SSTORE SWAP1 SWAP2 DUP1 ISZERO DUP1 ISZERO PUSH2 0x3FB6 JUMPI POP PUSH11 0xC097CE7BC90715B34B9F1 PUSH1 0x24 SHL DUP3 LT ISZERO JUMPDEST ISZERO PUSH2 0x3FCC JUMPI POP PUSH11 0xC097CE7BC90715B34B9F1 PUSH1 0x24 SHL JUMPDEST PUSH1 0x0 PUSH1 0x40 MLOAD DUP1 PUSH1 0x20 ADD PUSH1 0x40 MSTORE DUP1 PUSH2 0x3FE3 DUP6 DUP6 PUSH2 0x35E3 JUMP JUMPDEST SWAP1 MSTORE PUSH1 0x40 MLOAD PUSH4 0x70A08231 PUSH1 0xE0 SHL DUP2 MSTORE PUSH1 0x1 PUSH1 0x1 PUSH1 0xA0 SHL SUB DUP8 DUP2 AND PUSH1 0x4 DUP4 ADD MSTORE SWAP2 SWAP3 POP PUSH1 0x0 SWAP2 DUP9 AND SWAP1 PUSH4 0x70A08231 SWAP1 PUSH1 0x24 ADD PUSH1 0x20 PUSH1 0x40 MLOAD DUP1 DUP4 SUB DUP2 DUP7 GAS STATICCALL ISZERO DUP1 ISZERO PUSH2 0x4031 JUMPI RETURNDATASIZE PUSH1 0x0 DUP1 RETURNDATACOPY RETURNDATASIZE PUSH1 0x0 REVERT JUMPDEST POP POP POP POP PUSH1 0x40 MLOAD RETURNDATASIZE PUSH1 0x1F NOT PUSH1 0x1F DUP3 ADD AND DUP3 ADD DUP1 PUSH1 0x40 MSTORE POP DUP2 ADD SWAP1 PUSH2 0x4055 SWAP2 SWAP1 PUSH2 0x52A9 JUMP JUMPDEST SWAP1 POP PUSH1 0x0 PUSH2 0x4063 DUP3 DUP5 PUSH2 0x48B8 JUMP JUMPDEST PUSH1 0x1 PUSH1 0x1 PUSH1 0xA0 SHL SUB DUP9 AND PUSH1 0x0 SWAP1 DUP2 MSTORE PUSH1 0x14 PUSH1 0x20 MSTORE PUSH1 0x40 DUP2 KECCAK256 SLOAD SWAP2 SWAP3 POP SWAP1 PUSH2 0x408A SWAP1 DUP4 PUSH2 0x35D7 JUMP JUMPDEST PUSH1 0x1 PUSH1 0x1 PUSH1 0xA0 SHL SUB DUP10 DUP2 AND PUSH1 0x0 DUP2 DUP2 MSTORE PUSH1 0x14 PUSH1 0x20 SWAP1 DUP2 MSTORE PUSH1 0x40 SWAP2 DUP3 SWAP1 KECCAK256 DUP6 SWAP1 SSTORE DUP2 MLOAD DUP8 DUP2 MSTORE SWAP1 DUP2 ADD DUP12 SWAP1 MSTORE SWAP4 SWAP5 POP SWAP1 SWAP3 SWAP2 DUP13 AND SWAP2 PUSH32 0x2CAECD17D02F56FA897705DCC740DA2D237C373F70686F4E0D9BD3BF0400EA7A SWAP2 ADD PUSH1 0x40 MLOAD DUP1 SWAP2 SUB SWAP1 LOG3 POP POP POP POP POP POP POP POP POP JUMP JUMPDEST PUSH1 0x0 PUSH32 0x45B96FE442630264581B197E84BBADA861235052C5A1AADFFF9EA4E40A969AA0 DUP4 PUSH1 0x11 DUP2 GT ISZERO PUSH2 0x4129 JUMPI PUSH2 0x4129 PUSH2 0x52C2 JUMP JUMPDEST DUP4 PUSH1 0x13 DUP2 GT ISZERO PUSH2 0x413B JUMPI PUSH2 0x413B PUSH2 0x52C2 JUMP JUMPDEST PUSH1 0x40 DUP1 MLOAD SWAP3 DUP4 MSTORE PUSH1 0x20 DUP4 ADD SWAP2 SWAP1 SWAP2 MSTORE PUSH1 0x0 SWAP1 DUP3 ADD MSTORE PUSH1 0x60 ADD PUSH1 0x40 MLOAD DUP1 SWAP2 SUB SWAP1 LOG1 DUP3 PUSH1 0x11 DUP2 GT ISZERO PUSH2 0x1585 JUMPI PUSH2 0x1585 PUSH2 0x52C2 JUMP JUMPDEST PUSH1 0x0 DUP1 PUSH1 0x0 PUSH2 0x4180 DUP5 PUSH1 0x0 DUP1 PUSH1 0x0 PUSH2 0x3AB0 JUMP JUMPDEST SWAP3 POP SWAP3 POP SWAP3 POP SWAP2 SWAP4 SWAP1 SWAP3 POP JUMP JUMPDEST PUSH1 0x0 DUP1 PUSH2 0x419A DUP5 DUP5 PUSH2 0x4902 JUMP JUMPDEST SWAP1 POP PUSH2 0x12F6 DUP2 PUSH2 0x492A JUMP JUMPDEST PUSH1 0x0 PUSH2 0x1585 DUP3 DUP5 PUSH2 0x536F JUMP JUMPDEST PUSH1 0x0 JUMPDEST PUSH1 0xD SLOAD DUP2 LT ISZERO PUSH2 0x4247 JUMPI DUP2 PUSH1 0x1 PUSH1 0x1 PUSH1 0xA0 SHL SUB AND PUSH1 0xD DUP3 DUP2 SLOAD DUP2 LT PUSH2 0x41DB JUMPI PUSH2 0x41DB PUSH2 0x516F JUMP JUMPDEST PUSH1 0x0 SWAP2 DUP3 MSTORE PUSH1 0x20 SWAP1 SWAP2 KECCAK256 ADD SLOAD PUSH1 0x1 PUSH1 0x1 PUSH1 0xA0 SHL SUB AND EQ ISZERO PUSH2 0x4235 JUMPI PUSH1 0x40 MLOAD PUSH3 0x461BCD PUSH1 0xE5 SHL DUP2 MSTORE PUSH1 0x20 PUSH1 0x4 DUP3 ADD MSTORE PUSH1 0x14 PUSH1 0x24 DUP3 ADD MSTORE PUSH20 0x1B585C9AD95D08185B1C9958591E481859191959 PUSH1 0x62 SHL PUSH1 0x44 DUP3 ADD MSTORE PUSH1 0x64 ADD PUSH2 0xCDD JUMP JUMPDEST DUP1 PUSH2 0x423F DUP2 PUSH2 0x51B2 JUMP JUMPDEST SWAP2 POP POP PUSH2 0x41B4 JUMP JUMPDEST POP PUSH1 0xD DUP1 SLOAD PUSH1 0x1 DUP2 ADD DUP3 SSTORE PUSH1 0x0 SWAP2 SWAP1 SWAP2 MSTORE PUSH32 0xD7B6990105719101DABEB77144F2A3385C8033ACD3AF97E9423A695E81AD1EB5 ADD DUP1 SLOAD PUSH1 0x1 PUSH1 0x1 PUSH1 0xA0 SHL SUB NOT AND PUSH1 0x1 PUSH1 0x1 PUSH1 0xA0 SHL SUB SWAP3 SWAP1 SWAP3 AND SWAP2 SWAP1 SWAP2 OR SWAP1 SSTORE JUMP JUMPDEST PUSH1 0x0 PUSH2 0x42A5 NUMBER PUSH2 0x3619 JUMP JUMPDEST PUSH1 0x1 PUSH1 0x1 PUSH1 0xA0 SHL SUB DUP4 AND PUSH1 0x0 SWAP1 DUP2 MSTORE PUSH1 0x10 PUSH1 0x20 SWAP1 DUP2 MSTORE PUSH1 0x40 DUP1 DUP4 KECCAK256 PUSH1 0x11 SWAP1 SWAP3 MSTORE SWAP1 SWAP2 KECCAK256 DUP2 SLOAD SWAP3 SWAP4 POP SWAP1 SWAP2 PUSH1 0x1 PUSH1 0x1 PUSH1 0xE0 SHL SUB AND PUSH2 0x42FB JUMPI DUP2 SLOAD PUSH1 0x1 PUSH1 0x1 PUSH1 0xE0 SHL SUB NOT AND PUSH11 0xC097CE7BC90715B34B9F1 PUSH1 0x24 SHL OR DUP3 SSTORE JUMPDEST DUP1 SLOAD PUSH1 0x1 PUSH1 0x1 PUSH1 0xE0 SHL SUB AND PUSH2 0x4329 JUMPI DUP1 SLOAD PUSH1 0x1 PUSH1 0x1 PUSH1 0xE0 SHL SUB NOT AND PUSH11 0xC097CE7BC90715B34B9F1 PUSH1 0x24 SHL OR DUP2 SSTORE JUMPDEST DUP1 SLOAD PUSH4 0xFFFFFFFF SWAP1 SWAP4 AND PUSH1 0x1 PUSH1 0xE0 SHL MUL PUSH1 0x1 PUSH1 0x1 PUSH1 0xE0 SHL SUB SWAP4 DUP5 AND DUP2 OR SWAP1 SWAP2 SSTORE DUP2 SLOAD SWAP1 SWAP3 AND SWAP1 SWAP2 OR SWAP1 SSTORE POP JUMP JUMPDEST PUSH1 0x1 PUSH1 0x1 PUSH1 0xA0 SHL SUB DUP4 AND PUSH1 0x0 SWAP1 DUP2 MSTORE PUSH1 0x9 PUSH1 0x20 MSTORE PUSH1 0x40 SWAP1 KECCAK256 DUP1 SLOAD PUSH1 0xFF AND PUSH2 0x43BF JUMPI PUSH1 0x40 MLOAD PUSH3 0x461BCD PUSH1 0xE5 SHL DUP2 MSTORE PUSH1 0x20 PUSH1 0x4 DUP3 ADD MSTORE PUSH1 0x19 PUSH1 0x24 DUP3 ADD MSTORE PUSH32 0x636F6D70206D61726B6574206973206E6F74206C697374656400000000000000 PUSH1 0x44 DUP3 ADD MSTORE PUSH1 0x64 ADD PUSH2 0xCDD JUMP JUMPDEST PUSH1 0x1 PUSH1 0x1 PUSH1 0xA0 SHL SUB DUP5 AND PUSH1 0x0 SWAP1 DUP2 MSTORE PUSH1 0x1A PUSH1 0x20 MSTORE PUSH1 0x40 SWAP1 KECCAK256 SLOAD DUP4 EQ PUSH2 0x443D JUMPI PUSH2 0x43E7 DUP5 PUSH2 0x3DDE JUMP JUMPDEST PUSH1 0x1 PUSH1 0x1 PUSH1 0xA0 SHL SUB DUP5 AND PUSH1 0x0 DUP2 DUP2 MSTORE PUSH1 0x1A PUSH1 0x20 MSTORE PUSH1 0x40 SWAP1 DUP2 SWAP1 KECCAK256 DUP6 SWAP1 SSTORE MLOAD PUSH32 0xDEAFCCD0C0B768B2529F7DCBBE58E155D6023059150B7490ED4535CC3744B92D SWAP1 PUSH2 0x4434 SWAP1 DUP7 DUP2 MSTORE PUSH1 0x20 ADD SWAP1 JUMP JUMPDEST PUSH1 0x40 MLOAD DUP1 SWAP2 SUB SWAP1 LOG2 JUMPDEST PUSH1 0x1 PUSH1 0x1 PUSH1 0xA0 SHL SUB DUP5 AND PUSH1 0x0 SWAP1 DUP2 MSTORE PUSH1 0x19 PUSH1 0x20 MSTORE PUSH1 0x40 SWAP1 KECCAK256 SLOAD DUP3 EQ PUSH2 0x622 JUMPI PUSH1 0x0 PUSH1 0x40 MLOAD DUP1 PUSH1 0x20 ADD PUSH1 0x40 MSTORE DUP1 DUP7 PUSH1 0x1 PUSH1 0x1 PUSH1 0xA0 SHL SUB AND PUSH4 0xAA5AF0FD PUSH1 0x40 MLOAD DUP2 PUSH4 0xFFFFFFFF AND PUSH1 0xE0 SHL DUP2 MSTORE PUSH1 0x4 ADD PUSH1 0x20 PUSH1 0x40 MLOAD DUP1 DUP4 SUB DUP2 DUP7 GAS STATICCALL ISZERO DUP1 ISZERO PUSH2 0x44A7 JUMPI RETURNDATASIZE PUSH1 0x0 DUP1 RETURNDATACOPY RETURNDATASIZE PUSH1 0x0 REVERT JUMPDEST POP POP POP POP PUSH1 0x40 MLOAD RETURNDATASIZE PUSH1 0x1F NOT PUSH1 0x1F DUP3 ADD AND DUP3 ADD DUP1 PUSH1 0x40 MSTORE POP DUP2 ADD SWAP1 PUSH2 0x44CB SWAP2 SWAP1 PUSH2 0x52A9 JUMP JUMPDEST SWAP1 MSTORE SWAP1 POP PUSH2 0x44D9 DUP6 DUP3 PUSH2 0x35EF JUMP JUMPDEST PUSH1 0x1 PUSH1 0x1 PUSH1 0xA0 SHL SUB DUP6 AND PUSH1 0x0 DUP2 DUP2 MSTORE PUSH1 0x19 PUSH1 0x20 MSTORE PUSH1 0x40 SWAP1 DUP2 SWAP1 KECCAK256 DUP6 SWAP1 SSTORE MLOAD PUSH32 0x20AF8E791CC98F74B2D7A391C80980CA8E5AEBF3D4060BF581997B6ACAE2E537 SWAP1 PUSH2 0x4526 SWAP1 DUP7 DUP2 MSTORE PUSH1 0x20 ADD SWAP1 JUMP JUMPDEST PUSH1 0x40 MLOAD DUP1 SWAP2 SUB SWAP1 LOG2 POP POP POP POP POP JUMP JUMPDEST PUSH1 0x1 PUSH1 0x1 PUSH1 0xA0 SHL SUB DUP4 AND PUSH1 0x0 SWAP1 DUP2 MSTORE PUSH1 0x9 PUSH1 0x20 MSTORE PUSH1 0x40 DUP2 KECCAK256 SLOAD PUSH1 0xFF AND PUSH2 0x455C JUMPI PUSH1 0x9 PUSH2 0x183D JUMP JUMPDEST PUSH1 0x1 PUSH1 0x1 PUSH1 0xA0 SHL SUB DUP1 DUP6 AND PUSH1 0x0 SWAP1 DUP2 MSTORE PUSH1 0x9 PUSH1 0x20 SWAP1 DUP2 MSTORE PUSH1 0x40 DUP1 DUP4 KECCAK256 SWAP4 DUP8 AND DUP4 MSTORE PUSH1 0x2 SWAP1 SWAP4 ADD SWAP1 MSTORE KECCAK256 SLOAD PUSH1 0xFF AND PUSH2 0x4594 JUMPI PUSH1 0x0 PUSH2 0x183D JUMP JUMPDEST PUSH1 0x0 DUP1 PUSH2 0x45A4 DUP6 DUP8 DUP7 PUSH1 0x0 PUSH2 0x3AB0 JUMP JUMPDEST SWAP2 SWAP4 POP SWAP1 SWAP2 POP PUSH1 0x0 SWAP1 POP DUP3 PUSH1 0x11 DUP2 GT ISZERO PUSH2 0x45C0 JUMPI PUSH2 0x45C0 PUSH2 0x52C2 JUMP JUMPDEST EQ PUSH2 0x45E0 JUMPI DUP2 PUSH1 0x11 DUP2 GT ISZERO PUSH2 0x45D7 JUMPI PUSH2 0x45D7 PUSH2 0x52C2 JUMP JUMPDEST SWAP3 POP POP POP PUSH2 0x1585 JUMP JUMPDEST DUP1 ISZERO PUSH2 0x2C2C JUMPI PUSH1 0x4 PUSH2 0x45D7 JUMP JUMPDEST PUSH1 0x1 PUSH1 0x1 PUSH1 0xA0 SHL SUB DUP3 AND PUSH1 0x0 SWAP1 DUP2 MSTORE PUSH1 0x9 PUSH1 0x20 MSTORE PUSH1 0x40 DUP2 KECCAK256 DUP1 SLOAD PUSH1 0xFF AND PUSH2 0x4618 JUMPI PUSH1 0x9 SWAP2 POP POP PUSH2 0x1059 JUMP JUMPDEST PUSH1 0x1 PUSH1 0x1 PUSH1 0xA0 SHL SUB DUP4 AND PUSH1 0x0 SWAP1 DUP2 MSTORE PUSH1 0x2 DUP3 ADD PUSH1 0x20 MSTORE PUSH1 0x40 SWAP1 KECCAK256 SLOAD PUSH1 0xFF AND ISZERO ISZERO PUSH1 0x1 EQ ISZERO PUSH2 0x464A JUMPI PUSH1 0x0 SWAP2 POP POP PUSH2 0x1059 JUMP JUMPDEST PUSH1 0x1 PUSH1 0x1 PUSH1 0xA0 SHL SUB DUP4 DUP2 AND PUSH1 0x0 DUP2 DUP2 MSTORE PUSH1 0x2 DUP5 ADD PUSH1 0x20 SWAP1 DUP2 MSTORE PUSH1 0x40 DUP1 DUP4 KECCAK256 DUP1 SLOAD PUSH1 0x1 PUSH1 0xFF NOT SWAP1 SWAP2 AND DUP2 OR SWAP1 SWAP2 SSTORE PUSH1 0x8 DUP4 MSTORE DUP2 DUP5 KECCAK256 DUP1 SLOAD SWAP2 DUP3 ADD DUP2 SSTORE DUP5 MSTORE SWAP3 DUP3 SWAP1 KECCAK256 SWAP1 SWAP3 ADD DUP1 SLOAD PUSH1 0x1 PUSH1 0x1 PUSH1 0xA0 SHL SUB NOT AND SWAP5 DUP10 AND SWAP5 DUP6 OR SWAP1 SSTORE DUP2 MLOAD SWAP4 DUP5 MSTORE DUP4 ADD SWAP2 SWAP1 SWAP2 MSTORE PUSH32 0x3AB23AB0D51CCCC0C3085AEC51F99228625AA1A922B3A8CA89A26B0F2027A1A5 SWAP2 ADD PUSH1 0x40 MLOAD DUP1 SWAP2 SUB SWAP1 LOG1 POP PUSH1 0x0 SWAP4 SWAP3 POP POP POP JUMP JUMPDEST PUSH1 0x40 DUP1 MLOAD PUSH1 0x20 DUP2 ADD SWAP1 SWAP2 MSTORE PUSH1 0x0 DUP2 MSTORE PUSH1 0x40 MLOAD DUP1 PUSH1 0x20 ADD PUSH1 0x40 MSTORE DUP1 PUSH8 0xDE0B6B3A7640000 PUSH2 0x4717 DUP7 PUSH1 0x0 ADD MLOAD DUP7 PUSH1 0x0 ADD MLOAD PUSH2 0x41A5 JUMP JUMPDEST PUSH2 0x4721 SWAP2 SWAP1 PUSH2 0x538E JUMP JUMPDEST SWAP1 MSTORE SWAP4 SWAP3 POP POP POP JUMP JUMPDEST PUSH1 0x40 DUP1 MLOAD PUSH1 0x20 DUP2 ADD SWAP1 SWAP2 MSTORE PUSH1 0x0 DUP2 MSTORE PUSH1 0x40 MLOAD DUP1 PUSH1 0x20 ADD PUSH1 0x40 MSTORE DUP1 PUSH2 0x4721 PUSH2 0x475D DUP7 PUSH1 0x0 ADD MLOAD PUSH8 0xDE0B6B3A7640000 PUSH2 0x41A5 JUMP JUMPDEST DUP6 MLOAD PUSH2 0x4942 JUMP JUMPDEST PUSH1 0x0 PUSH32 0x45B96FE442630264581B197E84BBADA861235052C5A1AADFFF9EA4E40A969AA0 DUP5 PUSH1 0x11 DUP2 GT ISZERO PUSH2 0x4799 JUMPI PUSH2 0x4799 PUSH2 0x52C2 JUMP JUMPDEST DUP5 PUSH1 0x13 DUP2 GT ISZERO PUSH2 0x47AB JUMPI PUSH2 0x47AB PUSH2 0x52C2 JUMP JUMPDEST PUSH1 0x40 DUP1 MLOAD SWAP3 DUP4 MSTORE PUSH1 0x20 DUP4 ADD SWAP2 SWAP1 SWAP2 MSTORE DUP2 ADD DUP5 SWAP1 MSTORE PUSH1 0x60 ADD PUSH1 0x40 MLOAD DUP1 SWAP2 SUB SWAP1 LOG1 DUP4 PUSH1 0x11 DUP2 GT ISZERO PUSH2 0x12F6 JUMPI PUSH2 0x12F6 PUSH2 0x52C2 JUMP JUMPDEST PUSH1 0x0 DUP2 PUSH5 0x100000000 DUP5 LT PUSH2 0x4804 JUMPI PUSH1 0x40 MLOAD PUSH3 0x461BCD PUSH1 0xE5 SHL DUP2 MSTORE PUSH1 0x4 ADD PUSH2 0xCDD SWAP2 SWAP1 PUSH2 0x53B0 JUMP JUMPDEST POP SWAP2 SWAP3 SWAP2 POP POP JUMP JUMPDEST PUSH1 0x0 PUSH2 0x1585 PUSH2 0x4823 DUP5 PUSH8 0xDE0B6B3A7640000 PUSH2 0x41A5 JUMP JUMPDEST DUP4 MLOAD PUSH2 0x4942 JUMP JUMPDEST PUSH1 0x40 DUP1 MLOAD PUSH1 0x20 DUP2 ADD SWAP1 SWAP2 MSTORE PUSH1 0x0 DUP2 MSTORE PUSH1 0x40 MLOAD DUP1 PUSH1 0x20 ADD PUSH1 0x40 MSTORE DUP1 PUSH2 0x4721 PUSH2 0x485F DUP7 PUSH11 0xC097CE7BC90715B34B9F1 PUSH1 0x24 SHL PUSH2 0x41A5 JUMP JUMPDEST DUP6 PUSH2 0x4942 JUMP JUMPDEST PUSH1 0x40 DUP1 MLOAD PUSH1 0x20 DUP2 ADD SWAP1 SWAP2 MSTORE PUSH1 0x0 DUP2 MSTORE PUSH1 0x40 MLOAD DUP1 PUSH1 0x20 ADD PUSH1 0x40 MSTORE DUP1 PUSH2 0x4721 DUP6 PUSH1 0x0 ADD MLOAD DUP6 PUSH1 0x0 ADD MLOAD PUSH2 0x35D7 JUMP JUMPDEST PUSH1 0x0 DUP2 PUSH1 0x1 PUSH1 0xE0 SHL DUP5 LT PUSH2 0x4804 JUMPI PUSH1 0x40 MLOAD PUSH3 0x461BCD PUSH1 0xE5 SHL DUP2 MSTORE PUSH1 0x4 ADD PUSH2 0xCDD SWAP2 SWAP1 PUSH2 0x53B0 JUMP JUMPDEST PUSH1 0x0 PUSH11 0xC097CE7BC90715B34B9F1 PUSH1 0x24 SHL PUSH2 0x48D7 DUP5 DUP5 PUSH1 0x0 ADD MLOAD PUSH2 0x41A5 JUMP JUMPDEST PUSH2 0x1585 SWAP2 SWAP1 PUSH2 0x538E JUMP JUMPDEST PUSH1 0x0 DUP1 PUSH2 0x48EE DUP6 DUP6 PUSH2 0x4902 JUMP JUMPDEST SWAP1 POP PUSH2 0x1D1E PUSH2 0x48FC DUP3 PUSH2 0x492A JUMP JUMPDEST DUP5 PUSH2 0x35D7 JUMP JUMPDEST PUSH1 0x40 DUP1 MLOAD PUSH1 0x20 DUP2 ADD SWAP1 SWAP2 MSTORE PUSH1 0x0 DUP2 MSTORE PUSH1 0x40 MLOAD DUP1 PUSH1 0x20 ADD PUSH1 0x40 MSTORE DUP1 PUSH2 0x4721 DUP6 PUSH1 0x0 ADD MLOAD DUP6 PUSH2 0x41A5 JUMP JUMPDEST DUP1 MLOAD PUSH1 0x0 SWAP1 PUSH2 0x1059 SWAP1 PUSH8 0xDE0B6B3A7640000 SWAP1 PUSH2 0x538E JUMP JUMPDEST PUSH1 0x0 PUSH2 0x1585 DUP3 DUP5 PUSH2 0x538E JUMP JUMPDEST PUSH1 0x40 MLOAD DUP1 PUSH2 0x140 ADD PUSH1 0x40 MSTORE DUP1 PUSH1 0x0 DUP2 MSTORE PUSH1 0x20 ADD PUSH1 0x0 DUP2 MSTORE PUSH1 0x20 ADD PUSH1 0x0 DUP2 MSTORE PUSH1 0x20 ADD PUSH1 0x0 DUP2 MSTORE PUSH1 0x20 ADD PUSH1 0x0 DUP2 MSTORE PUSH1 0x20 ADD PUSH1 0x0 DUP2 MSTORE PUSH1 0x20 ADD PUSH2 0x499A PUSH1 0x40 MLOAD DUP1 PUSH1 0x20 ADD PUSH1 0x40 MSTORE DUP1 PUSH1 0x0 DUP2 MSTORE POP SWAP1 JUMP JUMPDEST DUP2 MSTORE PUSH1 0x20 ADD PUSH2 0x49B5 PUSH1 0x40 MLOAD DUP1 PUSH1 0x20 ADD PUSH1 0x40 MSTORE DUP1 PUSH1 0x0 DUP2 MSTORE POP SWAP1 JUMP JUMPDEST DUP2 MSTORE PUSH1 0x20 ADD PUSH2 0x49D0 PUSH1 0x40 MLOAD DUP1 PUSH1 0x20 ADD PUSH1 0x40 MSTORE DUP1 PUSH1 0x0 DUP2 MSTORE POP SWAP1 JUMP JUMPDEST DUP2 MSTORE PUSH1 0x20 ADD PUSH2 0x49EB PUSH1 0x40 MLOAD DUP1 PUSH1 0x20 ADD PUSH1 0x40 MSTORE DUP1 PUSH1 0x0 DUP2 MSTORE POP SWAP1 JUMP JUMPDEST SWAP1 MSTORE SWAP1 JUMP JUMPDEST PUSH1 0x0 DUP1 DUP4 PUSH1 0x1F DUP5 ADD SLT PUSH2 0x4A02 JUMPI PUSH1 0x0 DUP1 REVERT JUMPDEST POP DUP2 CALLDATALOAD PUSH8 0xFFFFFFFFFFFFFFFF DUP2 GT ISZERO PUSH2 0x4A1A JUMPI PUSH1 0x0 DUP1 REVERT JUMPDEST PUSH1 0x20 DUP4 ADD SWAP2 POP DUP4 PUSH1 0x20 DUP3 PUSH1 0x5 SHL DUP6 ADD ADD GT ISZERO PUSH2 0x4A35 JUMPI PUSH1 0x0 DUP1 REVERT JUMPDEST SWAP3 POP SWAP3 SWAP1 POP JUMP JUMPDEST PUSH1 0x0 DUP1 PUSH1 0x0 DUP1 PUSH1 0x40 DUP6 DUP8 SUB SLT ISZERO PUSH2 0x4A52 JUMPI PUSH1 0x0 DUP1 REVERT JUMPDEST DUP5 CALLDATALOAD PUSH8 0xFFFFFFFFFFFFFFFF DUP1 DUP3 GT ISZERO PUSH2 0x4A6A JUMPI PUSH1 0x0 DUP1 REVERT JUMPDEST PUSH2 0x4A76 DUP9 DUP4 DUP10 ADD PUSH2 0x49F0 JUMP JUMPDEST SWAP1 SWAP7 POP SWAP5 POP PUSH1 0x20 DUP8 ADD CALLDATALOAD SWAP2 POP DUP1 DUP3 GT ISZERO PUSH2 0x4A8F JUMPI PUSH1 0x0 DUP1 REVERT JUMPDEST POP PUSH2 0x4A9C DUP8 DUP3 DUP9 ADD PUSH2 0x49F0 JUMP JUMPDEST SWAP6 SWAP9 SWAP5 SWAP8 POP SWAP6 POP POP POP POP JUMP JUMPDEST PUSH1 0x1 PUSH1 0x1 PUSH1 0xA0 SHL SUB DUP2 AND DUP2 EQ PUSH2 0x123D JUMPI PUSH1 0x0 DUP1 REVERT JUMPDEST DUP1 ISZERO ISZERO DUP2 EQ PUSH2 0x123D JUMPI PUSH1 0x0 DUP1 REVERT JUMPDEST PUSH1 0x0 DUP1 PUSH1 0x40 DUP4 DUP6 SUB SLT ISZERO PUSH2 0x4ADE JUMPI PUSH1 0x0 DUP1 REVERT JUMPDEST DUP3 CALLDATALOAD PUSH2 0x4AE9 DUP2 PUSH2 0x4AA8 JUMP JUMPDEST SWAP2 POP PUSH1 0x20 DUP4 ADD CALLDATALOAD PUSH2 0x4AF9 DUP2 PUSH2 0x4ABD JUMP JUMPDEST DUP1 SWAP2 POP POP SWAP3 POP SWAP3 SWAP1 POP JUMP JUMPDEST PUSH4 0x4E487B71 PUSH1 0xE0 SHL PUSH1 0x0 MSTORE PUSH1 0x41 PUSH1 0x4 MSTORE PUSH1 0x24 PUSH1 0x0 REVERT JUMPDEST PUSH1 0x40 MLOAD PUSH1 0x1F DUP3 ADD PUSH1 0x1F NOT AND DUP2 ADD PUSH8 0xFFFFFFFFFFFFFFFF DUP2 GT DUP3 DUP3 LT OR ISZERO PUSH2 0x4B43 JUMPI PUSH2 0x4B43 PUSH2 0x4B04 JUMP JUMPDEST PUSH1 0x40 MSTORE SWAP2 SWAP1 POP JUMP JUMPDEST PUSH1 0x0 PUSH8 0xFFFFFFFFFFFFFFFF DUP3 GT ISZERO PUSH2 0x4B65 JUMPI PUSH2 0x4B65 PUSH2 0x4B04 JUMP JUMPDEST POP PUSH1 0x5 SHL PUSH1 0x20 ADD SWAP1 JUMP JUMPDEST PUSH1 0x0 DUP3 PUSH1 0x1F DUP4 ADD SLT PUSH2 0x4B80 JUMPI PUSH1 0x0 DUP1 REVERT JUMPDEST DUP2 CALLDATALOAD PUSH1 0x20 PUSH2 0x4B95 PUSH2 0x4B90 DUP4 PUSH2 0x4B4B JUMP JUMPDEST PUSH2 0x4B1A JUMP JUMPDEST DUP3 DUP2 MSTORE PUSH1 0x5 SWAP3 SWAP1 SWAP3 SHL DUP5 ADD DUP2 ADD SWAP2 DUP2 DUP2 ADD SWAP1 DUP7 DUP5 GT ISZERO PUSH2 0x4BB4 JUMPI PUSH1 0x0 DUP1 REVERT JUMPDEST DUP3 DUP7 ADD JUMPDEST DUP5 DUP2 LT ISZERO PUSH2 0x4BD8 JUMPI DUP1 CALLDATALOAD PUSH2 0x4BCB DUP2 PUSH2 0x4AA8 JUMP JUMPDEST DUP4 MSTORE SWAP2 DUP4 ADD SWAP2 DUP4 ADD PUSH2 0x4BB8 JUMP JUMPDEST POP SWAP7 SWAP6 POP POP POP POP POP POP JUMP JUMPDEST PUSH1 0x0 DUP1 PUSH1 0x40 DUP4 DUP6 SUB SLT ISZERO PUSH2 0x4BF6 JUMPI PUSH1 0x0 DUP1 REVERT JUMPDEST DUP3 CALLDATALOAD PUSH2 0x4C01 DUP2 PUSH2 0x4AA8 JUMP JUMPDEST SWAP2 POP PUSH1 0x20 DUP4 ADD CALLDATALOAD PUSH8 0xFFFFFFFFFFFFFFFF DUP2 GT ISZERO PUSH2 0x4C1D JUMPI PUSH1 0x0 DUP1 REVERT JUMPDEST PUSH2 0x4C29 DUP6 DUP3 DUP7 ADD PUSH2 0x4B6F JUMP JUMPDEST SWAP2 POP POP SWAP3 POP SWAP3 SWAP1 POP JUMP JUMPDEST PUSH1 0x0 PUSH1 0x20 DUP3 DUP5 SUB SLT ISZERO PUSH2 0x4C45 JUMPI PUSH1 0x0 DUP1 REVERT JUMPDEST DUP2 CALLDATALOAD PUSH2 0x1585 DUP2 PUSH2 0x4AA8 JUMP JUMPDEST PUSH1 0x0 DUP1 PUSH1 0x0 DUP1 PUSH1 0x0 PUSH1 0xA0 DUP7 DUP9 SUB SLT ISZERO PUSH2 0x4C68 JUMPI PUSH1 0x0 DUP1 REVERT JUMPDEST DUP6 CALLDATALOAD PUSH2 0x4C73 DUP2 PUSH2 0x4AA8 JUMP JUMPDEST SWAP5 POP PUSH1 0x20 DUP7 ADD CALLDATALOAD PUSH2 0x4C83 DUP2 PUSH2 0x4AA8 JUMP JUMPDEST SWAP4 POP PUSH1 0x40 DUP7 ADD CALLDATALOAD PUSH2 0x4C93 DUP2 PUSH2 0x4AA8 JUMP JUMPDEST SWAP5 SWAP8 SWAP4 SWAP7 POP SWAP4 SWAP5 PUSH1 0x60 DUP2 ADD CALLDATALOAD SWAP5 POP PUSH1 0x80 ADD CALLDATALOAD SWAP3 SWAP2 POP POP JUMP JUMPDEST PUSH1 0x0 DUP1 PUSH1 0x0 DUP1 PUSH1 0x80 DUP6 DUP8 SUB SLT ISZERO PUSH2 0x4CC1 JUMPI PUSH1 0x0 DUP1 REVERT JUMPDEST DUP5 CALLDATALOAD PUSH2 0x4CCC DUP2 PUSH2 0x4AA8 JUMP JUMPDEST SWAP4 POP PUSH1 0x20 DUP6 ADD CALLDATALOAD PUSH2 0x4CDC DUP2 PUSH2 0x4AA8 JUMP JUMPDEST SWAP3 POP PUSH1 0x40 DUP6 ADD CALLDATALOAD PUSH2 0x4CEC DUP2 PUSH2 0x4AA8 JUMP JUMPDEST SWAP4 SWAP7 SWAP3 SWAP6 POP SWAP3 SWAP4 PUSH1 0x60 ADD CALLDATALOAD SWAP3 POP POP JUMP JUMPDEST PUSH1 0x0 DUP1 PUSH1 0x40 DUP4 DUP6 SUB SLT ISZERO PUSH2 0x4D0F JUMPI PUSH1 0x0 DUP1 REVERT JUMPDEST DUP3 CALLDATALOAD PUSH2 0x4D1A DUP2 PUSH2 0x4AA8 JUMP JUMPDEST SWAP5 PUSH1 0x20 SWAP4 SWAP1 SWAP4 ADD CALLDATALOAD SWAP4 POP POP POP JUMP JUMPDEST PUSH1 0x0 PUSH1 0x20 DUP3 DUP5 SUB SLT ISZERO PUSH2 0x4D3A JUMPI PUSH1 0x0 DUP1 REVERT JUMPDEST DUP2 CALLDATALOAD PUSH2 0x1585 DUP2 PUSH2 0x4ABD JUMP JUMPDEST PUSH1 0x0 PUSH1 0x20 DUP3 DUP5 SUB SLT ISZERO PUSH2 0x4D57 JUMPI PUSH1 0x0 DUP1 REVERT JUMPDEST POP CALLDATALOAD SWAP2 SWAP1 POP JUMP JUMPDEST PUSH1 0x0 DUP1 PUSH1 0x0 DUP1 PUSH1 0x80 DUP6 DUP8 SUB SLT ISZERO PUSH2 0x4D74 JUMPI PUSH1 0x0 DUP1 REVERT JUMPDEST DUP5 CALLDATALOAD PUSH2 0x4D7F DUP2 PUSH2 0x4AA8 JUMP JUMPDEST SWAP4 POP PUSH1 0x20 DUP6 ADD CALLDATALOAD PUSH2 0x4D8F DUP2 PUSH2 0x4AA8 JUMP JUMPDEST SWAP4 SWAP7 SWAP4 SWAP6 POP POP POP POP PUSH1 0x40 DUP3 ADD CALLDATALOAD SWAP2 PUSH1 0x60 ADD CALLDATALOAD SWAP1 JUMP JUMPDEST PUSH1 0x0 DUP1 PUSH1 0x0 DUP1 PUSH1 0x0 DUP1 PUSH1 0xC0 DUP8 DUP10 SUB SLT ISZERO PUSH2 0x4DBD JUMPI PUSH1 0x0 DUP1 REVERT JUMPDEST DUP7 CALLDATALOAD PUSH2 0x4DC8 DUP2 PUSH2 0x4AA8 JUMP JUMPDEST SWAP6 POP PUSH1 0x20 DUP8 ADD CALLDATALOAD PUSH2 0x4DD8 DUP2 PUSH2 0x4AA8 JUMP JUMPDEST SWAP5 POP PUSH1 0x40 DUP8 ADD CALLDATALOAD PUSH2 0x4DE8 DUP2 PUSH2 0x4AA8 JUMP JUMPDEST SWAP4 POP PUSH1 0x60 DUP8 ADD CALLDATALOAD PUSH2 0x4DF8 DUP2 PUSH2 0x4AA8 JUMP JUMPDEST SWAP6 SWAP9 SWAP5 SWAP8 POP SWAP3 SWAP6 PUSH1 0x80 DUP2 ADD CALLDATALOAD SWAP5 PUSH1 0xA0 SWAP1 SWAP2 ADD CALLDATALOAD SWAP4 POP SWAP2 POP POP JUMP JUMPDEST PUSH1 0x0 DUP1 PUSH1 0x0 PUSH1 0x60 DUP5 DUP7 SUB SLT ISZERO PUSH2 0x4E27 JUMPI PUSH1 0x0 DUP1 REVERT JUMPDEST DUP4 CALLDATALOAD PUSH2 0x4E32 DUP2 PUSH2 0x4AA8 JUMP JUMPDEST SWAP3 POP PUSH1 0x20 DUP5 ADD CALLDATALOAD PUSH2 0x4E42 DUP2 PUSH2 0x4AA8 JUMP JUMPDEST SWAP3 SWAP6 SWAP3 SWAP5 POP POP POP PUSH1 0x40 SWAP2 SWAP1 SWAP2 ADD CALLDATALOAD SWAP1 JUMP JUMPDEST PUSH1 0x0 DUP1 PUSH1 0x0 DUP1 PUSH1 0x0 PUSH1 0xA0 DUP7 DUP9 SUB SLT ISZERO PUSH2 0x4E6B JUMPI PUSH1 0x0 DUP1 REVERT JUMPDEST DUP6 CALLDATALOAD PUSH2 0x4E76 DUP2 PUSH2 0x4AA8 JUMP JUMPDEST SWAP5 POP PUSH1 0x20 DUP7 ADD CALLDATALOAD PUSH2 0x4E86 DUP2 PUSH2 0x4AA8 JUMP JUMPDEST SWAP4 POP PUSH1 0x40 DUP7 ADD CALLDATALOAD PUSH2 0x4E96 DUP2 PUSH2 0x4AA8 JUMP JUMPDEST SWAP3 POP PUSH1 0x60 DUP7 ADD CALLDATALOAD PUSH2 0x4EA6 DUP2 PUSH2 0x4AA8 JUMP JUMPDEST SWAP5 SWAP8 SWAP4 SWAP7 POP SWAP2 SWAP5 PUSH1 0x80 ADD CALLDATALOAD SWAP3 SWAP2 POP POP JUMP JUMPDEST PUSH1 0x0 DUP3 PUSH1 0x1F DUP4 ADD SLT PUSH2 0x4EC8 JUMPI PUSH1 0x0 DUP1 REVERT JUMPDEST DUP2 CALLDATALOAD PUSH1 0x20 PUSH2 0x4ED8 PUSH2 0x4B90 DUP4 PUSH2 0x4B4B JUMP JUMPDEST DUP3 DUP2 MSTORE PUSH1 0x5 SWAP3 SWAP1 SWAP3 SHL DUP5 ADD DUP2 ADD SWAP2 DUP2 DUP2 ADD SWAP1 DUP7 DUP5 GT ISZERO PUSH2 0x4EF7 JUMPI PUSH1 0x0 DUP1 REVERT JUMPDEST DUP3 DUP7 ADD JUMPDEST DUP5 DUP2 LT ISZERO PUSH2 0x4BD8 JUMPI DUP1 CALLDATALOAD PUSH2 0x4F0E DUP2 PUSH2 0x4AA8 JUMP JUMPDEST DUP4 MSTORE SWAP2 DUP4 ADD SWAP2 DUP4 ADD PUSH2 0x4EFB JUMP JUMPDEST PUSH1 0x0 DUP1 PUSH1 0x0 DUP1 PUSH1 0x80 DUP6 DUP8 SUB SLT ISZERO PUSH2 0x4F31 JUMPI PUSH1 0x0 DUP1 REVERT JUMPDEST DUP5 CALLDATALOAD PUSH8 0xFFFFFFFFFFFFFFFF DUP1 DUP3 GT ISZERO PUSH2 0x4F49 JUMPI PUSH1 0x0 DUP1 REVERT JUMPDEST PUSH2 0x4F55 DUP9 DUP4 DUP10 ADD PUSH2 0x4EB7 JUMP JUMPDEST SWAP6 POP PUSH1 0x20 DUP8 ADD CALLDATALOAD SWAP2 POP DUP1 DUP3 GT ISZERO PUSH2 0x4F6B JUMPI PUSH1 0x0 DUP1 REVERT JUMPDEST POP PUSH2 0x4F78 DUP8 DUP3 DUP9 ADD PUSH2 0x4B6F JUMP JUMPDEST SWAP4 POP POP PUSH1 0x40 DUP6 ADD CALLDATALOAD PUSH2 0x4F89 DUP2 PUSH2 0x4ABD JUMP JUMPDEST SWAP2 POP PUSH1 0x60 DUP6 ADD CALLDATALOAD PUSH2 0x4F99 DUP2 PUSH2 0x4ABD JUMP JUMPDEST SWAP4 SWAP7 SWAP3 SWAP6 POP SWAP1 SWAP4 POP POP JUMP JUMPDEST PUSH1 0x0 DUP1 PUSH1 0x40 DUP4 DUP6 SUB SLT ISZERO PUSH2 0x4FB7 JUMPI PUSH1 0x0 DUP1 REVERT JUMPDEST DUP3 CALLDATALOAD PUSH2 0x4FC2 DUP2 PUSH2 0x4AA8 JUMP JUMPDEST SWAP2 POP PUSH1 0x20 DUP4 ADD CALLDATALOAD PUSH2 0x4AF9 DUP2 PUSH2 0x4AA8 JUMP JUMPDEST PUSH1 0x0 DUP3 PUSH1 0x1F DUP4 ADD SLT PUSH2 0x4FE3 JUMPI PUSH1 0x0 DUP1 REVERT JUMPDEST DUP2 CALLDATALOAD PUSH1 0x20 PUSH2 0x4FF3 PUSH2 0x4B90 DUP4 PUSH2 0x4B4B JUMP JUMPDEST DUP3 DUP2 MSTORE PUSH1 0x5 SWAP3 SWAP1 SWAP3 SHL DUP5 ADD DUP2 ADD SWAP2 DUP2 DUP2 ADD SWAP1 DUP7 DUP5 GT ISZERO PUSH2 0x5012 JUMPI PUSH1 0x0 DUP1 REVERT JUMPDEST DUP3 DUP7 ADD JUMPDEST DUP5 DUP2 LT ISZERO PUSH2 0x4BD8 JUMPI DUP1 CALLDATALOAD DUP4 MSTORE SWAP2 DUP4 ADD SWAP2 DUP4 ADD PUSH2 0x5016 JUMP JUMPDEST PUSH1 0x0 DUP1 PUSH1 0x0 PUSH1 0x60 DUP5 DUP7 SUB SLT ISZERO PUSH2 0x5042 JUMPI PUSH1 0x0 DUP1 REVERT JUMPDEST DUP4 CALLDATALOAD PUSH8 0xFFFFFFFFFFFFFFFF DUP1 DUP3 GT ISZERO PUSH2 0x505A JUMPI PUSH1 0x0 DUP1 REVERT JUMPDEST PUSH2 0x5066 DUP8 DUP4 DUP9 ADD PUSH2 0x4B6F JUMP JUMPDEST SWAP5 POP PUSH1 0x20 DUP7 ADD CALLDATALOAD SWAP2 POP DUP1 DUP3 GT ISZERO PUSH2 0x507C JUMPI PUSH1 0x0 DUP1 REVERT JUMPDEST PUSH2 0x5088 DUP8 DUP4 DUP9 ADD PUSH2 0x4FD2 JUMP JUMPDEST SWAP4 POP PUSH1 0x40 DUP7 ADD CALLDATALOAD SWAP2 POP DUP1 DUP3 GT ISZERO PUSH2 0x509E JUMPI PUSH1 0x0 DUP1 REVERT JUMPDEST POP PUSH2 0x50AB DUP7 DUP3 DUP8 ADD PUSH2 0x4FD2 JUMP JUMPDEST SWAP2 POP POP SWAP3 POP SWAP3 POP SWAP3 JUMP JUMPDEST PUSH1 0x20 DUP1 DUP3 MSTORE DUP3 MLOAD DUP3 DUP3 ADD DUP2 SWAP1 MSTORE PUSH1 0x0 SWAP2 SWAP1 DUP5 DUP3 ADD SWAP1 PUSH1 0x40 DUP6 ADD SWAP1 DUP5 JUMPDEST DUP2 DUP2 LT ISZERO PUSH2 0x50F6 JUMPI DUP4 MLOAD PUSH1 0x1 PUSH1 0x1 PUSH1 0xA0 SHL SUB AND DUP4 MSTORE SWAP3 DUP5 ADD SWAP3 SWAP2 DUP5 ADD SWAP2 PUSH1 0x1 ADD PUSH2 0x50D1 JUMP JUMPDEST POP SWAP1 SWAP7 SWAP6 POP POP POP POP POP POP JUMP JUMPDEST PUSH1 0x0 PUSH1 0x20 DUP3 DUP5 SUB SLT ISZERO PUSH2 0x5114 JUMPI PUSH1 0x0 DUP1 REVERT JUMPDEST DUP2 CALLDATALOAD PUSH8 0xFFFFFFFFFFFFFFFF DUP2 GT ISZERO PUSH2 0x512B JUMPI PUSH1 0x0 DUP1 REVERT JUMPDEST PUSH2 0x12F6 DUP5 DUP3 DUP6 ADD PUSH2 0x4EB7 JUMP JUMPDEST PUSH1 0x20 DUP1 DUP3 MSTORE DUP3 MLOAD DUP3 DUP3 ADD DUP2 SWAP1 MSTORE PUSH1 0x0 SWAP2 SWAP1 DUP5 DUP3 ADD SWAP1 PUSH1 0x40 DUP6 ADD SWAP1 DUP5 JUMPDEST DUP2 DUP2 LT ISZERO PUSH2 0x50F6 JUMPI DUP4 MLOAD DUP4 MSTORE SWAP3 DUP5 ADD SWAP3 SWAP2 DUP5 ADD SWAP2 PUSH1 0x1 ADD PUSH2 0x5153 JUMP JUMPDEST PUSH4 0x4E487B71 PUSH1 0xE0 SHL PUSH1 0x0 MSTORE PUSH1 0x32 PUSH1 0x4 MSTORE PUSH1 0x24 PUSH1 0x0 REVERT JUMPDEST PUSH4 0x4E487B71 PUSH1 0xE0 SHL PUSH1 0x0 MSTORE PUSH1 0x11 PUSH1 0x4 MSTORE PUSH1 0x24 PUSH1 0x0 REVERT JUMPDEST PUSH1 0x0 DUP3 DUP3 LT ISZERO PUSH2 0x51AD JUMPI PUSH2 0x51AD PUSH2 0x5185 JUMP JUMPDEST POP SUB SWAP1 JUMP JUMPDEST PUSH1 0x0 PUSH1 0x0 NOT DUP3 EQ ISZERO PUSH2 0x51C6 JUMPI PUSH2 0x51C6 PUSH2 0x5185 JUMP JUMPDEST POP PUSH1 0x1 ADD SWAP1 JUMP JUMPDEST PUSH1 0x20 DUP1 DUP3 MSTORE PUSH1 0x28 SWAP1 DUP3 ADD MSTORE PUSH32 0x63616E6E6F742070617573652061206D61726B65742074686174206973206E6F PUSH1 0x40 DUP3 ADD MSTORE PUSH8 0x1D081B1A5CDD1959 PUSH1 0xC2 SHL PUSH1 0x60 DUP3 ADD MSTORE PUSH1 0x80 ADD SWAP1 JUMP JUMPDEST PUSH1 0x20 DUP1 DUP3 MSTORE PUSH1 0x27 SWAP1 DUP3 ADD MSTORE PUSH32 0x6F6E6C7920706175736520677561726469616E20616E642061646D696E206361 PUSH1 0x40 DUP3 ADD MSTORE PUSH7 0x6E207061757365 PUSH1 0xC8 SHL PUSH1 0x60 DUP3 ADD MSTORE PUSH1 0x80 ADD SWAP1 JUMP JUMPDEST PUSH1 0x20 DUP1 DUP3 MSTORE PUSH1 0x16 SWAP1 DUP3 ADD MSTORE PUSH22 0x6F6E6C792061646D696E2063616E20756E7061757365 PUSH1 0x50 SHL PUSH1 0x40 DUP3 ADD MSTORE PUSH1 0x60 ADD SWAP1 JUMP JUMPDEST PUSH1 0x0 PUSH1 0x20 DUP3 DUP5 SUB SLT ISZERO PUSH2 0x529E JUMPI PUSH1 0x0 DUP1 REVERT JUMPDEST DUP2 MLOAD PUSH2 0x1585 DUP2 PUSH2 0x4AA8 JUMP JUMPDEST PUSH1 0x0 PUSH1 0x20 DUP3 DUP5 SUB SLT ISZERO PUSH2 0x52BB JUMPI PUSH1 0x0 DUP1 REVERT JUMPDEST POP MLOAD SWAP2 SWAP1 POP JUMP JUMPDEST PUSH4 0x4E487B71 PUSH1 0xE0 SHL PUSH1 0x0 MSTORE PUSH1 0x21 PUSH1 0x4 MSTORE PUSH1 0x24 PUSH1 0x0 REVERT JUMPDEST PUSH1 0x0 PUSH1 0x20 DUP3 DUP5 SUB SLT ISZERO PUSH2 0x52EA JUMPI PUSH1 0x0 DUP1 REVERT JUMPDEST DUP2 MLOAD PUSH2 0x1585 DUP2 PUSH2 0x4ABD JUMP JUMPDEST PUSH4 0x4E487B71 PUSH1 0xE0 SHL PUSH1 0x0 MSTORE PUSH1 0x1 PUSH1 0x4 MSTORE PUSH1 0x24 PUSH1 0x0 REVERT JUMPDEST PUSH1 0x0 DUP1 PUSH1 0x0 DUP1 PUSH1 0x80 DUP6 DUP8 SUB SLT ISZERO PUSH2 0x5321 JUMPI PUSH1 0x0 DUP1 REVERT JUMPDEST POP POP DUP3 MLOAD PUSH1 0x20 DUP5 ADD MLOAD PUSH1 0x40 DUP6 ADD MLOAD PUSH1 0x60 SWAP1 SWAP6 ADD MLOAD SWAP2 SWAP7 SWAP1 SWAP6 POP SWAP1 SWAP3 POP SWAP1 POP JUMP JUMPDEST PUSH4 0x4E487B71 PUSH1 0xE0 SHL PUSH1 0x0 MSTORE PUSH1 0x31 PUSH1 0x4 MSTORE PUSH1 0x24 PUSH1 0x0 REVERT JUMPDEST PUSH1 0x0 DUP3 NOT DUP3 GT ISZERO PUSH2 0x536A JUMPI PUSH2 0x536A PUSH2 0x5185 JUMP JUMPDEST POP ADD SWAP1 JUMP JUMPDEST PUSH1 0x0 DUP2 PUSH1 0x0 NOT DIV DUP4 GT DUP3 ISZERO ISZERO AND ISZERO PUSH2 0x5389 JUMPI PUSH2 0x5389 PUSH2 0x5185 JUMP JUMPDEST POP MUL SWAP1 JUMP JUMPDEST PUSH1 0x0 DUP3 PUSH2 0x53AB JUMPI PUSH4 0x4E487B71 PUSH1 0xE0 SHL PUSH1 0x0 MSTORE PUSH1 0x12 PUSH1 0x4 MSTORE PUSH1 0x24 PUSH1 0x0 REVERT JUMPDEST POP DIV SWAP1 JUMP JUMPDEST PUSH1 0x0 PUSH1 0x20 DUP1 DUP4 MSTORE DUP4 MLOAD DUP1 DUP3 DUP6 ADD MSTORE PUSH1 0x0 JUMPDEST DUP2 DUP2 LT ISZERO PUSH2 0x53DD JUMPI DUP6 DUP2 ADD DUP4 ADD MLOAD DUP6 DUP3 ADD PUSH1 0x40 ADD MSTORE DUP3 ADD PUSH2 0x53C1 JUMP JUMPDEST DUP2 DUP2 GT ISZERO PUSH2 0x53EF JUMPI PUSH1 0x0 PUSH1 0x40 DUP4 DUP8 ADD ADD MSTORE JUMPDEST POP PUSH1 0x1F ADD PUSH1 0x1F NOT AND SWAP3 SWAP1 SWAP3 ADD PUSH1 0x40 ADD SWAP4 SWAP3 POP POP POP JUMP INVALID LOG2 PUSH5 0x6970667358 0x22 SLT KECCAK256 COINBASE SLT EXTCODESIZE CODESIZE PUSH26 0x3B38DD778514ED4429875B64CBC20D94572CAF18002C98D12EAC 0x5F PUSH5 0x736F6C6343 STOP ADDMOD EXP STOP CALLER "
		},
		"gasEstimates": {
			"creation": {
				"codeDepositCost": "4312600",
				"executionCost": "29217",
				"totalCost": "4341817"
			},
			"external": {
				"_become(address)": "infinite",
				"_borrowGuardianPaused()": "2449",
				"_grantComp(address,uint256)": "infinite",
				"_mintGuardianPaused()": "2406",
				"_setBorrowCapGuardian(address)": "28212",
				"_setBorrowPaused(address,bool)": "infinite",
				"_setCloseFactor(uint256)": "28116",
				"_setCollateralFactor(address,uint256)": "infinite",
				"_setCompSpeeds(address[],uint256[],uint256[])": "infinite",
				"_setContributorCompSpeed(address,uint256)": "infinite",
				"_setLiquidationIncentive(uint256)": "28149",
				"_setMarketBorrowCaps(address[],uint256[])": "infinite",
				"_setMintPaused(address,bool)": "infinite",
				"_setPauseGuardian(address)": "infinite",
				"_setPriceOracle(address)": "infinite",
				"_setSeizePaused(bool)": "33087",
				"_setTransferPaused(bool)": "33086",
				"_supportMarket(address)": "infinite",
				"accountAssets(address,uint256)": "4845",
				"admin()": "2513",
				"allMarkets(uint256)": "4704",
				"borrowAllowed(address,address,uint256)": "infinite",
				"borrowCapGuardian()": "2450",
				"borrowCaps(address)": "2582",
				"borrowGuardianPaused(address)": "2647",
				"borrowVerify(address,address,uint256)": "infinite",
				"checkMembership(address,address)": "infinite",
				"claimComp(address)": "infinite",
				"claimComp(address,address[])": "infinite",
				"claimComp(address[],address[],bool,bool)": "infinite",
				"closeFactorMantissa()": "2450",
				"compAccrued(address)": "2624",
				"compBorrowSpeeds(address)": "2667",
				"compBorrowState(address)": "2676",
				"compBorrowerIndex(address,address)": "infinite",
				"compContributorSpeeds(address)": "2603",
				"compInitialIndex()": "378",
				"compRate()": "2384",
				"compReceivable(address)": "2648",
				"compSpeeds(address)": "2582",
				"compSupplierIndex(address,address)": "infinite",
				"compSupplySpeeds(address)": "2602",
				"compSupplyState(address)": "2719",
				"comptrollerImplementation()": "2427",
				"enterMarkets(address[])": "infinite",
				"exitMarket(address)": "infinite",
				"fixBadAccruals(address[],uint256[])": "infinite",
				"getAccountLiquidity(address)": "infinite",
				"getAllMarkets()": "infinite",
				"getAssetsIn(address)": "infinite",
				"getBlockNumber()": "325",
				"getCompAddress()": "325",
				"getHypotheticalAccountLiquidity(address,address,uint256,uint256)": "infinite",
				"isComptroller()": "260",
				"isDeprecated(address)": "infinite",
				"lastContributorBlock(address)": "2647",
				"liquidateBorrowAllowed(address,address,address,address,uint256)": "infinite",
				"liquidateBorrowVerify(address,address,address,address,uint256,uint256)": "infinite",
				"liquidateCalculateSeizeTokens(address,address,uint256)": "infinite",
				"liquidationIncentiveMantissa()": "2386",
				"markets(address)": "6902",
				"maxAssets()": "2363",
				"mintAllowed(address,address,uint256)": "infinite",
				"mintGuardianPaused(address)": "2583",
				"mintVerify(address,address,uint256,uint256)": "infinite",
				"oracle()": "2450",
				"pauseGuardian()": "2494",
				"pendingAdmin()": "2406",
				"pendingComptrollerImplementation()": "2426",
				"proposal65FixExecuted()": "2431",
				"redeemAllowed(address,address,uint256)": "infinite",
				"redeemVerify(address,address,uint256,uint256)": "infinite",
				"repayBorrowAllowed(address,address,address,uint256)": "infinite",
				"repayBorrowVerify(address,address,address,uint256,uint256)": "infinite",
				"seizeAllowed(address,address,address,address,uint256)": "infinite",
				"seizeGuardianPaused()": "2449",
				"seizeVerify(address,address,address,address,uint256)": "infinite",
				"transferAllowed(address,address,address,uint256)": "infinite",
				"transferGuardianPaused()": "2473",
				"transferVerify(address,address,address,uint256)": "infinite",
				"updateContributorRewards(address)": "infinite"
			},
			"internal": {
				"_addMarketInternal(address)": "infinite",
				"_initializeMarket(address)": "infinite",
				"addToMarketInternal(contract CToken,address)": "infinite",
				"adminOrInitializing()": "4291",
				"distributeBorrowerComp(address,address,struct ExponentialNoError.Exp memory)": "infinite",
				"distributeSupplierComp(address,address)": "infinite",
				"getAccountLiquidityInternal(address)": "infinite",
				"getHypotheticalAccountLiquidityInternal(address,contract CToken,uint256,uint256)": "infinite",
				"grantCompInternal(address,uint256)": "infinite",
				"redeemAllowedInternal(address,address,uint256)": "infinite",
				"setCompSpeedInternal(contract CToken,uint256,uint256)": "infinite",
				"updateCompBorrowIndex(address,struct ExponentialNoError.Exp memory)": "infinite",
				"updateCompSupplyIndex(address)": "infinite"
			}
		},
		"methodIdentifiers": {
			"_become(address)": "1d504dc6",
			"_borrowGuardianPaused()": "e6653f3d",
			"_grantComp(address,uint256)": "27efe3cb",
			"_mintGuardianPaused()": "3c94786f",
			"_setBorrowCapGuardian(address)": "391957d7",
			"_setBorrowPaused(address,bool)": "18c882a5",
			"_setCloseFactor(uint256)": "317b0b77",
			"_setCollateralFactor(address,uint256)": "e4028eee",
			"_setCompSpeeds(address[],uint256[],uint256[])": "a8b43948",
			"_setContributorCompSpeed(address,uint256)": "598ee1cb",
			"_setLiquidationIncentive(uint256)": "4fd42e17",
			"_setMarketBorrowCaps(address[],uint256[])": "607ef6c1",
			"_setMintPaused(address,bool)": "3bcf7ec1",
			"_setPauseGuardian(address)": "5f5af1aa",
			"_setPriceOracle(address)": "55ee1fe1",
			"_setSeizePaused(bool)": "2d70db78",
			"_setTransferPaused(bool)": "8ebf6364",
			"_supportMarket(address)": "a76b3fda",
			"accountAssets(address,uint256)": "dce15449",
			"admin()": "f851a440",
			"allMarkets(uint256)": "52d84d1e",
			"borrowAllowed(address,address,uint256)": "da3d454c",
			"borrowCapGuardian()": "21af4569",
			"borrowCaps(address)": "4a584432",
			"borrowGuardianPaused(address)": "6d154ea5",
			"borrowVerify(address,address,uint256)": "5c778605",
			"checkMembership(address,address)": "929fe9a1",
			"claimComp(address)": "e9af0292",
			"claimComp(address,address[])": "1c3db2e0",
			"claimComp(address[],address[],bool,bool)": "6810dfa6",
			"closeFactorMantissa()": "e8755446",
			"compAccrued(address)": "cc7ebdc4",
			"compBorrowSpeeds(address)": "f4a433c0",
			"compBorrowState(address)": "8c57804e",
			"compBorrowerIndex(address,address)": "ca0af043",
			"compContributorSpeeds(address)": "986ab838",
			"compInitialIndex()": "a7f0e231",
			"compRate()": "aa900754",
			"compReceivable(address)": "85b7beb8",
			"compSpeeds(address)": "1d7b33d7",
			"compSupplierIndex(address,address)": "b21be7fd",
			"compSupplySpeeds(address)": "6aa875b5",
			"compSupplyState(address)": "6b79c38d",
			"comptrollerImplementation()": "bb82aa5e",
			"enterMarkets(address[])": "c2998238",
			"exitMarket(address)": "ede4edd0",
			"fixBadAccruals(address[],uint256[])": "16b95e8f",
			"getAccountLiquidity(address)": "5ec88c79",
			"getAllMarkets()": "b0772d0b",
			"getAssetsIn(address)": "abfceffc",
			"getBlockNumber()": "42cbb15c",
			"getCompAddress()": "9d1b5a0a",
			"getHypotheticalAccountLiquidity(address,address,uint256,uint256)": "4e79238f",
			"isComptroller()": "007e3dd2",
			"isDeprecated(address)": "94543c15",
			"lastContributorBlock(address)": "bea6b8b8",
			"liquidateBorrowAllowed(address,address,address,address,uint256)": "5fc7e71e",
			"liquidateBorrowVerify(address,address,address,address,uint256,uint256)": "47ef3b3b",
			"liquidateCalculateSeizeTokens(address,address,uint256)": "c488847b",
			"liquidationIncentiveMantissa()": "4ada90af",
			"markets(address)": "8e8f294b",
			"maxAssets()": "94b2294b",
			"mintAllowed(address,address,uint256)": "4ef4c3e1",
			"mintGuardianPaused(address)": "731f0c2b",
			"mintVerify(address,address,uint256,uint256)": "41c728b9",
			"oracle()": "7dc0d1d0",
			"pauseGuardian()": "24a3d622",
			"pendingAdmin()": "26782247",
			"pendingComptrollerImplementation()": "dcfbc0c7",
			"proposal65FixExecuted()": "f00a7a92",
			"redeemAllowed(address,address,uint256)": "eabe7d91",
			"redeemVerify(address,address,uint256,uint256)": "51dff989",
			"repayBorrowAllowed(address,address,address,uint256)": "24008a62",
			"repayBorrowVerify(address,address,address,uint256,uint256)": "1ededc91",
			"seizeAllowed(address,address,address,address,uint256)": "d02f7351",
			"seizeGuardianPaused()": "ac0b0bb7",
			"seizeVerify(address,address,address,address,uint256)": "6d35bf91",
			"transferAllowed(address,address,address,uint256)": "bdcdc258",
			"transferGuardianPaused()": "87f76303",
			"transferVerify(address,address,address,uint256)": "6a56947e",
			"updateContributorRewards(address)": "741b2525"
		}
	},
	"abi": [
		{
			"inputs": [],
			"stateMutability": "nonpayable",
			"type": "constructor"
		},
		{
			"anonymous": false,
			"inputs": [
				{
					"indexed": false,
					"internalType": "string",
					"name": "action",
					"type": "string"
				},
				{
					"indexed": false,
					"internalType": "bool",
					"name": "pauseState",
					"type": "bool"
				}
			],
			"name": "ActionPaused",
			"type": "event"
		},
		{
			"anonymous": false,
			"inputs": [
				{
					"indexed": false,
					"internalType": "contract CToken",
					"name": "cToken",
					"type": "address"
				},
				{
					"indexed": false,
					"internalType": "string",
					"name": "action",
					"type": "string"
				},
				{
					"indexed": false,
					"internalType": "bool",
					"name": "pauseState",
					"type": "bool"
				}
			],
			"name": "ActionPaused",
			"type": "event"
		},
		{
			"anonymous": false,
			"inputs": [
				{
					"indexed": true,
					"internalType": "address",
					"name": "user",
					"type": "address"
				},
				{
					"indexed": false,
					"internalType": "uint256",
					"name": "oldCompAccrued",
					"type": "uint256"
				},
				{
					"indexed": false,
					"internalType": "uint256",
					"name": "newCompAccrued",
					"type": "uint256"
				}
			],
			"name": "CompAccruedAdjusted",
			"type": "event"
		},
		{
			"anonymous": false,
			"inputs": [
				{
					"indexed": true,
					"internalType": "contract CToken",
					"name": "cToken",
					"type": "address"
				},
				{
					"indexed": false,
					"internalType": "uint256",
					"name": "newSpeed",
					"type": "uint256"
				}
			],
			"name": "CompBorrowSpeedUpdated",
			"type": "event"
		},
		{
			"anonymous": false,
			"inputs": [
				{
					"indexed": false,
					"internalType": "address",
					"name": "recipient",
					"type": "address"
				},
				{
					"indexed": false,
					"internalType": "uint256",
					"name": "amount",
					"type": "uint256"
				}
			],
			"name": "CompGranted",
			"type": "event"
		},
		{
			"anonymous": false,
			"inputs": [
				{
					"indexed": true,
					"internalType": "address",
					"name": "user",
					"type": "address"
				},
				{
					"indexed": false,
					"internalType": "uint256",
					"name": "oldCompReceivable",
					"type": "uint256"
				},
				{
					"indexed": false,
					"internalType": "uint256",
					"name": "newCompReceivable",
					"type": "uint256"
				}
			],
			"name": "CompReceivableUpdated",
			"type": "event"
		},
		{
			"anonymous": false,
			"inputs": [
				{
					"indexed": true,
					"internalType": "contract CToken",
					"name": "cToken",
					"type": "address"
				},
				{
					"indexed": false,
					"internalType": "uint256",
					"name": "newSpeed",
					"type": "uint256"
				}
			],
			"name": "CompSupplySpeedUpdated",
			"type": "event"
		},
		{
			"anonymous": false,
			"inputs": [
				{
					"indexed": true,
					"internalType": "address",
					"name": "contributor",
					"type": "address"
				},
				{
					"indexed": false,
					"internalType": "uint256",
					"name": "newSpeed",
					"type": "uint256"
				}
			],
			"name": "ContributorCompSpeedUpdated",
			"type": "event"
		},
		{
			"anonymous": false,
			"inputs": [
				{
					"indexed": true,
					"internalType": "contract CToken",
					"name": "cToken",
					"type": "address"
				},
				{
					"indexed": true,
					"internalType": "address",
					"name": "borrower",
					"type": "address"
				},
				{
					"indexed": false,
					"internalType": "uint256",
					"name": "compDelta",
					"type": "uint256"
				},
				{
					"indexed": false,
					"internalType": "uint256",
					"name": "compBorrowIndex",
					"type": "uint256"
				}
			],
			"name": "DistributedBorrowerComp",
			"type": "event"
		},
		{
			"anonymous": false,
			"inputs": [
				{
					"indexed": true,
					"internalType": "contract CToken",
					"name": "cToken",
					"type": "address"
				},
				{
					"indexed": true,
					"internalType": "address",
					"name": "supplier",
					"type": "address"
				},
				{
					"indexed": false,
					"internalType": "uint256",
					"name": "compDelta",
					"type": "uint256"
				},
				{
					"indexed": false,
					"internalType": "uint256",
					"name": "compSupplyIndex",
					"type": "uint256"
				}
			],
			"name": "DistributedSupplierComp",
			"type": "event"
		},
		{
			"anonymous": false,
			"inputs": [
				{
					"indexed": false,
					"internalType": "uint256",
					"name": "error",
					"type": "uint256"
				},
				{
					"indexed": false,
					"internalType": "uint256",
					"name": "info",
					"type": "uint256"
				},
				{
					"indexed": false,
					"internalType": "uint256",
					"name": "detail",
					"type": "uint256"
				}
			],
			"name": "Failure",
			"type": "event"
		},
		{
			"anonymous": false,
			"inputs": [
				{
					"indexed": false,
					"internalType": "contract CToken",
					"name": "cToken",
					"type": "address"
				},
				{
					"indexed": false,
					"internalType": "address",
					"name": "account",
					"type": "address"
				}
			],
			"name": "MarketEntered",
			"type": "event"
		},
		{
			"anonymous": false,
			"inputs": [
				{
					"indexed": false,
					"internalType": "contract CToken",
					"name": "cToken",
					"type": "address"
				},
				{
					"indexed": false,
					"internalType": "address",
					"name": "account",
					"type": "address"
				}
			],
			"name": "MarketExited",
			"type": "event"
		},
		{
			"anonymous": false,
			"inputs": [
				{
					"indexed": false,
					"internalType": "contract CToken",
					"name": "cToken",
					"type": "address"
				}
			],
			"name": "MarketListed",
			"type": "event"
		},
		{
			"anonymous": false,
			"inputs": [
				{
					"indexed": true,
					"internalType": "contract CToken",
					"name": "cToken",
					"type": "address"
				},
				{
					"indexed": false,
					"internalType": "uint256",
					"name": "newBorrowCap",
					"type": "uint256"
				}
			],
			"name": "NewBorrowCap",
			"type": "event"
		},
		{
			"anonymous": false,
			"inputs": [
				{
					"indexed": false,
					"internalType": "address",
					"name": "oldBorrowCapGuardian",
					"type": "address"
				},
				{
					"indexed": false,
					"internalType": "address",
					"name": "newBorrowCapGuardian",
					"type": "address"
				}
			],
			"name": "NewBorrowCapGuardian",
			"type": "event"
		},
		{
			"anonymous": false,
			"inputs": [
				{
					"indexed": false,
					"internalType": "uint256",
					"name": "oldCloseFactorMantissa",
					"type": "uint256"
				},
				{
					"indexed": false,
					"internalType": "uint256",
					"name": "newCloseFactorMantissa",
					"type": "uint256"
				}
			],
			"name": "NewCloseFactor",
			"type": "event"
		},
		{
			"anonymous": false,
			"inputs": [
				{
					"indexed": false,
					"internalType": "contract CToken",
					"name": "cToken",
					"type": "address"
				},
				{
					"indexed": false,
					"internalType": "uint256",
					"name": "oldCollateralFactorMantissa",
					"type": "uint256"
				},
				{
					"indexed": false,
					"internalType": "uint256",
					"name": "newCollateralFactorMantissa",
					"type": "uint256"
				}
			],
			"name": "NewCollateralFactor",
			"type": "event"
		},
		{
			"anonymous": false,
			"inputs": [
				{
					"indexed": false,
					"internalType": "uint256",
					"name": "oldLiquidationIncentiveMantissa",
					"type": "uint256"
				},
				{
					"indexed": false,
					"internalType": "uint256",
					"name": "newLiquidationIncentiveMantissa",
					"type": "uint256"
				}
			],
			"name": "NewLiquidationIncentive",
			"type": "event"
		},
		{
			"anonymous": false,
			"inputs": [
				{
					"indexed": false,
					"internalType": "address",
					"name": "oldPauseGuardian",
					"type": "address"
				},
				{
					"indexed": false,
					"internalType": "address",
					"name": "newPauseGuardian",
					"type": "address"
				}
			],
			"name": "NewPauseGuardian",
			"type": "event"
		},
		{
			"anonymous": false,
			"inputs": [
				{
					"indexed": false,
					"internalType": "contract PriceOracle",
					"name": "oldPriceOracle",
					"type": "address"
				},
				{
					"indexed": false,
					"internalType": "contract PriceOracle",
					"name": "newPriceOracle",
					"type": "address"
				}
			],
			"name": "NewPriceOracle",
			"type": "event"
		},
		{
			"inputs": [
				{
					"internalType": "contract Unitroller",
					"name": "unitroller",
					"type": "address"
				}
			],
			"name": "_become",
			"outputs": [],
			"stateMutability": "nonpayable",
			"type": "function"
		},
		{
			"inputs": [],
			"name": "_borrowGuardianPaused",
			"outputs": [
				{
					"internalType": "bool",
					"name": "",
					"type": "bool"
				}
			],
			"stateMutability": "view",
			"type": "function"
		},
		{
			"inputs": [
				{
					"internalType": "address",
					"name": "recipient",
					"type": "address"
				},
				{
					"internalType": "uint256",
					"name": "amount",
					"type": "uint256"
				}
			],
			"name": "_grantComp",
			"outputs": [],
			"stateMutability": "nonpayable",
			"type": "function"
		},
		{
			"inputs": [],
			"name": "_mintGuardianPaused",
			"outputs": [
				{
					"internalType": "bool",
					"name": "",
					"type": "bool"
				}
			],
			"stateMutability": "view",
			"type": "function"
		},
		{
			"inputs": [
				{
					"internalType": "address",
					"name": "newBorrowCapGuardian",
					"type": "address"
				}
			],
			"name": "_setBorrowCapGuardian",
			"outputs": [],
			"stateMutability": "nonpayable",
			"type": "function"
		},
		{
			"inputs": [
				{
					"internalType": "contract CToken",
					"name": "cToken",
					"type": "address"
				},
				{
					"internalType": "bool",
					"name": "state",
					"type": "bool"
				}
			],
			"name": "_setBorrowPaused",
			"outputs": [
				{
					"internalType": "bool",
					"name": "",
					"type": "bool"
				}
			],
			"stateMutability": "nonpayable",
			"type": "function"
		},
		{
			"inputs": [
				{
					"internalType": "uint256",
					"name": "newCloseFactorMantissa",
					"type": "uint256"
				}
			],
			"name": "_setCloseFactor",
			"outputs": [
				{
					"internalType": "uint256",
					"name": "",
					"type": "uint256"
				}
			],
			"stateMutability": "nonpayable",
			"type": "function"
		},
		{
			"inputs": [
				{
					"internalType": "contract CToken",
					"name": "cToken",
					"type": "address"
				},
				{
					"internalType": "uint256",
					"name": "newCollateralFactorMantissa",
					"type": "uint256"
				}
			],
			"name": "_setCollateralFactor",
			"outputs": [
				{
					"internalType": "uint256",
					"name": "",
					"type": "uint256"
				}
			],
			"stateMutability": "nonpayable",
			"type": "function"
		},
		{
			"inputs": [
				{
					"internalType": "contract CToken[]",
					"name": "cTokens",
					"type": "address[]"
				},
				{
					"internalType": "uint256[]",
					"name": "supplySpeeds",
					"type": "uint256[]"
				},
				{
					"internalType": "uint256[]",
					"name": "borrowSpeeds",
					"type": "uint256[]"
				}
			],
			"name": "_setCompSpeeds",
			"outputs": [],
			"stateMutability": "nonpayable",
			"type": "function"
		},
		{
			"inputs": [
				{
					"internalType": "address",
					"name": "contributor",
					"type": "address"
				},
				{
					"internalType": "uint256",
					"name": "compSpeed",
					"type": "uint256"
				}
			],
			"name": "_setContributorCompSpeed",
			"outputs": [],
			"stateMutability": "nonpayable",
			"type": "function"
		},
		{
			"inputs": [
				{
					"internalType": "uint256",
					"name": "newLiquidationIncentiveMantissa",
					"type": "uint256"
				}
			],
			"name": "_setLiquidationIncentive",
			"outputs": [
				{
					"internalType": "uint256",
					"name": "",
					"type": "uint256"
				}
			],
			"stateMutability": "nonpayable",
			"type": "function"
		},
		{
			"inputs": [
				{
					"internalType": "contract CToken[]",
					"name": "cTokens",
					"type": "address[]"
				},
				{
					"internalType": "uint256[]",
					"name": "newBorrowCaps",
					"type": "uint256[]"
				}
			],
			"name": "_setMarketBorrowCaps",
			"outputs": [],
			"stateMutability": "nonpayable",
			"type": "function"
		},
		{
			"inputs": [
				{
					"internalType": "contract CToken",
					"name": "cToken",
					"type": "address"
				},
				{
					"internalType": "bool",
					"name": "state",
					"type": "bool"
				}
			],
			"name": "_setMintPaused",
			"outputs": [
				{
					"internalType": "bool",
					"name": "",
					"type": "bool"
				}
			],
			"stateMutability": "nonpayable",
			"type": "function"
		},
		{
			"inputs": [
				{
					"internalType": "address",
					"name": "newPauseGuardian",
					"type": "address"
				}
			],
			"name": "_setPauseGuardian",
			"outputs": [
				{
					"internalType": "uint256",
					"name": "",
					"type": "uint256"
				}
			],
			"stateMutability": "nonpayable",
			"type": "function"
		},
		{
			"inputs": [
				{
					"internalType": "contract PriceOracle",
					"name": "newOracle",
					"type": "address"
				}
			],
			"name": "_setPriceOracle",
			"outputs": [
				{
					"internalType": "uint256",
					"name": "",
					"type": "uint256"
				}
			],
			"stateMutability": "nonpayable",
			"type": "function"
		},
		{
			"inputs": [
				{
					"internalType": "bool",
					"name": "state",
					"type": "bool"
				}
			],
			"name": "_setSeizePaused",
			"outputs": [
				{
					"internalType": "bool",
					"name": "",
					"type": "bool"
				}
			],
			"stateMutability": "nonpayable",
			"type": "function"
		},
		{
			"inputs": [
				{
					"internalType": "bool",
					"name": "state",
					"type": "bool"
				}
			],
			"name": "_setTransferPaused",
			"outputs": [
				{
					"internalType": "bool",
					"name": "",
					"type": "bool"
				}
			],
			"stateMutability": "nonpayable",
			"type": "function"
		},
		{
			"inputs": [
				{
					"internalType": "contract CToken",
					"name": "cToken",
					"type": "address"
				}
			],
			"name": "_supportMarket",
			"outputs": [
				{
					"internalType": "uint256",
					"name": "",
					"type": "uint256"
				}
			],
			"stateMutability": "nonpayable",
			"type": "function"
		},
		{
			"inputs": [
				{
					"internalType": "address",
					"name": "",
					"type": "address"
				},
				{
					"internalType": "uint256",
					"name": "",
					"type": "uint256"
				}
			],
			"name": "accountAssets",
			"outputs": [
				{
					"internalType": "contract CToken",
					"name": "",
					"type": "address"
				}
			],
			"stateMutability": "view",
			"type": "function"
		},
		{
			"inputs": [],
			"name": "admin",
			"outputs": [
				{
					"internalType": "address",
					"name": "",
					"type": "address"
				}
			],
			"stateMutability": "view",
			"type": "function"
		},
		{
			"inputs": [
				{
					"internalType": "uint256",
					"name": "",
					"type": "uint256"
				}
			],
			"name": "allMarkets",
			"outputs": [
				{
					"internalType": "contract CToken",
					"name": "",
					"type": "address"
				}
			],
			"stateMutability": "view",
			"type": "function"
		},
		{
			"inputs": [
				{
					"internalType": "address",
					"name": "cToken",
					"type": "address"
				},
				{
					"internalType": "address",
					"name": "borrower",
					"type": "address"
				},
				{
					"internalType": "uint256",
					"name": "borrowAmount",
					"type": "uint256"
				}
			],
			"name": "borrowAllowed",
			"outputs": [
				{
					"internalType": "uint256",
					"name": "",
					"type": "uint256"
				}
			],
			"stateMutability": "nonpayable",
			"type": "function"
		},
		{
			"inputs": [],
			"name": "borrowCapGuardian",
			"outputs": [
				{
					"internalType": "address",
					"name": "",
					"type": "address"
				}
			],
			"stateMutability": "view",
			"type": "function"
		},
		{
			"inputs": [
				{
					"internalType": "address",
					"name": "",
					"type": "address"
				}
			],
			"name": "borrowCaps",
			"outputs": [
				{
					"internalType": "uint256",
					"name": "",
					"type": "uint256"
				}
			],
			"stateMutability": "view",
			"type": "function"
		},
		{
			"inputs": [
				{
					"internalType": "address",
					"name": "",
					"type": "address"
				}
			],
			"name": "borrowGuardianPaused",
			"outputs": [
				{
					"internalType": "bool",
					"name": "",
					"type": "bool"
				}
			],
			"stateMutability": "view",
			"type": "function"
		},
		{
			"inputs": [
				{
					"internalType": "address",
					"name": "cToken",
					"type": "address"
				},
				{
					"internalType": "address",
					"name": "borrower",
					"type": "address"
				},
				{
					"internalType": "uint256",
					"name": "borrowAmount",
					"type": "uint256"
				}
			],
			"name": "borrowVerify",
			"outputs": [],
			"stateMutability": "nonpayable",
			"type": "function"
		},
		{
			"inputs": [
				{
					"internalType": "address",
					"name": "account",
					"type": "address"
				},
				{
					"internalType": "contract CToken",
					"name": "cToken",
					"type": "address"
				}
			],
			"name": "checkMembership",
			"outputs": [
				{
					"internalType": "bool",
					"name": "",
					"type": "bool"
				}
			],
			"stateMutability": "view",
			"type": "function"
		},
		{
			"inputs": [
				{
					"internalType": "address",
					"name": "holder",
					"type": "address"
				},
				{
					"internalType": "contract CToken[]",
					"name": "cTokens",
					"type": "address[]"
				}
			],
			"name": "claimComp",
			"outputs": [],
			"stateMutability": "nonpayable",
			"type": "function"
		},
		{
			"inputs": [
				{
					"internalType": "address[]",
					"name": "holders",
					"type": "address[]"
				},
				{
					"internalType": "contract CToken[]",
					"name": "cTokens",
					"type": "address[]"
				},
				{
					"internalType": "bool",
					"name": "borrowers",
					"type": "bool"
				},
				{
					"internalType": "bool",
					"name": "suppliers",
					"type": "bool"
				}
			],
			"name": "claimComp",
			"outputs": [],
			"stateMutability": "nonpayable",
			"type": "function"
		},
		{
			"inputs": [
				{
					"internalType": "address",
					"name": "holder",
					"type": "address"
				}
			],
			"name": "claimComp",
			"outputs": [],
			"stateMutability": "nonpayable",
			"type": "function"
		},
		{
			"inputs": [],
			"name": "closeFactorMantissa",
			"outputs": [
				{
					"internalType": "uint256",
					"name": "",
					"type": "uint256"
				}
			],
			"stateMutability": "view",
			"type": "function"
		},
		{
			"inputs": [
				{
					"internalType": "address",
					"name": "",
					"type": "address"
				}
			],
			"name": "compAccrued",
			"outputs": [
				{
					"internalType": "uint256",
					"name": "",
					"type": "uint256"
				}
			],
			"stateMutability": "view",
			"type": "function"
		},
		{
			"inputs": [
				{
					"internalType": "address",
					"name": "",
					"type": "address"
				}
			],
			"name": "compBorrowSpeeds",
			"outputs": [
				{
					"internalType": "uint256",
					"name": "",
					"type": "uint256"
				}
			],
			"stateMutability": "view",
			"type": "function"
		},
		{
			"inputs": [
				{
					"internalType": "address",
					"name": "",
					"type": "address"
				}
			],
			"name": "compBorrowState",
			"outputs": [
				{
					"internalType": "uint224",
					"name": "index",
					"type": "uint224"
				},
				{
					"internalType": "uint32",
					"name": "block",
					"type": "uint32"
				}
			],
			"stateMutability": "view",
			"type": "function"
		},
		{
			"inputs": [
				{
					"internalType": "address",
					"name": "",
					"type": "address"
				},
				{
					"internalType": "address",
					"name": "",
					"type": "address"
				}
			],
			"name": "compBorrowerIndex",
			"outputs": [
				{
					"internalType": "uint256",
					"name": "",
					"type": "uint256"
				}
			],
			"stateMutability": "view",
			"type": "function"
		},
		{
			"inputs": [
				{
					"internalType": "address",
					"name": "",
					"type": "address"
				}
			],
			"name": "compContributorSpeeds",
			"outputs": [
				{
					"internalType": "uint256",
					"name": "",
					"type": "uint256"
				}
			],
			"stateMutability": "view",
			"type": "function"
		},
		{
			"inputs": [],
			"name": "compInitialIndex",
			"outputs": [
				{
					"internalType": "uint224",
					"name": "",
					"type": "uint224"
				}
			],
			"stateMutability": "view",
			"type": "function"
		},
		{
			"inputs": [],
			"name": "compRate",
			"outputs": [
				{
					"internalType": "uint256",
					"name": "",
					"type": "uint256"
				}
			],
			"stateMutability": "view",
			"type": "function"
		},
		{
			"inputs": [
				{
					"internalType": "address",
					"name": "",
					"type": "address"
				}
			],
			"name": "compReceivable",
			"outputs": [
				{
					"internalType": "uint256",
					"name": "",
					"type": "uint256"
				}
			],
			"stateMutability": "view",
			"type": "function"
		},
		{
			"inputs": [
				{
					"internalType": "address",
					"name": "",
					"type": "address"
				}
			],
			"name": "compSpeeds",
			"outputs": [
				{
					"internalType": "uint256",
					"name": "",
					"type": "uint256"
				}
			],
			"stateMutability": "view",
			"type": "function"
		},
		{
			"inputs": [
				{
					"internalType": "address",
					"name": "",
					"type": "address"
				},
				{
					"internalType": "address",
					"name": "",
					"type": "address"
				}
			],
			"name": "compSupplierIndex",
			"outputs": [
				{
					"internalType": "uint256",
					"name": "",
					"type": "uint256"
				}
			],
			"stateMutability": "view",
			"type": "function"
		},
		{
			"inputs": [
				{
					"internalType": "address",
					"name": "",
					"type": "address"
				}
			],
			"name": "compSupplySpeeds",
			"outputs": [
				{
					"internalType": "uint256",
					"name": "",
					"type": "uint256"
				}
			],
			"stateMutability": "view",
			"type": "function"
		},
		{
			"inputs": [
				{
					"internalType": "address",
					"name": "",
					"type": "address"
				}
			],
			"name": "compSupplyState",
			"outputs": [
				{
					"internalType": "uint224",
					"name": "index",
					"type": "uint224"
				},
				{
					"internalType": "uint32",
					"name": "block",
					"type": "uint32"
				}
			],
			"stateMutability": "view",
			"type": "function"
		},
		{
			"inputs": [],
			"name": "comptrollerImplementation",
			"outputs": [
				{
					"internalType": "address",
					"name": "",
					"type": "address"
				}
			],
			"stateMutability": "view",
			"type": "function"
		},
		{
			"inputs": [
				{
					"internalType": "address[]",
					"name": "cTokens",
					"type": "address[]"
				}
			],
			"name": "enterMarkets",
			"outputs": [
				{
					"internalType": "uint256[]",
					"name": "",
					"type": "uint256[]"
				}
			],
			"stateMutability": "nonpayable",
			"type": "function"
		},
		{
			"inputs": [
				{
					"internalType": "address",
					"name": "cTokenAddress",
					"type": "address"
				}
			],
			"name": "exitMarket",
			"outputs": [
				{
					"internalType": "uint256",
					"name": "",
					"type": "uint256"
				}
			],
			"stateMutability": "nonpayable",
			"type": "function"
		},
		{
			"inputs": [
				{
					"internalType": "address[]",
					"name": "affectedUsers",
					"type": "address[]"
				},
				{
					"internalType": "uint256[]",
					"name": "amounts",
					"type": "uint256[]"
				}
			],
			"name": "fixBadAccruals",
			"outputs": [],
			"stateMutability": "nonpayable",
			"type": "function"
		},
		{
			"inputs": [
				{
					"internalType": "address",
					"name": "account",
					"type": "address"
				}
			],
			"name": "getAccountLiquidity",
			"outputs": [
				{
					"internalType": "uint256",
					"name": "",
					"type": "uint256"
				},
				{
					"internalType": "uint256",
					"name": "",
					"type": "uint256"
				},
				{
					"internalType": "uint256",
					"name": "",
					"type": "uint256"
				}
			],
			"stateMutability": "view",
			"type": "function"
		},
		{
			"inputs": [],
			"name": "getAllMarkets",
			"outputs": [
				{
					"internalType": "contract CToken[]",
					"name": "",
					"type": "address[]"
				}
			],
			"stateMutability": "view",
			"type": "function"
		},
		{
			"inputs": [
				{
					"internalType": "address",
					"name": "account",
					"type": "address"
				}
			],
			"name": "getAssetsIn",
			"outputs": [
				{
					"internalType": "contract CToken[]",
					"name": "",
					"type": "address[]"
				}
			],
			"stateMutability": "view",
			"type": "function"
		},
		{
			"inputs": [],
			"name": "getBlockNumber",
			"outputs": [
				{
					"internalType": "uint256",
					"name": "",
					"type": "uint256"
				}
			],
			"stateMutability": "view",
			"type": "function"
		},
		{
			"inputs": [],
			"name": "getCompAddress",
			"outputs": [
				{
					"internalType": "address",
					"name": "",
					"type": "address"
				}
			],
			"stateMutability": "view",
			"type": "function"
		},
		{
			"inputs": [
				{
					"internalType": "address",
					"name": "account",
					"type": "address"
				},
				{
					"internalType": "address",
					"name": "cTokenModify",
					"type": "address"
				},
				{
					"internalType": "uint256",
					"name": "redeemTokens",
					"type": "uint256"
				},
				{
					"internalType": "uint256",
					"name": "borrowAmount",
					"type": "uint256"
				}
			],
			"name": "getHypotheticalAccountLiquidity",
			"outputs": [
				{
					"internalType": "uint256",
					"name": "",
					"type": "uint256"
				},
				{
					"internalType": "uint256",
					"name": "",
					"type": "uint256"
				},
				{
					"internalType": "uint256",
					"name": "",
					"type": "uint256"
				}
			],
			"stateMutability": "view",
			"type": "function"
		},
		{
			"inputs": [],
			"name": "isComptroller",
			"outputs": [
				{
					"internalType": "bool",
					"name": "",
					"type": "bool"
				}
			],
			"stateMutability": "view",
			"type": "function"
		},
		{
			"inputs": [
				{
					"internalType": "contract CToken",
					"name": "cToken",
					"type": "address"
				}
			],
			"name": "isDeprecated",
			"outputs": [
				{
					"internalType": "bool",
					"name": "",
					"type": "bool"
				}
			],
			"stateMutability": "view",
			"type": "function"
		},
		{
			"inputs": [
				{
					"internalType": "address",
					"name": "",
					"type": "address"
				}
			],
			"name": "lastContributorBlock",
			"outputs": [
				{
					"internalType": "uint256",
					"name": "",
					"type": "uint256"
				}
			],
			"stateMutability": "view",
			"type": "function"
		},
		{
			"inputs": [
				{
					"internalType": "address",
					"name": "cTokenBorrowed",
					"type": "address"
				},
				{
					"internalType": "address",
					"name": "cTokenCollateral",
					"type": "address"
				},
				{
					"internalType": "address",
					"name": "liquidator",
					"type": "address"
				},
				{
					"internalType": "address",
					"name": "borrower",
					"type": "address"
				},
				{
					"internalType": "uint256",
					"name": "repayAmount",
					"type": "uint256"
				}
			],
			"name": "liquidateBorrowAllowed",
			"outputs": [
				{
					"internalType": "uint256",
					"name": "",
					"type": "uint256"
				}
			],
			"stateMutability": "nonpayable",
			"type": "function"
		},
		{
			"inputs": [
				{
					"internalType": "address",
					"name": "cTokenBorrowed",
					"type": "address"
				},
				{
					"internalType": "address",
					"name": "cTokenCollateral",
					"type": "address"
				},
				{
					"internalType": "address",
					"name": "liquidator",
					"type": "address"
				},
				{
					"internalType": "address",
					"name": "borrower",
					"type": "address"
				},
				{
					"internalType": "uint256",
					"name": "actualRepayAmount",
					"type": "uint256"
				},
				{
					"internalType": "uint256",
					"name": "seizeTokens",
					"type": "uint256"
				}
			],
			"name": "liquidateBorrowVerify",
			"outputs": [],
			"stateMutability": "nonpayable",
			"type": "function"
		},
		{
			"inputs": [
				{
					"internalType": "address",
					"name": "cTokenBorrowed",
					"type": "address"
				},
				{
					"internalType": "address",
					"name": "cTokenCollateral",
					"type": "address"
				},
				{
					"internalType": "uint256",
					"name": "actualRepayAmount",
					"type": "uint256"
				}
			],
			"name": "liquidateCalculateSeizeTokens",
			"outputs": [
				{
					"internalType": "uint256",
					"name": "",
					"type": "uint256"
				},
				{
					"internalType": "uint256",
					"name": "",
					"type": "uint256"
				}
			],
			"stateMutability": "view",
			"type": "function"
		},
		{
			"inputs": [],
			"name": "liquidationIncentiveMantissa",
			"outputs": [
				{
					"internalType": "uint256",
					"name": "",
					"type": "uint256"
				}
			],
			"stateMutability": "view",
			"type": "function"
		},
		{
			"inputs": [
				{
					"internalType": "address",
					"name": "",
					"type": "address"
				}
			],
			"name": "markets",
			"outputs": [
				{
					"internalType": "bool",
					"name": "isListed",
					"type": "bool"
				},
				{
					"internalType": "uint256",
					"name": "collateralFactorMantissa",
					"type": "uint256"
				},
				{
					"internalType": "bool",
					"name": "isComped",
					"type": "bool"
				}
			],
			"stateMutability": "view",
			"type": "function"
		},
		{
			"inputs": [],
			"name": "maxAssets",
			"outputs": [
				{
					"internalType": "uint256",
					"name": "",
					"type": "uint256"
				}
			],
			"stateMutability": "view",
			"type": "function"
		},
		{
			"inputs": [
				{
					"internalType": "address",
					"name": "cToken",
					"type": "address"
				},
				{
					"internalType": "address",
					"name": "minter",
					"type": "address"
				},
				{
					"internalType": "uint256",
					"name": "mintAmount",
					"type": "uint256"
				}
			],
			"name": "mintAllowed",
			"outputs": [
				{
					"internalType": "uint256",
					"name": "",
					"type": "uint256"
				}
			],
			"stateMutability": "nonpayable",
			"type": "function"
		},
		{
			"inputs": [
				{
					"internalType": "address",
					"name": "",
					"type": "address"
				}
			],
			"name": "mintGuardianPaused",
			"outputs": [
				{
					"internalType": "bool",
					"name": "",
					"type": "bool"
				}
			],
			"stateMutability": "view",
			"type": "function"
		},
		{
			"inputs": [
				{
					"internalType": "address",
					"name": "cToken",
					"type": "address"
				},
				{
					"internalType": "address",
					"name": "minter",
					"type": "address"
				},
				{
					"internalType": "uint256",
					"name": "actualMintAmount",
					"type": "uint256"
				},
				{
					"internalType": "uint256",
					"name": "mintTokens",
					"type": "uint256"
				}
			],
			"name": "mintVerify",
			"outputs": [],
			"stateMutability": "nonpayable",
			"type": "function"
		},
		{
			"inputs": [],
			"name": "oracle",
			"outputs": [
				{
					"internalType": "contract PriceOracle",
					"name": "",
					"type": "address"
				}
			],
			"stateMutability": "view",
			"type": "function"
		},
		{
			"inputs": [],
			"name": "pauseGuardian",
			"outputs": [
				{
					"internalType": "address",
					"name": "",
					"type": "address"
				}
			],
			"stateMutability": "view",
			"type": "function"
		},
		{
			"inputs": [],
			"name": "pendingAdmin",
			"outputs": [
				{
					"internalType": "address",
					"name": "",
					"type": "address"
				}
			],
			"stateMutability": "view",
			"type": "function"
		},
		{
			"inputs": [],
			"name": "pendingComptrollerImplementation",
			"outputs": [
				{
					"internalType": "address",
					"name": "",
					"type": "address"
				}
			],
			"stateMutability": "view",
			"type": "function"
		},
		{
			"inputs": [],
			"name": "proposal65FixExecuted",
			"outputs": [
				{
					"internalType": "bool",
					"name": "",
					"type": "bool"
				}
			],
			"stateMutability": "view",
			"type": "function"
		},
		{
			"inputs": [
				{
					"internalType": "address",
					"name": "cToken",
					"type": "address"
				},
				{
					"internalType": "address",
					"name": "redeemer",
					"type": "address"
				},
				{
					"internalType": "uint256",
					"name": "redeemTokens",
					"type": "uint256"
				}
			],
			"name": "redeemAllowed",
			"outputs": [
				{
					"internalType": "uint256",
					"name": "",
					"type": "uint256"
				}
			],
			"stateMutability": "nonpayable",
			"type": "function"
		},
		{
			"inputs": [
				{
					"internalType": "address",
					"name": "cToken",
					"type": "address"
				},
				{
					"internalType": "address",
					"name": "redeemer",
					"type": "address"
				},
				{
					"internalType": "uint256",
					"name": "redeemAmount",
					"type": "uint256"
				},
				{
					"internalType": "uint256",
					"name": "redeemTokens",
					"type": "uint256"
				}
			],
			"name": "redeemVerify",
			"outputs": [],
			"stateMutability": "nonpayable",
			"type": "function"
		},
		{
			"inputs": [
				{
					"internalType": "address",
					"name": "cToken",
					"type": "address"
				},
				{
					"internalType": "address",
					"name": "payer",
					"type": "address"
				},
				{
					"internalType": "address",
					"name": "borrower",
					"type": "address"
				},
				{
					"internalType": "uint256",
					"name": "repayAmount",
					"type": "uint256"
				}
			],
			"name": "repayBorrowAllowed",
			"outputs": [
				{
					"internalType": "uint256",
					"name": "",
					"type": "uint256"
				}
			],
			"stateMutability": "nonpayable",
			"type": "function"
		},
		{
			"inputs": [
				{
					"internalType": "address",
					"name": "cToken",
					"type": "address"
				},
				{
					"internalType": "address",
					"name": "payer",
					"type": "address"
				},
				{
					"internalType": "address",
					"name": "borrower",
					"type": "address"
				},
				{
					"internalType": "uint256",
					"name": "actualRepayAmount",
					"type": "uint256"
				},
				{
					"internalType": "uint256",
					"name": "borrowerIndex",
					"type": "uint256"
				}
			],
			"name": "repayBorrowVerify",
			"outputs": [],
			"stateMutability": "nonpayable",
			"type": "function"
		},
		{
			"inputs": [
				{
					"internalType": "address",
					"name": "cTokenCollateral",
					"type": "address"
				},
				{
					"internalType": "address",
					"name": "cTokenBorrowed",
					"type": "address"
				},
				{
					"internalType": "address",
					"name": "liquidator",
					"type": "address"
				},
				{
					"internalType": "address",
					"name": "borrower",
					"type": "address"
				},
				{
					"internalType": "uint256",
					"name": "seizeTokens",
					"type": "uint256"
				}
			],
			"name": "seizeAllowed",
			"outputs": [
				{
					"internalType": "uint256",
					"name": "",
					"type": "uint256"
				}
			],
			"stateMutability": "nonpayable",
			"type": "function"
		},
		{
			"inputs": [],
			"name": "seizeGuardianPaused",
			"outputs": [
				{
					"internalType": "bool",
					"name": "",
					"type": "bool"
				}
			],
			"stateMutability": "view",
			"type": "function"
		},
		{
			"inputs": [
				{
					"internalType": "address",
					"name": "cTokenCollateral",
					"type": "address"
				},
				{
					"internalType": "address",
					"name": "cTokenBorrowed",
					"type": "address"
				},
				{
					"internalType": "address",
					"name": "liquidator",
					"type": "address"
				},
				{
					"internalType": "address",
					"name": "borrower",
					"type": "address"
				},
				{
					"internalType": "uint256",
					"name": "seizeTokens",
					"type": "uint256"
				}
			],
			"name": "seizeVerify",
			"outputs": [],
			"stateMutability": "nonpayable",
			"type": "function"
		},
		{
			"inputs": [
				{
					"internalType": "address",
					"name": "cToken",
					"type": "address"
				},
				{
					"internalType": "address",
					"name": "src",
					"type": "address"
				},
				{
					"internalType": "address",
					"name": "dst",
					"type": "address"
				},
				{
					"internalType": "uint256",
					"name": "transferTokens",
					"type": "uint256"
				}
			],
			"name": "transferAllowed",
			"outputs": [
				{
					"internalType": "uint256",
					"name": "",
					"type": "uint256"
				}
			],
			"stateMutability": "nonpayable",
			"type": "function"
		},
		{
			"inputs": [],
			"name": "transferGuardianPaused",
			"outputs": [
				{
					"internalType": "bool",
					"name": "",
					"type": "bool"
				}
			],
			"stateMutability": "view",
			"type": "function"
		},
		{
			"inputs": [
				{
					"internalType": "address",
					"name": "cToken",
					"type": "address"
				},
				{
					"internalType": "address",
					"name": "src",
					"type": "address"
				},
				{
					"internalType": "address",
					"name": "dst",
					"type": "address"
				},
				{
					"internalType": "uint256",
					"name": "transferTokens",
					"type": "uint256"
				}
			],
			"name": "transferVerify",
			"outputs": [],
			"stateMutability": "nonpayable",
			"type": "function"
		},
		{
			"inputs": [
				{
					"internalType": "address",
					"name": "contributor",
					"type": "address"
				}
			],
			"name": "updateContributorRewards",
			"outputs": [],
			"stateMutability": "nonpayable",
			"type": "function"
		}
	]
}