{
	"data": {
		"bytecode": {
			"linkReferences": {},
			"object": "608060405234801561001057600080fd5b506040516104f33803806104f383398101604081905261002f916100be565b61003c62201480856100f4565b60015561004c62201480846100f4565b60005561005c62201480836100f4565b60028190556003829055600154600054604080519283526020830191909152810191909152606081018290527f6960ab234c7ef4b0c9197100f5393cfcde7c453ac910a27bd2000aa1dd4c068d9060800160405180910390a150505050610116565b600080600080608085870312156100d457600080fd5b505082516020840151604085015160609095015191969095509092509050565b60008261011157634e487b7160e01b600052601260045260246000fd5b500490565b6103ce806101256000396000f3fe608060405234801561001057600080fd5b50600436106100935760003560e01c8063a385fb9611610066578063a385fb96146100f2578063b8168816146100fc578063b9f9850a1461010f578063f14039de14610118578063fd2da3391461012157600080fd5b806315f24053146100985780632191f92a146100be5780636e71e2d8146100d65780638726bb89146100e9575b600080fd5b6100ab6100a63660046102bf565b61012a565b6040519081526020015b60405180910390f35b6100c6600181565b60405190151581526020016100b5565b6100ab6100e43660046102bf565b6101f8565b6100ab60005481565b6100ab6220148081565b6100ab61010a3660046102eb565b610243565b6100ab60025481565b6100ab60015481565b6100ab60035481565b6000806101388585856101f8565b9050600354811161017957600154670de0b6b3a76400006000548361015d9190610333565b6101679190610350565b6101719190610372565b9150506101f1565b6000600154670de0b6b3a76400006000546003546101979190610333565b6101a19190610350565b6101ab9190610372565b90506000600354836101bd9190610385565b905081670de0b6b3a7640000600254836101d79190610333565b6101e19190610350565b6101eb9190610372565b93505050505b9392505050565b60008260000361020a575060006101f1565b816102158486610372565b61021f9190610385565b610231670de0b6b3a764000085610333565b61023b9190610350565b949350505050565b60008061025883670de0b6b3a7640000610385565b9050600061026787878761012a565b90506000670de0b6b3a764000061027e8484610333565b6102889190610350565b9050670de0b6b3a76400008161029f8a8a8a6101f8565b6102a99190610333565b6102b39190610350565b98975050505050505050565b6000806000606084860312156102d457600080fd5b505081359360208301359350604090920135919050565b6000806000806080858703121561030157600080fd5b5050823594602084013594506040840135936060013592509050565b634e487b7160e01b600052601160045260246000fd5b808202811582820484141761034a5761034a61031d565b92915050565b60008261036d57634e487b7160e01b600052601260045260246000fd5b500490565b8082018082111561034a5761034a61031d565b8181038181111561034a5761034a61031d56fea264697066735822122044b7cceea466eafc5acd516dec267ce7dc0f1d8df7a66efd0696d00f150b59ea64736f6c63430008120033",
			"opcodes": "PUSH1 0x80 PUSH1 0x40 MSTORE CALLVALUE DUP1 ISZERO PUSH2 0x10 JUMPI PUSH1 0x0 DUP1 REVERT JUMPDEST POP PUSH1 0x40 MLOAD PUSH2 0x4F3 CODESIZE SUB DUP1 PUSH2 0x4F3 DUP4 CODECOPY DUP2 ADD PUSH1 0x40 DUP2 SWAP1 MSTORE PUSH2 0x2F SWAP2 PUSH2 0xBE JUMP JUMPDEST PUSH2 0x3C PUSH3 0x201480 DUP6 PUSH2 0xF4 JUMP JUMPDEST PUSH1 0x1 SSTORE PUSH2 0x4C PUSH3 0x201480 DUP5 PUSH2 0xF4 JUMP JUMPDEST PUSH1 0x0 SSTORE PUSH2 0x5C PUSH3 0x201480 DUP4 PUSH2 0xF4 JUMP JUMPDEST PUSH1 0x2 DUP2 SWAP1 SSTORE PUSH1 0x3 DUP3 SWAP1 SSTORE PUSH1 0x1 SLOAD PUSH1 0x0 SLOAD PUSH1 0x40 DUP1 MLOAD SWAP3 DUP4 MSTORE PUSH1 0x20 DUP4 ADD SWAP2 SWAP1 SWAP2 MSTORE DUP2 ADD SWAP2 SWAP1 SWAP2 MSTORE PUSH1 0x60 DUP2 ADD DUP3 SWAP1 MSTORE PUSH32 0x6960AB234C7EF4B0C9197100F5393CFCDE7C453AC910A27BD2000AA1DD4C068D SWAP1 PUSH1 0x80 ADD PUSH1 0x40 MLOAD DUP1 SWAP2 SUB SWAP1 LOG1 POP POP POP POP PUSH2 0x116 JUMP JUMPDEST PUSH1 0x0 DUP1 PUSH1 0x0 DUP1 PUSH1 0x80 DUP6 DUP8 SUB SLT ISZERO PUSH2 0xD4 JUMPI PUSH1 0x0 DUP1 REVERT JUMPDEST POP POP DUP3 MLOAD PUSH1 0x20 DUP5 ADD MLOAD PUSH1 0x40 DUP6 ADD MLOAD PUSH1 0x60 SWAP1 SWAP6 ADD MLOAD SWAP2 SWAP7 SWAP1 SWAP6 POP SWAP1 SWAP3 POP SWAP1 POP JUMP JUMPDEST PUSH1 0x0 DUP3 PUSH2 0x111 JUMPI PUSH4 0x4E487B71 PUSH1 0xE0 SHL PUSH1 0x0 MSTORE PUSH1 0x12 PUSH1 0x4 MSTORE PUSH1 0x24 PUSH1 0x0 REVERT JUMPDEST POP DIV SWAP1 JUMP JUMPDEST PUSH2 0x3CE DUP1 PUSH2 0x125 PUSH1 0x0 CODECOPY PUSH1 0x0 RETURN INVALID PUSH1 0x80 PUSH1 0x40 MSTORE CALLVALUE DUP1 ISZERO PUSH2 0x10 JUMPI PUSH1 0x0 DUP1 REVERT JUMPDEST POP PUSH1 0x4 CALLDATASIZE LT PUSH2 0x93 JUMPI PUSH1 0x0 CALLDATALOAD PUSH1 0xE0 SHR DUP1 PUSH4 0xA385FB96 GT PUSH2 0x66 JUMPI DUP1 PUSH4 0xA385FB96 EQ PUSH2 0xF2 JUMPI DUP1 PUSH4 0xB8168816 EQ PUSH2 0xFC JUMPI DUP1 PUSH4 0xB9F9850A EQ PUSH2 0x10F JUMPI DUP1 PUSH4 0xF14039DE EQ PUSH2 0x118 JUMPI DUP1 PUSH4 0xFD2DA339 EQ PUSH2 0x121 JUMPI PUSH1 0x0 DUP1 REVERT JUMPDEST DUP1 PUSH4 0x15F24053 EQ PUSH2 0x98 JUMPI DUP1 PUSH4 0x2191F92A EQ PUSH2 0xBE JUMPI DUP1 PUSH4 0x6E71E2D8 EQ PUSH2 0xD6 JUMPI DUP1 PUSH4 0x8726BB89 EQ PUSH2 0xE9 JUMPI JUMPDEST PUSH1 0x0 DUP1 REVERT JUMPDEST PUSH2 0xAB PUSH2 0xA6 CALLDATASIZE PUSH1 0x4 PUSH2 0x2BF JUMP JUMPDEST PUSH2 0x12A JUMP JUMPDEST PUSH1 0x40 MLOAD SWAP1 DUP2 MSTORE PUSH1 0x20 ADD JUMPDEST PUSH1 0x40 MLOAD DUP1 SWAP2 SUB SWAP1 RETURN JUMPDEST PUSH2 0xC6 PUSH1 0x1 DUP2 JUMP JUMPDEST PUSH1 0x40 MLOAD SWAP1 ISZERO ISZERO DUP2 MSTORE PUSH1 0x20 ADD PUSH2 0xB5 JUMP JUMPDEST PUSH2 0xAB PUSH2 0xE4 CALLDATASIZE PUSH1 0x4 PUSH2 0x2BF JUMP JUMPDEST PUSH2 0x1F8 JUMP JUMPDEST PUSH2 0xAB PUSH1 0x0 SLOAD DUP2 JUMP JUMPDEST PUSH2 0xAB PUSH3 0x201480 DUP2 JUMP JUMPDEST PUSH2 0xAB PUSH2 0x10A CALLDATASIZE PUSH1 0x4 PUSH2 0x2EB JUMP JUMPDEST PUSH2 0x243 JUMP JUMPDEST PUSH2 0xAB PUSH1 0x2 SLOAD DUP2 JUMP JUMPDEST PUSH2 0xAB PUSH1 0x1 SLOAD DUP2 JUMP JUMPDEST PUSH2 0xAB PUSH1 0x3 SLOAD DUP2 JUMP JUMPDEST PUSH1 0x0 DUP1 PUSH2 0x138 DUP6 DUP6 DUP6 PUSH2 0x1F8 JUMP JUMPDEST SWAP1 POP PUSH1 0x3 SLOAD DUP2 GT PUSH2 0x179 JUMPI PUSH1 0x1 SLOAD PUSH8 0xDE0B6B3A7640000 PUSH1 0x0 SLOAD DUP4 PUSH2 0x15D SWAP2 SWAP1 PUSH2 0x333 JUMP JUMPDEST PUSH2 0x167 SWAP2 SWAP1 PUSH2 0x350 JUMP JUMPDEST PUSH2 0x171 SWAP2 SWAP1 PUSH2 0x372 JUMP JUMPDEST SWAP2 POP POP PUSH2 0x1F1 JUMP JUMPDEST PUSH1 0x0 PUSH1 0x1 SLOAD PUSH8 0xDE0B6B3A7640000 PUSH1 0x0 SLOAD PUSH1 0x3 SLOAD PUSH2 0x197 SWAP2 SWAP1 PUSH2 0x333 JUMP JUMPDEST PUSH2 0x1A1 SWAP2 SWAP1 PUSH2 0x350 JUMP JUMPDEST PUSH2 0x1AB SWAP2 SWAP1 PUSH2 0x372 JUMP JUMPDEST SWAP1 POP PUSH1 0x0 PUSH1 0x3 SLOAD DUP4 PUSH2 0x1BD SWAP2 SWAP1 PUSH2 0x385 JUMP JUMPDEST SWAP1 POP DUP2 PUSH8 0xDE0B6B3A7640000 PUSH1 0x2 SLOAD DUP4 PUSH2 0x1D7 SWAP2 SWAP1 PUSH2 0x333 JUMP JUMPDEST PUSH2 0x1E1 SWAP2 SWAP1 PUSH2 0x350 JUMP JUMPDEST PUSH2 0x1EB SWAP2 SWAP1 PUSH2 0x372 JUMP JUMPDEST SWAP4 POP POP POP POP JUMPDEST SWAP4 SWAP3 POP POP POP JUMP JUMPDEST PUSH1 0x0 DUP3 PUSH1 0x0 SUB PUSH2 0x20A JUMPI POP PUSH1 0x0 PUSH2 0x1F1 JUMP JUMPDEST DUP2 PUSH2 0x215 DUP5 DUP7 PUSH2 0x372 JUMP JUMPDEST PUSH2 0x21F SWAP2 SWAP1 PUSH2 0x385 JUMP JUMPDEST PUSH2 0x231 PUSH8 0xDE0B6B3A7640000 DUP6 PUSH2 0x333 JUMP JUMPDEST PUSH2 0x23B SWAP2 SWAP1 PUSH2 0x350 JUMP JUMPDEST SWAP5 SWAP4 POP POP POP POP JUMP JUMPDEST PUSH1 0x0 DUP1 PUSH2 0x258 DUP4 PUSH8 0xDE0B6B3A7640000 PUSH2 0x385 JUMP JUMPDEST SWAP1 POP PUSH1 0x0 PUSH2 0x267 DUP8 DUP8 DUP8 PUSH2 0x12A JUMP JUMPDEST SWAP1 POP PUSH1 0x0 PUSH8 0xDE0B6B3A7640000 PUSH2 0x27E DUP5 DUP5 PUSH2 0x333 JUMP JUMPDEST PUSH2 0x288 SWAP2 SWAP1 PUSH2 0x350 JUMP JUMPDEST SWAP1 POP PUSH8 0xDE0B6B3A7640000 DUP2 PUSH2 0x29F DUP11 DUP11 DUP11 PUSH2 0x1F8 JUMP JUMPDEST PUSH2 0x2A9 SWAP2 SWAP1 PUSH2 0x333 JUMP JUMPDEST PUSH2 0x2B3 SWAP2 SWAP1 PUSH2 0x350 JUMP JUMPDEST SWAP9 SWAP8 POP POP POP POP POP POP POP POP JUMP JUMPDEST PUSH1 0x0 DUP1 PUSH1 0x0 PUSH1 0x60 DUP5 DUP7 SUB SLT ISZERO PUSH2 0x2D4 JUMPI PUSH1 0x0 DUP1 REVERT JUMPDEST POP POP DUP2 CALLDATALOAD SWAP4 PUSH1 0x20 DUP4 ADD CALLDATALOAD SWAP4 POP PUSH1 0x40 SWAP1 SWAP3 ADD CALLDATALOAD SWAP2 SWAP1 POP JUMP JUMPDEST PUSH1 0x0 DUP1 PUSH1 0x0 DUP1 PUSH1 0x80 DUP6 DUP8 SUB SLT ISZERO PUSH2 0x301 JUMPI PUSH1 0x0 DUP1 REVERT JUMPDEST POP POP DUP3 CALLDATALOAD SWAP5 PUSH1 0x20 DUP5 ADD CALLDATALOAD SWAP5 POP PUSH1 0x40 DUP5 ADD CALLDATALOAD SWAP4 PUSH1 0x60 ADD CALLDATALOAD SWAP3 POP SWAP1 POP JUMP JUMPDEST PUSH4 0x4E487B71 PUSH1 0xE0 SHL PUSH1 0x0 MSTORE PUSH1 0x11 PUSH1 0x4 MSTORE PUSH1 0x24 PUSH1 0x0 REVERT JUMPDEST DUP1 DUP3 MUL DUP2 ISZERO DUP3 DUP3 DIV DUP5 EQ OR PUSH2 0x34A JUMPI PUSH2 0x34A PUSH2 0x31D JUMP JUMPDEST SWAP3 SWAP2 POP POP JUMP JUMPDEST PUSH1 0x0 DUP3 PUSH2 0x36D JUMPI PUSH4 0x4E487B71 PUSH1 0xE0 SHL PUSH1 0x0 MSTORE PUSH1 0x12 PUSH1 0x4 MSTORE PUSH1 0x24 PUSH1 0x0 REVERT JUMPDEST POP DIV SWAP1 JUMP JUMPDEST DUP1 DUP3 ADD DUP1 DUP3 GT ISZERO PUSH2 0x34A JUMPI PUSH2 0x34A PUSH2 0x31D JUMP JUMPDEST DUP2 DUP2 SUB DUP2 DUP2 GT ISZERO PUSH2 0x34A JUMPI PUSH2 0x34A PUSH2 0x31D JUMP INVALID LOG2 PUSH5 0x6970667358 0x22 SLT KECCAK256 PREVRANDAO 0xB7 0xCC 0xEE LOG4 PUSH7 0xEAFC5ACD516DEC 0x26 PUSH29 0xE7DC0F1D8DF7A66EFD0696D00F150B59EA64736F6C6343000812003300 "
		},
		"gasEstimates": {
			"creation": {
				"codeDepositCost": "194800",
				"executionCost": "infinite",
				"totalCost": "infinite"
			},
			"external": {
				"baseRatePerBlock()": "2350",
				"blocksPerYear()": "184",
				"getBorrowRate(uint256,uint256,uint256)": "infinite",
				"getSupplyRate(uint256,uint256,uint256,uint256)": "infinite",
				"isInterestRateModel()": "224",
				"jumpMultiplierPerBlock()": "2328",
				"kink()": "2372",
				"multiplierPerBlock()": "2351",
				"utilizationRate(uint256,uint256,uint256)": "infinite"
			}
		},
		"methodIdentifiers": {
			"baseRatePerBlock()": "f14039de",
			"blocksPerYear()": "a385fb96",
			"getBorrowRate(uint256,uint256,uint256)": "15f24053",
			"getSupplyRate(uint256,uint256,uint256,uint256)": "b8168816",
			"isInterestRateModel()": "2191f92a",
			"jumpMultiplierPerBlock()": "b9f9850a",
			"kink()": "fd2da339",
			"multiplierPerBlock()": "8726bb89",
			"utilizationRate(uint256,uint256,uint256)": "6e71e2d8"
		}
	},
	"abi": [
		{
			"inputs": [
				{
					"internalType": "uint256",
					"name": "baseRatePerYear",
					"type": "uint256"
				},
				{
					"internalType": "uint256",
					"name": "multiplierPerYear",
					"type": "uint256"
				},
				{
					"internalType": "uint256",
					"name": "jumpMultiplierPerYear",
					"type": "uint256"
				},
				{
					"internalType": "uint256",
					"name": "kink_",
					"type": "uint256"
				}
			],
			"stateMutability": "nonpayable",
			"type": "constructor"
		},
		{
			"anonymous": false,
			"inputs": [
				{
					"indexed": false,
					"internalType": "uint256",
					"name": "baseRatePerBlock",
					"type": "uint256"
				},
				{
					"indexed": false,
					"internalType": "uint256",
					"name": "multiplierPerBlock",
					"type": "uint256"
				},
				{
					"indexed": false,
					"internalType": "uint256",
					"name": "jumpMultiplierPerBlock",
					"type": "uint256"
				},
				{
					"indexed": false,
					"internalType": "uint256",
					"name": "kink",
					"type": "uint256"
				}
			],
			"name": "NewInterestParams",
			"type": "event"
		},
		{
			"inputs": [],
			"name": "baseRatePerBlock",
			"outputs": [
				{
					"internalType": "uint256",
					"name": "",
					"type": "uint256"
				}
			],
			"stateMutability": "view",
			"type": "function"
		},
		{
			"inputs": [],
			"name": "blocksPerYear",
			"outputs": [
				{
					"internalType": "uint256",
					"name": "",
					"type": "uint256"
				}
			],
			"stateMutability": "view",
			"type": "function"
		},
		{
			"inputs": [
				{
					"internalType": "uint256",
					"name": "cash",
					"type": "uint256"
				},
				{
					"internalType": "uint256",
					"name": "borrows",
					"type": "uint256"
				},
				{
					"internalType": "uint256",
					"name": "reserves",
					"type": "uint256"
				}
			],
			"name": "getBorrowRate",
			"outputs": [
				{
					"internalType": "uint256",
					"name": "",
					"type": "uint256"
				}
			],
			"stateMutability": "view",
			"type": "function"
		},
		{
			"inputs": [
				{
					"internalType": "uint256",
					"name": "cash",
					"type": "uint256"
				},
				{
					"internalType": "uint256",
					"name": "borrows",
					"type": "uint256"
				},
				{
					"internalType": "uint256",
					"name": "reserves",
					"type": "uint256"
				},
				{
					"internalType": "uint256",
					"name": "reserveFactorMantissa",
					"type": "uint256"
				}
			],
			"name": "getSupplyRate",
			"outputs": [
				{
					"internalType": "uint256",
					"name": "",
					"type": "uint256"
				}
			],
			"stateMutability": "view",
			"type": "function"
		},
		{
			"inputs": [],
			"name": "isInterestRateModel",
			"outputs": [
				{
					"internalType": "bool",
					"name": "",
					"type": "bool"
				}
			],
			"stateMutability": "view",
			"type": "function"
		},
		{
			"inputs": [],
			"name": "jumpMultiplierPerBlock",
			"outputs": [
				{
					"internalType": "uint256",
					"name": "",
					"type": "uint256"
				}
			],
			"stateMutability": "view",
			"type": "function"
		},
		{
			"inputs": [],
			"name": "kink",
			"outputs": [
				{
					"internalType": "uint256",
					"name": "",
					"type": "uint256"
				}
			],
			"stateMutability": "view",
			"type": "function"
		},
		{
			"inputs": [],
			"name": "multiplierPerBlock",
			"outputs": [
				{
					"internalType": "uint256",
					"name": "",
					"type": "uint256"
				}
			],
			"stateMutability": "view",
			"type": "function"
		},
		{
			"inputs": [
				{
					"internalType": "uint256",
					"name": "cash",
					"type": "uint256"
				},
				{
					"internalType": "uint256",
					"name": "borrows",
					"type": "uint256"
				},
				{
					"internalType": "uint256",
					"name": "reserves",
					"type": "uint256"
				}
			],
			"name": "utilizationRate",
			"outputs": [
				{
					"internalType": "uint256",
					"name": "",
					"type": "uint256"
				}
			],
			"stateMutability": "pure",
			"type": "function"
		}
	]
}