{
	"data": {
		"bytecode": {
			"linkReferences": {},
			"object": "608060405234801561001057600080fd5b5060405161056738038061056783398101604081905261002f91610087565b436000908155600193909355600280546001600160a01b039384166001600160a01b031991821617909155600380549290931691161790556004556100ca565b6001600160a01b038116811461008457600080fd5b50565b60008060006060848603121561009c57600080fd5b8351925060208401516100ae8161006f565b60408501519092506100bf8161006f565b809150509250925092565b61048e806100d96000396000f3fe608060405234801561001057600080fd5b50600436106100625760003560e01c806388a91a8a1461006757806395f632b3146100835780639f678cca1461008c578063d326159214610094578063d4b839921461009d578063fc0c546a146100c8575b600080fd5b61007060005481565b6040519081526020015b60405180910390f35b61007060045481565b6100706100db565b61007060015481565b6003546100b0906001600160a01b031681565b6040516001600160a01b03909116815260200161007a565b6002546100b0906001600160a01b031681565b6002546040516370a0823160e01b81523060048201526000916001600160a01b031690829082906370a0823190602401602060405180830381865afa158015610128573d6000803e3d6000fd5b505050506040513d601f19601f8201168201806040525081019061014c9190610381565b6001546000805460045460035494955092939092916001600160a01b039091169043906101ad8661017d878561039a565b6040518060400160405280601281526020017164726970546f74616c206f766572666c6f7760701b8152506102b6565b905060006101e782866040518060400160405280601381526020017264656c74614472697020756e646572666c6f7760681b815250610307565b905060006101f58983610341565b9050600061022887836040518060400160405280600c81526020016b1d185d5d1bdb1bd9da58d85b60a21b81525061035a565b600481815560405163a9059cbb60e01b81526001600160a01b0389811692820192909252602481018590529192508c169063a9059cbb906044016020604051808303816000875af1158015610281573d6000803e3d6000fd5b505050506040513d601f19601f820116820180604052508101906102a591906103bf565b50909b9a5050505050505050505050565b6000836102c557506000610300565b838302836102d386836103e1565b1483906102fc5760405162461bcd60e51b81526004016102f39190610403565b60405180910390fd5b5090505b9392505050565b6000818484111561032b5760405162461bcd60e51b81526004016102f39190610403565b506000610338848661039a565b95945050505050565b6000818311610351575081610354565b50805b92915050565b600083830182858210156102fc5760405162461bcd60e51b81526004016102f39190610403565b60006020828403121561039357600080fd5b5051919050565b6000828210156103ba57634e487b7160e01b600052601160045260246000fd5b500390565b6000602082840312156103d157600080fd5b8151801515811461030057600080fd5b6000826103fe57634e487b7160e01b600052601260045260246000fd5b500490565b600060208083528351808285015260005b8181101561043057858101830151858201604001528201610414565b81811115610442576000604083870101525b50601f01601f191692909201604001939250505056fea264697066735822122008c8078fc485980be0b917ea38763205508a5a6e7297946ef0ab2bee8c7eb29f64736f6c634300080a0033",
			"opcodes": "PUSH1 0x80 PUSH1 0x40 MSTORE CALLVALUE DUP1 ISZERO PUSH2 0x10 JUMPI PUSH1 0x0 DUP1 REVERT JUMPDEST POP PUSH1 0x40 MLOAD PUSH2 0x567 CODESIZE SUB DUP1 PUSH2 0x567 DUP4 CODECOPY DUP2 ADD PUSH1 0x40 DUP2 SWAP1 MSTORE PUSH2 0x2F SWAP2 PUSH2 0x87 JUMP JUMPDEST NUMBER PUSH1 0x0 SWAP1 DUP2 SSTORE PUSH1 0x1 SWAP4 SWAP1 SWAP4 SSTORE PUSH1 0x2 DUP1 SLOAD PUSH1 0x1 PUSH1 0x1 PUSH1 0xA0 SHL SUB SWAP4 DUP5 AND PUSH1 0x1 PUSH1 0x1 PUSH1 0xA0 SHL SUB NOT SWAP2 DUP3 AND OR SWAP1 SWAP2 SSTORE PUSH1 0x3 DUP1 SLOAD SWAP3 SWAP1 SWAP4 AND SWAP2 AND OR SWAP1 SSTORE PUSH1 0x4 SSTORE PUSH2 0xCA JUMP JUMPDEST PUSH1 0x1 PUSH1 0x1 PUSH1 0xA0 SHL SUB DUP2 AND DUP2 EQ PUSH2 0x84 JUMPI PUSH1 0x0 DUP1 REVERT JUMPDEST POP JUMP JUMPDEST PUSH1 0x0 DUP1 PUSH1 0x0 PUSH1 0x60 DUP5 DUP7 SUB SLT ISZERO PUSH2 0x9C JUMPI PUSH1 0x0 DUP1 REVERT JUMPDEST DUP4 MLOAD SWAP3 POP PUSH1 0x20 DUP5 ADD MLOAD PUSH2 0xAE DUP2 PUSH2 0x6F JUMP JUMPDEST PUSH1 0x40 DUP6 ADD MLOAD SWAP1 SWAP3 POP PUSH2 0xBF DUP2 PUSH2 0x6F JUMP JUMPDEST DUP1 SWAP2 POP POP SWAP3 POP SWAP3 POP SWAP3 JUMP JUMPDEST PUSH2 0x48E DUP1 PUSH2 0xD9 PUSH1 0x0 CODECOPY PUSH1 0x0 RETURN INVALID PUSH1 0x80 PUSH1 0x40 MSTORE CALLVALUE DUP1 ISZERO PUSH2 0x10 JUMPI PUSH1 0x0 DUP1 REVERT JUMPDEST POP PUSH1 0x4 CALLDATASIZE LT PUSH2 0x62 JUMPI PUSH1 0x0 CALLDATALOAD PUSH1 0xE0 SHR DUP1 PUSH4 0x88A91A8A EQ PUSH2 0x67 JUMPI DUP1 PUSH4 0x95F632B3 EQ PUSH2 0x83 JUMPI DUP1 PUSH4 0x9F678CCA EQ PUSH2 0x8C JUMPI DUP1 PUSH4 0xD3261592 EQ PUSH2 0x94 JUMPI DUP1 PUSH4 0xD4B83992 EQ PUSH2 0x9D JUMPI DUP1 PUSH4 0xFC0C546A EQ PUSH2 0xC8 JUMPI JUMPDEST PUSH1 0x0 DUP1 REVERT JUMPDEST PUSH2 0x70 PUSH1 0x0 SLOAD DUP2 JUMP JUMPDEST PUSH1 0x40 MLOAD SWAP1 DUP2 MSTORE PUSH1 0x20 ADD JUMPDEST PUSH1 0x40 MLOAD DUP1 SWAP2 SUB SWAP1 RETURN JUMPDEST PUSH2 0x70 PUSH1 0x4 SLOAD DUP2 JUMP JUMPDEST PUSH2 0x70 PUSH2 0xDB JUMP JUMPDEST PUSH2 0x70 PUSH1 0x1 SLOAD DUP2 JUMP JUMPDEST PUSH1 0x3 SLOAD PUSH2 0xB0 SWAP1 PUSH1 0x1 PUSH1 0x1 PUSH1 0xA0 SHL SUB AND DUP2 JUMP JUMPDEST PUSH1 0x40 MLOAD PUSH1 0x1 PUSH1 0x1 PUSH1 0xA0 SHL SUB SWAP1 SWAP2 AND DUP2 MSTORE PUSH1 0x20 ADD PUSH2 0x7A JUMP JUMPDEST PUSH1 0x2 SLOAD PUSH2 0xB0 SWAP1 PUSH1 0x1 PUSH1 0x1 PUSH1 0xA0 SHL SUB AND DUP2 JUMP JUMPDEST PUSH1 0x2 SLOAD PUSH1 0x40 MLOAD PUSH4 0x70A08231 PUSH1 0xE0 SHL DUP2 MSTORE ADDRESS PUSH1 0x4 DUP3 ADD MSTORE PUSH1 0x0 SWAP2 PUSH1 0x1 PUSH1 0x1 PUSH1 0xA0 SHL SUB AND SWAP1 DUP3 SWAP1 DUP3 SWAP1 PUSH4 0x70A08231 SWAP1 PUSH1 0x24 ADD PUSH1 0x20 PUSH1 0x40 MLOAD DUP1 DUP4 SUB DUP2 DUP7 GAS STATICCALL ISZERO DUP1 ISZERO PUSH2 0x128 JUMPI RETURNDATASIZE PUSH1 0x0 DUP1 RETURNDATACOPY RETURNDATASIZE PUSH1 0x0 REVERT JUMPDEST POP POP POP POP PUSH1 0x40 MLOAD RETURNDATASIZE PUSH1 0x1F NOT PUSH1 0x1F DUP3 ADD AND DUP3 ADD DUP1 PUSH1 0x40 MSTORE POP DUP2 ADD SWAP1 PUSH2 0x14C SWAP2 SWAP1 PUSH2 0x381 JUMP JUMPDEST PUSH1 0x1 SLOAD PUSH1 0x0 DUP1 SLOAD PUSH1 0x4 SLOAD PUSH1 0x3 SLOAD SWAP5 SWAP6 POP SWAP3 SWAP4 SWAP1 SWAP3 SWAP2 PUSH1 0x1 PUSH1 0x1 PUSH1 0xA0 SHL SUB SWAP1 SWAP2 AND SWAP1 NUMBER SWAP1 PUSH2 0x1AD DUP7 PUSH2 0x17D DUP8 DUP6 PUSH2 0x39A JUMP JUMPDEST PUSH1 0x40 MLOAD DUP1 PUSH1 0x40 ADD PUSH1 0x40 MSTORE DUP1 PUSH1 0x12 DUP2 MSTORE PUSH1 0x20 ADD PUSH18 0x64726970546F74616C206F766572666C6F77 PUSH1 0x70 SHL DUP2 MSTORE POP PUSH2 0x2B6 JUMP JUMPDEST SWAP1 POP PUSH1 0x0 PUSH2 0x1E7 DUP3 DUP7 PUSH1 0x40 MLOAD DUP1 PUSH1 0x40 ADD PUSH1 0x40 MSTORE DUP1 PUSH1 0x13 DUP2 MSTORE PUSH1 0x20 ADD PUSH19 0x64656C74614472697020756E646572666C6F77 PUSH1 0x68 SHL DUP2 MSTORE POP PUSH2 0x307 JUMP JUMPDEST SWAP1 POP PUSH1 0x0 PUSH2 0x1F5 DUP10 DUP4 PUSH2 0x341 JUMP JUMPDEST SWAP1 POP PUSH1 0x0 PUSH2 0x228 DUP8 DUP4 PUSH1 0x40 MLOAD DUP1 PUSH1 0x40 ADD PUSH1 0x40 MSTORE DUP1 PUSH1 0xC DUP2 MSTORE PUSH1 0x20 ADD PUSH12 0x1D185D5D1BDB1BD9DA58D85B PUSH1 0xA2 SHL DUP2 MSTORE POP PUSH2 0x35A JUMP JUMPDEST PUSH1 0x4 DUP2 DUP2 SSTORE PUSH1 0x40 MLOAD PUSH4 0xA9059CBB PUSH1 0xE0 SHL DUP2 MSTORE PUSH1 0x1 PUSH1 0x1 PUSH1 0xA0 SHL SUB DUP10 DUP2 AND SWAP3 DUP3 ADD SWAP3 SWAP1 SWAP3 MSTORE PUSH1 0x24 DUP2 ADD DUP6 SWAP1 MSTORE SWAP2 SWAP3 POP DUP13 AND SWAP1 PUSH4 0xA9059CBB SWAP1 PUSH1 0x44 ADD PUSH1 0x20 PUSH1 0x40 MLOAD DUP1 DUP4 SUB DUP2 PUSH1 0x0 DUP8 GAS CALL ISZERO DUP1 ISZERO PUSH2 0x281 JUMPI RETURNDATASIZE PUSH1 0x0 DUP1 RETURNDATACOPY RETURNDATASIZE PUSH1 0x0 REVERT JUMPDEST POP POP POP POP PUSH1 0x40 MLOAD RETURNDATASIZE PUSH1 0x1F NOT PUSH1 0x1F DUP3 ADD AND DUP3 ADD DUP1 PUSH1 0x40 MSTORE POP DUP2 ADD SWAP1 PUSH2 0x2A5 SWAP2 SWAP1 PUSH2 0x3BF JUMP JUMPDEST POP SWAP1 SWAP12 SWAP11 POP POP POP POP POP POP POP POP POP POP POP JUMP JUMPDEST PUSH1 0x0 DUP4 PUSH2 0x2C5 JUMPI POP PUSH1 0x0 PUSH2 0x300 JUMP JUMPDEST DUP4 DUP4 MUL DUP4 PUSH2 0x2D3 DUP7 DUP4 PUSH2 0x3E1 JUMP JUMPDEST EQ DUP4 SWAP1 PUSH2 0x2FC JUMPI PUSH1 0x40 MLOAD PUSH3 0x461BCD PUSH1 0xE5 SHL DUP2 MSTORE PUSH1 0x4 ADD PUSH2 0x2F3 SWAP2 SWAP1 PUSH2 0x403 JUMP JUMPDEST PUSH1 0x40 MLOAD DUP1 SWAP2 SUB SWAP1 REVERT JUMPDEST POP SWAP1 POP JUMPDEST SWAP4 SWAP3 POP POP POP JUMP JUMPDEST PUSH1 0x0 DUP2 DUP5 DUP5 GT ISZERO PUSH2 0x32B JUMPI PUSH1 0x40 MLOAD PUSH3 0x461BCD PUSH1 0xE5 SHL DUP2 MSTORE PUSH1 0x4 ADD PUSH2 0x2F3 SWAP2 SWAP1 PUSH2 0x403 JUMP JUMPDEST POP PUSH1 0x0 PUSH2 0x338 DUP5 DUP7 PUSH2 0x39A JUMP JUMPDEST SWAP6 SWAP5 POP POP POP POP POP JUMP JUMPDEST PUSH1 0x0 DUP2 DUP4 GT PUSH2 0x351 JUMPI POP DUP2 PUSH2 0x354 JUMP JUMPDEST POP DUP1 JUMPDEST SWAP3 SWAP2 POP POP JUMP JUMPDEST PUSH1 0x0 DUP4 DUP4 ADD DUP3 DUP6 DUP3 LT ISZERO PUSH2 0x2FC JUMPI PUSH1 0x40 MLOAD PUSH3 0x461BCD PUSH1 0xE5 SHL DUP2 MSTORE PUSH1 0x4 ADD PUSH2 0x2F3 SWAP2 SWAP1 PUSH2 0x403 JUMP JUMPDEST PUSH1 0x0 PUSH1 0x20 DUP3 DUP5 SUB SLT ISZERO PUSH2 0x393 JUMPI PUSH1 0x0 DUP1 REVERT JUMPDEST POP MLOAD SWAP2 SWAP1 POP JUMP JUMPDEST PUSH1 0x0 DUP3 DUP3 LT ISZERO PUSH2 0x3BA JUMPI PUSH4 0x4E487B71 PUSH1 0xE0 SHL PUSH1 0x0 MSTORE PUSH1 0x11 PUSH1 0x4 MSTORE PUSH1 0x24 PUSH1 0x0 REVERT JUMPDEST POP SUB SWAP1 JUMP JUMPDEST PUSH1 0x0 PUSH1 0x20 DUP3 DUP5 SUB SLT ISZERO PUSH2 0x3D1 JUMPI PUSH1 0x0 DUP1 REVERT JUMPDEST DUP2 MLOAD DUP1 ISZERO ISZERO DUP2 EQ PUSH2 0x300 JUMPI PUSH1 0x0 DUP1 REVERT JUMPDEST PUSH1 0x0 DUP3 PUSH2 0x3FE JUMPI PUSH4 0x4E487B71 PUSH1 0xE0 SHL PUSH1 0x0 MSTORE PUSH1 0x12 PUSH1 0x4 MSTORE PUSH1 0x24 PUSH1 0x0 REVERT JUMPDEST POP DIV SWAP1 JUMP JUMPDEST PUSH1 0x0 PUSH1 0x20 DUP1 DUP4 MSTORE DUP4 MLOAD DUP1 DUP3 DUP6 ADD MSTORE PUSH1 0x0 JUMPDEST DUP2 DUP2 LT ISZERO PUSH2 0x430 JUMPI DUP6 DUP2 ADD DUP4 ADD MLOAD DUP6 DUP3 ADD PUSH1 0x40 ADD MSTORE DUP3 ADD PUSH2 0x414 JUMP JUMPDEST DUP2 DUP2 GT ISZERO PUSH2 0x442 JUMPI PUSH1 0x0 PUSH1 0x40 DUP4 DUP8 ADD ADD MSTORE JUMPDEST POP PUSH1 0x1F ADD PUSH1 0x1F NOT AND SWAP3 SWAP1 SWAP3 ADD PUSH1 0x40 ADD SWAP4 SWAP3 POP POP POP JUMP INVALID LOG2 PUSH5 0x6970667358 0x22 SLT KECCAK256 ADDMOD 0xC8 SMOD DUP16 0xC4 DUP6 SWAP9 SIGNEXTEND 0xE0 0xB9 OR 0xEA CODESIZE PUSH23 0x3205508A5A6E7297946EF0AB2BEE8C7EB29F64736F6C63 NUMBER STOP ADDMOD EXP STOP CALLER "
		},
		"gasEstimates": {
			"creation": {
				"codeDepositCost": "233200",
				"executionCost": "infinite",
				"totalCost": "infinite"
			},
			"external": {
				"drip()": "infinite",
				"dripRate()": "2328",
				"dripStart()": "2262",
				"dripped()": "2284",
				"target()": "2403",
				"token()": "2425"
			},
			"internal": {
				"add(uint256,uint256,string memory)": "infinite",
				"min(uint256,uint256)": "61",
				"mul(uint256,uint256,string memory)": "infinite",
				"sub(uint256,uint256,string memory)": "infinite"
			}
		},
		"methodIdentifiers": {
			"drip()": "9f678cca",
			"dripRate()": "d3261592",
			"dripStart()": "88a91a8a",
			"dripped()": "95f632b3",
			"target()": "d4b83992",
			"token()": "fc0c546a"
		}
	},
	"abi": [
		{
			"inputs": [
				{
					"internalType": "uint256",
					"name": "dripRate_",
					"type": "uint256"
				},
				{
					"internalType": "contract EIP20Interface",
					"name": "token_",
					"type": "address"
				},
				{
					"internalType": "address",
					"name": "target_",
					"type": "address"
				}
			],
			"stateMutability": "nonpayable",
			"type": "constructor"
		},
		{
			"inputs": [],
			"name": "drip",
			"outputs": [
				{
					"internalType": "uint256",
					"name": "",
					"type": "uint256"
				}
			],
			"stateMutability": "nonpayable",
			"type": "function"
		},
		{
			"inputs": [],
			"name": "dripRate",
			"outputs": [
				{
					"internalType": "uint256",
					"name": "",
					"type": "uint256"
				}
			],
			"stateMutability": "view",
			"type": "function"
		},
		{
			"inputs": [],
			"name": "dripStart",
			"outputs": [
				{
					"internalType": "uint256",
					"name": "",
					"type": "uint256"
				}
			],
			"stateMutability": "view",
			"type": "function"
		},
		{
			"inputs": [],
			"name": "dripped",
			"outputs": [
				{
					"internalType": "uint256",
					"name": "",
					"type": "uint256"
				}
			],
			"stateMutability": "view",
			"type": "function"
		},
		{
			"inputs": [],
			"name": "target",
			"outputs": [
				{
					"internalType": "address",
					"name": "",
					"type": "address"
				}
			],
			"stateMutability": "view",
			"type": "function"
		},
		{
			"inputs": [],
			"name": "token",
			"outputs": [
				{
					"internalType": "contract EIP20Interface",
					"name": "",
					"type": "address"
				}
			],
			"stateMutability": "view",
			"type": "function"
		}
	]
}